:100000006F00806B1300000013000000130000005D
:100010001300000013000000130000001300000094
:100020001300000013000000130000001300000084
:08003000130000007300100032
:100038006FF09FFC000000006F00A0566F00605733
:1000480000000000000000000000000000000000A8
:100058000000000000000000000000000000000098
:100068006FF09FF9000000006FF01FF9000000001A
:100078006FF09FF86FF05FF86FF01FF86FF0DFF721
:100088006FF09FF76FF05FF76F0080156F004016F5
:100098006F00601A6F00601B6F00201C6FF0DFF5A7
:1000A8006FF09FF56FF05FF56F00404B6FF0DFF476
:1000B8006FF09FF46FF05FF46F00201D00000000E8
:1000C8000000000000000000000000006F00E019C0
:1000D8006F00A01C6F00A01F6F0060226F00A02798
:1000E8006F0060306F00A0326F0060356FF0DFF096
:1000F8006FF09FF06FF05FF06FF01FF06FF0DFEFC1
:100108006FF09FEF6F00E0396F00A03A6F0000407A
:100118006F00A0166FF05FEE6FF01FEE6FF0DFED6F
:1001280000000000000000000000000000000000C7
:080138000000000000000000BF
:100140003D432A876373C3029377F700BDEFADE5A4
:10015000937606FF3D8ABA960CC34CC30CC74CC7B6
:100160004107E36BD7FE11E28280B306C3408A06E3
:100170009702000096966780A6002307B700A306A3
:10018000B7002306B700A305B7002305B700A304F3
:10019000B7002304B700A303B7002303B700A302EB
:1001A000B7002302B700A301B7002301B700A300E3
:1001B000B7002300B700828093F5F50F9396850072
:1001C000D58D93960501D58D61B79396270097023B
:1001D000000096968682E78086FA9680C1171D8F6A
:1001E0003E96E374C3F8A5B7411122C6000801008A
:1001F0003244410173002030411122C600080945F4
:10020000D9232A8785476317F702B707002003A77A
:10021000470789476315F700EF20200E11A8B7079D
:10022000002003A7470785476314F700EF10B07F4E
:100230000945ED2301003244410173002030411192
:1002400022C600081145D92B010032444101730038
:100250002030411122C600080100324441017300E0
:100260002030411122C600080100324441017300D0
:100270002030411122C600080100324441017300C0
:100280002030411122C600080100324441017300B0
:100290002030411122C600080100324441017300A0
:1002A0002030411122C6000893050008B7370140ED
:1002B000138507C0EF102003AA8789CB9305000898
:1002C000B7370140138507C0EF10E0080100324442
:1002D000410173002030411122C600088545B7371F
:1002E0000140138507C0EF100000AA8781CB854528
:1002F000B7370140138507C0EF10E0050100324415
:10030000410173002030411122C60008930500040A
:10031000B7370140138507C0EF00F07CAA8789CB6F
:1003200093050004B7370140138507C0EF10A00202
:1003300093050002B7370140138507C0EF00B07A7C
:10034000AA8789CB93050002B7370140138507C000
:10035000EF10600001003244410173002030411170
:1003600022C600088945B7370140138507C0EF0052
:100370009077AA8781CB8945B7370140138507C09D
:10038000EF00707D9145B7370140138507C0EF003E
:100390009075AA8781CB9145B7370140138507C077
:1003A000EF00707BA145B7370140138507C0EF0010
:1003B0009073AA8781CBA145B7370140138507C049
:1003C000EF007079C145B7370140138507C0EF00D2
:1003D0009071AA8781CBC145B7370140138507C00B
:1003E000EF00707701003244410173002030411169
:1003F00022C60008854537050040EF00D06EAA8769
:1004000091C7854537050040EF00F0740100324484
:10041000410173002030411122C600088545B7070D
:10042000004013850740EF00106CAA8781CB8545FB
:10043000B707004013850740EF00F0710100324418
:10044000410173002030411122C600088545B717CD
:10045000004013850780EF001069AA87B1C3854566
:10046000B717004013850780EF00F06E956783A7EC
:1004700047B83E8785471CCB010083C7C18213F76D
:10048000F70F8547E31BF7FE23860182138501855D
:10049000EF20F04B956783A747B83E8785475CCB35
:1004A00001003244410173002030411122C600088E
:1004B00001003244410173002030411122C600087E
:1004C00093055052B747004013850740EF10A02A0C
:1004D000AA8785CF93055052B74700401385074040
:1004E000EF108039B707002003A747078947631536
:1004F000F700EF10905911A8B707002003A747078E
:1005000085476314F700EF10104B0100324441019E
:1005100073002030011122CE001093055052B757BE
:10052000004013850780EF100025AA879DC793051B
:100530005052B757004013850780EF10E033B7578C
:10054000004013850780EF10401CAA87A307F4FE24
:100550008347F4FE3E85EF20303701007244056189
:1005600073002030411122C600080965D9222A876C
:1005700085476317F7020965192CB707002003A701
:10058000470789476315F700EF10905A11A8B7077E
:10059000002003A7470785476314F700EF10104CAE
:1005A00001003244410173002030411122C600088D
:1005B00001003244410173002030411122C600087D
:1005C00001A0411106C622C40008EF20A001EF20BF
:1005D0009005EF20F02CEF102059930600310146D2
:1005E00085450145EF10B057D1450D45EF20C005B9
:1005F00085450945EF20207E854601468145130546
:100600007003EF1010700145EF2080019167138691
:10061000074681450145EF10100E83D72183C2079D
:10062000C1873E86814513050006EF107021916752
:100630001386874685450145EF10F00B83D741832C
:10064000C207C1873E86854513050006EF10501F7F
:1006500091671386074789450145EF10D00983C785
:10066000F18293F7F70F3E86894513050006EF10D8
:1006700050109167138607488D450145EF10B0076C
:1006800083C7E18293F7F70F3E868D451305000679
:10069000EF10300E91671386074991450145EF1021
:1006A000900583C7018393F7F70F3E8691451305A5
:1006B0000006EF10100C99BF970100209381811B59
:1006C0001751002013010194174500001305055F21
:1006D00097050020938505931386818163FAC500F1
:1006E0008322050023A0550011059105E3EAC5FE0C
:1006F00013858181938541866377B50023200500AA
:100700001105E36DB5FE9302800873A002309702D5
:1007100000009382A29293E2120073905230EF2075
:10072000701097020000938202EA739012347300F3
:100730002030797122D60018232EA4FC232604FE33
:10074000232404FE0327C4FDB7070010F98F89CBCB
:10075000B7070240938707409C432324F4FE31A04F
:10076000B70702409C432324F4FE032784FE83271B
:10077000C4FDF98F89C785472326F4FE19A02326D7
:1007800004FE8327C4FE3E853254456182800111F8
:1007900022CE00102326A4FE0327C4FEB7070010B4
:1007A000F98F89CBB7070240938707400327C4FE20
:1007B000D8C331A0B70702400327C4FED8C3010045
:1007C000724405618280797122D60018232EA4FC20
:1007D000232604FE232404FEB70701409387074025
:1007E0009C430327C4FDF98F2324F4FEB70701407F
:1007F00093870740D84B8327C4FDF98F81CB83278C
:1008000084FE89C785472326F4FE19A0232604FE0B
:100810008327C4FE3E85325445618280011122CE79
:1008200000102326A4FEB707014093870740032743
:10083000C4FED8CB0100724405618280397122DE8A
:1008400080002326A4FC2324B4FC232604FE2320BA
:1008500004FE232404FE232E04FC232204FE232C66
:1008600004FC832784FC9C47BD8B2326F4FE83274E
:1008700084FC9C47C18B89CB832784FCDC43032702
:10088000C4FED98F2326F4FE832784FC83D7070078
:1008900093F7F70FF1CF8327C4FC9C432322F4FE88
:1008A000232404FE65A8832784FE0547B317F700B9
:1008B000232EF4FC832784FC83D707003E878327FD
:1008C000C4FDF98F2320F4FE032704FE8327C4FD13
:1008D0006311F708832784FE8A07232EF4FC8327FD
:1008E000C4FD3D47B317F700232CF4FC832784FD98
:1008F00093C7F7FF032744FEF98F2322F4FE8327D3
:10090000C4FD0327C4FEB317F700032744FED98FA5
:100910002322F4FE832784FC984793078002631BFD
:10092000F700832784FE05473317F7008327C4FCAD
:10093000D8CB05A0832784FC984793078004631ACB
:10094000F700832784FE05473317F7008327C4FC8D
:1009500098CB832784FE85072324F4FE032784FE97
:100960009D47E3F2E7F48327C4FC032744FE98C3C2
:10097000832784FC03D707009307F00F63F1E70E8A
:100980008327C4FCDC432322F4FE232404FE75A841
:10099000832784FEA1070547B317F700232EF4FC35
:1009A000832784FC83D707003E878327C4FDF98F04
:1009B0002320F4FE032704FE8327C4FD6312F708F7
:1009C000832784FE8A07232EF4FC8327C4FD3D473A
:1009D000B317F700232CF4FC832784FD93C7F7FF9C
:1009E000032744FEF98F2322F4FE8327C4FD032747
:1009F000C4FEB317F700032744FED98F2322F4FE69
:100A0000832784FC984793078002631BF7008327A2
:100A100084FEA10705473317F7008327C4FCD8CB12
:100A2000832784FC984793078004631BF700832780
:100A300084FEA10705473317F7008327C4FC98CB32
:100A4000832784FE85072324F4FE032784FE9D4725
:100A5000E3F0E7F48327C4FC032744FED8C3010076
:100A6000725421618280011122CE00102326A4FE3F
:100A7000AE872322C4FE2315F4FE832744FE99C7C4
:100A80000357A4FE8327C4FE98CB31A00357A4FECE
:100A90008327C4FED8CB010072440561828079713E
:100AA00022D60018232EA4FC232CB4FC232404FEFD
:100AB000232204FE232604FE232004FE8327C4FDF4
:100AC00063D80700B7070140DC4F2326F4FE31A0AE
:100AD000B7070140DC432326F4FE8327C4FDC1830E
:100AE000BD8B2320F4FE0327C4FDC167FD17F98FDA
:100AF0002324F4FE0327C4FDB70730007D8FB7071A
:100B000030006315F7020327C4FEB70700F1FD1795
:100B1000F98F2326F4FEB7070140D443B7070140FD
:100B2000370700F17D17758FD8C3ADA00327C4FD2B
:100B3000B7071000F98F8DCB832704FE0D47B3173D
:100B4000F7002322F4FE832744FE93C7F7FF032711
:100B5000C4FEF98F2326F4FE0327C4FEB707000F57
:100B6000D98F2326F4FE3DA08327C4FDD5839207A9
:100B7000032784FEB317F70093C7F7FF0327C4FECC
:100B8000F98F2326F4FE0327C4FEB707000FD98F81
:100B90002326F4FE832784FD91CF8327C4FDD583CC
:100BA0009207032784FEB317F7000327C4FED98FEB
:100BB0002326F4FE8327C4FD63D80700B70701404E
:100BC0000327C4FED8CF31A0B70701400327C4FED6
:100BD000D8C30100325445618280011122CE001039
:100BE0002326A4FE8327C4FEFD8B0547B316F7001A
:100BF00037E700E08327C4FE9583938707048A07BD
:100C0000BA9794C30100724405618280011122CE1B
:100C100000102326A4FE8327C4FEFD8B0547B316D0
:100C2000F70037E700E08327C4FE95839387070624
:100C30008A07BA9794C3010072440561828001114A
:100C400022CE00102326A4FEAE87A305F4FE37E7CC
:100C500000E08327C4FEBA970347B4FE2380E74031
:100C60000100724405618280011106CE22CC001081
:100C70002326A4FEB7E700E0BC47898B8DC38327FA
:100C8000C4FE83C707003E878327C4FE83C72700AF
:100C9000920793F7F70FBE853A85553795A0B7E7CA
:100CA00000E0BC47898BA9EF8327C4FE03C7170068
:100CB00085476318F7028327C4FE83C707003E8772
:100CC0008327C4FE83C727009207E207E18793E7E3
:100CD00007F8E207E18793F7F70FBE853A85853776
:100CE00005A08327C4FE83C707003E878327C4FE71
:100CF00083C72700920793F7F70FBE853A858137A0
:100D00008327C4FEDC4381CB8327C4FE83C707004F
:100D10003E85E13539A08327C4FE83C707003E85A1
:100D2000F5350100F240624405618280797122D676
:100D30000018232EA4FC232604FE232404FE2322D1
:100D400004FE232004FEB7170240DC43B18B2326A8
:100D5000F4FE0327C4FE91476302F7020327C4FE93
:100D6000A1476305F7028327C4FEC5E78327C4FDB7
:100D700037177A001307072098C365A08327C4FD9F
:100D800037177A001307072098C361A8B7170240E6
:100D9000D843B7073C00F98F2324F4FEB71702406D
:100DA000D843C167F98F2322F4FE832784FEC983C9
:100DB00089072324F4FE832744FE89EF032784FE5A
:100DC000B7173D00938707903307F7028327C4FDC9
:100DD00098C381A8B7170240D843B7070200F98F1C
:100DE00089CF032784FEB7173D0093870790330709
:100DF000F7028327C4FD98C32DA0032784FEB717ED
:100E00007A00938707203307F7028327C4FD98C32E
:100E100009A88327C4FD37177A001307072098C352
:100E20000100B7170240DC4393F7070F2326F4FEB7
:100E30008327C4FE91832326F4FEB707002013877F
:100E400007008327C4FEBA9783C7070093F7F70FFD
:100E50002320F4FE8327C4FD9843832704FE3357E1
:100E6000F7008327C4FDD8C3B7170240DC4393F7CC
:100E700007702326F4FE8327C4FEA1832326F4FEF5
:100E8000B7070020138707008327C4FEBA9783C7DC
:100E9000070093F7F70F2320F4FE8327C4FDD84300
:100EA000832704FE3357F7008327C4FD98C7B7177D
:100EB0000240D843916793870780F98F2326F4FE79
:100EC0008327C4FEAD832326F4FEB70700201387D3
:100ED00007008327C4FEBA9783C7070093F7F70F6D
:100EE0002320F4FE8327C4FDD843832704FE335711
:100EF000F7008327C4FDD8C7B7170240D843B167AE
:100F0000F98F2326F4FE8327C4FEB9832326F4FE3B
:100F1000B7070020138707078327C4FEBA9783C744
:100F2000070093F7F70F2320F4FE8327C4FDD8476B
:100F3000832704FE3357F7028327C4FD98CB0100B3
:100F4000325445618280011122CE00102326A4FE76
:100F50002324B4FE832784FE99CBB7170240944F15
:100F6000B71702400327C4FE558F98CF21A8B717A3
:100F70000240944F8327C4FE13C7F7FFB717024000
:100F8000758F98CF0100724405618280011122CED5
:100F900000102326A4FE2324B4FE832784FE99CBCD
:100FA000B7170240D44FB71702400327C4FE558F2E
:100FB000D8CF21A8B7170240D44F8327C4FE13C748
:100FC000F7FFB7170240758FD8CF01007244056153
:100FD0008280797122D60018232EA4FC232CB4FC25
:100FE000231704FE8327C4FD83D707002317F4FECD
:100FF0000357E4FE8D6793870704F98F2317F4FEE8
:10100000832784FD03D70700832784FD83D7270028
:10101000D98F139707014183832784FD83D7470026
:10102000D98F139707014183832784FD83D76700F6
:10103000D98F139707014183832784FD83D78700C6
:10104000D98F139707014183832784FD83D7A70096
:10105000D98F139707014183832784FD83D7C70066
:10106000D98F139707014183832784FD83D7E70036
:10107000D98F1397070141838357E4FED98F231734
:10108000F4FE8327C4FD0357E4FE2390E700832783
:10109000C4FD83D7C701139707014183FD77938769
:1010A000F77FF98F1397070141838327C4FD239EA0
:1010B000E700832784FD03D707018327C4FD239816
:1010C000E7000100325445618280011122CE0010F8
:1010D0002326A4FE2324B4FE832784FE8DC3832706
:1010E000C4FE83D70700C207C18393E707041397A1
:1010F000070141838327C4FE2390E70005A08327CF
:10110000C4FE83D70700C207C18393F7F7FB139789
:10111000070141838327C4FE2390E7000100724446
:1011200005618280797122D60018232EA4FC232C1D
:10113000B4FC231704FE8327C4FD83D707002317BD
:10114000F4FE0327C4FDB7370140938707C0630847
:10115000F7020327C4FDB70700406302F702032725
:10116000C4FDB707004093870740630AF7000327D1
:10117000C4FDB7170040938707806311F7028357B8
:10118000E4FE93F7F7F82317F4FE832784FD03D7D3
:1011900027008357E4FED98F2317F4FE8357E4FE1C
:1011A00093F7F7CF2317F4FE832784FD03D7670057
:1011B0008357E4FED98F2317F4FE8327C4FD03571A
:1011C000E4FE2390E700832784FD03D747008327AD
:1011D000C4FD2396E702832784FD03D707008327F6
:1011E000C4FD2394E7020327C4FDB737014093876A
:1011F00007C0631DF700832784FD83C7870013970B
:10120000070141838327C4FD2398E7028327C4FD98
:101210000547239AE700010032544561828001119D
:1012200022CE00102326A4FE2324B4FE832784FEAE
:101230008DC38327C4FE83D70700C207C18393E70A
:1012400017001397070141838327C4FE2390E7000B
:1012500039A88327C4FE83D70700C207C183F99B3F
:101260001397070141838327C4FE2390E700010001
:10127000724405618280011122CE00102326A4FE53
:10128000AE872322C4FE2315F4FE832744FE9DC3AC
:101290008327C4FE83D7C700139707014183835771
:1012A000A4FED98F1397070141838327C4FE239699
:1012B000E70035A08327C4FE83D7C7001397070133
:1012C00041838357A4FE93C7F7FFC207C183F98FF9
:1012D0001397070141838327C4FE2396E70001008B
:1012E000724405618280797122D60018232EA4FCF5
:1012F000AE87231DF4FC232604FE231504FE2314CD
:1013000004FE8327C4FD83D7070113970701418398
:101310008357A4FDF98F2315F4FE8327C4FD83D7DB
:10132000C7001397070141838357A4FDF98F231446
:10133000F4FE8357A4FE81CB835784FE89C785477B
:101340002326F4FE19A0232604FE8327C4FE3E852F
:10135000325445618280011122CE00102326A4FE62
:10136000AE872315F4FE8357A4FE93C7F7FF1397A8
:10137000070141838327C4FE2398E70001007244DC
:10138000056182805D7186C6A2C48008232EA4FAFE
:10139000232CB4FA232604FE232404FE232204FE75
:1013A000232004FE232E04FC8327C4FB232EF4FCFD
:1013B0008327C4FB83D70701C207C1832326F4FE1A
:1013C0000327C4FEB567FD17F98F2326F4FE832794
:1013D00084FB83D767003E878327C4FED98F2326EB
:1013E000F4FE8327C4FE1397070141838327C4FBC0
:1013F0002398E7008327C4FB83D7C700C207C183B4
:101400002326F4FE0327C4FEBD679387379FF98F19
:101410002326F4FE832784FB03D74700832784FB1E
:1014200083D78700D98F139707014183832784FBD4
:1014300083D7A700D98FC207C1833E878327C4FE05
:10144000D98F2326F4FE8327C4FE13970701418317
:101450008327C4FB2396E7008327C4FB83D7470178
:10146000C207C1832326F4FE0327C4FEC167938706
:10147000F7CFF98F2326F4FE832784FB83D7C70099
:101480003E878327C4FED98F2326F4FE8327C4FE1C
:101490001397070141838327C4FB239AE70093072F
:1014A00084FC3E85EFF09F880327C4FDB7470140C9
:1014B000938707806317F700832744FD2324F4FEF6
:1014C00029A0832704FD2324F4FE8327C4FB83D7AC
:1014D000C700C207C183C207C18763D207020327BF
:1014E00084FEBA878607BA978E073E97832784FBC8
:1014F0009C438607B357F7022322F4FE05A0032777
:1015000084FEBA878607BA978E073E97832784FBA7
:101510009C438A07B357F7022322F4FE032744FEB5
:1015200093074006B357F70292072326F4FE83275A
:10153000C4FE13D7470093074006B307F7020327FB
:1015400044FEB307F7402320F4FE8327C4FB83D770
:10155000C700C207C183C207C18763D207028327BE
:1015600004FE8E071387270393074006B357F7023D
:101570009D8B0327C4FED98F2326F4FE05A0832765
:1015800004FE92071387270393074006B357F70219
:10159000BD8B0327C4FED98F2326F4FE8327C4FE08
:1015A0001397070141838327C4FB2394E7000100BD
:1015B000B640264461618280011122CE00102326AC
:1015C000A4FE2324B4FE832784FE95C38327C4FE90
:1015D00083D7C7001397070141838967D98F139772
:1015E000070141838327C4FE2396E70015A08327C4
:1015F000C4FE83D7C700139707014183F977FD170E
:10160000F98F1397070141838327C4FE2396E700D0
:101610000100724405618280797122D60018232E60
:10162000A4FCAE87232AC4FC231DF4FC232404FE5F
:10163000232204FE232004FE232604FE8327C4FD68
:101640002326F4FE8357A4FD93F7F70F958393F7B2
:10165000F70F2324F4FE8357A4FDFD8B2322F4FE11
:10166000832744FE0547B317F7002320F4FE032722
:1016700084FE85476318F7008327C4FEB10723263D
:10168000F4FE0DA0032784FE89476318F700832723
:10169000C4FEC1072326F4FE31A08327C4FED10770
:1016A0002326F4FE832744FD99CB8327C4FE94436D
:1016B0008327C4FE032704FE558F98C321A88327E0
:1016C000C4FE9443832704FE13C7F7FF8327C4FE99
:1016D000758F98C30100325445618280011122CE7A
:1016E00000102326A4FEAE872315F4FE8357A4FE24
:1016F00093F7F71F1397070141838327C4FE2392B3
:10170000E7000100724405618280011122CE0010C1
:101710002326A4FE8327C4FE83D74700C207C183C4
:1017200093F7F71FC207C1833E857244056182802B
:10173000797122D60018232EA4FCAE87231DF4FC59
:10174000232604FE8327C4FD83D7070013970701D0
:1017500041838357A4FDF98FC207C18389C7854799
:101760002326F4FE19A0232604FE8327C4FE3E850B
:10177000325445618280797122D60018232EA4FC50
:10178000AE87231DF4FC232204FE232604FE23201F
:1017900004FE232404FE8357A4FD93F7F70F9583DB
:1017A00093F7F70F2320F4FE8357A4FDFD8B232628
:1017B000F4FE8327C4FE0547B317F7002326F4FE83
:1017C000032704FE8547631FF7008327C4FD83D7E3
:1017D000C700C207C1833E878327C4FEF98F232633
:1017E000F4FE3DA8032704FE8947631FF700832703
:1017F000C4FD83D70701C207C1833E878327C4FE88
:10180000F98F2326F4FE29A88327C4FD83D7470137
:10181000C207C1833E878327C4FEF98F2326F4FEC7
:101820008357A4FDA183C207C1832322F4FE83272B
:1018300044FE0547B317F7002322F4FE8327C4FDB7
:1018400083D70700C207C1833E87832744FEF98FF1
:101850002322F4FE8327C4FE81CB832744FE89C75D
:1018600085472324F4FE19A0232404FE832784FE45
:101870003E85325445618280797122D60018232E2C
:10188000A4FCAE87231DF4FC231704FE231604FEDC
:101890008357A4FDA1832317F4FE8357E4FE054775
:1018A000B317F7002316F4FE8357C4FE93C7F7FF60
:1018B0001397070141838327C4FD2390E7000100AC
:1018C000325445618280011106CE22CC0010AA87D5
:1018D000A307F4FE9567938747B89C473E87A167A7
:1018E0005CCB9567938747B89C473E8791675CCBF5
:1018F0009307F4FE85460146BE850145EF10401969
:101900009567938747B89C473E87A1671CCB01002A
:10191000F240624405618280011106CE22CC0010A3
:10192000AA87A307F4FE9567938747B89C473E872D
:10193000A1675CCB9567938747B89C473E879167C3
:101940001CCB1307F4FE9307F4FE85463A86BE854A
:101950000145EF10E0139567938747B89C473E8792
:10196000A1671CCB0100F24062440561828079715D
:1019700006D622D40018AA87231FF4FC9567938704
:1019800047B89C473E87A1675CCB8357E4FDA183A2
:10199000C207C18393F7F70F2306F4FE8357E4FDD4
:1019A00093F7F70FA306F4FE9567938747B89C4714
:1019B0003E8791671CCB1307C4FE9307C4FE89467C
:1019C0003A86BE850145EF10A00C9567938747B80E
:1019D0009C473E87A1671CCB0100B2502254456151
:1019E0008280011106CE22CC00102326A4FE2324DF
:1019F000B4FE2322C4FE2320D4FE0327C4FE930793
:101A0000F00963FFE70091679386C74991671386E2
:101A100047589305700591671385074BEF109000A9
:101A2000032784FE9307F00763FFE700916793861F
:101A3000474E916713864758930580059167138534
:101A4000074BEF10207E032744FE9307F00963FF46
:101A5000E70091679386874F9167138647589305F0
:101A6000A00591671385074BEF10C07B032704FE89
:101A70009307F00763FFE7009167938687509167AC
:101A8000138647589305B00591671385074BEF10F0
:101A900060791305A002053D0145BD3D8327C4FEC5
:101AA00093F7F70F850793F7F70F3E85B535014597
:101AB000A535832744FE93F7F70F850793F7F70FB4
:101AC0003E85993D1305B002FD3B0145B1358327A5
:101AD00084FE93F7F70F890793F7F70F3E852D3DA7
:101AE00001451D3D832704FE93F7F70F890793F700
:101AF000F70F3E8515351305C002F1330100F240A2
:101B0000624405618280797106D622D40018AA87C2
:101B1000231FF4FC9306F0071306F00981450145E5
:101B2000C935A30704FE05A8230704FE11A883579F
:101B3000E4FD3E852D3D8347E4FE85072307F4FE43
:101B40000347E4FE9307F009E3F3E7FE8347F4FE5F
:101B50008507A307F4FE8307F4FEE3D707FC010023
:101B6000B250225445618280011106CE22CC4ACA6D
:101B70004EC852C656C45AC25EC0001001488147C2
:101B80001307F00493063002054681450145EF0036
:101B9000F05C93060031054685451305F004EF001F
:101BA000007C93060031014685451305D004EF0003
:101BB000007B93060031014685451305E004EF00E4
:101BC000007A9567938747B89C473E8789675CCBC7
:101BD00003A781828967938707F43357F702BA878F
:101BE0008A07BA9786073E8B814B5A85DE85EF00C0
:101BF00050769567938747B89C473E8789671CCB8B
:101C000003A781828967938707F43357F702BA875E
:101C10009207998F8E073E8A814A5285D685EF00BA
:101C2000507345454D3103A781828967938707F437
:101C30003357F702BA879207998F8E073E898149F9
:101C40004A85CE85EF00F0701305100BAD390545C0
:101C5000E1311305C002C9311305D00275391305EE
:101C6000200B953105454D391305C002753113051B
:101C7000D0025D311305300BB931054571391305BB
:101C8000C00259391305D002413905457131130598
:101C9000C00259311305D00241311305400B2531E3
:101CA0001D459D391305000C39391305200AAD3146
:101CB00009459D311305400885311305100C21316C
:101CC0001305500C91391305200CF53E2945A93117
:101CD000014599311305300CFD361305A0082D3947
:101CE0001305A00215391305400CF13E1305A00899
:101CF00025311305E00E0D311305500CE936394539
:101D0000213913056003C136130500063131010086
:101D10001305000E4D3E3D4501316945F53E3D45FB
:101D2000E53E6145D53E1305F002FD361305800200
:101D3000E53613050002CD3613052002F13E7D4540
:101D4000E13E6D45D13E13053002F93613057003AF
:101D5000E1360145D1361D45C1360945753E41453F
:101D6000653E1305100E85363D457D366D456D3655
:101D70003D455D365D454D3613053003713E130517
:101D8000C002593E13059002413E1305E002693638
:101D900013050003513613050003BD3E13059003E0
:101DA000A53E1305F0038D3E0145BD361D45AD36FC
:101DB0000D459D3641458D361305A0022936014556
:101DC000A13E0945913E0145813E13052008A936F3
:101DD0001305B002CD3C014581360D45353E014528
:101DE000253E130530080D3E1305000FE93C05455F
:101DF00025361305600FC13C0145393E1305A0038C
:101E0000D9341545113E13059002753CC167138501
:101E1000F7FFD5390100F24062445249C249324AC3
:101E2000A24A124B824B05618280797106D622D478
:101E30000018AA87AE863287231FF4FCB687231EBC
:101E4000F4FCBA87A30DF4FCA30704FE59A80355BC
:101E5000E4FD0357C4FD8347F4FEBA97BE8583575C
:101E6000E4FD9D073E860357C4FD8347F4FEBA9701
:101E7000BE86EFF01FB78307B4FD938607FE834746
:101E8000F4FE11679206130747593697BA9783C72E
:101E90000700A306F4FE230704FE15A88347D4FE1B
:101EA000858B99C7C16713850780EFF05FAC31A0C0
:101EB000C1671385F7FFEFF09FAB8347D4FE85839F
:101EC000A306F4FE8347E4FE85072307F4FE0347D9
:101ED000E4FE9D47E3F4E7FC8347F4FE8507A30790
:101EE000F4FE0347F4FEBD47E3F3E7F60100B2500A
:101EF000225445618280797106D622D40018AA87BF
:101F00002E87232CC4FC231FF4FCBA87231EF4FC69
:101F1000231704FE91A08357E4FE8E071397070151
:101F200041838357E4FDBA9793960701C182835793
:101F3000C4FD920793950701C1818357E4FE0327EF
:101F400084FDBA97838707003E863685F93D83571F
:101F5000E4FE85072317F4FE8357E4FE032784FD80
:101F6000BA9783870700C5FB0100B2502254456130
:101F70008280797106D622D40018AA87AE8632876D
:101F8000231FF4FCB687231EF4FCBA87A30DF4FCD0
:101F90000347B4FD93074006B357F70293F7F70FD3
:101FA0002306F4FE0347B4FDA947B357F70213F71E
:101FB000F70FA947B377F70293F7F70FA306F4FEDD
:101FC0000347B4FDA947B377F70293F7F70F230749
:101FD000F4FEA30704FE99A88347F4FEC207C18359
:101FE0008E071397070141838357E4FDBA97139730
:101FF000070141838357C4FD920793960701C1826D
:102000008347F4FE130604FFB29783C7C7FF938785
:10201000070393F7F70FE207E1873E86B6853A8517
:1020200029358347F4FE8507A307F4FE0347F4FE32
:102030008947E3F3E7FA0100B250225445618280F8
:10204000797106D622D40018AA87AE863287231F5C
:10205000F4FCB687231EF4FCBA87231DF4FC831717
:10206000A4FD63D807028357C4FD920713970701A5
:1020700041838357E4FD1306D002BA853E8575334C
:102080008357A4FDB307F040C207C183231DF4FCAE
:1020900031A88357C4FD92071397070141838357E3
:1020A000E4FD13060002BA853E8541330317A4FD03
:1020B000896793870771B347F702C207C18793F710
:1020C000F70F2304F4FE0317A4FD9307803EB347E4
:1020D000F702139707014187A947B367F702C207C1
:1020E000C18793F7F70FA304F4FE0317A4FD93072A
:1020F0004006B347F702139707014187A947B36723
:10210000F702C207C18793F7F70F2305F4FE031701
:10211000A4FDA947B347F702139707014187A947D1
:10212000B367F702C207C18793F7F70FA305F4FE61
:102130000317A4FDA947B367F702C207C18793F746
:10214000F70F2306F4FEA30704FEA1A88347F4FEBD
:102150008507C207C1838E07139707014183835701
:10216000E4FDBA971397070141838357C4FD920793
:1021700093960701C1828347F4FE130604FFB297CA
:1021800083C787FF9387070393F7F70FE207E1877A
:102190003E86B6853A8551398347F4FE8507A30705
:1021A000F4FE0347F4FE9147E3F2E7FA0100B25070
:1021B000225445618280411122C6000895679387A9
:1021C000C7BCDC4383D7470013970701418383C70C
:1021D000B181BE861377F70F93878181B6972380ED
:1021E000E70083C7B181850713F7F70FA38DE1805F
:1021F00003C7B1818547631AF70003C7818193073D
:10220000500A6304F700A38D018003C7B1818D4795
:102210006317F700A38D01800547238EE18001003D
:10222000324441018280411122C60008B7070240B2
:102230009387470409671307874BD8C3B707024042
:10224000938747049843B70702409387470413676F
:10225000170098C30100324441018280411122C617
:1022600000080547A38EE180B70702409387470423
:102270009443B70702409387470441677917758FE6
:1022800098C30100324441018280411122C60008F6
:1022900095679387C7BCDC4383D747001397070133
:1022A000418383C73182BE861377F70F93870182FC
:1022B000B6972380E70083C73182850713F7F70FAE
:1022C000A381E18203C731828547631AF70003C700
:1022D00001829307500A6304F700A381018203C7B8
:1022E00031828D476317F700A3810182054723825E
:1022F000E1820100324441018280411122C600087E
:10230000B707024093874704056713070796D8C3AA
:10231000B7070240938747049843B7070240938763
:1023200047041367170098C30100324441018280BB
:10233000411122C600080547A382E182B707024087
:10234000938747049443B707024093874704416744
:102350007917758F98C301003244410182807971E9
:1023600006D622D40018232EA4FC232CB4FCB2875A
:102370002328D4FCA30BF4FC8327C4FD958393F797
:10238000F70F9D8BA307F4FE8327C4FD93F7F70F88
:10239000FD8B2307F4FE0327C4FD93070008630D9C
:1023A000F7148327C4FD958391E785451145EFE038
:1023B0009FB961A88327C4FD13D7570085476317CA
:1023C000F70085452145EFE01FB841A08327C4FDF4
:1023D00013D7570089476317F70085454145EFE05C
:1023E0009FB6A5A08327C4FD13D757008D47631858
:1023F000F700854513050002EFE0FFB4B9A083277D
:10240000C4FD13D7570091476318F700854513059E
:102410000004EFE05FB315A88327C4FD13D757006E
:1024200095476318F700854513050008EFE0BFB135
:1024300029A88327C4FD13D7570099476317F700CE
:10244000854513050010EFE01FB08347E4FE054704
:10245000B317F700C207C1832310F4FE032784FDDE
:1024600085476317F702832704FDC207C183A18351
:10247000C207C18389E78D472322F4FE11A8832771
:1024800004FDC207C183A183C207C1832322F4FED6
:10249000832704FDC207C18393F7F70F2324F4FEBB
:1024A0000347F4FE95670A07938747B8BA979C439A
:1024B0003E87930704FEBE853A85EFE02FB80327D9
:1024C00084FD8547631BF7020347F4FE95670A07FF
:1024D000938747B8BA979C43BE868347E4FE054777
:1024E000B317F700C207C183034774FD3A86BE8560
:1024F0003685EFE04FD711A00100B250225445615C
:102500008280797106D622D40018232EA4FCAE87CF
:102510003687A30DF4FCB287230DF4FCBA87A30C15
:10252000F4FC8327C4FD93F7F70F2304F4FE8347DD
:10253000B4FDA304F4FE8347A4FD2305F4FE834702
:1025400094FD2326F4FE930784FE3E85EFE0CFF151
:10255000B7E700E09843FD777D8F83A741845D8FC7
:1025600023A2E184B7E700E0D843B7070010FD17C6
:102570007D8F93874184DC435D8F93874184D8C3EB
:102580009387418403C7870085476313F700312091
:102590000100B250225445618280411122C60008D8
:1025A000B7E700E07D5723A0E718B7E700E07D57C5
:1025B00023A2E7180100324441018280411122C662
:1025C0000008B7E700E003A7418423A0E710B7E7BE
:1025D00000E013874184584323A2E71001003244EE
:1025E00041018280011106CE22CC001093874184E4
:1025F00005472384E70083A7418481EB93874184C7
:10260000DC4381E7A30704FE21A08547A307F4FE6E
:1026100069378347F4FE3E85F2406244056182805B
:10262000011106CE22CC0010AA87A307F4FE83472F
:10263000F4FE91E79387418423840700413701002A
:10264000F240624405618280797106D622D4001876
:10265000232EA4FCAE87231DF4FC8327C4FD81EB4D
:102660008545856713850780EFE0FF8D35A8032733
:10267000C4FD85476317F70085450545EFE01F91C9
:1026800025A00327C4FD89476317F7008545094541
:10269000EFE0DF8F11A80327C4FD8D476316F70015
:1026A00085451145EFE09F8E8357A4FD91EF91671B
:1026B000938607529567138647B993052003916760
:1026C00013854752EF00103603A781829307007DE0
:1026D000B357F702C207C183FD17C207C183231492
:1026E000F4FE8357A4FD8607C207C183FD17C20706
:1026F000C1832312F4FE231504FE231304FE2306D4
:1027000004FE95670327C4FD0A079387C7BABA97E3
:102710009C433E87930744FEBE853A85EFE09FA029
:1027200095670327C4FD0A079387C7BABA979C43E6
:10273000054685453E85EFE01FB495670327C4FD38
:102740000A079387C7BABA979C4385453E85EFE051
:102750009FC08327C4FD81EB854609468545130547
:1027600090024533A1A00327C4FD85476319F700F4
:102770008546094685451305C002613305A8032730
:10278000C4FD89476319F700854609468545130549
:10279000D002853B21A80327C4FD8D476318F700AD
:1027A0008546094685451305E002A13B9567032749
:1027B000C4FD0A079387C7BABA979C4385453E85EF
:1027C000EFE0FFA50100B250225445618280011163
:1027D00006CE22CC00102326A4FE2324B4FE2322FE
:1027E000C4FE2320D4FE8327C4FE89EB93068031E8
:1027F000054685451545EFF09FB699A80327C4FE09
:10280000C147631BF70093068031054685451305D4
:102810003002EFF0DFB42DA80327C4FE93070002B7
:10282000631BF70093068031054685451305D002EA
:10283000EFF0FFB231A891679386475595671386ED
:10284000C7BB9305D002916713858755EF00901D94
:10285000032784FE8547631AF700930680310546F7
:1028600085451D45EFF0BFAF99A8032784FEC547F6
:10287000631BF7009306803105468545130550021A
:10288000EFF0FFAD2DA8032784FE93071002631B12
:10289000F70093068031054685451305F002EFF0F9
:1028A0001FAC31A891679386475595671386C7BBC0
:1028B00093052003916713858755EF00B016032712
:1028C00044FE8947631AF700930680310546854523
:1028D0001945EFF0DFA8B5A0032744FEC947631BE5
:1028E000F700930680310546854513054002EFF059
:1028F0001FA781A8032744FE93072002631BF7004C
:1029000093068031054685451305E002EFF03FA5AB
:102910000DA8032744FE930730026317F7009307BF
:1029200030022322F4FE31A89167938647559567BC
:102930001386C7BB93058003916713858755EF0006
:10294000700E9306003105468545032504FEEFF021
:102950001FA10100F2406244056182805D7186C65C
:10296000A2C480082326A4FC2324B4FC2322C4FC94
:102970002320D4FC232EE4FA232A04FBA30DF4FA2B
:102980008327C4FC81EB8545856713851700EFE03D
:102990008FDB21A80327C4FC85476318F700854512
:1029A000916713851700EFE06FDE8326C4FB0326D3
:1029B00004FC832544FC032584FC113D231E04FCF8
:1029C00093074010231FF4FC231004FE8347B4FB3D
:1029D00005476383E70205476344F70089CB81A07D
:1029E00009476381E7020D476384E7020DA82311BD
:1029F00004FE231204FE25A0231104FE85472312A2
:102A0000F4FE31A889472311F4FE231204FE01A825
:102A100089472311F4FE85472312F4FE0100930732
:102A200000202313F4FE832744FBC207C1838E07D3
:102A3000C207C1832314F4FE231504FE9D47231609
:102A4000F4FE0327C4FC0A079387C180BA979C430E
:102A50003E879307C4FDBE853A85EFE08FD70327F5
:102A600084FCC1476316F70085450545EFE02F83D9
:102A70000327C4FC0A079387C180BA979C43854506
:102A80003E85EFE08FE40100B6402644616182801C
:102A9000011122CE00102326A4FE2324B4FE2322FB
:102AA000C4FE2320D4FE59A8832784FE1387170071
:102AB0002324E4FE83C607000327C4FE0A07938786
:102AC000C180BA979C433E8793970601C183231622
:102AD000F70001000327C4FE0A079387C180BA9755
:102AE0009C4383D78700C207C183898BE5D783279F
:102AF00044FEA9C701000327C4FE0A079387C180CB
:102B0000BA979C4383D78700C207C183858BE5D7DB
:102B10000327C4FE0A079387C180BA979C4383D7D3
:102B2000C70093960701C182832744FE13871700CD
:102B30002322E4FE13F7F60F2380E700832704FE29
:102B40001387F7FF2320E4FEA5F30100724405611B
:102B50008280011122CE00102324A4FE2326B4FE7D
:102B600037F700E02320070037F700E023020700D3
:102B700037F700E0A302070037F700E02303070060
:102B800037F700E0A303070037F700E0230407004E
:102B900037F700E0A304070037F700E0230507003C
:102BA00037F700E0A305070037F700E0854614C3B8
:102BB000010037F700E011071843BA8701480327DF
:102BC000C4FEC286636DD7000327C4FEC286E3122B
:102BD000D7FE032784FEBE866363D700D9BF0100FA
:102BE000724405618280011106CE22CC001023269A
:102BF000A4FE2324B4FE8327C4FE85E7032784FEB6
:102C000085476310F70293068031014685452545C7
:102C1000EFF0EFF49146014681452945EFF02FF49E
:102C200065A00327C4FE89476312F702930680312B
:102C30000146854513056002EFF06FF291460146AB
:102C4000814513057002EFF08FF1BDA80327C4FE84
:102C5000C1476310F7029306803101468545094557
:102C6000EFF0EFEF9146014681450D45EFF02FEF74
:102C7000A1A80327C4FE930700026312F70293067C
:102C80008031014685451305A002EFF04FED9146D6
:102C9000014681451305B002EFF06FEC35A0032724
:102CA000C4FE930720026311F702930680310146A8
:102CB00085451305A004EFF08FEA91460146814552
:102CC0001305B004EFF0AFE90100F2406244056182
:102CD0008280797106D622D40018232EA4FC232CDE
:102CE000B4FC232AC4FC2328D4FC85450545EFE029
:102CF0008FA5832504FD032544FDF535032744FDF9
:102D00008947631BF700032704FD8D476316F7000F
:102D100085451145EFD0BFD8032744FD9307200216
:102D2000631FF700032704FD930730026319F700C0
:102D30008545B707140013850701EFD05FD68327B9
:102D4000C4FD91E785451165EFE0EF9F35A00327AE
:102D5000C4FD85476318F700854537050200EFE09D
:102D6000EFA219A80327C4FD89476317F70085451B
:102D700037050400EFE08FA1832784FD2320F4FEB4
:102D8000231204FE231304FE231404FE231604FE60
:102D9000B1472315F4FE95670327C4FD0A079387FF
:102DA000C7BCBA979C433E87930704FEBE853A850D
:102DB000EFE04FDD95670327C4FD0A079387C7BC83
:102DC000BA979C4385453E85EFE00FFF0100B25066
:102DD000225445618280011106CE22CC00102326A8
:102DE000A4FEAE87A305F4FE95670327C4FE0A0779
:102DF0009387C7BCBA979C430546930550523E85BE
:102E0000EFE09F818327C4FE938757030347B4FEF7
:102E1000BA86014685453E85EFF0AFEE0100F240EF
:102E2000624405618280411106C622C40008B717BA
:102E30000240DC43C98313F7F700B7177A00938782
:102E400007203307F702B727F400938707403E9720
:102E500023A4E18285460146F16793850720014559
:102E60008D3D0100B240224441018280797106D635
:102E700022D40018232EA4FC232CB4FC232AC4FC47
:102E8000232604FE99A00100956783A7C7BC93057C
:102E900000043E85EFE0DF89AA87FDD7956783A709
:102EA000C7BCBE86832784FD13871700232CE4FC50
:102EB00083870700C207C183BE853685EFE01F8286
:102EC0008327C4FE85072326F4FE0327C4FE832739
:102ED00044FDE34AF7FA832744FD3E85B25022546D
:102EE00045618280011122CE0010232604FE232496
:102EF00004FEB71702409443B71702404167558F4D
:102F000098C3B71702409843B7070200F98F2324EC
:102F1000F4FE8327C4FE85072326F4FE832784FE60
:102F200099E70327C4FE93070050E31CF7FCB7178B
:102F300002409843B7070200F98F89C785472324C9
:102F4000F4FE19A0232404FE032784FE854763179B
:102F5000F70CB72702409843B727024013670701D1
:102F600098C3B72702409843B7270240719B98C384
:102F7000B72702409843B72702401367270098C33A
:102F800037170240B71702405843D8C337170240DB
:102F9000B71702405843D8C337170240B71702404B
:102FA0005843D8C3B7170240D443B7170240370776
:102FB000C1FF7D17758FD8C3B7170240D443B71729
:102FC000024037072500558FD8C3B71702409443F6
:102FD000B717024037070001558F98C30100B71794
:102FE00002409843B7070002F98FF5DBB71702409C
:102FF000D843B7170240719BD8C3B7170240D843D4
:10300000B717024013672700D8C30100B717024063
:10301000DC4313F7C700A147E31AF7FE010072442F
:1030200005618280411106C622C40008B71702401C
:103030009843B71702401367170098C3B7170240A9
:10304000D443B71702403707FFF8758FD8C3B717B7
:1030500002409443B71702403707F7FE7D17758F7C
:1030600098C3B71702409443B71702403707FCFFD5
:103070007D17758F98C3B7170240D443B717024026
:10308000370781FF7D17758FD8C3B7170240370701
:103090009F0098C7813D0100B240224441018280D7
:1030A000411106C622C4000893061002130600024E
:1030B000B7170700938507800945EFF09FC101000E
:1030C000B240224441018280011122CE0010AA8721
:1030D000A307F4FE83C7D182138717009376F70FF7
:1030E000A386D1823E8793870185BA970347F4FE72
:1030F0002380E70003C7D1828547631DF70003C71C
:1031000001859307800D6307F700A38601820947B5
:103110002386E18203C7D182B5476316F7020547CC
:103120002386E1829387018503C7C7009307E00EDA
:103130006316F70005472386E18221A00D47238609
:10314000E182A3860182010072440561828001113F
:1031500022CE00102326A4FE8327C4FE850703C7C2
:1031600007009307000B6318F7028327C4FE890743
:1031700083C70700A2071397070141878327C4FE6F
:103180008D0783C70700C207C187D98F139707012F
:1031900041872399E1828327C4FE910703C7070073
:1031A0009307100B631EF7008327C4FE03C7570065
:1031B0002387E1828327C4FE03C76700A387E182D8
:1031C0008327C4FE9D0703C707009307200B6318DE
:1031D000F7028327C4FEA10783C70700A20713973E
:1031E000070141878327C4FEA50783C70700C207DD
:1031F000C187D98F139707014187239AE1828327DB
:10320000C4FEA90703C707009307300B6318F70034
:103210008327C4FE03C7B7002388E18201007244FC
:1032200005618280938781809C434111328806C664
:10323000AA882E87C8473686972700009387479A23
:1032400063170800972700009387479A3E88C68631
:10325000972500009385C5991920EF00F00A397170
:1032600032D436D63EDA3AD842DC46DE93878180C5
:103270002E86AA858843341006CE36C68D28F240A5
:10328000216182801C46FD171CC663D90700184EB9
:1032900063C5E700A9476393F5004DA51C422E8541
:1032A0001387170018C22380B7008280011122CC37
:1032B00026CA4AC84EC652C406CE2A89AE8932846E
:1032C000B304D6007D5A63149400014509A88345D0
:1032D00004004E864A857D370504E31645FFF2401B
:1032E0006244D2444249B249224A05618280357122
:1032F00022CD26CB4AC94EC706CF52C556C35AC1A6
:10330000DEDEE2DCE6DAAA89AE843289368409C5DB
:103310001C4D99E3EF00F02597270000938707964F
:10332000639CF40C83A4490083D7C400A18BFDC720
:103330009C48EDC793070002A304F1029307000322
:1033400002D22305F10222C6930B5002972A0000F5
:10335000938A0A8D054C294B4A848347040099C3FC
:103360006390770FB30C2441638D0C00E6864A8688
:10337000A6854E85253FFD576308F51E9256E696B5
:1033800036D2834704006381071EFD5713091400DA
:1033900002C802CE3ECA02CCA309010482D48345EE
:1033A000090015465685EF00704313041900C24703
:1033B00051E913F7070109C713070002A309E10444
:1033C00013F7870009C71307B002A309E104834676
:1033D00009001307A002638FE606F2474A8481467C
:1033E00025460347040093051400130707FD63787F
:1033F000E60AADCA3ECEBDA0972700009387078A94
:103400006395F40083A4890005B79727000093878C
:10341000E784E39BF4F083A4C90039B7A6854E8501
:10342000F12B09D97D55FA406A44DA444A49BA4930
:103430002A4A9A4A0A4BF65B665CD65C0D6182802A
:10344000050421BF330555413315AC00C98F3EC873
:103450002289B1B7324793064700184336C66349FD
:1034600007023ACE034704009307E002631FF70404
:10347000034714009307A002631BF702B247090435
:10348000138747009C433AC663C107023ECA35A86A
:103490003307E04093E727003ACE3EC8E1B7B38751
:1034A000670385462E84BA972DBFFD57C5B705041F
:1034B00002CA81468147254603470400930514004C
:1034C000130707FD6378E606F1F2834504000D4615
:1034D0001715000013054575EF00503011CD9717F3
:1034E0000000938767741D8D93070004B397A700AE
:1034F000424505045D8D2AC8834504001946171509
:1035000000001305A572130914002304B102EF0093
:10351000F02C3DC197D7FFFF9387C7AE95E7424791
:10352000B2471377071009CF91073EC69257D2973B
:103530003ED21DB5B387670385462E84BA97ADBFCB
:103540009D07E19BA107D5B77800970600009386F9
:1035500026D626860C084E8597000000E70000005E
:10356000FD572A8AE314F5FC83D7C40093F70704B8
:10357000E39A07EA125545BD780097060000938646
:1035800026D326860C084E85012AD9BF797156CAE2
:103590009C49BA8A984522D426D24ECE52CC06D621
:1035A0004AD05AC85EC6AA892E84B284368A63D3AA
:1035B000E700BA879CC00347340419C385079CC041
:1035C0001C4093F7070281C79C4089079CC00329D0
:1035D000040013796900631A0900130B9401FD5B61
:1035E0005C449840998F634CF9041C408346340432
:1035F00093F70702B336D000A5EB13063404D28547
:103600004E85829AFD576303F5041C40114698408D
:10361000998B544481446397C700B384E64063D3D5
:10362000040081441C4418486354F700998FBE94E9
:10363000014969047D5B63982405014509A8854615
:103640005A86D2854E85829A631E75017D55B25089
:10365000225492540259F249624AD24A424BB24B26
:10366000456182800509ADBF3307D400130600030E
:10367000A301C7040347540493871600A297890641
:10368000A381E7049DBF85462286D2854E85829A16
:10369000E30E65FB050945B7797122D426D24AD0DD
:1036A0004ECE06D652CC56CA5AC8B68983C68501B4
:1036B0009307E0063289AA842E8413863504638139
:1036C000F61E63E2D706930730066382F60A63EDBF
:1036D000D700638B061E930780056387F616930A4F
:1036E00024042301D40469A8930740066386F600E6
:1036F00093079006E395F6FE1C40084393F60708EF
:1037000093054500C1C21C410CC363D807001307D1
:10371000D002B307F040A301E4049716000093869B
:103720006651294765A0930730076383F61A63EF54
:10373000D7009307F006638FF60493070007E39022
:10374000F6FA9C4193E707029CC109A8930750072A
:103750006382F60493078007E393F6F893078007E4
:10376000A302F404971600009386064EE5A01C43BE
:10377000938A2504938647009C4314C32381F50450
:103780008547B5A293F607041C410CC3BDDEC207F2
:10379000C187A5BF0C401C4313F8050813854700DB
:1037A0006305080008C39C4339A093F5050408C3CA
:1037B000FDD983D707001307F006638BE60C971635
:1037C0000000938626472947A30104044C400CC4FB
:1037D00063C5050008406D9908C099E3B28A91CD90
:1037E000B28AB3F5E702FD1AB69583C505002380BA
:1037F000BA00B3D5E70263F3E70AA147631EF700F7
:103800001C40858B91CB58401C4863C7E700930749
:103810000003A38FFAFEFD1A3306564110C84E87E7
:10382000CA867000A2852685EFF05FD67D5A6314A4
:10383000450D7D55B250225492540259F249624AC4
:10384000D24A424B45618280A382D504971600007C
:103850009386463E0C40084313F805081C411105A9
:103860006300080208C313F7150001C793E50502BA
:103870000CC04147B1FB0C4093F5F5FD0CC0A9B756
:1038800013F8050408C3E30008FEC207C183E1BFC3
:10389000971600009386063A21473DB7AE8791B749
:1038A00094411C43CC4913F806081385470063066E
:1038B000080008C39C438CC301A808C393F6060400
:1038C0009C43F5DA2390B70023280400B28A81BF15
:1038D0001C43D04181459386470014C383AA070047
:1038E0005685ED2D01C53305554148C05C401CC8C7
:1038F000A30104042DB714485686CA8526858299EB
:10390000E30945F31C40898B8DE7B2474844E353F4
:10391000F5F23E8505B785465686CA852685829985
:10392000E30965F1050A5C443247998FE345FAFEE5
:10393000E9BF014A930A94017D5BF5B7011122CCDE
:1039400026CA4AC806CE4EC6AA842E89328401C52C
:103950001C4D91E33929971700009387273263198B
:10396000F406C0401C4C1CC48357C400A18BC9C3BF
:103970001C48BDCF1C4808409379F90F1379F90F03
:103980001D8D5C486346F500A2852685D9242DE56A
:103990001C440505FD171CC41C401387170018C0E4
:1039A000238037015C486389A7008357C400858B57
:1039B00081CBA9476316F900A2852685592C0DED08
:1039C000F24062444A85D2444249B249056182804C
:1039D000971700009387872C6314F400804459B72D
:1039E0009717000093878727E31EF4F6C0449DBF16
:1039F000A285268521203DDD7D59D9B741119387C8
:103A0000818026C2844322C44AC006C62A892E84E5
:103A100089C49C4C99E32685A92E971700009387AB
:103A2000E725631CF402C0400317C4009317070185
:103A3000C18393F68700B5EE93F607019DEEA54787
:103A40002320F900136707042316E4007D55B240D4
:103A500022449244024941018280971700009387D3
:103A6000E7236314F4008044C1B7971700009387DD
:103A7000E71EE31BF4FAC04445BF918B8DC74C5839
:103A800089C9930744046384F5004A85AD23232A3A
:103A900004028357C4002322040093F7B7FD2316C2
:103AA000F4001C481CC08357C40093E7870023160A
:103AB000F4001C4881EF8357C4001307002093F7DC
:103AC00007286385E700A2854A859D298357C4009E
:103AD00013F7170005C75C4823240400B307F04020
:103AE0001CCC1C480145A5F78317C40013F7070831
:103AF00039DF93E707042316F40089BF898B014758
:103B000091E3584818C4F1BF4111194506C6D5259F
:103B10000545EF00B01483D7C500011122CC26CA99
:103B200006CE4AC84EC613F78700AA842E8471EFCA
:103B3000D841634DE000B841634AE0000145F240DE
:103B40006244D2444249B2490561828058547DD7CB
:103B500003A904009396370123A0040063DD060641
:103B600070488357C400918B99C75C401D8E5C5888
:103B700099C33C401D8E5C540C508146268582972B
:103B8000FD570357C400631DF5009440F54763E8F3
:103B9000D706B70740208507B3D7D700858BA5C3C5
:103BA0001C48232204001CC09317370163D8070068
:103BB000FD576314F5009C4091E368C84C5823A05E
:103BC0002401ADDD930744046384F5002685252197
:103BD000232A0402A5B70C50014685462685029784
:103BE000FD572A86E31FF5F69C40A5DF75476385E0
:103BF000E70059476394E70423A0240181B71367C2
:103C000007042316E4007D551DBF83A90501E38742
:103C100009F203A905008D8B23A035013309394131
:103C2000014791E3D84918C4E35A20F11C540C50C1
:103C3000CA864E86268582976349A0008357C400B2
:103C400093E707042316F4007DBFAA993309A9401E
:103C5000E1BF9C49A5C3011122CC06CE2A8411C51F
:103C60001C4D81E72EC63122B2459717000093877D
:103C7000E700639CF5004C408397C5009DC72285F3
:103C80006244F24005616FF01FE9971700009387C7
:103C9000E7006394F5000C44C5B7971700009387BD
:103CA000E7FBE39BF5FC4C44C1BFF2406244014595
:103CB0000561828001458280411122C406C62A84A2
:103CC0002316B5002317C500232005002322050075
:103CD000232405002322050623280500232A0500A6
:103CE000232C0500214681451305C505EFC04FC5AE
:103CF000970700009387A7535CD09707000093872E
:103D000007561CD4970700009387475A5CD497073F
:103D100000009387075D00D01CD8B24022444101C7
:103D2000828097050000938505F389AA411126C278
:103D3000130680069384F5FFB384C4024AC02E891B
:103D400022C406C693854407892E2A8401CD2320E8
:103D5000050023222501310508C413868406814508
:103D6000EFC00FBE2285B240224492440249410175
:103D700082801C4DA5E7411106C622C497070000AA
:103D8000938767FA1CD5938741819C4323240504BC
:103D900023260504232805046314F50085471CCD5C
:103DA0002A84352848C022851D2808C42285052874
:103DB00048C4484001469145EFF01FF008440546CD
:103DC000A545EFF07FEF48440946C945EFF0DFEE27
:103DD00085471CCCB240224441018280828041113F
:103DE0009387418126C284434AC006C69C4C22C4A4
:103DF0002A8999E32685B53F938484048044DC4076
:103E0000FD1763D607009C40B9CF8440C5BF031798
:103E1000C40039E7C1778507232204062320040064
:103E200023220400232404005CC423280400232A42
:103E30000400232C0400214681451305C405EFC06E
:103E40002FB0232A0402232C040223240404232653
:103E500004042285B24022449244024941018280F6
:103E60001304840671BF91454A85EFF03FEC88C08A
:103E700049FDB1472320F9000144E1BF797122D403
:103E80004AD052CC56CA5AC85EC606D626D24ECEA4
:103E90002A8AAE8A130485040149054BFD5B09ECAF
:103EA000B25022544A8592540259F249624AD24A87
:103EB000424BB24B45618280044483294400FD1982
:103EC00063D409000040E1BF83D7C400637BFB00DB
:103ED0008397E40063877701A6855285829A3369C8
:103EE000A90093848406E1BF1971A6DAAE84839594
:103EF000E500A2DC86DE328463DC050083D7C400E3
:103F000023A0060093F707089DE39307004015A040
:103F1000300836C61D21B246E34205FE7247BD6732
:103F2000F98F7977BA9793B717009CC2F9BF9307B7
:103F300000041CC0F6506654D654014509618280C5
:103F400083D7C500011122CC06CE26CA4AC8898B68
:103F50002E8489CF930774041CC01CC885475CC895
:103F6000F2406244D24442490561828074003000CC
:103F7000AA849D3FA2452A892685052201ED831743
:103F8000C40013F7072069FFF19B93E7270023166E
:103F9000F400C9B7970700009387E7D89CD48357EC
:103FA000C40008C008C893E707082316F400A24716
:103FB0005CC8B24789CF8315E4002685652601C910
:103FC0008357C400F19B93E717002316F40083572F
:103FD000C4003369F9002316240159B793F5F50F8E
:103FE0002A966314C5000145828083470500E38D4E
:103FF000B7FE0505FDB7CDC183A7C5FF411122C49A
:1040000006C626C21384C5FF63D307003E94AA8464
:104010006526938781839C4399EB2322040023AC7C
:1040200081822244B24026859244410179A6637E72
:10403000F40014403307D4006396E7009843DC4350
:10404000369718C05CC0E1BFBA87D84319C3E37D77
:10405000E4FE94433386D700631F86001040B29677
:1040600094C33386D700E31EC7FA10435843B29671
:1040700094C3D8C37DB76375C400B1479CC055B71E
:104080001040B306C4006316D70014435843B296D9
:1040900014C058C0C0C371B78280011126CA93846E
:1040A0003500F19806CE22CC4AC84EC6A104B147CD
:1040B00063F1F404B14463E0B4042A89F52C9387D6
:1040C000818398433A8431E09387C1839C4391E78D
:1040D00081454A85512823AEA182A6854A8569205B
:1040E000FD5963173507B1472320F9004A85F124AC
:1040F00029A0E3D204FCB1471CC10145F24062444F
:10410000D2444249B249056182801C40858F63CE0A
:104110000702AD4663F6F6001CC03E9404C031A011
:104120005C406312870223ACF1824A85792413052F
:10413000B4009307440061993307F54061D33A9482
:10414000898F1CC065BF5CC3CDB722874040A5BF27
:10415000130435007198E30385FCB305A4404A8538
:104160002120E31D35FB41B7411122C42A842E854D
:1041700023A0018606C6D924FD576317F50093874F
:1041800001869C4391C31CC0B240224441018280FD
:10419000FD4763F6B700D9471CC17D5582807C413D
:1041A000011122CC06CE2E862A8491C713972500B2
:1041B000BA97984319EB228532C6BD20AA8522857D
:1041C00062443246F24005611DA8854601456308F8
:1041D000D700FD566319D700D9471CC00545F240EA
:1041E0006244056182802E8523A007000297014565
:1041F000FDB793878180AA8588436FF07FF94111CD
:1042000022C42A842E85B28523A0018606C62924CD
:10421000FD576317F500938701869C4391C31CC02B
:10422000B240224441018280E1AA411122C42E847D
:104230008395E50006C65922634905007C48AA9784
:104240007CC8B2402244410182808357C4007D77FC
:104250007D17F98F2316F400EDB783D7C500011140
:1042600022CC26CA4AC84EC606CE93F70710AA84A7
:104270002E843289B68991C78395E5008946014627
:1042800031228357C4007D777D17F98F2316F40000
:104290008315E4006244F240CE864A86B249424920
:1042A0002685D24405613DA8411122C42E84839500
:1042B000E50006C6E128FD570357C400631BF5005F
:1042C000FD77FD17F98F2316F400B2402244410117
:1042D00082808567D98F2316F40068C8FDB783955F
:1042E000E50005A8411122C42A842E85B2853686B0
:1042F00023A0018606C6EFE07FB7FD576317F500E0
:10430000938701869C4391C31CC0B2402244410163
:104310008280411122C42A842E8523A0018606C6EC
:10432000E120FD576317F500938701869C4391C3F5
:104330001CC0B240224441018280411122C42A841F
:104340002E85B28523A0018606C66D20FD57631712
:10435000F500938701869C4391C31CC0B240224460
:1043600041018280411122C42A842E8523A0018626
:1043700006C66928FD576317F500938701869C439D
:1043800091C31CC0B240224441018280411122C429
:104390002A842E85B285368623A0018606C659203A
:1043A000FD576317F500938701869C4391C31CC09A
:1043B000B24022444101828082808280411122C425
:1043C0002A842E85B285368623A0018606C68D20D6
:1043D000FD576317F500938701869C4391C31CC06A
:1043E000B2402244410182809307800523A0F186D8
:1043F0007D5582809307800523A0F1867D558280BC
:104400009307800523A0F1867D5582809307800560
:1044100023A0F186014582809307800523A0F186C1
:104420007D5582809307800523A0F1867D5582808B
:104430009307800523A0F1867D55828093870184B0
:104440009C4391C73E9523A0A1843E85828093879B
:1044500041863E9523A0A1843E85828001A0000074
:10446000785F73756D313A00785F73756D323A001D
:10447000725F7475726E5F666C61673A000000006F
:104480006C5F7475726E5F666C61673A0000000065
:1044900063726F73735F666C61673A005446545F72
:1044A000585F4D41583E785F73746172740000002C
:1044B0002E2E2F4C69627261726965732F73656568
:1044C0006B667265655F7065726970686572616C54
:1044D0002F5345454B465245455F31385446542E7F
:1044E000630000005446545F595F4D41583E795F68
:1044F00073746172740000005446545F585F4D41FC
:10450000583E785F656E64005446545F595F4D4174
:10451000583E795F656E64002564000025660000E2
:104520006D7300002E2E2F4C696272617269657383
:104530002F7365656B667265655F6C696272617227
:104540006965732F7A665F7069742E6300000000DE
:1045500075730000300000002E2E2F4C69627261CE
:10456000726965732F7365656B667265655F6C69EB
:10457000627261726965732F7A665F7370692E6308
:10458000000000006C63645F7365745F7265676947
:104590006F6E00000000000000000000000000003E
:1045A00000000000000000080808080808080000D3
:1045B0000808000000482424120000000000000049
:1045C000000000000000004848487E2424247E2487
:1045D000242400000000103C5252121C3050505253
:1045E000523C1010000000222515150D2A58545475
:1045F000522200000000000C1212120A762529191E
:10460000916E00000006040402000000000000009B
:1046100000000000004020101008080808080810DA
:10462000102040000002040808101010101010089C
:10463000080402000000000008086B1C1C6B08083E
:10464000000000000000000000101010FE1010100C
:10465000000000000000000000000000000000005A
:104660000604040200000000000000007E000000BC
:10467000000000000000000000000000000000003A
:104680000606000000004020202010100808080442
:104690000402020000000018244242424242424208
:1046A00024180000000000101C1010101010101032
:1046B000107C00000000003C4242424020100804F0
:1046C000427E00000000003C424240201820404250
:1046D000423C000000000020303028242422FE202C
:1046E00020F800000000007E0202021E224040422C
:1046F000221C0000000000182402023A46424242F6
:10470000443800000000007E4220201010080808F5
:10471000080800000000003C4242422418244242A3
:10472000423C00000000001C22424242625C4040C9
:10473000241800000000000000001818000000000D
:104740001818000000000000000000080000000031
:1047500000080808000000402010080402040810A7
:10476000204000000000000000007E00007E0000ED
:104770000000000000000002040810204020100883
:10478000040200000000003C4242462010101000CD
:10479000181800000000001C225A55555555553A6E
:1047A000423C00000000000808181414243C224277
:1047B00042E700000000001F2222221E2242424245
:1047C000221F00000000007C424201010101014261
:1047D000221C00000000001F22424242424242428C
:1047E000221F00000000003F4212121E121202425D
:1047F000423F00000000003F4212121E121202024D
:10480000020700000000003C222201010171212268
:10481000221C0000000000E7424242427E42424227
:1048200042E700000000003E0808080808080808E1
:10483000083E00000000007C101010101010101036
:104840001010110F0000007722120A0E0A12122215
:1048500022770000000000070202020202020202A8
:10486000427F00000000007736363636362A2A2A84
:104870002A6B0000000000E346464A4A5252526248
:10488000624700000000001C22414141414141417A
:10489000221C00000000003F424242423E0202024F
:1048A000020700000000001C224141414141414DEE
:1048B000321C60000000003F4242423E121222229F
:1048C00042C700000000007C42420204182040421F
:1048D000423E00000000007F490808080808080858
:1048E000081C0000000000E74242424242424242AD
:1048F000423C0000000000E7424222242414141825
:10490000080800000000006B2A2A2A2A2A361414FC
:1049100014140000000000E742242418181824246E
:1049200042E700000000007722221414080808085B
:10493000081C00000000007E212010100804044222
:10494000423F00000078080808080808080808081E
:104950000808780000000204040408080810102069
:1049600020204040001E10101010101010101010C9
:1049700010101E00001824000000000000000000BD
:104980000000000000000000000000000000000027
:10499000000000FF0006080000000000000000000A
:1049A00000000000000000000000001C22302C224B
:1049B000326C0000000000000302021A264242424C
:1049C000261A000000000000000000384402020225
:1049D00044380000000000006040407C42424242F7
:1049E00062DC0000000000000000003C42427E0249
:1049F000423C0000000000003048083E080808085B
:104A0000083E0000000000000000007C22221C0282
:104A10003C42423C000000000302023A464242424D
:104A200042E700000000000C0C00000E0808080817
:104A3000083E000000000030300000382020202018
:104A40002020221E0000000003020272120A0E1231
:104A500022770000000000080E080808080808086F
:104A6000083E0000000000000000007F9292929239
:104A700092B70000000000000000003B46424242A6
:104A800042E70000000000000000003C42424242B9
:104A9000423C0000000000000000001B2642424291
:104AA000261A02070000000000000058644242423B
:104AB000645840E000000000000000774C0404044B
:104AC000041F0000000000000000007C42023C4087
:104AD000423E0000000000000008083E08080808E8
:104AE00048300000000000000000006342424242E3
:104AF00062DC000000000000000000772222141495
:104B00000808000000000000000000DB91525A2A53
:104B100024240000000000000000006E2418181873
:104B20002476000000000000000000E74224241862
:104B300018080806000000000000007E2210080887
:104B4000447E000000C020202020202010202020B3
:104B50002020C00010101010101010101010101095
:104B600010101010000304040404040408040404D6
:104B700004040300045A20000000000000000000AC
:104B80000000000000080140000C0140001001403E
:104B90000014014074696D65725F7069745F696EBD
:104BA000746572727570745F6D730000002C014043
:104BB0000000004000040040000800407370695F7E
:104BC0006770696F5F696E697400000000380140AA
:104BD0000044004000480040004C00402C20667516
:104BE0006E6374696F6E3A20000000006173736534
:104BF0007274696F6E2022257322206661696C656C
:104C0000643A2066696C6520222573222C206C6929
:104C10006E65202564257325730A0000232D302B33
:104C200020000000686C4C00656667454647000040
:104C300030313233343536373839414243444546D2
:104C40000000000030313233343536373839616294
:104C500063646566000000000000000000000000C2
:104C60000000000000000000000000000000000044
:104C70000000000000000000000000000000000034
:104C80000000000000000000000000000000000024
:104C90000000000000000000000000000000000014
:104CA0000000000000000000000000000000000004
:084CB0000000000000000000FC
:104CB80000000000010203040102030406070809BA
:104CC80000000000784C0000984C0000584C000090
:104CD80000000000000000000000000000000000CC
:104CE80000000000000000000000000000000000BC
:104CF80000000000000000000000000000000000AC
:104D0800000000000000000000000000000000009B
:104D1800000000000000000000000000000000008B
:104D280002040608010000001000002000300140C5
:084D38000038004010000020CB
:00000001FF
