:100000006F10806E1300000013000000130000004A
:100010001300000013000000130000001300000094
:100020001300000013000000130000001300000084
:08003000130000007300100032
:100038006FF09FFC000000006F10206A6F10206AAC
:1000480000000000000000000000000000000000A8
:100058000000000000000000000000000000000098
:100068006FF09FF9000000006FF01FF9000000001A
:100078006FF09FF86FF05FF86FF01FF86FF0DFF721
:100088006FF09FF76FF05FF76F00C01E6F00A01F43
:100098006F0000206F00A0226F0000216FF0DFF5D5
:1000A8006FF09FF56FF05FF56F00600A6FF0DFF497
:1000B8006FF09FF46FF05FF46FF01FF40000000022
:1000C8000000000000000000000000006F00C026D3
:1000D8006FF09FF26F00507F6FF01FF26FF0DFF14B
:1000E8006FF09FF16FF05FF16FF01FF16FF0DFF0CD
:1000F8006FF09FF06FF05FF06FF01FF06FF0DFEFC1
:100108006FF09FEF6F10803D6F10600C6F10E04034
:100118006F00E0236FF05FEE6FF01FEE6FF0DFED22
:1001280000000000000000000000000000000000C7
:080138000000000000000000BF
:1001400005472388E180B7060240FC4241677917E2
:10015000F98FFCC282800965EF10007A854763162B
:10016000F5000965EF10407BE13F730020303971E5
:100170008545054506DE22DC26DA4AD84ED652D41D
:1001800056D2EF10502B85453145EF10D02AB714C9
:10019000014093070004914A0D4A4C08138504C09E
:1001A000231AF10056CE52CCEF10C07B9307000803
:1001B0004C08138504C0231AF100EF10A07A85457E
:1001C0001145EF1030292800EF1030593719004041
:1001D000416485497D142C00130509804EC422C654
:1001E00023080100EF10F02881460146130509801D
:1001F0008945EF10905C130509808545EF10705715
:1002000037051800854513050530EF109003854527
:100210000545EF103024E1774C0813850480231A3C
:10022000F10056CE52CCEF10E073A1474C08138575
:1002300004C0231AF100EF10E0722800EF10F05113
:100240002C00370500404EC422C623080100EF10E1
:10025000502281460146894537050040EF10F05590
:10026000854537050040EF10D050F2506254D2540B
:100270004259B259225A925A216182800545EF10A3
:10028000E06B01C50545EF10406D73002030094556
:10029000EF10206A730020301145EF10206A19C555
:1002A0001145EF10806B89450545392473002030D6
:1002B0004145EF100068A3880180238901802388CD
:1002C0000180730020302145EF10A06683C51181A5
:1002D0003E8613F7150039E783C7218113035006C3
:1002E000B7080020338367028146B71E0140938818
:1002F000080A130E500603A88E0033856600469543
:1003000013588800230005018506E396C6FF85077C
:10031000A389D18093F7F70F9306C00363ECF6002F
:100320002389F1808505A388B18005458945692227
:10033000730020302389D18005472388E180DDB711
:1003400013050002EF10805F09C513050002EF10CE
:10035000C060730020300565EF10405E19C505656B
:10036000EF10A05F89450545812A7300203079711F
:1003700026D29354450022D44AD04ECE52CC06D633
:1003800093F7F40F2A842E89B289368AADE7854522
:100390001145EF10500A3D88854733948700420489
:1003A0004180231281006319F90093170A01C18368
:1003B000A18391E38D473EC493F4F40F8D67938737
:1003C00047CE8A04BE948440137AFA0F4C002685E7
:1003D00052C6EF10205985476317F9004E86A28553
:1003E0002685EF106065B250225492540259F249AA
:1003F000624A4561828005476395E700854521454E
:1004000049BF09476395E7008545414559B70D4701
:100410006396E700854513050002A5BF1147639663
:10042000E700854513050004ADB715476396E7005F
:10043000854513050008B1BF1947E39EE7F48545DC
:1004400013050010B9B74111930680040546814594
:100450001305100206C6213F930680040546814518
:1004600013052002293793068004054681451305AC
:100470003002F53D93068004054681455545C53D4E
:1004800093068004054681455145D535B240930613
:100490008004054681454D454101D1BD4111C1460C
:1004A00005468545694506C6D935B240C14605466B
:1004B00085450D45410165BD914763EBA71E8D67DD
:1004C000938747CF0A053E951C41411106C622C4B9
:1004D000828799E937150140A1451305058022441B
:1004E000B24041016F1000558547639CF5003715F8
:1004F0000140A145130505802244B24041016F101F
:10050000205389476392F51A37150140A145130519
:100510000580EF1040515DFDD9BF81E937150140DD
:1005200093050040130505C05DBF85476399F5003D
:100530003715014093050040130505C075BF894775
:100540006394F5163715014093050040130505C067
:10055000EF10604D61F5E9BF81E99305000437159F
:10056000014013050540A5BF85476399F500930534
:1005700000043715014013050540BDBF8947639549
:10058000F512371501409305000413050540EF10DF
:10059000804961F5E9BF81E593050008C9B7854742
:1005A0006395F50093050008E9B78947639EF50E4A
:1005B000371501409305000813050540EF10A046CC
:1005C00061FDCDB78DE937140140A14513050480C5
:1005D000EF10404693050040130504C0EF1080451E
:1005E0009305000413050440EF10C0449305000870
:1005F00013050440EDB58547639AF50237140140B1
:10060000A14513050480EF10A04293050040130597
:1006100004C0EF10E0419305000413050440EF10FF
:1006200020419305000813050440F9B58947639DEF
:10063000F50637140140A14513050480EF10A03ED4
:10064000A14521C513050480EF10C03E37140140B9
:1006500093050040130504C0EF10E03C93050040F3
:1006600015C9130504C0EF10E03C37140140930591
:10067000000413050440EF10003B9305000405C17E
:1006800013050440EF10003B25B713050480EF105D
:10069000203A6DBF130504C0EF108039F9B7130578
:1006A0000440EF10E03829B7B24022444101828073
:1006B0008280011122CCC1462A8405468545130556
:1006C000A00206CE26CA4AC84EC65531C1460546C6
:1006D00085451305B0026139C146054685451305B8
:1006E000C0027131C146054685451305D00241312E
:1006F000A28513064006130520216524A285130652
:10070000400613053021712CA285130640061305FF
:100710000021412CA2851306400613051021512407
:10072000B739002013850922AD2037390020130581
:10073000091C8520B73400201385041F99283734FD
:10074000002013050419B120B737000003A787D094
:10075000B737000083A7C7D02328E418130404196F
:100760005CC0F240624423A0E9222320E91C938963
:1007700009221309091C23A8E41E9384041F23A241
:10078000F9002322F900DCC04249D244B249056194
:100790008280930700001CC15CC11CC55CC51CC9DC
:1007A0005CC91CCD5CCD1CD15CD11CD523260502B7
:1007B000828093070020630CF51463E4A706930777
:1007C00010106303F51063E4A7028947630FF50C6B
:1007D00063E7A70069C185476304F50C82808D47F4
:1007E000630AF50C93070010630BF50C82809307E6
:1007F0000011630AF50E63EBA70093072010630A4C
:10080000F50C93073010630BF50C828093072011D1
:100810006305F50E636EF50C930730116304F50E56
:10082000828093073021630AF51263ECA7029307D5
:100830003020630DF50E63EBA70093071020630DC6
:10084000F50C93072020630EF50C8280930710218E
:100850006309F50E63EDA70E93070021630DF50CF8
:10086000828093070030630AF51063EBA7009307BB
:100870000022630AF50E93071022630BF50E8280A7
:10088000930720306305F510636EF50E9307303043
:100890006304F5108280ED46014685452145C1BCC3
:1008A000ED46014685452545DDBFED4601468545BA
:1008B0002945F5B7ED46014685452D45CDB7ED46B1
:1008C000014685450145E1BFED46014685450545A3
:1008D000F9B7ED46014685450945D1B7ED460146D4
:1008E00085450D456DBFED46014685453D4545BFF6
:1008F000ED46014685454D455DB7ED4601468545CA
:10090000694571BFED46014685456D4549BFED46D8
:1009100001468545194561B7ED46014685451D45AA
:10092000BDBFED4601468545414595BFED460146B3
:1009300085454545ADB7ED46014685451305600241
:10094000B9BFED46014685451305700289BFED46E6
:10095000014685451305800299B7ED460146854558
:10096000130590022DBFED4601468545514505BF53
:10097000ED460146854555451DB7ED460146854581
:10098000594531BFED46014685455D4509BFED46F8
:1009900001468545614521B7ED46014685456545DA
:1009A000FDBD397126DAAA8422DC13D484004AD82A
:1009B0004ED606DEAE893289ED3B631E040E056518
:1009C000854513050580EF10002785450545EF1087
:1009D000802613D74400C1476313F710370516006C
:1009E000854513050504EF10C005B7170240DC4329
:1009F00037177A0013070720C983BD8BB387E70237
:100A00003727F400130707400A048D8823150100D7
:100A10002313010023060100231A010002CEBA9716
:100A2000370700202328F70633D737034183930580
:100A30001700B38535032312E10041671307070749
:100A40003AC8096713070771B3D7B7024C009386FA
:100A5000F7FFC207C183B38727032314D100B3D79D
:100A6000E702231BF100B707020089073ECC8D6720
:100A7000938707303E9400402285EF10801FC9EC19
:100A80000C082285EF106026A1452285EF10405703
:100A900091452285EF10405C22858545EF10604D21
:100AA00022858545EF10A04EF2506254D25442592F
:100AB000B2592161828085476317F4008545054559
:100AC000EF10401919B789476315F40085450945AA
:100AD000C5BF8D47E31BF4EE85451145D5B7C54726
:100AE0006318F70037051800854513050530E5BD87
:100AF000930710026318F70037151A008545130590
:100B000005C0D5B593072002E311F7EE37151A009B
:100B1000854513050580C1BD85476390F4020C0827
:100B20002285EF1000252285A145EF10804E930508
:100B300000402285EF10605385B789470C08228555
:100B4000639DF400EF10202E2285A145EF10004E8A
:100B500091452285EF10005381B7EF10E0372285D1
:100B6000A145EF10C04D930500402285EF10A05223
:100B700025B7B707002083A7070737177A001307A1
:100B80000720B3D7E7021307803E93F7F70FB38729
:100B9000E702239AF180B7F700E023820700A382DF
:100BA000070023830700A3830700054798C38280BB
:100BB000B7F700E023A0070003D741812382070095
:100BC000A3820700238307003305A702A38307003E
:100BD000054798C337F700E05C43E37FF5FE82806A
:100BE00001112304A100280006CEA304B1002305AF
:100BF000C10036C6EF00B06DF24005618280411140
:100C0000C167116702C6FD17130777A97D15420555
:100C100041816314F5004101828002C6B246E36758
:100C2000D7FE0100B246850636C6CDBFFD577D15FD
:100C30006313F50082800100DDBF411122C4371427
:100C400001404AC085652A89130504C026C206C62C
:100C5000A144EF00305E130404C089652285EF00D3
:100C6000705D0545E13793178901E187916522851C
:100C700063D70702EF00D05B89652285EF00505BE8
:100C8000FD140545060993F4F40F4D371379F90F58
:100C9000E9F4B24022449244024941018280EF00CB
:100CA0007059D9BF411122C4371401404AC085652B
:100CB0002A89130504C026C206C6A144EF00505776
:100CC000130404C089652285EF00D0560545B93F5D
:100CD00093178901E1879165228563D70702EF00A9
:100CE000305589652285EF00B054FD14054506098D
:100CF00093F4F40F253F1379F90FE9F4B24022443D
:100D00009244024941018280EF00D052D9BF0111C3
:100D10004AC885452A89214506CE22CC26CAEF003D
:100D2000907193070080371401402312F1008D4722
:100D30003EC44C00C147130504C03EC68564EF00A5
:100D4000704293850480130504C0EF00B04E130574
:100D50002003753593850480130504C0EF00504DC2
:100D600013052003693D4545C93D2945493D130506
:100D7000A003E13513055005353713056002753DB5
:100D800011450D371305200F4D3D0545213F130536
:100D9000000E65351305F00331371305500219377E
:100DA000714509377945FD3D13050002E53D49458B
:100DB000D53D1305A002FD3513050009E5351305E2
:100DC0004002CD354545F93D0145E93D0145D93D57
:100DD0000145C93D0145F9350145E9351305100EB9
:100DE000A93D130500027D3D13050002653D130575
:100DF00000024D3D13050002753515456535014569
:100E00005535554545351305700A693D1305D00321
:100E1000513D6145413D1305500269351305A0025E
:100E200051351305B002BD3D1305B002A53D1305B4
:100E3000A0038D3D1305100B09350145A53501456E
:100E400095351305400BD53B1D45A93D1305000CF9
:100E5000ED332945813D0945B1351305100CF13BB2
:100E6000094589351305500CC93B1305F0041D3D98
:100E70001305A005053D1305700CC13313050004CF
:100E800015351305A002553B0145293D0145193D86
:100E90000145093D1305800A31351305B002713B48
:100EA000014509350145FD3B0145ED3B1305300B7F
:100EB000D53B1305600351331305000C631409007F
:100EC0001305000AC5331305700B853B0145D93B5B
:100ED000130590029D331305C0028533F24062442E
:100EE000D244424905618280411122C43714014035
:100EF0004AC085652A89130504C026C206C6C144B6
:100F0000EF001033130404C089652285EF0090328E
:100F10000545293B93170901C1879165228563D84F
:100F20000702EF00F03089652285EF007030060976
:100F3000FD140545420993F4F40FCD391359090105
:100F4000E1F4B24022449244024941018280EF0020
:100F5000702ED1BF011122CC2A841305A00206CE27
:100F600036C22EC632C4D13901452D3B22851D3BE8
:100F700001450D3B2246328535331305B0027539E4
:100F800001450D33B2452E85313B0145213B92464B
:100F90003685093B6244F2401305C002056171B910
:100FA00041111305A00206C649390145E53901453D
:100FB000D5390145C5391305800AED311305B00255
:100FC000AD390145C5310145F1390145E139130517
:100FD000300BC939B2401305C0024101B9B9411102
:100FE00026C24AC006C622C42A899304200A4D3F5D
:100FF000130440084A857D14C53D6DFCFD14EDF8D1
:10100000B240224492440249410182800E05920579
:1010100001111375F50F93F5F50F22CC4EC63284EE
:10102000B689130675009386F50093F6F60F1376CE
:10103000F60F26CA52C456C206CE4AC83A8A193F8B
:10104000931744000D64130404D13E94C144A14A93
:101050000149834704E04E85B3D72741858B91E34F
:10106000528505095135E31659FFFD1493F4F40F29
:101070000504F9FCF2406244D2444249B249224A92
:10108000924A056182800111118D22CC26CA4AC87C
:101090004EC652C406CE2E89B6893A8A32849374DB
:1010A000F50F03060400330594001375F50F09EAE4
:1010B000F2406244D2444249B249224A05618280E8
:1010C0005287CE861376F60FCA8505048137D1BFC5
:1010D000411122C6373401408545130504C0EF0095
:1010E000307D11C98545130504C0EF00307E894568
:1010F0000545EFF06FBC324441017300203001110F
:1011000022CC26CA06CE2A84AE843DE905658545F3
:1011100013050580EF003032B707002083A70707CB
:101120001307007D8604B3D7E7020D671307073066
:10113000231491004C002315010023130100230602
:1011400001002312F10093172400BA9784432685E7
:10115000EF003032054685452685EF00B06429E072
:1011600085460946814513059002EFF07FA7268545
:101170008545EF001060F2406244D24405618280F0
:1011800085476316F5008545EF00D02C71B7894778
:10119000E30BF5FE8D47E311F5F885451145EDB7F5
:1011A00085476318F4008546094681451305C0024A
:1011B0006DBF89476318F4008546094681451305CC
:1011C000D00265B78D47E314F4FA85460946814598
:1011D0001305E00259BF411122C637440040930570
:1011E000000213050440EF1040031DC993050002DF
:1011F00013050440EF10200313050440EF104001D5
:10120000B73700201375F50F238AA7269307A00A86
:10121000631CF50083C7E18195EB8547238FF1803F
:1012200032444101730020309307F5FF93F7F70F25
:101230008D4663EDF60083C6E18185476398F6002D
:10124000B7370020A38AA7268947C9BF83C7E18192
:10125000894863981701B73700202388A7268D4750
:1012600075BF0D4E6398C701B7370020A388A72626
:1012700091476DB7114363986700B7370020238902
:10128000A726954761BF95466398D700B7370020DA
:10129000A389A726994759B799466394D704B735C8
:1012A0000020B737002003C8052703C657279385BA
:1012B000052783C7150083CE2500B306C800938693
:1012C000A6FA83C53500BE96F696AE9693F6F60F4F
:1012D0006319D5006308160363E8C8008546630EEA
:1012E000D600238F01802DBF6303C603E31B66FE78
:1012F000A207C297239EF180EDB7A207C297239B56
:10130000F180C5B7A207C297239DF180D9BFA2077C
:10131000C297239CF180F1B7411122C406C62E84E6
:101320000DE1ED46014685452545EFF04F8431E856
:1013300091460146814529452244B24041016FF062
:101340000F8305476317E500ED460146854559457E
:10135000E9BF09476316E500ED4601468545F1B74B
:101360000D476317E500ED4601468545694575BFA4
:101370001147E31EE5FACD46014685451305A00257
:101380006DB785476317F4009146014681455D4579
:1013900065B789476317F4009146014681450D45BD
:1013A00061BF8D476317F4009146014681456D4545
:1013B00061B791476318F4009146014681451305D2
:1013C000B0029DBFB24022444101828001112EC66D
:1013D00005469305505222CC06CE2A84EF00505F7A
:1013E000B747014093870780B246631BF40001466C
:1013F0008145130550036244F24005616FF04FFED2
:10140000B7470040938707406317F40001468145C2
:1014100013056003CDB7B757004093870780631764
:10142000F4000146814513057003F1B7F2406244B0
:10143000056182807971B747014022D426D24AD013
:101440004ECE06D6938707802A84AE843289B68929
:101450006312F50485451165EF00E07DCE854A8570
:10146000653DB7070C00228585453EC426C002C2F3
:1014700023160100A13F8A852285EF0010462285B0
:101480008545EF003053B250225492540259F2492C
:1014900045618280B7470040938707406318F50095
:1014A000854537050200EF00E07A4DBFB757004091
:1014B00093870780E314F5FA854537050400E5B7FF
:1014C000C2054111C18122C406C62A84EF00B0536F
:1014D000930500042285EF0050547DD9B240224488
:1014E00041018280411122C6374401409305000228
:1014F00013050480EF0070520DC19305000213051F
:101500000480EF00505213050480EF0070509315D3
:101510008501E1851305048065373244410173007C
:101520002030411122C637540040930500021305B4
:101530000480EF00904E0DC1930500021305048056
:10154000EF00704E13050480EF00904C9315850159
:10155000E18513050480AD3732444101730020302A
:10156000411122C426C206C6AA842E848305040023
:1015700091E5B240224492444101828026850504CF
:101580008137EDB741110396618122C4B735000060
:1015900037340020938505311305042506C626C27D
:1015A000EF005049C1649386F48101471306042576
:1015B00089450145EFF03FAD03968181B7350000C5
:1015C0009385C53113050425EF00D0469386F48139
:1015D0000147130604258D450145EFF0DFAA039668
:1015E000A181B73500009385853213050425EF00EE
:1015F00070449386F4810147130604259145014503
:10160000EFF07FA80396C181B7350000938545337D
:1016100013050425EF001042130604252244B240AE
:101620009386F481924401479545014541016FF04D
:101630009FA54111094506C622C47921EFF06FD359
:10164000AD200D651305450DEFF0AF860545EFF0B4
:101650000FEC7D45EFF0BF98C166373600000147BB
:10166000FD161306063481450145EFF0DFA1130591
:101670004006EFF0EFD37D45EFF07F963744014011
:10168000F1658146014693850520130504805D338D
:10169000B73500009385453513050480D135A9453C
:1016A0000145EFF0DFA5F93DFDBF411106C6EFE0B2
:1016B000FFDEEFE05FD9F165374500408946094616
:1016C0009385052013050540EFF0DFD6B2404101B8
:1016D0006FE0FFA9411106C6A93FB2400145410193
:1016E00082807300203001A097F1FF1F9381811841
:1016F0001741002013010191172500001305C5D0E3
:1017000097F5FF1F938505901386018163FAC50045
:101710008322050023A0550011059105E3EAC5FECB
:101720001385018197250020938585B56377B500E2
:10173000232005001105E36DB5FE9302800873A018
:10174000023097F2FFFF9382628F93E21200739050
:101750005230EF004001970200009382E2F773904D
:10176000123473002030B71702409843B706FFF8D1
:1017700041111367170098C3D843758FD8C3984396
:10178000B706F7FEFD16758F98C39843B706FCFFA2
:10179000FD16758F98C3D843B70681FFFD16758F68
:1017A000D8C337079F0098C783C7418002C402C6C9
:1017B00013078004B7061C006388E70413070005BD
:1017C000B70620006382E70413078005B7062400EC
:1017D000638CE70213070006B70628006386E7025A
:1017E00013078006B7062C006380E7021307000783
:1017F000B7063000638AE70013078007B706340096
:101800006384E700B7062400371602401842C1651A
:10181000370502004D8F18C2B7150240130600505D
:101820009841698F3AC6224705073AC4324701E713
:101830002247E317C7FE3717024018431316E70085
:101840006356060A05473AC6324605476314E6085A
:101850003727024010431366060110C31043719AE4
:1018600010C310431366260010C3371702405043BD
:1018700050C313068005637DF606504389654D8E7F
:1018800050C350431366064050C3371702405043BD
:10189000B705C1FFFD156D8E50C35043D18E416613
:1018A000D18E54C3144337060001D18E14C31443A0
:1018B00013966600E35D06FE544337160240F19A24
:1018C00054C3544393E6260054C3A1465842318B77
:1018D000E31ED7FE37470F0013070724B387E7023D
:1018E000370700202328F7064101828002C6A9BFDE
:1018F000504350C3504349BF9317350063DA070084
:10190000B707024083A707407D8D3335A000828052
:10191000B70702409C43CDBF9317350063D707003C
:10192000B707024023A2A7408280B7070240C8C37E
:101930008280B707014023AAA7408280B7070140F1
:101940001387074083A70740584B698F09C77D8DD0
:101950003335A000828001458280B707014023AA69
:10196000A74082809C4513F7070113F8F70001C7D1
:10197000D8413368E80083D5050013F7F50F39C364
:1019800018418146854E3D4F930F8002930280049B
:10199000214E3396DE00B3F8C50063111603939809
:1019A000260033131F011343F3FF3377E300B3180B
:1019B000180133E7E800639FF70550C98506E39AED
:1019C000C6FD18C11307F00F6375B70454412146D3
:1019D000854E3D4F930F800293028004414EB39891
:1019E000CE0033F715016392E802131726000117A2
:1019F0003313EF001343F3FFB376D3003317E8003C
:101A0000D98E639DF701232A15010506E319C6FD4A
:101A100054C18280E39457FA10C94DB7E39757FE3B
:101A200023281501DDB748456D8D3335A000828030
:101A30000CC982804CC9828019C20CC982804CC9F1
:101A40008280B707014063550504D44FB7073000C3
:101A5000131705013376F5004183631DF60237063F
:101A600000F17D1637080140B3F7C6008326480011
:101A7000758E2322C80099C59356550192063317D7
:101A8000D700D98F37070140635E05025CCF8280A3
:101A9000D4436DBF9317B50063D007029357050178
:101AA00013F6F7008D47B397C70093C7F7FFF58F7D
:101AB000B706000FD58FC1B7935755019207B317DB
:101AC000F700E5B75CC3828023A0A1828280938760
:101AD000018294430347050089E683472500920766
:101AE00031A8944305466391C60483472500034605
:101AF000150092076314D60093E707F8B7E600E0F5
:101B000093F7F70FBA962380F64085469357570010
:101B10003397E6005441ADC6938707048A07B7E6BA
:101B200000E0B69798C382808C4389466393D502C0
:101B300083461500834725006365D6008A06B6975D
:101B400079BF9386E6038A06B69793F7F70F920755
:101B500065B790438D46631ED600834615008347C4
:101B600025006364D6008606D9BF9386C60786061D
:101B7000E1BF94439147E39AF6F88347150085B790
:101B80009387070661BF371702405C439146B18BCC
:101B90006385D700A1466386D706B7177A00938777
:101BA00007201CC1371602405C423707002013078C
:101BB00007009183BD8BBA9783C607001C41B3D73A
:101BC000D7005CC15442A1829D8ABA9683C60600A2
:101BD000B3D6D70014C55442AD829D8A36970347C9
:101BE0000700B3D7E7005CC55842398393763700C6
:101BF00013878180369703470700B3D7E7021CC9D4
:101C000082805C435443C983BD8B1396F6008907D9
:101C10006349060037173D0013070790B387E702B3
:101C200049B758439316E700E3C606FE37177A0014
:101C300013070720E5B799C5371702401C4F5D8D84
:101C400008CF8280B7170240984F1345F5FF798D72
:101C500088CF828099C5371702405C4F5D8D48CF91
:101C60008280B7170240D84F1345F5FF798DC8CF52
:101C700082808357050037370140130707C0C2072A
:101C8000C1836300E50237070040630CE5001307DA
:101C900007406308E5003717004013070780631704
:101CA000E50003D7250093F7F7F8D98F03D7650030
:101CB00093F7F7CFC207C183D98F2310F50083D7DD
:101CC00045002316F50283D705002314F502B73724
:101CD0000140938707C06316F50083C7850023186A
:101CE000F5028547231AF50082808357050203D643
:101CF000050003D82500C207C183F99BC207C18331
:101D00002310F502835705028356450003578501CA
:101D1000C207C183420741831377C7F8518F03D6A7
:101D20008500F59BC20633660601D18F3736014028
:101D3000130606C0C1826313C50203D6A500DD9B4E
:101D400003D8E500D18F03D64500ED9B93F6F6CF7F
:101D5000D18F03D6C50033660601D18E2312D5007C
:101D6000231CE50003D76500231AE5022310F502C2
:101D700082808357050265771307F7CFC207C183B7
:101D8000BD9BC207C1832310F5028357050283560A
:101D9000450003D88500C2071396060183568501C6
:101DA000C18393F7F7FD758F83D605004182A206A4
:101DB000558F83D6250042074183B3E6060192067C
:101DC000D58FB7360140C207938606C0C183631121
:101DD000D50483D6A50093F7F7F703D8C50092067C
:101DE000D58F83D64500C207C183920693F7F7FBD0
:101DF000D58FFD769386F63FF18E03D6E500C207B8
:101E0000C183336606010A06D18E1396060141820C
:101E10002312C500231CE50003D76500231CE5023F
:101E20002310F50282808357050203D88500C2077C
:101E3000C18393F7F7EFC207C1832310F5028357DD
:101E40000502835645000357C501C20713960601D4
:101E5000420783D6050041831377C7F8558F83D691
:101E60002500C18393F7F7DFB3E60601A206D58FFD
:101E7000B7360140C207938606C04182C183631210
:101E8000D504FD769386F67FF58F83D6A50003D81B
:101E9000C500A206D58F83D64500C207C183A2061E
:101EA00093F7F7BFD58FF576FD16F18E03D6E500D3
:101EB000C207C183336606011206D18E139606014E
:101EC00041822312C500231EE50003D76500231EAF
:101ED000E5022310F502828003570502FD77FD1706
:101EE000F98F2310F50203580502835645008357E6
:101EF000C501657703D605001307F7CF7D8FF97706
:101F00002206FD17518FB3F7070103D6250003D82A
:101F10008500C2064207336606013206D18F373686
:101F20000140C207130606C0C1824183C183631BFF
:101F3000C50071767D16F18E03D6C5001A06D18EC6
:101F4000C206C1822312D500231EE50003D7650017
:101F50002310E5042310F5028280FD572312F500BB
:101F60002310050023130500231105002304050099
:101F700082808357050091C593E717002310F50071
:101F80008280C207C183F99BC207C183C5BF835743
:101F9000450491C52167D98F2312F5048280C607B5
:101FA000C583DDBF8357C50009C6DD8D2316B50087
:101FB000828093C5F5FFFD8DD5BF0358850003577B
:101FC000850183570502420813580801C2074207DA
:101FD000C18392064183137888FF93F7D7FD558E0E
:101FE000B365B8001377C7CFD18F2314B50013673B
:101FF0001710C207C183231CE5002310F50282805D
:1020000083578501C207C183DD9BDD8D231CB5008D
:10201000828003578501FD779387F77FF98FA205AB
:10202000CD8FC207C183231CF50082808357C50171
:10203000C207C183DD9BDD8D231EB500828003575F
:10204000C501FD779387F77FF98FA205CD8FC20772
:10205000C183231EF500828083578501C207C18397
:10206000ED9BDD8D231CB500828083578501A20581
:10207000C207C18393F7F7BFCD8FC207C183231C6B
:10208000F50082808357C501C207C183ED9BDD8DBA
:10209000231EB50082808357C501A205C207C183F4
:1020A00093F7F7BFCD8FC207C183231EF50082804F
:1020B000835705010355C500ED8F4205418189C74E
:1020C0006D8D3335A00082800145828093C5F5FF78
:1020D000C205C1812318B500828083560501F577BA
:1020E000FD17F58F83D66500397122DC06DED58FAA
:1020F00003D7C5002318F5008356C500FD779387E5
:10210000379FF58F83D645002A842EC6D58F83D678
:102110008500D58F83D6A500D58F2316F50083576C
:102120004501C207C18393F7F7CFD98F231AF50072
:102130006808EFF05FA5B747014093870780B24575
:10214000631EF404A2578356C4006547B387E702B1
:10215000C206C186984163D5060406070356C4002B
:102160004206B3D7E702130740064186B3D6E7021B
:10217000B3F7E7029206635706028E079387270399
:10218000B3D7E70213F77700B367D700C207C1835D
:102190002314F400F250625421618280925765B793
:1021A0000A076DBF920793872703B3D7E702BD8B5A
:1021B000D58FE9BF81C98357C5000967D98F231619
:1021C000F50082800357C500F977FD17F98FC5BF69
:1021D00013F7F50F85471583B395B7006319F7001B
:1021E0009307C500984301CED98D8CC38280894660
:1021F00093074501E318D7FE93070501E5B793C59B
:10220000F5FFF98DDDB793F5F51F2312B500828038
:10221000035545001375F51F8280035505006D8D2C
:102220003335A000828093C5F5FFC205C18123101C
:10223000B500828035713ECBB707008093C7F7FFAA
:102240003ECE3EC8C1779387872032C536C73AC98C
:1022500042CD46CF3ECA9387C1802AC42ACC884348
:1022600034012E862C0086DE36C2952CA2472380B0
:102270000700F6500D618280DDC183A7C5FF4111C3
:1022800022C406C626C21384C5FF63D307003E944A
:10229000AA84EF00F01B938741829C4381EF2322A5
:1022A000040023A281822244B24026859244410147
:1022B0006F00301A637EF40014403307D400639635
:1022C000E7009843DC43369718C05CC0D9BFBA8793
:1022D000D84319C3E37DE4FE94433386D700631FDC
:1022E00086001040B29694C33386D700E31DC7FA28
:1022F00010435843B29694C3D8C375B76375C400EE
:10230000B1479CC04DB71040B306C4006316D70058
:1023100014435843B29614C058C0C0C369B78280F2
:10232000011126CA93843500F19806CE22CC4AC802
:102330004EC6A104B14763F5F404B14463E4B404A8
:102340002A89EF00F0109387418298433A8429E468
:10235000938781829C4399E781454A85EF00A07A63
:1023600023A4A182A6854A85EF00E079FD5963196F
:102370003507B1472320F9004A85EF00900D29A0C9
:10238000E3DE04FAB1471CC10145F2406244D24485
:102390004249B249056182801C40858F63CF0702A4
:1023A000AD4663F6F6001CC03E9404C031A05C400C
:1023B0006313870223A2F1824A85EF009009130577
:1023C000B4009307440061993307F5405DDF3A9408
:1023D000898F1CC05DBF5CC3C5B72287404085BFE5
:1023E000130435007198E30285FCB305A4404A85C7
:1023F000192FE31C35FBB5BF01114AC803A985009D
:1024000022CC52C45AC006CE26CA4EC656C22E840C
:10241000328B368A63EC260983D7C50013F7074849
:1024200041C704408C495848AA8AB389B4408D44B6
:10243000B384E4020947B3C4E402138716004E973D
:1024400063F3E400BA8493F70740C1C3A6855685B9
:10245000C13D2A890DE5B14723A0FA008357C40086
:102460007D5593E707042316F400F2406244D244FA
:102470004249B249224A924A024B056182800C4885
:102480004E86F9258357C40093F7F7B793E70708FB
:102490002316F4002328240144C84E99B384344100
:1024A0002320240104C4528963732A0152890840FD
:1024B0004A86DA85892F1C440145B38727411CC40D
:1024C0001C403E99232024014DB726865685592766
:1024D0002A8969F10C485685EFF01FDAADBF83D722
:1024E000C500717126D34AD14ECF06D722D552CD21
:1024F00056CB5AC95EC762C566C393F70708AA8957
:102500002E89B284B9C39C49A9E39305000436C659
:10251000EFF01FE12320A9002328A900B24615E10E
:10252000B14723A0F9007D55BA502A549A540A594C
:10253000FA496A4ADA4A4A4BBA4B2A4C9A4C4D61DC
:10254000828093070004232AF90093070002A30C5A
:10255000F1029307000302DA230DF10236CE930B4A
:102560005002971A0000938A6AE6054C294B26848C
:102570008347040099C3639B7709B30C9440638D30
:102580000C00E6862686CA854E85BD35FD5763015B
:10259000F51AD256E69636DA83470400638A07189E
:1025A000FD579304140002D002D63ED202D4A301F8
:1025B000010682DC83C5040015465685AD2B1384C5
:1025C0001400825731E513F7070109C7130700020A
:1025D000A301E10613F7870009C71307B002A3019F
:1025E000E10683C604001307A002638BE602B2571C
:1025F00026848146254603470400930514001307EB
:1026000007FD6374E6068DC63ED61DA005048DB792
:10261000330555413315AC00C98F3ED0A28459BF54
:10262000724793064700184336CE634907023AD6ED
:10263000034704009307E002631FF70403471400F5
:102640009307A002631BF702F247090413874700B0
:102650009C433ACE63C107023ED235A83307E0401F
:1026600093E727003AD63ED0E1B7B38767038546A4
:102670002E84BA9749B7FD57C5B7050402D28146E3
:10268000814725460347040093051400130707FDFF
:102690006376E606F1F2834504000D461715000047
:1026A000130545D3492911CD97170000938787D289
:1026B0001D8D93070004B397A700025505045D8D97
:1026C0002AD0834504001946171500001305C5D00C
:1026D00093041400230CB102B92925C597E7FFFF25
:1026E0009387479295E70257F2471377071009CF70
:1026F00091073ECED257D2973EDA95BDB387670396
:1027000085462E84BA97BDBF9D07E19BA107D5B72B
:10271000780897060000938666CE4A860C104E8590
:1027200097000000E7000000FD572A8AE314F5FC3B
:102730008357C9007D5593F70704E39707DE525589
:10274000E5B3780897060000938646CB4A860C10BE
:102750004E85012AD1BF797156CA9C49BA8A9845DB
:1027600022D426D24ECE52CC06D64AD05AC85EC605
:10277000AA892E84B284368A63D3E700BA879CC0C4
:102780000347340419C385079CC01C4093F7070214
:1027900081C79C4089079CC0032904001379690004
:1027A000631A0900130B9401FD5B5C449840998FF8
:1027B000634CF9041C408346340493F70702B33694
:1027C000D000A5EB13063404D2854E85829AFD57BE
:1027D0006303F5041C4011469840998B544481448E
:1027E0006397C700B384E64063D3040081441C446C
:1027F00018486354F700998FBE94014969047D5BC2
:1028000063982405014509A885465A86D2854E85D8
:10281000829A631E75017D55B2502254925402591A
:10282000F249624AD24A424BB24B45618280050965
:10283000ADBF3307D40013060003A301C704034749
:10284000540493871600A2978906A381E7049DBFCD
:1028500085462286D2854E85829AE30E65FB050960
:1028600045B7797122D426D24AD04ECE06D652CC64
:1028700056CA5AC8B68983C685019307E0063289CD
:10288000AA842E84138635046381F61E63E2D7067C
:10289000930730066382F60A63EDD700638B061E4A
:1028A000930780056387F616930A24042301D40452
:1028B00069A8930740066386F60093079006E395A0
:1028C000F6FE1C40084393F6070893054500C1C275
:1028D0001C410CC363D807001307D002B307F040B4
:1028E000A301E40497160000938686AF294765A0EC
:1028F000930730076383F61A63EFD7009307F00658
:10290000638FF60493070007E390F6FA9C4193E780
:1029100007029CC109A8930750076382F604930736
:102920008007E393F6F893078007A302F404971651
:102930000000938626ACE5A01C43938A2504938669
:1029400047009C4314C32381F5048547B5A293F641
:1029500007041C410CC3BDDEC207C187A5BF0C40E4
:102960001C4313F80508138547006305080008C3D6
:102970009C4339A093F5050408C3FDD983D707000C
:102980001307F006638BE60C97160000938646A5A6
:102990002947A30104044C400CC463C5050008404A
:1029A0006D9908C099E3B28A91CDB28AB3F5E70276
:1029B000FD1AB69583C505002380BA00B3D5E7029A
:1029C00063F3E70AA147631EF7001C40858B91CB98
:1029D00058401C4863C7E70093070003A38FFAFE23
:1029E000FD1A3306564110C84E87CA867000A2856C
:1029F0002685EFF05FD67D5A6314450D7D55B250A4
:102A0000225492540259F249624AD24A424B4561D9
:102A10008280A382D504971600009386669C0C40A2
:102A2000084313F805081C4111056300080208C398
:102A300013F7150001C793E505020CC04147B1FB30
:102A40000C4093F5F5FD0CC0A9B713F8050408C3B5
:102A5000E30008FEC207C183E1BF9716000093861A
:102A6000269821473DB7AE8791B794411C43CC4986
:102A700013F80608138547006306080008C39C4343
:102A80008CC301A808C393F606049C43F5DA23908F
:102A9000B70023280400B28A81BF1C43D04181457E
:102AA0009386470014C383AA07005685692001C591
:102AB0003305554148C05C401CC8A30104042DB730
:102AC00014485686CA8526858299E30945F31C4039
:102AD000898B8DE7B2474844E353F5F23E8505B74D
:102AE00085465686CA8526858299E30965F1050AD9
:102AF0005C443247998FE345FAFEE9BF014A930AE5
:102B000094017D5BF5B7411122C42A842E85970775
:102B1000002023A5077606C65D22FD576319F50040
:102B200097070020938787759C4391C31CC0B240D0
:102B300022444101828093F5F50F2A966314C50063
:102B40000145828083470500E38DB7FE0505FDB78B
:102B5000B3C7A5008D8B3307C50081E78D4763EEB2
:102B6000C700AA876370E50A83C605008507850547
:102B7000A38FD7FEE3EAE7FE828093763500AA872B
:102B800091CA83C6050085078505A38FD7FE93F6F6
:102B90003700FDB79376C7FF138606FE63F0C706BE
:102BA00083A3050083A2450083AF850003AFC50062
:102BB00083AE050103AE450103A3850183A8C501CA
:102BC0009385450223A0770003A8C5FF23A25700E1
:102BD00023A4F70123A6E70123A8D70123AAC7014D
:102BE00023AC670023AE17019387470223AE07FF8C
:102BF00075B790419107910523AEC7FEE3EBD7FE71
:102C0000E3E4E7F6828063F3A504B386C500637F3F
:102C1000D5029345F6FF8147FD176393F500828047
:102C20003387F600034807003387C7002A9723003D
:102C30000701DDB73387F500834607003307F5004A
:102C400085072300D700E317F6FE82808147E5BFA2
:102C50008280828081E5B2856FF08FEC011122CCF9
:102C600006CE26CA4AC84EC6328401EEEFF0CFE047
:102C70000149F24062444A85D2444249B249056161
:102C80008280AE84AA8915202689E37485FEA285F8
:102C90004E85EFF0EFE82A8969DDA68522864D3D55
:102CA000A6854E85EFF04FDDE9B783A7C5FF1385F5
:102CB000C7FF63D50700AA959C413E958280938704
:102CC000C1829C4391C73E9523A6A1823E85828006
:102CD000970700209387C75A3E9523A6A1823E8579
:102CE0008280000000080140000C014000100140FB
:102CF00000140140D20400001A050000580500002D
:102D000096050000C4050000000016430000A04026
:102D100000000000000000000000000000000000B3
:102D20000000101010101010101000001010000003
:102D30000000242424240000000000000000000003
:102D40000000484848FE24242424247F1212120044
:102D500000107C929212141830509092927C1000C5
:102D600000008C9252322C100868949292600000FD
:102D70000000182424241898A4A24242A29C000017
:102D80000000101010100000000000000000000003
:102D9000002010080804040404040408081020009B
:102DA000000408101020202020202010100804000B
:102DB0000000000000082A1C14220000000000008F
:102DC00000000000101010FE1010100000000000A5
:102DD00000000000000000000000000010100800CB
:102DE00000000000000000FE0000000000000000E5
:102DF00000000000000000000000000010100000B3
:102E000000004040202010100808040402020000C6
:102E100000003844828282828282828244380000AA
:102E20000000101C101010101010101010100000D6
:102E300000003C424240402010080402027E000094
:102E400000003C424240403C40404042423C000086
:102E500000006060505048484444FE40404000003C
:102E600000007E0202023E4240404042423C0000DE
:102E700000003C424202023E42424242423C0000CA
:102E800000007E40202010101008080808080000EC
:102E900000003C424242423C42424242423C00002C
:102EA00000003C42424242427C404042423C0000E0
:102EB00000000000080800000000080800000000F2
:102EC00000000000101000000000101010080000AA
:102ED00000000040300806010608304000000000F5
:102EE000000000000000FE0000FE000000000000E6
:102EF000000000020C10608060100C020000000056
:102F00000000384482824020101010001010000091
:102F10000000384482B2AAAAAAAAD2028478000089
:102F2000000010101028282844447C82828200006F
:102F300000003E428282423E42828282423E000045
:102F40000000384482820202020282824438000079
:102F500000003E424282828282828242423E0000E1
:102F60000000FE020202027E0202020202FE0000D5
:102F70000000FE020202027E0202020202020000C1
:102F80000000384482020202E2828282C4B8000059
:102F900000008282828282FE82828282828200009D
:102FA0000000101010101010101010101010000061
:102FB000000020202020202020202022221C000091
:102FC0000000824222120A06060A122242820000F1
:102FD000000002020202020202020202027E00005D
:102FE00000008282C6C6AAAA9292928282820000C1
:102FF00000008286868A8A9292A2A2C2C2820000C1
:1030000000003844828282828282828244380000B8
:1030100000003E42828282423E0202020202000020
:103020000000384482828282828282A244B80000F8
:1030300000003E42828282423E42828282820000C0
:1030400000007C828202041820408082827C000082
:103050000000FE10101010101010101010100000C2
:10306000000082828282828282828282827C00004E
:103070000000828282444444282828101010000056
:1030800000009292929292AAAAAA44444444000058
:103090000000828244442810282844448282000090
:1030A00000008282444428281010101010100000E4
:1030B00000007E402020101008080404027E00005A
:1030C00000780808080808080808080808087800B0
:1030D0000000929292FF92AAAAAA4444444400009B
:1030E000001E1010101010101010101010101E00E4
:1030F0000010284400000000000000000000000054
:103100000000000000000000000000000000FE00C1
:103110000004081000000000000000000000000093
:103120000000000000003C42407C424242BC0000E3
:103130000000020202023A4682828282463A00007F
:10314000000000000000788402020202847800007F
:10315000000080808080B8C482828282C4B800006F
:10316000000000000000384482FE02028478000063
:103170000000700808087E08080808080808000011
:1031800000000000000058644242426458423C0083
:103190000000020202023A4642424242424200001B
:1031A000000010100000101010101010101000007F
:1031B00000001010000010101010101010100C0063
:1031C00000000202024222120A060A1222420000F3
:1031D000000010101010101010101010101000002F
:1031E0000000000000006E92929292929292000073
:1031F0000000000000003A464242424242420000C3
:1032000000000000000038448282828244380000BE
:103210000000000000003A46828282463A02020024
:10322000000000000000B8C4828282C4B880800020
:10323000000000000000740C0404040404040000F6
:103240000000000000003C42020C3040423C000004
:103250000000080808087E08080808080870000030
:10326000000000000000424242424242427C000014
:103270000000000000008282444428281010000052
:1032800000000000000082929292AA6C4444000068
:103290000000000000008244281010284482000032
:1032A00000000000000082824444282810100E0014
:1032B0000000000000007E4020100804027E000094
:1032C000006010101010100C101010101010600082
:1032D000001010101010101010101010101010000E
:1032E000000608080808083008080808080806004A
:1032F0000000000000008C720000000000000000D0
:10330000002C014000000040000400400008004084
:10331000456E63313A20253035643B00456E63329B
:103320003A20253035643B00456E63333A20253022
:1033300035643B00456E63343A20253035643B00EC
:1033400057656C636F6D652C206D79206C6F7264AE
:1033500000000000205541525431204C6F6E6751DF
:103360006975200D0A000000000000000000000048
:10337000000000000000000000000000000000004D
:10338000000000000000000000000000000000003D
:10339000000000000000000000000000000000002D
:1033A000000000000000000000000000000000001D
:1033B000000000000000000000000000000000000D
:1033C0000000000000000000232D302B2000000032
:1033D000686C4C0065666745464700003031323303
:1033E0003435363738394142434445460000000001
:1033F000303132333435363738396162636465666B
:0434000000000000C8
:103404000000000001020304010203040607080986
:103414000000000088330000A83300006833000077
:103424000000000000000000000000000000000098
:103434000000000000000000000000000000000088
:103444000000000000000000000000000000000078
:103454000000000000000000000000000000000068
:103464000000000000000000000000000000000058
:1034740000D8B8056000000002040608100000200F
:00000001FF
