:0B457400027D0000017F004102830077
:108EDC00D296D2971200037F147E00129E2F128618
:108EEC008B128F771298061293BB7F01129E46123B
:108EFC009DE4D2AFD2AC785DE6700AB2967F32FEBA
:108F0C00129E2F80F1C296D297200922E4787DF62A
:108F1C0008F67864E66003123FBA126CC87864E60F
:108F2C006006787F760180E1E4787FF680DB30099B
:108F3C0039E4787DF608F6200C097867E66004D2EF
:108F4C000CD2997864E66003120F147865E660031E
:108F5C00120046126CC87964E77865466006787F23
:0B8F6C00760180CAE4787FF680C42202
:03002B000295D764
:0B95D700C0E0C083C082C0D075D01877
:1095E20030CF4DC2CF900283E004F0E06464701388
:1095F200F0787FE66004B2978009300904D2978040
:1096020002C2977862E67006900008E060037881F3
:1096120006787E06E618700106C3787EE694701816
:10962200E69417500575FF008006D297D29680FE09
:09963200D0D0D082D083D0E03208
:10457F00C10D016300016200016400016500016764
:10458F0000016600016800016900C10AC10EC10B7C
:08459F00C10F025E0000C10C17
:10980600C2EAE4F5E275D18053D1FB53E2BF75EDB0
:109816000075EC0075EF0175EE0075E50275E40064
:1098260075E70375E60043EACC53EAEF43EBCC5306
:10983600EBEE75DC0275D21275D41275D61275DE92
:1098460012F5E343E22943D10175D8FF75E107D24A
:02985600EA2204
:03004300022E3B4F
:0D2E3B00C0E0C0F0C083C082C0D075D008D8
:102E480020D90302337DE5D9543F1225E7333A00F0
:102E58002EA2012EC0022EDE0332CD202E74212E8A
:102E680084222E92232EF1300000337BC20A75D3C0
:102E780000E5D254FC4402F5D202337B75D500E557
:102E8800D454FC4402F5D402337B75D700C20DE557
:102E9800D654FC4402F5D602337B20DE0302337B92
:102EA8007864200904A6DB8004A6DBD20EE5D254A0
:102EB800F34408F5D202337B20DE0302337B7865C6
:102EC800200904A6DB8004A6DBD20FE5D454F34422
:102ED80008F5D402337B7867A6DB78637600E5D6FD
:102EE80054F34408F5D602337B900180E5DBF0E02B
:102EF80064086003023297900006E07860F6A3E069
:102F0800600276FF900180E4F0900001E07861F6BD
:102F1800900000E0FF546024E070030231DC24E0FC
:102F280070030232092440600302323B7861E6B440
:102F38000B0040030231DA902F46F828287302313B
:102F4800B402309D0231DA0230F20231DA02306A1C
:102F5800022F670231DA0230740230930232419054
:102F68000003E024FE603714605924E17003023046
:102F78004A242160030230679000FD74FF20090F86
:102F8800F0A37447F0A374D9F0904A30023231F0BC
:102F9800A37448F0A374EFF0904A2F0232319000E6
:102FA800FD74FF20090EF0A37447F0A374EBF090B2
:102FB8004A2E800CF0A37448F0A37477F0904A2D41
:102FC800023231900002E014602814603914604A1B
:102FD80014605B24FE6057240660030231AB900046
:102FE800FD74FFF0A37449F0A37401F0904A310214
:102FF80032319000FD74FFF0A37449F0A37405F01A
:10300800904A320232319000FD74FFF0A37449F007
:10301800A37413F0904A330232319000FD74FFF02C
:10302800A37449F0A37425F0904A36023231900017
:10303800FD74FFF0A37449F0A3743FF0904A350281
:103048003231900002E070149000FD74FFF0A37418
:1030580048F0A37456F0904A390232310231AB027B
:1030680031AB900002E07860F6023241785DE6907C
:103078000000F07860E6C3940174809480500302E5
:1030880032419001807401F0023241900002E078F0
:103098005DF6023241EF541F6402704B900004E069
:1030A80014602D1460191460352482601824FE60A1
:1030B80022047030E5D454BC4402F5D402324153A2
:1030C800D473023241E5D254BC4402F5D2023241F3
:1030D800023174E5D654BC4402F5D602324153D6C7
:1030E800730232410231AB0231AB900000E0541F51
:1030F800FD7C007011900003E0FE900002E0FBEB05
:1031080064014E02323BED64024C60030231B1901F
:103118000003E0FE900002E0FDED4E60030231AED8
:10312800900005E0FE900004E0FDEDFFEE7074EF06
:1031380014603914602014604914605C2483602191
:1031480024FE603314604624027058E5D454BF440A
:1031580003F5D4023241E5D4547F440CF5D402324D
:1031680041E5D254BF4403F5D2023241E5D2547F3F
:10317800440CF5D2023241E5D654BF4403F5D602D9
:103188003241E5D6547F440CF5D6023241E5DE548F
:10319800BF4403F5DE023241E5DE547F440CF5DE20
:1031A80002324102323B02323B02323B9000FDE4E4
:1031B800F0A37400F0A3745EF07860E6FFC3940295
:1031C8007480948090018040057402F0806BEFF069
:1031D8008067805F900000E0541F6401705B786135
:1031E800E624E0605424FE60500470139000FD74DF
:1031F80001F0A37401F0A374D5F0904A34802A80BA
:1032080032900000E0541F70307861E624E07021AD
:10321800900004E0640770219000FD74FFF0A3742F
:1032280049F0A37483F0904A38E493900180F080C9
:1032380008800090018074FFF0900180E06056F4EF
:103248006053E0FF7860E6D39F4002A60F7860E6FF
:10325800FFC394087480948040047F088000900124
:1032680080EFF07E0078007C007D019000FDE0FB9F
:10327800A3E0FAA3E0F91222BA900180E0FFC37834
:1032880060E69FF69000FEE48FF012235A800690C5
:10329800018074FFF0900180E0FF7E00F4700A78EE
:1032A8006176FF75DCCF02337BD3EF9408EE648040
:1032B80094805008900180E0F5DD800375DD00758D
:1032C800DCC002337B7861E624FB605324E56004AC
:1032D800241A70567860E6FFC3940874809480407E
:1032E800047F088000900180EFF07E0078007C0069
:1032F8007D019000FDE0FBA3E0FAA3E0F91222BAF9
:10330800900180E0FFC37860E69FF69000FEE48FAE
:10331800F012235A900180E0F5DD63DC408054E52B
:10332800E35480786046F5E3800375DD0075DC02C0
:103338008041900180E5DBF07861E66420703130EF
:10334800DE2EAFDBFE78D57C017D017B017A00792A
:10335800001222BA7B017A0179D51259E278807677
:10336800007882760078627600900008E4F0F5DD57
:1033780063DC80C2D930D82A75DC0275D21275D4C4
:103388001275D61275DE127880760078827600780B
:10339800627600900008E4F0C20DF5E3C2DAC2D903
:1033A800C2D830DA09C2DAE5DA30E205800375D826
:0133B800FF15
:0B33B900D0D0D082D083D0F0D0E03222
:069EF7008FD553D4FC22BC
:1047D90012010002EF020108861A1180000101028C
:1047E900030109026B0003010080FA080B000202B1
:1047F900020104090400000102020004052400105A
:10480900010524010101042402020524060001070F
:1048190005840340000209040100020A000005079B
:104829000503024000000705830240000009040255
:1048390000020300000609210001000122210007EE
:10484900058103400001070501034000010600FF3F
:104859000901A101150026FF00750895400901818C
:104869000295400901910295010901B102C00902AD
:1048790078000301008032080B0001FF00000209E3
:1048890004000004FF80550007058202400000076C
:1048990005020240000007058102400000070501EA
:1048A90002400000080B0102020201040904010090
:1048B9000102020100052400100105240101000480
:1048C90024020205240600010705840308000109E2
:1048D900040200020A0000000705830240000007E5
:1048E90005030240000012011001EF020108861AB7
:1048F9001080000101020301040309040E0377007B
:10490900630068002E0063006E0012035700430025
:1049190048002D004C0069006E006B001A0330003E
:1049290030003000310041003000300030003000EC
:104939003000300031001C035700430048002000BC
:1049490043004D005300490053002D00440041002D
:104959005000050F280002071002000000001C107B
:104969000500DF60DDD88945C74C9CD2659D9E64F2
:104979008A9F00000306AA0020000A000000000028
:104989000306AA00080002000000A00014000300AA
:1049990057494E5553420000000000000000000036
:1049A9008400040007002A004400650076006900BD
:1049B9006300650049006E007400650072006600BE
:1049C9006100630065004700550049004400730019
:1049D900000050007B0043004400420033004200C5
:1049E9003500410044002D003200390033004200F7
:1049F9002D0034003600360033002D0041004100FF
:104A0900330036002D0031004100410045003400DB
:104A190036003400360033003700370036007D0099
:104A290000000000786B1212040E12071C1A28AA43
:014A3900215B
:0A45A7004701D500E1000000000804
:109B5100EFFB7A007009E58954F04DF5898027EB18
:109B610064014A7011CFEDCFEFC454F0FFE5895481
:109B71000F4FF5898010EF64027008C2CDC2CCC2CC
:099B8100C880037F00227F01224D
:109B1700C3E49DFDE49CFCEF700ACFEDCFEFF58A1F
:109B2700ECF58C22EF6401700ACFEDCFEFF58BECEB
:109B3700F58D22EF64027011CFEDCFEFF5CC8FCA10
:099B4700CEECCEEEFFF5CD8FCB84
:019B500022F2
:109E7000C2CDC2CCC2C9D2CBD2C8EF25E025E042C8
:029E8000C922F5
:109E1700C2CDC2CCD2C8C2C9EF25E025E0FFE5C953
:089E270054FD4F4401F5C9226E
:109E5D00C2CDC2CCD2C8C2C9EF25E025E042C9753A
:039E6D00C101220E
:109DE40043C9C0C2C9E4FD7F02129B517D807CBB84
:0A9DF4007F02129B17D2CAD2AD22E3
:0345B10001850081
:0D963B007469F0A374AAF0D2097F007EF0DC
:10964800A2AF9211C2AFEF54C0FFC3EE94F040092D
:10965800EE94F450047C0480027C0875A15575A131
:10966800AAEC42B18E858F84758F80E4F58EE586ED
:1096780030E6107586A6E58630E1047D028006E4B2
:10968800FD80027D0175A15575A1AAECF452B1A225
:059698001192AFAF05C7
:01969D0022AA
:0C8D9C007840A6077CF07D007B027F0081
:0D8DA80090018CEBF090018AEEF0A3EFF04B
:108DB500A2AF9211C2AFC3EE94F0400C90018AE0CD
:108DC50094F4500479048002790875A15575A1AA17
:108DD500E942B190018AA3E0543FFFC374409FFE6E
:108DE500A3E0D39E40037FFC22ED543F6F60037FD9
:108DF500FB2290018AE0F8A3E0F5828883858385CC
:108E050085828490018CE02F14F58FAF058F82EC5D
:108E1500F583E58630E61075869AE58630E1047AB5
:108E2500028006E4FA80027A0175A15575A1AAE9C6
:098E3500F452B1A21192AFAF0298
:018E3E002211
:1092CA007AF0790090018FE4F0A37402F07F007EB7
:0192DA00F0A3
:1092DB0090018AEEF0A3EFF0A3EBF0A3EAF0A3E981
:0192EB00F092
:1092EC00E4FFFE90018FE06E7003A3E06F60479087
:1092FC00018AE0FCA3E0F5828C83E493FD90018C61
:10930C00E0FBA3E0FAA3E0F98F828E83ED12233801
:10931C0090018AE0B4FF0AA3E0B4FF050FBF000080
:10932C002290018BE004F0700690018AE004F00FAB
:06933C00BF00010E80AD30
:019342002208
:10868B00E47842F6439601439701D2B043960243F6
:10869B0097027B017AF0790090018F1292D2784089
:1086AB00A607E47843F67843E6C39403748094807A
:1086BB005019A2B1E4337885F620E0037842067FA7
:1086CB000A7E00129E2F78430680DB7842E6640315
:1086DB00704790F000E064697030A3E018F6F4F690
:1086EB00F0129644128DA07840A6071B1292CA78FE
:1086FB0040A60790F001E0FF7E0064557002C209AE
:10870B00EF64AA4E7037D209803390F00012963B7B
:10871B00128D9C7840A60780247B011292CA784068
:10872B00A60790F000E064697013A3E0FF7E00647D
:10873B00557002C209EF64AA4E7002D20990F00084
:0F874B00E06469600A12963B128D9C7840A60785
:01875A0022FC
:1045B40060C00009000000000000000000000000CE
:1045C40000000000000000000000000000000000E7
:1045D40000000000000000000000000000000000D7
:1045E40000000000000000000000000000000000C7
:1045F40000000000000000000000000000000000B7
:1046040000000000000000000000000000000000A6
:104614000000000000000000000000000000000096
:104624000000000000000000000000000000000086
:104634000000000000000000000000000000000076
:104644000000000000000000000000000000000066
:104654000000000000000000000000000000000056
:104664000000000000000000000000000000000046
:104674000000000001820001800001810041000867
:014684000035
:1000030075A15575A1AA43B98053B9BF75A155759B
:0E001300A1AAE5B954F84407F5B9E4F5A12215
:109C9300EF4E602D05A105A105A105A105A105A113
:109CA30005A105A105A105A105A105A105A105A181
:109CB30005A105A105A105A105A1EF1F70D21E8075
:029CC300CF22AE
:109E2F00AD07AC06ED4C600E7FE87E03129C93ED00
:079E3F001D70F11C80EE22F2
:0A9EC90043C40C43C50C43AA102249
:108F7700C29FD29EC29DC2CDC2CC43878090018A38
:108F87001225B600000104E47B0AFAF9F890018A79
:108F9700E0FCA3E0FDA3E0FEA3E0FF1223C29001E3
:108FA7008EEBF090018AE0FCA3E0FDA3E0FEA3E0D6
:108FB700FFE47B0AFAF9F81223C290018A1225917D
:108FC70090018EE0C3940574809480401F90018ABD
:108FD700E0FCA3E0FDA3E0FEA3E02401FFE43EFEE6
:108FE700E43DFDE43CFC90018A122591E589540F8C
:108FF7004420F58943C9A090018AA3A3A3E0F40400
:06900700F58DD28ED29C13
:01900D002240
:0A9ED30075A15575A1AA43B1102234
:109E460075A15575A1AAEF600543B101800353B111
:079E5600FEE4F5A1F5FF2277
:039F0D008FFF22A1
:109E930053BC7F43BC2043BC1075BEE675BF022292
:0A9EDD004392C04393C043AA202221
:0C9EB100E5BF540160FA75BF01AFBD228F
:0C9EBD008FBDE5BF540260FA75BF0222A1
:05002600AE07029EBDC3
:0300230002942D17
:10942D00C0E0C083C082C0D075D010309831C298D2
:10943D007880E62409F582E43400F583E599F00699
:10944D00E6C394C07480948040027600786206E68C
:10945D00D394C074809480400276C07881760030B9
:10946D009925C2997867E660157863E6062400F5BC
:10947D0082E43403F583E0F5997867168009C2EA32
:10948D0053D6F3D2EAC20CD0D0D082D083D0E03202
:089EE7008F993099FDC2992208
:1059E2009001861225B600000000C2ACC28EC29C95
:1059F2009000031222F9900186F09000021222F91F
:105A0200900187F09000011222F9900188F0122291
:105A1200E0900189F0E47F407E38FDFC900186E051
:105A2200F8A3E0F9A3E0FAA3E0FBC3122461400368
:105A3200025AD953C9DFE589540F4420F5899001F0
:105A420086E0F8A3E0F9A3E0FAA3E0FB7F007E384A
:105A52007D9C7C1C1223C2E47B10FAF9F81223C24B
:105A6200E47B0CFAF9F81223C2900181122591E429
:105A72007B0AFAF9F8900181E0FCA3E0FDA3E0FEC5
:105A8200A3E0FF1223C2900185EBF0900181E0FCBC
:105A9200A3E0FDA3E0FEA3E0FFE47B0AFAF9F8121B
:105AA20023C2900181122591900185E0C39405746F
:105AB200809480401F900181E0FCA3E0FDA3E0FE02
:105AC200A3E02401FFE43EFEE43DFDE43CFC900142
:105AD20081122591025B71E589540F4420F58943B7
:105AE200C9A0900186E0F8A3E0F9A3E0FAA3E0FBE5
:105AF2007F007E387D9C7C1C1223C2E47B10FAF965
:105B0200F81223C2900181122591E47B0AFAF9F876
:105B1200900181E0FCA3E0FDA3E0FEA3E0FF1223DD
:105B2200C2900185EBF0900181E0FCA3E0FDA3E0CF
:105B3200FEA3E0FFE47B0AFAF9F81223C290018186
:105B4200122591900185E0C3940574809480401FD2
:105B5200900181E0FCA3E0FDA3E0FEA3E02401FFAD
:105B6200E43EFEE43DFDE43CFC900181122591906F
:105B72000181A3A3A3E0F404F58DD28ED29CD2AC12
:015B82002200
:106CC8007862E67003026DE8300D03026DE8C39444
:106CD80040748094805003026D827882E6FF2440DD
:106CE800FDE433FCD3ED94C0EC64809480502B74A5
:106CF800092FF9E43400FA7B0178407C037D017E9A
:106D0800007F401222BA7882744026F6E6C394C007
:106D1800748094804046E4F68042E490018AF090C2
:106D2800018AE0FFC3944074809480502F7882E6F3
:106D38002409F582E43400F583E0FE74402FF582DF
:106D4800E43403F583EEF006E6C394C074809480BF
:106D58004002E4F690018AE004F080C3C2AC786295
:106D680074C026F6D2ACC2EA75D74053D6FCD2EA34
:106D7800D20D9000087401F08066E4900008F07865
:106D880081E6C39403748094804055E4F67862E603
:106D9800FFE490018AF090018AE0FEC39F503678A4
:106DA80082E62409F582E43400F583E0FD74402E80
:106DB800F582E43403F583EDF006E6C394C07480ED
:106DC80094804002E4F6C2AC786216D2AC90018A94
:106DD800E004F080C1C2EA8FD753D6FCD2EAD20DC4
:106DE8007881E6C39403748094804016200D139034
:106DF8000008E0600DE4F0C2EAF5D753D6FCD2EA09
:026E0800D20DA9
:016E0A002265
:069EFD00322E302E300071
:03468500013F00F2
:0B8CF800900190EBF0A3EAF0A3E9F07C
:108D0300E47841F6EF24FE6017146016146016240D
:108D130014603424F2606A14603F24FE707680028B
:108D23008000E4806C78417606E6FF7E0090019037
:108D3300E0FBA3E0FAA3E0F8AC02AD037BFF7A9E6D
:108D430079FD1222BA804D900190E0FBA3E0FAA3D3
:108D5300E0F974011223268038900190E0FBA3E030
:108D6300FAA3E0F97440122326900190E0FBA3E0FC
:108D7300FAA3E0F9900001E41223387841760280E7
:108D830013900190E0FBA3E0FAA3E0F9740112232E
:088D9300267841F67841E6FF65
:018D9B0022B5
:109C2D009000011222F9FE1222E0FDEE7841F6EDD0
:109C3D0008F6784108E616187001161486064E705F
:109C4D00F1900193E0FBA3E0FAA3E0F9E4122326DF
:029C5D007F0185
:019C5F0022E2
:109BF8001222E014600304700B9000011222F91382
:109C080092C2800F900193E0FBA3E0FAA3E0F974FD
:109C1800FF800C900193E0FBA3E0FAA3E0F9E412C3
:059C280023267F01224C
:109B8A001222E0FF7841700476018002A60778412C
:109B9A00E614700978387601129E828004E47841CE
:109BAA00F67841E6FF900193E0FBA3E0FAA3E0F91F
:069BBA00EF1223267F01DB
:019BC0002282
:109DA200900190EBF0A3EAF0A3E9F0E47838F61220
:109DB2009E82900190E0FBA3E0FAA3E0F9E4122373
:049DC200267F0122D5
:0E9EA300900001E4122338E41223267F0222ED
:107BBC001222E07841F69000011222F97842F690F8
:107BCC0000031222F9FE9000021222F9FDEE784316
:107BDC00F6ED08F69000041222F9700890000512D8
:107BEC0022F960097843E64480F608E6F67842E626
:107BFC00FF5401600C18E654016004D2948002C258
:107C0C0094EF5402600D7841E654026004D29180E6
:107C1C0002C2917842E65480600C18E6C413131328
:107C2C00540124FF92C47844E6184660477842E633
:107C3C00FF54016008A294E43318667029EF5402D3
:107C4C00600D7841E6C313FFA291E4336F7017788F
:107C5C0042E65480601E18E6C41313135401FFA2AD
:107C6C00C4E4336F600E784308E61618860670017C
:107C7C00164E70B9A291E43325E0FFA294E4334F81
:107C8C00FFA2C4E433C433333354804F7841F6E657
:107C9C00FF900193E0FBA3E0FAA3E0F9EF12232697
:027CAC007F0156
:017CAE0022B3
:109858009000021222F9FF7835F67E00C3949874BE
:109868008094804006E47824F68024C3EF944CEE7C
:10987800648094804006782476018013C3EF941E98
:10988800EE64809480782440047602800276039007
:109898000193E0FBA3E0FAA3E0F9E41223267F0199
:0198A800229D
:0B98FA00900190EBF0A3EAF0A3E9F06E
:10990500900190E0FBA3E475F001122370A9F0FA31
:109915001222E07841F6E6700276FF7841E6FF9084
:109925000190E0FBA3E0FAA3E0F91298A990019356
:0E993500E0FBA3E0FAA3E0F9E41223267F0191
:019943002201
:109CF6001222E07841F6E6FF540304783DF6EF546D
:109D06000460047F0180027F00782FA607900193EC
:0E9D1600E0FBA3E0FAA3E0F9E41223267F01AC
:019D2400221C
:0B76B200900190EBF0A3EAF0A3E9F0D8
:1076BD00A3E0FBA3E475F001122370A9F0FAE41224
:1076CD00232678437601087601900190E0FBA3E430
:1076DD0075F001122370A9F0FA1222E07842F678C3
:1076ED0042E61670030277B4900190E0FBA3E475B7
:1076FD00F001122370A9F0FA1222E07841F6E6FDAE
:10770D00543F7845F6700276407845E62407FFE44D
:10771D0033FEEF7803CEC313CE13D8F97845F6EDCB
:10772D00548060105392FD5393FDD2915392FD43BB
:10773D0093028002D2917841E6FF900193E0F9A384
:10774D00E0FAA3E090019AC9F0A3EAF0A3E9F09062
:10775D000190E0FBA3E0FAA3E0F91284E87842E699
:10776D007002D2917841E6548060255392FD539377
:10777D00FD7843067845E6FFFD900194E48DF01207
:10778D00235A7844EF26F65392FD4393020276EC8A
:10779D007845E6FFFD900191E48DF012235AEF0438
:0B77AD00784326F60276EC7844E6FFF5
:0177B80022AE
:109A5C001222E07825F69000021222F9FE90000105
:109A6C001222F9FDEE783BF6ED08F6900004122276
:109A7C00F9FE9000031222F9FDEE7836F6ED08F6A9
:109A8C00900193E0FBA3E0FAA3E0F9E41223267F14
:029A9C000122A5
:0B281700900196EBF0A3EAF0A3E9F0BB
:1028220090019CEBF0A3EAF0A3E9F0E47823F678B8
:102832003EF6900199E0F9A3E0FAA3E090019FC966
:10284200F0A3EAF0A3E9F090019AE475F0021223F2
:102852005AE4783FF67842F608F690019775F0014F
:1028620012235A900196E0FBA3E475F00112237043
:10287200A9F0FA1222E07830F67830E67003022CE2
:10288200ED900196E0FBA3E475F001122370A9F02C
:10289200FA1222E07826F6E6FF54027003022BA019
:1028A2007842E67003022975783BE6FC08E6FD787B
:1028B20039A60408A605EF5411640170267826E6AD
:1028C200FF7D271242A4783EEFF66402703B78390E
:1028D20008E6161886067001164E602D783FE660EF
:1028E200DC80267D277F0E1242A4783EEFF664023A
:1028F2007013783908E6161886067001164E6005C0
:10290200783FE660DEE47842F6783EE664016003F2
:10291200022CED7827E6FF900199E0FBA3E475F025
:1029220001122370A9F0FAEF1223267828E6FF900D
:102932000199E0FBA3E475F001122370A9F0FAEF0C
:102942001223267829E6FF900199E0FBA3E475F0B3
:1029520001122370A9F0FAEF122326782AE6FF90DB
:102962000199E0FBA3E475F001122370A9F0FAEFDC
:102972001223267826E6FF54107003022AB790012C
:1029820096E0FBA3E0FAA3E0F91222E0782BF6909E
:1029920000011222F9782CF69000021222F9782D09
:1029A200F69000031222F9782EF6900197E475F062
:1029B2000412235A7836E6FC08E6FD18A60408A697
:1029C20005EF5401603D783BE6FE08E6FF7839A644
:1029D2000608A6077826E6FFE4FD1242A4783EEF39
:1029E200F67E0064027013783908E61618860470C1
:1029F20001164C6005783FE660DAEF64014E600331
:102A0200022CED783BE6FE08E6FF7839A60608A61A
:102A1200077826E6FF7D271242A4783EEFF67E0075
:102A220064027013783908E6161886047001164C91
:102A32006005783FE660DAEF64014E703C7927E783
:102A4200783156782B66701E09E7783256782C66F4
:102A5200701409E7783356782D66700A09E77834DE
:102A620056782E666013783608E6161886067001C8
:102A7200164E6005783FE6608A7927E77831567806
:102A82002B66701E09E7783256782C66701409E7B7
:102A9200783356782D66700A09E7783456782E66B0
:102AA2006006783EE64410F6783EE6640170030262
:102AB2002B99022CED783BE6FE08E6FF7839A60654
:102AC20008A6077826E65401603E7842E6600302D3
:102AD2002B997826E6FFE4FD1242A4783EEFF67EBB
:102AE2000064027013783908E6161886047001161D
:102AF2004C6005783FE660DAEF64014E6003022C19
:102B0200ED78427601022B997826E6FF7D27124264
:102B1200A4783EEFF67E0064027013783908E61658
:102B22001886047001164C6005783FE660DAEF649F
:102B3200014E6003022CED7827E6FF900199E0FB3D
:102B4200A3E475F001122370A9F0FAEF122326789C
:102B520028E6FF900199E0FBA3E475F001122370CF
:102B6200A9F0FAEF1223267829E6FF900199E0FBFB
:102B7200A3E475F001122370A9F0FAEF122326786C
:102B82002AE6FF900199E0FBA3E475F0011223709D
:102B9200A9F0FAEF122326E47843F6022CDF7842FA
:102BA200E67003022C47783BE6FE08E6FF7839A67A
:102BB2000608A6077D277F0E1242A4783EEFF67E16
:102BC2000064027013783908E6161886047001163C
:102BD2004C6005783FE660DCEF64014E6003022C36
:102BE200ED7827E6FF900199E0FBA3E475F001126E
:102BF2002370A9F0FAEF1223267828E6FF900199B4
:102C0200E0FBA3E475F001122370A9F0FAEF12239E
:102C1200267829E6FF900199E0FBA3E475F0011202
:102C22002370A9F0FAEF122326782AE6FF90019981
:102C3200E0FBA3E475F001122370A9F0FAEF12236E
:102C420026E47842F6900196E0FBA3E0FAA3E0F9CD
:102C52001222E07827F69000011222F97828F690E5
:102C620000021222F97829F69000031222F9782A3A
:102C7200F6900197E475F00412235A7826E6542060
:102C8200601D08E67831F67828E67832F67829E68B
:102C92007833F6782AE67834F6783E7601803E7804
:102CA2003BE6FE08E6FF7839A60608A6077826E680
:102CB200FF7D271242A4783EEFF67E006402701375
:102CC200783908E6161886047001164C6005783FBC
:102CD200E660DAEF64014E701278437601782306DB
:102CE200783FE6700678301602287B7830E660324C
:102CF200900196E0FBA3E475F001122370A9F0FAAB
:102D02001222E07826F6E6FF54026007EF541060C4
:102D12000C8000900197E475F00412235A78301663
:102D220080C9783EE664016003022E087842E670AC
:102D320003022DD3783BE6FE08E6FF7839A60608A3
:102D4200A6077D277F0E1242A4783EEFF67E00642E
:102D5200027013783908E6161886047001164C6062
:102D620005783FE660DCEF64014E6003022E0878CE
:102D720027E6FF900199E0FBA3E475F001122370AE
:102D8200A9F0FAEF1223267828E6FF900199E0FBDA
:102D9200A3E475F001122370A9F0FAEF122326784A
:102DA20029E6FF900199E0FBA3E475F0011223707C
:102DB200A9F0FAEF122326782AE6FF900199E0FBA8
:102DC200A3E475F001122370A9F0FAEF1223268012
:102DD200357843E66030783BE6FE08E6FF7839A6B0
:102DE2000608A607E4FD7F0E1242A4783EEFF664C1
:102DF200027013783908E6161886067001164E60BE
:102E020005783FE660DE7823E6FF90019FE0FBA3B2
:102E1200E0FAA3E0F9EF122326783EE6FF90019F45
:102E2200E0FBA3E0FAA3E0F9900001EF122338904F
:082E32000199A3A3E0C399FF7D
:012E3A002275
:109D5000E47841F6C002C001900193E0F9A3E0FA73
:109D6000A3E0900199C9F0A3EAF0A3E9F0D001D0F3
:089D7000021228177841EFF6FA
:019D780022C8
:0B4A3A00900196EBF0A3EAF0A3E9F076
:104A4500E47823F6783EF6A3E0F9A3E0FAA3E0A321
:104A5500C9F0A3EAF0A3E9F090019AE475F0031216
:104A6500235AE4783FF690019775F00112235A9086
:104A75000196E0FBA3E0FAA3E0F99000011222F908
:104A85001222E0FF7830F6900197E475F0021223C8
:104A95005AEF7003024C60900196E0FBA3E475F0B9
:104AA50001122370A9F0FA1222E07826F6E6FF54E7
:104AB500027003024BB5EF5401603D783BE6FE08FA
:104AC500E6FF7839A60608A6077826E6FFE4FD1274
:104AD50042A4783EEFF67E0064027013783908E64A
:104AE500161886047001164C6005783FE660DAEF0B
:104AF50064014E6003024C607830E6167003024C88
:104B050060E670097826E654016002760E783BE689
:104B1500FE08E6FF7839A60608A6077826E6FF7D93
:104B2500271242A4783EEFF67E00640270137839AE
:104B350008E6161886047001164C6005783FE66095
:104B4500DAEF64014E6003024C607827E6FF9001BE
:104B550099E0FBA3E475F001122370A9F0FAEF12B6
:104B650023267828E6FF900199E0FBA3E475F00180
:104B7500122370A9F0FAEF1223267829E6FF900197
:104B850099E0FBA3E475F001122370A9F0FAEF1286
:104B95002326782AE6FF900199E0FBA3E475F0014E
:104BA500122370A9F0FAEF122326782306024AFD94
:104BB5007830E6166075900196E0FBA3E0FAA3E075
:104BC500F91222E07827F69000011222F97828F6EA
:104BD5009000021222F97829F69000031222F97842
:104BE5002AF6900197E475F00412235A783BE6FE05
:104BF50008E6FF7839A60608A6077826E6FF7D278A
:104C05001242A4783EEFF67E0064027013783908EC
:104C1500E6161886047001164C6005783FE660DAE2
:104C2500EF64014E70357823068085783BE6FE08F3
:104C3500E6FF7839A60608A607E4FD7F0E1242A412
:104C4500783EEFF664027013783908E61618860682
:104C55007001164E6005783FE660DE7823E6FF902A
:104C6500019CE0FBA3E0FAA3E0F9EF1223269001F3
:104C75009CE0FBA3E0FAA3E0F9900001E4122338DD
:104C8500783EE6900002122338900199A3A3E0C371
:024C950099FF85
:014C970022FA
:0B8B0000900190EBF0A3EAF0A3E9F075
:108B0B007838E6147029900193E0F9A3E0FAA3E01A
:108B1B00900199C9F0A3EAF0A3E9F0900190E0FB72
:108B2B00A3E0FAA3E0F9124A3A7841A607802C9009
:108B3B000193E0FBA3E0FAA3E0F9E41223269001F2
:108B4B0093E0FBA3E0FAA3E0F9900001E4122338D1
:108B5B00900002E412233878417603900190E0FBF9
:108B6B00A3E0FAA3E0F99000031222F95402600685
:108B7B007841E6F680259000021222F9900001124E
:108B8B0022F975F004A42404FFE435F0FEEF78100D
:0F8B9B00C333CE33CED8F9784146F67841E6FFA2
:018BAA0022A8
:109A9E009000011222F97827F69000021222F9782E
:109AAE0028F69000031222F97829F690000412226B
:109ABE00F9782AF67D27E4FF1242A4900199E0FB83
:0D9ACE00A3E0FAA3E0F9E41223267F0122B1
:1099D2007838E6147026C002C001900193E0F9A322
:1099E200E0FAA3E0900199C9F0A3EAF0A3E9F0D06C
:1099F20001D002129A9E7841A6078014900193E04A
:109A0200FBA3E0FAA3E0F974FF1223267841760162
:049A12007841E6FFB2
:019A1600222D
:0F3FBA007E007F407D007B017A0179401227B79E
:103FC90090018A7401F0A37401F0A37400F0A37442
:103FD90001F0A37401F0A37440F090018AE0FBA3FF
:103FE900E0FAA3E0F91222E0FF90018DE0FBA3E4DF
:103FF90075F001122370A9F0FAEF12232690018AB5
:10400900E0FBA3E475F001122370A9F0FA1222E093
:104019001225E740990040D20140F802411E0342AF
:104029002204404D05407306424708412F09415576
:104039000A416610418C1141B21241D81341FD1D4C
:104049000000427090018DE0F9A3E0FAA3E090012D
:1040590093C9F0A3EAF0A3E9F090018AE0FBA3E099
:10406900FAA3E0F9129D5002426A90018DE0F9A38A
:10407900E0FAA3E0900193C9F0A3EAF0A3E9F09074
:10408900018AE0FBA3E0FAA3E0F9128B0002426A7D
:1040990090018AE0FBA3E0FAA3E0F91222E0FF9085
:1040A900018DE0FBA3E0FAA3E02401F9E43AFA1256
:1040B9008CF87840EFF690018DE0FBA3E0FAA3E0DD
:1040C900F9EF1223260602428790018DE0F9A3E059
:1040D900FAA3E0900193C9F0A3EAF0A3E9F09001F3
:1040E9008AE0FBA3E0FAA3E0F9129BF802426A9086
:1040F900018DE0F9A3E0FAA3E0900193C9F0A3EAE6
:10410900F0A3E9F090018AE0FBA3E0FAA3E0F91239
:104119009B8A02426A90018DE0FBA3E0FAA3E0F9D1
:10412900129DA202426A90018DE0F9A3E0FAA3E090
:10413900900193C9F0A3EAF0A3E9F090018AE0FBAA
:10414900A3E0FAA3E0F9129C2D02426A90018DE0E6
:10415900FBA3E0FAA3E0F9129EA302426A90018D43
:10416900E0F9A3E0FAA3E0900193C9F0A3EAF0A370
:10417900E9F090018AE0FBA3E0FAA3E0F9127BBC25
:1041890002426A90018DE0F9A3E0FAA3E09001935D
:10419900C9F0A3EAF0A3E9F090018AE0FBA3E0FAF1
:1041A900A3E0F912985802426A90018DE0F9A3E060
:1041B900FAA3E0900193C9F0A3EAF0A3E9F0900112
:1041C9008AE0FBA3E0FAA3E0F91298FA02426A90A6
:1041D900018DE0F9A3E0FAA3E0900193C9F0A3EA05
:1041E900F0A3E9F090018AE0FBA3E0FAA3E0F91259
:1041F9009CF6806D90018DE0F9A3E0FAA3E09001AF
:1042090093C9F0A3EAF0A3E9F090018AE0FBA3E0E7
:10421900FAA3E0F91276B2804890018DE0F9A3E0A3
:10422900FAA3E0900193C9F0A3EAF0A3E9F09001A1
:104239008AE0FBA3E0FAA3E0F9129A5C80239001DB
:104249008DE0F9A3E0FAA3E0900193C9F0A3EAF0A5
:10425900A3E9F090018AE0FBA3E0FAA3E0F912993F
:10426900D27840A607801790018DE0FBA3E0FAA35E
:10427900E0F990FFFF74FF122338784076017E0041
:104289007F407D007B017A0179001227B7E47864C9
:0A429900F653D2F375D34053D2FC64
:0142A30022F8
:089BC1007845F6139291C2945D
:109BC9007824E624FE601C14601D24027020000025
:109BD900000000000000000000000000000000007C
:0F9BE9000000227F0180027F027E00129C9322E7
:109E82005392EF439310D2945392FD439302D29193
:019E920022AD
:0B98A900900196EBF0A3EAF0A3E9F0B9
:1098B400E47842F608F6AE071FEE60397843E670A6
:1098C40019900196E0FBA3E475F001122370A9F04E
:1098D400FA1222E07842F60876087842E6FE30E092
:1098E40004D2918002C291C294D294EEC3137842FE
:0598F400F6081680C11A
:0198F900224C
:0B84E800900197EBF0A3EAF0A3E9F08D
:1084F300EF543F7848F670027640EF30E7785392B6
:10850300FD5393FD7848E66066E47846F67849764D
:10851300087849E6602E18E6602AC294129BC9A225
:1085230091E4337847F6D294129BC97846E6C31395
:10853300FFF608E6C433333354804F18F6784916F0
:10854300181680CD7846E6FF7849E6FEF8EF0880F6
:1085530002C313D8FCFF7846F690019AE0FBA3E42C
:1085630075F001122370A9F0FAEF122326809553B8
:1085730092FD439302227848E6603B900197E0FB2B
:10858300A3E475F001122370A9F0FA1222E07846F1
:10859300F6784976087849E660DC18E660D87846CC
:1085A300E6129BC4D294129BC97846E6C313F678AD
:0685B3004916181680DFD6
:0185B900229F
:0842A4009001A2EFF0A3EDF080
:1042AC00E47847F6D291C294129BC9D294129BC95E
:1042BC009001A2E0FF129BC1D294129BC97845E6F3
:1042CC00784726F69001A2E0FFC313129BC1D2944B
:1042DC00129BC97845E6784726F69001A2E0FF13B9
:1042EC0013543F129BC1D294129BC97845E6784770
:1042FC0026F69001A2E0FF131313541F129BC1D298
:10430C0094129BC97845E6784726F6E6129BC4D2F0
:10431C0094129BC9C291C294129BC9D294129BC98C
:10432C00D291C294129BC9D294129BC9D291783D5E
:10433C00E67849F67849E6600FC294129BC9D2948C
:10434C00129BC978491680EC5392FD5393FDC2948D
:10435C00129BC9A291E4337845F6D294129BC9788A
:10436C0045E618F6C294129BC9A291E4337845F63F
:10437C00D294129BC97845E6FF25E01846F6C29404
:10438C00129BC9A291E4337845F6D294129BC9785A
:10439C0045E6FF25E025E01846F66401600302447B
:1043AC00E29001A2E020E103024456E47846F608CC
:1043BC00F608F67848E6C3940474809480504A0852
:1043CC007608C294129BC9A291E4337845F6D29434
:1043DC00129BC97845E6FF784726F618E6C313FE0C
:1043EC00F6EFC433333354804EF6784916E670D268
:1043FC009001A3E0FF600D7846E6FE7848E6FDEFFD
:10440C002DF8A60678480680AAC294129BC9A291E0
:10441C00E4337845F6D294129BC97947E778456620
:10442C0030E0031876085392FD439302783DE6780A
:10443C0049F67849E6600FC294129BC9D294129B3C
:10444C00C978491680ECD291806A783DE67849F6B5
:10445C007849E6600FC294129BC9D294129BC9781A
:10446C00491680ECD291E47847F608F67848E6FFD6
:10447C00C394047480948050309001A3E02FF8E62C
:10448C007846F6784976087846E6129BC4D29412A0
:10449C009BC97846E6FF0826F6EFC31318F6784951
:1044AC0016E670E378480680C37847E6129BC4D2C0
:1044BC0094129BC97825E6FF7849F66016C291786C
:1044CC0049E6600FC294129BC9D294129BC97849D9
:1044DC001680EC02456D7844E6FF64026005EF64DB
:1044EC00047062782FE6601C9001A2E05402601404
:1044FC0078497621C294129BC9D294129BC97849EF
:10450C0016E670F0783DE67849F67849E6600FC219
:10451C0094129BC9D294129BC978491680ECD29103
:10452C00782FE6601E9001A2E054027016C29178BA
:10453C00497621C294129BC9D294129BC978491610
:10454C00E670F0801C783DE624217949F77849E63D
:10455C00600FC294129BC9D294129BC978491680E1
:07456C00ECD2917844E6FF58
:014573002225
:049F09000001000053
:10468800046D00000000047100000000C101C100B9
:10469800C105C103C102C108C104C107C106016B3C
:0E46A80000016C00016A0044071100000000D0
:100F1400E47840F608F6FE7F07FD7B017A047980C9
:100F24001227B77E007F077D007B017A05792B129B
:100F340027B7200E03021ADFC20E7864E6FF7E0094
:100F440078067C077D017B017A0179001222BA9030
:100F54000706E064816003021A96A3E0640160035B
:100F64000210E2A3E064046003021AABC206A3E029
:100F7400786DF6A3E008F6A3E008F6A3E008F67897
:100F84006AE66401600302106D12728312807512A6
:100F9400949D128166E4FFFEFD7C08786D12250E97
:100FA400C31224614012E4FFFE7D017C08786D12B7
:100FB400250EC3122461406F7F007EF07DFF7C1FED
:100FC400786D12250EC312246140137F007EF87DD4
:100FD400FF7C1F786D12250EC312246140497F00E7
:100FE4007EF97DFF7C1F786D12250EC312246140AB
:100FF4001274FFFFFEFD7C1F786D12250EC31224B0
:10100400614024E4FFFEFD7C20786D12250EC3129E
:10101400246140517F007E507D007C20786D122534
:101024000EC3122461503EE4FFFEFD7C20786D1255
:10103400250EC312246140277F007E507D007C2052
:10104400786D12250EC31224615014D203127283D8
:10105400128075127ABF7840A6071281668002C298
:10106400037866805978668065786AE6640270243D
:10107400127283E4FF128E3F1281667FFF7E7F7DB2
:10108400077C00786D12250ED31224617866500215
:10109400802C803A786AE664036003021AAB127209
:1010A40083E4FF128E3F1281667FFF7E7F7D077C83
:1010B40000786D12250ED3122461786650107604E0
:1010C4009007067482F0A37401F0A3021A7A7604DE
:1010D4009007067482F0A37401F0A3021AA7900784
:1010E40007E0640260030211C8A3E0640160030224
:1010F4001AABA3E06401702D127283128075127A08
:10110400BF7840A6071281667840E66003021AABF6
:10111400D202786676049007067482F0A37402F013
:10112400A314021A7A900709E06402702AD201C259
:1011340000786676049007067482F0A37402F0A324
:1011440014F0A304F0127283128075786AE66402C4
:101154006003021AAB8031900709E064037030D257
:1011640000C201786676049007067482F0A37402C4
:10117400F0A314F0A37403F0127283128075786ADA
:10118400E664026003021AABFF128E3F021AAB90B0
:101194000709E06404701AD208786676049007069A
:1011A4007482F0A37402F0A314F0A37404F0021A7E
:1011B400AB786676049007067482F0A37402F0A3F9
:1011C40014021AA7900707E0640560030212D1A372
:1011D400E064046003021AABC206A3E07871F6A3CC
:1011E400E008F6A3E008F6A3E008F6786AE66401EE
:1011F4007036FFFE7D01FC787112250ED312246136
:101204007866501276049007067482F0A37405F091
:10121400A37401021A7A76049007067482F0A37408
:1012240005F0A37401021AA7786AE66402704A788A
:1012340071122502786D12250EEB2FFFEA3EFEE9AE
:101244003DFDE83CFC7BFF7A7F79077800C31224DC
:10125400617866401276049007067482F0A37405E0
:10126400F0A37401021A7A76049007067482F0A33C
:101274007405F0A37401021AA7786AE66403600394
:10128400021AAB7871122502786D12250EEB2FFF2E
:10129400EA3EFEE93DFDE83CFC7BFF7A7F79077876
:1012A40000C31224617866401276049007067482A3
:1012B400F0A37405F0A37401021A7A760490070669
:1012C4007482F0A37405F0A37401021AA7900707AF
:1012D400E0640660030213E1A3E064016003021A00
:1012E400ABA3E06401704D1272831280757B007AA7
:1012F4000079407F1C7E207D027C4012511D784283
:101304001225851281667842122502EF5402FFEFFE
:101314007866601276049007067482F0A37406F06F
:10132400A37401021A7A76049007067482F0A374F7
:1013340006021A8C900709E064027032127283125A
:1013440080751252FD7B007A0079407F007EF07D2B
:10135400FF7C1F12511D7842122585128166786622
:1013640076049007067482F0A3740602181A900794
:1013740009E064036003021AAB12728312807512CF
:101384009F037B007A0079407F007EF87DFF7C1FFD
:1013940012511D7842122585128166E47FA57E5A7A
:1013A400FDFC784212250EC312246178667017760C
:1013B400049007067482F0A37406F0A37401F0A3EA
:1013C4007406F0021AAB76049007067482F0A374D4
:1013D40006F0A37401F0A37405F0021AAB9007079A
:1013E400E064086003021491A3E064066003021A37
:1013F400AB900486F0900709E0900484F090070D08
:10140400E0900480F090070CE0900481F090070BCA
:10141400E0900482F090070AE0900483F090070EB5
:10142400E0900485F078C67C017D017B017A047923
:10143400807E007F071222BA123844782B7C057D07
:10144400017E007F071222BA786676099007067437
:1014540082F0A37408F0A37406F090052FE09007BF
:1014640009F090052EE090070AF090052DE0900712
:101474000BF090052CE090070CF090052BE0900702
:101484000DF0900530E090070EF0021AAB900707BC
:10149400E0640960030215D4A3E064046003021A43
:1014A400ABD206A3E0786DF6A3E008F6A3E008F655
:1014B400A3E008F6786AE664017061FFFEFD7C082B
:1014C400786D12250EC31224617006128075129471
:1014D4009DE4FFFEFD7C08786D12250EC312246185
:1014E4004026E4FFFE7D017C08786D12250EC312B0
:1014F40024615014786BE654047061128075129460
:101504009D786B76040215A57866760490070674B8
:1015140082F0A37409F0A37401021AA7786AE6643E
:1015240002704F7FFF7E7F7D07FC786D12250ED3FE
:101534001224615029786BE654017008FF128E3F23
:10154400786B7601E4FFFEFDFC786D12250EC31264
:1015540024617004FF128E3FE4786CF68043786651
:1015640076049007067482F0A37409F0A374010250
:101574001AA7786AE664036003021AAB7FFF7E7FD2
:101584007D07FC786D12250ED3122461502E786BE2
:10159400E654027008FF128E3F786B7602E4786C92
:1015A400F6786676049007067482F0A37409F0A3B3
:1015B4007401F0A3F0D204C207021AAB7866760471
:1015C4009007067482F0A37409F0A37401021AA7A9
:1015D400900707E0640A60030216C9A3E06405608B
:1015E40003021AABD206A3E0786DF6A3E008F6A3D3
:1015F400E008F6A3E008F6A3E0FFE4FCFDFE081211
:101604002585786AE664017038FFFEFD7C08786DF4
:1016140012250EC31224614014E4FFFE7D017C08F0
:10162400786D12250EC312246150028069786676A3
:10163400049007067482F0A3740AF0A37401021ADA
:10164400A7786AE66402702D7FFF7E7F7D07FC78B1
:101654006D12250ED31224615007E4FF128E3F80D1
:1016640035786676049007067482F0A3740AF0A3B2
:101674007401021AA7786AE664036003021AAB7F56
:10168400FF7E7F7D07FC786D12250ED312246150F6
:1016940020E4FF128E3F786676049007067482F089
:1016A400A3740AF0A37401F0A3F0C204D207021ACF
:1016B400AB786676049007067482F0A3740AF0A3EC
:1016C4007401021AA7900707E0640B7029A3E06471
:1016D400016003021AAB12728312807512998C1284
:1016E4008166786676049007067482F0A3740BF022
:1016F400A37401021A7A900707E0FF7E00640C705D
:101704006CA3E064016003021AABA3E0FD7C0064F7
:1017140001600AED64026005ED6403703CED640150
:101724004C7006786A76018016ED64024C70067877
:101734006A7602800AED64034C7004786A76037852
:101744006676049007067482F0A3740CF0A3740107
:10175400F0786AE6A3F0021AAB786676049007067E
:101764007482F0A3740CF0A37401021AA7EF640D41
:101774004E6003021826900708E064016003021A11
:10178400ABA3E0FF7E0064017039786676079007AA
:10179400067482F0A3740DF0A37404F0909F09E41E
:1017A40093900709F0909F0AE49390070AF0909FA2
:1017B4000BE49390070BF0909F0CE49390070CF0CC
:1017C400021AABEF64024E7026786676069007061E
:1017D4007482F0A3740DF0A37403F0124EF47840F5
:1017E400A607786AE6900709F0A37401021AA79085
:1017F4000709E064036003021AAB786AE6640160D7
:1018040003021AAB127283C202786676049007064A
:101814007482F0A3740DF0A37401F0A37403F002B6
:101824001AAB900707E0640E6003021AABA3E064EE
:10183400016003021AABA3E064016003021AAB78EF
:101844006AE6640260030219D8127283127283E496
:10185400FF128E3F7B017A0579869001911225B69D
:10186400000001007F007E007D007C0012900E7B52
:10187400007A0079429001911225B6000000047F9D
:10188400FC7EEF7D077C0012900E7842122502EF59
:10189400546FFFEC7842122585784212250274FFBA
:1018A400FEFDFC7842122585784212250EC0007890
:1018B400421225027810122485122454D000EBFF22
:1018C400EAFEE95DFDE85CFC784212258578421267
:1018D400250290059A12259190018E1225B60000DA
:1018E40001009001921225B6000001007F007E00E5
:1018F4007D007C00128BAB7B017A05798690019880
:101904001225B6000001007F007E007D007C0012DD
:101914005EAE7B017A05797A9001911225B60000BA
:1019240000047F147E007D007C0012900E90057AE6
:10193400E0FCA3E0FDA3E0FEA3E0FF784212250E45
:10194400C3122461600302185874FFFFFE12677DFE
:10195400128075129CC51281667FC87E00129E2F6C
:10196400127283E4FF128E3F7B007A007942900169
:10197400911225B6000000017FFC7EEF7D077C00FC
:1019840012900E7842122502EF5490FFE4FEFDFC03
:101994007B90FAF9F8C312246170067840760180CE
:1019A40004E47840F67F3C128E3F1281667840E66C
:1019B4007866600E76049007067482F0A3740E02B3
:1019C4001A8C76049007067482F0A3740EF0A37444
:1019D40001021A7A786AE664036003021A7F1272BB
:1019E40083E4FF128E3F90018E1225B600000100A1
:1019F4009001921225B60007F0007F007EEF7D076C
:101A04007C00128BAB7B017A05797A9001911225C7
:101A1400B60000000C7FF47EEF7D077C0012975C1B
:101A2400E47840F608F67841E6FFC3940C74809499
:101A3400805018747A2FF582E43405F583E0F4605D
:101A440005187601800578410680DB7F03128E3FFE
:101A54001281667840E67866600D76049007067415
:101A640082F0A3740E802176049007067482F0A39A
:101A7400740EF0A37401F0A3F0802C7866760490C1
:101A840007067482F0A3740EF0A37401F0A304F0AB
:101A94008015786676049007067482F0A37404F0C7
:101AA400A37401F0E4A3F07866E6FF7E0078407C3E
:101AB400017D017B017A0779061222BA301014786D
:101AC4006676049001407481F0A37455F0A3740108
:101AD400F0A3F07866E6F5D353D2FCE47864F653C9
:021AE400D2F33B
:011AE60022DD
:100046007865E664027016900201E07841F6FF904A
:100056000200E0A3F0900200EFF002010CE4784009
:10006600F67840E6FF75F004A42400F582E5F03446
:1000760002F583E0FE08F675F004EFA42403F5828A
:10008600E5F03402F583E0FF18E6FD75F004A424DC
:1000960000F582E5F03402F583EFF075F004EDA487
:1000A6002403F582E5F03402F583EEF075F004EDF5
:1000B600A42401F582E5F03402F583E0FF08F67525
:1000C600F004EDA42402F582E5F03402F583E0FEA7
:1000D60075F004EDA42401F582E5F03402F583EE13
:1000E600F075F004EDA42402F582E5F03402F58300
:1000F600EFF018067865E61313543FFF7840E6C321
:100106009F5003020067200603020A58200F0302CD
:100116000F0CC20F200403020328786AE66401600C
:10012600030201D92005030201B0FE7F407DFF7B5B
:10013600017A0679C61227B77865E6FF7E0078C68B
:100146007C067D017B017A0279001222BAC2051271
:1001560080757841A607786D1225027B017A0679AB
:1001660086121AE77841EFF67868760490070674E7
:1001760041F0A37401F0A3F0EF6006A37401F080D0
:10018600069007097402F07868E6FF7E0078407CE6
:10019600027D017B017A0779061222BAC204786DC4
:1001A60012259D000000000203217E007F407DFF96
:1001B6007B017A0679861227B77865E6FF7E007896
:1001C600867C067D017B017A0279001222BAD2056D
:1001D600020328786AE6FF64026008EF640360039E
:1001E600020328786CE6704008122502E4FFEC78DA
:1001F6006D122585786AE6640270028007786AE6E1
:10020600640370187B017A0579869001911225B6F0
:1002160000000100786D12250212900E7865E6FF47
:100226007E0078867C058024786CE66401700C7804
:1002360065E6FF7E0078C67C058011786CE6640270
:10024600701B7865E6FF7E0078067C067D017B01E3
:100256007A0279001222BA786C06020328786CE6D4
:10026600640360030203287865E6FF7E0078467C17
:10027600067D017B017A0279001222BA786AE66469
:100286000270028007786AE66403704A90018E1253
:1002960025B600000100786D122502E42FFFEE342A
:1002A60001FEE43DFDE43CFC900192122591786D3F
:1002B600122502128BAB7841A6077B017A05798657
:1002C6009001981225B600000100786D12250212E1
:1002D6005EAE7841A607786876049007067441F00A
:1002E600A37401F0A3F07841E66006A37401F080E0
:1002F600069007097402F07868E6FF7E0078407C75
:10030600027D017B017A0779061222BAC204786D52
:1003160012259D00000000E4786CF67868E6FF126E
:100326009EF7200703020F0C786AE6640160030259
:1003360006627F40FEFDFC787112250ED312246101
:1003460040030204DA786D12250278421225857878
:100356006D122502C004C005C006C007786D1225BF
:1003660002E42FFFEF547FFBD007D006D005D00460
:10037600C3EF9BFFEE9400FEED9400FDEC9400FCB1
:10038600786D1225851280757841A607900199121D
:1003960025B60000002090019D7401F0A37406F0BC
:1003A600A37486F0786D1225021261C97841A607FA
:1003B600786D12250EC0007842122502D000C3EFD8
:1003C6009BFFEE9AFEED99FDEC98FC900711122525
:1003D600917865E66402706D900711A3A3A3E054BB
:1003E60003FFE4FEFDFCFBFAF9F8C3122461900258
:1003F60000602AE0FB900711A3A3E0FEA3E0FF2420
:1004060084F58274063EF583EBF0900201E0FD74FC
:10041600852FF58274063EF583EDF0805AE0FB9059
:100426000711A3A3A3E0FF2488F582E43406F5832D
:10043600EBF0900201E0FE74892FF582E43406F5B4
:1004460083EEF08032E47840F67940E7C37865962B
:1004560050257840E6FB2400F582E43402F583E07B
:10046600FA900711A3A3A3E02B2486F582E43406B1
:10047600F583EAF00680D2786D1225027B017A06B2
:100486007986121AE77841EFF678687604900706BF
:100496007441F0A37401F0A3F0EF6006A37401F0B9
:1004A60080069007097402F07868E6FF7E007840BF
:1004B6007C027D017B017A0779061222BAC207788F
:1004C6006D12259D00000000784212259D00000057
:1004D60000020B7A200503020632E47840F67840E3
:1004E600E6FFC3786596501D74002FF582E434024A
:1004F600F583E0FE74C62FF582E43405F583EEF04D
:1005060078400680D9786D122502784212258578C2
:100516006D122502C004C005C006C007786D1225FD
:1005260002E42FFFEF547FFBD007D006D005D0049E
:10053600C3EF9BFFEE9400FEED9400FDEC9400FCEF
:10054600786D1225851280757841A607900199125B
:1005560025B60000002090019D7401F0A37406F0FA
:10056600A37486F0786D1225021261C97841A60738
:10057600786D12250EC0007842122502D000C3EF16
:100586009BFFEE9AFEED99FDEC98FC900711122563
:1005960091E47840F67840E6FFE4FCFDFE787112BF
:1005A600250ED312246140257840E6FB2486F58289
:1005B600E43405F583E0FA900711A3A3A3E02B2406
:1005C60086F582E43406F583EAF00680C8786D1273
:1005D60025027B017A067986121AE77841EFF678CA
:1005E6006876049007067441F0A37401F0A3F0EF57
:1005F6006006A37401F080069007097402F078681B
:10060600E6FF7E0078407C027D017B017A07790651
:100616001222BAC207786D12259D000000007842AA
:1006260012259D00000000C205020B7AE47840F610
:100636007840E6FFC3786596501D74002FF582E476
:100646003402F583E0FE74862FF582E43405F583E3
:10065600EEF078400680D9D205020F0C786AE6FFE4
:1006660064026008EF64036003020F0CE47F40FE3F
:10067600FDFC787112250ED312246140030208A8EE
:100686003005030207FF786AE664026003020791F9
:10069600786D1225027842122585786D122502E4BE
:1006A600FFEC786D1225857B017A0579869001919C
:1006B6001225B600000100786D12250212900E7800
:1006C6006D12250EC0007842122502D000C3EF9BA2
:1006D600FFEE9AFEED99FDEC98FC9007111225911C
:1006E6007865E66402706F900711A3A3A3E0540334
:1006F600FFE4FEFDFCFBFAF9F8C312246190020048
:10070600602BE0FB900711A3A3E0FEA3E0FF248487
:10071600F58274053EF583EBF0900201E0FD7485E9
:100726002FF58274053EF583EDF00207FFE0FB909E
:100736000711A3A3A3E0FF2488F582E43405F5831B
:10074600EBF0900201E0FE74892FF582E43405F5A2
:1007560083EEF00207FFE47840F67940E7C3786558
:100766009640030207FF7840E6FB2400F582E43456
:1007760002F583E0FA900711A3A3A3E02B2486F5E4
:1007860082E43405F583EAF00680CF786AE66403EE
:100796007067786D1225027842122585786D1225CC
:1007A60002E4FFEC786D1225857B017A0579869047
:1007B60001911225B600000100786D1225021290F3
:1007C6000E7865E6FF7E00C006C007786D1225022A
:1007D600AB07AA067842122502C3EF9BFFEE9AFEEC
:1007E60074862FF974053EA801FC7D017B017A020F
:1007F6007900D007D0061222BA786AE6640270023F
:100806008007786AE66403704A90018E1225B60066
:10081600000100786D122502E42FFFEE3401FEE49C
:100826003DFDE43CFC900192122591786D12250263
:10083600128BAB7841A6077B017A057986900198E1
:100846001225B600000100786D122502125EAE7800
:1008560041A607786876049007067441F0A37401F0
:10086600F0A3F07841E66006A37401F080069007D5
:10087600097402F07868E6FF7E0078407C027D010C
:100886007B017A0779061222BAC207786D12259D76
:1008960000000000784212259D00000000C20502FB
:1008A6000F05300503020A23D205786AE664026062
:1008B600030209B5786D1225027842122585786DF6
:1008C600122502E4FFEC786D1225857B017A057905
:1008D600869001911225B600000100786D1225025E
:1008E60012900E786D12250EC0007842122502D0A5
:1008F60000C3EF9BFFEE9AFEED99FDEC98FC900786
:10090600111225917865E66402706F900711A3A312
:10091600A3E05403FFE4FEFDFCFBFAF9F8C312243E
:1009260061900200602BE0FB900711A3A3E0FEA3F9
:10093600E0FF2484F58274053EF583EBF090020116
:10094600E0FD74852FF58274053EF583EDF0020A0D
:1009560023E0FB900711A3A3A3E0FF2488F582E41C
:100966003405F583EBF0900201E0FE74892FF582E1
:10097600E43405F583EEF0020A23E47840F6794084
:10098600E7C37865964003020A237840E6FB240015
:10099600F582E43402F583E0FA900711A3A3A3E0FD
:1009A6002B2486F582E43405F583EAF00680CF78B9
:1009B6006AE664037067786D12250278421225850F
:1009C600786D122502E4FFEC786D1225857B017A9D
:1009D6000579869001911225B600000100786D1206
:1009E600250212900E7865E6FF7E00C006C00778E5
:1009F6006D122502AB07AA067842122502C3EF9BA9
:100A0600FFEE9AFE74862FF974053EA801FC7D015F
:100A16007B017A027900D007D0061222BA784212F8
:100A26002502EF2440FFE43EFEE43DFDE43CFC7875
:100A3600421225857871122502C3EF9440FFEE9489
:100A460000FEED9400FDEC9400FC78711225850201
:100A56000F0C200F03020F0CC20F200103020D57CB
:100A6600E47F80FEFDFC787112250EC312246150CE
:100A760003020B97200503020B7D7871122502C332
:100A8600EF9480FFEE9400FEED9400FDEC9400FCE4
:100A96007871122585C2057865E6FF7E0078C67CEA
:100AA600067D017B017A0279001222BA786D300345
:100AB6000E1225027B017A067986128336800C1285
:100AC60025027B017A067986121AE77841A607780D
:100AD6006D122502EF2480FFE43EFEE43DFDE43C7A
:100AE600FC786D122585786876049007067441F0C7
:100AF600A37401F0A3F07841E6601DA37403F078B7
:100B060068E6FF7E0078407C027D017B017A0779EA
:100B1600061222BAC201802FE4FFFEFDFC78711294
:100B2600250EC312246170269007097404F07868B4
:100B3600E6FF7E0078407C027D017B017A0779061C
:100B46001222BAC201C202C20812816680267868E1
:100B560076049007067441F0A37401F0A3F0A30491
:100B6600F0E6FF7E0078407C027D017B017A077902
:100B7600061222BA020F05D2057865E6FF7E0078D6
:100B8600867C067D017B017A0279001222BA020F69
:100B96000CE47F40FEFDFC787112250EC312246121
:100BA6005003020C7F7865E6FF7E0078867C067D22
:100BB600017B017A0279001222BAE47F40FEFDFC35
:100BC600787112250EC31224616003020C5F786DE2
:100BD60030030E1225027B017A067986128336804F
:100BE6000C1225027B017A067986121AE77841A64D
:100BF60007786D12259D00000000C205786876040E
:100C06009007067441F0A37401F0A3F07841E66002
:100C16001DA37403F07868E6FF7E0078407C027DB1
:100C2600017B017A0779061222BAC201801F90075A
:100C3600097404F07868E6FF7E0078407C027D0146
:100C46007B017A0779061222BAC201C202C20812D1
:100C560081667868E6FF129EF77871122502C3EF67
:100C66009440FFEE9400FEED9400FDEC9400FC78B9
:100C760071122585D205020F0C787112259D000090
:100C860000007E003005197F407DFF7B017A0679E2
:100C9600C61227B77865E6FF7E0078C67C06801701
:100CA6007F807DFF7B017A0679861227B77865E615
:100CB600FF7E0078867C067D017B017A0279001230
:100CC60022BA786D30030E1225027B017A067986E8
:100CD600128336800C1225027B017A067986121A57
:100CE600E77841A607786D12259D00000000C20531
:100CF6007841E67868602976049007067441F0A387
:100D06007401F0A3F0A37403F0E6FF7E0078407C44
:100D1600027D017B017A0779061222BAC201802977
:100D260076049007067441F0A37401F0A3F0A3744F
:100D360004F0E6FF7E0078407C027D017B017A07A5
:100D460079061222BAC201C202C208128166020FD5
:100D560005200003020F0CE47F40FEFDFC787112B3
:100D6600250EC31224615003020E67786D12250208
:100D76007B017A0279001233C47841A607786D1296
:100D86002502EF2440FFE43EFEE43DFDE43CFC7812
:100D96006D122585E47F40FEFDFC787112250EC399
:100DA600122461703C7841E66003020F057868768C
:100DB600049007067441F0A37401F0A3F0A374072E
:100DC600F0E6FF7E0078407C027D017B017A0779A0
:100DD600061222BA787112259D00000000786D80F7
:100DE600497871122502C3EF9440FFEE9400FEEDA0
:100DF6009400FDEC9400FC78711225857841E67824
:100E060068603676049007067441F0A37401F0A377
:100E1600F0A37405F0E6FF7E0078407C027D017B3E
:100E2600017A0779061222BA787112259D00000010
:100E360000C200128166020F05760490070674410F
:100E4600F0A37401F0A3F0A37406F0E6FF7E007829
:100E5600407C027D017B017A0779061222BA020FD5
:100E660005787112259D000000007E007F407DFF01
:100E76007B017A0579861227B77865E6FF7E0078CA
:100E8600867C057D017B017A0279001222BA780000
:100E96007C027D017B017A0579867E007F401222E5
:100EA600BA786D1225027B017A0279001233C47872
:100EB60041EFF6FB786D12259D00000000786876FC
:100EC600049007067441F0A37401F0A3F0EB6006EA
:100ED600A37405F080089007097407F07868E6FFA8
:100EE6007E0078407C027D017B017A07790612221A
:100EF600BA787112259D00000000C2001281667842
:0D0F060068E6FF129EF7E47865F653D4F319
:010F130022BB
:104EF400E490018AF01272837B017A01798A7F84BB
:104F04007EF87DFF7C1F12511D78101224729001CF
:104F14008B122591E4FF7E25FDFC90018BE0F8A324
:104F2400E0F9A3E0FAA3E0FBC3122461602AE4FFE2
:104F34007E15FDFC90018BE0F8A3A3A3E0C312242B
:104F4400616015E4FF7E35FDFC90018BE0F8A3A3BE
:104F5400A3E0C312246170767B017A01798A7FE829
:104F64007EF77DFF7C1F12511D90018B1225917BD2
:104F7400017A01798A7FA07EF87DFF7C1F12511D82
:104F840090018F12259190018FE0FCA3E0FDA3E036
:104F9400FEA3E0FF90018BE0F8A3E0F9A3E0FAA3FD
:104FA400E0FBC312246170267B017A01798A7F8039
:104FB4007EF87DFF7C1F12511D7B347AFE79787850
:104FC400DCC31224617007786A76010251037B0105
:104FD4007A01798A7F027E107D007C40125835E484
:104FE400FCFDFE90018B1225917B017A01798A7F69
:104FF400017E107D007C40125835E4FCFDFE9001DA
:105004008F122591E47F02FEFDFC90018BE0F8A352
:10501400E0F9A3E0FAA3E0FBC3122461705F7F64AC
:10502400FEFDFC90018FE0F8A3E0F9A3E0FAA3E011
:10503400FBC3122461603FE47F65FEFDFC90018F99
:10504400E0F8A3A3A3E0C3122461602AE47F69FE0D
:10505400FDFC90018FE0F8A3A3A3E0C312246160D8
:1050640015E47F71FEFDFC90018FE0F8A3A3A3E09B
:10507400C31224617007786A76030251037B017AB4
:1050840001798A7F427E107D007C40125835E4FC11
:10509400FDFE90018B1225917B017A01798A7F4173
:1050A4007E107D007C40125835E4FCFDFE90018F9B
:1050B400122591E47F04FEFDFC90018BE0F8A3E04F
:1050C400F9A3E0FAA3E0FBC312246170387F73FEF6
:1050D400FDFC90018FE0F8A3E0F9A3E0FAA3E0FB64
:1050E400C31224616015E47F71FEFDFC90018FE022
:1050F400F8A3A3A3E0C3122461700A786A760212AB
:0A51040081667F00221281667F01A0
:01510E00227E
:1046B6004704800000000000000047052B000000B2
:1046C60000000000C110018600580487FFC5F613DC
:1046D60000B61563C2C4420442C4A0190591C204BF
:1046E6009002C28C5C04AFFFE5F61300B6166300B9
:1046F600061483A021C2C4102342C40589009690E3
:1047060002C28C602004DF400014374511C8440102
:10471600A406830806F713E693FF650D2301061525
:104726007D00D49002F5755C053E40001437068383
:104736004511F71301A4FF65080601840703F9650F
:10474600157D90024848602004FF8094202306834C
:104756004511F7138064FF6508060106E69380D4C9
:104766000323F575157D000090026020055A400070
:10477600243706834511F7138064FF6508068044D5
:104786000703F965157D80042503000090024C059A
:10479600320046848300958023001000734C051F69
:1047A60000058483009682230010007350049F0046
:1047B600A6802300B6802300C68223001000735013
:1047C60004CB00A6802300B68023FEC686230010F5
:0247D60000736E
:1093BB005392EF439310D2945392FD439302D29165
:0493CB00D291D294D5
:1093CF00E490018AF090018AE0C3946474809480E1
:1093DF0050190000000000000000D29400000000AF
:0B93EF0000000000C294E004F080DAEF
:1093FA000000000000000000C29100000000000010
:10940A000000D2940000000000000000D291000089
:10941A000000000000005392FD5393FD4392104355
:03942A009310227A
:10380800E625E025E0249FF582E43404F583E0FC16
:10381800A3E0FDA3E0FEA3E0FF7818122472EF9066
:103828000483F07402900485F07D017B0178C67CE6
:0C383800017A0479807E007F071222BA1A
:103844005392FD4393025392EF439310D294D29137
:103854000000000000000000C29100000000000011
:103864000000C29400000000000000009001CAE0C3
:1038740025E0F0E4785CF6785C069001CAE0FF305D
:10388400E704D2918002C29100000000000000D23F
:103894009400000000000000EF25E09001CAF0C28F
:1038A40094785CE6C394077480948040CAE4F67804
:1038B4005C069001C9E0FF30E704D2918002C29116
:1038C40000000000000000D294000000000000008E
:1038D400EF25E09001C9F0C294785CE6C3940874C3
:1038E40080948040CAE4F6785C069001C8E0FF301A
:1038F400E704D2918002C29100000000000000D2CF
:103904009400000000000000EF25E09001C8F0C220
:1039140094785CE6C394087480948040CAE4F67892
:103924005C069001C7E0FF30E704D2918002C291A7
:1039340000000000000000D294000000000000001D
:10394400EF25E09001C7F0C294785CE6C394087454
:1039540080948040CAE4F6785C069001C6E0FF30AB
:10396400E704D2918002C29100000000000000D25E
:103974009400000000000000EF25E09001C6F0C2B2
:1039840094785CE6C394087480948040CA9001CB18
:10399400E0C4333354C0F030E704D2918002C291C2
:1039A40000000000D29400000000000000000000AD
:1039B40000000000000000009001CBE025E0F0C210
:1039C4009430E704D2918002C2910000000000000C
:1039D400000000000000000000000000D29400007D
:1039E40000000000000000000000000000000000D3
:1039F4009001CBE025E0F0C294000000000000003C
:103A040000000000000000000000000000000000B2
:103A1400000000005392FD5393FDD2940000000077
:103A2400000000000000000000A291E433785BF67F
:103A340030E006900531E004F0C29400000000007C
:103A44000000000000000000E4785CF6785C0600EA
:103A5400000000000000D29400000000000000906C
:103A6400052FE025E0F0A291E43318F630E003E0FE
:103A740004F0C294785CE6C394077480948040CCCC
:103A8400E4F6785C0600000000000000D294000018
:103A9400000000000090052EE025E0F0A291E43340
:103AA40018F630E003E004F0C294785CE6C39408AE
:103AB4007480948040CCE4F6785C0600000000003A
:103AC4000000D2940000000000000090052DE025C5
:103AD400E0F0A291E43318F630E003E004F0C2947D
:103AE400785CE6C394087480948040CCE4F6785CF7
:103AF4000600000000000000D29400000000000056
:103B04000090052CE025E0F0A291E43318F630E0B3
:103B140003E004F0C294785CE6C394087480948053
:103B240040CCE4F6785C0600000000000000D2946B
:103B34000000000000000090052BE025E0F0A291B9
:103B4400E43318F630E003E004F0C294785CE6C392
:103B540094087480948040CC0000000000000000B1
:103B6400000000000000D2940000000000000000EB
:103B7400000000000000900530E025E0F0A291E490
:103B84003318F630E003E004F0C2940000000000B3
:103B9400000000000000000000D2940000000000BB
:103BA400000000000000000000900530E025E0F077
:103BB400A291E433785BF630E003E004F0C29400B1
:103BC40000005392FD439302000000000000000037
:103BD4000000000000000000000000D2940000007B
:103BE40000000000000000000000000000000000D1
:103BF4009001CCE06004D2918002C291C294000092
:103C0400000000000000C29100000000000000005D
:103C1400D2940000000000000000D29100000000D7
:103C2400000000004392104393105392FD5393FD00
:063C34007B017A05792BEB
:013C3A002267
:107283007E007F077D007B017A0479801227B7E4B3
:10729300900486F09004847410F09004807401F0DC
:1072A3007480123827782B7C057D017E007F0712BE
:1072B30022BA900530E0FF602964036005EF6401A2
:1072C3007020123831782B7C057D017E007F0712F8
:1072D30022BA900530E0FF6009640360E5EF6401C2
:1072E30080E0123831782B7C057D017E007F071208
:1072F30022BA900530E0FF602964036005EF640162
:107303007020123831782B7C057D017E007F0712B7
:1073130022BA900530E0FF6009640360E5EF640181
:1073230080E0E4900486F09004847411F0E4900407
:1073330080F0A3F0A3F0A3F090048504F0FDFB120A
:107343003835782B7C057D017E007F071222BA90A9
:107353000530E0FF602964036005EF6401702012CB
:107363003831782B7C057D017E007F071222BA908D
:107373000530E0FF6009640360E5EF640180E0909D
:0E738300052CE0540364037002FF227F0422F5
:108166007E007F077D007B017A0479801227B77E27
:10817600007F077D007B017A05792B1227B7E490F3
:108186000486F09004847410F09004807401F090DA
:108196000483744012382A782B7C057D017E007F8B
:1081A600071222BA900530E0FF602964036005EFEC
:1081B60064017020123831782B7C057D017E007FAA
:1081C600071222BA900530E0FF6009640360E5EF0C
:1081D600640180E0E4900486F09004847411F0E475
:1081E600900480F0A3F0A3F0A3F090048504F07847
:1081F600C67C01FDFB123839782B7C057D017E009B
:108206007F071222BA900530E0FF603064036005F4
:10821600EF64017027123831782B7C057D017E00D2
:108226007F071222BA900530E0FF7E007002800CB4
:10823600EF64034E60DFEF64014E80D990052DE0B8
:0B824600540364037002FF227F042237
:1085BA007E007F077D007B017A0479801227B7E469
:1085CA00900486F09004847410F09004807403F090
:1085DA001412382D782B7C057D017E007F0712222C
:1085EA00BA900530E0FF602964036005EF6401700A
:1085FA0020123831782B7C057D017E007F071222FC
:10860A00BA900530E0FF6009640360E5EF64018019
:10861A00E0E4900486F09004847411F0E4900480FD
:10862A00F0A3F0A3F0A3F090048504F078C67C01CF
:10863A00FDFB123839782B7C057D017E007F0712FD
:10864A0022BA900530E0FF602964036005EF6401F7
:10865A007020123831782B7C057D017E007F07124D
:10866A0022BA900530E0FF6009640360E5EF640117
:10867A0080E090052DE0540C640C7002FF227F0408
:01868A0022CD
:108415007E007F077D007B017A0479801227B7E40F
:10842500900486F09004847410F09004807401F038
:1084350090048504123830782B7C057D017E007F01
:10844500071222BA900530E0FF602964036005EF4A
:1084550064017020123831782B7C057D017E007F08
:10846500071222BA900530E0FF6009640360E5EF6A
:10847500640180E0E4900486F09004847411F0E4D3
:10848500900480F0A3F0A3F0A3F090048504F078A5
:10849500C67C01FDFB123839782B7C057D017E00F9
:1084A5007F071222BA900530E0FF6029640360055A
:1084B500EF64017020123831782B7C057D017E0038
:1084C5007F071222BA900530E0FF6009640360E57A
:1084D500EF640180E090052DE0540C700302816685
:0384E5007F0422EF
:10875B007E007F077D007B017A0479801227B7E4C6
:10876B00900486F09004847410F09004807402F0EE
:10877B0012382D782B7C057D017E007F071222BAE3
:10878B00900530E0FF602964036005EF6401702001
:10879B00123831782B7C057D017E007F071222BABF
:1087AB00900530E0FF6009640360E5EF640180E051
:1087BB00E4900486F09004847410F0E4900480F04C
:1087CB00A3F0A3F0A3F090048504F078C67C01FD20
:1087DB00FB123839782B7C057D017E007F07122236
:1087EB00BA900530E0FF602964036005EF64017007
:1087FB0020123831782B7C057D017E007F071222F9
:10880B00BA900530E0FF6009640360E5EF64018016
:0E881B00E090052BE054027002FF227F042241
:0E70630090019FEFF0A3EBF0A3EAF0A3E9F099
:107071007E007F077D007B017A0479801227B7E4C7
:10708100900486F09004847417F090019FE09004BE
:1070910080F0A37410F0A37422F0E4A312382A78CC
:1070A1002B7C057D017E007F071222BA900530E01E
:1070B100FF602964036005EF6401702012383178A4
:1070C1002B7C057D017E007F071222BA900530E0FE
:1070D100FF6009640360E5EF640180E0E4900486E9
:1070E100F09004847404F0E4900480F0A3F0A3F021
:1070F100A3F090048504F078C67C01FDFB123839B9
:10710100782B7C057D017E007F071222BA90053025
:10711100E0FF603064036005EF64017027123831CD
:10712100782B7C057D017E007F071222BA90053005
:10713100E0FF7E007002800CEF64034E60DFEF64BD
:10714100014E80D990052EE0784FF690052DE0088C
:10715100F690052CE008F690052BE008F6784F1222
:1071610025029001A0E0FBA3E0FAA3E0F91224E8D4
:027171007F009D
:0171730022F9
:0E749D00E0FFE4FCFDFE9001C21225917F0C81
:1074AB009001C1EFF07E007F077D007B017A0479AC
:1074BB00801227B7E4900486F09004847404F09053
:1074CB0001C2A3A3A3E0900480F09001C2E0FCA34F
:1074DB00E0FDA3E0FEA3E0FF780812247290048184
:1074EB00EFF09001C2E0FCA3E0FDA3E0FEA3E0FF00
:1074FB007810122472900482EFF09001C2123816A9
:10750B00782B7C057D017E007F071222BA90053017
:10751B00E0FF602964036005EF64017020123831CD
:10752B00782B7C057D017E007F071222BA900530F7
:10753B00E0FF6009640360E5EF640180E0E4900420
:10754B0086F09004847417F09001C1E0900480F0F1
:10755B00A37410F0A37423F0E4A312382A782B7CC5
:10756B00057D017E007F071222BA900530E0FF6097
:10757B002964036005EF64017020123831782B7C8D
:10758B00057D017E007F071222BA900530E0FF6077
:0D759B0009640360E5EF640180E07F0022D9
:1079C2009001EEEFF07E007F077D007B017A047963
:1079D200801227B7E4900486F09004847404F09037
:1079E20001EFA3A3A3E0900480F09001EFE0FCA3D9
:1079F200E0FDA3E0FEA3E0FF780812247290048168
:107A0200EFF09001EFE0FCA3E0FDA3E0FEA3E0FFB6
:107A12007810122472900482EFF09001EF1238165F
:107A2200782B7C057D017E007F071222BA900530FB
:107A3200E0FF602964036005EF64017020123831B1
:107A4200782B7C057D017E007F071222BA900530DB
:107A5200E0FF6009640360E5EF640180E0E4900404
:107A620086F09004847417F09001EEE0900480F0A8
:107A7200A37410F0A37427F0E4A312382A782B7CA5
:107A8200057D017E007F071222BA900530E0FF607B
:107A92002964036005EF64017020123831782B7C71
:107AA200057D017E007F071222BA900530E0FF605B
:0D7AB20009640360E5EF640180E07F0022BD
:107CAF00900280EFF0A3ECF0A3EDF07E007F077D54
:107CBF00007B017A0479801227B7E4900486F09054
:107CCF0004847404F0900281E0FEA3E0900480F03D
:107CDF00EEA3F0900281FCA3E0FD7810CEC313CE8B
:107CEF0013D8F9900482F0AE04ED7818CEC313CEFA
:107CFF0013D8F9123827782B7C057D017E007F077A
:107D0F001222BA900530E0FF602964036005EF642A
:107D1F00017020123831782B7C057D017E007F07A2
:107D2F001222BA900530E0FF6009640360E5EF644A
:107D3F000180E0E4900486F09004847417F09002C0
:107D4F0080E0900480F0A37410F0A37417F0E4A304
:107D5F0012382A782B7C057D017E007F071222BA0C
:107D6F00900530E0FF602964036005EF6401702027
:107D7F00123831782B7C057D017E007F071222BAE5
:107D8F00900530E0FF6009640360E5EF640180E077
:037D9F007F002240
:107174009001F3EEF0A3EFF0A3EBF0A3EAF0A3E9A0
:01718400F01A
:107185007E007F077D007B017A0479801227B7E4B2
:10719500900486F09004847417F09001F3E0FEA348
:1071A500E0900480F0EEA3F0A37422F0E4A312387B
:1071B5002A782B7C057D017E007F071222BA900577
:1071C50030E0FF602964036005EF64017020123828
:1071D50031782B7C057D017E007F071222BA900550
:1071E50030E0FF6009640360E5EF640180E0E4904E
:1071F5000486F09004847404F0E4900480F0A3F015
:10720500A3F0A3F090048504F078C67C01FDFB1281
:107215003839782B7C057D017E007F071222BA90D4
:107225000530E0FF602964036005EF6401702012FA
:107235003831782B7C057D017E007F071222BA90BC
:107245000530E0FF6009640360E5EF640180E090CC
:10725500052EE07875F690052DE008F690052CE0F2
:1072650008F690052BE008F678751225029001F5D1
:0D727500E0FBA3E0FAA3E0F91224E87F009B
:0172820022E9
:1078C0009001DCEEF0A3EFF07E007F077D007B01EE
:1078D0007A0479801227B7E4900486F090048474C7
:1078E00004F09001DEA3A3A3E0900480F09001DEF9
:1078F000E0FCA3E0FDA3E0FEA3E0FF780812247201
:10790000900481EFF09001DEE0FCA3E0FDA3E0FE37
:10791000A3E0FF7810122472900482EFF09001DE51
:10792000123816782B7C057D017E007F071222BA63
:10793000900530E0FF602964036005EF640170206A
:10794000123831782B7C057D017E007F071222BA28
:10795000900530E0FF6009640360E5EF640180E0BA
:10796000E4900486F09004847417F09001DCE0FE4B
:10797000A3E0900480F0EEA3F0A37423F0E4A3123C
:10798000382A782B7C057D017E007F071222BA9071
:107990000530E0FF602964036005EF640170201288
:1079A0003831782B7C057D017E007F071222BA904A
:1079B0000530E0FF6009640360E5EF640180E07F6B
:0279C0000022A3
:109C60009001BD1225B6456701237F04125D3A7845
:109C700087EFF66003E6FF229001BD1225B6CDEF17
:109C800089AB7F04125D3A7887EFF66003E6FF2226
:029C90007F0053
:019C920022AF
:10949D00786AE6640170609001BD1225B6456701DA
:1094AD00237F04125D3A7848EFF66003E6FF2290C1
:1094BD0001BD1225B6CDEF89AB7F04125D3A784818
:1094CD00EFF66003E6FF229001BD1225B645670158
:1094DD00237F24125D3A7848EFF66003E6FF229071
:1094ED0001BD1225B6CDEF89AB7F24125D3A7848C8
:0994FD00EFF66003E6FF227F0098
:019506002242
:109ADB00786AE664017032FB7A0079887F10125144
:109AEB00179004DB1225917888E6FF600122900421
:109AFB00DBE0FCA3E0FDA3E0FEA3E04480125D30BD
:0B9B0B007888A607E6FF6001227F00BB
:019B1600222C
:1090A2009004DB1225B6000000009001BD1225B627
:1090B20000010000125D387847EFF66003E6FF22F8
:1090C2009004DB1225B6000100009001BD1225B606
:1090D20000090000125D387847EFF66003E6FF22D0
:1090E2009004DB1225B6000000209004DBE0FCA314
:1090F200E0FDA3E0FEA3E04420FFEC9001BD1225B9
:10910200917F0C125D3A7847EFF66003E6FF2290FA
:1091120004DB1225B6000100009001BD1225B60045
:10912200000000125D387847EFF66003E6FF227F09
:01913200003C
:019133002219
:107391001224B89001A1122591900711E0FCA3E0FD
:0773A100FDA3E0FEA3E0FFE5
:0673A800900191122591F5
:1073AE009004DB1225B6000000009001BD1225B638
:1073BE0000010000125D387847EFF66003E6FF2209
:1073CE00900195E0FCA3E0FDA3E0FEA3E0FF900199
:1073DE00A9122591900199E0FCA3E0FDA3E0FEA384
:1073EE00E0FF9001AD12259190019DE0FCA3E0FD20
:1073FE00A3E0FEA3E0FF9001B11225919001A1E060
:10740E00FCA3E0FDA3E0FEA3E0FF9001B5122591E1
:10741E00900191E0FCA3E0FDA3E0FEA3E0FF12606B
:10742E003A7847EFF66003E6FF229004DB1225B6AA
:10743E00000100009001BD1225B600050000125D8E
:10744E00387847EFF66003E6FF229004DB1225B68C
:10745E00000000209001BD1225B6000000207F0C18
:10746E00125D3A7847EFF66003E6FF229004DB12D6
:10747E0025B6000100009001BD1225B600000000E7
:0E748E00125D387847EFF66003E6FF227F00BC
:01749C0022CD
:107ABF00786AE664016003027B8612949D7B007AEC
:107ACF000079467F101251179004DB1225917846EA
:107ADF00E6FF6001229004DBE0FCA3E0FDA3E0FEE3
:107AEF00A3E04404125D307846A607E6FF6001224A
:107AFF007B007A0079467F101251179004DB122514
:107B0F00917846E6FF600122125D217846A607E6CE
:107B1F00FF6001227B007A0079467F0C125117908B
:107B2F0004DB1225917846E6FF6001229004DBA367
:107B3F00A3A3E05401FFE4FEFDFCFBFAF9F8C31226
:107B4F00246170D07B007A0079467F101251179014
:107B5F0004DB1225917846E6FF6001229004DBE0FA
:107B6F00FCA3E0FDA3E0FEA3E054FB125D307846DA
:107B7F00A607E6FF603422786AE664027002800787
:107B8F00786AE664037023FF128E3F9001951225E9
:107B9F00B6000780009001991225B6000780007F7C
:0C7BAF00007E007D007C00123C497F003D
:017BBB0022A7
:068251009001F8122591D6
:108257007B007A0079897F101251179004DB122571
:10826700917889E6FF6001229004DBE0FCA3E0FD42
:10827700A3E0FEA3E04402125D307889A607E6FF7B
:108287006001229001F8E0FCA3E0FDA3E0FEA3E07B
:10829700FF9001BD1225917F14125D3A7889A607D8
:1082A700E6FF6001227B007A0079897F101251175F
:1082B7009004DB1225917889E6FF600122125D2187
:1082C7007889A607E6FF6001227B007A0079897F1B
:1082D7000C1251179004DB1225917889E6FF600193
:1082E700229004DBA3A3A3E05401FFE4FEFDFCFB03
:1082F700FAF9F8C312246170D07B007A0079897F7C
:10830700101251179004DB1225917889E6FF60015E
:10831700229004DBE0FCA3E0FDA3E0FEA3E054FD14
:0E832700125D307889A607E6FF6001227F0014
