:100000006F20E04113000000130000001300000007
:100010001300000013000000130000001300000094
:100020001300000013000000130000001300000084
:08003000130000007300100032
:100038006FF09FFC000000006F20803D6F20803D26
:1000480000000000000000000000000000000000A8
:100058000000000000000000000000000000000098
:100068006FF09FF9000000006FF01FF9000000001A
:100078006FF09FF86FF05FF86FF01FF86FF0DFF721
:100088006FF09FF76FF05FF76F00A0396F00803A4D
:100098006F00E03A6F00803D6F00E03B6FF0DFF5E6
:1000A8006FF09FF56FF05FF56F00C01E6FF0DFF423
:1000B8006FF09FF46FF05FF46FF01FF40000000022
:1000C8000000000000000000000000006F00A041D8
:1000D8006FF09FF26F10D0606FF01FF26FF0DFF1DA
:1000E8006FF09FF16FF05FF16FF01FF16FF0DFF0CD
:1000F8006FF09FF06FF05FF06FF01FF06FF0DFEFC1
:100108006FF09FEF6F20401F6F10F06D6F20C022BF
:100118006F00C03E6FF05FEE6FF01FEE6FF0DFED27
:1001280000000000000000000000000000000000C7
:080138000000000000000000BF
:10014000397122DC85452A84714506DE26DAEF20E6
:10015000901B854513050020EF20F01A3165EF2034
:10016000700EBD4702CA63E9870285474167B397AE
:100170008700130707C07D8F55EF13F707304DE356
:1001800093F7F70F91CB37150140231681006C00D0
:1001900013050580EF204068B72401401385044013
:1001A000EF20A048B7070E003ED22C0885471385E4
:1001B00004402306F10202CC02CE02D002D4EF208A
:1001C000204985460546A28513850440EF208050CE
:1001D000B9476315F4000545EF20405B3724014023
:1001E000854513050440EF20A04B13050440EF2084
:1001F000204C930404402685EF20204C6DFD130510
:10020000044037240140EF20C04B130404402285F2
:10021000EF20C04B6DFDF2506254D25421618280B8
:10022000930784FF371501402316F1006C00130576
:1002300005C08DB7930764FF2316F1006C003715D6
:10024000014089BF411122C437240140AA8581465B
:1002500005461305044006C6EF20C04783278440A7
:1002600037075000D98F2324F440372701408327D4
:100270000740898BEDDF0325C744B2402244420585
:100280004181410182800547238CE180B70602400D
:10029000FC4241677917F98FFCC282800965EF2023
:1002A000E05085476316F5000965EF202052E13FD5
:1002B0007300203089476301F50463E7A700854791
:1002C0006303F502014582808D476300F504914781
:1002D000E31AF5FEB717004003D547822392078241
:1002E000420541858280B737014003D547C223923A
:1002F00007C2420541858280B707004003D5470207
:1003000023920702420541858280B707004003D54A
:1003100047422392074242054185828039718545D3
:10032000054506DE22DC26DA4AD84ED652D456D20D
:10033000EF20607D85453145EF20E07CB71401401A
:1003400093070004914A0D4A4C08138504C0231AF0
:10035000F10056CE52CCEF20204C930700084C08F9
:10036000138504C0231AF100EF20004B8545114589
:10037000EF20407B2800EF20302D371900404164EA
:1003800085497D142C00130509804EC422C623081C
:100390000100EF20E07C8146014613050980894574
:1003A000EF209030130509808545EF20702B37052D
:1003B0001800854513050530EF2080548545054517
:1003C000EF204076E1774C0813850480231AF10072
:1003D00056CE52CCEF204044A1474C08138504C0B0
:1003E000231AF100EF2040432800EF20F0252C00D5
:1003F000370500404EC422C623080100EF20407696
:1004000081460146894537050040EF20F0298545A2
:1004100037050040EF20D024F2506254D2544259A4
:10042000B259225A925A216182800545EF20403C00
:1004300001C50545EF20A03D730020300945EF20A0
:10044000803A730020301145EF20803A19C51145DC
:10045000EF20E03B89450545B1247300203041453C
:10046000EF206038A38C0180238D0180238C0180D4
:10047000730020302145EF20003783C591813E86EF
:1004800013F7150039E783C7A18113035006B70896
:100490000020338367028146B71E014093884810CD
:1004A000130E500603A88E00338566004695135838
:1004B0008800230005018506E396C6FF8507A38D06
:1004C000D18093F7F70F9306C00363ECF600238DFA
:1004D000F1808505A38CB18005458945E122730033
:1004E0002030238DD1800547238CE180DDB71305B3
:1004F0000002EF20E02F09C513050002EF20203194
:10050000730020300565EF20A02E19C50565EF208A
:10051000003089450545792273002030797126D253
:100520009354450022D44AD04ECE52CC06D693F7EF
:10053000F40F2A842E89B289368AADE785451145A4
:10054000EF20605C3D8885473394870042044180FA
:10055000231281006319F90093170A01C183A18353
:1005600091E38D473EC493F4F40F9167938787BD61
:100570008A04BE948440137AFA0F4C00268552C632
:10058000EF20802985476317F9004E86A2852685CE
:10059000EF206036B250225492540259F249624A16
:1005A0004561828005476395E7008545214549BF40
:1005B00009476395E7008545414559B70D4763965F
:1005C000E700854513050002A5BF11476396E700C4
:1005D000854513050004ADB715476396E7008545CB
:1005E00013050008B1BF1947E39EE7F485451305DD
:1005F0000010B9B7411193068004054681451305E3
:10060000100206C6213F9306800405468145130566
:1006100020022937930680040546814513053002E0
:10062000F53D93068004054681455545C53D930635
:100630008004054681455145D535B2409306800476
:10064000054681454D454101D1BD914763EBA70268
:100650009167938787BE0A053E951C418287A14515
:10066000371501406F2060279145DDBF8945CDBF1B
:10067000C14537150140130505C0EDB793050002CC
:10068000CDBF1305F00F82804111C1460546854557
:10069000694506C66135B240C146054685450D45EA
:1006A0004101ADBD914763EBA71E91679387C7BF1B
:1006B0000A053E951C41411106C622C4828799E96C
:1006C00037150140A145130505802244B240410180
:1006D0006F2020228547639CF50037150140A14516
:1006E000130505802244B24041016F204020894714
:1006F0006392F51A37150140A14513050580EF20D7
:10070000601E5DFDD9BF81E93715014093050040AA
:10071000130505C05DBF85476399F5003715014096
:1007200093050040130505C075BF89476394F5160E
:100730003715014093050040130505C0EF20801ACE
:1007400061F5E9BF81E99305000437150140130500
:100750000540A5BF85476399F5009305000437154B
:10076000014013050540BDBF89476395F512371554
:1007700001409305000413050540EF20A01661F524
:10078000E9BF81E593050008C9B785476395F50082
:1007900093050008E9B78947639EF50E37150140B8
:1007A0009305000813050540EF20C01361FDCDB788
:1007B0008DE937140140A14513050480EF20601333
:1007C00093050040130504C0EF20A0129305000418
:1007D00013050440EF20E0119305000813050440C1
:1007E000EDB58547639AF50237140140A14513051D
:1007F0000480EF20C00F93050040130504C0EF20D4
:10080000000F9305000413050440EF20400E9305EC
:10081000000813050440F9B58947639DF5063714B0
:100820000140A14513050480EF20C00BA14521C55F
:1008300013050480EF20E00B3714014093050040BE
:10084000130504C0EF20000A9305004015C91305E5
:1008500004C0EF20000A371401409305000413057B
:100860000440EF2020089305000405C1130504404F
:10087000EF20200825B713050480EF2040076DBF47
:10088000130504C0EF20A006F9B713050440EF20BC
:10089000000629B7B2402244410182808280411182
:1008A000014506C6EFF0DF890545EFF07F89114568
:1008B000EFF01F891545EFF0BF881945EFF05F880D
:1008C0001D45EFF0FF872145EFF09F872545EFF0AD
:1008D0003F87B240294541016FF09F864111014594
:1008E00006C622C426C237340020EFF0BF95231A73
:1008F000A41E0545EFF01F959304441F2391A40007
:100900001145EFF03F942392A4001545EFF09F931B
:100910002393A4001945EFF0FF922394A4001D45F2
:10092000EFF05F922395A4002145EFF0BF9123964D
:10093000A4002545EFF01F912397A4002945EFF06F
:100940007F9037070020831607010318441F239A5E
:10095000A184B70700209305441F1307070193875D
:1009600007006354D81A23100701839E25008316BD
:10097000270063D3DE1A2311D701039E4500831697
:1009800047006352DE1A2312C701039365008316E2
:1009900067006351D31A23136700039585008316FC
:1009A00087006350D51A2314A7000396A500831669
:1009B000A700635FD6182315C7008396C500831868
:1009C000C70063DE16192316D7008398E500831548
:1009D000E70063DDB81823171701831F0700130F03
:1009E0004006839507003308F8413308E803B385D0
:1009F000F541831F27005954B38EFE413348B80296
:100A0000B38EEE032393018383952700B385F541CD
:100A1000831F4700330EFE41B3CEBE02330EEE03FA
:100A20002394D18383954700B385F541831F6700E5
:100A30003303F341334EBE023303E3032399C183EF
:100A400083956700B385F541831F87003305F54122
:100A50003343B3023305E50323986182839587000E
:100A6000B385F541831FA7003345B5022391A182C9
:100A7000B305F641B385E5030396A7003306F641B7
:100A8000831FC700B386F64133C6C502B386E603AB
:100A90002392C1828395C7008397E7002A96B38586
:100AA000F5410945B3C6B6022397D1828315E70005
:100AB000B2963387B8403307E7038D8FB347F70209
:100AC0002396F1823307D80172971A97B697420797
:100AD000C207C18341833306F700239AC182239C56
:100AE000E182239BF182EFF0EFFC33458502239CEA
:100AF000A1841145EFF00FFC33458502B24022443A
:100B00009244239DA1844101828083960700E3DE05
:100B100006E52390070191BD83962700E3DFD6E524
:100B20002391D70199BD83964700E3D0C6E723926E
:100B3000C701A1BD83966700E3D166E623936700F2
:100B4000A9BD83968700E3D2A6E62394A700B1BD92
:100B50008396A700E3D3C6E62395C700B9BD839863
:100B6000C700E3D4D8E62396D70085B58395E70080
:100B7000E3D515E7239717018DB503D54183CD47FD
:100B800063EBA700054723A8E184B707002023985B
:100B900007082381018483A6C1841388E181138619
:100BA000E18183150800938761841387C181A9EAD5
:100BB00083D881839306700263E4160583D861832A
:100BC0009306000563FE160383D60700CD8EC2068A
:100BD000C1869DE623810184B7060020239806087C
:100BE00023A8018485462310D800031607008546F4
:100BF000630DD6028396070005476384E60482806E
:100C00008546E394D5FE03D8818383D66183E3FED2
:100C100006FDB706002023980608238101842310CF
:100C200006002310B70023A801849306000AE3F30B
:100C3000A6FC03D6618383D68183E3FDC6FA231025
:100C4000070085462381D184370700202318070831
:100C500023A80184239007005DB703A701854111F4
:100C600006C622C48546631FD7000145814601465A
:100C70008145EF00E07A2244B2401305800C410127
:100C80006F00F0530397E1816318D702056793065D
:100C900087BB2390D184FD7713868744239FC1822D
:100CA000130707AF239DE18293870751239EF182AB
:100CB000B2402244410182800396C181938701851D
:100CC0001387C1816311D60E83966184639D060CE0
:100CD00083D6618383D78183130720033386F6404D
:100CE000635CC700FD779387076A2390F184239F95
:100CF000F182239DF1825DBF958F6356F700856772
:100D000093870796DDB7039761828397218263D922
:100D1000E7083387E7409146931727003347D70208
:100D200095452945BA97C207C1872395F184239435
:100D3000F1840396818593963700B3C6B6020567A2
:100D4000130887D43346A60293950601C181330662
:100D5000C8402E962390C1848396A185B3C6A6026F
:100D6000B38606418D8E239FD1829D46B387D702DD
:100D7000ED561306C7C1B3C7D7028396C185B3C664
:100D8000A602C207C183B306D640BE96239DD18278
:100D90000397E1853347A702118FB307F74039B7AF
:100DA000E358F7F0BDB7B70600209386060903D5D0
:100DB0000600854513862184631FB518039481823C
:100DC0008393218323000600B30F7440930720030D
:100DD000138F0184138EE1831383A1831388C1834E
:100DE00063D3F7038567938787897D7713078776B2
:100DF0002310FF002310F8002310EE002310E3005F
:100E00002390A18275B53387834063D1E702FD77D4
:100E1000056793878776130787892310FF002310C0
:100E2000EE002310E3002310F80059B5839E81855E
:100E30008396A1858395C1858398E1852946B3CEA4
:100E4000CE0213970F0141839382A184138581847D
:100E50009387A182B3C6C602C20E93DE0E01B3C54C
:100E6000C502C206C18233C6C802C205C181931839
:100E70000601754693D80801634A860663487606DC
:100E80002390070099473307F70299470566130631
:100E900006AFB30ED641B306D640B305B64033060F
:100EA0001641B3C7FF02BA97C207C1872310F500E6
:100EB0001D453385A70215472390F2003345E5020F
:100EC00013973700ED573347F70242054181AA9E39
:100ED00032952310DF012310A80042074183BA9600
:100EE0002E972310DE002310E300D9B3130600323F
:100EF0002390C700A9471D463307F702B3C7CF02A7
:100F0000BA97C207C1873386C70215472310F50079
:100F10002390F2008E071305007DB30ED541B30672
:100F2000D540B305B540330515413346E6026D574C
:100F3000B3C7E70242064182B29E2A962310DF0120
:100F40002310C800C207C183BE96AE972310DE00EF
:100F50002310F300B1BB03460600631EB61483934F
:100F600041820398E1822390060023100700B38892
:100F7000034193072003138F0184938EE183138E23
:100F8000A1831383C18363D417012390C182839506
:100F900081850396A1858396C1858397E18529453F
:100FA000B3C5A50213970801754441839382A184B8
:100FB000938F81843346A602C205C181B3C6A602BF
:100FC0004206418233C5A702C206C1829387A1822D
:100FD00042054181634A7406634804072390070071
:100FE0009947B307F70219471548B3C8E802C697EF
:100FF000C207C1879D48B388170313973700239012
:10100000F2002390FF00ED57B3C808037D78130862
:101010000851C2954296C29642953347F702C208DC
:1010200093D80801B3851541330515412310BF003E
:101030002310A30042074183198E3387E640239093
:10104000CE002310EE00ADB113080032239007014B
:101050001D48B3C80803A947938505831306068373
:101060009386068313050583B307F7021547C697D2
:10107000C207C187338807032390F2002390FF0043
:101080008E073348E8026D57B3C7E702420813588A
:101090000801B3850541330805412310BF00231023
:1010A0000301C207C1831D8EB387F6402390CE0093
:1010B0002310FE00F5BE23A00700DDBE03A70185B7
:1010C00085476314F702B7450000374501404111D9
:1010D00013050580938505C106C6EF10602AB2404E
:1010E0001305803E41016F00900D37070020035724
:1010F0000709631CF700B74500009385C5C1374554
:101100000140130505806F10A02703C721846317D2
:10111000F700B7450000938585C2D5B70397E181F5
:101120006317F700B7450000938545C3C9BF039710
:10113000C1816317F700B7450000938545C4C1B767
:10114000039761846317F700B7450000938545C591
:101150007DB7039741846317F700B7450000938577
:1011600085C571BF828091670111938787A53EC0B5
:1011700003978185839621820396618226CAB744AC
:101180000000938584C70A8506CE22CC02C2416442
:1011900002C402C6EF10F07801479306F4FF0A86F6
:1011A00089450145EF00904F0397A18583964182C1
:1011B00003968182938584C70A85EF109076014754
:1011C0009306F4FF0A868D450145EF00304D0397E5
:1011D000C1858396E18203962183938584C70A851E
:1011E000EF10307401479306F4FF0A8691450145DC
:1011F000EF00D04A0397E1858396C182039601836D
:10120000938584C70A85EF10D07101479306F4FFD8
:101210000A8695450145EF00704803D68183B7459E
:101220000000938585C80A85EF10B06F01479306CB
:10123000007E0A8699450945EF00504683D66183B2
:1012400003D64183B7450000938505C90A85EF1091
:10125000506D01479306F4FF0A869D450145EF0056
:10126000F043B707002003D7070985476312F70249
:101270003746000001479306F4FF130606CAA1454E
:101280000145EF00B041F2406244D24405618280E2
:1012900003C72184631AF70037460000014793060D
:1012A000F4FF130686CAE1BF3746000001479306E4
:1012B000F4FF130606CBE1B7011106CE22CC26CAF5
:1012C0004AC84EC6EFF0AFDDEFF04F85A9450145A6
:1012D000EF007044F1653745014081460146938532
:1012E000052013050580EF0070760545EF003000FE
:1012F0000145EF00D02FC166374600000147FD16BB
:10130000130646C689450145EF005039EFF00FDD61
:10131000EFF0BF86EFF07F945533039501848396F9
:10132000C1830396A1838395E183DD280945EFF00E
:10133000CFB169FD0D3DD9BF011122CCC1462A8430
:10134000054685451305A00206CE26CA4AC84EC6E4
:10135000EFF0CF9CC146054685451305B002EFF07E
:10136000EF9BC146054685451305C002EFF00F9B74
:10137000C146054685451305D002EFF02F9AA28598
:1013800013064006130520216126A2851306400698
:1013900013053021B52EA285130640061305002142
:1013A000852EA28513064006130510219526B73910
:1013B00000201385C929A122373900201305C9232C
:1013C0003D2AB73400201385C426152A373400205F
:1013D000130544202D22B747000003A787CBB7474A
:1013E000000083A7C7CB2322E420130444205CC061
:1013F000F240624423AEE928232EE9229389C929C9
:101400001309C92323A6E4269384C42623A2F90042
:101410002322F900DCC04249D244B24905618280EE
:10142000411122C426C24AC006C62E89B28436841F
:101430006354A006AA85130520215D219305004071
:1014400037150140EF10E04A63542007CA851305A1
:101450000021792185659385058037150140EF10BE
:10146000404963549006A68513053021952985656A
:1014700037150140EF10E04763548006A28513053D
:101480001021B9292244B240924402498965371596
:10149000014041016F10E045B305A0401305202134
:1014A00081219305004037150140EF10404469BF8A
:1014B000B30520411305002125218565938505800D
:1014C00037150140EF10A04269BFB30590401305E6
:1014D00030213921856537150140EF10404169BF42
:1014E000B305804013051021E52E2244B2409244FA
:1014F000024989653715014041016F10403F93074C
:1015000000001CC15CC11CC55CC51CC95CC91CCDEC
:101510005CCD1CD15CD11CD52326050282809307AB
:101520000020630DF51463E4A7069307101063040D
:10153000F51063E4A70289476300F50E63E7A7008F
:1015400069C185476305F50C82808D47630BF50CF7
:1015500093070010630CF50C828093070011630B56
:10156000F50E63EBA70093072010630BF50C9307B0
:101570003010630CF50C8280930720116306F50E82
:10158000636FF50C930730116305F50E82809307A6
:101590003021630BF51263ECA70293073020630E32
:1015A000F50E63EBA70093071020630EF50C93076D
:1015B0002020630FF50C828093071021630AF50E3B
:1015C00063EEA70E93070021630EF50C828093074C
:1015D0000030630BF51063EBA70093070022630B49
:1015E000F50E93071022630CF50E828093072030CE
:1015F0006306F510636FF50E930730306305F51041
:101600008280ED460146854521456FE03FF1ED467C
:10161000014685452545D5BFED4601468545294509
:10162000EDB7ED46014685452D45C5B7ED4601466A
:1016300085450145D9BFED46014685450545F1B7CC
:10164000ED46014685450945C9B7ED460146854544
:101650000D4565BFED46014685453D457DB7ED46E7
:10166000014685454D4555B7ED46014685456945D9
:1016700069BFED46014685456D4541BFED460146D2
:101680008545194559B7ED46014685451D45B5BF08
:10169000ED460146854541458DBFED4601468545F0
:1016A0004545A5B7ED460146854513056002B1BF26
:1016B000ED46014685451305700281BFED460146A2
:1016C00085451305800291B7ED4601468545130512
:1016D000900225BFED460146854551453DB7ED4693
:1016E00001468545554515B7ED46014685455945A1
:1016F00029BFED46014685455D4501BFED460146E2
:101700008545614519B7ED46014685456545F5BDF9
:10171000397126DAAA8422DC13D484004AD84ED642
:1017200006DEAE893289E53B631E040E05658545FC
:1017300013050580EF10203D85450545EF10A03CC1
:1017400013D74400C1476313F710370516008545CA
:1017500013050504EF10C01AB7170240DC43371712
:101760007A0013070720C983BD8BB387E7023727A9
:10177000F400130707400A048D8823150100231382
:10178000010023060100231A010002CEBA97370791
:101790000020232AF70833D7370341839305170026
:1017A000B38535032312E1004167130707073AC8E1
:1017B0000D671307470DB3D7B7024C009386F7FFA9
:1017C000C207C183B38727032314D100B3D7E7022D
:1017D000231BF100B707020089073ECC916793876E
:1017E000072B3E9400402285EF108037C9EC0C088F
:1017F0002285EF10603EA1452285EF10406F914594
:101800002285EF10407422858545EF1060652285A2
:101810008545EF10A066F2506254D2544259B25935
:101820002161828085476317F40085450545EF10E7
:10183000602F19B789476315F40085450945C5BF71
:101840008D47E31BF4EE85451145D5B7C5476318B1
:10185000F70037051800854513050530E5BD9307EA
:1018600010026318F70037151A008545130505C0E7
:10187000D5B593072002E311F7EE37151A00854519
:1018800013050580C1BD85476390F4020C082285CD
:10189000EF10003D2285A145EF10806693050040C2
:1018A0002285EF10606B85B789470C082285639D00
:1018B000F400EF1020462285A145EF100066914507
:1018C0002285EF10006B81B7EF10E04F2285A14514
:1018D000EF10C065930500402285EF10A06A25B780
:1018E000135785009166931727009386062BB697AA
:1018F0009C4383D7C702B385F5028D679387470D55
:10190000B3D5F50201EFB75700100D899387D7B013
:101910003E95C2050A05C1810CC1828085476317C7
:10192000F700B70700100D89B507DDB789476318C1
:10193000F700B70700100D899387D710D1BF8D47E7
:10194000E31DF7FCB70700100D899387D720C9B7AF
:10195000B707002083A7470937177A001307072026
:10196000B3D7E7021307803E93F7F70FB387E70279
:10197000239BF184B7F700E023820700A3820700CE
:1019800023830700A3830700054798C38280B7F726
:1019900000E023A0070003D7618523820700A3820C
:1019A0000700238307003305A702A3830700054729
:1019B00098C337F700E05C43E37FF5FE8280C1BF48
:1019C00001112304A100280006CEA304B1002305C1
:1019D000C10036C6EF00907BF24005618280411164
:1019E000C167116702C6FD17130777A97D15420568
:1019F00041816314F5004101828002C6B246E3676B
:101A0000D7FE0100B246850636C6CDBFFD577D150F
:101A10006313F50082800100DDBF411122C4371439
:101A200001404AC085652A89130504C026C206C63E
:101A3000A144EF00106C130404C089652285EF00F7
:101A4000506B0545E13793178901E1879165228540
:101A500063D70702EF00B06989652285EF0030691E
:101A6000FD140545060993F4F40F4D371379F90F6A
:101A7000E9F4B24022449244024941018280EF00DD
:101A80005067D9BF411122C4371401404AC085654F
:101A90002A89130504C026C206C6A144EF0030659A
:101AA000130404C089652285EF00B0640545B93F81
:101AB00093178901E1879165228563D70702EF00BB
:101AC000106389652285EF009062FD1405450609C3
:101AD00093F4F40F253F1379F90FE9F4B24022444F
:101AE0009244024941018280EF00B060D9BF0111E8
:101AF0004AC885452A89214506CE22CC26CAEF1040
:101B0000800093070080371401402312F1008D47B5
:101B10003EC44C00C147130504C03EC68564EF00B7
:101B2000B04F93850480130504C0EF00905C13054B
:101B30002003753593850480130504C0EF00305BE6
:101B400013052003693D4545C93D2945493D130518
:101B5000A003E13513055005353713056002753DC7
:101B600011450D371305200F4D3D0545213F130548
:101B7000000E65351305F003313713055002193790
:101B8000714509377945FD3D13050002E53D49459D
:101B9000D53D1305A002FD3513050009E5351305F4
:101BA0004002CD354545F93D0145E93D0145D93D69
:101BB0000145C93D0145F9350145E9351305100ECB
:101BC000A93D130500027D3D13050002653D130587
:101BD00000024D3D1305000275351545653501457B
:101BE0005535554545351305700A693D1305D00334
:101BF000513D6145413D1305500269351305A00271
:101C000051351305B002BD3D1305B002A53D1305C6
:101C1000A0038D3D1305100B09350145A535014580
:101C200095351305400BD53B1D45A93D1305000C0B
:101C3000ED332945813D0945B1351305100CF13BC4
:101C4000094589351305500CC93B1305F0041D3DAA
:101C50001305A005053D1305700CC13313050004E1
:101C600015351305A002553B0145293D0145193D98
:101C70000145093D1305800A31351305B002713B5A
:101C8000014509350145FD3B0145ED3B1305300B91
:101C9000D53B1305600351331305000C6314090091
:101CA0001305000AC5331305700B853B0145D93B6D
:101CB000130590029D331305C0028533F240624440
:101CC000D244424905618280411122C43714014047
:101CD0004AC085652A89130504C026C206C6C144C8
:101CE000EF00F040130404C089652285EF007040C6
:101CF0000545EFF0BFD193170901C1879165228592
:101D000063D90702EF00B03E89652285EF00303EBF
:101D10000609FD140545420993F4F40FEFF01FCFB7
:101D200013590901F1F0B2402244924402494101A1
:101D30008280EF00103CC9BF011122CC2A84130518
:101D4000A00206CE36C22EC632C4EFF01FCD01452A
:101D5000EFF05FD32285EFF0FFD20145EFF09FD285
:101D600022463285EFF01FD21305B002EFF0FFCA12
:101D70000145EFF03FD1B2452E85EFF0BFD00145D0
:101D8000EFF05FD092463685EFF0DFCF6244F2404D
:101D90001305C00205616FF05FC841111305A00271
:101DA00006C6EFF09FC70145EFF0DFCD0145EFF02C
:101DB0007FCD0145EFF01FCD1305800AEFF09FCCDA
:101DC0001305B002EFF07FC50145EFF0BFCB014531
:101DD000EFF05FCB0145EFF0FFCA1305300BEFF0DA
:101DE0007FCAB2401305C00241016FF01FC3411109
:101DF00026C24AC006C622C42A899304200A713F1B
:101E0000130440084A857D14EFF01FEC65FCFD14B7
:101E1000E5F8B240224492440249410182800E0515
:101E2000920501111375F50F93F5F50F22CC4EC6EF
:101E30003284B689130675009386F50093F6F60F83
:101E40001376F60F26CA52C456C206CE4AC83A8A3C
:101E5000EFF09FEE931744001164130404CC3E94FA
:101E6000C144A14A0149834704E04E85B3D72741C5
:101E7000858B91E352850509EFF01FE5E31559FFC6
:101E8000FD1493F4F40F0504F1FCF2406244D244D3
:101E90004249B249224A924A056182800111118D5C
:101EA00022CC26CA4AC84EC652C406CE2E89B6894E
:101EB0003A8A32849374F50F0306040033059400C4
:101EC0001375F50F09EAF2406244D2444249B2491F
:101ED000224A056182805287CE861376F60FCA8524
:101EE0000504EFF0DFF3C9BF411122C637340140CA
:101EF0008545130504C0EF10800A11C985451305F7
:101F000004C0EF10800B89450545EFE0AFF932447E
:101F1000410173002030011122CC26CA06CE2A844A
:101F2000AE843DE90565854513050580EF00B03DAC
:101F3000B707002083A747091307007D8604B3D79E
:101F4000E70211671307072B231491004C00231598
:101F5000010023130100230601002312F10093174F
:101F60002400BA9784432685EF00903F05468545B7
:101F70002685EF00107229E0854609468145130544
:101F80009002EFF0FFA326858545EF00706DF240CB
:101F90006244D2440561828085476316F500854519
:101FA000EF00503871B78947E30BF5FE8D47E31119
:101FB000F5F885451145EDB785476318F40085466A
:101FC000094681451305C0026DBF89476318F400B7
:101FD0008546094681451305D00265B78D47E31450
:101FE000F4FA8546094681451305E00259BF4111BF
:101FF00022C6374400409305000213050440EF1049
:10200000A0101DC99305000213050440EF108010B5
:1020100013050440EF10A00EB73700201375F50F1D
:10202000238AA72C9307A00A631CF50083C70186A7
:1020300095EB85472380F1863244410173002030BF
:102040009307F5FF93F7F70F8D4663EDF60083C610
:10205000018685476398F600B7370020A38AA72C2E
:102060008947C9BF83C70186894863981701B73775
:1020700000202388A72C8D4775BF0D4E6398C7019C
:10208000B7370020A388A72C91476DB711436398F9
:102090006700B73700202389A72C954761BF954675
:1020A0006398D700B7370020A389A72C994759B761
:1020B00099466394D704B7350020B737002003C88A
:1020C000052D03C6572D9385052D83C7150083CE97
:1020D0002500B306C8009386A6FA83C53500BE96D0
:1020E000F696AE9693F6F60F6319D50063081603BD
:1020F00063E8C8008546630ED600238001862DBFA5
:102100006303C603E31B66FEA207C297239FF18405
:10211000EDB7A207C297239CF184C5B7A207C29767
:10212000239EF184D9BFA207C297239DF184F1B702
:10213000411122C406C62E840DE1ED4601468545B7
:102140002545EFE0AFBD31E891460146814529457F
:102150002244B24041016FE06FBC05476317E500C0
:10216000ED46014685455945E9BF09476316E50037
:10217000ED4601468545F1B70D476317E500ED468D
:1021800001468545694575BF1147E31EE5FACD4611
:10219000014685451305A0026DB785476317F40016
:1021A0009146014681455D4565B789476317F4004F
:1021B0009146014681450D4561BF8D476317F40087
:1021C0009146014681456D4561B791476318F4001A
:1021D0009146014681451305B0029DBFB24022449D
:1021E0004101828001112EC605469305505222CC32
:1021F00006CE2A84EF00B06CB74701409387078072
:10220000B246631BF4000146814513055003624446
:10221000F24005616FF0CFFAB7470040938707405F
:102220006317F4000146814513056003CDB7B75726
:102230000040938707806317F4000146814513052A
:102240007003F1B7F2406244056182807971B7474B
:10225000014022D426D24AD04ECE06D6938707809C
:102260002A84AE843289B6896314F50485451165E4
:10227000EF007009CE854A85EFF09FEBB7070C00A1
:10228000228585453EC426C002C223160100EFF018
:102290007FF58A852285EF00305322858545EF0042
:1022A0005060B250225492540259F24945618280E2
:1022B000B7470040938707406318F5008545370509
:1022C0000200EF0030067DB7B757004093870780C4
:1022D000E312F5FA854537050400E5B7C20541115B
:1022E000C18122C406C62A84EF00D0609305000491
:1022F0002285EF0070617DD9B24022444101828085
:10230000411122C6374401409305000213050480A1
:10231000EF00905F15C19305000213050480EF00E4
:10232000705F13050480EF00905D93158501E185D2
:1023300013050480EFF09FFA32444101730020300E
:10234000411122C637540040930500021305048052
:10235000EF00905B15C19305000213050480EF00A8
:10236000705B13050480EF00905993158501E1859A
:1023700013050480EFF09FF63244410173002030D2
:10238000411122C426C206C6AA842E8483050400F5
:1023900091E5B240224492444101828026850504A1
:1023A000EFF0DFF3E5B74111094506C622C426C2A6
:1023B000D92BEFF0EFD9EFE02FADEFE0AFA30D6534
:1023C0001305450DEFE05FF77164B74401408146A6
:1023D00001469305042013850480EFF03FE7B745DD
:1023E00000009385052C13850480EFF07FF9930599
:1023F0000420374400408946094613050440EFF0A5
:10240000FFE4B74500009385452D13050440EFF028
:102410003FF7EFE07FEA01A07300203001A097E1D1
:10242000FF1F93812147173100201301A1BD1725FC
:102430000000130565F597E5FF1F9385A5BC13867E
:10244000818163FAC5008322050023A05500110590
:102450009105E3EAC5FE13858181971500209385D8
:1024600025E86377B500232005001105E36DB5FE6F
:102470009302800873A0023097E2FFFF938202BCB0
:1024800093E2120073905230EF0040019702000077
:102490009382A2F17390123473002030B717024078
:1024A0009843B706FFF841111367170098C3D84344
:1024B000758FD8C39843B706F7FEFD16758F98C37E
:1024C0009843B706FCFFFD16758F98C3D843B7062F
:1024D00081FFFD16758FD8C337079F0098C783C744
:1024E000818002C402C613078004B7061C006388FB
:1024F000E70413070005B70620006382E70413070B
:102500008005B7062400638CE70213070006B706B0
:1025100028006386E70213078006B7062C00638055
:10252000E70213070007B7063000638AE7001307C6
:102530008007B70634006384E700B7062400371627
:1025400002401842C165370502004D8F18C2B71509
:102550000240130600509841698F3AC6224705078A
:102560003AC4324701E72247E317C7FE3717024054
:1025700018431316E7006354060A05473AC6324665
:1025800005476314E6083727024010431366060127
:1025900010C31043719A10C310431366260010C372
:1025A00037170240504350C313068005637BF6067D
:1025B000504389654D8E50C350431366064050C347
:1025C000371702405043B705C1FFFD156D8E50C34C
:1025D0005043D18E4166D18E54C314433706000157
:1025E000D18E14C3144313966600E35D06FE544374
:1025F00037160240F19A54C3544393E6260054C35D
:10260000A1465842318BE31ED7FE37470F00130710
:102610000724B387E70223A2F1804101828002C62A
:10262000B9BF504350C3504359BFB72701409387A8
:102630000740631EF500411185451305002006C6BD
:102640000923B2408145130500204101DDA98280A4
:102650005C413707F1FF1307F7EF7D8FDC419441B1
:10266000A207D58FD98F5CC11C4537F7F1FF13073F
:10267000D77FD4457D8F9C49D58F94458606D58FCD
:10268000D98F1CC55C55370710FF7D177D8F83C719
:102690004501FD1793F7F70FD207D98F5CD58280DC
:1026A0001C4589C593E717001CC58280F99BEDBFC7
:1026B0001C4593E787001CC5828008450D8105896C
:1026C00082801C4593E747001CC58280084509812C
:1026D00005898280A54763F7B7048D47138765FF97
:1026E0003307F7020328C5009D47B397E70093C758
:1026F000F7FFB3F70701B396E600DD8E54C599479F
:1027000063E3C70495477D163306F6025859FD4723
:10271000B397C70093C7F7FFF98F3396C5005D8E57
:1027200050D982800D473387E502032805019D4774
:10273000B397E70093C7F7FFB3F70701B396E60037
:10274000DD8E14C96DBFB14763E2C70295476516B8
:102750003306F6021859FD47B397C70093C7F7FF32
:10276000F98F3396C5005D8E10D9828095474D163E
:102770003306F6025855FD47B397C70093C7F7FFD6
:10278000F98FB395C500DD8D4CD58280B727014008
:1027900093870740984711C5B7068000558F98C7A3
:1027A0008280B70680FFFD16758FD5BF9317350061
:1027B00063DA0700B707024083A707407D8D3335F2
:1027C000A0008280B70702409C43CDBF931735001D
:1027D00063D70700B707024023A2A7408280B7074C
:1027E0000240C8C38280B707014023AAA740828065
:1027F000B70701401387074083A70740584B698FED
:1028000009C77D8D3335A000828001458280B707DE
:10281000014023AAA74082809C4513F7070113F8C3
:10282000F70001C7D8413368E80083D5050013F7E6
:10283000F50F39C318418146854E3D4F930F8002F5
:1028400093028004214E3396DE00B3F8C500631175
:1028500016039398260033131F011343F3FF3377B6
:10286000E300B318180133E7E800639FF70550C988
:102870008506E39AC6FD18C11307F00F6375B70408
:1028800054412146854E3D4F930F800293028004B0
:10289000414EB398CE0033F715016392E802131747
:1028A000260001173313EF001343F3FFB376D30071
:1028B0003317E800D98E639DF701232A1501050619
:1028C000E319C6FD54C18280E39457FA10C94DB78D
:1028D000E39757FE23281501DDB708456D8D333585
:1028E000A000828048456D8D3335A00082800CC9E0
:1028F00082804CC9828019C20CC982804CC98280F6
:10290000B707014063550504D44FB70730001317CC
:1029100005013376F5004183631DF602370600F1A9
:102920007D1637080140B3F7C60083264800758E30
:102930002322C80099C59356550192063317D70034
:10294000D98F37070140635E05025CCF8280D44394
:102950006DBF9317B50063D007029357050113F6B7
:10296000F7008D47B397C70093C7F7FFF58FB706FA
:10297000000FD58FC1B7935755019207B317F700D2
:10298000E5B75CC3828023A2A186828093874186BB
:1029900094430347050089E683472500920731A841
:1029A000944305466391C6048347250003461500FA
:1029B00092076314D60093E707F8B7E600E093F7B1
:1029C000F70FBA962380F640854693575700339702
:1029D000E6005441ADC6938707048A07B7E600E0D6
:1029E000B69798C382808C4389466393D502834609
:1029F0001500834725006365D6008A06B69779BF20
:102A00009386E6038A06B69793F7F70F920765B7A2
:102A100090438D46631ED6008346150083472500EC
:102A20006364D6008606D9BF9386C6078606E1BFD3
:102A300094439147E39AF6F88347150085B7938747
:102A4000070661BFB7160240DC4251777D17F98F48
:102A50005D8DC8C28280371702405C439146B18BBE
:102A60006385D700A1466386D706B7177A00938798
:102A700007201CC1371602405C42370700201307AD
:102A800007029183BD8BBA9783C607001C41B3D759
:102A9000D7005CC15442A1829D8ABA9683C60600C3
:102AA000B3D6D70014C55442AD829D8A36970347EA
:102AB0000700B3D7E7005CC55842398393763700E7
:102AC0001387C180369703470700B3D7E7021CC9B5
:102AD00082805C435443C983BD8B1396F6008907FB
:102AE0006349060037173D0013070790B387E702D5
:102AF00049B758439316E700E3C606FE37177A0036
:102B000013070720E5B799C5371702401C4F5D8DA5
:102B100008CF8280B7170240984F1345F5FF798D93
:102B200088CF828099C5371702405C4F5D8D48CFB2
:102B30008280B7170240D84F1345F5FF798DC8CF73
:102B4000828099C5371702405C475D8D48C78280F7
:102B5000B7170240D8471345F5FF798DC8C7828063
:102B60008357050037370140130707C0C207C183E9
:102B70006300E50237070040630CE50013070740D8
:102B80006308E50037170040130707806317E50067
:102B900003D7250093F7F7F8D98F03D7650093F78C
:102BA000F7CFC207C183D98F2310F50083D7450023
:102BB0002316F50283D705002314F502B737014029
:102BC000938707C06316F50083C785002318F502B5
:102BD0008547231AF50082808357050203D6050036
:102BE00003D82500C207C183F99BC207C183231004
:102BF000F502835705028356450003578501C20736
:102C0000C183420741831377C7F8518F03D68500EC
:102C1000F59BC20633660601D18F37360140130695
:102C200006C0C1826313C50203D6A500DD9B03D88D
:102C3000E500D18F03D64500ED9B93F6F6CFD18FFB
:102C400003D6C50033660601D18E2312D500231C9E
:102C5000E50003D76500231AE5022310F502828000
:102C60008357050265771307F7CFC207C183BD9B62
:102C7000C207C1832310F50283570502835645001E
:102C800003D88500C2071396060183568501C183C8
:102C900093F7F7FD758F83D605004182A206558F05
:102CA00083D6250042074183B3E606019206D58FFD
:102CB000B7360140C207938606C0C1836311D504AD
:102CC00083D6A50093F7F7F703D8C5009206D58FF2
:102CD00083D64500C207C183920693F7F7FBD58FD1
:102CE000FD769386F63FF18E03D6E500C207C183D9
:102CF000336606010A06D18E13960601418223121D
:102D0000C500231CE50003D76500231CE502231042
:102D1000F50282808357050203D88500C207C1836C
:102D200093F7F7EFC207C1832310F502835705021B
:102D3000835645000357C501C20713960601420793
:102D400083D6050041831377C7F8558F83D62500B6
:102D5000C18393F7F7DFB3E60601A206D58FB73636
:102D60000140C207938606C04182C1836312D50425
:102D7000FD769386F67FF58F83D6A50003D8C50030
:102D8000A206D58F83D64500C207C183A20693F75A
:102D9000F7BFD58FF576FD16F18E03D6E500C20795
:102DA000C183336606011206D18E13960601418255
:102DB0002312C500231EE50003D76500231EE5028C
:102DC0002310F502828003570502FD77FD17F98F66
:102DD0002310F50203580502835645008357C501A9
:102DE000657703D605001307F7CF7D8FF9772206A5
:102DF000FD17518FB3F7070103D6250003D88500CF
:102E0000C2064207336606013206D18F37360140CB
:102E1000C207130606C0C1824183C183631BC5007C
:102E200071767D16F18E03D6C5001A06D18EC206C4
:102E3000C1822312D500231EE50003D765002310AD
:102E4000E5042310F5028280FD572312F5002310BC
:102E500005002313050023110500230405008280CB
:102E60008357050091C593E717002310F500828072
:102E7000C207C183F99BC207C183C5BF83574504FD
:102E800091C52167D98F2312F5048280C607C583B7
:102E9000DDBF8357C50009C6DD8D2316B5008280CE
:102EA00093C5F5FFFD8DD5BF0358850003578501F8
:102EB00083570502420813580801C2074207C1831D
:102EC00092064183137888FF93F7D7FD558EB3653B
:102ED000B8001377C7CFD18F2314B500136717102D
:102EE000C207C183231CE5002310F50282808357AB
:102EF0008501C207C183DD9BDD8D231CB500828067
:102F000003578501FD779387F77FF98FA205CD8F52
:102F1000C207C183231CF50082808357C501C20705
:102F2000C183DD9BDD8D231EB50082800357C50163
:102F3000FD779387F77FF98FA205CD8FC207C183F5
:102F4000231EF500828083578501C207C183ED9B54
:102F5000DD8D231CB500828083578501A205C20741
:102F6000C18393F7F7BFCD8FC207C183231CF50040
:102F700082808357C501C207C183ED9BDD8D231E6F
:102F8000B50082808357C501A205C207C18393F7AC
:102F9000F7BFCD8FC207C183231EF5008280835700
:102FA00005010355C500ED8F4205418189C76D8D2F
:102FB0003335A00082800145828093C5F5FFC205AC
:102FC000C1812318B500828083560501F577FD176E
:102FD000F58F83D66500397122DC06DED58F03D7E5
:102FE000C5002318F5008356C500FD779387379FEA
:102FF000F58F83D645002A842EC6D58F83D68500CB
:10300000D58F83D6A500D58F2316F50083574501AC
:10301000C207C18393F7F7CFD98F231AF500680849
:10302000EFF07FA3B747014093870780B245631E47
:10303000F404A2578356C4006547B387E702C2066B
:10304000C186984163D5060406070356C4004206AC
:10305000B3D7E702130740064186B3D6E702B3F7BA
:10306000E7029206635706028E0793872703B3D7BA
:10307000E70213F77700B367D700C207C1832314B1
:10308000F400F250625421618280925765B70A07BA
:103090006DBF920793872703B3D7E702BD8BD58F08
:1030A000E9BF81C98357C5000967D98F2316F50089
:1030B00082800357C500F977FD17F98FC5BF13F755
:1030C000F50F85471583B395B7006319F70093078C
:1030D000C500984301CED98D8CC382808946930761
:1030E0004501E318D7FE93070501E5B793C5F5FF42
:1030F000F98DDDB793F5F51F2312B50082800355D6
:1031000045001375F51F8280035505006D8D33351D
:10311000A000828093C5F5FFC205C1812310B500D0
:10312000828035713ECBB707008093C7F7FF3ECE54
:103130003EC8C1779387872032C536C73AC942CD8A
:1031400046CF3ECA938701812AC42ACC88433401E2
:103150002E862C0086DE36C29D2CA24723800700D7
:10316000F6500D618280DDC183A7C5FF411122C4E5
:1031700006C626C21384C5FF63D307003E94AA8403
:10318000EF00301C938781869C4381EF232204004B
:1031900023A481862244B2402685924441016F00D7
:1031A000701A637EF40014403307D4006396E7007E
:1031B0009843DC43369718C05CC0D9BFBA87D84360
:1031C00019C3E37DE4FE94433386D700631F860072
:1031D0001040B29694C33386D700E31DC7FA10435C
:1031E0005843B29694C3D8C375B76375C400B1474A
:1031F0009CC04DB71040B306C4006316D7001443FB
:103200005843B29614C058C0C0C369B78280011138
:1032100026CA93843500F19806CE22CC4AC84EC601
:10322000A104B14763F5F404B14463E4B4042A890A
:10323000EF0030119387818698433A8429E493877D
:10324000C1869C4399E781454A85EF00E07A23A631
:10325000A186A6854A85EF00207AFD5963193507B6
:10326000B1472320F9004A85EF00D00D29A0E3DE05
:1032700004FAB1471CC10145F2406244D2444249BC
:10328000B249056182801C40858F63CF0702AD463D
:1032900063F6F6001CC03E9404C031A05C4063138A
:1032A000870223A4F1864A85EF00D0091305B400F4
:1032B0009307440061993307F5405DDF3A94898FA5
:1032C0001CC05DBF5CC3C5B72287404085BF1304E7
:1032D00035007198E30285FCB305A4404A85292F87
:1032E000E31C35FBB5BF01114AC803A9850022CCF8
:1032F00052C45AC006CE26CA4EC656C22E84328B3F
:10330000368A63ED260983D7C50013F7074849C7F6
:1033100004408C495848AA8AB389B4408D44B38488
:10332000E4020947B3C4E402138716004E9763F31F
:10333000E400BA8493F70740C9C3A6855685EFF029
:103340001FED2A890DE5B14723A0FA008357C40079
:103350007D5593E707042316F400F2406244D244FB
:103360004249B249224A924A024B056182800C4886
:103370004E86C12D8357C40093F7F7B793E707082C
:103380002316F4002328240144C84E99B384344101
:103390002320240104C4528963732A0152890840FE
:1033A0004A86DA85912F1C440145B38727411CC406
:1033B0001C403E99232024014DB72686568561275F
:1033C0002A8969F10C485685EFF0FFD9ADBF83D744
:1033D000C500717126D34AD14ECF06D722D552CD22
:1033E00056CB5AC95EC762C566C393F70708AA8958
:1033F0002E89B284B9C39C49A9E39305000436C65B
:10340000EFF0FFE02320A9002328A900B24615E130
:10341000B14723A0F9007D55BA502A549A540A594D
:10342000FA496A4ADA4A4A4BBA4B2A4C9A4C4D61DD
:10343000828093070004232AF90093070002A30C5B
:10344000F1029307000302DA230DF10236CE930B4B
:103450005002971A0000938A6AEF054C294B268484
:103460008347040099C3639C7709B30C9440638E2F
:103470000C00E6862686CA854E85EFF0DFE6FD570E
:103480006301F51AD256E69636DA83470400638A5A
:103490000718FD579304140002D002D63ED202D47E
:1034A000A301010682DC83C5040015465685AD2BB9
:1034B00013841400825731E513F7070109C7130776
:1034C0000002A301E10613F7870009C71307B00242
:1034D000A301E10683C604001307A002638BE60282
:1034E000B2572684814625460347040093051400FD
:1034F000130707FD6374E6068DC63ED61DA00504BE
:1035000085B7330555413315AC00C98F3ED0A28431
:1035100059BF724793064700184336CE63490702E6
:103520003AD6034704009307E002631FF7040347FA
:1035300014009307A002631BF702F24709041387E4
:1035400047009C433ACE63C107023ED235A83307F9
:10355000E04093E727003AD63ED0E1B7B387670350
:1035600085462E84BA9749B7FD57C5B7050402D2E0
:10357000814681472546034704009305140013073D
:1035800007FD6376E606F1F2834504000D46171544
:103590000000130525DC492911CD971700009387FA
:1035A00067DB1D8D93070004B397A7000255050440
:1035B0005D8D2AD0834504001946171500001305B8
:1035C000A5D993041400230CB102B92925C597D7B6
:1035D000FFFF938727A395E70257F247137707105A
:1035E00009CF91073ECED257D2973EDA8DBDB38731
:1035F000670385462E84BA97BDBF9D07E19BA1074F
:10360000D5B7780897060000938626CE4A860C1018
:103610004E8597000000E7000000FD572A8AE3145A
:10362000F5FC8357C9007D5593F70704E39607DE41
:103630005255DDB3780897060000938606CB4A867C
:103640000C104E85012AD1BF797156CA9C49BA8A9D
:10365000984522D426D24ECE52CC06D64AD05AC84D
:103660005EC6AA892E84B284368A63D3E700BA87FD
:103670009CC00347340419C385079CC01C4093F7C2
:10368000070281C79C4089079CC003290400137965
:103690006900631A0900130B9401FD5B5C449840B8
:1036A000998F634CF9041C408346340493F7070256
:1036B000B336D000A5EB13063404D2854E85829A2A
:1036C000FD576303F5041C4011469840998B544400
:1036D00081446397C700B384E64063D30400814408
:1036E0001C4418486354F700998FBE94014969043B
:1036F0007D5B63982405014509A885465A86D285D5
:103700004E85829A631E75017D55B25022549254A3
:103710000259F249624AD24A424BB24B4561828019
:103720000509ADBF3307D40013060003A301C70486
:103730000347540493871600A2978906A381E704E0
:103740009DBF85462286D2854E85829AE30E65FB13
:10375000050945B7797122D426D24AD04ECE06D675
:1037600052CC56CA5AC8B68983C685019307E0066B
:103770003289AA842E84138635046381F61E63E29F
:10378000D706930730066382F60A63EDD700638B92
:10379000061E930780056387F616930A2404230107
:1037A000D40469A8930740066386F6009307900641
:1037B000E395F6FE1C40084393F607089305450081
:1037C000C1C21C410CC363D807001307D002B30762
:1037D000F040A301E40497160000938666B82947D9
:1037E00065A0930730076383F61A63EFD70093074A
:1037F000F006638FF60493070007E390F6FA9C4106
:1038000093E707029CC109A8930750076382F60457
:1038100093078007E393F6F893078007A302F40465
:1038200097160000938606B5E5A01C43938A2504ED
:10383000938647009C4314C32381F5048547B5A2B2
:1038400093F607041C410CC3BDDEC207C187A5BFA8
:103850000C401C4313F80508138547006305080056
:1038600008C39C4339A093F5050408C3FDD983D749
:1038700007001307F006638BE60C9716000093868B
:1038800026AE2947A30104044C400CC463C50500BF
:1038900008406D9908C099E3B28A91CDB28AB3F518
:1038A000E702FD1AB69583C505002380BA00B3D59B
:1038B000E70263F3E70AA147631EF7001C40858B0C
:1038C00091CB58401C4863C7E70093070003A38FC0
:1038D000FAFEFD1A3306564110C84E87CA8670009C
:1038E000A2852685EFF05FD67D5A6314450D7D5580
:1038F000B250225492540259F249624AD24A424B7F
:1039000045618280A382D50497160000938646A560
:103910000C40084313F805081C4111056300080218
:1039200008C313F7150001C793E505020CC0414712
:10393000B1FB0C4093F5F5FD0CC0A9B713F80504D5
:1039400008C3E30008FEC207C183E1BF9716000069
:10395000938606A121473DB7AE8791B794411C439A
:10396000CC4913F80608138547006306080008C30E
:103970009C438CC301A808C393F606049C43F5DA64
:103980002390B70023280400B28A81BF1C43D04192
:1039900081459386470014C383AA07005685692092
:1039A00001C53305554148C05C401CC8A30104044F
:1039B0002DB714485686CA8526858299E30945F3B2
:1039C0001C40898B8DE7B2474844E353F5F23E85AE
:1039D00005B785465686CA8526858299E30965F12D
:1039E000050A5C443247998FE345FAFEE9BF014A74
:1039F000930A94017D5BF5B7411122C42A842E8578
:103A00009707002023AC078C06C66522FD57631973
:103A1000F500970700209387678C9C4391C31CC0D7
:103A2000B24022444101828093F5F50F2A96631437
:103A3000C5000145828083470500E38DB7FE05057B
:103A4000FDB7B3C7A5008D8B3307C50081E78D4750
:103A500063EEC700AA876370E50A83C60500850781
:103A60008505A38FD7FEE3EAE7FE828093763500D3
:103A7000AA8791CA83C6050085078505A38FD7FE4F
:103A800093F63700FDB79376C7FF138606FE63F003
:103A9000C70683A3050083A2450083AF850003AF5B
:103AA000C50083AE050103AE450103A3850183A8CC
:103AB000C5019385450223A0770003A8C5FF23A273
:103AC000570023A4F70123A6E70123A8D70123AABF
:103AD000C70123AC670023AE17019387470223AECB
:103AE00007FF75B790419107910523AEC7FEE3EB41
:103AF000D7FEE3E4E7F6828063F3A504B386C5004E
:103B0000637FD5029345F6FF8147FD176393F50068
:103B100082803387F600034807003387C7002A975F
:103B200023000701DDB73387F5008346070033071D
:103B3000F50085072300D700E317F6FE8280814752
:103B4000E5BF8280828081E5B2856FF04FEC011184
:103B500022CC06CE26CA4AC84EC6328401EEEFF009
:103B60008FE00149F24062444A85D2444249B24959
:103B700005618280AE84AA891D202689E37485FEB2
:103B8000A2854E85EFF0AFE82A8969DDA6852286F9
:103B9000EFF03FEBA6854E85EFF0EFDCE1B783A7B2
:103BA000C5FF1385C7FF63D50700AA959C413E95C5
:103BB0008280938701879C4391C73E9523A8A18665
:103BC0003E85828097F7FF1F938787713E9523A8D4
:103BD000A1863E858280000000080140000C014063
:103BE00000100140001401405E060000680600005D
:103BF0006C060000700600007C060000BE06000097
:103C0000060700004407000082070000B00700001C
:103C1000CDA3B3B5200D0A2000000000D5FDCFF2E2
:103C2000200D0A2000000000B7B4CFF2200D0A20BA
:103C300000000000BCECB2E2D7F3B2EDC2B7200D39
:103C40000A200000BDF8C8EBD7F3B2EDC2B7200DD3
:103C50000A200000C5D0B6CFB3F6B2EDC2B7200D32
:103C60000A2000005052455353204B3220746F20DD
:103C700073686F772E2E2E00253034642025303463
:103C800064202530356420004D313A202564200021
:103C90004D3A25303364204D323A2564000000004F
:103CA00072756E20000000004E6F726D616C000036
:103CB00074696E6720000000000020430000A040EF
:103CC00000000000000000000000000000000000F4
:103CD0000000101010101010101000001010000044
:103CE0000000242424240000000000000000000044
:103CF0000000484848FE24242424247F1212120085
:103D000000107C929212141830509092927C100005
:103D100000008C9252322C1008689492926000003D
:103D20000000182424241898A4A24242A29C000057
:103D30000000101010100000000000000000000043
:103D400000201008080404040404040808102000DB
:103D5000000408101020202020202010100804004B
:103D60000000000000082A1C1422000000000000CF
:103D700000000000101010FE1010100000000000E5
:103D8000000000000000000000000000101008000B
:103D900000000000000000FE000000000000000025
:103DA00000000000000000000000000010100000F3
:103DB0000000404020201010080804040202000007
:103DC00000003844828282828282828244380000EB
:103DD0000000101C10101010101010101010000017
:103DE00000003C424240402010080402027E0000D5
:103DF00000003C424240403C40404042423C0000C7
:103E000000006060505048484444FE40404000007C
:103E100000007E0202023E4240404042423C00001E
:103E200000003C424202023E42424242423C00000A
:103E300000007E402020101010080808080800002C
:103E400000003C424242423C42424242423C00006C
:103E500000003C42424242427C404042423C000020
:103E60000000000008080000000008080000000032
:103E700000000000101000000000101010080000EA
:103E80000000004030080601060830400000000035
:103E9000000000000000FE0000FE00000000000026
:103EA000000000020C10608060100C020000000096
:103EB00000003844828240201010100010100000D2
:103EC0000000384482B2AAAAAAAAD20284780000CA
:103ED000000010101028282844447C8282820000B0
:103EE00000003E428282423E42828282423E000086
:103EF00000003844828202020202828244380000BA
:103F000000003E424282828282828242423E000021
:103F10000000FE020202027E0202020202FE000015
:103F20000000FE020202027E020202020202000001
:103F30000000384482020202E2828282C4B8000099
:103F400000008282828282FE8282828282820000DD
:103F500000001010101010101010101010100000A1
:103F6000000020202020202020202022221C0000D1
:103F70000000824222120A06060A12224282000031
:103F8000000002020202020202020202027E00009D
:103F900000008282C6C6AAAA929292828282000001
:103FA00000008286868A8A9292A2A2C2C282000001
:103FB00000003844828282828282828244380000F9
:103FC00000003E42828282423E0202020202000061
:103FD0000000384482828282828282A244B8000039
:103FE00000003E42828282423E4282828282000001
:103FF00000007C828202041820408082827C0000C3
:104000000000FE1010101010101010101010000002
:10401000000082828282828282828282827C00008E
:104020000000828282444444282828101010000096
:1040300000009292929292AAAAAA44444444000098
:1040400000008282444428102828444482820000D0
:104050000000828244442828101010101010000024
:1040600000007E402020101008080404027E00009A
:1040700000780808080808080808080808087800F0
:104080000000929292FF92AAAAAA444444440000DB
:10409000001E1010101010101010101010101E0024
:1040A0000010284400000000000000000000000094
:1040B0000000000000000000000000000000FE0002
:1040C00000040810000000000000000000000000D4
:1040D0000000000000003C42407C424242BC000024
:1040E0000000020202023A4682828282463A0000C0
:1040F00000000000000078840202020284780000C0
:10410000000080808080B8C482828282C4B80000AF
:10411000000000000000384482FE020284780000A3
:104120000000700808087E08080808080808000051
:1041300000000000000058644242426458423C00C3
:104140000000020202023A4642424242424200005B
:1041500000001010000010101010101010100000BF
:1041600000001010000010101010101010100C00A3
:1041700000000202024222120A060A122242000033
:10418000000010101010101010101010101000006F
:104190000000000000006E929292929292920000B3
:1041A0000000000000003A46424242424242000003
:1041B00000000000000038448282828244380000FF
:1041C0000000000000003A46828282463A02020065
:1041D000000000000000B8C4828282C4B880800061
:1041E000000000000000740C040404040404000037
:1041F0000000000000003C42020C3040423C000045
:104200000000080808087E08080808080870000070
:10421000000000000000424242424242427C000054
:104220000000000000008282444428281010000092
:1042300000000000000082929292AA6C44440000A8
:104240000000000000008244281010284482000072
:1042500000000000000082824444282810100E0054
:104260000000000000007E4020100804027E0000D4
:10427000006010101010100C1010101010106000C2
:10428000001010101010101010101010101010004E
:10429000000608080808083008080808080806008A
:1042A0000000000000008C72000000000000000010
:1042B000002C0140000000400004004000080040C5
:1042C000205541525431204C6F6E67516975200D55
:1042D0000A000000205541525432204C6F6E675145
:1042E0006975200D0A0000000000000000000000B9
:1042F00000000000000000000000000000000000BE
:1043000000000000000000000000000000000000AD
:10431000000000000000000000000000000000009D
:10432000000000000000000000000000000000008D
:10433000000000000000000000000000000000007D
:104340000000000000000000232D302B20000000A2
:10435000686C4C0065666745464700003031323373
:104360003435363738394142434445460000000071
:1043700030313233343536373839616263646566DB
:044380000000000039
:10438400C409FC08E703E703C409C409C409C40950
:104394007800780078007800780078007800780059
:1043A40000000000010203040102030406070809D7
:1043B400000000000843000028430000E842000019
:1043C40000000000000000000000000000000000E9
:1043D40000000000000000000000000000000000D9
:1043E40000000000000000000000000000000000C9
:1043F40000000000000000000000000000000000B9
:1044040000000000000000000000000000000000A8
:104414000100000000D8B80560000000020406088E
:08442400300000200000000040
:00000001FF
