:100000006F00E04F13000000130000001300000019
:100010001300000013000000130000001300000094
:100020001300000013000000130000001300000084
:08003000130000007300100032
:100038006FF09FFC000000006F00E0496F00E0498E
:1000480000000000000000000000000000000000A8
:100058000000000000000000000000000000000098
:100068006FF09FF9000000006FF01FF9000000001A
:100078006FF09FF86FF05FF86FF01FF86FF0DFF721
:100088006FF09FF76FF05FF76F0080156F00E01D4E
:100098006F00E0206F0020216F0020216FF0DFF556
:1000A8006FF09FF56FF05FF56F00C03F6FF0DFF402
:1000B8006FF09FF46FF05FF46F00E01F0000000026
:1000C8000000000000000000000000006F00201E7B
:1000D8006F00A01E6F00E0206F00E0226F00602715
:1000E8006F00602F6F00E0306F00E0326FF0DFF0DC
:1000F8006FF09FF06FF05FF06FF01FF06FF0DFEFC1
:100108006FF09FEF6F0060316F0060316F008035D6
:100118006F00201A6FF05FEE6FF01FEE6FF0DFEDEB
:1001280000000000000000000000000000000000C7
:080138000000000000000000BF
:100140003D432A876373C3029377F700BDEFADE5A4
:10015000937606FF3D8ABA960CC34CC30CC74CC7B6
:100160004107E36BD7FE11E28280B306C3408A06E3
:100170009702000096966780A6002307B700A306A3
:10018000B7002306B700A305B7002305B700A304F3
:10019000B7002304B700A303B7002303B700A302EB
:1001A000B7002302B700A301B7002301B700A300E3
:1001B000B7002300B700828093F5F50F9396850072
:1001C000D58D93960501D58D61B79396270097023B
:1001D000000096968682E78086FA9680C1171D8F6A
:1001E0003E96E374C3F8A5B70545AD218547630482
:1001F000F500730020300545A52983C7218E93F7AC
:10020000F70F0547638AE7040545EF1090782393BD
:10021000A1860945EF10F0773305A0402394A1860D
:100220000545EF1070780945EF1010780396C185E9
:100230008395A18503958185EF20700E83D7E18595
:100240009DC3854513052006EF10406B83D7E185DC
:10025000FD17239FF18471BF13854193EF20B06692
:100260002381018E55B7814513052006EF100069E3
:1002700049B70945C52685476304F500730020305A
:10028000B707002083A7470709476388E7000547AA
:100290006388E7000945E92ED5B7EF104052DDBF6E
:1002A000EF10204AC5BF1145E126730020307300CE
:1002B0002030730020307300203073002030730032
:1002C00020309305000837350140130505C0EF00C5
:1002D000904119E173002030930500083735014043
:1002E000130505C0EF00F041F5B7854537350140EE
:1002F000130505C0EF00303F19E17300203085453C
:1003000037350140130505C0EF00B03FFDB7930539
:10031000000437350140130505C0EF00D03C01ED66
:100320009305000237350140130505C0EF00B03BCF
:1003300001ED7300203093050004373501401305AB
:1003400005C0EF00103CE9BF9305000237350140BE
:10035000130505C0EF00F03AE9BF89453735014084
:10036000130505C0EF0030381DE9914537350140D0
:10037000130505C0EF0030371DE9A14537350140B1
:10038000130505C0EF0030361DE9C1453735014082
:10039000130505C0EF0030351DE973002030894595
:1003A00037350140130505C0EF00B0357DBF9145DD
:1003B00037350140130505C0EF00B0347DBFA145BE
:1003C00037350140130505C0EF00B0337DBFC1458F
:1003D00037350140130505C0EF00B0327DBF8545BC
:1003E00037050040EF00303019E1730020308545BB
:1003F00037050040EF00F030CDBF854537050040A0
:1004000013050540EF00302E19E1730020308545BB
:100410003705004013050540EF00B02EFDB773000F
:1004200020307300203093055052374500401305AB
:100430000540EF00104519E173002030930550523C
:100440003745004013050540EF007048B70700200E
:1004500083A7470709476388E7000547E39EE7FC52
:10046000EF102029D1BFEF108030F9B7411122C61B
:10047000930550523755004013050580EF0070403A
:1004800009E532444101730020309305505237543E
:10049000004013050480EF00904313050480EF0033
:1004A000F03C1375F50FEF20903BE1BF0965E920A3
:1004B00085476304F500730020300965F128B7070C
:1004C000002083A7470709476388E7000547E394AF
:1004D000E7FEEF106028C5B7EF10C02FE9BF73002B
:1004E0002030014681450145EF206063DDBF4111A9
:1004F00006C6EF20602F0145B2404101828097017E
:10050000002093812137175100201301A1AF175507
:1005100000001305A542970500209385A5AE13861C
:10052000818363FAC5008322050023A055001105CD
:100530009105E3EAC5FE138581839385C1946377B2
:10054000B500232005001105E36DB5FE9302800878
:1005500073A0023097020000938242AE93E2120031
:1005600073905230EF20801797020000938262F858
:1005700073901234730020309317350063DA07004C
:10058000B707024083A707407D8D3335A0008280E6
:10059000B70702409C43CDBF9317350063D70700D0
:1005A000B707024023A2A7408280B7070240C8C312
:1005B00082805C45D9C3B70601409387064003A6F5
:1005C000064018411347F7FF718F23A0E64083A62A
:1005D000464018411347F7FF758FD8C358413E97DF
:1005E00014431041D18E14C3944718411347F7FFA9
:1005F000758F98C7D44718411347F7FF758FD8C731
:100600001C454147638CE70037070140130707404B
:10061000BA9798431441558F98C38280B707014019
:1006200003A787401441558F23A4E74003A7C74081
:100630001441558F23A6E74082805841B7070140F7
:10064000938707403E9714431C4193C7F7FFF58FEC
:100650001CC3828037070140832707400327474197
:10066000698F09C77D8D3335A00082800145828066
:10067000B707014023AAA74082809C4593F8F70062
:10068000C18B81C7DC41B3E8F80083C70500A9CB63
:1006900010418147054E3D4F930E8002930F800419
:1006A000214329A054C98507638B6702B316FE0056
:1006B00003D70500758FE398E6FE139727003318DC
:1006C000EF001348F8FF3376C8003397E800598EDF
:1006D0009845E309D7FDE318F7FD14C9E9B710C140
:1006E00003D705009307F00F63FDE7045041A147CE
:1006F000054EBD4F130F8002930E8004414331A07D
:1007000054C915A88507638D6702B316FE0003D789
:100710000500758FE398E6FE1397270001173398BD
:10072000EF001348F8FF3376C8003397E800598E7E
:100730009845E307E7FD9845E316D7FD14C9D9B7F7
:1007400050C1828019C20CC982804CC982802A861D
:1007500063400504B7070140DC4393160501C182DD
:10076000370730003378E5006308E8021317B50057
:10077000635C0704135705011378F7000D4733171F
:1007800007011347F7FF7D8FB707000FD98F0DA023
:10079000B7070140DC4FD1B7370700F17D17F98F5C
:1007A000B708014003A848003377E80023A2E80017
:1007B00091C5558112053395A600C98F6342060283
:1007C000370701405CC382801357550112073397E6
:1007D000E6001347F7FF7D8FB707000FD98FC9BF1A
:1007E000370701405CCF828093F735008A0713F703
:1007F000C50FB7050140BA9594453D473317F7003B
:100800001347F7FF758F98C598453315F500598D37
:1008100088C58280B7E700E0BC47898B95CF8346C7
:10082000050083472500920793F7F70F37E700E0AD
:1008300036972300F7405C41B5C70347050093573F
:1008400057008546B396E600938707048A0737E783
:1008500000E0BA9794C38280B7E700E0BC47898B79
:10086000F9FB034715008547630FF7008346050032
:1008700083472500920793F7F70F37E700E0369795
:100880002300F7404DBF83460500834725009207AC
:1008900093E707F893F7F70F37E700E03697230061
:1008A000F74051BF03470500935757008546B3965D
:1008B000E600938707068A0737E700E0BA9794C3F4
:1008C0008280B7170240DC43B18B11476384E7088D
:1008D00021476387E70899C7B7177A0093870720EE
:1008E0001CC131A0B7177A00938707201CC13716A7
:1008F00002405C429183BD8B37070020130707003D
:10090000BA9783C607001C41B3D7D7005CC15442D5
:10091000A1829D8ABA9683C60600B3D6D70014C5B5
:100920005442AD829D8A369703470700B3D7E7004C
:100930005CC5584239839376370037070020130788
:1009400007073697034707001377F70FB3D7E70278
:100950001CC98280B7177A00938707201CC141BF4A
:10096000371702405C435843C983BD8B89079316F0
:10097000F70063CA060037173D0013070790B387D7
:10098000E7021CC1ADB73717024058439316E70082
:1009900063DA060037173D0013070790B387E702B5
:1009A0001CC1B1B737177A0013070720B387E702D6
:1009B0001CC135BF99C5371702401C4F5D8D08CF4C
:1009C0008280B7170240984F1345F5FF798D88CF85
:1009D000828099C5371702405C4F5D8D48CF828079
:1009E000B7170240D84F1345F5FF798DC8CF8280E5
:1009F000035705008D67938707047D8F83D7050014
:100A000083D62500D58F83D64500D58F83D6650044
:100A1000D58F83D68500D58F83D6A500D58F83D675
:100A2000C500D58F83D6E500D58FD98F2310F5006B
:100A30000357C501FD779387F77FF98F231EF500D4
:100A400083D705012318F500828081C983570500EB
:100A500093E707042310F500828083570500C2073F
:100A6000C18393F7F7FBC207C1832310F50082808F
:100A700083570500C207C18337370140130707C0FA
:100A80006300E504370700406307E50613070740E6
:100A90006303E5063717004013070780630DE5047D
:100AA00093F7F7CF03D76500D98F2310F50083D7CD
:100AB00045002316F50283D705002314F50285A00F
:100AC00093F7F7F803D72500D98F93F7F7CF03D71C
:100AD0006500D98F2310F50083D745002316F50252
:100AE00083D705002314F50203C78500B7370140FB
:100AF0002398E7C22DA093F7F7F803D72500D98FE5
:100B000093F7F7CF03D76500D98F2310F50083D76C
:100B100045002316F50283D705002314F502854707
:100B2000231AF500828083570502C207C183F99B0F
:100B3000C207C1832310F50283570502C207C18390
:100B400083564500C206C18203578501420741838F
:100B50001377C7F803D60500518FF59B03D68500A0
:100B600003D8250033660601D18F373601401306BE
:100B700006C0630DC5002312D500231CE50003D772
:100B80006500231AE5022310F5028280DD9B03D65F
:100B9000A500D18FED9B03D64500D18F93F6F6CFFC
:100BA00003D6C50003D8E50033660601D18EE1B750
:100BB00083570502C207C183BD9BC207C1832310AF
:100BC000F50283570502C207C1830356450042065A
:100BD00041828356850165771307F7CF758F83D6DA
:100BE0000500A206558F4207418393F7F7FD03D80E
:100BF000850083D62500B3E606019206D58FC2078D
:100C0000C183B7360140938606C0630DD500231219
:100C1000C500231CE50003D76500231CE502231053
:100C2000F502828093F7F7F783D6A5009206D58F59
:100C3000C207C18393F7F7FB83D645009206D58F91
:100C4000C207C183FD769386F63F758E03D8C50033
:100C500083D6E500B3E606018A06558E4206418238
:100C60007DB783570502C207C18393F7F7EFC20729
:100C7000C1832310F50283570502C207C1830356BF
:100C80004500420641820357C5014207418313775D
:100C9000C7F883D60500558F93F7F7DF03D8850093
:100CA00083D62500B3E60601A206D58FC207C1830D
:100CB000B7360140938606C0630DD5002312C500E8
:100CC000231EE50003D76500231EE5022310F5026D
:100CD0008280FD769386F67FF58F83D6A500A206E7
:100CE000D58FC207C18393F7F7BF83D64500A2060D
:100CF000D58FC207C183F576FD16758E03D8C50062
:100D000083D6E500B3E606019206558E420641827F
:100D100075B703570502FD77FD17F98F2310F5020C
:100D20000358050203564500420641828357C50118
:100D300065771307F7CF7D8F83D60500A206558F01
:100D400042074183F977FD17B3F7070103D8850000
:100D500083D62500B3E60601B206D58FC207C1834C
:100D6000B7360140938606C0630DD5002312C50037
:100D7000231EE50003D765002310E5042310F502C8
:100D80008280F176FD16758E83D6C5009A06558E43
:100D900042064182E1BFFD572312F50023100500F2
:100DA000231305002311050023040500828081C957
:100DB0008357050093E717002310F50082808357BF
:100DC0000500C207C183F99BC207C1832310F50048
:100DD000828081C9835745042167D98F2312F50486
:100DE000828083574504C607C5832312F504828099
:100DF000035885004208135808010357850142072C
:100E0000418383570502C207C183137888FFB36506
:100E1000B8001377C7CF1367171093F7D7FD920663
:100E2000558ED18FC207C1832314B500231CE50062
:100E30002310F502828083578501C207C183DD9BA1
:100E4000DD8D231CB500828003578501FD779387D4
:100E5000F77FF98FA205CD8FC207C183231CF50050
:100E600082808357C501C207C183DD9BDD8D231EB0
:100E7000B50082800357C501FD779387F77FF98F0F
:100E8000A205CD8FC207C183231EF5008280835740
:100E90008501C207C183ED9BDD8D231CB5008280D7
:100EA00083578501C207C18393F7F7BFA205CD8F92
:100EB000C207C183231CF50082808357C501C20786
:100EC000C183ED9BDD8D231EB50082808357C50154
:100ED000C207C18393F7F7BFA205CD8FC207C183B5
:100EE000231EF5008280835705010355C500420586
:100EF0004181ED8F89C76D8D3335A000828001451A
:100F0000828093C5F5FFC205C1812318B500828098
:100F1000797106D622D426D22A84AE8403570501DD
:100F2000F577FD17F98F03D76500D98F2318F500E2
:100F30000357C500FD779387379FF98F03D7450087
:100F4000D98F03D78500D98F03D7A500D98F231652
:100F5000F50083574501C207C18393F7F7CF03D745
:100F6000C500D98F231AF5006800A13AB7470140A0
:100F7000938707806301F40652478357C400C20772
:100F8000C18763CC070493171700BA978E07BA97E7
:100F900098400A07B3D7E70213074006B3D6E70223
:100FA0009206B3F7E7020357C40042074187634044
:100FB000070492079387270313074006B3D7E70276
:100FC000BD8BD58FC207C1832314F400B2502254C5
:100FD00092544561828062474DB793171700BA97C4
:100FE0008E07BA9798400607B3D7E70275B71397ED
:100FF000370013072703930740063357F7021D8B6B
:10100000B367D700C1B781C98357C5000967D98FB6
:101010002316F50082800357C500F977FD17F98F75
:101020002316F500828093F7F50F95830547B315D6
:10103000B700638CE700894613074501638AD70030
:1010400019CA1C43DD8D0CC382801307C500CDBFB8
:1010500013070501F5B71C4393C5F5FFFD8D0CC3C0
:10106000828093F5F51F2312B50082800355450059
:101070001375F51F8280035505006D8D3335A00073
:10108000828093F7F50F958385463397B600638882
:10109000D70289466389D702835745017D8F03555F
:1010A000050093170501C183014509CBA1810545C1
:1010B000B315B50033F5B7003335A00082808357F0
:1010C000C5007D8FE9BF835705017D8FC9BFA18111
:1010D0008547B397B70093C7F7FFC207C1832310B3
:1010E000F5008280011106CE22CC26CAA307A100FA
:1010F000956703A48767A16444C891675CC8854667
:1011000001469305F1000145EF10803004C8F2401C
:101110006244D24405618280011106CE22CC26CAE7
:10112000A307A100956703A48767A16444C89167DA
:101130001CC885461306F100B2850145EF10402D0D
:1011400004C8F2406244D24405618280011106CE97
:1011500022CC26CA956703A48767A16444C8935725
:1011600085002306F100A306A10091671CC88946EB
:101170007000B2850145EF10A02904C8F240624416
:10118000D24405618280011106CE22CC26CA4AC80B
:101190004EC69307F00963EEA7062A84AE8432890F
:1011A000B6899307F00763E5B7089307F00963E092
:1011B000C70A9307F00763EBD70A1305A0021D3790
:1011C0000145993F130514001375F50FB13701451B
:1011D000A137130519001375F50F3D3F1305B00234
:1011E00011370145153F138524001375F50F2D3771
:1011F00001451D37138529001375F50F313F130580
:10120000C002CD35F2406244D2444249B249056140
:101210008280B7560000938646001566130646FF87
:10122000930570053755000013058501EF207038D0
:10123000B75600009386C6041566130646FF93054D
:1012400080053755000013058501EF209036B7560D
:101250000000938606061566130646FF9305A00553
:101260003755000013058501EF20B034B756000054
:10127000938606071566130646FF9305B005375596
:10128000000013058501EF20D032011106CE22CCDB
:1012900026CA4AC84EC6AA849306F0071306F00968
:1012A00081450145CD35130900089309000A21A0A5
:1012B0007D19630A09004E842685493D7D14137407
:1012C000F40F7DF8F5B7F2406244D2444249B24986
:1012D00005618280011106CE22CC26CA4AC84EC6BC
:1012E000014881471307F004930630020546814503
:1012F0000145EF1040029306003105468545130570
:10130000F004E52193060031014685451305D0041C
:10131000E92993060031014685451305E004F121D2
:10132000956783A98767096923AA290103A5C18451
:10133000130409F433558502931725003E950605DD
:101340008145EF10801023A8290103A5C1843355DE
:101350008502931745003385A7400E058145EF10A0
:10136000C00E4545413303A5C1843355850293170B
:1013700045003385A7400E058145EF10000D13058C
:10138000100B8D330545493B1305C002713313051E
:10139000D00259331305200BB1330545B53B130576
:1013A000C0029D3B1305D002853B1305300B1D3B4E
:1013B00005459D331305C00285331305D002A93BB3
:1013C0000545993B1305C002813B1305D002A933A3
:1013D0001305400B013B1D4581331305000C1933E8
:1013E0001305200A153B0945053B130540082D331D
:1013F0001305100CC5391305500C393B1305200C8F
:10140000D5312945113B0145013B1305300CD93934
:101410001305A00811331305A002FD391305400C74
:10142000D1311305A008CD391305E00EF5311305B0
:10143000500C4D393945CD31130560036531130525
:101440000006D9391305000E71393D45F131694562
:10145000E1313D45D1316145C1311305F0026D39AE
:10146000130580025539130500027D311305200252
:1014700065317D4555316D4545311305300269397A
:10148000130570035139014541391D457131094535
:101490006131414551311305100EA9313D45AD393A
:1014A0006D459D393D458D395D45BD311305300391
:1014B000A5311305C0028D3113059002B139130512
:1014C000E002993913050003813913050003A9319E
:1014D0001305900391311305F0033D3901452D3972
:1014E0001D451D390D450D3941453D311305A002FE
:1014F000D53E014515310945053101453139130501
:10150000200819391305B002F13E014531310D456E
:1015100021310145113113053008FD3E1305000F3F
:10152000D1360545D53E1305600F6D3E0145ED36BC
:101530001305A003453E1545C536130590025D36DB
:1015400041657D159933F2406244D2444249B24923
:1015500005618280797106D622D426D24AD04ECE39
:1015600052CC56CA5AC85EC662C466C26AC0AA8B4A
:101570002E89138D05011206330BB640930C7500AE
:10158000956A938A0A08214CC169138AF9FF9389E5
:10159000098015A052855D3E85807D141374F40F7B
:1015A00001C893F71400FDD74E85EFF03FBAEDB7B1
:1015B0000509630EA901CA866686CA855E85E1367D
:1015C000B3076901D69783C407E06284D9BFB250DC
:1015D000225492540259F249624AD24A424BB24BC7
:1015E000224C924C024D45618280011106CE22CCE4
:1015F00026CA4AC84EC6B2890306060015C62A8402
:10160000920513990501135909018144CA85228560
:1016100091378504C204C180B3879900038607000F
:101620002104420441807DF2F2406244D2444249A6
:10163000B24905618280797106D622D426D24AD079
:101640004ECE2A842E89B284634A06089205C205CA
:10165000C18113060002FD3D896793870771B3C7F7
:10166000F4022304F1001307803E33C7E402A947C4
:101670003367F702A304E1001307400633C7E4020F
:101680003367F7022305E10033C7F4023367F7023B
:10169000A305E100B3E4F402230691001209420914
:1016A0001359090124002104420441809309D10007
:1016B00003C604001306060362066186CA852285F6
:1016C000513D8504210442044180E39334FFB2502C
:1016D000225492540259F249456182809205C20512
:1016E000C1811306D002BD35B3049040C204C18449
:1016F000A5B7956783A7476D03D647009386F18307
:1017000083C706001387C1833E972300C700850760
:1017100093F7F70F2380F6000547638BE7000D472B
:101720006397E700A38F018205472380E1848280CD
:1017300003C7C1839307500AE30BF7FEA38F01820F
:101740008280B707024009671307874BB8C7F84381
:1017500013671700F8C382800547238CE182B70620
:101760000240FC4241677917F98FFCC2828095677D
:1017700083A7476D03D647009386818483C70600FD
:10178000138741843E972300C700850793F7F70F1F
:101790002380F6000547638BE7000D476397E7005A
:1017A000238401840547A383E184828003C74184A5
:1017B0009307500AE30BF7FE238401848280B70766
:1017C0000240056713070796B8C7F8431367170069
:1017D000F8C382800547A380E184B7060240FC423B
:1017E00041677917F98FFCC28280130700086306EE
:1017F000E510797106D622D426D24AD04ECE52CCEC
:101800009357550013F977001374F501368AB2899E
:10181000AE848DCB05476389E7060947638BE706EE
:101820000D47638DE70611476380E708154763831B
:10183000E7081947639CE700854513050010EFF0A2
:101840006F9729A085451145EFF0CF9685473394D2
:10185000870042044180231281006383F40693765B
:10186000FA0F36C613172900956793870767BA974B
:101870004C008843EFE07FE0B2502254925402596A
:10188000F249624A4561828085452145EFF08F9299
:1018900075BF85454145EFF0EF914DBF8545130577
:1018A0000002EFF02F915DB7854513050004EFF0BE
:1018B0006F9069BF854513050008EFF0AF8F79B7CA
:1018C00093170A01C183A1839DE78D473EC4937698
:1018D000FA0F36C613172900956693860667369762
:1018E00004434C002685EFE05FD94E86A28526850D
:1018F000EFE05FE551B73EC4D9BF828093575500F2
:101900009D8B7D890547638DE5008A071567130761
:101910000767BA97984385473395A70048CB8280DD
:101920008A07156713070767BA9798438547339562
:10193000A70008CB8280011106CE22CC26CA4AC855
:101940002A84AE84328985450545EFF0AF86CA8684
:10195000014681452285513D135554009375F4018C
:101960001375F50FEFE05FE885473394870022C0D9
:1019700002C226C43EC60A85EFE0BFC3F2406244FD
:10198000D244424905618280B7E700E07D5723A039
:10199000E71823A2E7188280011106CE2304A100D4
:1019A000A304B1002305C10036C62800EFE09FE67E
:1019B00037E600E01842FD76F98E03A7818F558F38
:1019C00023ACE18E58429387818F12071183D44351
:1019D000558FD8C303C7870085476305F700F240DA
:1019E000056182805537E5BF83A6818F37E700E028
:1019F0002320D7109387818FDC432322F710828026
:101A0000411106C622C49387818F85462384D7005F
:101A100003A4818FDC435D8C33348000B53722858D
:101A2000B24022444101828011C18280411106C628
:101A300023800190553FB24041018280411106C68A
:101A400093070020630BF51C63F0A7049307302174
:101A50006300F52263E5A70E93073020630FF51CA2
:101A600063FFA70A930710216302F51E63E9A71E0F
:101A7000930700216316F5129306803101468545D0
:101A8000130560049D3329AA93071010630DF51206
:101A900063FAA702930700116307F51463F2A70620
:101AA000930720116302F5166367F514930730114D
:101AB0006318F50E93068031014685451305B00283
:101AC0002D33F9A889476300F50E63F0A7028D470F
:101AD0006303F50E930700106314F50C9306803131
:101AE000014685450145113365A845C585476319FC
:101AF000F50A93068031014685452545FD314DA007
:101B0000930720106309F50C93073010631AF5084A
:101B100093068031014685450D45C13951A0930793
:101B200010206304F51093072020631BF50693062D
:101B300080310146854513050002453995A093077C
:101B400000306309F51463F5A7029307203063059D
:101B5000F516636AF514930730306313F5049306A2
:101B600080310146854513059002EFF01FC80DA88E
:101B7000930700226307F510930710226312F50202
:101B8000930680310146854513055002EFF0FFC5ED
:101B900001A893068031014685452145EFF0FFC439
:101BA000B240410182809306803101468545294536
:101BB000EFF0BFC3F5B793068031014685452D454B
:101BC000EFF0BFC2F1BF9306803101468545054560
:101BD000EFF0BFC1F1B79306803101468545094555
:101BE000EFF0BFC075BF93068031014685453D4586
:101BF000EFF0BFBF75B793068031014685451305E9
:101C00003002EFF09FBE69BF9306803101468545E3
:101C10001305A002EFF07FBD61B793068031014646
:101C200085451945EFF07FBCA5BF9306803101467D
:101C300085451D45EFF07FBBA5B793068031014672
:101C4000854513051002EFF05FBA99BF9306803106
:101C50000146854513057004EFF03FB991B793062F
:101C600080310146854513058004EFF01FB80DBF94
:101C7000930680310146854513059004EFF0FFB6C9
:101C800005B7930680310146854513054002EFF004
:101C9000DFB539B7930680310146854513056002EB
:101CA000EFF0BFB4F5BD93068031014685451305BD
:101CB0007002EFF09FB3EDB5930680310146854584
:101CC00013058002EFF07FB2E1BD397106DE22DC40
:101CD00026DA4AD84ED6AA84AE893289853313D4FF
:101CE000840075C085476307F40E8947630CF410C0
:101CF0008D47630FF41285450545EFE0BFCBB7175D
:101D00000240DC43C983BD8B37177A0013070720D5
:101D1000B387E7023727F40013070740BA9723A6D3
:101D2000F18433D73703418393051700B385350317
:101D3000B3D7B7029386F7FF231CD100231AE10023
:101D4000231D0100231B0100230E010013070007C0
:101D50002312E10005472313E10023140100C20709
:101D6000C183B3872703096713070771B3D7E70256
:101D70002315F10089472316F1002317F1002318DA
:101D80000100231901000A049567938707683E94B0
:101D900000404C082285EFE0BFCD8D88F9C0854713
:101DA000638CF40E89476387F4104C002285EFE0C2
:101DB0005FF6A1452285EFF0EF8B93050040228569
:101DC000EFF0CF905DA88545056513050580EFE030
:101DD0007FBE15B785450545EFE0BFBF8545054585
:101DE000EFE05FBD93D7440041476388E704454770
:101DF000E397E7F085453705180013050530EFE058
:101E00001F95F5BD85450945EFE0BFBC85450545F6
:101E1000EFE05FBA93D74400130710026397E7021D
:101E2000854537151A00130505C0EFE05F92C1BD67
:101E300085451145EFE0FFB97DBD854537051600A5
:101E400013050504EFE0BF905DBD13072002E39882
:101E5000E7EA854537151A0013050580EFE03F8F47
:101E600079BD4C002285EFE01FCCA1452285EFE033
:101E70009FFC91452285EFF08F8185452285EFE01B
:101E80001FF385452285EFE0DFF4F2506254D2540F
:101E90004259B259216182804C002285EFE05FD126
:101EA000A1452285EFE05FFA930500402285EFE02F
:101EB0003FFFE1B74C002285EFE0BFDAA145228564
:101EC000EFE03FFA91452285EFE03FFF7DB71357E2
:101ED000850093172700956693860668B6979C43FE
:101EE00083D7C702B385F502896793870771B3D596
:101EF000F50201EF0D89B75700109387D7B03E95D3
:101F00000A05C205C1810CC1828085476309F700BB
:101F100089476300F7028D476308F70282800D89C5
:101F2000B7070010B5073E950A05C205C1810CC16F
:101F300082800D89B70700109387D7103E950A0558
:101F4000C205C1810CC182800D89B707001093873B
:101F5000D7203E950A05C205C1810CC1C1B7411108
:101F600006C622C42E841DC989476308F506914719
:101F7000630CF50699476300F508A1476304F5086B
:101F8000A9476309F508B1476310F5029146014678
:101F9000814513056002EFF05F8539A09146014647
:101FA00081452145EFF07F848547630DF4068D4719
:101FB0006301F40895476305F4089D47630AF40834
:101FC000A547630EF408AD476303F40AB5476308F9
:101FD000F40AB24022444101828091460146814583
:101FE0000145EFF09F80C9B79146014681453D45C7
:101FF000EFF0AFFF55BF9146014681451945EFF01F
:10200000CFFE5DB791460146814513056004EFF0B0
:10201000CFFD59BF91460146814513054002EFF0BF
:10202000CFFC59B79146014681452545EFF0EFFBBE
:102030004DB79146014681450545EFF00FFB51BF75
:1020400091460146814513053002EFF00FFA51B772
:102050009146014681451D45EFF02FF99DBF914600
:102060000146814513057004EFF02FF89DB79146A6
:102070000146814513055002EFF02FF799BF9146B5
:102080000146814513057002EFF02FF699B7011153
:1020900006CE22CC26CA4AC82A84AE84328929C5F3
:1020A0008547630AF5048947630CF5048D47630E81
:1020B000F504CA852685653585450545EFE09F8F82
:1020C00091476389F404A147638AF40AA947639698
:1020D000F404AD476313F904854537151A00130559
:1020E0000580EFE0CFE615A8854505651305058059
:1020F000EFE05F8C7DBF85450545EFE09F8D55BFC7
:1021000085450945EFE0FF8C6DB785451145EFE04A
:102110005F8C45B79547630BF9044800EFE0BFC7F4
:1021200085472312F100FD572314F1002315010008
:1021300023130100230601000A04956793870768AB
:102140003E9400404C002285EFE09F92814601467C
:1021500089452285EFE0DFC985452285EFE03FC54F
:10216000F2406244D2444249056182808545370588
:10217000180013050530EFE08FDD45B7A547E31ED6
:10218000F9F8854537151A00130505C0EFE02FDC77
:1021900069B70A05956793870768AA979C4303D593
:1021A00047024205418582800A0595679387076843
:1021B000AA979C43239207028280411106C622C43B
:1021C00026C24AC0AE84328436892DCDC14763030E
:1021D000F508930700026318F50893068031054659
:1021E00085451305D002EFF04FE08547638CF40876
:1021F000C5476381F40A930710026396F40A9306B5
:102200008031054685451305F002EFF00FDE894762
:10221000630AF40AC947630FF40A930720026304B0
:10222000F40C930730026319F40C93060031054651
:1022300085454A85EFF06FDBB24022449244024963
:102240004101828093068031054685451545EFF0B2
:10225000CFD961BF9306803105468545130530020D
:10226000EFF0AFD859B7B75600009386066A1566E7
:10227000130606699305D002375500001305456A19
:10228000EF10303393068031054685451D45EFF04C
:10229000CFD5B5BF9306803105468545130550025D
:1022A000EFF0AFD4ADB7B75600009386066A156657
:1022B0001306066993052003375500001305456A88
:1022C000EF10302F93068031054685451945EFF014
:1022D000CFD1A1BF93068031054685451305400245
:1022E000EFF0AFD099B793068031054685451305C9
:1022F000E002EFF08FCF15BFB75600009386066A55
:10230000156613060669930580033755000013050B
:10231000456AEF10102A397106DE22DC26DA4AD827
:102320004ED652D456D25AD02A84AE89328AB68A30
:102330003A8BBE84428941C585476308F508DA8631
:102340005686D2854E85953D231601009307401091
:102350002317F1002318010085476383F40893973E
:102360008401E187ADCB89476382F4088D4763859B
:10237000F40893070020231BF1000E09231C210100
:10238000231D01009D47231EF1000A041385C1820D
:10239000229500416C002285EFE08FE5C147638400
:1023A000F90685452285EFE04FEAF2506254D25497
:1023B0004259B259225A925A025B21618280854564
:1023C00005650505EFE00FDF9DBF85451165050536
:1023D000EFE02FE0ADB723190100231A010051BF30
:1023E000231901008547231AF10061B78947231992
:1023F000F100231A0100B5BF89472319F100854771
:10240000231AF100BDB785450545EFE04FB451BF34
:10241000AE969387C1820A053E956387B60285050D
:10242000184183C7F5FF2316F70083578700898B70
:10243000EDDF65D683578700858BEDDF8357C700B7
:102440002300F6000506D1BF8280B7F700E023A085
:10245000070023820700A382070023830700A383CA
:10246000070023840700A384070023850700A385B2
:102470000700054798C337F700E081475443E39FBF
:10248000B7FEE37DD5FE8280411106C60DE5854786
:102490006385F500B2404101828093068031014698
:1024A00085452545EFF06FB49146014681452945A4
:1024B000EFF0AFB3C5B789476309F502C1476306BB
:1024C000F504930700026310F50693068031014678
:1024D00085451305A002EFF04FB1914601468145B5
:1024E0001305B002EFF06FB075B793068031014667
:1024F000854513056002EFF04FAF914601468145D7
:1025000013057002EFF06FAE71B79306803101468C
:1025100085450945EFF06FAD9146014681450D4572
:10252000EFF0AFAC85BF93072002E315F5F69306F5
:102530008031014685451305A004EFF00FAB9146AD
:10254000014681451305B004EFF02FAAA1B77971B8
:1025500006D622D426D24AD04ECE2A84AE89B28460
:10256000368985450545EFE0EFC4CA852685293FB4
:1025700089476381F402930720026390F402930772
:102580003002631CF9008545370514004105EFE072
:102590000F9C21A08D47630AF90429CC854763006D
:1025A000F40689476303F4064EC023120100231387
:1025B00001002314010023160100B1472315F10087
:1025C0000A0495679387076D3E9400408A852285AB
:1025D000EFE01F9485452285EFE0FFA2B250225420
:1025E00092540259F2494561828085451145EFE0D8
:1025F0000F9665B785451165EFE0CFBB75B785458B
:1026000037050200EFE0EFBC45B78545370504000C
:10261000EFE02FBC51BF411106C622C426C22A8456
:10262000AE841317250095679387076DBA97054603
:10263000930550528843EFE01F9FA68601468545CB
:1026400013055403EFF04FB5B240224492444101C8
:102650008280411106C6B7170240DC43C983BD8B97
:1026600037177A0013070720B387E7023727F400EC
:1026700013070740BA9723A6F18485460146F16502
:10268000938505200145E135B24041018280011169
:1026900006CE22CC26CA4AC84EC6B2896358C002AA
:1026A000AE843389C500956703A4076D93050004C4
:1026B0002285EFE05F9C7DD985048385F4FFC20508
:1026C000C1812285EFE0FF99E31299FE4E85F24029
:1026D0006244D2444249B249056182804111B71730
:1026E000024098431367170098C3D843B706FFF812
:1026F000758FD8C39843B706F7FEFD16758F98C33C
:102700009843B706FCFFFD16758F98C3D843B706EC
:1027100081FFFD16758FD8C337079F0098C702C485
:1027200002C69843C166558F98C337160240B70654
:102730000200130700501C42F58F3EC6A2478507D2
:102740003EC4B24781E7A247E397E7FEB7170240CE
:102750009C431397E700635A070085473EC63247FC
:1027600085476306F7004101828002C6CDBFB727C7
:10277000024098431367070198C39843719B98C31D
:1027800098431367270098C3B7170240D843D8C3AC
:10279000D843D8C3D843D8C3D843B706C1FFFD1622
:1027A000758FD8C3D843B7062500558FD8C3984333
:1027B000B7060001558F98C3371702401C43939604
:1027C0006700E3DD06FEB7170240D843719BD8C30C
:1027D000D84313672700D8C3B71602402147DC420D
:1027E000B18BE39EE7FE41B7797106D622D426D29B
:1027F0004AD04ECE52CC56CA5AC85EC6EFF04FA051
:10280000EFF03FE583A7C1840967130707F4B3D747
:10281000E7021305803E3385A7028145EFF0FFC232
:102820001922A52A93060031014685451305200685
:10283000EFE0BFFB13068004A1450145EFF0AF8F29
:102840008546054685455945EFF00F95854509456F
:10285000EFF07FDC85460146814513057003EFF0FC
:10286000AF93375700000327076E23A4E18E375735
:1028700000000327476E23A2E18E3757000003278D
:10288000876E23AAE184375700000327C76E23A869
:10289000E1840145EFF04F99930B80F8375B00001E
:1028A000B75A0000B7590000239C718583D7418631
:1028B000B307F040239EF18413060B6F8145014559
:1028C000EFE0BFD203968185814513050006EFE056
:1028D0009FD613868A6F85450145EFE01FD1039689
:1028E000A185854513050006EFE0FFD41386097026
:1028F00089450145EFE07FCF0396C18589451305E2
:102900000006EFE05FD337560000130686708D4552
:102910000145EFE09FCD039641868D4513050006E6
:10292000EFE07FD151B7411106C61D28EFE09F9A15
:102930009306100213060002B71507009385058061
:102940000945EFF0DFC0154691450545EFF02FF43E
:102950002D46A9450945EFF08FF3B2404101828031
:10296000411106C693068004014681451305800483
:10297000EFE0BFE79306800401468145130590040C
:10298000EFE0BFE69306800401468145130520026F
:10299000EFE0BFE5B24041018280411106C622C48A
:1029A00093060031014685451305A004EFE0FFE3DF
:1029B000014611649305842613050030EFF0EFB053
:1029C00093060031014685451305B004EFE0FFE1B1
:1029D00001469305842613051030EFF00FAF9306E0
:1029E0000031014685451305C002EFE01FE00146B6
:1029F0009305842613052030EFF02FAD93060031A8
:102A0000014685452145EFE05FDE014693058426BA
:102A100013053030EFF06FABB240224441018280A9
:102A2000011106CE22CC26CA4AC84EC6AA893689CA
:102A3000B305B04093940501C1843306C04013141C
:102A4000060141846356A00681451305A004EFE00A
:102A5000FFEACE8513050030EFF06FC7635890068C
:102A600081451305B004EFE07FE9A685130510301A
:102A7000EFF0EFC5635A800681451305C002EFE011
:102A8000FFE7A28513052030EFF06FC4635C2007D9
:102A900081452145EFE09FE6CA8513053030EFF010
:102AA0000FC3F2406244D2444249B2490561828078
:102AB00085451305A004EFE07FE4896593850571E2
:102AC000CE9513050030EFF08FC049BF8545130543
:102AD000B004EFE0BFE2896593850571A695130503
:102AE0001030EFF0CFBE79B785451305C002EFE097
:102AF000FFE0896593850571A29513052030EFF0FD
:102B00000FBD69B785452145EFE05FDF8965938596
:102B10000571CA9513053030EFF06FBB59B73971A5
:102B200006DE22DC26DA4AD84ED652D456D25AD005
:102B30005ECE62CC66CA6AC86EC642054181C205D5
:102B4000C181330AB500420A135A0A014206418282
:102B5000330BCA00420B135B0B4123956187898DB0
:102B6000C205C181B38AC540C20A93DA0A412396DD
:102B70005187330ACA40420A135A0A4123974187B0
:102B8000B2959399050193D909412398318703950B
:102B9000818683D5E18D03D6C18D9387218703C7B5
:102BA00007009316170013874190369783D66186E6
:102BB0002310D70003C7070093161700138701914E
:102BC00036972310A70003C7070093161700138733
:102BD000C19136972310B70083C7070013971700DA
:102BE00093878192BA972390C70083C7318793F761
:102BF000F70F1147636BF70013873187834707008F
:102C0000850793F7F70F2300F7009387218703C702
:102C1000070005071377F70F2380E70083C7070036
:102C200093F7F70F11476374F70023890186138721
:102C300041908357270083560700B6978356470075
:102C4000B69703556700AA9703558700AA97C2074E
:102C5000C187239AF18C138701910359270083566A
:102C60000700369983564700369983566700369990
:102C7000035787003A99420913590941239B218D33
:102C80001387C1918354270083560700B694835657
:102C90004700B69483566700B69403578700BA94EA
:102CA000C204C184239C918C138781920354270012
:102CB0008356070036948356470036948356670040
:102CC0003694035787003A9442044184239D818CB3
:102CD000938B318703C50B001375F50F33C5A7021E
:102CE000EF0070792A8D23AAA18A03C50B00137502
:102CF000F50F3345A902EF001078AA8C23ACA18A06
:102D000003C50B001375F50F33C5A402EF00B076B1
:102D10002A8923AEA18A03C50B001375F50F33452D
:102D2000A402EF0050752A8C23A0A18C5A85EF00D5
:102D30009074EA85EF009035AA8423A2A1881384B9
:102D40004189032D0400EA85EF00503483A5818179
:102D5000EF00D00A2A8B83A581802685EF00100A18
:102D6000AA855A8531292A8BEA856A851129AA857F
:102D70002685EF00B031938B418A83A50B00092192
:102D800083A54187EF009007AA855A85D52E938D9C
:102D9000418C83A50D00ED262A8B23A0AD0023A036
:102DA000AB0104C05685EF00106DE685EF00102ED4
:102DB000AA8423A4A18813848189832C0400E68536
:102DC000EF00D02C83A5C181EF005003AA8A83A510
:102DD000C1802685EF009002AA8556855526AA8ACD
:102DE000E6856685712EAA852685EF00302A938BAD
:102DF000818A83A50B00692683A58187EF001000D7
:102E0000AA855685B52E138D818C83250D008D2EB8
:102E1000AA8A2320AD0023A09B0104C05285EF00A5
:102E20009065CA85EF009026AA8423A6A188138402
:102E3000C189032A0400D285EF00502583A50182B1
:102E4000EF00C07B2A8983A501812685EF00007BE6
:102E5000AA854A853526AA8BD28552851526AA854C
:102E60002685EF00B0221389C18A83250900092E27
:102E700083A5C187EF008078AA855E851126938C93
:102E8000C18C83A50C00ED2CAA8B23A0AC002320C1
:102E9000490104C04E85EF00105EE285EF00101F6F
:102EA000AA8423A8A1881384018A83290400CE85DB
:102EB000EF00D01D83A54182EF0040742A8983A5CD
:102EC00041812685EF008073AA854A85552C2A8A80
:102ED000CE854E857524AA852685EF00301B138983
:102EE000018B83250900692C83A50188EF000071FF
:102EF000AA8552857124138A018D83250A004924ED
:102F00002A8C2320AA002320390104C0B7570000CF
:102F100083A547715A85EF00405D6355A00C375774
:102F200000000327477123A2E18CB757000083A557
:102F300047715685EF00605B6356A00C3757000061
:102F40000327477123A4E18CB757000083A547717D
:102F50005E85EF0080596356A00C375700000327A9
:102F6000477123A6E18CB757000083A5477162859E
:102F7000EF00A0576356A00C375700000327477196
:102F800023A8E18C03A5018DEF00D048131905019A
:102F90001359094103A5C18CEF00D04793140501D3
:102FA000C18403A5818CEF00F04613140501418410
:102FB00003A5418CEF001046CA862686A2854205ED
:102FC0004185EFF0FFA5F2506254D2544259B259F4
:102FD000225A925A025BF24B624CD24C424DB24D95
:102FE00021618280B757000083A587715A85EF0061
:102FF0002058E35C05F2375700000327877123A2AE
:10300000E18C25B7B757000083A5877156858D23BE
:10301000E35C05F2375700000327877123A4E18C96
:1030200025B7B757000083A587715E859123E35CC0
:1030300005F2375700000327877123A6E18C25B7D7
:10304000B757000083A5877162851D23E35C05F2F5
:10305000375700000327877123A8E18C25B7938693
:10306000318E03C60600130716001377F70F23806F
:10307000E60093874193B2972380A70085476304B6
:10308000F702CD476310F70205472381E18E03C79E
:1030900061949307E00E6304F7020D472381E18EEC
:1030A000A381018E828003C741939307800DE30BB8
:1030B000F7FEA381018E09472381E18E82800547B7
:1030C0002381E18EF1BF034715009307000B6301D5
:1030D000F704034745009307100B6306F704034703
:1030E00075009307200B630BF7040347A5009307B4
:1030F000300B6300F7060347D5009307400B6303CB
:10310000F7060347F5009307500B6302F70682802A
:1031100083472500A20703473500D98FC207C1871F
:10312000239EF18C7DB783475500A20703476500B6
:10313000D98FC207C187239FF18C55B7834785007C
:10314000A20703479500D98FC207C1872390F18E4C
:1031500069BF8347B500A2070347C500D98F2392F3
:10316000F18651BF0347E5002381E18659BF8347BC
:103170000501A20703471501D98F2390F18641BFAE
:103180004111370780007D1713D8750126C293546B
:1031900075013373A70093F4F40FB376B7004AC0F8
:1031A0001378F80F1359F50106C622C4FD819A87DA
:1031B00026854A86131E3300939E3600B388044149
:1031C000630AB90E6350100D630408149307F00FDF
:1031D000638BF414B7070004B3EEFE00ED4763C140
:1031E000172993070002B3871741B397FE00B3D89E
:1031F0001E01B337F000B3E7F800B307FE401397A2
:103200005700635E0718370400047D147D8C228507
:10321000EF00D0326D15B317A4006348951A058DE1
:103220001304150013070002018F3397E7003337AB
:10323000E000B3D78700D98F814413F7770019C70F
:1032400013F7F70091466303D700910713975700D0
:10325000635B071485041307F00F4A866383E41643
:103260009A07A58313F5F40FB2402244A6079314DE
:10327000750113D59700458D7E0692440249518D04
:10328000410182806399080A138714001377E70FBE
:103290006317071463900422630D0E1EE3860EFC71
:1032A000B307DE411397570063500722B387CE411F
:1032B0002E8961B7635C100B630E08089307F00F4B
:1032C0006383F406B7070004B3EEFE00ED4763C95D
:1032D000171F93070002B3871741B397FE00B3D8B7
:1032E0001E01B337F000B3E7F800F29713975700C9
:1032F0006357070A85041307F00F6384E40CB706CD
:10330000007E13D71700FD16858B758FD98F35B7C3
:10331000638D0E08FD18B307DE41E38208EE9307C4
:10332000F00FE39DF4EA630D030801461305F00F67
:10333000B707400015BF33079840EDE863020E144D
:103340007D17630807189307F00F6319F80E2E898D
:103350003683D1BF638B0E04FD18B307DE01E3870C
:1033600008F89307F00FE393F4F675BF6395080828
:10337000850413F7E40F6313071263170510630F37
:103380000E14E3830EEEB307DE011397570081445A
:1033900063570700370700FC7D17F98F854413F743
:1033A0007700E31F07E813D337009307F00FE38C90
:1033B000F4F693179300A58313F5F40F4A866DB5C1
:1033C0004A861305F00F814745B5370700FC7D1786
:1033D000F98F13F77700898CE31407E6E9B7330414
:1033E000DE419317540063C3070CE31204E2014665
:1033F0000145814795BD33079840ADC49307F00F51
:10340000E308F8F4B7070004336EFE00ED4763CC21
:10341000E70C93070002998FB317FE003357EE00B5
:10342000B337F000D98FF697C284C9B59307F00F70
:10343000E30FF8F0B7070004336EFE00ED4763C3F7
:10344000E70893060002998EB316DE00B357EE002C
:103450003337D000D98FB387FE40C2842E8945B35D
:10346000854761BB630E0E067D17B307DE01C2847C
:10347000E30E07E69307F00FE31AF8F8368365B515
:103480003683C2842E8915B7E3040EECE38D0EE873
:1034900069BD638D0E022E86B687F9B39307F00FD0
:1034A000E381F4F2B307DE018583D5BD3384CE41D9
:1034B0002E89B1BBE31C0EFCE3890EE62E8949BDC3
:1034C000854725B5854741BFE39B07EC014681470A
:1034D00061BBB387CE41C2842E8915B3B68769B369
:1034E0003683C284D9B585473DBF93567501B7076A
:1034F0008000FD1713D6750193F6F60F1308F00F31
:10350000B3F8A7001357F501ED8F1376F60FFD8181
:1035100063810603630C06018DE211E2B1C3638E81
:1035200008026305B70405451DE78280F5D7795584
:103530008280E39E08FE6309D60211E2EDD7E31410
:10354000B7FEE342D6FE63C7C600E3EE17FD0145B2
:10355000E3FDF8FC01E77D558280F5DD05458280BD
:103560000145E39208FC8280F9DBD1B78146E1BFD7
:1035700093567501B7078000FD1713D6750193F6B2
:10358000F60F1308F00FB3F8A7001357F501ED8FEE
:103590001376F60FFD81638706036309060185EA4A
:1035A00011EA89EB0145639B080082800945F5FF1C
:1035B000E5DA31A8638C08026300B704054575D7C6
:1035C0007D5582800945639808026304D60211E2A2
:1035D000F5D7E315B7FEE343D6FE63C7C600E3EFB6
:1035E00017FD0145E3F3F8FC19E3D9BFF1D905450F
:1035F0008280E5D3828082808146C5B7797122D4EA
:10360000135475014ECE52CC9319950006D626D28E
:103610004AD056CA5AC81374F40F93D99900135A52
:10362000F50169C49307F00F6308F40E939739000E
:1036300037070004B3E9E700130414F88144014B91
:1036400013D77501939A95001377F70F93DA9A00C1
:1036500013D9F50145CF9307F00F630CF7028E0ADB
:10366000130717F8B7070004B3EAFA003A940146C3
:1036700033452A01BD47AA869305140063E09710DD
:10368000172700001307C7098A04BA949C40BA9709
:1036900082871304F40F63960A0C93E4240009460E
:1036A000C1BF01451307F00FB7074000B2502254C5
:1036B000A6075E07A5837E05D98F92540259F24969
:1036C000624AD24A424B5D8D45618280CA86D68964
:1036D000328B8947630FFB088D47E304FBFC85476A
:1036E00036856310FB1A01478147C9B7639D0904FA
:1036F00013D77501939A95001377F70F91440144FE
:10370000054B93DA9A0013D9F50131F7639D0A004E
:1037100093E414000546A9BF63920902A14413046F
:10372000F00F094B31BF5685112D9307B5FF098C5A
:10373000B39AFA001304A4F801461DBFB144130460
:10374000F00F0D4BF5BD4E852EC6CD2B9307B5FF63
:103750001304A0F8B399F900098C8144014BB245D8
:10376000C5B593E434000D4621B78947D286E315E9
:10377000FBF636851307F00F81470DBF41639306B3
:10378000F3FF13D6090193D80A01B3F7D900B3FAAE
:10379000DA0033885703B389F80213570801B30AD4
:1037A0005603D6994E9733061603637357011A963C
:1037B000C167FD17B376F7003378F800C206C296EA
:1037C0009399660093570701B3393001E982B297A4
:1037D0009A07B3E6D900B3E9D7009397490063D9B4
:1037E000070013D7190093F71900B369F7002E8467
:1037F0001307F4076350E00493F7790099C793F730
:10380000F90091466383D70091099397490063D9E2
:103810000700B70700F8FD17B3F9F900130704080C
:103820009307E00F63CBE70493976900A5831377B1
:10383000F70FADBD8547B386E74011C76D46014719
:103840008147E345D6E61307E4093397E9003337A8
:10385000E000B3D7D900D98F13F7770019C713F752
:10386000F70091466303D700910713975700634C05
:1038700007009A07A583014715BD1307F00F81477D
:1038800035B52E84B5B7054781470DB5370780009C
:1038900041117D179356750113D87501B377A700B1
:1038A00093F6F60F935EF5013376B70026C24AC051
:1038B0001378F80F06C622C41303F00F3E8E368924
:1038C000F684139F3700FD8113153600B388064137
:1038D0006302681093C51500638CBE106354100D0D
:1038E000631008106304051EFD18B307AF4063861C
:1038F00008029307F00F6388F616ED4763C7172990
:1039000013070002330717413317E500B3571501BA
:103910003337E000D98FB307FF4013975700635147
:10392000071A370400047D147D8C228501296D154A
:10393000B317A400634E251B33052541130415005E
:1039400013070002018F3397E7003337E000B3D746
:103950008700D98F014913F7770019C713F7F700CC
:1039600091466303D700910713975700635E0714CE
:10397000930619001307F00F93FE14006386E616F2
:103980009A07A58393F6F60FA607B240224413D5F3
:103990009700DE069397FE01558D924402495D8D96
:1039A000410182806392080A138716001377E70F9C
:1039B000631B07146394062263020F2071D5B307BB
:1039C000AF401397570063550722B307E5410149FC
:1039D000AE8451B7E30005F0638ABE0AE35410FDDC
:1039E0009307F00F6381F608B70700045D8D31B7C8
:1039F000635E1009630108089307F00F6385F606FC
:103A0000B70700045D8DED4763C0171F1307000261
:103A1000330717413317E500B35715013337E0007B
:103A2000D98FFA9713975700635C070805091307A6
:103A3000F00F630BE90AB706007E13D71700FD16D7
:103A4000858B758FD98F01BF3307D84063950610DA
:103A5000630D0F147D176303071A9307F00F6314A8
:103A6000F810AE84328E630F0E06814E9306F00F6F
:103A7000B707400011BF39C9FD18B307AF00E38392
:103A800008FA9307F00FE390F6F8F1BF639908087E
:103A9000138916001377E90F63160712639B06104C
:103AA00063030F16E30205EEB307AF001397570049
:103AB000014963570700370700FC7D17F98F054957
:103AC00013F77700E31C07E813DE37009307F00FC6
:103AD000E30BF9F893179E00A5839376F90F93FEF5
:103AE00014005DB593FE14009306F00F814769BD85
:103AF000370700FC7D17F98F13F777003309A940CA
:103B0000E31E07E4D1B73304AF409317540063C3F7
:103B1000070CE31C04E0814E81468147B5B53307AD
:103B2000D840B5C69307F00FE30EF8F2B7070004CC
:103B3000336FFF00ED4763CDE70C93070002998FC9
:103B4000B317FF003357EF00B337F0005D8FB307B3
:103B5000A7004289C1BD9307F00FE304F8F0B7074F
:103B60000004336FFF00ED4763C2E70893070002CC
:103B7000998FB317FF003357EF00B337F000D98F99
:103B8000B307F5404289AE8449BB854769B3630EEC
:103B90000F067D17B307AF004289E30507E89307D7
:103BA000F00FE319F8F8328E7DBD328E4289AE8473
:103BB00031BFE3090FEAE30805EA45BD0DCDAE8E3E
:103BC000B287D9B39307F00FE300F9F2B307AF0060
:103BD0008583FDB53304E541AE8481BBE31D0FFC55
:103BE000E30505E8AE84BDBD854725BD854749BFD2
:103BF0000149E39707EC814E814779B3B307E5416B
:103C00004289AE8419BBB28741B3328E42897DBDF1
:103C1000054735BF37068000135775019307F6FF38
:103C20001377F70F9305E007B3F6A7009357F50155
:103C300063FCE5009305D00963FAE50037050080D1
:103C40001345F5FF3E95828001458280930550091A
:103C5000D18E63CDE500130660093307E64033D704
:103C6000E6003305E040F5F33A8582801307A7F6B6
:103C70003397E600FDB7411106C622C426C20DCD1A
:103C80009357F54133C4A7001D8CAA8422857D205B
:103C90009307E0093387A74093076009FD8063CC51
:103CA000E702A1469377F70F63D5A6006115331499
:103CB000A4002604258021A08144814701442604D4
:103CC00013559400B2402244DE07FE045D8D458DFD
:103CD0009244410182809307900963DDE7009307D6
:103CE000B5019546B317F400898E3354D400B33729
:103CF000F0005D8C954763D6A7009307B5FF33149A
:103D0000F400B70600FCFD16937774003376D400F8
:103D100085C39377F4009145638CB7001106931720
:103D2000560063D707009307F009758E3387A740C5
:103D30001314660025809377F70F51B7C167637E30
:103D4000F5029307F00F1307000263ECA700972713
:103D500000009387E7A0AA9703C507003305A74093
:103D600082802181972700009387879FAA9703C5A8
:103D7000070061473305A7408280B7070001636EE3
:103D8000F5006181972700009387879DAA9703C557
:103D9000070021473305A740828041819727000013
:103DA0009387079CAA9703C5070041473305A7409F
:103DB0008280938781829C434111328806C6AA88FB
:103DC0002E87C847368697270000938767A9631711
:103DD000080097270000938767A93E88C686972525
:103DE00000009385E5A81920EF00300B397132D41B
:103DF00036D63EDA3AD842DC46DE938781822E867A
:103E0000AA858843341006CE36C69528F240216133
:103E100082801C46FD171CC663D90700184E63C577
:103E2000E700A9476393F5005DA51C422E85138723
:103E3000170018C22380B7008280011122CC26CA45
:103E40004AC84EC652C406CE2A89AE893284B3040B
:103E5000D6007D5A63149400014511A883450400DF
:103E60004E864A85EFF0FFFA0504E31545FFF24060
:103E70006244D2444249B249224A05618280357186
:103E800022CD26CB4AC94EC706CF52C556C35AC10A
:103E9000DEDEE2DCE6DAAA89AE843289368409C540
:103EA0001C4D99E3EF00102697270000938707A584
:103EB000639DF40C83A4490083D7C400A18BE5CB98
:103EC0009C48F5C793070002A304F102930700037F
:103ED00002D22305F10222C6930B5002972A00005A
:103EE000938A0A9C054C294B4A848347040099C352
:103EF0006391770FB30C2441638E0C00E6864A86EB
:103F0000A6854E85EFF07FF3FD576308F51E9256A8
:103F1000E69636D2834704006381071EFD571309D6
:103F2000140002C802CE3ECA02CCA309010482D406
:103F30008345090015465685EF00B0431304190068
:103F4000C24751E913F7070109C713070002A30984
:103F5000E10413F7870009C71307B002A309E104BE
:103F6000834609001307A002638FE606F2474A84DE
:103F7000814625460347040093051400130707FDF7
:103F80006378E60AADCA3ECEBDA0972700009387AE
:103F9000E7986395F40083A4890039BF9727000050
:103FA0009387C793E39AF4F083A4C90031B7A68539
:103FB0004E85F12B01D97D55FA406A44DA444A49CD
:103FC000BA492A4A9A4A0A4BF65B665CD65C0D618E
:103FD0008280050419BF330555413315AC00C98FE4
:103FE0003EC82289B1B7324793064700184336C608
:103FF000634907023ACE034704009307E002631FB8
:10400000F704034714009307A002631BF702B247AB
:104010000904138747009C433AC663C107023ECA9E
:1040200035A83307E04093E727003ACE3EC8E1B712
:10403000B387670385462E84BA972DBFFD57C5B752
:10404000050402CA814681472546034704009305BB
:104050001400130707FD6378E606F1F283450400B8
:104060000D461725000013052584EF00903011CD73
:1040700097270000938747831D8D93070004B3970C
:10408000A700424505045D8D2AC8834504001946F2
:104090001725000013058581130914002304B102BC
:1040A000EF00302D3DC197C7FFFF9387A7F595E738
:1040B0004247B2471377071009CF91073EC6925780
:1040C000D2973ED215B5B387670385462E84BA973B
:1040D000ADBF9D07E19BA107D5B77800970600000B
:1040E0009386E6D526860C084E8597000000E700EB
:1040F0000000FD572A8AE314F5FC83D7C40093F728
:104100000704E39A07EA125545BD780097060000B8
:104110009386E6D226860C084E85012AD9BF79718E
:1041200056CA9C49BA8A984522D426D24ECE52CC41
:1041300006D64AD05AC85EC6AA892E84B284368A68
:1041400063D3E700BA879CC00347340419C38507CB
:104150009CC01C4093F7070281C79C4089079CC004
:104160000329040013796900631A0900130B9401F1
:10417000FD5B5C449840998F634CF9041C40834676
:10418000340493F70702B336D000A5EB13063404CA
:10419000D2854E85829AFD576303F5041C40114673
:1041A0009840998B544481446397C700B384E64098
:1041B00063D3040081441C4418486354F700998F6A
:1041C000BE94014969047D5B63982405014509A8F3
:1041D00085465A86D2854E85829A631E75017D5525
:1041E000B250225492540259F249624AD24A424B86
:1041F000B24B456182800509ADBF3307D400130679
:104200000003A301C7040347540493871600A29731
:104210008906A381E7049DBF85462286D2854E8507
:10422000829AE30E65FB050945B7797122D426D23F
:104230004AD04ECE06D652CC56CA5AC8B68983C684
:1042400085019307E0063289AA842E8413863504FB
:104250006381F61E63E2D706930730066382F60A8F
:1042600063EDD700638B061E930780056387F61600
:10427000930A24042301D40469A8930740066386A3
:10428000F60093079006E395F6FE1C40084393F66C
:10429000070893054500C1C21C410CC363D8070041
:1042A0001307D002B307F040A301E40497160000FF
:1042B00093864660294765A0930730076383F61A03
:1042C00063EFD7009307F006638FF60493070007A8
:1042D000E390F6FA9C4193E707029CC109A8930773
:1042E00050076382F60493078007E393F6F8930779
:1042F0008007A302F404971600009386E65CE5A00D
:104300001C43938A2504938647009C4314C323814E
:10431000F5048547B5A293F607041C410CC3BDDE26
:10432000C207C187A5BF0C401C4313F805081385BD
:1043300047006305080008C39C4339A093F50504B2
:1043400008C3FDD983D707001307F006638BE60C7B
:1043500097160000938606562947A30104044C4093
:104360000CC463C5050008406D9908C099E3B28A82
:1043700091CDB28AB3F5E702FD1AB69583C5050063
:104380002380BA00B3D5E70263F3E70AA147631EAF
:10439000F7001C40858B91CB58401C4863C7E70051
:1043A00093070003A38FFAFEFD1A3306564110C887
:1043B0004E87CA867000A2852685EFF05FD67D5AAB
:1043C0006314450D7D55B250225492540259F2495E
:1043D000624AD24A424B45618280A382D504971635
:1043E00000009386264D0C40084313F805081C4135
:1043F00011056300080208C313F7150001C793E510
:1044000005020CC04147B1FB0C4093F5F5FD0CC013
:10441000A9B713F8050408C3E30008FEC207C18367
:10442000E1BF971600009386E64821473DB7AE8767
:1044300091B794411C43CC4913F8060813854700F3
:104440006306080008C39C438CC301A808C393F605
:1044500006049C43F5DA2390B70023280400B28AAF
:1044600081BF1C43D04181459386470014C383AA72
:1044700007005685FD2D01C53305554148C05C40F8
:104480001CC8A30104042DB714485686CA85268586
:104490008299E30945F31C40898B8DE7B247484474
:1044A000E353F5F23E8505B785465686CA852685CF
:1044B0008299E30965F1050A5C443247998FE34527
:1044C000FAFEE9BF014A930A94017D5BF5B7011139
:1044D00022CC26CA4AC806CE4EC6AA842E89328469
:1044E00001C51C4D91E339299717000093870741B7
:1044F0006319F406C0401C4C1CC48357C400A18B34
:10450000C9C31C48BDCF1C4808409379F90F1379E3
:10451000F90F1D8D5C486346F500A2852685D924D8
:104520002DE51C440505FD171CC41C40138717000E
:1045300018C0238037015C486389A7008357C400F3
:10454000858B81CBA9476316F900A2852685592C56
:104550000DEDF24062444A85D2444249B2490561B8
:104560008280971700009387673B6314F4008044B0
:1045700059B79717000093876736E31EF4F6C044D7
:104580009DBFA285268521203DDD7D59D9B74111EA
:104590009387818226C2844322C44AC006C62A89E0
:1045A0002E8489C49C4C99E32685A92E9717000078
:1045B0009387C734631CF402C0400317C4009317E9
:1045C0000701C18393F68700B5EE93F607019DEED0
:1045D000A5472320F900136707042316E4007D553F
:1045E000B240224492440249410182809717000060
:1045F0009387C7326314F4008044C1B79717000053
:104600009387C72DE31BF4FAC04445BF918B8DC738
:104610004C5889C9930744046384F5004A85BD2337
:10462000232A04028357C4002322040093F7B7FD12
:104630002316F4001C481CC08357C40093E787006E
:104640002316F4001C4881EF8357C4001307002091
:1046500093F707286385E700A2854A85A529835734
:10466000C40013F7170005C75C4823240400B307F0
:10467000F0401CCC1C480145A5F78317C40013F774
:10468000070839DF93E707042316F40089BF898BF5
:10469000014791E3584818C4F1BF4111194506C6B6
:1046A000E5250545EF00F01483D7C500011122CCA4
:1046B00026CA06CE4AC84EC613F78700AA842E849F
:1046C00071EFD841634DE000B841634AE000014515
:1046D000F2406244D2444249B24905618280585452
:1046E0007DD703A904009396370123A0040063DD5E
:1046F000060670488357C400918B99C75C401D8E95
:104700005C5899C33C401D8E5C540C5081462685F4
:104710008297FD570357C400631DF5009440F54789
:1047200063E8D706B70740208507B3D7D700858B46
:10473000A5C31C48232204001CC09317370163D86B
:104740000700FD576314F5009C4091E368C84C587E
:1047500023A02401ADDD930744046384F50026857E
:104760003521232A0402A5B70C500146854626852B
:104770000297FD572A86E31FF5F69C40A5DF754793
:104780006385E70059476394E70423A0240181B7B8
:10479000136707042316E4007D551DBF83A9050197
:1047A000E38709F203A905008D8B23A035013309A6
:1047B0003941014791E3D84918C4E35A20F11C5408
:1047C0000C50CA864E86268582976349A00083577F
:1047D000C40093E707042316F4007DBFAA993309A8
:1047E000A940E1BF9C49A5C3011122CC06CE2A8471
:1047F00011C51C4D81E72EC63122B2459717000026
:104800009387C70F639CF5004C408397C5009DC7F5
:1048100022856244F24005616FF01FE9971700009E
:104820009387C70F6394F5000C44C5B79717000032
:104830009387C70AE39BF5FC4C44C1BFF240624436
:1048400001450561828001458280411122C406C66E
:104850002A842316B5002317C50023200500232230
:104860000500232405002322050623280500232A0A
:104870000500232C0500214681451305C505EFB031
:104880003F8C970700009387E7535CD097070000A1
:10489000938747561CD4970700009387875A5CD4A8
:1048A000970700009387475D00D01CD8B240224490
:1048B0004101828097050000938505F391AA41117B
:1048C00026C2130680069384F5FFB384C4024AC04F
:1048D0002E8922C406C693854407992E2A8401CDC9
:1048E0002320050023222501310508C413868406F0
:1048F0008145EFB0FF842285B240224492440249B0
:10490000410182801C4DA5E7411106C622C49707CC
:104910000000938767FA1CD5938741839C43232427
:10492000050423260504232805046314F5008547A0
:104930001CCD2A84352848C022851D2808C422851C
:10494000052848C4484001469145EFF01FF008444F
:104950000546A545EFF07FEF48440946C945EFF00D
:10496000DFEE85471CCCB240224441018280828028
:1049700041119387418326C284434AC006C69C4C9A
:1049800022C42A8981E72685EFF0DFF79384840427
:104990008044DC40FD1763D607009C40B9CF8440BB
:1049A000C5BF0317C40039E7C17785072322040672
:1049B0002320040023220400232404005CC42328B1
:1049C0000400232A0400232C0400214681451305FA
:1049D000C405EFB0EFF6232A0402232C040223249B
:1049E0000404232604042285B2402244924402494E
:1049F000410182801304840671BF91454A85EFF01E
:104A00001FEC88C049FDB1472320F9000144E1BFF4
:104A1000797122D44AD052CC56CA5AC85EC606D63C
:104A200026D24ECE2A8AAE8A130485040149054B4C
:104A3000FD5B09ECB25022544A8592540259F24966
:104A4000624AD24A424BB24B456182800444832978
:104A50004400FD1963D409000040E1BF83D7C400BE
:104A6000637BFB008397E40063877701A68552850B
:104A7000829A3369A90093848406E1BF1971A6DA8A
:104A8000AE848395E500A2DC86DE328463DC05001B
:104A900083D7C40023A0060093F707089DE393077C
:104AA000004015A0300836C62521B246E34205FE77
:104AB0007247BD67F98F7977BA9793B717009CC291
:104AC000F9BF930700041CC0F6506654D654014544
:104AD0000961828083D7C500011122CC06CE26CA87
:104AE0004AC8898B2E8489CF930774041CC01CC8C4
:104AF00085475CC8F2406244D244424905618280E5
:104B000074003000AA84EFF07FF7A2452A89268539
:104B1000052201ED8317C40013F7072061FFF19B05
:104B200093E727002316F400C1B797070000938787
:104B3000A7D89CD48357C40008C008C893E70708C7
:104B40002316F400A2475CC8B24789CF8315E4005E
:104B50002685652601C98357C400F19B93E717009A
:104B60002316F4008357C4003369F9002316240187
:104B700051B793F5F50F2A966314C500014582805D
:104B800083470500E38DB7FE0505FDB7CDC183A7BB
:104B9000C5FF411122C406C626C21384C5FF63D3D4
:104BA00007003E94AA8465269387C18E9C4399EBA7
:104BB0002322040023A6818E2244B24026859244FB
:104BC000410179A6637EF40014403307D400639654
:104BD000E7009843DC43369718C05CC0E1BFBA8752
:104BE000D84319C3E37DE4FE94433386D700631FA3
:104BF00086001040B29694C33386D700E31EC7FAEE
:104C000010435843B29694C3D8C37DB76375C400AC
:104C1000B1479CC055B71040B306C4006316D70017
:104C200014435843B29614C058C0C0C371B78280B1
:104C3000011126CA93843500F19806CE22CC4AC8C9
:104C40004EC6A104B14763F1F404B14463E0B40477
:104C50002A89F52C9387C18E98433A8431E0938753
:104C6000018F9C4391E781454A85512823A8A18E55
:104C7000A6854A856920FD5963173507B14723206A
:104C8000F9004A85F12429A0E3D204FCB1471CC1F4
:104C90000145F2406244D2444249B24905618280F2
:104CA0001C40858F63CE0702AD4663F6F6001CC03C
:104CB0003E9404C031A05C406312870223A6F18EAB
:104CC0004A8579241305B40093074400619933079A
:104CD000F54061D33A94898F1CC065BF5CC3CDB7E2
:104CE00022874040A5BF130435007198E30385FC7B
:104CF000B305A4404A852120E31D35FB41B741118E
:104D000022C42A842E8523A4019406C6D924FD57E3
:104D10006317F500938781949C4391C31CC0B240F4
:104D2000224441018280FD4763F6B700D9471CC188
:104D30007D5582807C41011122CC06CE2E862A84AC
:104D400091C713972500BA97984319EB228532C66D
:104D5000BD20AA85228562443246F24005611DA825
:104D6000854601456308D700FD566319D700D9472A
:104D70001CC00545F2406244056182802E8523A057
:104D8000070002970145FDB793878182AA85884372
:104D90006FF07FF9411122C42A842E85B28523A4A5
:104DA000019406C62924FD576317F5009387819463
:104DB0009C4391C31CC0B240224441018280E1AABD
:104DC000411122C42E848395E50006C65922634909
:104DD00005007C48AA977CC8B240224441018280E9
:104DE0008357C4007D777D17F98F2316F400EDB744
:104DF00083D7C500011122CC26CA4AC84EC606CEAA
:104E000093F70710AA842E843289B68991C78395B7
:104E1000E5008946014631228357C4007D777D171E
:104E2000F98F2316F4008315E4006244F240CE8625
:104E30004A86B24942492685D24405613DA84111BE
:104E400022C42E848395E50006C6E128FD5703574A
:104E5000C400631BF500FD77FD17F98F2316F400DE
:104E6000B2402244410182808567D98F2316F40025
:104E700068C8FDB78395E50005A8411122C42A84BE
:104E80002E85B285368623A4019406C6EFD03F80D6
:104E9000FD576317F500938781949C4391C31CC011
:104EA000B240224441018280411122C42A842E85CD
:104EB00023A4019406C6E120FD576317F5009387EC
:104EC00081949C4391C31CC0B24022444101828022
:104ED000411122C42A842E85B28523A4019406C6DA
:104EE0006D20FD576317F500938781949C4391C310
:104EF0001CC0B240224441018280411122C42A8454
:104F00002E8523A4019406C66928FD576317F50072
:104F1000938781949C4391C31CC0B24022444101B9
:104F20008280411122C42A842E85B285368623A42C
:104F3000019406C65920FD576317F50093878194A5
:104F40009C4391C31CC0B2402244410182808280B4
:104F50008280411122C42A842E85B285368623A4FC
:104F6000019406C68D20FD576317F5009387819441
:104F70009C4391C31CC0B2402244410182809307EC
:104F8000800523A4F1947D5582809307800523A496
:104F9000F1947D5582809307800523A4F1947D557B
:104FA00082809307800523A4F194014582809307B2
:104FB000800523A4F1947D5582809307800523A466
:104FC000F1947D5582809307800523A4F1947D554B
:104FD00082809387418F9C4391C73E9523AAA18EDF
:104FE0003E8582809387C1943E9523AAA18E3E85FB
:104FF000828001A06C63645F7365745F726567692A
:105000006F6E00005446545F585F4D41583E785FC4
:1050100073746172740000002E2E2F4C69627261ED
:10502000726965732F7365656B667265655F706520
:10503000726970686572616C2F5345454B465245E5
:10504000455F31385446542E630000005446545F87
:10505000595F4D41583E795F73746172740000006E
:105060005446545F585F4D41583E785F656E64000A
:105070005446545F595F4D41583E795F656E6400F8
:105080000000000000000000000000000000000020
:1050900000000008080808080808000008080000C8
:1050A000004824241200000000000000000000005E
:1050B0000000004848487E2424247E242424000044
:1050C0000000103C5252121C30505052523C1010F2
:1050D000000000222515150D2A58545452220000B4
:1050E0000000000C1212120A76252919916E000098
:1050F00000060404020000000000000000000000A0
:10510000004020101008080808080810102040006F
:105110000002040808101010101010080804020003
:105120000000000008086B1C1C6B08080000000051
:105130000000000000101010FE1010100000000011
:10514000000000000000000000000000060404024F
:1051500000000000000000007E00000000000000D1
:105160000000000000000000000000000606000033
:10517000000040202020101008080804040202004B
:1051800000000018244242424242424224180000D9
:10519000000000101C10101010101010107C0000E7
:1051A0000000003C4242424020100804427E0000C1
:1051B0000000003C4242402018204042423C000097
:1051C00000000020303028242422FE2020F8000097
:1051D0000000007E0202021E22404042221C00000B
:1051E000000000182402023A4642424244380000BD
:1051F0000000007E42202010100808080808000067
:105200000000003C4242422418244242423C00003A
:105210000000001C22424242625C40402418000010
:10522000000000000000181800000000181800001E
:10523000000000000000000800000000000808084E
:105240000000004020100804020408102040000064
:105250000000000000007E00007E00000000000052
:105260000000000204081020402010080402000082
:105270000000003C424246201010100018180000A8
:105280000000001C225A55555555553A423C000025
:105290000000000808181414243C224242E70000D1
:1052A0000000001F2222221E22424242221F000032
:1052B0000000007C4242010101010142221C000069
:1052C0000000001F2242424242424242221F00008E
:1052D0000000003F4212121E12120242423F000022
:1052E0000000003F4212121E1212020202070000CA
:1052F0000000003C2222010101712122221C000039
:10530000000000E7424242427E42424242E7000041
:105310000000003E0808080808080808083E0000C9
:105320000000007C10101010101010101010110F41
:105330000000007722120A0E0A12122222770000C1
:10534000000000070202020202020202427F000085
:105350000000007736363636362A2A2A2A6B0000B5
:10536000000000E346464A4A525252626247000039
:105370000000001C2241414141414141221C0000EA
:105380000000003F424242423E0202020207000089
:105390000000001C224141414141414D321C60004E
:1053A0000000003F4242423E1212222242C7000049
:1053B0000000007C4242020418204042423E0000AD
:1053C0000000007F4908080808080808081C0000B9
:1053D000000000E74242424242424242423C000058
:1053E000000000E742422224241414180808000098
:1053F0000000006B2A2A2A2A2A36141414140000EA
:10540000000000E7422424181818242442E7000072
:10541000000000772222141408080808081C000065
:105420000000007E2120101008040442423F0000CA
:10543000007808080808080808080808080878001C
:105440000000020404040808081010202020404036
:10545000001E1010101010101010101010101E0050
:105460000018240000000000000000000000000000
:10547000000000000000000000000000000000FF2D
:10548000000608000000000000000000000000000E
:10549000000000000000001C22302C22326C0000B2
:1054A000000000000302021A26424242261A0000AF
:1054B00000000000000000384402020244380000EE
:1054C000000000006040407C4242424262DC00003A
:1054D000000000000000003C42427E02423C00000E
:1054E000000000003048083E08080808083E000098
:1054F000000000000000007C22221C023C42423CD2
:10550000000000000302023A4642424242E7000025
:105510000000000C0C00000E08080808083E0000FF
:105520000000003030000038202020202020221EE3
:105530000000000003020272120A0E12227700001D
:10554000000000080E08080808080808083E0000C7
:10555000000000000000007F9292929292B700003B
:10556000000000000000003B4642424242E70000CB
:10557000000000000000003C42424242423C000069
:10558000000000000000001B26424242261A0207CB
:10559000000000000000005864424242645840E0AD
:1055A00000000000000000774C040404041F000009
:1055B000000000000000007C42023C40423E00002F
:1055C000000000000008083E0808080848300000F5
:1055D00000000000000000634242424262DC000022
:1055E00000000000000000772222141408080000C8
:1055F00000000000000000DB91525A2A2424000021
:10560000000000000000006E241818182476000026
:1056100000000000000000E74224241818080806D3
:10562000000000000000007E22100808447E0000F8
:1056300000C0202020202020102020202020C0007A
:10564000101010101010101010101010101010105A
:105650000003040404040404080404040404030010
:10566000045A2000000000000000000000000000BC
:1056700000080140000C01400010014000140140EE
:10568000002C0140000000400004004000080040E1
:105690007370695F6770696F5F696E69740000009D
:1056A000300000002E2E2F4C6962726172696573A2
:1056B0002F7365656B667265655F6C696272617296
:1056C0006965732F7A665F7370692E63000000004E
:1056D000003801400044004000480040004C0040B9
:1056E0009A99193E000000400000803F00002041D0
:1056F00061696D5F783A000061696D5F793A000019
:1057000061696D5F7A3A0000667568655F73706500
:1057100065643A0000A00C4600A00CC660E0FFFFE4
:10572000B2DFFFFFB2DFFFFFB0DFFFFFB6DFFFFF3B
:10573000B6DFFFFF86DFFFFFB0DFFFFFB6DFFFFF53
:1057400086DFFFFFB6DFFFFFB0DFFFFF4EE0FFFFAA
:105750004EE0FFFF4EE0FFFF86DFFFFF0001020289
:1057600003030303040404040404040405050505F9
:1057700005050505050505050505050506060606D5
:1057800006060606060606060606060606060606B9
:1057900006060606060606060606060607070707A5
:1057A0000707070707070707070707070707070789
:1057B0000707070707070707070707070707070779
:1057C0000707070707070707070707070707070769
:1057D0000707070707070707070707070808080855
:1057E0000808080808080808080808080808080839
:1057F0000808080808080808080808080808080829
:105800000808080808080808080808080808080818
:105810000808080808080808080808080808080808
:1058200008080808080808080808080808080808F8
:1058300008080808080808080808080808080808E8
:1058400008080808080808080808080808080808D8
:105850000808080808080808080808082C206675C1
:105860006E6374696F6E3A200000000061737365A7
:105870007274696F6E2022257322206661696C65DF
:10588000643A2066696C6520222573222C206C699D
:105890006E65202564257325730A0000232D302BA7
:1058A00020000000686C4C006566674546470000B4
:1058B0003031323334353637383941424344454646
:1058C0000000000030313233343536373839616208
:1058D0006364656600000000000000000000000036
:1058E00000000000000000000000000000000000B8
:1058F00000000000000000000000000000000000A8
:105900000000000000000000000000000000000097
:105910000000000000000000000000000000000087
:105920000000000000000000000000000000000077
:0859300000000000000000006F
:10593800000000000102030401020304060708092D
:1059480000000000F858000018590000D85800005E
:10595800000000000000000000000000000000003F
:10596800000000000000000000000000000000002F
:10597800000000000000000000000000000000001F
:10598800000000000000000000000000000000000F
:1059980000000000000000000000000000000000FF
:1059A80002040608010000006666A63F6666A63F78
:1059B8006666A63F6666A63F0000C0400000C0407D
:1059C8000000C0400000C04010000020003001402E
:0859D80000380040100000201F
:00000001FF
