:100000006F00004A130000001300000013000000FE
:100010001300000013000000130000001300000094
:100020001300000013000000130000001300000084
:08003000130000007300100032
:100038006FF09FFC000000006F0000446F00004458
:1000480000000000000000000000000000000000A8
:100058000000000000000000000000000000000098
:100068006FF09FF9000000006FF01FF9000000001A
:100078006FF09FF86FF05FF86FF01FF86FF0DFF721
:100088006FF09FF76FF05FF76F0080156F008015B6
:100098006F0080186F00C0186F00C0186FF0DFF590
:1000A8006FF09FF56FF05FF56F00E0396FF0DFF4E8
:1000B8006FF09FF46FF05FF46F008017000000008E
:1000C8000000000000000000000000006F00C015E4
:1000D8006F0040166F0080186F00801A6F00001FB5
:1000E8006F0000276F0080286F00802A6FF0DFF014
:1000F8006FF09FF06FF05FF06FF01FF06FF0DFEFC1
:100108006FF09FEF6F00402F6F00402F6F0060333C
:100118006F00C0116FF05FEE6FF01FEE6FF0DFED54
:1001280000000000000000000000000000000000C7
:080138000000000000000000BF
:100140003D432A876373C3029377F700BDEFADE5A4
:10015000937606FF3D8ABA960CC34CC30CC74CC7B6
:100160004107E36BD7FE11E28280B306C3408A06E3
:100170009702000096966780A6002307B700A306A3
:10018000B7002306B700A305B7002305B700A304F3
:10019000B7002304B700A303B7002303B700A302EB
:1001A000B7002302B700A301B7002301B700A300E3
:1001B000B7002300B700828093F5F50F9396850072
:1001C000D58D93960501D58D61B79396270097023B
:1001D000000096968682E78086FA9680C1171D8F6A
:1001E0003E96E374C3F8A5B7730020300945C129D2
:1001F00085476304F50073002030B707002083A70C
:10020000470709476388E70005476388E700094512
:10021000E921D5B7EF10603BDDBFEF104033C5BF1C
:1002200011456529730020307300203073002030A1
:1002300073002030730020307300203093050008D5
:1002400037350140130505C0EF00D01E19E17300DA
:1002500020309305000837350140130505C0EF0035
:10026000301FF5B7854537350140130505C0EF0050
:10027000701C19E1730020308545373501401305A6
:1002800005C0EF00F01CFDB79305000437350140B1
:10029000130505C0EF00101A01ED93050002373574
:1002A0000140130505C0EF00F01801ED7300203088
:1002B0009305000437350140130505C0EF005019C0
:1002C000E9BF9305000237350140130505C0EF0073
:1002D0003018E9BF894537350140130505C0EF00E7
:1002E00070151DE9914537350140130505C0EF0034
:1002F00070141DE9A14537350140130505C0EF0015
:1003000070131DE9C14537350140130505C0EF00E5
:1003100070121DE9730020308945373501401305FF
:1003200005C0EF00F0127DBF914537350140130540
:1003300005C0EF00F0117DBFA14537350140130521
:1003400005C0EF00F0107DBFC145373501401305F2
:1003500005C0EF00F00F7DBF854537050040EF0079
:10036000700D19E173002030854537050040EF001E
:10037000300ECDBF85453705004013050540EF0021
:10038000700B19E1730020308545370500401305D7
:100390000540EF00F00BFDB785453715004013050C
:1003A0000580EF00300929C583D74187A1C785455E
:1003B00013052006EF10A05D83D74187FD17239A10
:1003C000F186EF20502CEF20302F41469385C193CA
:1003D0000945EF10B072996783A74750054798CB3E
:1003E000D8CB85453715004013050580EF00500632
:1003F00073002030814513052006EF104059D1B716
:1004000073002030930550523745004013050540D6
:10041000EF00B01719E173002030930550523745B3
:10042000004013050540EF00101BB707002083A70D
:10043000470709476388E7000547E39EE7FCEF109D
:10044000000CD1BFEF106013F9B7730020300965BD
:10045000152C85476304F500730020300965992445
:10046000B707002083A7470709476388E7000547C8
:10047000E394E7FEEF10000FC5B7EF106016E9BF79
:1004800073002030014681450145EF20E048DDBF83
:10049000411106C6EF2000050145B24041018280AE
:1004A000970100209381013D17510020130181B570
:1004B000176500001305854597050020938585B4D1
:1004C0001386818363FAC5008322050023A05500AB
:1004D00011059105E3EAC5FE138581839385019596
:1004E0006377B500232005001105E36DB5FE930287
:1004F000800873A0023097020000938222B493E236
:10050000120073905230EF10106B9702000093822C
:1005100062F87390123473002030B727014093873C
:1005200007406303F5008280411106C68545130527
:10053000002039238145130500201923B2404101D1
:1005400082805C413707F1FF1307F7EF7D8FDC41B5
:10055000A2079441D58FD98F5CC11C4537F7F1FFB5
:100560001307D77F7D8F9C49D445D58F9445860648
:10057000D58FD98F1CC55C55370710FF7D177D8F30
:1005800083C74501FD1793F7F70FD207D98F5CD5C5
:10059000828091C51C4593E717001CC582801C45CD
:1005A000F99B1CC582801C4593E787001CC582808F
:1005B00008450D81058982801C4593E747001CC5CD
:1005C00082800845098105898280A54763F7B704C1
:1005D0008328C500138865FF1317180042979D47AD
:1005E000B397E70093C7F7FFB3F71701B396E60099
:1005F000DD8E54C5994763E3C70458597D16931798
:1006000026003E96FD47B397C70093C7F7FFF98FC3
:100610003396C5005D8E50D982800328050113975B
:1006200015002E979D47B397E70093C7F7FFB3F7E1
:100630000701B396E600DD8E14C96DBFB14763E3D1
:10064000C7021459130796FF131627003A96FD4761
:10065000B397C70093C7F7FFF58F3396C5005D8E3C
:1006600010D9828054554D16131726003A96FD472F
:10067000B397C70093C7F7FFF58FB395C500DD8D1E
:100680004CD582809317350063DA0700B707024024
:1006900083A707407D8D3335A0008280B7070240D5
:1006A0009C43CDBF9317350063D70700B7070240BF
:1006B00023A2A7408280B7070240C8C382803707C1
:1006C00001408327074003274741698F09C77D8D74
:1006D0003335A000828001458280B707014023AAFC
:1006E000A74082809C4593F8F700C18B81C7DC410D
:1006F000B3E8F80083C70500A9CB10418147054E38
:100700003D4F930E8002930F8004214329A054C9CA
:100710008507638B6702B316FE0003D70500758F4C
:10072000E398E6FE139727003318EF001348F8FF0D
:100730003376C8003397E800598E9845E309D7FD12
:10074000E318F7FD14C9E9B710C103D705009307F3
:10075000F00F63FDE7045041A147054EBD4F130F55
:100760008002930E8004414331A054C915A8850727
:10077000638D6702B316FE0003D70500758FE398FB
:10078000E6FE1397270001173398EF001348F8FF90
:100790003376C8003397E800598E9845E307E7FDA4
:1007A0009845E316D7FD14C9D9B750C1828019C244
:1007B0000CC982804CC982802A8663400504B70731
:1007C0000140DC4393160501C182370730003378BE
:1007D000E5006308E8021317B500635C07041357CC
:1007E00005011378F7000D47331707011347F7FF8B
:1007F0007D8FB707000FD98F0DA0B7070140DC4FE1
:10080000D1B7370700F17D17F98FB708014003A86A
:1008100048003377E80023A2E80091C5558112050E
:100820003395A600C98F63420602370701405CC3B7
:1008300082801357550112073397E6001347F7FFDD
:100840007D8FB707000FD98FC9BF370701405CCF35
:100850008280B7E700E0BC47898B95CF83460500CF
:1008600083472500920793F7F70F37E700E03697A5
:100870002300F7405C41B5C7034705009357570075
:100880008546B396E600938707048A0737E700E0BA
:10089000BA9794C38280B7E700E0BC47898BF9FB25
:1008A000034715008547630FF7008346050083471C
:1008B0002500920793F7F70F37E700E036972300FC
:1008C000F7404DBF8346050083472500920793E715
:1008D00007F893F7F70F37E700E036972300F74064
:1008E00051BF03470500935757008546B396E6006E
:1008F000938707068A0737E700E0BA9794C3828098
:10090000B7160240DC4251777D17F98F5D8DC8C262
:100910008280B7170240DC43B18B11476384E7083C
:1009200021476387E70899C7B7177A00938707209D
:100930001CC131A0B7177A00938707201CC1371656
:1009400002405C429183BD8B3707002013070700EC
:10095000BA9783C607001C41B3D7D7005CC1544285
:10096000A1829D8ABA9683C60600B3D6D70014C565
:100970005442AD829D8A369703470700B3D7E700FC
:100980005CC5584239839376370037070020130738
:1009900007073697034707001377F70FB3D7E70228
:1009A0001CC98280B7177A00938707201CC141BFFA
:1009B000371702405C435843C983BD8B89079316A0
:1009C000F70063CA060037173D0013070790B38787
:1009D000E7021CC1ADB73717024058439316E70032
:1009E00063DA060037173D0013070790B387E70265
:1009F0001CC1B1B737177A0013070720B387E70286
:100A00001CC135BF99C5371702401C4F5D8D08CFFB
:100A10008280B7170240984F1345F5FF798D88CF34
:100A2000828099C5371702405C4F5D8D48CF828028
:100A3000B7170240D84F1345F5FF798DC8CF828094
:100A400099C5371702405C475D8D48C78280B7174C
:100A50000240D8471345F5FF798DC8C782800357F8
:100A600005008D67938707047D8F83D7050083D6A4
:100A70002500D58F83D64500D58F83D66500D58FC9
:100A800083D68500D58F83D6A500D58F83D6C500A4
:100A9000D58F83D6E500D58FD98F2310F500035766
:100AA000C501FD779387F77FF98F231EF50083D764
:100AB00005012318F500828081C98357050093E75B
:100AC00007042310F500828083570500C207C18305
:100AD00093F7F7FBC207C1832310F5008280835789
:100AE0000500C207C18337370140130707C0630001
:100AF000E504370700406307E50613070740630373
:100B0000E5063717004013070780630DE50493F7E8
:100B1000F7CF03D76500D98F2310F50083D74500A1
:100B20002316F50283D705002314F50285A093F759
:100B3000F7F803D72500D98F93F7F7CF03D76500D0
:100B4000D98F2310F50083D745002316F50283D7EC
:100B500005002314F50203C78500B7370140239829
:100B6000E7C22DA093F7F7F803D72500D98F93F7A5
:100B7000F7CF03D76500D98F2310F50083D7450041
:100B80002316F50283D705002314F5028547231A9F
:100B9000F5008280FD572312F50023100500231372
:100BA00005002311050023040500828081C98357B5
:100BB000050093E717002310F50082808357050096
:100BC000C207C183F99BC207C1832310F50082804D
:100BD00019C68357C500DD8D2316B5008280835763
:100BE000C50093C5F5FFFD8D2316B500828003581F
:100BF00085004208135808010357850142074183C5
:100C000083570502C207C183137888FFB365B80014
:100C10001377C7CF1367171093F7D7FD9206558E3A
:100C2000D18FC207C1832314B500231CE500231014
:100C3000F5028280835705010355C50042054181B5
:100C4000ED8F89C76D8D3335A0008280014582808C
:100C500093C5F5FFC205C1812318B5008280797163
:100C600006D622D426D22A84AE8403570501F5770E
:100C7000FD17F98F03D76500D98F2318F5000357A7
:100C8000C500FD779387379FF98F03D74500D98F2C
:100C900003D78500D98F03D7A500D98F2316F50078
:100CA00083574501C207C18393F7F7CF03D7C50028
:100CB000D98F231AF5006800A939B74701409387F7
:100CC00007806301F40652478357C400C207C187F7
:100CD00063CC070493171700BA978E07BA9798400A
:100CE0000A07B3D7E70213074006B3D6E702920616
:100CF000B3F7E7020357C400420741876340070484
:100D000092079387270313074006B3D7E702BD8BEB
:100D1000D58FC207C1832314F400B25022549254D9
:100D20004561828062474DB793171700BA978E07C7
:100D3000BA9798400607B3D7E70275B713973700FD
:100D400013072703930740063357F7021D8BB3673A
:100D5000D700C1B781C98357C5000967D98F23164A
:100D6000F50082800357C500F977FD17F98F231628
:100D7000F500828093F5F51F2312B500828003559C
:100D800005006D8D3335A000828093F7F50F9583B4
:100D900085463397B6006388D70289466389D702B0
:100DA000835745017D8F0355050093170501C183C6
:100DB000014509CBA1810545B315B50033F5B70051
:100DC0003335A00082808357C5007D8FE9BF8357EC
:100DD00005017D8FC9BFA1818547B397B70093C730
:100DE000F7FFC207C1832310F5008280011106CEF0
:100DF00022CC26CAA307A100996703A4C750A16407
:100E000044C891675CC8854601469305F1000145D9
:100E1000EF10602C04C8F2406244D2440561828025
:100E2000011106CE22CC26CAA307A100996703A40C
:100E3000C750A16444C891671CC885461306F100D9
:100E4000B2850145EF10202904C8F2406244D24423
:100E500005618280011106CE22CC26CA996703A4BF
:100E6000C750A16444C8935785002306F100A30628
:100E7000A10091671CC889467000B2850145EF103A
:100E8000802504C8F2406244D24405618280011189
:100E900006CE22CC26CA4AC84EC69307F00963EE96
:100EA000A7062A84AE843289B6899307F00763E5E2
:100EB000B7089307F00963E0C70A9307F00763EBED
:100EC000D70A1305A0021D370145993F13051400E9
:100ED0001375F50FB1370145A137130519001375C7
:100EE000F50F3D3F1305B00211370145153F13853E
:100EF00024001375F50F2D3701451D371385290083
:100F00001375F50F313F1305C002CD35F240624431
:100F1000D2444249B24905618280B7660000938697
:100F200046E51966130646E493057005376500002B
:100F3000130585E6EF30F04CB76600009386C6E9EE
:100F40001966130646E4930580053765000013050E
:100F500085E6EF30104BB7660000938606EB196606
:100F6000130646E49305A00537650000130585E6E2
:100F7000EF303049B7660000938606EC1966130619
:100F800046E49305B00537650000130585E6EF30AC
:100F90005047011106CE22CC26CA4AC84EC6AA84A2
:100FA0009306F0071306F00981450145CD35130975
:100FB00000089309000A21A07D19630A09004E84E4
:100FC0002685493D7D141374F40F7DF8F5B7F24082
:100FD0006244D2444249B24905618280011106CE81
:100FE00022CC26CA4AC84EC6014881471307F004DE
:100FF00093063002054681450145EF00307E930699
:101000000031054685451305F004EF0030079306CF
:101010000031014685451305D004EF0030069306E4
:101020000031014685451305E004EF00300599675E
:1010300083A9C750096923AA290103A5C184130400
:1010400009F433558502931725003E950605814521
:10105000EF10000C23A8290103A5C1843355850294
:10106000931745003385A7400E058145EF10400AD0
:101070004545AD3B03A5C184335585029317450013
:101080003385A7400E058145EF1080081305100B2E
:10109000B13B054571331305C00259331305D00226
:1010A00041331305200B993305459D3B1305C002C1
:1010B000853B1305D002AD331305300B053B0545C9
:1010C00085331305C002A93B1305D002913B0545AA
:1010D000813B1305C002A9331305D00291331305D8
:1010E000400B29331D452D3B1305000C013313051F
:1010F000200A3D3309452D331305400815331305E8
:10110000100CED311305500C213B1305200CF9395F
:1011100029453933014529331305300CC1391305ED
:10112000A008FD391305A002E5391305400C7D39EF
:101130001305A008F5311305E00EDD311305500C41
:1011400075313945F139130560034D31130500063A
:10115000C1391305000E59393D45D9316945C931A9
:101160003D457D3961456D391305F002553913054B
:1011700080027D31130500026531130520024D31D7
:101180007D4579396D4569391305300251391305AB
:1011900070037931014569311D455931094549319E
:1011A0004145BD391305100E91313D4595396D45C9
:1011B00085393D45B5315D45A531130530038D3188
:1011C0001305C002B1391305900299391305E002E5
:1011D000813913050003A93113050003913113056B
:1011E00090033D391305F0032539014515391D4597
:1011F00005390D453531414525311305A002FD3630
:10120000014539390945293901451939130520089E
:1012100001391305B002D93E014519310D45093197
:101220000145FD3E13053008E53E1305000F7D3EE8
:101230000545FD361305600F553E0145D5361305AE
:10124000A0036D361545E93E13059002453641650C
:101250007D158133F2406244D2444249B24905616E
:101260008280797106D622D426D24AD04ECE52CC74
:1012700056CA5AC85EC662C466C26AC0AA8B2E89A4
:10128000138D05011206330BB640930C7500996A55
:10129000938A0AED214CC169138AF9FF9389098069
:1012A0000DA05285453E85807D141374F40F19C43A
:1012B00093F71400FDD74E85713EF5B70509630E0F
:1012C000A901CA866686CA855E85D136B3076901DB
:1012D000D69783C407E06284E1BFB250225492548F
:1012E0000259F249624AD24A424BB24B224C924CCA
:1012F000024D45618280011106CE22CC26CA4AC821
:101300004EC6B2890306060015C62A8492051399B3
:101310000501135909018144CA852285993785043D
:10132000C204C180B38799000386070021044204E8
:1013300041807DF2F2406244D2444249B2490561A3
:101340008280797106D622D426D24AD04ECE2A8403
:1013500093074006B357F6022306F100A947335717
:10136000F6023377F702A306E1003376F60223078D
:10137000C10092059399050193D9090164001309ED
:10138000850142091359090103C604001306060327
:1013900062066186CE852285E935850421044204F2
:1013A0004180E31324FFB250225492540259F2496F
:1013B00045618280797106D622D426D24AD04ECE9B
:1013C0002A842E89B284634A06089205C205C18127
:1013D000130600027935896793870771B3C7F40252
:1013E0002304F1001307803E33C7E402A9473367A3
:1013F000F702A304E1001307400633C7E402336792
:10140000F7022305E10033C7F4023367F702A305AF
:10141000E100B3E4F40223069100120942091359D2
:10142000090124002104420441809309D10003C62C
:1014300004001306060362066186CA8522851535F7
:101440008504210442044180E39334FFB2502254C6
:1014500092540259F249456182809205C205C181C8
:101460001306D002FD3BB3049040C204C184A5B76B
:10147000797106D622D426D24AD04ECE2A848967E4
:1014800093870771B357F6022304F1001307803ED8
:101490003357E602A9473377F702A304E1001307A5
:1014A00040063357E6023377F7022305E10033574E
:1014B000F6023377F702A305E1003376F60223063E
:1014C000C1009205139905011359090124009309DC
:1014D000D10003C604001306060362066186CA85AE
:1014E000228541338504210442044180E39334FF83
:1014F000B250225492540259F24945618280996750
:1015000083A7075B03D647009386F18383C7060052
:101510001387C1833E972300C700850793F7F70F12
:101520002380F6000547638BE7000D476397E700CC
:10153000A38F018205472380E184828003C7C18392
:101540009307500AE30BF7FEA38F01828280B7074F
:10155000024009671307874BB8C7F84313671700A2
:10156000F8C382800547238CE182B7060240FC4223
:1015700041677917F98FFCC28280996783A7075B5F
:1015800003D647009386818483C70600138741846E
:101590003E972300C700850793F7F70F2380F600D7
:1015A0000547638BE7000D476397E70023840184B9
:1015B0000547A383E184828003C741849307500ACF
:1015C000E30BF7FE238401848280B707024005679E
:1015D00013070796B8C7F84313671700F8C382804C
:1015E0000547A380E184B7060240FC4241677917B2
:1015F000F98FFCC28280411106C62DC58547630A5A
:10160000F5068947630DF5068D476300F508914798
:101610006303F50895476306F50899476309F508DC
:101620009D47630CF508A147630FF508A5476303C1
:10163000F50AA9476307F50AAD47630BF50AB147F9
:10164000630FF50AB5476303F50CB9476307F50C5B
:10165000BD47631DF50081460146814513055004D1
:10166000312C29A0814601468145092CB240410117
:10167000828081460146814505450924C5BF8146D2
:10168000014681450945DD2AD5B781460146814598
:101690000D45ED22E1BF8146014681451145F92AFC
:1016A000F1B78146014681451545C92AC1B7814632
:1016B000014681451945D92255BF814601468145DC
:1016C0001D456D2A65B78146014681451305000217
:1016D000752269BF81460146814513051002792AAA
:1016E00071B781460146814513050004412ABDBFFB
:1016F00081460146814513051004492285BF814674
:101700000146814513052004952A8DB7814601467F
:101710008145130530049D2291BF814601468145D4
:1017200013054004A12A99B7797106D622D42A84D8
:10173000854513054020EFF0EFAC22856D3D03A7F2
:10174000C184B7C70105938707D063FBE7063165FE
:10175000EFF00F9B3724014013050440EFE0FFDB5F
:1017600002C402C602C8B7070E003ECA02CC8547B3
:10177000230EF1002C0013050440EFE09FDC8545AB
:1017800013050440EFE0FFE013050440EFE0BFE184
:10179000130404402285EFE0BFE16DFD37250140D1
:1017A00013050540EFE05FE13724014013040440D6
:1017B0002285EFE01FE16DFDB25022544561828029
:1017C0002165EFF0EF9379B7411106C622C426C216
:1017D000AE84814605469375F50F37240140130505
:1017E0000440EFE09FDE8327844037075000D98F05
:1017F0002324F4403727014083270740898BEDDFFE
:10180000B727014003A5C7443355950042054181E0
:10181000B2402244924441018280011106CE22CC82
:1018200026CA4AC84EC652C42A8AAE893289814421
:10183000014415C6CE855285413FAA940504137410
:10184000F40FE31989FE33D5840242054181F24049
:101850006244D2444249B249224A05618280B76655
:1018600000009386064D19661306064C9305600723
:10187000376500001305854DEF30A03813070008C9
:101880006306E510797106D622D426D24AD04ECE10
:1018900052CC9357550013F977001374F501368A2B
:1018A000B289AE848DCB05476389E7060947638B10
:1018B000E7060D47638DE70611476380E708154784
:1018C0006383E7081947639CE7008545130500100B
:1018D000EFF04F9329A085451145EFF0AF92854772
:1018E0003394870042044180231281006383F4060D
:1018F0009376FA0F36C613172900996793874750D6
:10190000BA974C008843EFE0FFDDB2502254925466
:101910000259F249624A4561828085452145EFF0CE
:101920006F8E75BF85454145EFF0CF8D4DBF854525
:1019300013050002EFF00F8D5DB785451305000418
:10194000EFF04F8C69BF854513050008EFF08F8BD2
:1019500079B793170A01C183A1839DE78D473EC4E0
:101960009376FA0F36C61317290099669386465068
:10197000369704434C002685EFE0DFD64E86A285DD
:101980002685EFE0DFE251B73EC4D9BF828093578E
:1019900055009D8B7D890547638DE5008A07196792
:1019A00013074750BA97984385473395A70048CB0C
:1019B00082808A07196713074750BA97984385476B
:1019C0003395A70008CB8280B7E700E07D5723A0BE
:1019D000E71823A2E7188280011106CE2304A10094
:1019E000A304B1002305C10036C62800EFE07FE65E
:1019F00037E600E01842FD76F98E03A70190558F77
:101A000023A0E19058429387019012071183D44399
:101A1000558FD8C303C7870085476305F700F24099
:101A2000056182805537E5BF83A6019037E700E066
:101A30002320D71093870190DC432322F710828064
:101A4000411106C622C49387019085462384D7009E
:101A500003A40190DC435D8C33348000B5372285CC
:101A6000B24022444101828011C18280411106C6E8
:101A700023840190553FB24041018280011106CE7E
:101A800022CC26CA2A84AE8449C58547630AF50854
:101A90008947630CF5088D47630EF508CDC083A711
:101AA000C1841307007DB3D7E702FD172314F100AB
:101AB0008604FD1423129100231501002313010055
:101AC000230601009317240019671307C755BA9717
:101AD00084434C002685EFF08F800546854526859A
:101AE000EFF00F8F85452685EFF08F9625C8854747
:101AF000630DF40689476301F4088D476305F40814
:101B000085452685EFF08F8AF2406244D244056114
:101B100082808545056513050580EFE0BFEEBDBFFA
:101B200085450545EFE0FFEF95BF85450945EFE0A9
:101B30005FEFADB785451145EFE0BFEE85B7B766FE
:101B400000009386C652196613064651930520037A
:101B50003765000013050553EF30A00A8546094696
:101B60008545130590028D3D61BF85460946854533
:101B70001305C002953569B78546094685451305A5
:101B8000D002993DB5BF8546094685451305E0025B
:101B9000A135BDB713578500931727009966938623
:101BA000C655B6979C4383D7C702B385F5028967AC
:101BB00093870771B3D5F50201EF0D89B757001070
:101BC0009387D7B03E950A05C205C1810CC18280BA
:101BD00085476309F70089476300F7028D4763086B
:101BE000F70282800D89B7070010B5073E950A05F8
:101BF000C205C1810CC182800D89B707001093878F
:101C0000D7103E950A05C205C1810CC182800D899D
:101C1000B70700109387D7203E950A05C205C181FA
:101C20000CC1C1B7411106C622C42E841DC9894703
:101C30006308F5069147630CF50699476300F508BC
:101C4000A1476304F508A9476309F508B147631084
:101C5000F50291460146814513056002EFF01FC26F
:101C600039A09146014681452145EFF03FC18547A6
:101C7000630DF4068D476301F40895476305F40886
:101C80009D47630AF408A547630EF408AD47630354
:101C9000F40AB5476308F40AB24022444101828045
:101CA0009146014681450145EFF05FBDC9B79146B8
:101CB000014681453D45EFF07FBC55BF9146014649
:101CC00081451945EFF09FBB5DB7914601468145BF
:101CD00013056004EFF09FBA59BF91460146814554
:101CE00013054002EFF09FB959B79146014681456F
:101CF0002545EFF0BFB84DB79146014681450545F2
:101D0000EFF0DFB751BF9146014681451305300220
:101D1000EFF0DFB651B79146014681451D45EFF022
:101D2000FFB59DBF91460146814513057004EFF054
:101D3000FFB49DB791460146814513055002EFF06F
:101D4000FFB399BF91460146814513057002EFF03C
:101D5000FFB299B7011106CE22CC26CA4AC82A84FE
:101D6000AE84328929C58547630AF5048947630C27
:101D7000F5048D47630EF504CA85268565358545CE
:101D80000545EFE03FC891476389F404A147638AA2
:101D9000F40AA9476396F404AD476313F904854533
:101DA00037151A0013050580EFE01FA115A885451A
:101DB000056513050580EFE0FFC47DBF854505453A
:101DC000EFE03FC655BF85450945EFE09FC56DB7BC
:101DD00085451145EFE0FFC445B79547630BF9040E
:101DE0004800EFE03FDB85472312F100FD57231445
:101DF000F1002315010023130100230601000A044A
:101E000099679387C7553E9400404C002285EFE0C8
:101E10001FCD8146014689452285EFE05FDD85457E
:101E20002285EFE0BFD8F2406244D24442490561C6
:101E3000828085453705180013050530EFE0DF97F0
:101E400045B7A547E31EF9F8854537151A00130570
:101E500005C0EFE07F9669B70A0599679387C75574
:101E6000AA979C4303D547024205418582800A0513
:101E700099679387C755AA979C432392070282804C
:101E8000411106C622C426C24AC0AE8432843689B5
:101E90002DCDC1476303F508930700026318F508C9
:101EA00093068031054685451305D002EFF01F9D4E
:101EB0008547638CF408C5476381F40A93071002D1
:101EC0006396F40A93068031054685451305F002B2
:101ED000EFF0DF9A8947630AF40AC947630FF40AEF
:101EE000930720026304F40C930730026319F40C87
:101EF00093060031054685454A85EFF03F98B2408C
:101F00002244924402494101828093068031054671
:101F100085451545EFF09F9661BF930680310546D4
:101F2000854513053002EFF07F9559B7B76600007D
:101F30009386C65719661306C6569305D0023765B1
:101F4000000013050558EF20D04B9306803105465D
:101F500085451D45EFF09F92B5BF9306803105463C
:101F6000854513055002EFF07F91ADB7B7660000CD
:101F70009386C65719661306C65693052003376520
:101F8000000013050558EF20D04793068031054621
:101F900085451945EFF09F8EA1BF93068031054618
:101FA000854513054002EFF07F8D99B79306803188
:101FB000054685451305E002EFF05F8C15BFB76657
:101FC00000009386C65719661306C656930580030C
:101FD0003765000013050558EF20B042397106DE61
:101FE00022DC26DA4AD84ED652D456D25AD02A8487
:101FF000AE89328AB68A3A8BBE84428941C585470A
:102000006308F508DA865686D2854E85953D2316F7
:102010000100930740102317F100231801008547A2
:102020006383F40893978401E187ADCB894763828A
:10203000F4088D476385F40893070020231BF10003
:102040000E09231C2101231D01009D47231EF100C1
:102050000A041385C182229500416C002285EFE0BD
:102060001FA0C1476384F90685452285EFE0DFA400
:10207000F2506254D2544259B259225A925A025BD7
:1020800021618280854505650505EFE0BF979DBF0D
:10209000854511650505EFE0DF98ADB7231901000F
:1020A000231A010051BF231901008547231AF100AB
:1020B00061B789472319F100231A0100B5BF894789
:1020C0002319F1008547231AF100BDB78545054561
:1020D000EFE08FEE51BFAE969387C1820A053E9521
:1020E0006387B6028505184183C7F5FF2316F700FD
:1020F00083578700898BEDDF65D683578700858BF3
:10210000EDDF8357C7002300F6000506D1BF8280AC
:10211000B7F700E023A0070023820700A38207008F
:1021200023830700A383070023840700A3840700F9
:1021300023850700A3850700054798C337F700E00C
:1021400081475443E39FB7FEE37DD5FE8280411172
:1021500006C60DE585476385F500B24041018280E2
:1021600093068031014685452545EFF02FF19146D4
:10217000014681452945EFF06FF0C5B789476309EE
:10218000F502C1476306F504930700026310F506E4
:1021900093068031014685451305A002EFF00FEE4E
:1021A0009146014681451305B002EFF02FED75B75A
:1021B000930680310146854513056002EFF00FEC70
:1021C00091460146814513057002EFF02FEB71B780
:1021D00093068031014685450945EFF02FEA914687
:1021E000014681450D45EFF06FE985BF9307200259
:1021F000E315F5F693068031014685451305A004E5
:10220000EFF0CFE79146014681451305B004EFF0AA
:10221000EFE6A1B7797106D622D426D24AD04ECEA7
:102220002A84AE89B284368985450545EFE08FFD65
:10223000CA852685293F89476381F40293072002D6
:102240006390F40293073002631CF900854537055B
:1022500014004105EFE04FD621A08D47630AF90431
:1022600029CC85476300F40689476303F4064EC012
:10227000231201002313010023140100231601007F
:10228000B1472315F1000A0499679387C75A3E9412
:1022900000408A852285EFE09F9C85452285EFE0FE
:1022A0007FABB250225492540259F2494561828068
:1022B00085451145EFE04FD065B785451165EFE0E5
:1022C0006FF475B7854537050200EFE08FF545B728
:1022D000854537050400EFE0CFF451BF0A05996743
:1022E0009387C75AAA9798438357070093F707081D
:1022F000E5DFC205C1812312B70082801DC64111EE
:1023000006C622C426C24AC02A892E84B384C500C8
:1023100005048345F4FF4A85D137E39B84FEB24030
:10232000224492440249410182808280411106C6C2
:10233000B7170240DC43C983BD8B37177A001307F8
:102340000720B387E7023727F40013070740BA973F
:1023500023A6F18485460146F16593850520014554
:10236000553DB24041018280011106CE22CC26CAE1
:102370004AC84EC6B2896358C002AE843389C500CC
:10238000996703A4C75A930500042285EFE03F9F95
:102390007DD985048385F4FFC205C1812285EFE0E4
:1023A0007F9DE31299FE4E85F2406244D244424939
:1023B000B249056182804111B71702409843136703
:1023C000170098C3D843B706FFF8758FD8C3984352
:1023D000B706F7FEFD16758F98C39843B706FCFF46
:1023E000FD16758F98C3D843B70681FFFD16758F0C
:1023F000D8C337079F0098C702C402C69843C16676
:10240000558F98C337160240B706020013070050D5
:102410001C42F58F3EC6A24785073EC4B24781E7FE
:10242000A247E397E7FEB71702409C431397E700E4
:10243000635A070085473EC6324785476306F70063
:102440004101828002C6CDBFB7270240984313677F
:10245000070198C39843719B98C39843136727005B
:1024600098C3B7170240D843D8C3D843D8C3D8437A
:10247000D8C3D843B706C1FFFD16758FD8C3D8435C
:10248000B7062500558FD8C39843B7060001558F6E
:1024900098C3371702401C4393966700E3DD06FE9E
:1024A000B7170240D843719BD8C3D843136727009E
:1024B000D8C3B71602402147DC42B18BE39EE7FE4A
:1024C00041B7411106C61145EFF00FA61945EFF0CF
:1024D000AFA52145EFF04FA52545EFF0EFA4B240A1
:1024E000410182805D7186C6A2C4A6C2CAC04EDE0A
:1024F00052DC56DA5AD85ED662D466D26AD06ECE34
:10250000EFF00FD4EFF09FE283A7C18409671307B0
:1025100007F4B3D7E7021305803E3385A702814550
:10252000EFF01FBF49249306003101468545014560
:10253000EFF0CFB4D1450D45EFF04FD43767000031
:102540000327C75B23A6E186376700000327075CE4
:1025500023A4E186BD370145EFF00FD1B767000036
:10256000376700008326075D0327475D36C03AC200
:1025700003A8C75C83A7875C3EC442C6B767000058
:1025800083AD475CEDA0376600001306865D81458C
:102590000145EFE05FD60396C1858145130500062E
:1025A000EFE05FE1376600001306465E89450145AE
:1025B000EFE07FD403D6E185894513050006EFE0FF
:1025C0003FEB376600001306065F8D450145EFE0DF
:1025D0009FD203D601868D4513050006EFE05FE923
:1025E000376600001306C65F91450145EFE0BFD096
:1025F00003D62186914513050006EFE07FE7376695
:1026000000001306866095450145EFE0DFCE03D656
:102610004186954513050006EFE09FE5376600000B
:102620001306466199450145EFE0FFCC03D641868C
:1026300083D721863E9683D701863E9683D7E18550
:102640003E9642064182994513050006EFE05FE29F
:10265000376600001306C6619D450145EFE0BFC91E
:1026600003C6218F9D4513050006EFE09FCD23890A
:10267000018E154691451145EFF02F9A239FA184B5
:10268000154691451945EFF04F992390A1861546BF
:1026900091452145EFF06F982391A186154691450C
:1026A0002545EFF08F972A8B2392A18683DBE18566
:1026B00003DC01865E85EF10C048B767000003A603
:1026C000875C83A6C75CEF00507C2A8AAE8A62854D
:1026D000EF102047B767000003A6075D83A6475D9C
:1026E000EF00B07A2A86AE865285D685EF00F006D6
:1026F000EF2020332A8D23AAA18403D421862285AA
:10270000EF10204402469246EF0030782A8AAE8AC3
:102710005A85EF1000432246B246EF0010772A8612
:10272000AE865285D685EF005003EF20802F2A8A8F
:1027300023ACA184AA856A85EF10B063EE85EF1003
:10274000503AAA8AD2856A85EF10C046AA85568576
:10275000EF10E07C2A8A23A8A18483A50187EF10CB
:10276000506183A58186EF10D0372A8D83A5C1865D
:102770005285EF101037AA856A85EF10A043EF202D
:10278000C017239EA18423A841875A94229CE29BD0
:1027900093076009E3D977DF85472389F18E1547D1
:1027A000239AE186CDB3411106C61D28EFE01F83B1
:1027B0009306100213060002B715070093850580E3
:1027C0000945EFF03FA5154691450545EFF08FD837
:1027D0002D46A9450945EFF0EFD7B240410182806F
:1027E000411106C693068004014681451305800405
:1027F000EFF0CF88930680040146814513059004CD
:10280000EFF0CF879306800401468145130520022F
:10281000EFF0CF86B24041018280011106CE22CC7A
:1028200026CA4AC84EC6AA893689B305B0409394D1
:102830000501C1843306C040131406014184635668
:10284000A00681451305A004EFF06F94CE85130513
:102850000030EFF02FB46358900681451305B004A3
:10286000EFF0EF92A68513051030EFF0AFB2635A88
:10287000800681451305C002EFF06F91A285130514
:102880002030EFF02FB1635C200781452145EFF048
:102890000F90CA8513053030EFF0CFAFF24062449D
:1028A000D2444249B2490561828085451305A0049E
:1028B000EFF0EF8D896593850571CE951305003096
:1028C000EFF04FAD49BF85451305B004EFF02F8CF5
:1028D000896593850571A69513051030EFF08FABD0
:1028E00079B785451305C002EFF06F8A8965938536
:1028F0000571A29513052030EFF0CFA969B7854582
:102900002145EFF0CF88896593850571CA95130538
:102910003030EFF02FA859B7397106DE22DC26DA05
:102920004AD84ED652D456D25AD05ECE62CC66CA5F
:102930006AC86EC642054181C205C181330AB5002D
:10294000420A135A0A0142064182330BCA00420B63
:10295000135B0B41239D6187898DC205C181B38AB9
:10296000C540C20A93DA0A41239E5187330ACA40FE
:10297000420A135A0A41239F4187B2959399050150
:1029800093D90941239031890395818783D5E18EBD
:1029900003D6C18E9387218803C7070093161700BB
:1029A0001387C190369783D661872310D70003C75A
:1029B0000700931617001387819136972310A700FD
:1029C00003C7070093161700138741923697231009
:1029D000B70083C707001397170093870193BA972F
:1029E0002390C70083C7318893F7F70F1147636BB4
:1029F000F7001387318883470700850793F7F70FA0
:102A00002300F7009387218803C707000507137782
:102A1000F70F2380E70083C7070093F7F70F1147ED
:102A20006374F700238101881387C19083572700BF
:102A300083560700B69783564700B697035567003D
:102A4000AA9703558700AA97C207C1872392F18EE0
:102A500013878191035927008356070036998356BF
:102A600047003699835667003699035787003A998D
:102A70004209135909412393218F138741928354AB
:102A8000270083560700B69483564700B6948356B2
:102A90006700B69403578700BA94C204C184239494
:102AA000918E1387019303542700835607003694B1
:102AB0008356470036948356670036940357870041
:102AC0003A94420441842395818E938B318803C5C7
:102AD0000B001375F50F33C5A702EF1030682A8D70
:102AE00023A2A18C03C50B001375F50F3345A90272
:102AF000EF10D066AA8C23A4A18C03C50B0013751C
:102B0000F50F33C5A402EF1070652A8923A6A18CA6
:102B100003C50B001375F50F3345A402EF101064C5
:102B20002A8C23A8A18C5A85EF105063EA85EF10F8
:102B30005024AA8423AAA1881384418A032D040067
:102B4000EA85EF10102383A58181EF1080792A8B0D
:102B500083A581802685EF10C078AA855A85EF105D
:102B600060052A8BEA856A85EF10C004AA85268550
:102B7000EF103020938B418B83A50B00EF10800367
:102B800083A54188EF10E075AA855A85EF10800271
:102B9000938D418D83A50D00EF10C0012A8B23A0DA
:102BA000AD0023A0AB0104C05685EF10305BE68575
:102BB000EF10301CAA8423ACA1881384818A832C53
:102BC0000400E685EF10F01A83A5C181EF10607153
:102BD000AA8A83A5C1802685EF10A070AA85568594
:102BE000EF00507DAA8AE6856685EF00B07CAA8555
:102BF0002685EF101018938B818B83A50B00EF00B7
:102C0000707B83A58188EF10C06DAA855685EF0083
:102C1000707A138D818D83250D00EF00B079AA8A1B
:102C20002320AD0023A09B0104C05285EF10105358
:102C3000CA85EF101014AA8423AEA1881384C18A18
:102C4000032A0400D285EF10D01283A50182EF1071
:102C500040692A8983A501812685EF108068AA85AD
:102C60004A85EF003075AA8BD2855285EF009074AB
:102C7000AA852685EF10F00F1389C18B83250900E3
:102C8000EF00507383A5C188EF10A065AA855E850B
:102C9000EF005072938CC18D83A50C00EF009071F2
:102CA000AA8B23A0AC002320490104C04E85EF105D
:102CB000F04AE285EF10F00BAA8423A0A18A1384C6
:102CC000018B83290400CE85EF10B00A83A54182D1
:102CD000EF1020612A8983A541812685EF1060606D
:102CE000AA854A85EF00106D2A8ACE854E85EF00B1
:102CF000706CAA852685EF10D0071389018C832577
:102D00000900EF00306B83A50189EF10805DAA8573
:102D10005285EF00306A138A018E83250A00EF0086
:102D200070692A8C2320AA002320390104C0B767C8
:102D3000000083A547625A85EF1080496355A00CB7
:102D4000376700000327476223AAE18CB7670000BA
:102D500083A547625685EF10A0476356A00C3767DE
:102D600000000327476223ACE18CB767000083A50E
:102D700047625E85EF10C0456357A00C37670000BF
:102D80000327476223AEE18CB767000083A5476243
:102D90006285EF10E0436358A00C376700000327FB
:102DA000476223A0E18E03A5018EEF1010351319A1
:102DB00005011359094103A5C18DEF101034931477
:102DC0000501C18403A5818DEF1030331314050173
:102DD000418403A5418DEF105032CA862686A28514
:102DE00042054185EFF07FA3F2506254D25442591C
:102DF000B259225A925A025BF24B624CD24C424D6B
:102E0000B24D21618280B767000083A587625A8531
:102E1000EF106044E35C05F2376700000327876228
:102E200023AAE18C25B7B767000083A58762568582
:102E3000EF106042E35B05F237670000032787620B
:102E400023ACE18C1DB7B767000083A587625E8560
:102E5000EF106040E35A05F23767000003278762EE
:102E600023AEE18C15B7B767000083A58762628542
:102E7000EF10603EE35905F23767000003278762D1
:102E800023A0E18E0DB7411106C60545EFE0DFFC3A
:102E90002396A18E0945EFE03FFC3305A040420593
:102EA00041852397A18E0545EFE07FFC0945EFE0C2
:102EB0001FFCB240410182809387C193130780FDBC
:102EC0002380E700130700FBA380E7009386C18EF1
:102ED00003D706004207418721872381E70003D7F4
:102EE0000600A381E700130710FB2382E700938607
:102EF000E18E03D70600420741872187A382E700BE
:102F000003D706002383E700130720FBA383E70012
:102F10009386018F03D706004207418721872384C8
:102F2000E70003D70600A384E700130730FB2385DF
:102F3000E7000397C18593568740A385D700238672
:102F4000E700130740FBA386E70003C7218F238711
:102F5000E7003957A387E700828037081000011186
:102F60007D183377B80026CA3378D80093D445014A
:102F700013D34601131E37004EC61357D5010E0852
:102F80009357D60193F4F47F1373F37F06CE22CCCC
:102F90004AC893D9F50193DEF6013367C701131FC1
:102FA000350033E80701931F3600338E6440638099
:102FB000D9196356C0136304031CB7068000930736
:102FC000F07F3368D800638FF4369307800363C0C3
:102FD000C735FD4763CDC747130500023305C5411B
:102FE000B3D7CF01B316A8003399AF00DD8E3339C4
:102FF0002001B357C80133E926011D8F33092F4142
:10300000B3372F013306F7409317860063D40724A4
:10301000370780007D173374E600630C042C22858B
:10302000EF10D036130785FF93070002998FB3572F
:10303000F9003316E400D18F3319E9006341972A70
:1030400033059740130615007D47634DC7381307B6
:103050000002118FB356C9003319E9003397E70016
:10306000558F333920013369270133D6C700814496
:103070009377790081CF1377F90091476308F700C0
:1030800013074900333927014A963A899317860076
:1030900063D6071C138514009307F07FCE85630465
:1030A000F520B70780FFFD17F18F9398D7011359CB
:1030B0003900A607B3E82801B1831375F57F93960D
:1030C000C7005205F2406244B182FE05C98ECD8E22
:1030D000D2444249B2494685B68505618280631E65
:1030E0000E0A138314001373E37F63170322B3677D
:1030F000E701B368F801639D041A6387074063869C
:1031000008443309FF41B307074133362F013386A3
:10311000C7409317860063D6074C3389EF41B30746
:10312000E84033B62F013386C740F68991B7635024
:10313000C00F6300030CB70680009307F07F33686D
:10314000D800638AF43A9307800363CBC713FD4723
:1031500063DFC73513090EFE93070002B35628013B
:10316000630AFE00130900043309C9413319280119
:10317000B3EF2F013339F0013369D90031A2B367BE
:10318000F801638A071C9307FEFF638C07389306D8
:10319000F07F6309DE1A3E8E0DBDB3059340639147
:1031A0000422B367E701638707329387F5FF6381E2
:1031B00007449306F07F638CD520BE859307800378
:1031C00063CCB72AFD4763CFB73C930700028D8FCE
:1031D0003319F700B356BF00B317FF003369D900A6
:1031E000B337F0003357B7003369F9003308E840CC
:1031F00041ACB367F801638007349307FEFF638A2D
:1032000007209306F07F6308DE2E3E8E2DBF631EDF
:103210000E149386140093F7E67F63910734B36727
:10322000E7016395042C6380073EB367F801638E62
:1032300007303309FF01B3070701333FE901338644
:10324000E7019317860063D70700B70780FFFD17D4
:103250007D8E854493777900E39F07E09317D6012D
:1032600093583900B3E8F800935736001307F07FFE
:10327000638DE404B207B18313F5F47FCE8581B585
:103280003369F801333920017A99B337E90133867C
:10329000E70093178600E3DF07FA85049307F07FC2
:1032A0006396F418CE851305F07F8147814801BDF0
:1032B000C1EB6384083A931636009317D8018D82C8
:1032C000B3E8D700F68993573800B3E7F800F9DB85
:1032D00081451305F07FB70708008148CDB3370655
:1032E00080FF7D167D8E93777900998CE39507D8C2
:1032F000B5B74A85EF10900913078501FD47E3D55F
:10330000E7D2130685FFB317C900014905BB33692E
:10331000F80133392001DDB13309FF41330607419C
:1033200033342F01330486409317840063CD072480
:10333000B3688900E39308CE8147814981441DBF6A
:10334000E39808F80E059317D7010D81B3E8A7009D
:10335000935737009DBF0E059317D7010D81B3E832
:10336000A700F2849357370011B733059340638267
:103370000412B70680009307F07F558F630DF32E7C
:103380009307800363CBA720FD4763C3A72A930756
:103390000002898F3319F700B356AF00B317FF004F
:1033A0003369D900B337F0003357A7003369F90008
:1033B0003A987E99B337F901338607019A84D1BDD3
:1033C000B70680009307F07F558FE319F3DE93175C
:1033D00036008D839318D801B3E81701F689935707
:1033E0003800E5B5130715FE9306000233D7E70052
:1033F000630AD600930600043386C6403396C7009E
:103400003369C900333920013369E9000146814439
:1034100091B53309FF01B30707013336E9013E9641
:10342000931786008544E3D707E28944B70780FFF6
:10343000FD17F18F1357190013791900336927010C
:103440009398F70133E9280113D6170015B1130932
:103450000EFE93070002B3562801630AFE0013090B
:1034600000043309C94133192801B3EF2F0133395F
:10347000F0013369D90059B63369E70133392001C6
:1034800033892F41B3B72F013306F8409A84F68968
:10349000A5BEB367E701638207189307F5FF63844E
:1034A000071C9306F07F6304D5123E85D1BD9307B8
:1034B0000002B387C741B316F8003399FF0033D633
:1034C000CF01D18E33392001B357C80133E926012A
:1034D0003E975DBB931736008D839318D801B3E8F0
:1034E0001701AE8493573800F68949B3EDC33369A9
:1034F000F801E31F09DC0E059317D7010D81B368AE
:10350000F50093573700D1B36381080E9316360048
:103510009317D8018D82B3E8D700F6899357380006
:1035200091BB3309FF41B3070741333F2F01338676
:10353000E7418544D1BC0E059317D7010D81B368CF
:10354000F500F2849357370015B30E059317D70192
:103550000D81B3E8A7009357370029BB9307F07F8D
:10356000E382F6D43309FF013336E901B3070701DB
:10357000B2979398F7011359190033E9280113D62C
:103580001700B684C1B93389EF413307E84033B639
:103590002F013304C740F68949B43369E701333951
:1035A000200101BD938705FE93060002B357F70083
:1035B000638AD50093060004B385B6403317B7007D
:1035C000336FEF003339E0013369F90055BD9317CC
:1035D00036008D839318D801B3E81701935738004C
:1035E000EDB1B368C900E39708C68147814959B175
:1035F0003389EF41B307E84033B62F013386C74024
:10360000F689854411B4931636009317D8018D823C
:10361000B3E8D70093573800B1B993163600931723
:10362000D8018D82B3E8D700AA84935738003DB9FA
:10363000930705FE93060002B357F700630AD5000F
:10364000930600043385A6403317A700336FEF00BD
:103650003339E0013369F900A9BB81451305F07FD7
:10366000B7070800A9BC3309FF01B30707013336C8
:10367000F9013E9675B3931636009317D8018D82E3
:10368000B3E8D7009357380089B139714AD813D9B4
:1036900045014ED652D456D29399C50006DE22DC9F
:1036A00026DA5AD05ECE1379F97F2A8A93D9C900D7
:1036B00093DAF501630D090E9307F07F6306F9189D
:1036C0001354D5018E09B36934013704800033E403
:1036D000890093143500130919C08149814B13D710
:1036E0004601139AC6001377F77FB285135ACA00B2
:1036F00013DBF601630B07109307F07F6303F704F6
:103700009357D6010E0A33EA4701130717C0B707CC
:103710008000B367FA00931536003A99814833C7A1
:103720006A01BD463A851308190063E83617173653
:1037300000001306E6EF8A09B29983A60900B29643
:103740008286B367CA001309F97F6399071293E968
:10375000290081458948E1B701479307F07F370485
:10376000080081443204D20731807E075D8C598C79
:10377000A285F250625426854259D254B259225A37
:10378000925A025BF24B216182805A853E84AE845C
:10379000C68B8947638DFB0E8D47E38FFBFA854708
:1037A0002A87639EFB3881470144814465BF33E427
:1037B000A90061C036C632C4638C092A4E85EF1059
:1037C000E03C2246B246AA87130755FF754493840E
:1037D00087FF198CB399990033548A0033643401FC
:1037E000B3149A0013D746011309D0C0139AC60028
:1037F0001377F77F3309F9408149814BB285135A1A
:10380000CA0013DBF601E31907EEB367CA00B1C7BC
:10381000630F0A22528532C4EF10403722462A87AE
:10382000930655FFF547930587FF958F331ABA0026
:10383000B357F600B3E74701B315B6003309E940C3
:103840001309D9C08148E1BD33E4A90001ECA149C5
:1038500081441309F07F894B59B593E919008145DB
:10386000854875BD4E84AA84B1491309F07F8D4BFC
:10387000BDB5914981440149854B95B593E939001E
:10388000D2878D4869BD89475685E397FBF02A8723
:103890009307F07F01448144F1B5C16E1386FEFFAA
:1038A00093D6040113DE0501F18CF18D3386950268
:1038B0003383B6029358060133059E021A95AA98DF
:1038C000B382C60363F36800F692C16F1383FFFFF0
:1038D00033F5670093D30701B3F76800C20733736A
:1038E00066003E933306950293D80801B387A6027B
:1038F000135F0601B3849302BE94FA94B38E7602EA
:1039000063F3F400FE9E416A9307FAFF935F04019C
:10391000B376F400B3F9F4007D8EC1803384D50210
:10392000C209338FD401B299CE98B307DE02935EF9
:103930000401B385BF02AE97BE9E330EFE0363F350
:10394000BE00529EC1679385F7FF33F6BE006D8CB3
:103950004206229693DE0E01B305D502769E33858C
:10396000AF0213D40501B386D302AA96A296B38FF1
:10397000F30363F3A600BE9F41657D15B3F7A60070
:10398000C2076D8DAA97B3855800B3B93501FA9770
:10399000B2953384370133B6C500B30EC401338505
:1039A000CE0033343401B3B7E701C18F33BECE014B
:1039B00013D406013336C5003E943366CE0093948B
:1039C000950032947E94B3E4640026049356750106
:1039D000B3349000DD8193179500CD8C558CDD8C30
:1039E0009317740063DB070093D714008588931640
:1039F000F401DD8CD58C058042899307F93F63592A
:103A0000F00893F6740081CE93F6F40011466388B3
:103A1000C60093864400B3B496002694B6849316E9
:103A2000740063D80600B70700FFFD177D8C93076D
:103A300009409306E07F63CFF60E93D634009314CB
:103A4000D4012604D58C318093F7F77F21BB3285D2
:103A500032C4EF10A01393065501F1471307050276
:103A60002246E3D1D7DC6115B317A6008145F9B32F
:103A7000EF10C01113075501F145930705022246C7
:103A8000B246E3D5E5D461153314AA00814499BB4D
:103A900085469D8EB1E71309E941B3972401B3D45C
:103AA000D40033192401B337F000B3649900DD8CDE
:103AB00093F77400B356D40081CF93F7F400114606
:103AC0006388C70093874400B3B49700A696BE846A
:103AD0009397860063D8070485470144814459B110
:103AE00013068003E341D6CC7D46E356D6FA05564D
:103AF000B307F640930500023356F4006387B6001F
:103B00001309E943B3172401DD8CB3349000D18C41
:103B100093F67400014499CA93F7F4001146814664
:103B2000E392C7FA139496003180F6068D80D58C07
:103B300081470DB99307F07F0144814425B1428943
:103B40006DBD411106C622C426C20DCD9357F54165
:103B5000B3C4A7009D8C2A842685EF10200393060A
:103B6000E041898EA9477D8093F6F67F63CDA70259
:103B70002D47098FB3D7E4005505B207B394A400CD
:103B8000B18329A00144814681478144B207D2060E
:103B9000B1837E04D58FC18FB24022442685BE8575
:103BA0009244410182805515B397A400B207B183B6
:103BB0008144E9BF4111370780007D1713D8750193
:103BC00026C2935475013373A70093F4F40FB376B0
:103BD000B7004AC01378F80F1359F50106C622C47E
:103BE000FD819A8726854A86131E3300939E3600F0
:103BF000B3880441630AB90E6350100D63040814BE
:103C00009307F00F638BF414B7070004B3EEFE00C4
:103C1000ED4763C1172993070002B3871741B39794
:103C2000FE00B3D81E01B337F000B3E7F800B307C6
:103C3000FE4013975700635E0718370400047D1495
:103C40007D8C2285EF0090746D15B317A400634836
:103C5000951A058D1304150013070002018F339781
:103C6000E7003337E000B3D78700D98F814413F7DB
:103C7000770019C713F7F70091466303D700910740
:103C800013975700635B071485041307F00F4A86E8
:103C90006383E4169A07A58313F5F40FB240224418
:103CA000A6079314750113D59700458D7E0692449F
:103CB0000249518D410182806399080A13871400DB
:103CC0001377E70F6317071463900422630D0E1E2A
:103CD000E3860EFCB307DE411397570063500722BB
:103CE000B387CE412E8961B7635C100B630E080861
:103CF0009307F00F6383F406B7070004B3EEFE00EA
:103D0000ED4763C9171F93070002B3871741B397A5
:103D1000FE00B3D81E01B337F000B3E7F800F29706
:103D2000139757006357070A85041307F00F63843E
:103D3000E40CB706007E13D71700FD16858B758F30
:103D4000D98F35B7638D0E08FD18B307DE41E382C6
:103D500008EE9307F00FE39DF4EA630D03080146B4
:103D60001305F00FB707400015BF33079840EDE883
:103D700063020E147D17630807189307F00F631989
:103D8000F80E2E893683D1BF638B0E04FD18B3075E
:103D9000DE01E38708F89307F00FE393F4F675BFAD
:103DA00063950808850413F7E40F6313071263177C
:103DB0000510630F0E14E3830EEEB307DE011397B5
:103DC0005700814463570700370700FC7D17F98FC0
:103DD000854413F77700E31F07E813D337009307F1
:103DE000F00FE38CF4F693179300A58313F5F40F0B
:103DF0004A866DB54A861305F00F814745B53707EA
:103E000000FC7D17F98F13F77700898CE31407E620
:103E1000E9B73304DE419317540063C3070CE31280
:103E200004E201460145814795BD33079840ADC482
:103E30009307F00FE308F8F4B7070004336EFE00B1
:103E4000ED4763CCE70C93070002998FB317FE0090
:103E50003357EE00B337F000D98FF697C284C9B557
:103E60009307F00FE30FF8F0B7070004336EFE007E
:103E7000ED4763C3E70893060002998EB316DE0090
:103E8000B357EE003337D000D98FB387FE40C284DA
:103E90002E8945B3854761BB630E0E067D17B307B8
:103EA000DE01C284E30E07E69307F00FE31AF8F889
:103EB000368365B53683C2842E8915B7E3040EECCC
:103EC000E38D0EE869BD638D0E022E86B687F9B3C9
:103ED0009307F00FE381F4F2B307DE018583D5BDCC
:103EE0003384CE412E89B1BBE31C0EFCE3890EE680
:103EF0002E8949BD854725B5854741BFE39B07EC22
:103F00000146814761BBB387CE41C2842E8915B378
:103F1000B68769B33683C284D9B585473DBF397149
:103F2000935775014AD856D25ECE931A950013590D
:103F3000F50106DE22DC26DA4ED652D45AD093F7AB
:103F4000F70F93DA9A00CA8B638207121307F00FF8
:103F50006384E7128E0A37070004B3EAEA00138A83
:103F600017F80144014B93D775019394950093F78B
:103F7000F70FA58093D9F501FDC71307F00F6387ED
:103F8000E7028E04938717F837070004D98C330AA9
:103F9000FA408146558C172700001307676D0A0405
:103FA0003A941C4033493901BA978287130A1AF0B0
:103FB000F9E88946558C172700001307676F0A0434
:103FC0003A941C4033493901BA9782870149130753
:103FD000F00FB707400013959700F2506254931703
:103FE000770125817E095D8D33652501D2544259C3
:103FF000B259225A925A025BF24B21618280130716
:10400000F00F8147C9BFA68ACE8B368B8947630BD9
:10401000FB1A8D47E30CFBFA8547630AFB0A13077B
:10402000FA0713F91B006357E01293F77A0099C758
:1040300093F7FA0091466383D700910A93974A0059
:1040400063D90700B70700F8FD17B3FAFA001307A2
:104050000A089307E00FE3C4E7FA93976A00A58381
:104060001377F70F8DBFB9E48546A9B763940A02A9
:104070001144014A054BC5BD63990A002144130A46
:10408000F00F094BCDB58D4631B73144130AF00F0F
:104090000D4BD1BD56852EC6EF00502F9307B5FFAF
:1040A000B39AFA009307A0F8338AA7400144014B62
:1040B000B24555BD2685EF00702D1307B5FFB30738
:1040C000AA00B394E400138A67078146E1B513F9A7
:1040D0001B000147814701B74166139554007D16C7
:1040E00093570501698E63FA9A0AB3D5FA027D1ACD
:1040F000D68601473388C502B3F6F602C206558F4D
:10410000637B07012A979386F5FF6368A70A6376A6
:10411000070BF9152A9733070741B356F702337790
:10412000F702B38AC6029317070163FB5701AA97E8
:104130001387F6FF63E1A70863FF5707F916AA97ED
:10414000C205B38A5741D58DB33A5001B3EA550140
:10415000CA8BF1B58546998E11C76D4601478147D7
:10416000E34BD6E6130AEA09339A4A01B3D7DA00D9
:10417000B33A4001B3E7570113F7770019C713F7B4
:10418000F70091466303D7009107139757006348E0
:1041900007029A07A58301473DBD93D61A00B3D500
:1041A000F6021397FA0141833388C502B1B7CE8B6B
:1041B000368B814AA1BDBA8661B7B685A9BF0547CE
:1041C000814711BD13F91B001307F00F814721B57B
:1041D00093567501B7078000FD1713D6750193F646
:1041E000F60F1308F00FB3F8A7001357F501ED8F82
:1041F0001376F60FFD8163810603630C06018DE2E1
:1042000011E2B1C3638E08026305B70405451DE7DB
:104210008280F5D779558280E39E08FE6309D60235
:1042200011E2EDD7E314B7FEE342D6FE63C7C60042
:10423000E3EE17FD0145E3FDF8FC01E77D558280C3
:10424000F5DD054582800145E39208FC8280F9DBBB
:10425000D1B78146E1BF93567501B7078000FD17BE
:1042600013D6750193F6F60F1308F00FB3F8A700F5
:104270001357F501ED8F1376F60FFD816387060363
:104280006309060185EA11EA89EB0145639B080091
:1042900082800945F5FFE5DA31A8638C08026300E6
:1042A000B704054575D77D55828009456398080296
:1042B0006304D60211E2F5D7E315B7FEE343D6FE59
:1042C00063C7C600E3EF17FD0145E3F3F8FC19E30C
:1042D000D9BFF1D905458280E5D3828082808146AD
:1042E000C5B7797122D4135475014ECE52CC9319AF
:1042F000950006D626D24AD056CA5AC81374F40F6F
:1043000093D99900135AF50169C49307F00F630814
:10431000F40E9397390037070004B3E9E70013045C
:1043200014F88144014B13D77501939A95001377C4
:10433000F70F93DA9A0013D9F50145CF9307F00FE1
:10434000630CF7028E0A130717F8B7070004B3EAE5
:10435000FA003A94014633452A01BD47AA869305DF
:10436000140063E0971017270000130767388A04CA
:10437000BA949C40BA9782871304F40F63960A0C90
:1043800093E424000946C1BF01451307F00FB707A6
:104390004000B2502254A6075E07A5837E05D98F40
:1043A00092540259F249624AD24A424B5D8D4561AC
:1043B0008280CA86D689328B8947630FFB088D4776
:1043C000E304FBFC854736856310FB1A01478147F0
:1043D000C9B7639D090413D77501939A95001377A4
:1043E000F70F91440144054B93DA9A0013D9F50174
:1043F00031F7639D0A0093E414000546A9BF639258
:104400000902A1441304F00F094B31BF5685BD2F9B
:104410009307B5FF098CB39AFA001304A4F8014678
:104420001DBFB1441304F00F0D4BF5BD4E852EC6D4
:10443000B12F9307B5FF1304A0F8B399F900098CC5
:104440008144014BB245C5B593E434000D4621B714
:104450008947D286E315FBF636851307F00F8147AF
:104460000DBF41639306F3FF13D6090193D80A01E8
:10447000B3F7D900B3FADA0033885703B389F802E7
:1044800013570801B30A5603D6994E9733061603FD
:10449000637357011A96C167FD17B376F700337837
:1044A000F800C206C2969399660093570701B33984
:1044B0003001E982B2979A07B3E6D900B3E9D70091
:1044C0009397490063D9070013D7190093F7190090
:1044D000B369F7002E841307F4076350E00493F7E1
:1044E000790099C793F7F90091466383D700910942
:1044F0009397490063D90700B70700F8FD17B3F990
:10450000F900130704089307E00F63CBE7049397C0
:104510006900A5831377F70FADBD8547B386E740E4
:1045200011C76D4601478147E345D6E61307E40905
:104530003397E9003337E000B3D7D900D98F13F7A9
:10454000770019C713F7F70091466303D700910767
:1045500013975700634C07009A07A583014715BDC1
:104560001307F00F814735B52E84B5B7054781474E
:104570000DB53707800041117D179356750113D88B
:104580007501B377A70093F6F60F935EF5013376C6
:10459000B70026C24AC01378F80F06C622C4130318
:1045A000F00F3E8E3689F684139F3700FD81131578
:1045B0003600B38806416302681093C51500638C0A
:1045C000BE106354100D631008106304051EFD181F
:1045D000B307AF40638608029307F00F6388F616AF
:1045E000ED4763C717291307000233071741331735
:1045F000E500B35715013337E000D98FB307FF400B
:10460000139757006351071A370400047D147D8CFB
:104610002285AD2B6D15B317A400634E251B330502
:1046200025411304150013070002018F3397E7009B
:104630003337E000B3D78700D98F014913F77700EC
:1046400019C713F7F70091466303D7009107139733
:104650005700635E0714930619001307F00F93FECB
:1046600014006386E6169A07A58393F6F60FA6074D
:10467000B240224413D59700DE069397FE01558D74
:10468000924402495D8D410182806392080A13873A
:1046900016001377E70F631B071463940622630267
:1046A0000F2071D5B307AF4013975700635507220A
:1046B000B307E5410149AE8451B7E30005F0638AD1
:1046C000BE0AE35410FD9307F00F6381F608B707A5
:1046D00000045D8D31B7635E10096301080893071C
:1046E000F00F6385F606B70700045D8DED4763C0E4
:1046F000171F13070002330717413317E500B3579D
:1047000015013337E000D98FFA9713975700635C90
:10471000070805091307F00F630BE90AB706007EC7
:1047200013D71700FD16858B758FD98F01BF3307FF
:10473000D84063950610630D0F147D176303071AA5
:104740009307F00F6314F810AE84328E630F0E06D9
:10475000814E9306F00FB707400011BF39C9FD180D
:10476000B307AF00E38308FA9307F00FE390F6F87E
:10477000F1BF63990808138916001377E90F6316D0
:104780000712639B061063030F16E30205EEB307DF
:10479000AF0013975700014963570700370700FC24
:1047A0007D17F98F054913F77700E31C07E813DE3F
:1047B00037009307F00FE30BF9F893179E00A583DA
:1047C0009376F90F93FE14005DB593FE14009306E3
:1047D000F00F814769BD370700FC7D17F98F13F78C
:1047E00077003309A940E31E07E4D1B73304AF4093
:1047F0009317540063C3070CE31C04E0814E814609
:104800008147B5B53307D840B5C69307F00FE30E1F
:10481000F8F2B7070004336FFF00ED4763CDE70CF4
:1048200093070002998FB317FF003357EF00B33798
:10483000F0005D8FB307A7004289C1BD9307F00F59
:10484000E304F8F0B7070004336FFF00ED4763C2DD
:10485000E70893070002998FB317FF003357EF0063
:10486000B337F000D98FB307F5404289AE8449BB16
:10487000854769B3630E0F067D17B307AF00428902
:10488000E30507E89307F00FE319F8F8328E7DBDD2
:10489000328E4289AE8431BFE3090FEAE30805EAAC
:1048A00045BD0DCDAE8EB287D9B39307F00FE300AF
:1048B000F9F2B307AF008583FDB53304E541AE845B
:1048C00081BBE31D0FFCE30505E8AE84BDBD854754
:1048D00025BD854749BF0149E39707EC814E8147D4
:1048E00079B3B307E5414289AE8419BBB28741B3BE
:1048F000328E42897DBD054735BF3706800013578C
:1049000075019307F6FF1377F70F9305E007B3F6EA
:10491000A7009357F50163FCE5009305D00963FAFE
:10492000E500370500801345F5FF3E95828001457F
:10493000828093055009D18E63CDE500130660098E
:104940003307E64033D7E6003305E040F5F33A8518
:1049500082801307A7F63397E600FDB7411106C61C
:1049600022C426C20DCD9357F54133C4A7001D8C38
:10497000AA842285212C9307E0093387A740930757
:104980006009FD8063CCE702A1469377F70F63D5FA
:10499000A60061153314A4002604258021A08144BB
:1049A00081470144260413559400B2402244DE0797
:1049B000FE045D8D458D92444101828093079009EC
:1049C00063DDE7009307B5019546B317F400898EC0
:1049D0003354D400B337F0005D8C954763D6A700FD
:1049E0009307B5FF3314F400B70600FCFD16937768
:1049F00074003376D40085C39377F4009145638CBB
:104A0000B70011069317560063D707009307F00904
:104A1000758E3387A7401314660025809377F70FB0
:104A200051B793D645019397C50093F6F67FB183AE
:104A3000138616008E071357D5011376E67FFD8186
:104A40005D8F9318350035CE138806C89307E00FA5
:104A500063DD07018147139597009306F00FDE068B
:104A60002581FE05558D4D8D82806355000B931772
:104A700065000E07B337F000D98F93D8D801B3E79C
:104A8000170113F777006301071013F7F70091463A
:104A90006303D7009107370700047D8F75C713079D
:104AA00018001306F00F9376F70FE305C7FA9A077D
:104AB000A58313959700DE062581FE05558D4D8D46
:104AC0008280B367170199EE85CF95479A07A58332
:104AD0001395970093F6F60FDE062581FE05558D9A
:104AE0004D8D8280A5DBB707400013959700930694
:104AF000F00FDE0681452581FE05558D4D8D8280A6
:104B00008147139597008146DE062581FE05558D68
:104B10004D8D8280A5576348F804F9473706800019
:104B2000B38707417D45598E6351F50479573307A3
:104B30000741130500023357E6006388A7009386F8
:104B400026CAB316D600B3E8D800B3371001D98F00
:104B500013F77700014815FB139757008546E34884
:104B600007F48146A5B781468DB7938626C833974B
:104B7000D8003337E000B316D600B3D8F800B367D7
:104B8000D700B3E7F800E9B7C28689B7C167637E8B
:104B9000F5029307F00F1307000263ECA7009727B5
:104BA00000009387E7B8AA9703C507003305A7401D
:104BB0008280218197270000938787B7AA9703C532
:104BC000070061473305A7408280B7070001636E85
:104BD000F500618197270000938787B5AA9703C5E1
:104BE000070021473305A7408280418197270000B5
:104BF000938707B4AA9703C5070041473305A74029
:104C00008280938781829C434111328806C6AA889C
:104C10002E87C847368697270000938767C163179A
:104C2000080097270000938767C13E88C6869725AE
:104C300000009385E5C01920EF00300B397132D4A4
:104C400036D63EDA3AD842DC46DE938781822E861B
:104C5000AA858843341006CE36C69528F2402161D5
:104C600082801C46FD171CC663D90700184E63C519
:104C7000E700A9476393F5005DA51C422E851387C5
:104C8000170018C22380B7008280011122CC26CAE7
:104C90004AC84EC652C406CE2A89AE893284B304AD
:104CA000D6007D5A63149400014511A88345040081
:104CB0004E864A85EFF0FFFA0504E31545FFF24002
:104CC0006244D2444249B249224A05618280357128
:104CD00022CD26CB4AC94EC706CF52C556C35AC1AC
:104CE000DEDEE2DCE6DAAA89AE843289368409C5E2
:104CF0001C4D99E3EF00102697270000938707BD0E
:104D0000639DF40C83A4490083D7C400A18BE5CB39
:104D10009C48F5C793070002A304F1029307000320
:104D200002D22305F10222C6930B5002972A0000FB
:104D3000938A0AB4054C294B4A848347040099C3DB
:104D40006391770FB30C2441638E0C00E6864A868C
:104D5000A6854E85EFF07FF3FD576308F51E92564A
:104D6000E69636D2834704006381071EFD57130978
:104D7000140002C802CE3ECA02CCA309010482D4A8
:104D80008345090015465685EF00B043130419000A
:104D9000C24751E913F7070109C713070002A30926
:104DA000E10413F7870009C71307B002A309E10460
:104DB000834609001307A002638FE606F2474A8480
:104DC000814625460347040093051400130707FD99
:104DD0006378E60AADCA3ECEBDA097270000938750
:104DE000E7B06395F40083A4890039BF97270000DA
:104DF0009387C7ABE39AF4F083A4C90031B7A685C3
:104E00004E85F12B01D97D55FA406A44DA444A496E
:104E1000BA492A4A9A4A0A4BF65B665CD65C0D612F
:104E20008280050419BF330555413315AC00C98F85
:104E30003EC82289B1B7324793064700184336C6A9
:104E4000634907023ACE034704009307E002631F59
:104E5000F704034714009307A002631BF702B2474D
:104E60000904138747009C433AC663C107023ECA40
:104E700035A83307E04093E727003ACE3EC8E1B7B4
:104E8000B387670385462E84BA972DBFFD57C5B7F4
:104E9000050402CA8146814725460347040093055D
:104EA0001400130707FD6378E606F1F2834504005A
:104EB0000D46172500001305259CEF00903011CDFD
:104EC000972700009387479B1D8D93070004B39796
:104ED000A700424505045D8D2AC883450400194694
:104EE0001725000013058599130914002304B10246
:104EF000EF00302D3DC197B7FFFF9387A71095E7CF
:104F00004247B2471377071009CF91073EC6925721
:104F1000D2973ED215B5B387670385462E84BA97DC
:104F2000ADBF9D07E19BA107D5B7780097060000AC
:104F30009386E6D526860C084E8597000000E7008C
:104F40000000FD572A8AE314F5FC83D7C40093F7C9
:104F50000704E39A07EA125545BD7800970600005A
:104F60009386E6D226860C084E85012AD9BF797130
:104F700056CA9C49BA8A984522D426D24ECE52CCE3
:104F800006D64AD05AC85EC6AA892E84B284368A0A
:104F900063D3E700BA879CC00347340419C385076D
:104FA0009CC01C4093F7070281C79C4089079CC0A6
:104FB0000329040013796900631A0900130B940193
:104FC000FD5B5C449840998F634CF9041C40834618
:104FD000340493F70702B336D000A5EB130634046C
:104FE000D2854E85829AFD576303F5041C40114615
:104FF0009840998B544481446397C700B384E6403A
:1050000063D3040081441C4418486354F700998F0B
:10501000BE94014969047D5B63982405014509A894
:1050200085465A86D2854E85829A631E75017D55C6
:10503000B250225492540259F249624AD24A424B27
:10504000B24B456182800509ADBF3307D40013061A
:105050000003A301C7040347540493871600A297D3
:105060008906A381E7049DBF85462286D2854E85A9
:10507000829AE30E65FB050945B7797122D426D2E1
:105080004AD04ECE06D652CC56CA5AC8B68983C626
:1050900085019307E0063289AA842E84138635049D
:1050A0006381F61E63E2D706930730066382F60A31
:1050B00063EDD700638B061E930780056387F616A2
:1050C000930A24042301D40469A893074006638645
:1050D000F60093079006E395F6FE1C40084393F60E
:1050E000070893054500C1C21C410CC363D80700E3
:1050F0001307D002B307F040A301E40497160000A1
:1051000093864678294765A0930730076383F61A8C
:1051100063EFD7009307F006638FF6049307000749
:10512000E390F6FA9C4193E707029CC109A8930714
:1051300050076382F60493078007E393F6F893071A
:105140008007A302F404971600009386E674E5A096
:105150001C43938A2504938647009C4314C32381F0
:10516000F5048547B5A293F607041C410CC3BDDEC8
:10517000C207C187A5BF0C401C4313F8050813855F
:1051800047006305080008C39C4339A093F5050454
:1051900008C3FDD983D707001307F006638BE60C1D
:1051A000971600009386066E2947A30104044C401D
:1051B0000CC463C5050008406D9908C099E3B28A24
:1051C00091CDB28AB3F5E702FD1AB69583C5050005
:1051D0002380BA00B3D5E70263F3E70AA147631E51
:1051E000F7001C40858B91CB58401C4863C7E700F3
:1051F00093070003A38FFAFEFD1A3306564110C829
:105200004E87CA867000A2852685EFF05FD67D5A4C
:105210006314450D7D55B250225492540259F249FF
:10522000624AD24A424B45618280A382D5049716D6
:105230000000938626650C40084313F805081C41BE
:1052400011056300080208C313F7150001C793E5B1
:1052500005020CC04147B1FB0C4093F5F5FD0CC0B5
:10526000A9B713F8050408C3E30008FEC207C18309
:10527000E1BF971600009386E66021473DB7AE87F1
:1052800091B794411C43CC4913F806081385470095
:105290006306080008C39C438CC301A808C393F6A7
:1052A00006049C43F5DA2390B70023280400B28A51
:1052B00081BF1C43D04181459386470014C383AA14
:1052C00007005685FD2D01C53305554148C05C409A
:1052D0001CC8A30104042DB714485686CA85268528
:1052E0008299E30945F31C40898B8DE7B247484416
:1052F000E353F5F23E8505B785465686CA85268571
:105300008299E30965F1050A5C443247998FE345C8
:10531000FAFEE9BF014A930A94017D5BF5B70111DA
:1053200022CC26CA4AC806CE4EC6AA842E8932840A
:1053300001C51C4D91E33929971700009387075940
:105340006319F406C0401C4C1CC48357C400A18BD5
:10535000C9C31C48BDCF1C4808409379F90F137985
:10536000F90F1D8D5C486346F500A2852685D9247A
:105370002DE51C440505FD171CC41C4013871700B0
:1053800018C0238037015C486389A7008357C40095
:10539000858B81CBA9476316F900A2852685592CF8
:1053A0000DEDF24062444A85D2444249B24905615A
:1053B000828097170000938767536314F40080443A
:1053C00059B7971700009387674EE31EF4F6C04461
:1053D0009DBFA285268521203DDD7D59D9B741118C
:1053E0009387818226C2844322C44AC006C62A8982
:1053F0002E8489C49C4C99E32685A92E971700001A
:105400009387C74C631CF402C0400317C400931772
:105410000701C18393F68700B5EE93F607019DEE71
:10542000A5472320F900136707042316E4007D55E0
:10543000B240224492440249410182809717000001
:105440009387C74A6314F4008044C1B797170000DC
:105450009387C745E31BF4FAC04445BF918B8DC7C2
:105460004C5889C9930744046384F5004A85BD23D9
:10547000232A04028357C4002322040093F7B7FDB4
:105480002316F4001C481CC08357C40093E7870010
:105490002316F4001C4881EF8357C4001307002033
:1054A00093F707286385E700A2854A85A5298357D6
:1054B000C40013F7170005C75C4823240400B30792
:1054C000F0401CCC1C480145A5F78317C40013F716
:1054D000070839DF93E707042316F40089BF898B97
:1054E000014791E3584818C4F1BF4111194506C658
:1054F000E5250545EF00F01483D7C500011122CC46
:1055000026CA06CE4AC84EC613F78700AA842E8440
:1055100071EFD841634DE000B841634AE0000145B6
:10552000F2406244D2444249B249056182805854F3
:105530007DD703A904009396370123A0040063DDFF
:10554000060670488357C400918B99C75C401D8E36
:105550005C5899C33C401D8E5C540C508146268596
:105560008297FD570357C400631DF5009440F5472B
:1055700063E8D706B70740208507B3D7D700858BE8
:10558000A5C31C48232204001CC09317370163D80D
:105590000700FD576314F5009C4091E368C84C5820
:1055A00023A02401ADDD930744046384F500268520
:1055B0003521232A0402A5B70C50014685462685CD
:1055C0000297FD572A86E31FF5F69C40A5DF754735
:1055D0006385E70059476394E70423A0240181B75A
:1055E000136707042316E4007D551DBF83A9050139
:1055F000E38709F203A905008D8B23A03501330948
:105600003941014791E3D84918C4E35A20F11C54A9
:105610000C50CA864E86268582976349A000835720
:10562000C40093E707042316F4007DBFAA99330949
:10563000A940E1BF9C49A5C3011122CC06CE2A8412
:1056400011C51C4D81E72EC63122B24597170000C7
:105650009387C727639CF5004C408397C5009DC77F
:1056600022856244F24005616FF01FE99717000040
:105670009387C7276394F5000C44C5B797170000BC
:105680009387C722E39BF5FC4C44C1BFF2406244C0
:1056900001450561828001458280411122C406C610
:1056A0002A842316B5002317C500232005002322D2
:1056B0000500232405002322050623280500232AAC
:1056C0000500232C0500214681451305C505EFA0E3
:1056D0003FA7970700009387E7535CD09707000028
:1056E000938747561CD4970700009387875A5CD44A
:1056F000970700009387475D00D01CD8B240224432
:105700004101828097050000938505F391AA41111C
:1057100026C2130680069384F5FFB384C4024AC0F0
:105720002E8922C406C693854407992E2A8401CD6A
:105730002320050023222501310508C41386840691
:105740008145EFA0FF9F2285B24022449244024946
:10575000410182801C4DA5E7411106C622C497076E
:105760000000938767FA1CD5938741839C432324C9
:10577000050423260504232805046314F500854742
:105780001CCD2A84352848C022851D2808C42285BE
:10579000052848C4484001469145EFF01FF00844F1
:1057A0000546A545EFF07FEF48440946C945EFF0AF
:1057B000DFEE85471CCCB2402244410182808280CA
:1057C00041119387418326C284434AC006C69C4C3C
:1057D00022C42A8981E72685EFF0DFF793848404C9
:1057E0008044DC40FD1763D607009C40B9CF84405D
:1057F000C5BF0317C40039E7C17785072322040614
:105800002320040023220400232404005CC4232852
:105810000400232A0400232C04002146814513059B
:10582000C405EFA0FF91232A0402232C04022324A1
:105830000404232604042285B240224492440249EF
:10584000410182801304840671BF91454A85EFF0BF
:105850001FEC88C049FDB1472320F9000144E1BF96
:10586000797122D44AD052CC56CA5AC85EC606D6DE
:1058700026D24ECE2A8AAE8A130485040149054BEE
:10588000FD5B09ECB25022544A8592540259F24908
:10589000624AD24A424BB24B45618280044483291A
:1058A0004400FD1963D409000040E1BF83D7C40060
:1058B000637BFB008397E40063877701A6855285AD
:1058C000829A3369A90093848406E1BF1971A6DA2C
:1058D000AE848395E500A2DC86DE328463DC0500BD
:1058E00083D7C40023A0060093F707089DE393071E
:1058F000004015A0300836C62521B246E34205FE19
:105900007247BD67F98F7977BA9793B717009CC232
:10591000F9BF930700041CC0F6506654D6540145E5
:105920000961828083D7C500011122CC06CE26CA28
:105930004AC8898B2E8489CF930774041CC01CC865
:1059400085475CC8F2406244D24442490561828086
:1059500074003000AA84EFF07FF7A2452A892685DB
:10596000052201ED8317C40013F7072061FFF19BA7
:1059700093E727002316F400C1B797070000938729
:10598000A7D89CD48357C40008C008C893E7070869
:105990002316F400A2475CC8B24789CF8315E40000
:1059A0002685652601C98357C400F19B93E717003C
:1059B0002316F4008357C4003369F9002316240129
:1059C00051B793F5F50F2A966314C50001458280FF
:1059D00083470500E38DB7FE0505FDB7CDC183A75D
:1059E000C5FF411122C406C626C21384C5FF63D376
:1059F00007003E94AA8465269387418F9C4399EBC8
:105A00002322040023AA818E2244B2402685924498
:105A1000410179A6637EF40014403307D4006396F5
:105A2000E7009843DC43369718C05CC0E1BFBA87F3
:105A3000D84319C3E37DE4FE94433386D700631F44
:105A400086001040B29694C33386D700E31EC7FA8F
:105A500010435843B29694C3D8C37DB76375C4004E
:105A6000B1479CC055B71040B306C4006316D700B9
:105A700014435843B29614C058C0C0C371B7828053
:105A8000011126CA93843500F19806CE22CC4AC86B
:105A90004EC6A104B14763F1F404B14463E0B40419
:105AA0002A89F52C9387418F98433A8431E0938774
:105AB000818F9C4391E781454A85512823ACA18E73
:105AC000A6854A856920FD5963173507B14723200C
:105AD000F9004A85F12429A0E3D204FCB1471CC196
