:100000006F00807413000000130000001300000054
:100010001300000013000000130000001300000094
:100020001300000013000000130000001300000084
:08003000130000007300100032
:100038006FF09FFC000000006F00804E6F00404F83
:1000480000000000000000000000000000000000A8
:100058000000000000000000000000000000000098
:100068006FF09FF9000000006FF01FF9000000001A
:100078006FF09FF86FF05FF86FF01FF86FF0DFF721
:100088006FF09FF76FF05FF76F0080156F004016F5
:100098006F00001A6F00001B6F00C01B6FF0DFF5C8
:1000A8006FF09FF56FF05FF56F00A0436FF0DFF41E
:1000B8006FF09FF46FF05FF46F00C01C0000000049
:1000C8000000000000000000000000006F00801920
:1000D8006F00401C6F00401F6F0000226F00402718
:1000E8006F0000306F00C0326F0080356FF0DFF0B6
:1000F8006FF09FF06FF05FF06FF01FF06FF0DFEFC1
:100108006FF09FEF6F00C0366F0080376F00603C64
:100118006F0040166FF05FEE6FF01FEE6FF0DFEDCF
:1001280000000000000000000000000000000000C7
:080138000000000000000000BF
:100140003D432A876373C3029377F700BDEFADE5A4
:10015000937606FF3D8ABA960CC34CC30CC74CC7B6
:100160004107E36BD7FE11E28280B306C3408A06E3
:100170009702000096966780A6002307B700A306A3
:10018000B7002306B700A305B7002305B700A304F3
:10019000B7002304B700A303B7002303B700A302EB
:1001A000B7002302B700A301B7002301B700A300E3
:1001B000B7002300B700828093F5F50F9396850072
:1001C000D58D93960501D58D61B79396270097023B
:1001D000000096968682E78086FA9680C1171D8F6A
:1001E0003E96E374C3F8A5B7411122C6000801008A
:1001F0003244410173002030411122C600080945F4
:10020000992D2A8785476314F70203A781808947C0
:100210006315F700EF20404601A803A781808547BA
:100220006314F700EF1090480945EF0020680100C3
:100230003244410173002030411122C600081145AB
:10024000B52501003244410173002030411122C61E
:10025000000801003244410173002030411122C6E0
:10026000000801003244410173002030411122C6D0
:10027000000801003244410173002030411122C6C0
:10028000000801003244410173002030411122C6B0
:10029000000801003244410173002030411122C6A0
:1002A000000893050008B7370140138507C0EF0029
:1002B000505BAA8789CB93050008B73701401385A7
:1002C00007C0EF001061010032444101730020308B
:1002D000411122C600088545B7370140138507C084
:1002E000EF003058AA8781CB8545B7370140138589
:1002F00007C0EF00105E010032444101730020305E
:10030000411122C6000893050004B7370140138548
:1003100007C0EF001055AA8789CB93050004B737B3
:100320000140138507C0EF00D05A93050002B7378C
:100330000140138507C0EF00D052AA8789CB9305EF
:100340000002B7370140138507C0EF009058010045
:100350003244410173002030411122C60008894512
:10036000B7370140138507C0EF00B04FAA8781CB94
:100370008945B7370140138507C0EF009055914577
:10038000B7370140138507C0EF00B04DAA8781CB76
:100390009145B7370140138507C0EF009053A14541
:1003A000B7370140138507C0EF00B04BAA8781CB58
:1003B000A145B7370140138507C0EF009051C145F3
:1003C000B7370140138507C0EF00B049AA8781CB3A
:1003D000C145B7370140138507C0EF00904F0100BA
:1003E0003244410173002030411122C60008854586
:1003F00037050040EF00F046AA8791CB85453705C9
:100400000040EF00104D13055002EF20C04C0100DA
:100410003244410173002030411122C60008854555
:10042000B707004013850740EF00B043AA8781CB90
:100430008545B707004013850740EF00904901004C
:100440003244410173002030411122C60008854525
:10045000B717004013850780EF00B040AA8781CB13
:100460008545B717004013850780EF0090460100CF
:100470003244410173002030411122C600080100BE
:100480003244410173002030411122C60008930517
:100490005052B747004013850740EF00D076AA8737
:1004A00085CB93055052B747004013850740EF10A6
:1004B000A00503A7818089476315F700EF20C014CA
:1004C00001A803A7818085476314F700EF10101778
:1004D00001003244410173002030411122C600085E
:1004E00001003244410173002030411122C600084E
:1004F0000965C12C2A8785476313F702096505261C
:1005000003A7818089476315F700EF20401A01A8EF
:1005100003A7818085476314F700EF10901C01004A
:100520003244410173002030411122C6000801000D
:100530003244410173002030411122C6000801A05D
:10054000011106CE22CC4ACA4EC852C656C400106B
:10055000EF206043EF20F02903A7C18389679387C9
:1005600007F43357F7029307C012B307F7023E8A26
:10057000814A5285D685EF20807FEF10E0279306D1
:1005800080040146814513058004EF202015930661
:1005900080040146814513059004EF202014930642
:1005A00080040146814513052002EF2020130145F8
:1005B000EF202041C1679387078011479966938692
:1005C00006AA414681450145EF10A071B7070020FA
:1005D00003C707072380E182B707002003C7170777
:1005E000A380E182B707002003C727072381E182A8
:1005F00013058004EF20C028AA873E87B707002094
:100600002388E70613059004EF208027AA873E87FA
:10061000B7070020A388E70613052002EF20402635
:10062000AA873E87B70700202389E706B70700207F
:1006300083C7070799C783C7018281E70547A3815D
:10064000E182B707002083C7170799C783C71182C4
:1006500081E705472382E182B707002083C7270788
:1006600099C783C7218281E70547A382E18283C7B7
:10067000318291CBA381018283C76182850713F701
:10068000F70F2383E18283C7418291CB23820182CA
:1006900083C77182850713F7F70FA383E18283C7AE
:1006A000518291CBA382018283C78182850713F790
:1006B000F70F2384E18283C78182850713F7F70F41
:1006C0002384E18295671386073C8D450145EF1031
:1006D000804B83C7618285463E868D4513050006A3
:1006E000EF10205295671386C73C91450145EF10E6
:1006F000804983C7718285463E8691451305000671
:10070000EF10205095671386873D95450145EF1002
:10071000804783C7818285463E869545130500063E
:10072000EF10204E03A7C1838967938707F43357DF
:10073000F702BA878A07BA9786073E8981494A85B0
:10074000CE85EF20C06259B59701002093818112B8
:10075000175100201301018B175500001305457632
:10076000970500209385058A1386018263FAC500E8
:100770008322050023A0550011059105E3EAC5FE7B
:10078000138501829385C1856377B5002320050019
:100790001105E36DB5FE9302800873A00230970245
:1007A00000009382A28993E2120073905230EF20EE
:1007B0003024970200009382E2D8739012347300C1
:1007C0002030797122D60018232EA4FC232604FEA3
:1007D000232404FE0327C4FDB7070010F98F89CB3B
:1007E000B7070240938707409C432324F4FE31A0BF
:1007F000B70702409C432324F4FE032784FE83278B
:10080000C4FDF98F89C785472326F4FE19A0232646
:1008100004FE8327C4FE3E85325445618280011167
:1008200022CE00102326A4FE0327C4FEB707001023
:10083000F98F89CBB7070240938707400327C4FE8F
:10084000D8C331A0B70702400327C4FED8C30100B4
:10085000724405618280797122D60018232EA4FC8F
:10086000232604FE232404FEB70701409387074094
:100870009C430327C4FDF98F2324F4FEB7070140EE
:1008800093870740D84B8327C4FDF98F81CB8327FB
:1008900084FE89C785472326F4FE19A0232604FE7B
:1008A0008327C4FE3E85325445618280011122CEE9
:1008B00000102326A4FEB7070140938707400327B3
:1008C000C4FED8CB0100724405618280397122DEFA
:1008D00080002326A4FC2324B4FC232604FE23202A
:1008E00004FE232404FE232E04FC232204FE232CD6
:1008F00004FC832784FC9C47BD8B2326F4FE8327BE
:1009000084FC9C47C18B89CB832784FCDC43032771
:10091000C4FED98F2326F4FE832784FC83D70700E7
:1009200093F7F70FF1CF8327C4FC9C432322F4FEF7
:10093000232404FE65A8832784FE0547B317F70028
:10094000232EF4FC832784FC83D707003E8783276C
:10095000C4FDF98F2320F4FE032704FE8327C4FD82
:100960006311F708832784FE8A07232EF4FC83276C
:10097000C4FD3D47B317F700232CF4FC832784FD07
:1009800093C7F7FF032744FEF98F2322F4FE832742
:10099000C4FD0327C4FEB317F700032744FED98F15
:1009A0002322F4FE832784FC984793078002631B6D
:1009B000F700832784FE05473317F7008327C4FC1D
:1009C000D8CB05A0832784FC984793078004631A3B
:1009D000F700832784FE05473317F7008327C4FCFD
:1009E00098CB832784FE85072324F4FE032784FE07
:1009F0009D47E3F2E7F48327C4FC032744FE98C332
:100A0000832784FC03D707009307F00F63F1E70EF9
:100A10008327C4FCDC432322F4FE232404FE75A8B0
:100A2000832784FEA1070547B317F700232EF4FCA4
:100A3000832784FC83D707003E878327C4FDF98F73
:100A40002320F4FE032704FE8327C4FD6312F70866
:100A5000832784FE8A07232EF4FC8327C4FD3D47A9
:100A6000B317F700232CF4FC832784FD93C7F7FF0B
:100A7000032744FEF98F2322F4FE8327C4FD0327B6
:100A8000C4FEB317F700032744FED98F2322F4FED8
:100A9000832784FC984793078002631BF700832712
:100AA00084FEA10705473317F7008327C4FCD8CB82
:100AB000832784FC984793078004631BF7008327F0
:100AC00084FEA10705473317F7008327C4FC98CBA2
:100AD000832784FE85072324F4FE032784FE9D4795
:100AE000E3F0E7F48327C4FC032744FED8C30100E6
:100AF000725421618280011122CE00102326A4FEAF
:100B0000AE872322C4FE2315F4FE832744FE99C733
:100B10000357A4FE8327C4FE98CB31A00357A4FE3D
:100B20008327C4FED8CB01007244056182807971AD
:100B300022D60018232EA4FC232CB4FC232404FE6C
:100B4000232204FE232604FE232004FE8327C4FD63
:100B500063D80700B7070140DC4F2326F4FE31A01D
:100B6000B7070140DC432326F4FE8327C4FDC1837D
:100B7000BD8B2320F4FE0327C4FDC167FD17F98F49
:100B80002324F4FE0327C4FDB70730007D8FB70789
:100B900030006315F7020327C4FEB70700F1FD1705
:100BA000F98F2326F4FEB7070140D443B70701406D
:100BB000370700F17D17758FD8C3ADA00327C4FD9B
:100BC000B7071000F98F8DCB832704FE0D47B317AD
:100BD000F7002322F4FE832744FE93C7F7FF032781
:100BE000C4FEF98F2326F4FE0327C4FEB707000FC7
:100BF000D98F2326F4FE3DA08327C4FDD583920719
:100C0000032784FEB317F70093C7F7FF0327C4FE3B
:100C1000F98F2326F4FE0327C4FEB707000FD98FF0
:100C20002326F4FE832784FD91CF8327C4FDD5833B
:100C30009207032784FEB317F7000327C4FED98F5A
:100C40002326F4FE8327C4FD63D80700B7070140BD
:100C50000327C4FED8CF31A0B70701400327C4FE45
:100C6000D8C30100325445618280797122D60018C0
:100C7000232EA4FC232604FE232404FE232204FEA8
:100C8000232004FEB7170240DC43B18B2326F4FE79
:100C90000327C4FE91476302F7020327C4FEA1475E
:100CA0006305F7028327C4FEC5E78327C4FD371712
:100CB0007A001307072098C365A08327C4FD371760
:100CC0007A001307072098C361A8B7170240D843DA
:100CD000B7073C00F98F2324F4FEB7170240D8432E
:100CE000C167F98F2322F4FE832784FEC983890715
:100CF0002324F4FE832744FE89EF032784FEB717DD
:100D00003D00938707903307F7028327C4FD98C3FC
:100D100081A8B7170240D843B7070200F98F89CFDF
:100D2000032784FEB7173D00938707903307F70228
:100D30008327C4FD98C32DA0032784FEB7177A002C
:100D4000938707203307F7028327C4FD98C309A8B8
:100D50008327C4FD37177A001307072098C30100C3
:100D6000B7170240DC4393F7070F2326F4FE8327CF
:100D7000C4FE91832326F4FEB707002013870700E3
:100D80008327C4FEBA9783C7070093F7F70F232082
:100D9000F4FE8327C4FD9843832704FE3357F700EE
:100DA0008327C4FDD8C3B7170240DC4393F707700D
:100DB0002326F4FE8327C4FEA1832326F4FEB7076F
:100DC0000020138707008327C4FEBA9783C7070054
:100DD00093F7F70F2320F4FE8327C4FDD84383271E
:100DE00004FE3357F7008327C4FD98C7B7170240A6
:100DF000D843916793870780F98F2326F4FE8327D2
:100E0000C4FEAD832326F4FEB70700201387070036
:100E10008327C4FEBA9783C7070093F7F70F2320F1
:100E2000F4FE8327C4FDD843832704FE3357F7001D
:100E30008327C4FDD8C7B7170240D843B167F98FDD
:100E40002326F4FE8327C4FEB9832326F4FEB707C6
:100E50000020138747078327C4FEBA9783C707007C
:100E600093F7F70F2320F4FE8327C4FDD847832789
:100E700004FE3357F7028327C4FD98CB0100325498
:100E800045618280011122CE00102326A4FE232476
:100E9000B4FE832784FE99CBB7170240944FB7174F
:100EA00002400327C4FE558F98CF21A8B7170240F0
:100EB000944F8327C4FE13C7F7FFB7170240758FFF
:100EC00098CF0100724405618280011122CE00108A
:100ED0002326A4FE2324B4FE832784FE99CBB717D0
:100EE0000240D44FB71702400327C4FE558FD8CF16
:100EF00021A8B7170240D44F8327C4FE13C7F7FFBA
:100F0000B7170240758FD8CF010072440561828007
:100F1000797122D60018232EA4FC232CB4FC2317AD
:100F200004FE8327C4FD83D707002317F4FE03576D
:100F3000E4FE8D6793870704F98F2317F4FE832758
:100F400084FD03D70700832784FD83D72700D98F2B
:100F5000139707014183832784FD83D74700D98FE7
:100F6000139707014183832784FD83D76700D98FB7
:100F7000139707014183832784FD83D78700D98F87
:100F8000139707014183832784FD83D7A700D98F57
:100F9000139707014183832784FD83D7C700D98F27
:100FA000139707014183832784FD83D7E700D98FF7
:100FB0001397070141838357E4FED98F2317F4FE6B
:100FC0008327C4FD0357E4FE2390E7008327C4FD75
:100FD00083D7C701139707014183FD779387F77F75
:100FE000F98F1397070141838327C4FD239EE700F0
:100FF000832784FD03D707018327C4FD2398E700D7
:101000000100325445618280011122CE0010232656
:10101000A4FE2324B4FE832784FE8DC38327C4FE4D
:1010200083D70700C207C18393E70704139707011B
:1010300041838327C4FE2390E70005A08327C4FED5
:1010400083D70700C207C18393F7F7FB1397070104
:1010500041838327C4FE2390E700010072440561A9
:101060008280797122D60018232EA4FCAE87231D1E
:10107000F4FC232604FE231504FE231404FE832718
:10108000C4FD83D707011397070141838357A4FD4C
:10109000F98F2315F4FE8327C4FD83D7C700139768
:1010A000070141838357A4FDF98F2314F4FE83576E
:1010B000A4FE81CB835784FE89C785472326F4FE8F
:1010C00019A0232604FE8327C4FE3E8532544561C1
:1010D0008280011122CE00102326A4FEAE872315A4
:1010E000F4FE8357A4FE93C7F7FF139707014183CC
:1010F0008327C4FE2398E7000100724405618280C3
:101100005D7186C6A2C48008232EA4FA232CB4FAEB
:10111000232604FE232404FE232204FE232004FEAF
:10112000232E04FC8327C4FB232EF4FC8327C4FB5B
:1011300083D70701C207C1832326F4FE0327C4FE19
:10114000B567FD17F98F2326F4FE832784FB83D729
:1011500067003E878327C4FED98F2326F4FE8327AA
:10116000C4FE1397070141838327C4FB2398E7003C
:101170008327C4FB83D7C700C207C1832326F4FE9D
:101180000327C4FEBD679387379FF98F2326F4FE9C
:10119000832784FB03D74700832784FB83D78700FB
:1011A000D98F139707014183832784FB83D7A70037
:1011B000D98FC207C1833E878327C4FED98F2326D8
:1011C000F4FE8327C4FE1397070141838327C4FBE2
:1011D0002396E7008327C4FB83D74701C207C18357
:1011E0002326F4FE0327C4FEC1679387F7CFF98F48
:1011F0002326F4FE832784FB83D7C7003E878327FB
:10120000C4FED98F2326F4FE8327C4FE139707015B
:1012100041838327C4FB239AE700930784FC3E8520
:10122000A9340327C4FDB74701409387078063179C
:10123000F700832744FD2324F4FE29A0832704FD1F
:101240002324F4FE8327C4FB83D7C700C207C183CE
:10125000C207C18763D20702032784FEBA878607C5
:10126000BA978E073E97832784FB9C438607B35724
:10127000F7022322F4FE05A0032784FEBA8786071F
:10128000BA978E073E97832784FB9C438A07B35700
:10129000F7022322F4FE032744FE93074006B357C8
:1012A000F70292072326F4FE8327C4FE13D74700D4
:1012B00093074006B307F702032744FEB307F7403E
:1012C0002320F4FE8327C4FB83D7C700C207C18352
:1012D000C207C18763D20702832704FE8E071387E4
:1012E000270393074006B357F7029D8B0327C4FEDD
:1012F000D98F2326F4FE05A0832704FE92071387C7
:10130000270393074006B357F702BD8B0327C4FE9C
:10131000D98F2326F4FE8327C4FE13970701418348
:101320008327C4FB2394E7000100B6402644616193
:101330008280011122CE00102326A4FE2324B4FEB5
:10134000832784FE95C38327C4FE83D7C7001397E2
:10135000070141838967D98F139707014183832749
:10136000C4FE2396E70015A08327C4FE83D7C700D9
:10137000139707014183F977FD17F98F1397070139
:1013800041838327C4FE2396E70001007244056170
:101390008280011122CE00102326A4FEAE872315E1
:1013A000F4FE8357A4FE93F7F71F139707014183B9
:1013B0008327C4FE2392E700010072440561828006
:1013C000797122D60018232EA4FCAE87231DF4FCCD
:1013D000232604FE8327C4FD83D707001397070144
:1013E00041838357A4FDF98FC207C18389C785470D
:1013F0002326F4FE19A0232604FE8327C4FE3E857F
:10140000325445618280797122D60018232EA4FCC3
:10141000AE87231DF4FC232204FE232604FE232092
:1014200004FE232404FE8357A4FD93F7F70F95834E
:1014300093F7F70F2320F4FE8357A4FDFD8B23269B
:10144000F4FE8327C4FE0547B317F7002326F4FEF6
:10145000032704FE8547631FF7008327C4FD83D756
:10146000C700C207C1833E878327C4FEF98F2326A6
:10147000F4FE3DA8032704FE8947631FF700832776
:10148000C4FD83D70701C207C1833E878327C4FEFB
:10149000F98F2326F4FE29A88327C4FD83D74701AB
:1014A000C207C1833E878327C4FEF98F2326F4FE3B
:1014B0008357A4FDA183C207C1832322F4FE83279F
:1014C00044FE0547B317F7002322F4FE8327C4FD2B
:1014D00083D70700C207C1833E87832744FEF98F65
:1014E0002322F4FE8327C4FE81CB832744FE89C7D1
:1014F00085472324F4FE19A0232404FE832784FEB9
:101500003E85325445618280797122D60018232E9F
:10151000A4FCAE87231DF4FC231704FE231604FE4F
:101520008357A4FDA1832317F4FE8357E4FE0547E8
:10153000B317F7002316F4FE8357C4FE93C7F7FFD3
:101540001397070141838327C4FD2390E70001001F
:10155000325445618280011106CE22CC0010AA8748
:10156000A307F4FE9967938707C79C473E87A16747
:101570005CCB9967938707C79C473E8791675CCB95
:101580009307F4FE85460146BE850145EF100072C3
:101590009967938707C79C473E87A1671CCB0100CB
:1015A000F240624405618280011106CE22CC001017
:1015B000AA87A307F4FE9967938707C79C473E87CE
:1015C000A1675CCB9967938707C79C473E87916764
:1015D0001CCB1307F4FE9307F4FE85463A86BE85BE
:1015E0000145EF10A06C9967938707C79C473E871A
:1015F000A1671CCB0100F2406244056182807971D1
:1016000006D622D40018AA87231FF4FC9967938773
:1016100007C79C473E87A1675CCB8357E4FDA18346
:10162000C207C18393F7F70F2306F4FE8357E4FD47
:1016300093F7F70FA306F4FE9967938707C79C47B4
:101640003E8791671CCB1307C4FE9307C4FE8946EF
:101650003A86BE850145EF1060659967938707C795
:101660009C473E87A1671CCB0100B25022544561C4
:101670008280011106CE22CC00102326A4FE232452
:10168000B4FE2322C4FE2320D4FE0327C4FE930706
:10169000F00963FFE70095679386473E95671386D9
:1016A000074A9305700595671385873FEF20302221
:1016B000032784FE9307F00763FFE700956793868F
:1016C000C74295671386074A93058005956713857A
:1016D000873FEF20D01F032744FE9307F00963FFE5
:1016E000E70095679386074495671386074A930535
:1016F000A00595671385873FEF20701D032704FE23
:101700009307F00763FFE7009567938607459567A2
:101710001386074A9305B00595671385873FEF2029
:10172000101B1305A002053D0145BD3D8327C4FEE6
:1017300093F7F70F850793F7F70F3E85B53501450A
:10174000A535832744FE93F7F70F850793F7F70F27
:101750003E85993D1305B002FD3B0145B135832718
:1017600084FE93F7F70F890793F7F70F3E852D3D1A
:1017700001451D3D832704FE93F7F70F890793F773
:10178000F70F3E8515351305C002F1330100F24015
:10179000624405618280797106D622D40018AA8736
:1017A000231FF4FC9306F0071306F0098145014559
:1017B000C935A30704FE05A8230704FE11A8835713
:1017C000E4FD3E852D3D8347E4FE85072307F4FEB7
:1017D0000347E4FE9307F009E3F3E7FE8347F4FED3
:1017E0008507A307F4FE8307F4FEE3D707FC010097
:1017F000B250225445618280011106CE22CC4ACAE1
:101800004EC852C656C45AC25EC000100148814735
:101810001307F00493063002054681450145EF1099
:10182000A03593060031054685451305F004EF0009
:10183000F06A93060031014685451305D004EF0098
:10184000F06993060031014685451305E004EF0079
:10185000F0689967938707C79C473E8789675CCB89
:1018600003A7C1838967938707F43357F702BA87C1
:101870008A07BA9786073E8B814B5A85DE85EF1023
:10188000004F9967938707C79C473E8789671CCBA2
:1018900003A7C1838967938707F43357F702BA8791
:1018A0009207998F8E073E8A814A5285D685EF101E
:1018B000004C45454D3103A7C1838967938707F4E1
:1018C0003357F702BA879207998F8E073E8981496D
:1018D0004A85CE85EF10A0491305100BAD3905459B
:1018E000E1311305C002C9311305D0027539130562
:1018F000200B953105454D391305C002753113058F
:10190000D0025D311305300BB9310545713913052E
:10191000C00259391305D00241390545713113050B
:10192000C00259311305D00241311305400B253156
:101930001D459D391305000C39391305200AAD31B9
:1019400009459D311305400885311305100C2131DF
:101950001305500C91391305200CF53E2945A9318A
:10196000014599311305300CFD361305A0082D39BA
:101970001305A00215391305400CF13E1305A0080C
:1019800025311305E00E0D311305500CE9363945AC
:10199000213913056003C1361305000631310100FA
:1019A0001305000E4D3E3D4501316945F53E3D456F
:1019B000E53E6145D53E1305F002FD361305800274
:1019C000E53613050002CD3613052002F13E7D45B4
:1019D000E13E6D45D13E13053002F9361305700323
:1019E000E1360145D1361D45C1360945753E4145B3
:1019F000653E1305100E85363D457D366D456D36C9
:101A00003D455D365D454D3613053003713E13058A
:101A1000C002593E13059002413E1305E0026936AB
:101A200013050003513613050003BD3E1305900353
:101A3000A53E1305F0038D3E0145BD361D45AD366F
:101A40000D459D3641458D361305A00229360145C9
:101A5000A13E0945913E0145813E13052008A93666
:101A60001305B002CD3C014581360D45353E01459B
:101A7000253E130530080D3E1305000FE93C0545D2
:101A800025361305600FC13C0145393E1305A003FF
:101A9000D9341545113E13059002753CC167138575
:101AA000F7FFD5390100F24062445249C249324A37
:101AB000A24A124B824B05618280797106D622D4EC
:101AC0000018AA87AE863287231FF4FCB687231E30
:101AD000F4FCBA87A30DF4FCA30704FE59A8035530
:101AE000E4FD0357C4FD8347F4FEBA97BE858357D0
:101AF000E4FD9D073E860357C4FD8347F4FEBA9775
:101B0000BE86EFF01FB78307B4FD938607FE8347B9
:101B1000F4FE156792061307074B3697BA9783C7EB
:101B20000700A306F4FE230704FE15A88347D4FE8E
:101B3000858B99C7C16713850780EFF05FAC31A033
:101B4000C1671385F7FFEFF09FAB8347D4FE858312
:101B5000A306F4FE8347E4FE85072307F4FE03474C
:101B6000E4FE9D47E3F4E7FC8347F4FE8507A30703
:101B7000F4FE0347F4FEBD47E3F3E7F60100B2507D
:101B8000225445618280797106D622D40018AA8732
:101B90002E87232CC4FC231FF4FCBA87231EF4FCDD
:101BA000231704FE91A08357E4FE8E0713970701C5
:101BB00041838357E4FDBA9793960701C182835707
:101BC000C4FD920793950701C1818357E4FE032763
:101BD00084FDBA97838707003E863685F93D835793
:101BE000E4FE85072317F4FE8357E4FE032784FDF4
:101BF000BA9783870700C5FB0100B25022544561A4
:101C000082805D7186C6A2C48008AA87232CC4FA8C
:101C10003687231FF4FAAE87231EF4FABA87A30B84
:101C2000F4FA034774FBA94763F5E700A947A30B40
:101C3000F4FA834774FB8507A30BF4FA832784FB2C
:101C400063DF07001307C4FC032684FB95679385B5
:101C500007463A858D21AA87A307F4FEB9A093070A
:101C600000022306F4FC9307C4FC13871700032625
:101C700084FB9567938507463A853529AA87A3078C
:101C8000F4FE8347F4FE8507A307F4FE39A88347D3
:101C9000F4FE130704FFBA9713070002238EE7FC34
:101CA0008347F4FE8507A307F4FE0347F4FE83474A
:101CB00074FBE36EF7FC834774FB130704FFBA97CA
:101CC000238E07FC9306C4FC0357C4FB8357E4FB35
:101CD0003686BA853E85453D0100B64026446161A1
:101CE0008280397106DE22DC80002322D4FCBA8691
:101CF0003E87AA872317F4FCAE872316F4FCB2872D
:101D0000A305F4FCB6872305F4FCBA872314F4FC7E
:101D10008347B4FC8D83A30DF4FC0355E4FC835589
:101D2000C4FC0347A4FC8347B4FCB307F702138742
:101D3000F7FF8357E4FCBA973E860357C4FC8347FA
:101D4000B4FCBA97FD17BE86EFF0BF92232604FEBF
:101D5000D9A88347A4FCA301F4FE0347B4FD83275D
:101D6000C4FEB307F7023E87832744FCBA97232EAD
:101D7000F4FC71A8232204FEADA0A1472324F4FEA5
:101D800099A08327C4FD83C707003E87832784FE6D
:101D9000FD17B357F74093F7F70F858B230DF4FC2E
:101DA0008347A4FD99C7835784FC3E85EFF03F85A8
:101DB00031A0C1671385F7FFEFF07F84832784FE8E
:101DC000FD172324F4FE832784FEE34CF0FA8327D7
:101DD000C4FD8507232EF4FC832744FE85072322B8
:101DE000F4FE8347B4FD032744FEE348F7F80347B6
:101DF000B4FD8347B4FCB307F7023E878347B4FDC5
:101E0000B307F7400327C4FDBA97232EF4FC83479A
:101E100034FE1387F7FFA301E4FEA9FF8327C4FE66
:101E200085072326F4FE8347B4FC0327C4FEE34260
:101E3000F7F20100F250625421618280411122C602
:101E400000089967938707C9DC4383D74700139736
:101E50000701418383C7F182BE861377F70F93870B
:101E6000C182B6972380E70083C7F182850713F705
:101E7000F70FA387E18203C7F1828547631AF70052
:101E800003C7C1829307500A6304F700A387018246
:101E900003C7F1828D476317F700A38701820547C7
:101EA0002388E1820100324441018280411122C62F
:101EB0000008B70702409387470409671307874B59
:101EC000D8C3B7070240938747049843B707024037
:101ED000938747041367170098C3010032444101F8
:101EE0008280411122C600080547A388E182B70716
:101EF0000240938747049443B707024093874704FF
:101F000041677917758F98C301003244410182807F
:101F1000797122D60018232EA4FC232CB4FCB2879E
:101F20003687A30BF4FCBA87230BF4FCA30304FE4F
:101F3000230304FE834774FDA5CB8327C4FD23261A
:101F4000F4FE8327C4FE63D807008327C4FEB307CB
:101F5000F0402326F4FE834764FD0327C4FEB367E5
:101F6000F70293F7F70F9387070393F7F70F13978A
:101F700087016187832784FD2380E700834764FD11
:101F80000327C4FEB347F7022326F4FE834764FE0B
:101F900085072303F4FE8327C4FEC9C3832784FD7A
:101FA0008507232CF4FC45BF8327C4FD2324F4FEBE
:101FB000834764FD032784FEB377F702A303F4FE8F
:101FC000034774FEA54763F9E700834774FE9387D0
:101FD0007703A303F4FE39A0834774FE93870703B6
:101FE000A303F4FE030774FE832784FD2380E70028
:101FF000834764FD032784FEB357F7022324F4FECE
:10200000834764FE85072303F4FE832784FE89CB80
:10201000832784FD8507232CF4FC59BF010011A000
:102020000100834764FE3E853254456182807971A8
:1020300022D60018232EA4FC232CB4FC232604FE55
:1020400085A0032784FD8327C4FEB307F740FD174F
:102050000327C4FDBA9783C70700A305F4FE03272F
:10206000C4FD8327C4FE3E97832684FD8327C4FED8
:10207000B387F640FD178326C4FDB6970307070014
:102080002380E7000327C4FD8327C4FEBA970347D4
:10209000B4FE2380E7008327C4FE85072326F4FED1
:1020A000832784FD85830327C4FEE36CF7F80100D2
:1020B000325445618280357186DEA2DC0001232620
:1020C000A4F82324B4F810C454C418C85CC8232C42
:1020D0000401232E1401232604FE93070402A117F2
:1020E000232AF4FA29A3832784F883C70700A301CE
:1020F000F4FE030734FE930750026311F74C832765
:1021000084F885072324F4F8832784F8838707005D
:102110009387B7FD130730056365F74C13972700C6
:102120009967938707B2BA979C438287832744FBBA
:1021300013874700232AE4FA9C432301F4FE8327F4
:10214000C4F8034724FE2380E7008327C4F88507EB
:102150002326F4F88327C4FE85072326F4FE59A11D
:10216000832744FB13874700232AE4FA9C43232E4A
:10217000F4FC8327C4FD130704F9A9460546BA8574
:102180003E857933AA87A305F4FE8327C4FD63D077
:1021900007028347B4FE130704FFBA971307D00260
:1021A0002380E7FA8347B4FE8507A305F4FE0347BF
:1021B000B4FE930704F9BA853E85953D0347B4FE06
:1021C000930704F93A86BE850325C4F8EF103076EC
:1021D0008347B4FE0327C4F8BA972326F4F883474D
:1021E000B4FE0327C4FEBA972326F4FEE5AE832788
:1021F00044FB9D07E19B13878700232AE4FA03A889
:1022000047009C432328F4FC232A04FD032504FDF6
:10221000832544FDEF10D056AA873E87930704F923
:10222000A9460546BE853A85E531AA872305F4FE11
:1022300001468146032504FD832544FDEF10C009B6
:10224000AA8763D007028347A4FE130704FFBA9747
:102250001307D0022380E7FA8347A4FE85072305EE
:10226000F4FE0347A4FE930704F9BA853E85C13303
:102270000347A4FE930704F93A86BE850325C4F8F4
:10228000EF10F06A8347A4FE0327C4F8BA97232609
:10229000F4F88347A4FE0327C4FEBA972326F4FE6E
:1022A000032504FD832544FDEF10904DAA873E854C
:1022B000EF109053AA872E883E86C286032504FD20
:1022C000832544FDEF102058AA872E883E85C285BD
:1022D000956703A6874683A6C746EF10400BAA87DB
:1022E0002E882328F4FC232A04FD01468146032579
:1022F00004FD832544FDEF009077AA878DC7032551
:1023000004FD832544FDEF10B047AA873E8793075D
:1023100004F9A9460546BE853A85EFF07FBFAA8736
:102320002305F4FE99A893070003A30AF4F8830792
:1023300054F9230AF4F8830744F9A309F4F883074E
:1023400034F92309F4F8830724F9A308F4F8830780
:1023500014F92308F4F899472305F4FE39A88347B4
:10236000A4FE130704FFBA97130700032380E7FABC
:102370008347A4FE85072305F4FE0347A4FE954783
:10238000E3FFE7FC8347A4FE130704FFBA97130794
:10239000E0022380E7FA8347A4FE85072305F4FEC5
:1023A0000347A4FE930704F9BA853E85EFF03FC8C2
:1023B0000347A4FE930704F93A86BE850325C4F8B3
:1023C000EF10F0568347A4FE0327C4FEBA972326D6
:1023D000F4FE010001AC832744FB13874700232A46
:1023E000E4FA9C432326F4FC930704F9A94601462A
:1023F000BE850325C4FCEFF0BFB1AA87A305F4FC9A
:102400000347B4FC930704F9BA853E85EFF03FC259
:102410000347B4FC930704F93A86BE850325C4F844
:10242000EF10F0508347B4FC0327C4F8BA97232673
:10243000F4F88347B4FC0327C4FEBA972326F4FEBE
:1024400055A2832744FB13874700232AE4FA9C43C1
:102450002322F4FC930704F9A1460146BE85032517
:1024600044FCEFF0FFAAAA87A301F4FC034734FC65
:10247000930704F9BA853E85EFF07FBB034734FC30
:10248000930704F93A86BE850325C4F8EF10304A55
:10249000834734FC0327C4F8BA972326F4F883470C
:1024A00034FC0327C4FEBA972326F4FE25AA83270B
:1024B00044FB13874700232AE4FA9C43232EF4FAB3
:1024C000930704F9C1460146BE850325C4FBEFF01E
:1024D0003FA4AA87A30DF4FA0347B4FB930704F9BA
:1024E000BA853E85EFF0BFB40347B4FB930704F908
:1024F0003A86BE850325C4F8EF1070438347B4FBCA
:102500000327C4F8BA972326F4F88347B4FB0327BC
:10251000C4FEBA972326F4FEF1A0832744FB138759
:102520004700232AE4FA9C432322F4FE05A88327CC
:1025300044FE038707008327C4F82380E70083272E
:10254000C4F885072326F4F88327C4FE85072326CD
:10255000F4FE832744FE85072322F4FE832744FEEE
:1025600083870700E9F7BDA8930704F9A1453E85D5
:10257000EFF0FFAB930704F92146BE850325C4F8AD
:10258000EF10F03A8327C4F8A1072326F4F8832735
:10259000C4FEA1072326F4FEB1A08327C4F81307C5
:1025A00050022380E7008327C4F885072326F4F828
:1025B0008327C4FE85072326F4FE2DA0832784F8F5
:1025C000038707008327C4F82380E7008327C4F824
:1025D00085072326F4F88327C4FE85072326F4FE07
:1025E00011A00100832784F885072324F4F88327AA
:1025F00084F883870700E39807AE8327C4FE3E85EF
:10260000F65066540D618280411122C60008996718
:10261000938707C9DC4383D747001397070141839A
:1026200083C77183BE861377F70F93874183B6976D
:102630002380E70083C77183850713F7F70FA38B08
:10264000E18203C771838547631AF70003C741839B
:102650009307500A6304F700A38B018203C77183B9
:102660008D476317F700A38B01820547238CE18216
:102670000100324441018280411122C60008B7079F
:10268000024093874704056713070796D8C3B70727
:102690000240938747049843B70702409387470453
:1026A0001367170098C30100324441018280411131
:1026B00022C600080547A38CE182B7070240938732
:1026C00047049443B707024093874704416779174B
:1026D000758F98C30100324441018280797106D61A
:1026E00022D40018232EA4FC232CB4FCB287232868
:1026F000D4FCA30BF4FC8327C4FD958393F7F70F59
:102700009D8BA307F4FE8327C4FD93F7F70FFD8B82
:102710002307F4FE0327C4FD93070008630DF71495
:102720008327C4FD958391E785451145EFE08FF53B
:1027300061A88327C4FD13D7570085476317F700A7
:1027400085452145EFE00FF441A08327C4FD13D751
:10275000570089476317F70085454145EFE08FF241
:10276000A5A08327C4FD13D757008D476318F70032
:10277000854513050002EFE0EFF0B9A08327C4FD03
:1027800013D7570091476318F700854513050004D8
:10279000EFE04FEF15A88327C4FD13D757009547E7
:1027A0006318F700854513050008EFE0AFED29A891
:1027B0008327C4FD13D7570099476317F700854552
:1027C00013050010EFE00FEC8347E4FE0547B31755
:1027D000F700C207C1832310F4FE032784FD854759
:1027E0006317F702832704FDC207C183A183C207D1
:1027F000C18389E78D472322F4FE11A8832704FDB6
:10280000C207C183A183C207C1832322F4FE8327A9
:1028100004FDC207C18393F7F70F2324F4FE034797
:10282000F4FE99670A07938707C7BA979C433E87C8
:10283000930704FEBE853A85EFE04F89032784FDA8
:102840008547631BF7020347F4FE99670A079387DE
:1028500007C7BA979C43BE868347E4FE0547B31774
:10286000F700C207C183034774FD3A86BE853685EB
:10287000EFE06FA811A00100B250225445618280A0
:10288000797122D60018232EA4FC8327C4FD9583DA
:1028900093F7F70F9D8BA307F4FE8327C4FD93F7EF
:1028A000F70FFD8B2307F4FE0347F4FE99670A0731
:1028B000938707C7BA979C439C470347E4FE854626
:1028C0003397E600F98F99C3854711A081473E856C
:1028D000325445618280797122D60018232EA4FCDF
:1028E0008327C4FD958393F7F70F9D8BA307F4FE11
:1028F0008327C4FD93F7F70FFD8B2307F4FE0347EF
:10290000F4FE99670A07938707C7BA979C43DC4789
:102910000347E4FE85463397E600420741833A8643
:102920008346F4FE19678A06130707C736971843CC
:10293000B18F5CC70100325445618280411122C6CB
:102940000008B7E700E07D5723A0E718B7E700E0ED
:102950007D5723A2E71801003244410182804111D2
:1029600022C60008B7E700E003A7C18423A0E71050
:10297000B7E700E01387C184584323A2E7100100A2
:10298000324441018280011106CE22CC001093878F
:10299000C18405472384E70083A7C18481EB938723
:1029A000C184DC4381E7A30704FE21A08547A30778
:1029B000F4FE69378347F4FE3E85F24062440561C8
:1029C0008280011106CE22CC0010AA87A307F4FE54
:1029D0008347F4FE91E79387C1842384070041373E
:1029E0000100F240624405618280011106CE22CCD2
:1029F00000102326A4FE2324B4FE2322C4FE232099
:102A0000D4FE8327C4FE89EB9306803105468545B5
:102A10001545EFF0BFCC99A80327C4FEC147631B3F
:102A2000F700930680310546854513053002EFF027
:102A3000FFCA2DA80327C4FE93070002631BF700FB
:102A400093068031054685451305D002EFF01FC976
:102A500031A89567938607479967138607C893053A
:102A6000D002956713854747EF106066032784FE01
:102A70008547631AF70093068031054685451D4555
:102A8000EFF0DFC599A8032784FEC547631BF70055
:102A9000930680310546854513055002EFF01FC4AB
:102AA0002DA8032784FE93071002631BF7009306EB
:102AB0008031054685451305F002EFF03FC231A88D
:102AC0009567938607479967138607C89305200380
:102AD000956713854747EF10805F032744FE8947BA
:102AE000631AF70093068031054685451945EFF0D6
:102AF000FFBEB5A0032744FEC947631BF70093063A
:102B000080310546854513054002EFF03FBD81A8A1
:102B1000032744FE93072002631BF70093068031CE
:102B2000054685451305E002EFF05FBB0DA80327BE
:102B300044FE930730026317F70093073002232205
:102B4000F4FE31A89567938607479967138607C8EF
:102B500093058003956713854747EF104057930609
:102B6000003105468545032504FEEFF03FB701001F
:102B7000F2406244056182805D7186C6A2C480080D
:102B80002326A4FC2324B4FC2322C4FC2320D4FC4D
:102B9000232EE4FA232A04FBA30DF4FA8327C4FCB2
:102BA00081EB8545856713851700EFE0AFAD21A860
:102BB0000327C4FC85476318F70085459167138593
:102BC0001700EFE08FB08326C4FB032604FC8325A7
:102BD00044FC032584FC113D231E04FC9307401094
:102BE000231FF4FC231004FE8347B4FB05476383D3
:102BF000E70205476344F70089CB81A00947638159
:102C0000E7020D476384E7020DA8231104FE231297
:102C100004FE25A0231104FE85472312F4FE31A8EB
:102C200089472311F4FE231204FE01A889472311CA
:102C3000F4FE85472312F4FE0100930700202313BE
:102C4000F4FE832744FBC207C1838E07C207C183FA
:102C50002314F4FE231504FE9D472316F4FE0327D8
:102C6000C4FC0A0793870181BA979C433E87930768
:102C7000C4FDBE853A85EFE0AFA9032784FCC147B8
:102C80006316F70085450545EFD07FEA0327C4FCAE
:102C90000A0793870181BA979C4385453E85EFE0FB
:102CA000AFB60100B640264461618280011122CE98
:102CB00000102326A4FE2324B4FE2322C4FE2320D6
:102CC000D4FE59A801000327C4FE0A079387018197
:102CD000BA979C4383D78700C207C183898BE5D706
:102CE000832784FE138717002324E4FE83C607008E
:102CF0000327C4FE0A0793870181BA979C433E8746
:102D000093970601C1832316F700832744FEA9C7C2
:102D100001000327C4FE0A0793870181BA979C43E9
:102D200083D78700C207C183858BE5D70327C4FEFD
:102D30000A0793870181BA979C4383D7C70093966C
:102D40000701C182832744FE138717002322E4FE74
:102D500013F7F60F2380E700832704FE1387F7FF9E
:102D60002320E4FEA5F30100724405618280011175
:102D700022CE00102324A4FE2326B4FE37F700E061
:102D80002320070037F700E02302070037F700E0B1
:102D9000A302070037F700E02303070037F700E03E
:102DA000A303070037F700E02304070037F700E02C
:102DB000A304070037F700E02305070037F700E01A
:102DC000A305070037F700E0854614C3010037F775
:102DD00000E011071843BA8701480327C4FEC286E2
:102DE000636DD7000327C4FEC286E312D7FE032714
:102DF00084FEBE866363D700D9BF010072440561BB
:102E00008280011106CE22CC00102326A4FE2324AA
:102E1000B4FE8327C4FE85E7032784FE854763103D
:102E2000F70293068031014685452545EFF01F8B5B
:102E30009146014681452945EFF05F8A65A0032749
:102E4000C4FE89476312F702930680310146854527
:102E500013056002EFF09F889146014681451305F6
:102E60007002EFF0BF87BDA80327C4FEC1476310FF
:102E7000F70293068031014685450945EFF01F862C
:102E80009146014681450D45EFF05F85A1A80327D6
:102E9000C4FE930700026312F702930680310146D5
:102EA00085451305A002EFF07F83914601468145D9
:102EB0001305B002EFF09F8235A00327C4FE9307ED
:102EC00020026311F7029306803101468545130500
:102ED000A004EFF0BF809146014681451305B00480
:102EE000EFF0CFFF0100F24062440561828079710A
:102EF00006D622D40018232EA4FC232CB4FC232AAB
:102F0000C4FC2328D4FC85450545EFD0BFF78325B5
:102F100004FD032544FDF535032744FD8947631B64
:102F2000F700032704FD8D476316F700854511451B
:102F3000EFD0FFBF032744FD93072002631FF70074
:102F4000032704FD930730026319F7008545B7078F
:102F5000140013850701EFD09FBD8327C4FD91E7BF
:102F600085451165EFD01FF235A00327C4FD8547C5
:102F70006318F700854537050200EFD01FF519A843
:102F80000327C4FD89476317F7008545370504000B
:102F9000EFD0BFF3832784FD2320F4FE231204FE29
:102FA000231304FE231404FE231604FEB147231545
:102FB000F4FE99670327C4FD0A07938707C9BA97E8
:102FC0009C433E87930704FEBE853A85EFE04F930E
:102FD00099670327C4FD0A07938707C9BA979C43DB
:102FE00085453E85EFE0EFB40100B25022544561C3
:102FF0008280411106C622C40008B7170240DC4394
:10300000C98313F7F700B7177A00938707203307B0
:10301000F702B727F400938707403E9723AEE1827B
:1030200085460146F167938507200145C9350100B2
:10303000B240224441018280797106D622D4001820
:10304000232EA4FC232CB4FC232AC4FC232604FE38
:1030500099A00100996783A707C9930500043E85DD
:10306000EFE00FB6AA87FDD7996783A707C9BE8689
:10307000832784FD13871700232CE4FC8387070034
:10308000C207C183BE853685EFE0AFB08327C4FE9B
:1030900085072326F4FE0327C4FE832744FDE34A65
:1030A000F7FA832744FD3E85B25022544561828061
:1030B000011122CE0010232604FE232404FEB7179C
:1030C00002409443B71702404167558F98C3B71722
:1030D00002409843B7070200F98F2324F4FE8327A8
:1030E000C4FE85072326F4FE832784FE99E7032781
:1030F000C4FE93070050E31CF7FCB7170240984347
:10310000B7070200F98F89C785472324F4FE19A069
:10311000232404FE032784FE85476317F70CB72793
:1031200002409843B72702401367070198C3B727A7
:1031300002409843B7270240719B98C3B7270240CB
:103140009843B72702401367270098C337170240F8
:10315000B71702405843D8C337170240B717024089
:103160005843D8C337170240B71702405843D8C353
:10317000B7170240D443B71702403707C1FF7D1786
:10318000758FD8C3B7170240D443B717024037072B
:103190002500558FD8C3B71702409443B717024094
:1031A00037070001558F98C30100B71702409843B5
:1031B000B7070002F98FF5DBB7170240D843B717FE
:1031C0000240719BD8C3B7170240D843B7170240DB
:1031D00013672700D8C30100B7170240DC4313F779
:1031E000C700A147E31AF7FE01007244056182801F
:1031F000411106C622C40008B71702409843B7170A
:1032000002401367170098C3B7170240D443B7179B
:1032100002403707FFF8758FD8C3B71702409443B1
:10322000B71702403707F7FE7D17758F98C3B7179A
:1032300002409443B71702403707FCFF7D17758F94
:1032400098C3B7170240D443B7170240370781FF2E
:103250007D17758FD8C3B717024037079F0098C7EF
:10326000EFF01FE50100B24022444101828013D7F4
:103270004501B7071000FD1713D846011377F77FF4
:103280009308F07F33FEB700AA8EF58FFD81328F51
:103290001378F87FFD82630B17010543630618015D
:1032A00063140701630DFE001A858280B368AE00C7
:1032B0000543E39B08FEE319E8FED18FF5F70543CC
:1032C000E394EEFF0143E381D5FE054371FF3365CF
:1032D000AE003333A000C9BF13D74501B7071000B4
:1032E000FD1713D846011377F77F9308F07F33FE5D
:1032F000B700AA8EF58FFD81328F1378F87FFD829B
:10330000630E1703630D180129E3B368AE00631F52
:1033100008005D8E01EE0143638C080421A8B3E828
:10332000C7000943639608046DD305A063840804AD
:103330006385D50205438DCD7D531DA8B368AE00CE
:10334000094363970802630AE802631408005D8E6C
:1033500075D2E391D5FEE34FE8FC63490701E3EB47
:10336000C7FD630FFE0001436374FE00F1D5054302
:103370001A858280EDFE7D53E5BF5D8E79DACDBF83
:10338000E36ADFFB0143E3F5EEFFF5F175B7397151
:103390004AD813D945014ED652D456D29399C50076
:1033A00006DE22DC26DA5AD05ECE1379F97F2A8A2D
:1033B00093D9C90093DAF501630D090E9307F07FE5
:1033C0006306F9181354D5018E09B3693401370423
:1033D000800033E4890093143500130919C0814932
:1033E000814B13D74601139AC6001377F77FB28536
:1033F000135ACA0013DBF601630B07109307F07F23
:103400006303F7049357D6010E0A33EA4701130703
:1034100017C0B7078000B367FA00931536003A99D2
:10342000814833C76A01BD463A851308190063E82D
:103430003617173600001306E6868A09B29983A666
:103440000900B2968286B367CA001309F97F6399AF
:10345000071293E9290081458948E1B7014793079D
:10346000F07F3704080081443204D20731807E07A0
:103470005D8C598CA285F250625426854259D254F3
:10348000B259225A925A025BF24B216182805A85CC
:103490003E84AE84C68B8947638DFB0E8D47E38FD8
:1034A000FBFA85472A87639EFB38814701448144A4
:1034B00065BF33E4A90061C036C632C4638C092AF3
:1034C0004E85EF0070392246B246AA87130755FF92
:1034D0007544938487FF198CB399990033548A00FB
:1034E00033643401B3149A0013D746011309D0C0D2
:1034F000139AC6001377F77F3309F9408149814B4E
:10350000B285135ACA0013DBF601E31907EEB3675D
:10351000CA00B1C7630F0A22528532C4EF00D0330C
:1035200022462A87930655FFF547930587FF958F17
:10353000331ABA00B357F600B3E74701B315B60024
:103540003309E9401309D9C08148E1BD33E4A9003A
:1035500001ECA14981441309F07F894B59B593E9E6
:1035600019008145854875BD4E84AA84B149130967
:10357000F07F8D4BBDB5914981440149854B95B58F
:1035800093E93900D2878D4869BD89475685E3970D
:10359000FBF02A879307F07F01448144F1B5C16EA7
:1035A0001386FEFF93D6040113DE0501F18CF18D25
:1035B000338695023383B6029358060133059E0283
:1035C0001A95AA98B382C60363F36800F692C16F96
:1035D0001383FFFF33F5670093D30701B3F7680048
:1035E000C207337366003E933306950293D80801F1
:1035F000B387A602135F0601B3849302BE94FA94C4
:10360000B38E760263F3F400FE9E416A9307FAFFDD
:10361000935F0401B376F400B3F9F4007D8EC180AA
:103620003384D502C209338FD401B299CE98B3073F
:10363000DE02935E0401B385BF02AE97BE9E330ED9
:10364000FE0363F3BE00529EC1679385F7FF33F616
:10365000BE006D8C4206229693DE0E01B305D502A4
:10366000769E3385AF0213D40501B386D302AA96A2
:10367000A296B38FF30363F3A600BE9F41657D1549
:10368000B3F7A600C2076D8DAA97B3855800B3B9EA
:103690003501FA97B2953384370133B6C500B30EBE
:1036A000C4013385CE0033343401B3B7E701C18F91
:1036B00033BECE0113D406013336C5003E943366C3
:1036C000CE009394950032947E94B3E46400260473
:1036D00093567501B3349000DD8193179500CD8C1E
:1036E000558CDD8C9317740063DB070093D71400AF
:1036F00085889316F401DD8CD58C0580428993076B
:10370000F93F6359F00893F6740081CE93F6F40004
:1037100011466388C60093864400B3B4960026948D
:10372000B6849316740063D80600B70700FFFD1730
:103730007D8C930709409306E07F63CFF60E93D606
:1037400034009314D4012604D58C318093F7F77F8D
:1037500021BB328532C4EF00301093065501F1478A
:10376000130705022246E3D1D7DC6115B317A60083
:103770008145F9B3EF00500E13075501F14593074A
:1037800005022246B246E3D5E5D461153314AA00FA
:10379000814499BB85469D8EB1E71309E941B397F2
:1037A0002401B3D4D40033192401B337F000B36437
:1037B0009900DD8C93F77400B356D40081CF93F752
:1037C000F40011466388C70093874400B3B49700A0
:1037D000A696BE849397860063D807048547014464
:1037E000814459B113068003E341D6CC7D46E356AC
:1037F000D6FA0556B307F640930500023356F40097
:103800006387B6001309E943B3172401DD8CB33491
:103810009000D18C93F67400014499CA93F7F40098
:1038200011468146E392C7FA139496003180F6065A
:103830008D80D58C81470DB99307F07F0144814479
:1038400025B142896DBD370710007D170111337313
:10385000B70093D84601758F935ED60122CC26CA55
:103860000E0393D445019357D5010E0706CE4AC8DF
:103870004EC693F8F87F130EF07F33E7EE0093F413
:10388000F47F13D4F50133E36700131F3500FD8285
:10389000931E3600638FC81793C61600B385144174
:1038A0006304D4126350B018638A081AB707800003
:1038B0005D8F638FC4579307800363C2B734FD479E
:1038C00063C3B748930700028D8FB3D9BE00331886
:1038D000F700B39EFE00336838013357B700B339A1
:1038E000D001336838013303E340B3090F41B337E4
:1038F0003F013306F3409317860063D2072437094C
:1039000080007D1933792601630E092C4A85A92789
:10391000130785FF93070002998FB3D7F900331679
:10392000E900D18FB399E9006344972A058F130604
:103930001700FD4663C4C63A13070002118FB3D6C1
:10394000C9003398E9003397E700558F33380001F9
:10395000B369070133D6C700814493F7790081CF5B
:1039600093F6F90091476388F6009386490033B8CF
:1039700036014296B6899317860063D6071C1387D3
:1039800014009307F07F05886306F720B70780FFD0
:10399000FD17F18F1398D70193D93900A607336823
:1039A0003801B1831377F77F9396C7005207B1822E
:1039B0007E04D98EC18EF2406244D2444249B2495B
:1039C0004285B685056182806356B00A638A081213
:1039D000B70780005D8F6386C42D9307800363C79C
:1039E000B718FD4763D1B73C138805FE9307000263
:1039F000B3590701638AF50093070004B385B74004
:103A00003317B700B3EEEE003338D0013368380116
:103A100095A2B367D7019385148099E393C61600E6
:103A2000630AD404D1E19387140093F7E77F639886
:103A3000071EB367E3013368D701639204166381FD
:103A4000073C63150842131835009316D301135829
:103A5000380033E806019357330019A2B367D70142
:103A60006384071A9387F5FF638A073A638BC5233C
:103A7000BE8591B56398051C9386140093F7E67F85
:103A8000C1EFB367E301639F0434638C0744B367FA
:103A9000D701639307460E051318D3010D813368D0
:103AA000A800935733006DA8B3859840639604200F
:103AB000B367E301638C07309387F5FF63880740A2
:103AC0001305F07F6382A520BE859307800363C141
:103AD000B72AFD4763C7B73C930700028D8F3318A1
:103AE000F3003356BF00B317FF003368C800B33983
:103AF000F0003353B3003368380133076740ADAC8F
:103B0000B367D701638207109387F5FF638E071EA3
:103B1000638FC52DBE85D1B59307F07F638BF60605
:103B2000FA9E33B6EE01B307E300B2971398F7019C
:103B300093DE1E00B369D80113D61700B68493F73D
:103B40007900E39F07E09317D60113D83900336853
:103B5000F800A685935736001307F07F6380E506CB
:103B6000B207B18313F7F57F05883DBD3367D701F1
:103B70003338E000B309E801B3B7E90133866700E1
:103B800093178600E3DD07FA85049307F07F639BB4
:103B9000F41805881307F07F8147014831B5639019
:103BA00007106300083C131836009317D701135809
:103BB00038003368F800368493573700B367F8004D
:103BC000E9DB01441307F07FB70708000148E9BBB0
:103BD000370680FF7D167D8E93F77900998CE391EF
:103BE00007D895B74E858D2913078501FD47E3D387
:103BF000E7D2130685FFB397C900814935B333680F
:103C0000D70133380001D5B1131835009317D3010C
:103C1000135838003368F8009357330035BFB309A1
:103C2000DF413309E34033363F013309C94093177D
:103C3000890063CA072033E82901E31708CC8147CC
:103C4000014439BFB385984063810414B7068000EE
:103C50009307F07F3363D3006381F82093078003D9
:103C600063CCB722FD4763C9B72C930700028D8F41
:103C70003318F300B356BF00B317FF003368D80002
:103C8000B339F0003353B300336838011A97B309DE
:103C9000D801B3B7D9013386E700C684D5B5E3129E
:103CA00008F2131835009317D301135838003368FE
:103CB000F8009357330019B7370580009307F07F5A
:103CC0003363A300E393F8E00E061318D7010D82C7
:103CD0003368C800935737003684CDB5051793066F
:103CE000000233D7E700630AD60093060004338648
:103CF000C6403396C700B3E9C90033383001B36911
:103D0000E8000146814425BDB309DF01B307E300A4
:103D100033BFE9013386E701931786008544E3D07A
:103D200007E28944B70780FFFD17F18F13D7190009
:103D300013F81900336807019399F701B3E90901F2
:103D400013D6170019B9138805FE93070002B3595B
:103D50000701638AF50093070004B385B740331762
:103D6000B700B3EEEE003338D00133683801B5BE8A
:103D70003363E30133386000B3890E41B3B73E01CA
:103D80003306F740C6843684BDB6B367E301638764
:103D900007189387F5FF638C071C9306F07F638EEB
:103DA000D50ABE8565BD930700028D8FB3D9BE00CD
:103DB0003318F700B39EFE00336838013357B7005D
:103DC000B339D001336838013A936DB31318360014
:103DD0009317D7011358380033E8070136849357F7
:103DE00037009DBBBDCB3367D701E31C07DC0E0555
:103DF0001318D3010D813368A800935733007DBB9E
:103E0000E30F08E2131836009317D7011358380050
:103E10003368F80036849357370099B3B309DF410C
:103E2000B307E340333F3F013386E7418544E1B4C4
:103E3000131835009316D3011358380033E80601E0
:103E400093573300A5BBB389EE413306674033B9BE
:103E50003E0133092641368445BC0E061318D701AE
:103E60000D823368C8009357370089BBB309DF411F
:103E7000B307E34033363F013386C74093178600CC
:103E800063D7070AB389EE41B3076740B3BE3E016B
:103E90003386D7413684D1B43363E30133386000CD
:103EA000FDB3138805FE93070002B3590301638A2B
:103EB000F50093070004B385B7403313B300336FA5
:103EC0006F003338E001336838017DB5B389EE41C6
:103ED000B3076740B3BE3E013386D741368485447D
:103EE00019BC131836009317D701135838003368DC
:103EF000F80093573700ADB1B309DF01B307E30012
:103F000033BFE9013386E70193178600E3D907C27F
:103F1000B70780FFFD177D8E854415B10E06131877
:103F2000D7010D823368C8009357370035B133E8A5
:103F3000C900E30608D021B1138805FE93070002EB
:103F4000B3590301638AF50093070004B385B740B2
:103F50003313B300336F6F003338E0013368380137
:103F60003DB301441307F07FB707080035BCB30920
:103F7000DF01B307E300B3BED9013386D70169BBC4
:103F800093D74501B70610001387F6FF93F7F77F25
:103F90001306E03F6D8FFD81635CF6001306D04190
:103FA000635AF600370500801345F5FF2E95828091
:103FB00001458280130630431D8E7D48558F635D19
:103FC000C80093063041B387F640B357F700330576
:103FD000F040E5F13E8582809387D7BEB317F700A6
:103FE0003355C500C98FE5B7411106C622C426C2A4
:103FF00005CD9357F541B3C4A7009D8C2A8426852F
:10400000A1289306E041898EA9477D8093F6F67F2B
:1040100063CDA7022D47098FB3D7E4005505B2073A
:10402000B394A400B18329A001448146814781440F
:10403000B207D206B1837E04D58FC18FB24022442D
:104040002685BE859244410182805515B397A40010
:10405000B207B1838144E9BFC167637EF50293076C
:10406000F00F1307000263ECA70097270000938767
:1040700067C7AA9703C507003305A740828021813F
:1040800097270000938707C6AA9703C507006147D3
:104090003305A7408280B7070001636EF500618198
:1040A00097270000938707C4AA9703C507002147F5
:1040B0003305A7408280418197270000938787C2FC
:1040C000AA9703C5070041473305A740828093871D
:1040D000C1809C434111328806C6AA882E87C847F2
:1040E0003686972700009387E7CF63170800972746
:1040F00000009387E7CF3E88C6869725000093850A
:1041000065CF1920EF005016397132D436D63EDA19
:104110003AD842DC46DE9387C1802E86AA85884342
:10412000341006CE36C62522F24021618280B3C704
:10413000A5008D8B3307C50081E78D4763EEC7006F
:10414000AA876370E50A83C6050085078505A38FE6
:10415000D7FEE3EAE7FE828093763500AA8791CA0C
:1041600083C6050085078505A38FD7FE93F6370024
:10417000FDB79376C7FF138606FE63F0C70683A3D9
:10418000050083A2450083AF850003AFC50083AE61
:10419000050103AE450103A3850183A8C5019385ED
:1041A000450223A0770003A8C5FF23A2570023A43C
:1041B000F70123A6E70123A8D70123AAC70123AC4F
:1041C000670023AE17019387470223AE07FF75B739
:1041D00090419107910523AEC7FEE3EBD7FEE3E4E0
:1041E000E7F682801C46FD171CC663D90700184EEF
:1041F00063C5E700A9476393F5004DA51C422E85D2
:104200001387170018C22380B7008280011122CCC7
:1042100026CA4AC84EC652C406CE2A89AE893284FE
:10422000B304D6007D5A63149400014509A8834560
:1042300004004E864A857D370504E31645FFF240AB
:104240006244D2444249B249224A056182803571B2
:1042500022CD26CB4AC94EC706CF52C556C35AC136
:10426000DEDEE2DCE6DAAA89AE843289368409C56C
:104270001C4D99E3EF00F02597270000938747C076
:10428000639CF40C83A4490083D7C400A18BFDC7B1
:104290009C48EDC793070002A304F10293070003B3
:1042A00002D22305F10222C6930B5002972A000086
:1042B000938A4AB7054C294B4A848347040099C323
:1042C0006390770FB30C2441638D0C00E6864A8619
:1042D000A6854E85253FFD576308F51E9256E69646
:1042E00036D2834704006381071EFD57130914006B
:1042F00002C802CE3ECA02CCA309010482D483457F
:10430000090015465685EF00904313041900C24773
:1043100051E913F7070109C713070002A309E104D4
:1043200013F7870009C71307B002A309E104834606
:1043300009001307A002638FE606F2474A8481460C
:1043400025460347040093051400130707FD63780F
:10435000E60AADCA3ECEBDA097270000938747B4BA
:104360006395F40083A4890005B79727000093871D
:1043700027AFE39BF4F083A4C90039B7A6854E8527
:10438000F12B09D97D55FA406A44DA444A49BA49C1
:104390002A4A9A4A0A4BF65B665CD65C0D618280BB
:1043A000050421BF330555413315AC00C98F3EC804
:1043B0002289B1B7324793064700184336C663498E
:1043C00007023ACE034704009307E002631FF70495
:1043D000034714009307A002631BF702B2470904C6
:1043E000138747009C433AC663C107023ECA35A8FB
:1043F0003307E04093E727003ACE3EC8E1B7B387E2
:10440000670385462E84BA972DBFFD57C5B70504AF
:1044100002CA8146814725460347040093051400DC
:10442000130707FD6378E606F1F2834504000D46A5
:10443000172500001305859FEF00703011CD9727D9
:1044400000009387A79E1D8D93070004B397A700D4
:10445000424505045D8D2AC8834504001946172589
:1044600000001305E59C130914002304B102EF00BA
:10447000102D3DC197C7FFFF9387C7B895E7424707
:10448000B2471377071009CF91073EC69257D297CC
:104490003ED21DB5B387670385462E84BA97ADBF5C
:1044A0009D07E19BA107D5B778009706000093868A
:1044B00026D626860C084E8597000000E7000000EF
:1044C000FD572A8AE314F5FC83D7C40093F7070449
:1044D000E39A07EA125545BD7800970600009386D7
:1044E00026D326860C084E85012AD9BF797156CA73
:1044F0009C49BA8A984522D426D24ECE52CC06D6B2
:104500004AD05AC85EC6AA892E84B284368A63D33A
:10451000E700BA879CC00347340419C385079CC0D1
:104520001C4093F7070281C79C4089079CC0032960
:10453000040013796900631A0900130B9401FD5BF1
:104540005C449840998F634CF9041C4083463404C2
:1045500093F70702B336D000A5EB13063404D285D7
:104560004E85829AFD576303F5041C40114698401E
:10457000998B544481446397C700B384E64063D366
:10458000040081441C4418486354F700998FBE947A
:10459000014969047D5B63982405014509A88546A6
:1045A0005A86D2854E85829A631E75017D55B2501A
:1045B000225492540259F249624AD24A424BB24BB7
:1045C000456182800509ADBF3307D400130600039F
:1045D000A301C7040347540493871600A2978906D2
:1045E000A381E7049DBF85462286D2854E85829AA7
:1045F000E30E65FB050945B7797122D426D24AD06E
:104600004ECE06D652CC56CA5AC8B68983C6850144
:104610009307E0063289AA842E84138635046381C9
:10462000F61E63E2D706930730066382F60A63ED4F
:10463000D700638B061E930780056387F616930ADF
:1046400024042301D40469A8930740066386F60076
:1046500093079006E395F6FE1C40084393F607087F
:1046600093054500C1C21C410CC363D80700130762
:10467000D002B307F040A301E4049716000093862C
:10468000A67B294765A0930730076383F61A63EF7B
:10469000D7009307F006638FF60493070007E390B3
:1046A000F6FA9C4193E707029CC109A893075007BB
:1046B0006382F60493078007E393F6F89307800775
:1046C000A302F4049716000093864678E5A01C43E5
:1046D000938A2504938647009C4314C32381F504E1
:1046E0008547B5A293F607041C410CC3BDDEC20783
:1046F000C187A5BF0C401C4313F80508138547006C
:104700006305080008C39C4339A093F5050408C35A
:10471000FDD983D707001307F006638BE60C9716C5
:104720000000938666712947A30104044C400CC421
:1047300063C5050008406D9908C099E3B28A91CD20
:10474000B28AB3F5E702FD1AB69583C5050023804A
:10475000BA00B3D5E70263F3E70AA147631EF70087
:104760001C40858B91CB58401C4863C7E7009307DA
:104770000003A38FFAFEFD1A3306564110C84E8778
:10478000CA867000A2852685EFF05FD67D5A631435
:10479000450D7D55B250225492540259F249624A55
:1047A000D24A424B45618280A382D504971600000D
:1047B000938686680C40084313F805081C411105D0
:1047C0006300080208C313F7150001C793E505024B
:1047D0000CC04147B1FB0C4093F5F5FD0CC0A9B7E7
:1047E00013F8050408C3E30008FEC207C183E1BF54
:1047F000971600009386466421473DB7AE8791B770
:1048000094411C43CC4913F80608138547006306FE
:10481000080008C39C438CC301A808C393F6060490
:104820009C43F5DA2390B70023280400B28A81BFA5
:104830001C43D04181459386470014C383AA0700D7
:104840005685F52D01C53305554148C05C401CC84F
:10485000A30104042DB714485686CA85268582997B
:10486000E30945F31C40898B8DE7B2474844E35385
:10487000F5F23E8505B785465686CA852685829916
:10488000E30965F1050A5C443247998FE345FAFE76
:10489000E9BF014A930A94017D5BF5B7011122CC6F
:1048A00026CA4AC806CE4EC6AA842E89328401C5BD
:1048B0001C4D91E33929971700009387675C6319B2
:1048C000F406C0401C4C1CC48357C400A18BC9C350
:1048D0001C48BDCF1C4808409379F90F1379F90F94
:1048E0001D8D5C486346F500A2852685D9242DE5FB
:1048F0001C440505FD171CC41C401387170018C075
:10490000238037015C486389A7008357C400858BE7
:1049100081CBA9476316F900A2852685592C0DED98
:10492000F24062444A85D2444249B24905618280DC
:10493000971700009387C7566314F400804459B753
:10494000971700009387C751E31EF4F6C0449DBF3C
:10495000A285268521203DDD7D59D9B74111938758
:10496000C18026C2844322C44AC006C62A892E8436
:1049700089C49C4C99E32685A92E9717000093873C
:104980002750631CF402C0400317C40093170701AB
:10499000C18393F68700B5EE93F607019DEEA54718
:1049A0002320F900136707042316E4007D55B24065
:1049B0002244924402494101828097170000938764
:1049C000274E6314F4008044C1B797170000938703
:1049D0002749E31BF4FAC04445BF918B8DC74C585F
:1049E00089C9930744046384F5004A85B523232AC3
:1049F00004028357C4002322040093F7B7FD231653
:104A0000F4001C481CC08357C40093E7870023169A
:104A1000F4001C4881EF8357C4001307002093F76C
:104A200007286385E700A2854A859D298357C4002E
:104A300013F7170005C75C4823240400B307F040B0
:104A40001CCC1C480145A5F78317C40013F70708C1
:104A500039DF93E707042316F40089BF898B0147E8
:104A600091E3584818C4F1BF4111194506C6DD2528
:104A70000545EF00D01483D7C500011122CC26CA0A
:104A800006CE4AC84EC613F78700AA842E8471EF5B
:104A9000D841634DE000B841634AE0000145F2406F
:104AA0006244D2444249B2490561828058547DD75C
:104AB00003A904009396370123A0040063DD0606D2
:104AC00070488357C400918B99C75C401D8E5C5819
:104AD00099C33C401D8E5C540C50814626858297BC
:104AE000FD570357C400631DF5009440F54763E884
:104AF000D706B70740208507B3D7D700858BA5C356
:104B00001C48232204001CC09317370163D80700F8
:104B1000FD576314F5009C4091E368C84C5823A0EE
:104B20002401ADDD930744046384F50026852D211F
:104B3000232A0402A5B70C50014685462685029714
:104B4000FD572A86E31FF5F69C40A5DF7547638570
:104B5000E70059476394E70423A0240181B7136752
:104B600007042316E4007D551DBF83A90501E387D3
:104B700009F203A905008D8B23A0350133093941C2
:104B8000014791E3D84918C4E35A20F11C540C5052
:104B9000CA864E86268582976349A0008357C40043
:104BA00093E707042316F4007DBFAA993309A940AF
:104BB000E1BF9C49A5C3011122CC06CE2A8411C5B0
:104BC0001C4D81E72EC63122B2459717000093870E
:104BD000272B639CF5004C408397C5009DC7228519
:104BE0006244F24005616FF01FE997170000938758
:104BF000272B6394F5000C44C5B7971700009387E3
:104C00002726E39BF5FC4C44C1BFF24062440145BA
:104C10000561828001458280411122C406C62A8432
:104C20002316B5002317C500232005002322050005
:104C3000232405002322050623280500232A050036
:104C4000232C0500214681451305C505EFB04FCF44
:104C5000970700009387C7535CD09707000093879E
:104C600027561CD4970700009387675A5CD4970790
:104C700000009387275D00D01CD8B2402244410138
:104C8000828097050000938505F389AA411126C209
:104C9000130680069384F5FFB384C4024AC02E89AC
:104CA00022C406C693854407912E2A8401CD232071
:104CB000050023222501310508C413868406814599
:104CC000EFB00FC82285B24022449244024941010C
:104CD00082801C4DA5E7411106C622C4970700003B
:104CE000938767FA1CD5938781819C43232405040D
:104CF00023260504232805046314F50085471CCDED
:104D00002A84352848C022851D2808C42285052804
:104D100048C4484001469145EFF01FF0084405465D
:104D2000A545EFF07FEF48440946C945EFF0DFEEB7
:104D300085471CCCB24022444101828082804111CF
:104D40009387818126C284434AC006C69C4C22C4F4
:104D50002A8999E32685B53F938484048044DC4006
:104D6000FD1763D607009C40B9CF8440C5BF031729
:104D7000C40039E7C17785072322040623200400F5
:104D800023220400232404005CC423280400232AD3
:104D90000400232C0400214681451305C405EFB00F
:104DA0002FBA232A0402232C0402232404042326DA
:104DB00004042285B2402244924402494101828087
:104DC0001304840671BF91454A85EFF03FEC88C01B
:104DD00049FDB1472320F9000144E1BF797122D494
:104DE0004AD052CC56CA5AC85EC606D626D24ECE35
:104DF0002A8AAE8A130485040149054BFD5B09EC40
:104E0000B25022544A8592540259F249624AD24A17
:104E1000424BB24B45618280044483294400FD1912
:104E200063D409000040E1BF83D7C400637BFB006B
:104E30008397E40063877701A6855285829A336958
:104E4000A90093848406E1BF1971A6DAAE84839524
:104E5000E500A2DC86DE328463DC050083D7C40073
:104E600023A0060093F707089DE39307004015A0D1
:104E7000300836C62521B246E34205FE7247BD67BB
:104E8000F98F7977BA9793B717009CC2F9BF930748
:104E900000041CC0F6506654D65401450961828056
:104EA00083D7C500011122CC06CE26CA4AC8898BF9
:104EB0002E8489CF930774041CC01CC885475CC826
:104EC000F2406244D244424905618280740030005D
:104ED000AA84EFF07FF7A2452A892685052201EDF5
:104EE0008317C40013F7072061FFF19B93E72700A6
:104EF0002316F400C1B7970700009387C7D89CD446
:104F00008357C40008C008C893E707082316F400B5
:104F1000A2475CC8B24789CF8315E4002685652681
:104F200001C98357C400F19B93E717002316F400CF
:104F30008357C4003369F9002316240151B793F550
:104F4000F50F2A966314C50001458280834705004A
:104F5000E38DB7FE0505FDB7CDC183A7C5FF4111A0
:104F600022C406C626C21384C5FF63D307003E943D
:104F7000AA846526938701849C4399EB232204002D
:104F800023A081842244B24026859244410179A61F
:104F9000637EF40014403307D4006396E70098431F
:104FA000DC43369718C05CC0E1BFBA87D84319C349
:104FB000E37DE4FE94433386D700631F86001040F0
:104FC000B29694C33386D700E31EC7FA1043584302
:104FD000B29694C3D8C37DB76375C400B1479CC073
:104FE00055B71040B306C4006316D70014435843A6
:104FF000B29614C058C0C0C371B78280011126CACE
:1050000093843500F19806CE22CC4AC84EC6A1043E
:10501000B14763F1F404B14463E0B4042A89F52C88
:105020009387018498433A8431E0938741849C4379
:1050300091E781454A85512823A2A184A6854A8506
:105040006920FD5963173507B1472320F9004A85C8
:10505000F12429A0E3D204FCB1471CC10145F24070
:105060006244D2444249B249056182801C40858F26
:1050700063CE0702AD4663F6F6001CC03E9404C042
:1050800031A05C406312870223A0F1844A85792411
:105090001305B4009307440061993307F54061D3C9
:1050A0003A94898F1CC065BF5CC3CDB7228740404E
:1050B000A5BF130435007198E30385FCB305A44034
:1050C0004A852120E31D35FB41B7411122C42A84C2
:1050D0002E8523AC018406C6D924FD576317F5003D
:1050E000938781859C4391C31CC0B24022444101F7
:1050F0008280FD4763F6B700D9471CC17D55828089
:105100007C41011122CC06CE2E862A8491C71397AA
:105110002500BA97984319EB228532C6BD20AA858F
:10512000228562443246F24005611DA8854601454C
:105130006308D700FD566319D700D9471CC0054541
:10514000F2406244056182802E8523A00700029709
:105150000145FDB79387C180AA8588436FF07FF929
:10516000411122C42A842E85B28523AC018406C64F
:105170002924FD576317F500938781859C4391C3CC
:105180001CC0B240224441018280E1AA411122C4E4
:105190002E848395E50006C65922634905007C48A4
:1051A000AA977CC8B2402244410182808357C40040
:1051B0007D777D17F98F2316F400EDB783D7C500EF
:1051C000011122CC26CA4AC84EC606CE93F7071054
:1051D000AA842E843289B68991C78395E5008946D1
:1051E000014631228357C4007D777D17F98F23163E
:1051F000F4008315E4006244F240CE864A86B24948
:1052000042492685D24405613DA8411122C42E841D
:105210008395E50006C6E128FD570357C400631BCC
:10522000F500FD77FD17F98F2316F400B2402244F4
:10523000410182808567D98F2316F40068C8FDB7C5
:105240008395E50005A8411122C42A842E85B285E4
:10525000368623AC018406C6EFD01FDEFD576317E8
:10526000F500938781859C4391C31CC0B2402244C2
:1052700041018280411122C42A842E8523AC0184FD
:1052800006C6E120FD576317F500938781859C438F
:1052900091C31CC0B240224441018280411122C40A
:1052A0002A842E85B28523AC018406C66D20FD5765
:1052B0006317F500938781859C4391C31CC0B2405E
:1052C000224441018280411122C42A842E8523ACCC
:1052D000018406C66928FD576317F5009387818509
:1052E0009C4391C31CC0B2402244410182804111C1
:1052F00022C42A842E85B285368623AC018406C654
:105300005920FD576317F500938781859C4391C30E
:105310001CC0B240224441018280828082804111BF
:1053200022C42A842E85B285368623AC018406C623
:105330008D20FD576317F500938781859C4391C3AA
:105340001CC0B2402244410182809307800523ACF7
:10535000F1847D5582809307800523ACF1847D55CF
:1053600082809307800523ACF1847D55828093076A
:10537000800523ACF184014582809307800523AC2E
:10538000F1847D5582809307800523ACF1847D559F
:1053900082809307800523ACF1847D5582809387BA
:1053A00081849C4391C73E9523A4A1843E8582803D
:1053B0009387C1853E9523A4A1843E85828001A068
:1053C0004B4559312020544553543A004B455932EE
:1053D0002020544553543A004B455933202054451E
:1053E00053543A005446545F585F4D41583E785FDD
:1053F00073746172740000002E2E2F4C696272610A
:10540000726965732F7365656B667265655F70653C
:10541000726970686572616C2F5345454B46524501
:10542000455F31385446542E630000005446545FA3
:10543000595F4D41583E795F73746172740000008A
:105440005446545F585F4D41583E785F656E640026
:105450005446545F595F4D41583E795F656E640014
:1054600025640000256600000000000080842E41B5
:10547000300000002E2E2F4C6962726172696573D4
:105480002F7365656B667265655F6C6962726172C8
:105490006965732F7A665F7370692E630000000080
:1054A0006C63645F7365745F726567696F6E00003B
:1054B00000000000000000000000000000000000EC
:1054C0000000000808080808080800000808000094
:1054D000004824241200000000000000000000002A
:1054E0000000004848487E2424247E242424000010
:1054F0000000103C5252121C30505052523C1010BE
:10550000000000222515150D2A585454522200007F
:105510000000000C1212120A76252919916E000063
:10552000000604040200000000000000000000006B
:10553000004020101008080808080810102040003B
:1055400000020408081010101010100808040200CF
:105550000000000008086B1C1C6B0808000000001D
:105560000000000000101010FE10101000000000DD
:10557000000000000000000000000000060404021B
:1055800000000000000000007E000000000000009D
:1055900000000000000000000000000006060000FF
:1055A0000000402020201010080808040402020017
:1055B00000000018244242424242424224180000A5
:1055C000000000101C10101010101010107C0000B3
:1055D0000000003C4242424020100804427E00008D
:1055E0000000003C4242402018204042423C000063
:1055F00000000020303028242422FE2020F8000063
:105600000000007E0202021E22404042221C0000D6
:10561000000000182402023A464242424438000088
:105620000000007E42202010100808080808000032
:105630000000003C4242422418244242423C000006
:105640000000001C22424242625C404024180000DC
:1056500000000000000018180000000018180000EA
:10566000000000000000000800000000000808081A
:105670000000004020100804020408102040000030
:105680000000000000007E00007E0000000000001E
:10569000000000020408102040201008040200004E
:1056A0000000003C42424620101010001818000074
:1056B0000000001C225A55555555553A423C0000F1
:1056C0000000000808181414243C224242E700009D
:1056D0000000001F2222221E22424242221F0000FE
:1056E0000000007C4242010101010142221C000035
:1056F0000000001F2242424242424242221F00005A
:105700000000003F4212121E12120242423F0000ED
:105710000000003F4212121E121202020207000095
:105720000000003C2222010101712122221C000004
:10573000000000E7424242427E42424242E700000D
:105740000000003E0808080808080808083E000095
:105750000000007C10101010101010101010110F0D
:105760000000007722120A0E0A121222227700008D
:10577000000000070202020202020202427F000051
:105780000000007736363636362A2A2A2A6B000081
:10579000000000E346464A4A525252626247000005
:1057A0000000001C2241414141414141221C0000B6
:1057B0000000003F424242423E0202020207000055
:1057C0000000001C224141414141414D321C60001A
:1057D0000000003F4242423E1212222242C7000015
:1057E0000000007C4242020418204042423E000079
:1057F0000000007F4908080808080808081C000085
:10580000000000E74242424242424242423C000023
:10581000000000E742422224241414180808000063
:105820000000006B2A2A2A2A2A36141414140000B5
:10583000000000E7422424181818242442E700003E
:10584000000000772222141408080808081C000031
:105850000000007E2120101008040442423F000096
:1058600000780808080808080808080808087800E8
:105870000000020404040808081010202020404002
:10588000001E1010101010101010101010101E001C
:1058900000182400000000000000000000000000CC
:1058A000000000000000000000000000000000FFF9
:1058B00000060800000000000000000000000000DA
:1058C000000000000000001C22302C22326C00007E
:1058D000000000000302021A26424242261A00007B
:1058E00000000000000000384402020244380000BA
:1058F000000000006040407C4242424262DC000006
:10590000000000000000003C42427E02423C0000D9
:10591000000000003048083E08080808083E000063
:10592000000000000000007C22221C023C42423C9D
:10593000000000000302023A4642424242E70000F1
:105940000000000C0C00000E08080808083E0000CB
:105950000000003030000038202020202020221EAF
:105960000000000003020272120A0E1222770000E9
:10597000000000080E08080808080808083E000093
:10598000000000000000007F9292929292B7000007
:10599000000000000000003B4642424242E7000097
:1059A000000000000000003C42424242423C000035
:1059B000000000000000001B26424242261A020797
:1059C000000000000000005864424242645840E079
:1059D00000000000000000774C040404041F0000D5
:1059E000000000000000007C42023C40423E0000FB
:1059F000000000000008083E0808080848300000C1
:105A000000000000000000634242424262DC0000ED
:105A10000000000000000077222214140808000093
:105A200000000000000000DB91525A2A24240000EC
:105A3000000000000000006E2418181824760000F2
:105A400000000000000000E742242418180808069F
:105A5000000000000000007E22100808447E0000C4
:105A600000C0202020202020102020202020C00046
:105A70001010101010101010101010101010101026
:105A800000030404040404040804040404040300DC
:105A9000045A200000000000000000000000000088
:105AA000000023FC1040108001440668F0B011286B
:105AB000166810A41124162010A0284047FE0000EC
:105AC0000000FFC00040004400480050006000504B
:105AD00000480044002000200012000A00060002D6
