:100000006F00E06E130000001300000013000000FA
:100010001300000013000000130000001300000094
:100020001300000013000000130000001300000084
:08003000130000007300100032
:100038006FF09FFC000000006F00604C6F00204DC7
:1000480000000000000000000000000000000000A8
:100058000000000000000000000000000000000098
:100068006FF09FF9000000006FF01FF9000000001A
:100078006FF09FF86FF05FF86FF01FF86FF0DFF721
:100088006FF09FF76FF05FF76F0080156F004016F5
:100098006F00601A6F00601B6F00201C6FF0DFF5A7
:1000A8006FF09FF56FF05FF56F0000416FF0DFF4C0
:1000B8006FF09FF46FF05FF46F00201D00000000E8
:1000C8000000000000000000000000006F00E019C0
:1000D8006F00A01C6F00A01F6F0060226F00A02798
:1000E8006F0060306F00A0326F00A0536FF0DFF038
:1000F8006FF09FF06FF05FF06FF01FF06FF0DFEFC1
:100108006FF09FEF6F00A0336F0060346F00C0394D
:100118006F00A0166FF05FEE6FF01FEE6FF0DFED6F
:1001280000000000000000000000000000000000C7
:080138000000000000000000BF
:100140003D432A876373C3029377F700BDEFADE5A4
:10015000937606FF3D8ABA960CC34CC30CC74CC7B6
:100160004107E36BD7FE11E28280B306C3408A06E3
:100170009702000096966780A6002307B700A306A3
:10018000B7002306B700A305B7002305B700A304F3
:10019000B7002304B700A303B7002303B700A302EB
:1001A000B7002302B700A301B7002301B700A300E3
:1001B000B7002300B700828093F5F50F9396850072
:1001C000D58D93960501D58D61B79396270097023B
:1001D000000096968682E78086FA9680C1171D8F6A
:1001E0003E96E374C3F8A5B7411122C6000801008A
:1001F0003244410173002030411122C600080945F4
:10020000F52B2A8785476317F702B707002003A756
:10021000470789476315F700EF10A05E11A8B707DD
:10022000002003A7470785476314F700EF1020500D
:100230000945052501003244410173002030411178
:1002400022C60008114531250100324441017300E6
:100250002030411122C600080100324441017300E0
:100260002030411122C600080100324441017300D0
:100270002030411122C600080100324441017300C0
:100280002030411122C600080100324441017300B0
:100290002030411122C600080100324441017300A0
:1002A0002030411122C6000893050008B7370140ED
:1002B000138507C0EF007071AA8789CB93050008EA
:1002C000B7370140138507C0EF0030770100324493
:1002D000410173002030411122C600088545B7371F
:1002E0000140138507C0EF00506EAA8781CB85457A
:1002F000B7370140138507C0EF0030740100324466
:10030000410173002030411122C60008930500040A
:10031000B7370140138507C0EF00306BAA8789CB40
:1003200093050004B7370140138507C0EF00F07054
:1003300093050002B7370140138507C0EF00F0684E
:10034000AA8789CB93050002B7370140138507C000
:10035000EF00B06E010032444101730020304111C2
:1003600022C600088945B7370140138507C0EF0052
:10037000D065AA8781CB8945B7370140138507C06F
:10038000EF00B06B9145B7370140138507C0EF0010
:10039000D063AA8781CB9145B7370140138507C049
:1003A000EF00B069A145B7370140138507C0EF00E2
:1003B000D061AA8781CBA145B7370140138507C01B
:1003C000EF00B067C145B7370140138507C0EF00A4
:1003D000D05FAA8781CBC145B7370140138507C0DD
:1003E000EF00B0650100324441017300203041113B
:1003F00022C60008854537050040EF00105DAA873A
:1004000091C7854537050040EF0030630100324455
:10041000410173002030411122C600088545B7070D
:10042000004013850740EF00505AAA8781CB8545CD
:10043000B707004013850740EF00306001003244E9
:10044000410173002030411122C6000801003244EE
:10045000410173002030411122C60008930550521B
:10046000B747004013850740EF106010AA8785CF7B
:1004700093055052B747004013850740EF10401FC7
:10048000B707002003A7470789476315F700EF1058
:10049000403011A8B707002003A74707854763141A
:1004A000F700EF10C02101003244410173002030F9
:1004B000411122C60008010032444101730020307E
:1004C000411122C60008096545242A87854763171C
:1004D000F7020965C52CB707002003A7470789471E
:1004E0006315F700EF10403511A8B707002003A7E8
:1004F000470785476314F700EF10C0260100324418
:10050000410173002030411122C60008010032442D
:10051000410173002030411122C6000801A04111A1
:1005200022C6000883970181C207C1838507C207DD
:10053000C1831397070141872398E1808397218125
:10054000C207C183FD17C207C18313970701418703
:100550002399E18083974181C207C183A907C2071C
:10056000C183139707014187239AE1800100324438
:1005700041018280411122C60008130780FD238CAF
:10058000E18293878183130700FBA380E7008397B1
:100590000181A187C207C18713F7F70F9387818372
:1005A0002381E7008397018113F7F70F93878183F6
:1005B000A381E70093878183130710FB2382E70061
:1005C00083972181A187C207C18713F7F70F93870C
:1005D0008183A382E7008397218113F7F70F938725
:1005E00081832383E70093878183130720FBA38301
:1005F000E70083974181A187C207C18713F7F70FEF
:10060000938781832384E7008397418113F7F70F52
:1006100093878183A384E700938781833957238558
:10062000E7000100324441018280411122C60008E6
:100630008545B717004013850780EF001039AA875A
:1006400085CFF13D053F2D46938581830945EF1008
:1006500030158D6783A7074C3E8785471CCB8D6778
:1006600083A7074C3E8785475CCB8545B71700407D
:1006700013850780EF00703C010032444101730094
:100680002030411106C622C44AC24EC00008EF10F5
:10069000E045EF10501503A781828967938707F41F
:1006A0003357F7028567938787BBB307F7023E8905
:1006B00081494A85CE85EF10E061930600310146FD
:1006C00085450145EF10201A93061002130600021B
:1006D000B7170700938507800945EF10C076954549
:1006E0000D45EF10E0460145EF10004401A09701D1
:1006F000002093812118175100201301A190173574
:100700000000130565EE970500209385A58F1386DD
:10071000018163FAC5008322050023A0550011055D
:100720009105E3EAC5FE13850181938541856377D1
:10073000B500232005001105E36DB5FE9302800886
:1007400073A00230970200009382428F93E212005E
:1007500073905230EF101029970200009382A2F29A
:100760007390123473002030797122D60018232E32
:10077000A4FC232604FE232404FE0327C4FDB7079C
:100780000010F98F89CBB7070240938707409C433D
:100790002324F4FE31A0B70702409C432324F4FE37
:1007A000032784FE8327C4FDF98F89C78547232645
:1007B000F4FE19A0232604FE8327C4FE3E8532548E
:1007C00045618280011122CE00102326A4FE03275A
:1007D000C4FEB7070010F98F89CBB7070240938793
:1007E00007400327C4FED8C331A0B7070240032740
:1007F000C4FED8C30100724405618280797122D69B
:100800000018232EA4FC232604FE232404FEB7078D
:100810000140938707409C430327C4FDF98F23249D
:10082000F4FEB707014093870740D84B8327C4FDE8
:10083000F98F81CB832784FE89C785472326F4FE61
:1008400019A0232604FE8327C4FE3E853254456149
:100850008280011122CE00102326A4FEB70701409A
:10086000938707400327C4FED8CB0100724405617B
:100870008280397122DE80002326A4FC2324B4FC6C
:10088000232604FE232004FE232404FE232E04FC3E
:10089000232204FE232C04FC832784FC9C47BD8B6D
:1008A0002326F4FE832784FC9C47C18B89CB8327B6
:1008B00084FCDC430327C4FED98F2326F4FE832760
:1008C00084FC83D7070093F7F70FF1CF8327C4FC8D
:1008D0009C432322F4FE232404FE65A8832784FE80
:1008E0000547B317F700232EF4FC832784FC83D736
:1008F00007003E878327C4FDF98F2320F4FE0327DA
:1009000004FE8327C4FD6311F708832784FE8A074A
:10091000232EF4FC8327C4FD3D47B317F700232C97
:10092000F4FC832784FD93C7F7FF032744FEF98F68
:100930002322F4FE8327C4FD0327C4FEB317F70068
:10094000032744FED98F2322F4FE832784FC984793
:1009500093078002631BF700832784FE0547331744
:10096000F7008327C4FCD8CB05A0832784FC9847D5
:1009700093078004631AF700832784FE0547331723
:10098000F7008327C4FC98CB832784FE85072324A4
:10099000F4FE032784FE9D47E3F2E7F48327C4FCBB
:1009A000032744FE98C3832784FC03D707009307DB
:1009B000F00F63F1E70E8327C4FCDC432322F4FE2F
:1009C000232404FE75A8832784FEA1070547B317D7
:1009D000F700232EF4FC832784FC83D707003E878F
:1009E0008327C4FDF98F2320F4FE032704FE832709
:1009F000C4FD6312F708832784FE8A07232EF4FCC4
:100A00008327C4FD3D47B317F700232CF4FC83274D
:100A100084FD93C7F7FF032744FEF98F2322F4FEDA
:100A20008327C4FD0327C4FEB317F700032744FE42
:100A3000D98F2322F4FE832784FC984793078002F2
:100A4000631BF700832784FEA10705473317F700D0
:100A50008327C4FCD8CB832784FC98479307800462
:100A6000631BF700832784FEA10705473317F700B0
:100A70008327C4FC98CB832784FE85072324F4FEB8
:100A8000032784FE9D47E3F0E7F48327C4FC032794
:100A900044FED8C30100725421618280011122CE2C
:100AA00000102326A4FEAE872322C4FE2315F4FEE5
:100AB000832744FE99C70357A4FE8327C4FE98CB1F
:100AC00031A00357A4FE8327C4FED8CB0100724493
:100AD00005618280797122D60018232EA4FC232C74
:100AE000B4FC232404FE232204FE232604FE232038
:100AF00004FE8327C4FD63D80700B7070140DC4F1D
:100B00002326F4FE31A0B7070140DC432326F4FE80
:100B10008327C4FDC183BD8B2320F4FE0327C4FDBE
:100B2000C167FD17F98F2324F4FE0327C4FDB7071F
:100B300030007D8FB70730006315F7020327C4FE2E
:100B4000B70700F1FD17F98F2326F4FEB707014020
:100B5000D443B7070140370700F17D17758FD8C31D
:100B6000ADA00327C4FDB7071000F98F8DCB8327F5
:100B700004FE0D47B317F7002322F4FE832744FE3B
:100B800093C7F7FF0327C4FEF98F2326F4FE03273C
:100B9000C4FEB707000FD98F2326F4FE3DA083279C
:100BA000C4FDD5839207032784FEB317F70093C7CC
:100BB000F7FF0327C4FEF98F2326F4FE0327C4FEA4
:100BC000B707000FD98F2326F4FE832784FD91CF2A
:100BD0008327C4FDD5839207032784FEB317F7004C
:100BE0000327C4FED98F2326F4FE8327C4FD63D8D0
:100BF0000700B70701400327C4FED8CF31A0B707CD
:100C000001400327C4FED8C30100325445618280ED
:100C1000011122CE00102326A4FE8327C4FEFD8BE3
:100C20000547B316F70037E700E08327C4FE958336
:100C3000938707048A07BA9794C301007244056139
:100C40008280011122CE00102326A4FE8327C4FE39
:100C5000FD8B0547B316F70037E700E08327C4FE96
:100C60009583938707068A07BA9794C30100724455
:100C700005618280011122CE00102326A4FEAE87DA
:100C8000A305F4FE37E700E08327C4FEBA970347C5
:100C9000B4FE2380E74001007244056182800111A7
:100CA00006CE22CC00102326A4FEB7E700E0BC4706
:100CB000898B8DC38327C4FE83C707003E878327A4
:100CC000C4FE83C72700920793F7F70FBE853A85C6
:100CD000553795A0B7E700E0BC47898BA9EF83277C
:100CE000C4FE03C7170085476318F7028327C4FEB5
:100CF00083C707003E878327C4FE83C72700920768
:100D0000E207E18793E707F8E207E18793F7F70F38
:100D1000BE853A85853705A08327C4FE83C70700B3
:100D20003E878327C4FE83C72700920793F7F70FF8
:100D3000BE853A8581378327C4FEDC4381CB832778
:100D4000C4FE83C707003E85E13539A08327C4FE72
:100D500083C707003E85F5350100F2406244056116
:100D60008280797122D60018232EA4FC232604FE4B
:100D7000232404FE232204FE232004FEB71702408E
:100D8000DC43B18B2326F4FE0327C4FE91476302A4
:100D9000F7020327C4FEA1476305F7028327C4FEB9
:100DA000C5E78327C4FD37177A001307072098C3C8
:100DB00065A08327C4FD37177A001307072098C35F
:100DC00061A8B7170240D843B7073C00F98F232426
:100DD000F4FEB7170240D843C167F98F2322F4FE0F
:100DE000832784FEC98389072324F4FE832744FED6
:100DF00089EF032784FEB7173D00938707903307D9
:100E0000F7028327C4FD98C381A8B7170240D843CF
:100E1000B7070200F98F89CF032784FEB7173D007B
:100E2000938707903307F7028327C4FD98C32DA04B
:100E3000032784FEB7177A00938707203307F7024A
:100E40008327C4FD98C309A88327C4FD37177A00F8
:100E50001307072098C30100B7170240DC4393F73C
:100E6000070F2326F4FE8327C4FE91832326F4FE76
:100E7000B7070020138707008327C4FEBA9783C7EC
:100E8000070093F7F70F2320F4FE8327C4FD984350
:100E9000832704FE3357F7008327C4FDD8C3B71751
:100EA0000240DC4393F707702326F4FE8327C4FE39
:100EB000A1832326F4FEB7070020138707008327AA
:100EC000C4FEBA9783C7070093F7F70F2320F4FEF9
:100ED0008327C4FDD843832704FE3357F7008327B5
:100EE000C4FD98C7B7170240D8439167938707801E
:100EF000F98F2326F4FE8327C4FEAD832326F4FE58
:100F0000B7070020138707008327C4FEBA9783C75B
:100F1000070093F7F70F2320F4FE8327C4FDD8437F
:100F2000832704FE3357F7008327C4FDD8C7B717BC
:100F30000240D843B167F98F2326F4FE8327C4FE0D
:100F4000B9832326F4FEB7070020138707078327FA
:100F5000C4FEBA9783C7070093F7F70F2320F4FE68
:100F60008327C4FDD847832704FE3357F70283271E
:100F7000C4FD98CB0100325445618280011122CE1C
:100F800000102326A4FE2324B4FE832784FE99CBDD
:100F9000B7170240944FB71702400327C4FE558F7E
:100FA00098CF21A8B7170240944F8327C4FE13C7D8
:100FB000F7FFB7170240758F98CF010072440561A3
:100FC0008280011122CE00102326A4FE2324B4FE29
:100FD000832784FE99CBB7170240D44FB71702403E
:100FE0000327C4FE558FD8CF21A8B7170240D44F8E
:100FF0008327C4FE13C7F7FFB7170240758FD8CFFA
:101000000100724405618280797122D60018232E76
:10101000A4FC232CB4FC231704FE8327C4FD83D730
:1010200007002317F4FE0327C4FDB7370140938759
:1010300007C06308F7020327C4FDB7070040630237
:10104000F7020327C4FDB707004093870740630AF0
:10105000F7000327C4FDB71700409387078063118B
:10106000F7028357E4FE93F7F7F82317F4FE83277C
:1010700084FD03D727008357E4FED98F2317F4FE9E
:101080008357E4FE93F7F7CF2317F4FE832784FDFD
:1010900003D767008357E4FED98F2317F4FE832715
:1010A000C4FD0357E4FE2390E700832784FD03D7A4
:1010B00047008327C4FD2396E702832784FD03D7D7
:1010C00007008327C4FD2394E7020327C4FDB73735
:1010D0000140938707C0631DF700832784FD83C702
:1010E00087001397070141838327C4FD2398E702F4
:1010F0008327C4FD0547239AE70001003254456168
:101100008280011122CE00102326A4FE2324B4FEE7
:10111000832784FE8DC38327C4FE83D70700C207BD
:10112000C18393E717001397070141838327C4FE08
:101130002390E70039A88327C4FE83D70700C2079E
:10114000C183F99B1397070141838327C4FE239032
:10115000E7000100724405618280011122CE001077
:101160002326A4FEAE872322C4FE2315F4FE832784
:1011700044FE9DC38327C4FE83D7C700139707018E
:1011800041838357A4FED98F139707014183832797
:10119000C4FE2396E70035A08327C4FE83D7C7008B
:1011A0001397070141838357A4FE93C7F7FFC20734
:1011B000C183F98F1397070141838327C4FE2396C8
:1011C000E7000100724405618280797122D600181F
:1011D000232EA4FCAE87231DF4FC232604FE231536
:1011E00004FE231404FE8327C4FD83D7070113974D
:1011F000070141838357A4FDF98F2315F4FE83274C
:10120000C4FD83D7C7001397070141838357A4FD0B
:10121000F98F2314F4FE8357A4FE81CB835784FEF9
:1012200089C785472326F4FE19A0232604FE8327B9
:10123000C4FE3E85325445618280011122CE0010E9
:101240002326A4FEAE872315F4FE8357A4FE93C77E
:10125000F7FF1397070141838327C4FE2398E70014
:1012600001007244056182805D7186C6A2C4800857
:10127000232EA4FA232CB4FA232604FE232404FEEE
:10128000232204FE232004FE232E04FC8327C4FB18
:10129000232EF4FC8327C4FB83D70701C207C18335
:1012A0002326F4FE0327C4FEB567FD17F98F232616
:1012B000F4FE832784FB83D767003E878327C4FE21
:1012C000D98F2326F4FE8327C4FE13970701418399
:1012D0008327C4FB2398E7008327C4FB83D7C70079
:1012E000C207C1832326F4FE0327C4FEBD6793878C
:1012F000379FF98F2326F4FE832784FB03D747000B
:10130000832784FB83D78700D98F139707014183F5
:10131000832784FB83D7A700D98FC207C1833E8769
:101320008327C4FED98F2326F4FE8327C4FE139798
:10133000070141838327C4FB2396E7008327C4FB6F
:1013400083D74701C207C1832326F4FE0327C4FEC7
:10135000C1679387F7CFF98F2326F4FE832784FB99
:1013600083D7C7003E878327C4FED98F2326F4FE88
:101370008327C4FE1397070141838327C4FB239A65
:10138000E700930784FC3E85E93A0327C4FDB7478D
:101390000140938707806317F700832744FD2324C8
:1013A000F4FE29A0832704FD2324F4FE8327C4FB35
:1013B00083D7C700C207C183C207C18763D20702B0
:1013C000032784FEBA878607BA978E073E9783273E
:1013D00084FB9C438607B357F7022322F4FE05A043
:1013E000032784FEBA878607BA978E073E9783271E
:1013F00084FB9C438A07B357F7022322F4FE03279A
:1014000044FE93074006B357F70292072326F4FEE3
:101410008327C4FE13D7470093074006B307F7029C
:10142000032744FEB307F7402320F4FE8327C4FBC1
:1014300083D7C700C207C183C207C18763D207022F
:10144000832704FE8E071387270393074006B357AD
:10145000F7029D8B0327C4FED98F2326F4FE05A037
:10146000832704FE92071387270393074006B35789
:10147000F702BD8B0327C4FED98F2326F4FE8327F2
:10148000C4FE1397070141838327C4FB2394E7001D
:101490000100B640264461618280011122CE001015
:1014A0002326A4FE2324B4FE832784FE95C383272A
:1014B000C4FE83D7C7001397070141838967D98F7B
:1014C0001397070141838327C4FE2396E70015A0E5
:1014D0008327C4FE83D7C700139707014183F97799
:1014E000FD17F98F1397070141838327C4FE2396C5
:1014F000E7000100724405618280011122CE0010D4
:101500002326A4FEAE872315F4FE8357A4FE93F78B
:10151000F71F1397070141838327C4FE2392E70037
:101520000100724405618280797122D60018232E51
:10153000A4FCAE87231DF4FC232604FE8327C4FDF0
:1015400083D707001397070141838357A4FDF98FC1
:10155000C207C18389C785472326F4FE19A0232625
:1015600004FE8327C4FE3E85325445618280797132
:1015700022D60018232EA4FCAE87231DF4FC2322C0
:1015800004FE232604FE232004FE232404FE8357A6
:10159000A4FD93F7F70F958393F7F70F2320F4FE3D
:1015A0008357A4FDFD8B2326F4FE8327C4FE054745
:1015B000B317F7002326F4FE032704FE8547631FB5
:1015C000F7008327C4FD83D7C700C207C1833E87C6
:1015D0008327C4FEF98F2326F4FE3DA8032704FECB
:1015E0008947631FF7008327C4FD83D70701C2071C
:1015F000C1833E878327C4FEF98F2326F4FE29A8E2
:101600008327C4FD83D74701C207C1833E87832751
:10161000C4FEF98F2326F4FE8357A4FDA183C207DD
:10162000C1832322F4FE832744FE0547B317F70046
:101630002322F4FE8327C4FD83D70700C207C1839A
:101640003E87832744FEF98F2322F4FE8327C4FEBE
:1016500081CB832744FE89C785472324F4FE19A044
:10166000232404FE832784FE3E8532544561828014
:10167000797122D60018232EA4FCAE87231DF4FC1A
:10168000231704FE231604FE8357A4FDA18323170A
:10169000F4FE8357E4FE0547B317F7002316F4FE64
:1016A0008357C4FE93C7F7FF13970701418383272E
:1016B000C4FD2390E700010032544561828041114E
:1016C00022C600088D679387874FDC4383D7470086
:1016D00013970701418383C7B181BE861377F70F44
:1016E00093878181B6972380E70083C7B1818507FF
:1016F00013F7F70FA38DE18003C7B1818547631A04
:10170000F70003C781819307500A6304F700A38D94
:10171000018003C7B1818D476317F700A38D018056
:101720000547238EE180010032444101828041114E
:1017300022C60008B70702409387470409671307CA
:10174000874BD8C3B7070240938747049843B7072E
:101750000240938747041367170098C3010032447F
:1017600041018280411122C600080547A38EE18015
:10177000B7070240938747049443B7070240938713
:10178000470441677917758F98C3010032444101BE
:101790008280411122C600088D679387874FDC4302
:1017A00083D7470013970701418383C73182BE86E1
:1017B0001377F70F93870182B6972380E70083C7DB
:1017C0003182850713F7F70FA381E18203C73182C6
:1017D0008547631AF70003C701829307500A630421
:1017E000F700A381018203C731828D476317F70099
:1017F000A381018205472382E18201003244410135
:101800008280411122C60008B7070240938747042F
:10181000056713070796D8C3B707024093874704A5
:101820009843B7070240938747041367170098C38C
:101830000100324441018280411122C6000805475F
:10184000A382E182B7070240938747049443B70716
:1018500002409387470441677917758F98C3010049
:10186000324441018280797106D622D40018232E99
:10187000A4FC232CB4FCB2872328D4FCA30BF4FCD7
:101880008327C4FD958393F7F70F9D8BA307F4FE81
:101890008327C4FD93F7F70FFD8B2307F4FE03277F
:1018A000C4FD93070008630DF7148327C4FD9583D7
:1018B00091E785451145EFF06FEC61A88327C4FDE2
:1018C00013D7570085476317F70085452145EFF08B
:1018D000EFEA41A08327C4FD13D757008947631758
:1018E000F70085454145EFF06FE9A5A08327C4FDCA
:1018F00013D757008D476318F7008545130500027D
:10190000EFF0CFE7B9A08327C4FD13D75700914765
:101910006318F700854513050004EFF02FE615A8BE
:101920008327C4FD13D7570095476318F7008545F3
:1019300013050008EFF08FE429A88327C4FD13D70F
:10194000570099476317F700854513050010EFF01E
:10195000EFE28347E4FE0547B317F700C207C183F0
:101960002310F4FE032784FD85476317F7028327BE
:1019700004FDC207C183A183C207C18389E78D47E4
:101980002322F4FE11A8832704FDC207C183A1838B
:10199000C207C1832322F4FE832704FDC207C1834B
:1019A00093F7F70F2324F4FE0347F4FE8D670A072D
:1019B0009387074CBA979C433E87930704FEBE85E6
:1019C0003A85EFE01FEB032784FD8547631BF70291
:1019D0000347F4FE8D670A079387074CBA979C4329
:1019E000BE868347E4FE0547B317F700C207C183ED
:1019F000034774FD3A86BE853685EFF02F8A11A025
:101A00000100B250225445618280797106D622D4F9
:101A10000018232EA4FCAE873687A30DF4FCB287F2
:101A2000230DF4FCBA87A30CF4FC8327C4FD93F7C1
:101A3000F70F2304F4FE8347B4FDA304F4FE8347A9
:101A4000A4FD2305F4FE834794FD2326F4FE9307AB
:101A500084FE3E85EFF0AFA4B7E700E09843FD7742
:101A60007D8F83A741845D8F23A2E184B7E700E0E7
:101A7000D843B7070010FD177D8F93874184DC435F
:101A80005D8F93874184D8C39387418403C78700C0
:101A900085476313F70031200100B250225445619D
:101AA0008280411122C60008B7E700E07D5723A0DD
:101AB000E718B7E700E07D5723A2E718010032449A
:101AC00041018280411122C60008B7E700E003A768
:101AD000418423A0E710B7E700E01387418458430F
:101AE00023A2E7100100324441018280011106CE99
:101AF00022CC00109387418405472384E70083A705
:101B0000418481EB93874184DC4381E7A30704FE92
:101B100021A08547A307F4FE69378347F4FE3E857D
:101B2000F240624405618280011106CE22CC001091
:101B3000AA87A307F4FE8347F4FE91E793874184C5
:101B40002384070041370100F2406244056182802E
:101B5000797106D622D40018232EA4FCAE87231D4B
:101B6000F4FC8327C4FD81EB8545856713850780D9
:101B7000EFF0CFC035A80327C4FD85476317F700F2
:101B800085450545EFF0EFC325A00327C4FD894730
:101B90006317F70085450945EFF0AFC211A8032789
:101BA000C4FD8D476316F70085451145EFF06FC101
:101BB0008357A4FD89EF8D679386C7488D67138689
:101BC000074D930520038D6713850749512D03A702
:101BD00081829307007DB357F702C207C183FD17C7
:101BE000C207C1832314F4FE8357A4FD8607C207EE
:101BF000C183FD17C207C1832312F4FE231504FE1F
:101C0000231304FE230604FE8D670327C4FD0A0781
:101C10009387874EBA979C433E87930744FEBE85C1
:101C20003A85EFF06FBE8D670327C4FD0A079387DF
:101C3000874EBA979C43054685453E85EFF0EFD128
:101C40008D670327C4FD0A079387874EBA979C4385
:101C500085453E85EFF06FDE8327C4FD81EB854629
:101C600009468545130590024D33A1A00327C4FD05
:101C700085476319F7008546094685451305C00267
:101C8000693305A80327C4FD89476319F700854612
:101C9000094685451305D0028D3B21A80327C4FDC5
:101CA0008D476318F7008546094685451305E00210
:101CB000A93B8D670327C4FD0A079387874EBA9710
:101CC0009C4385453E85EFF0CFC30100B2502254BE
:101CD00045618280011122CE00102324A4FE232618
:101CE000B4FE37F700E02320070037F700E02302B7
:101CF000070037F700E0A302070037F700E02303EF
:101D0000070037F700E0A303070037F700E02304DC
:101D1000070037F700E0A304070037F700E02305CA
:101D2000070037F700E0A305070037F700E0854616
:101D300014C3010037F700E011071843BA870148C0
:101D40000327C4FEC286636DD7000327C4FEC28684
:101D5000E312D7FE032784FEBE866363D700D9BF94
:101D60000100724405618280011106CE22CC001070
:101D70002326A4FE2324B4FE8327C4FE95E3032771
:101D800084FE8547631EF700930680310146854532
:101D90002545D13C9146014681452945E93479A83C
:101DA0000327C4FE89476310F7029306803101467A
:101DB000854513056002453C914601468145130562
:101DC00070025534A5A80327C4FEC147631EF7005F
:101DD0009306803101468545094571349146014697
:101DE00081450D45493499A80327C4FE9307000295
:101DF0006311F70293068031014685451305A00261
:101E00009D349146014681451305B002EFF0BFA510
:101E100035A00327C4FE930720026311F70293063F
:101E20008031014685451305A004EFF0DFA39146FC
:101E3000014681451305B004EFF0FFA20100F24016
:101E4000624405618280797106D622D40018232E5F
:101E5000A4FC232CB4FC232AC4FC2328D4FC8545F1
:101E60000545EFF0AF91832504FD032544FDED3DCD
:101E7000032744FD8947631BF700032704FD8D47B3
:101E80006316F70085451145EFE0DFC4032744FDE5
:101E900093072002631FF700032704FD9307300216
:101EA0006319F7008545B707140013850701EFE0B4
:101EB0007FC28327C4FD91E785451165EFF00F8C44
:101EC00035A00327C4FD85476318F700854537050E
:101ED0000200EFF00F8F19A80327C4FD894763178D
:101EE000F700854537050400EFF0AF8D832784FDAB
:101EF0002320F4FE231204FE231304FE231404FE05
:101F0000231604FEB1472315F4FE8D670327C4FD95
:101F10000A079387874FBA979C433E87930704FE2F
:101F2000BE853A85EFF04FB48D670327C4FD0A07DD
:101F30009387874FBA979C4385453E85EFF0EFD551
:101F40000100B250225445618280011122CE00105E
:101F50002326A4FEAE87A305F4FE01008D670327A8
:101F6000C4FE0A079387874FBA979C4383D707001D
:101F7000C207C18393F70708F5D38D670327C4FE13
:101F80000A079387874FBA979C433E878347B4FEDF
:101F9000C207C1832312F7000100724405618280E9
:101FA000011106CE22CC00102326A4FE2324B4FE69
:101FB0002322C4FE29A8832784FE13871700232425
:101FC000E4FE83C70700BE850325C4FEBD3F83270B
:101FD00044FE1387F7FF2322E4FEF1FF0100F240E5
:101FE000624405618280411106C622C40008B71709
:101FF0000240DC43C98313F7F700B7177A009387D1
:1020000007203307F702B727F400938707403E976E
:1020100023A4E18285460146F167938507200145A7
:102020001D350100B240224441018280797106D6FB
:1020300022D40018232EA4FC232CB4FC232AC4FC95
:10204000232604FE99A001008D6783A7874F93057F
:1020500000043E85EFF04FCDAA87FDD78D6783A79B
:10206000874FBE86832784FD13871700232CE4FC4B
:1020700083870700C207C183BE853685EFF0EFC7AF
:102080008327C4FE85072326F4FE0327C4FE832787
:1020900044FDE34AF7FA832744FD3E85B2502254BB
:1020A00045618280011122CE0010232604FE2324E4
:1020B00004FEB71702409443B71702404167558F9B
:1020C00098C3B71702409843B7070200F98F23243B
:1020D000F4FE8327C4FE85072326F4FE832784FEAF
:1020E00099E70327C4FE93070050E31CF7FCB717DA
:1020F00002409843B7070200F98F89C78547232418
:10210000F4FE19A0232404FE032784FE85476317E9
:10211000F70CB72702409843B7270240136707011F
:1021200098C3B72702409843B7270240719B98C3D2
:10213000B72702409843B72702401367270098C388
:1021400037170240B71702405843D8C33717024029
:10215000B71702405843D8C337170240B717024099
:102160005843D8C3B7170240D443B71702403707C4
:10217000C1FF7D17758FD8C3B7170240D443B71777
:10218000024037072500558FD8C3B7170240944344
:10219000B717024037070001558F98C30100B717E2
:1021A00002409843B7070002F98FF5DBB7170240EA
:1021B000D843B7170240719BD8C3B7170240D84322
:1021C000B717024013672700D8C30100B7170240B2
:1021D000DC4313F7C700A147E31AF7FE010072447E
:1021E00005618280411106C622C40008B71702406B
:1021F0009843B71702401367170098C3B7170240F8
:10220000D443B71702403707FFF8758FD8C3B71705
:1022100002409443B71702403707F7FE7D17758FCA
:1022200098C3B71702409443B71702403707FCFF23
:102230007D17758F98C3B7170240D443B717024074
:10224000370781FF7D17758FD8C3B717024037074F
:102250009F0098C7813D0100B24022444101828025
:10226000938781809C434111328806C6AA882E87B5
:10227000C8473686971700009387472963170800D9
:1022800097170000938747293E88C6869715000058
:102290009385C5281920EF00D00A397132D436D67B
:1022A0003EDA3AD842DC46DE938781802E86AA85C4
:1022B0008843341006CE36C68D28F24021618280D4
:1022C0001C46FD171CC663D90700184E63C5E700FE
:1022D000A9476393F50045A51C422E851387170077
:1022E00018C22380B7008280011122CC26CA4AC8B6
:1022F0004EC652C406CE2A89AE893284B304D600B3
:102300007D5A63149400014509A8834504004E8654
:102310004A857D370504E31645FFF2406244D24406
:102320004249B249224A05618280357122CD26CBCD
:102330004AC94EC706CF52C556C35AC1DEDEE2DCDB
:10234000E6DAAA89AE843289368409C51C4D99E340
:10235000EF00B0259717000093870725639CF40CC6
:1023600083A4490083D7C400A18BFDC79C48EDC757
:1023700093070002A304F1029307000302D223058E
:10238000F10222C6930B5002971A0000938A0A1C8E
:10239000054C294B4A848347040099C36390770F07
:1023A000B30C2441638D0C00E6864A86A6854E85D3
:1023B000253FFD576308F51E9256E69636D28347B1
:1023C00004006381071EFD571309140002C802CEE2
:1023D0003ECA02CCA309010482D4834509001546F4
:1023E0005685EF00B04213041900C24751E913F7B4
:1023F000070109C713070002A309E10413F78700C7
:1024000009C71307B002A309E104834609001307B3
:10241000A002638FE606F2474A84814625460347B9
:10242000040093051400130707FD6378E60AADCA9C
:102430003ECEBDA097170000938707196395F4005F
:1024400083A4890005B7971700009387E713E39BE0
:10245000F4F083A4C90039B7A6854E85E92B09D9C4
:102460007D55FA406A44DA444A49BA492A4A9A4AA6
:102470000A4BF65B665CD65C0D618280050421BF69
:10248000330555413315AC00C98F3EC82289B1B719
:10249000324793064700184336C6634907023ACECF
:1024A000034704009307E002631FF7040347140087
:1024B0009307A002631BF702B24709041387470082
:1024C0009C433AC663C107023ECA35A83307E040C1
:1024D00093E727003ACE3EC8E1B7B3876703854646
:1024E0002E84BA972DBFFD57C5B7050402CA814691
:1024F000814725460347040093051400130707FD91
:102500006378E606F1F2834504000D4617150000D6
:1025100013054504EF00902F11CD97170000938706
:1025200067031D8D93070004B397A7004245050478
:102530005D8D2AC883450400194617150000130550
:10254000A501130914002304B102EF00302C3DC192
:1025500097E7FFFF938707AB95E74247B2471377AB
:10256000071009CF91073EC69257D2973ED21DB5AC
:10257000B387670385462E84BA97ADBF9D07E19B5D
:10258000A107D5B7780097060000938626D6268641
:102590000C084E8597000000E7000000FD572A8ACE
:1025A000E314F5FC83D7C40093F70704E39A07EA22
:1025B000125545BD780097060000938626D32686DF
:1025C0000C084E85012AD9BF797156CA9C49BA8A2E
:1025D000984522D426D24ECE52CC06D64AD05AC8DE
:1025E0005EC6AA892E84B284368A63D3E700BA878E
:1025F0009CC00347340419C385079CC01C4093F753
:10260000070281C79C4089079CC0032904001379F5
:102610006900631A0900130B9401FD5B5C44984048
:10262000998F634CF9041C408346340493F70702E6
:10263000B336D000A5EB13063404D2854E85829ABA
:10264000FD576303F5041C4011469840998B544490
:1026500081446397C700B384E64063D30400814498
:102660001C4418486354F700998FBE9401496904CB
:102670007D5B63982405014509A885465A86D28565
:102680004E85829A631E75017D55B2502254925434
:102690000259F249624AD24A424BB24B45618280AA
:1026A0000509ADBF3307D40013060003A301C70417
:1026B0000347540493871600A2978906A381E70471
:1026C0009DBF85462286D2854E85829AE30E65FBA4
:1026D000050945B7797122D426D24AD04ECE06D606
:1026E00052CC56CA5AC8B68983C685019307E006FC
:1026F0003289AA842E84138635046380F61E63E231
:10270000D706930730066382F60A63EDD700638A23
:10271000061E930780056386F616930A2404230198
:10272000D40469A8930740066386F60093079006D1
:10273000E395F6FE1C40084393F607089305450011
:10274000C1C21C410CC363D807001307D002B307F2
:10275000F040A301E40497160000938666E0294741
:1027600065A0930730076382F61A63EFD7009307DB
:10277000F006638FF60493070007E390F6FA9C4196
:1027800093E707029CC109A8930750076382F604E8
:1027900093078007E393F6F893078007A302F404F6
:1027A00097160000938606DDDDA01C43938A25045E
:1027B000938647009C4314C32381F5048547ADA24B
:1027C00093F607041C410CC3BDDEC207C187A5BF39
:1027D0000C401C4313F805081385470063050800E7
:1027E00008C39C4339A093F5050408C3FDD983D7DA
:1027F00007001307F006638AE60C9716000093861D
:1028000026D62947A30104044C400CC463C5050027
:1028100008406D9908C099E3B28A91CDB28AB3F5A8
:10282000E702FD1AB69583C505002380BA00B3D52B
:10283000E70263F2E70AA147631EF7001C40858B9D
:1028400091CB58401C4863C7E70093070003A38F50
:10285000FAFEFD1A3306564110C84E87CA8670002C
:10286000A285268595337D5A6314450D7D55B2505A
:10287000225492540259F249624AD24A424B45616B
:102880008280A382D50497160000938666CD0C4003
:10289000084313F805081C4111056300080208C32A
:1028A00013F7150001C793E505020CC04147B9FBBA
:1028B0000C4093F5F5FD0CC0B1B713F8050408C33F
:1028C000E30008FEC207C183E1BF971600009386AC
:1028D00026C9214705BFAE8799B794411C43CC490F
:1028E00013F80608138547006306080008C39C43D5
:1028F0008CC301A808C393F606049C43F5DA239021
:10290000B70023280400B28A89BF1C43D041814507
:102910009386470014C383AA07005685C52D01C5B9
:102920003305554148C05C401CC8A301040435B7B9
:1029300014485686CA8526858299E30945F31C40CA
:10294000898B8DE7B2474844E353F5F23E8505B7DE
:1029500085465686CA8526858299E30965F1050A6A
:102960005C443247998FE345FAFEE9BF014A930A76
:1029700094017D5BF5B7011122CC26CA4AC806CE68
:102980004EC6AA842E89328401C51C4D91E331299B
:1029900097170000938747C16319F406C0401C4C89
:1029A0001CC48357C400A18BC9C31C48BDCF1C489D
:1029B00008409379F90F1379F90F1D8D5C48634630
:1029C000F500A2852685D9242DE51C440505FD17B3
:1029D0001CC41C401387170018C0238037015C48B3
:1029E0006389A7008357C400858B81CBA9476316F1
:1029F000F900A2852685592C0DEDF24062444A85E6
:102A0000D2444249B24905618280971700009387FA
:102A1000A7BB6314F400804459B79717000093874D
:102A2000A7B6E31EF4F6C0449DBFA28526852120EB
:102A30003DDD7D59D9B741119387818026C28443FA
:102A400022C44AC006C62A892E8489C49C4C99E3B4
:102A50002685A12E97170000938707B5631CF40203
:102A6000C0400317C40093170701C18393F6870082
:102A7000B5EE93F607019DEEA5472320F9001367F5
:102A800007042316E4007D55B240224492440249D3
:102A90004101828097170000938707B36314F40005
:102AA0008044C1B797170000938707AEE31BF4FA81
:102AB000C04445BF918B8DC74C5889C993074404C6
:102AC0006384F5004A858523232A04028357C400C2
:102AD0002322040093F7B7FD2316F4001C481CC002
:102AE0008357C40093E787002316F4001C4881EF46
:102AF0008357C4001307002093F707286385E70076
:102B0000A2854A85B5218357C40013F7170005C76E
:102B10005C4823240400B307F0401CCC1C4801454A
:102B2000A5F78317C40013F7070839DF93E70704F5
:102B30002316F40089BF898B014791E3584818C4D4
:102B4000F1BF4111194506C6E92D0545EF00F01307
:102B500083D7C500011122CC26CA06CE4AC84EC66C
:102B600013F78700AA842E8471EFD841634DE000EB
:102B7000B841634AE0000145F2406244D244424910
:102B8000B2490561828058547DD703A90400939609
:102B9000370123A0040063DD060670488357C40094
:102BA000918B99C75C401D8E5C5899C33C401D8E2B
:102BB0005C540C50814626858297FD570357C4000C
:102BC000631DF5009440F54763E8D706B70740203A
:102BD0008507B3D7D700858BA5C31C4823220400E3
:102BE0001CC09317370163D80700FD576314F50025
:102BF0009C4091E368C84C5823A02401ADDD9307A5
:102C000044046384F50026853929232A0402A5B7E4
:102C10000C500146854626850297FD572A86E31FFC
:102C2000F5F69C40A5DF75476385E7005947639437
:102C3000E70423A0240181B7136707042316E400E7
:102C40007D551DBF83A90501E38709F203A905008E
:102C50008D8B23A0350133093941014791E3D849D0
:102C600018C4E35A20F11C540C50CA864E8626859F
:102C700082976349A0008357C40093E70704231693
:102C8000F4007DBFAA993309A940E1BF9C49B9CF9F
:102C9000011122CC06CE2A8411C51C4D81E72EC617
:102CA0002922B2459717000093870790639BF50090
:102CB0004C408397C50095C722856244F240056168
:102CC00041BD97170000938727906394F5000C444B
:102CD000CDB7971700009387278BE39CF5FC4C44F6
:102CE000C9BFF2406244014505618280014582808E
:102CF000411122C406C62A842316B5002317C50035
:102D00002320050023220500232405002322050695
:102D100023280500232A0500232C05002146814590
:102D20001305C505EFD0CFC1970700009387075360
:102D30005CD097070000938767551CD49707000065
:102D40009387A7595CD4970700009387675C00D0EE
:102D50001CD8B2402244410182809705000093852F
:102D600025F3A9A2411126C2130680069384F5FF1C
:102D7000B384C4024AC02E8922C406C69385440780
:102D8000A9262A8401CD232005002322250131050F
:102D900008C4138684068145EFD08FBA2285B240DD
:102DA000224492440249410182801C4DADE341110D
:102DB00006C622C497070000938767FA1CD593873D
:102DC000C1809C43232405042326050423280504ED
:102DD0006314F50085471CCD2A841D2848C0228530
:102DE000052808C422852D2048C448400146914545
:102DF000013708440546A545E53D48440946C9450F
:102E0000C53D85471CCCB24022444101828082806E
:102E100041119387C18026C284434AC006C69C4C98
:102E200022C42A8999E326854937938484048044FF
:102E3000DC40FD1763D607009C40B9CF8440C5BF76
:102E40000317C40039E7C17785072322040623202E
:102E5000040023220400232404005CC4232804006B
:102E6000232A0400232C0400214681451305C405B0
:102E7000EFD00FAD232A0402232C040223240404E0
:102E8000232604042285B24022449244024941018F
:102E900082801304840671BF91454A85E13588C05C
:102EA00051FDB1472320F9000144E9BF797122D4D3
:102EB0004AD052CC56CA5AC85EC606D626D24ECE84
:102EC0002A8AAE8A130485040149054BFD5B09EC8F
:102ED000B25022544A8592540259F249624AD24A67
:102EE000424BB24B45618280044483294400FD1962
:102EF00063D409000040E1BF83D7C400637BFB00BB
:102F00008397E40063877701A6855285829A3369A7
:102F1000A90093848406E1BF1971A6DAAE84839573
:102F2000E500A2DC86DE328463DC050083D7C400C2
:102F300023A0060093F707089DE39307004015A020
:102F4000300836C61521B246E34205FE7247BD671A
:102F5000F98F7977BA9793B717009CC2F9BF930797
:102F600000041CC0F6506654D654014509618280A5
:102F700083D7C500011122CC06CE26CA4AC8898B48
:102F80002E8489CF930774041CC01CC885475CC875
:102F9000F2406244D24442490561828074003000AC
:102FA000AA849D3FA2452A892685052201ED831723
:102FB000C40013F7072069FFF19B93E7270023164E
:102FC000F400C9B797070000938767D99CD483574B
:102FD000C40008C008C893E707082316F400A247F6
:102FE0005CC8B24789CF8315E40026855D2601C9F8
:102FF0008357C400F19B93E717002316F40083570F
:10300000C4003369F9002316240159B793F5F50F6D
:103010002A966314C5000145828083470500E38D2D
:10302000B7FE0505FDB7CDC183A7C5FF411122C479
:1030300006C626C21384C5FF63D307003E94AA8444
:103040005D269387C1829C4399EB2322040023A62B
:1030500081822244B24026859244410171A6637E5A
:10306000F40014403307D4006396E7009843DC4330
:10307000369718C05CC0E1BFBA87D84319C3E37D57
:10308000E4FE94433386D700631F86001040B29657
:1030900094C33386D700E31EC7FA10435843B29651
:1030A00094C3D8C37DB76375C400B1479CC055B7FE
:1030B0001040B306C4006316D70014435843B296B9
:1030C00014C058C0C0C371B78280011126CA93844E
:1030D0003500F19806CE22CC4AC84EC6A104B147AD
:1030E00063F1F404B14463E0B4042A89ED2C9387BE
:1030F000C18298433A8431E0938701839C4391E7EE
:1031000081454A85512823A8A182A6854A85692040
:10311000FD5963173507B1472320F9004A85E92493
:1031200029A0E3D204FCB1471CC10145F24062442E
:10313000D2444249B249056182801C40858F63CEEA
:103140000702AD4663F6F6001CC03E9404C031A0F1
:103150005C406312870223A6F1824A85712413051D
:10316000B4009307440061993307F54061D33A9462
:10317000898F1CC065BF5CC3CDB722874040A5BF07
:10318000130435007198E30385FCB305A4404A8518
:103190002120E31D35FB41B7411122C42A842E852D
:1031A00023A8018406C6D124FD576317F500938731
:1031B00001859C4391C31CC0B240224441018280DE
:1031C000FD4763F6B700D9471CC17D5582807C411D
:1031D000011122CC06CE2E862A8491C71397250092
:1031E000BA97984319EB228532C6B520AA85228565
:1031F00062443246F240056115A8854601456308E0
:10320000D700FD566319D700D9471CC00545F240C9
:103210006244056182802E8523A007000297014544
:10322000FDB793878180AA85884359BF411122C485
:103230002A842E85B28523A8018406C62924FD5739
:103240006317F500938701859C4391C31CC0B2406E
:10325000224441018280E1AA411122C42E84839537
:10326000E50006C65922634905007C48AA977CC838
:10327000B2402244410182808357C4007D777D178C
:10328000F98F2316F400EDB783D7C500011122CCC6
:1032900026CA4AC84EC606CE93F70710AA842E84C3
:1032A0003289B68991C78395E50089460146312266
:1032B0008357C4007D777D17F98F2316F40083159B
:1032C000E4006244F240CE864A86B24942492685ED
:1032D000D24405613DA8411122C42E848395E500A6
:1032E00006C6E128FD570357C400631BF500FD77B0
:1032F000FD17F98F2316F400B24022444101828069
:103300008567D98F2316F40068C8FDB78395E5005B
:1033100005A8411122C42A842E85B285368623A8A9
:10332000018406C6EFE09FD0FD576317F500938731
:1033300001859C4391C31CC0B2402244410182805C
:10334000411122C42A842E8523A8018406C6E120C7
:10335000FD576317F500938701859C4391C31CC0FB
:10336000B240224441018280411122C42A842E8528
:10337000B28523A8018406C66D20FD576317F500AA
:10338000938701859C4391C31CC0B24022444101F4
:103390008280411122C42A842E8523A8018406C676
:1033A0006928FD576317F500938701859C4391C3F6
:1033B0001CC0B240224441018280411122C42A84AF
:1033C0002E85B285368623A8018406C65920FD576E
:1033D0006317F500938701859C4391C31CC0B240DD
:1033E00022444101828082808280411122C42A8449
:1033F0002E85B285368623A8018406C68D20FD570A
:103400006317F500938701859C4391C31CC0B240AC
:103410002244410182809307800523A8F1847D55D1
:1034200082809307800523A8F1847D5582809307CD
:10343000800523A8F1847D5582809307800523A809
:10344000F184014582809307800523A8F1847D558E
:1034500082809307800523A8F1847D55828093079D
:10346000800523A8F1847D558280938741839C4306
:1034700091C73E9523AAA1823E858280938741858C
:103480003E9523AAA1823E85828001A06D73000033
:103490002E2E2F4C69627261726965732F73656598
:1034A0006B667265655F6C69627261726965732FC4
:1034B0007A665F7069742E63000000007573000007
:1034C00000080140000C01400010014000140140C0
:1034D00074696D65725F7069745F696E746572722C
:1034E0007570745F6D730000002C01400000004097
:1034F0000004004000080040003801400044004043
:1035000000480040004C00402C2066756E637469D2
:103510006F6E3A2000000000617373657274696F0A
:103520006E2022257322206661696C65643A2066EC
:10353000696C6520222573222C206C696E6520251C
:1035400064257325730A0000232D302B2000000012
:10355000686C4C0065666745464700003031323381
:10356000343536373839414243444546000000007F
:1035700030313233343536373839616263646566E9
:10358000000000000000000000000000000000003B
:10359000000000000000000000000000000000002B
:1035A000000000000000000000000000000000001B
:1035B000000000000000000000000000000000000B
:1035C00000000000000000000000000000000000FB
:1035D00000000000000000000000000000000000EB
:0435E00000000000E7
:1035E40000000000010203040102030406070809A5
:1035F40000000000A4350000C4350000843500003C
:1036040000000000000000000000000000000000B6
:1036140000000000000000000000000000000000A6
:103624000000000000000000000000000000000096
:103634000000000000000000000000000000000086
:103644000000000000000000000000000000000076
:1036540002040608010000001000002010000020F1
:00000001FF
