:100000006F206015130000001300000013000000B3
:100010001300000013000000130000001300000094
:100020001300000013000000130000001300000084
:08003000130000007300100032
:100038006FF09FFC000000006F2000116F2000117E
:1000480000000000000000000000000000000000A8
:100058000000000000000000000000000000000098
:100068006FF09FF9000000006FF01FF9000000001A
:100078006FF09FF86FF05FF86FF01FF86FF0DFF721
:100088006FF09FF76FF05FF76F0040746F00207597
:100098006F0080756F0020786F0080766FF0DFF555
:1000A8006FF09FF56FF05FF56F00C0706FF0DFF4D1
:1000B8006FF09FF46FF05FF46FF01FF40000000022
:1000C8000000000000000000000000006F00407CFD
:1000D8006FF09FF26F10303E6FF01FF26FF0DFF19C
:1000E8006FF09FF16FF05FF16FF01FF16FF0DFF0CD
:1000F8006FF09FF06FF05FF06FF01FF06FF0DFEFC1
:100108006FF09FEF6F10F06E6F10D03D6F10507250
:100118006F0060796FF05FEE6FF01FEE6FF0DFED4C
:1001280000000000000000000000000000000000C7
:080138000000000000000000BF
:1001400005472388E180B7060240FC4241677917E2
:10015000F98FFCC28280397126DA8545AA8413059D
:10016000F01F06DE22DCEF208055930780F0130499
:1001700080044C0837150140231AF10022CEEF20ED
:10018000E02B37150140C9474C08130505C0231A59
:10019000F10022CEEF20802A2685EF10000A91453B
:1001A0000545EF202038C14705443ED00810B1472F
:1001B0003ED422D602D2EF20A01E9307A01189447C
:1001C00068002316F1002307910022C8EF20A03811
:1001D0008D450945EF200035A14708103ED03ED49B
:1001E00022D602D2EF20C01B93079021680023077C
:1001F000910022C82316F100EF20E035F25062543E
:10020000D254216182802971232E1112232C811254
:10021000232A911223282113232631132324411347
:100220002322511323206113232E7111232C8111BA
:10023000232A91112328A1112326B11181471307E5
:100240000010B306F100238006008507E39BE7FE5C
:1002500085679387C77AAA97930550060147B30627
:10026000E50083C6060010020507B29603C606F035
:1002700005062380C6F0E314B7FE13055506E39F79
:10028000A7FC8147930600103307F10003470700DE
:1002900013940701418431C79307F00F6306F400FC
:1002A0009307E00F6314F40422858320C113032411
:1002B000811383244113032901138329C112032AC3
:1002C0008112832A4112032B0112832BC111032CAB
:1002D0008111832C4111032D0111832DC110316136
:1002E00082808507E392D7FA13040010A284A287C4
:1002F00001491307F00F93960701C1866351D70C8C
:10030000014B1307F00F93170401C1876350F70CDB
:10031000B757000083AB87D30144014A8149930753
:10032000E00F939D040193DD0D41E3CFB7F7330751
:100330009100834A0700D699B38A54034E85EF3063
:1003400070492A8D4A85EF30F048AA8C330539412F
:10035000EF30F03B2A8C569A5285EF30B047EA8551
:10036000EF308017AA8A33054B41EF30503AE285CF
:10037000EF308016AA855685EF30807BAA8AE68505
:100380006A85EF3060152A8DE6856285EF30C014EE
:10039000AA856A85EF308050D685EF302050D6850B
:1003A000EF30C04FAA85AA8A5E85EF30604693077A
:1003B000E00F635405006E84D68B85049DB7B306A9
:1003C000F10083C606008507369935B7B30781006B
:1003D00083C70700B387870205043E9B2DB7797159
:1003E000056E22D626D44AD24ED052CE56CC5ACA08
:1003F0005EC813035006930FE10085439302400645
:10040000130E7E74930E5506338F65009306A50C6C
:10041000F6880548034B250003C4280003CA2600BC
:100420008344050003C90800B30A8B0083C7060094
:10043000D29AB38A9A40B38A2A41B38AFA4093DBAC
:10044000FA4103C71600B3CA5B0183491500B38A9A
:100450007A4123145101B38A4701BA9AB38A3A41C7
:10046000B38A9A40CA97B38A6A41BA9793DBFA4132
:10047000B3873741818FB3CA5B015294B38A7A4103
:10048000B38767412297231551013307374193DA28
:10049000F741B3C7FA0033072741B3875741058FA8
:1004A0002316F1009357F7413D8F1D8F2317E1006D
:1004B0003C0003972700031481006354E4002314D5
:1004C000E1008907E397FFFE03178100B3070F01DF
:1004D0006359E6022380770005080505850885062F
:1004E000E31A58F2130353067685E31DC3F1325421
:1004F000A25412598259724AE24A524BC24B456188
:10050000828023800700C9BF85675D719387577418
:100510005AD8330BF500B7570000A2C403A447D440
:10052000A6C25ED662D466D286C6CAC04EDE52DC91
:1005300056DA6AD06ECE93043506938B6506130C9B
:10054000E100854C1389D4F9138A24009389740639
:10055000DE8A8348290003482A0003C62900034392
:10056000090003450A00B387080183C50900B29753
:10057000B3876740898F8D8F13DEF74103C719005A
:10058000B347FE0083461900B387C7412314F10027
:10059000B387C500BA97958FB3876740B387174174
:1005A00013DEF741B347FE00B387C7412315F100BF
:1005B000B307B500BA97958FB3870741B387174143
:1005C00013DEF741B347FE00B387C7412316F1009E
:1005D000B307C800BA97958F898FB387674013DE3A
:1005E000F741B347FE00B387C7412317F1003C0032
:1005F000039E2700831E810063D4CE012314C10112
:100600008907E317FCFE338D68002A9D429D2E9DCD
:10061000329D369D3A9D03471A00031581003A9D8D
:10062000420D135D0D412317A101EF30500EAA8D2D
:100630006A85EF30D00DA285EF20106AAA856E85FD
:10064000EF30A014635FA00223809A010509050A18
:100650008509850AE39F24EF93845406938B5B06F8
:10066000E3129BEEB640264496440649F259625A7C
:10067000D25A425BB25B225C925C025DF24D6161D8
:10068000828023800A00D9B7011126CA06CE22CC67
:10069000B70400203DE91385040AB536131405019B
:1006A0004180B755000022869385C5D30A85EF3077
:1006B000503DC166938606800A86A1457D47214547
:1006C000EF10A034372600208565814613068691F9
:1006D0009384040A130850069385C57A36878147A8
:1006E00033059700034505008507B308C700333578
:1006F000A400C2072380A800C1830507E39207FF77
:1007000093865606E39CB6FCB1A885476310F504B2
:1007100085671387040A9387C77ABA97014413063B
:1007200050068146B305D70083C5050085062E9483
:10073000E39AC6FE13075706E395E7FE856793879E
:10074000C77A3354F4025104420499BF8947B7254C
:100750000020631EF500130600059385859113851F
:10076000040AB539F2406244D244056182808D4763
:100770006318F500938585911385040A7133DDB7FD
:10078000014405B74111054506C622C4EF00D05902
:100790007D45EF10600913052003753A0145238854
:1007A0000180DD35930650061306C00381453545AB
:1007B000EF10604989450145A12CCDB70965EF10BF
:1007C000903A85476316F5000965EF10D03B8D3AE6
:1007D000730020300545EF10F04301C50545EF10CB
:1007E0005045730020300945EF103042730020302F
:1007F0001145EF10304219C51145EF10904389455E
:1008000005453924730020304145EF101040A3887E
:1008100001802389018023880180730020302145D5
:10082000EF10B03E83C511813E8613F7150039E7FE
:1008300083C7218113035006B70800203383670262
:100840008146B71E01409388080A130E500603A87C
:100850008E003385660046951358880023000501F5
:100860008506E396C6FF8507A389D18093F7F70F26
:100870009306C00363ECF6002389F1808505A38805
:10088000B180054589456922730020302389D180D4
:1008900005472388E180DDB713050002EF1090378C
:1008A00009C513050002EF10D0387300203005652C
:1008B000EF10503619C50565EF10B037894505456D
:1008C000812A73002030797126D29354450022D4B6
:1008D0004AD04ECE52CC06D693F7F40F2A842E89F6
:1008E000B289368AADE785451145EF10505D3D88E8
:1008F00085473394870042044180231281006319A5
:10090000F90093170A01C183A18391E38D473EC487
:1009100093F4F40F9567938787D48A04BE94844038
:10092000137AFA0F4C00268552C6EF1030318547F6
:100930006317F9004E86A2852685EF10103EB2504F
:10094000225492540259F249624A45618280054715
:100950006395E7008545214549BF09476395E70051
:100960008545414559B70D476396E7008545130511
:100970000002A5BF11476396E700854513050004F3
:10098000ADB715476396E700854513050008B1BF6D
:100990001947E39EE7F4854513050010B9B74111E7
:1009A00093068004054681451305100206C6213FC3
:1009B00093068004054681451305200229379306D6
:1009C00080040546814513053002F53D93068004F9
:1009D000054681455545C53D93068004054681453C
:1009E0005145D535B24093068004054681454D45B5
:1009F0004101D1BD4111C14605468545694506C63F
:100A0000D935B240C146054685450D45410165BD14
:100A1000914763EBA71E9567938787D50A053E9597
:100A20001C41411106C622C4828799E9371501404D
:100A3000A145130505802244B24041016F10B02D3D
:100A40008547639CF50037150140A14513050580D6
:100A50002244B24041016F10D02B89476392F51AAE
:100A600037150140A14513050580EF10F0295DFD04
:100A7000D9BF81E93715014093050040130505C032
:100A80005DBF85476399F500371501409305004028
:100A9000130505C075BF89476394F51637150140E6
:100AA00093050040130505C0EF10102661F5E9BF5E
:100AB00081E9930500043715014013050540A5BFE2
:100AC00085476399F5009305000437150140130528
:100AD0000540BDBF89476395F51237150140930561
:100AE000000413050540EF10302261F5E9BF81E5F0
:100AF00093050008C9B785476395F500930500087D
:100B0000E9B78947639EF50E371501409305000844
:100B100013050540EF10501F61FDCDB78DE9371467
:100B20000140A14513050480EF10F01E930500401D
:100B3000130504C0EF10301E930500041305044094
:100B4000EF10701D9305000813050440EDB58547AF
:100B5000639AF50237140140A14513050480EF1094
:100B6000501B93050040130504C0EF10901A930525
:100B7000000413050440EF10D01993050008130575
:100B80000440F9B58947639DF50637140140A14536
:100B900013050480EF105017A14521C513050480EB
:100BA000EF1070173714014093050040130504C07F
:100BB000EF1090159305004015C9130504C0EF1000
:100BC0009015371401409305000413050440EF10FD
:100BD000B0139305000405C113050440EF10B013D2
:100BE00025B713050480EF10D0126DBF130504C0A4
:100BF000EF103012F9B713050440EF10901129B728
:100C0000B2402244410182808280411185452145C4
:100C100006C6EF10D02AB73500209307001023989E
:100C2000F5180D4793870519D8C3B240414798C7B7
:100C30003715014093850519130505C041016F1053
:100C4000E07F41118545214506C6EF105027B73595
:100C50000020930700202398F5180D479387051966
:100C6000D8C3B240414798C737150140938505194D
:100C7000130505C041016F10607C41118545214578
:100C800006C6EF10D023B735002093070020239825
:100C9000F5180D4793870519D8C3B2401307800490
:100CA00098C73715014093850519130505C0410103
:100CB0006F10C07801118545214506CE22CCEF107A
:100CC000102093070030371401402312F1008D47A4
:100CD0003EC44C00C147130504C03EC6EF10007669
:100CE000130504C093050010EF10B002130504C0F3
:100CF00093050020EF10F001F2406244056182800C
:100D00009307C0120100FD17F5FF8280411106C64E
:100D100022C4E53D371401402D37DD37130504C0EB
:100D200093050020EF10E07E130504C0930500102A
:100D3000EF10207EF137130504C093050020EF105B
:100D4000807D7D3F130504C093050010EF10A07C4B
:100D50002244B24041016DB7411106C622C4753527
:100D600037140140F93D693F130504C09305002085
:100D7000EF10607A7137130504C093050010EF106F
:100D80004079BD3F130504C093050020EF10607843
:100D90002244B2404101ADB7011122CC37140140C9
:100DA00026CA4AC84EC606CE2A89A144593D93098F
:100DB00004C093178901E187930500204E8563DD08
:100DC0000706EF1000752D3F930500104E85EF10BC
:100DD0004074FD143537930500104E85060993F4D1
:100DE000F40FEF1040731379F90F193FF9F0130561
:100DF00004C093050020EF10C07141351137130571
:100E000004C093050010EF10C070DD3D9305002075
:100E1000130504C0EF10A06EAA84930500101305FB
:100E200004C0EF10406FE93DF2406244268542491C
:100E3000D244B24905618280EF10E06D69B77971E3
:100E40004ECEB719014006D626D24AD022D4A144AC
:100E50006D3B138909C01535930500104A85EF10C5
:100E6000806B793D930500104A85EF10806A493DFB
:100E70000344F100930500204A85EF104068137485
:100E8000F40F06040589498C1374F40FFD14A307AD
:100E9000810093F4F40FE9F0138509C09305001065
:100EA000EF106067793BA93DB25022540345F10031
:100EB00092540259F24945618280797122D426D236
:100EC0004AD04ECE52CC56CA06D62A8AAE8A9359FA
:100ED00086000D4405499374F60F0D3D52856D3D16
:100EE000631F25017D141374F40F65F8B25022546A
:100EF00092540259F249624AD24A4561828056852B
:100F0000613DE30125FF4E85413D268571352AC6A9
:100F1000E30A25FD9135324571F5C9BF411106C679
:100F20001307800C6364A71013075009AA87637125
:100F3000A704EF204053B757000003A687DB83A622
:100F4000C7DBEF20C006B757000003A607DC83A667
:100F500047DCEF10D012EF30C014EF20F075B24034
:100F600013160501418299451305800B4101B1B764
:100F7000130740066373A702EF20E04EB757000047
:100F800003A687DC83A6C7DCEF206002B75700000A
:100F900003A607DD83A647DD6DBF130760046373F7
:100FA000A702EF20404CB757000003A687DD83A6B9
:100FB000C7DDEF10D07FB757000003A607DE83A67A
:100FC00047DE41BF130720036373A702EF20A04948
:100FD000B757000003A687DE83A6C7DEEF10307D7B
:100FE000B757000003A607DF83A647DF9DB7514729
:100FF0006373A702EF202047B757000003A687DFDF
:1010000083A6C7DFEF10B07AB757000003A607E04A
:1010100083A647E03DBF130550F6B387A7020565D9
:101020001305651C3E95EF20906E05BFB757000075
:1010300003A547DB1DB72E86AA851305800BB5BD1A
:10104000411126C206C622C4931725001307001EAD
:10105000AE846345F7041394070141808945939753
:1010600024001307002F6346F70493940701C180FF
:1010700093E5850093E505033545753FA685114544
:101080005D3FA2850D45453F854505456D372244A9
:10109000B240924491450945410171BF9317150033
:1010A0002A848145E34DF7FA139407014180854571
:1010B0007DB793971400E34FF7FA93940701C1802B
:1010C00093E5450045BF0111060506CE22CC26CA90
:1010D0004AC82EC632899374F50F0D3926856D39AD
:1010E000B2452A842E854D392A940D31138514007A
:1010F0001375F50F55311374F40F2A9489332310A7
:10110000A900B7140140EFF05FB0EFF09FB3138573
:1011100004C093050010EF100040138504C0930530
:101120000020EF10403FE93E138504C093050010F6
:10113000EF10203EF13693050010138504C0EF1028
:10114000803D7D3E835709001374F40FA2072310DE
:10115000F900F531835709003E952310A900EFF0FF
:10116000DFAAEFF01FAE138504C093050010EF1047
:10117000803A7936138504C093050020EF1060395A
:101180004136138504C093050010EF1080388D3E62
:10119000138504C093050010EF10E03795366D3EBF
:1011A0002285F2406244D2444249056182800111A5
:1011B00022CC1306E1002A849305F00A1305800B64
:1011C00006CE2317010001370356E10039C4136628
:1011D00036009305F00A1305800BC5311306A00FE6
:1011E0009305D00A1305800BC93905469305C00A3B
:1011F0001305800BD93151469305B00A1305800BB6
:101200006D391966130606829305000B1305800BD2
:101210006D31F240624405618280719A9305F00A53
:101220001305800B593979469305B00A1305800BD5
:10123000693113066009AD45D1BF011126CA06CE3A
:1012400022CCAA8423170100EFF0DFA61306E100E9
:1012500081451305C005853D631C05100357E1005A
:10126000856793874732630EF700C16637560000E3
:101270007D47938606801306C6D6A545EF00A07D60
:1012800001A0416437560000930604807D47130691
:1012900006D8A545EF00207C9305C00B13058007F9
:1012A00045332685A5390545193711469305C002F2
:1012B0001305800B1931130600089305200C130544
:1012C000800BEFF09FBF13063030F1451305800B04
:1012D000EFF0BFBE0D661306E6D2CD451305800BB9
:1012E000EFF0BFBD1306701C930500021305800BC1
:1012F000EFF0BFBC4146930540021305800BEFF0B1
:10130000DFBB0D469305B0021305800BEFF0FFBA6B
:101310000D469305F0021305800BEFF01FBA6946E6
:10132000930520031305800BEFF03FB9130630102F
:10133000BD451305800BEFF05FB81306200393053E
:10134000500A1305800BEFF05FB737560000930685
:1013500004807D47130606D9AD450145EF00A06F17
:101360001305800C5128F2406244D244056182800A
:10137000C166375600007D4793860680130606DA5D
:10138000A9450145EF00206D01A0B707002083A704
:10139000070737177A0013070720B3D7E7021307A9
:1013A000803E93F7F70FB387E702239AF180B7F7F0
:1013B00000E023820700A382070023830700A383A2
:1013C0000700054798C38280B7F700E023A0070015
:1013D00003D7418123820700A382070023830700EC
:1013E0003305A702A3830700054798C337F700E03A
:1013F0005C43E37FF5FE8280C1BF01112304A1009D
:10140000280006CEA304B1002305C10036C6EF10A4
:101410008014F240056182804111C167116702C6E4
:10142000FD17130777A97D15420541816314F50067
:101430004101828002C6B246E367D7FE0100B24690
:10144000850636C6CDBFFD577D156313F500828036
:101450000100DDBF411122C4371401404AC0856537
:101460002A89130504C026C206C6A144EF10A00AAB
:10147000130404C089652285EF10E0090545E137B2
:1014800093178901E1879165228563D70702EF10E1
:10149000400889652285EF10C007FD14054506093F
:1014A00093F4F40F4D371379F90FE9F4B240224465
:1014B0009244024941018280EF10E005D9BF4111F9
:1014C00022C4371401404AC085652A89130504C027
:1014D00026C206C6A144EF10C003130404C08965E8
:1014E0002285EF1040030545B93F93178901E18735
:1014F0009165228563D70702EF10A00189652285D7
:10150000EF102001FD140545060993F4F40F253F63
:101510001379F90FE9F4B24022449244024941019F
:101520008280EF00507FD9BF01114AC885452A89C2
:10153000214506CE22CC26CAEF1060189307008002
:10154000371401402312F1008D473EC44C00C147BF
:10155000130504C03EC68564EF00506E9385048079
:10156000130504C0EF00307B130520037535938508
:101570000480130504C0EF00D07913052003693DF2
:101580004545C93D2945493D1305A003E1351305EE
:101590005005353713056002753D11450D371305AC
:1015A000200F4D3D0545213F1305000E6535130500
:1015B000F003313713055002193771450937794562
:1015C000FD3D13050002E53D4945D53D1305A0024B
:1015D000FD3513050009E53513054002CD354545B8
:1015E000F93D0145E93D0145D93D0145C93D01456B
:1015F000F9350145E9351305100EA93D1305000223
:101600007D3D13050002653D130500024D3D1305A8
:101610000002753515456535014555355545453546
:101620001305700A693D1305D003513D6145413DE5
:101630001305500269351305A00251351305B00298
:10164000BD3D1305B002A53D1305A0038D3D130557
:10165000100B09350145A535014595351305400B9E
:10166000D53B1D45A93D1305000CED332945813DB2
:101670000945B1351305100CF13B094589351305B2
:10168000500CC93B1305F0041D3D1305A005053D95
:101690001305700CC1331305000415351305A002A2
:1016A000553B0145293D0145193D0145093D1305BE
:1016B000800A31351305B002713B014509350145FA
:1016C000FD3B0145ED3B1305300BD53B1305600396
:1016D00051331305000C631409001305000AC533C8
:1016E0001305700B853B0145D93B130590029D33D3
:1016F0001305C0028533F2406244D2444249056179
:101700008280411122C4371401404AC085652A896C
:10171000130504C026C206C6C144EF00905F13043F
:1017200004C089652285EF00105F0545EFF0BFD149
:1017300093170901C1879165228563D90702EF00DC
:10174000505D89652285EF00D05C0609FD140545D2
:10175000420993F4F40FEFF01FCF13590901F1F090
:10176000B24022449244024941018280EF00B05AC3
:10177000C9BF011122CC2A841305A00206CE36C2AD
:101780002EC632C4EFF01FCD0145EFF05FD32285A6
:10179000EFF0FFD20145EFF09FD222463285EFF005
:1017A0001FD21305B002EFF0FFCA0145EFF03FD1A1
:1017B000B2452E85EFF0BFD00145EFF05FD09246E5
:1017C0003685EFF0DFCF6244F2401305C0020561B9
:1017D0006FF05FC841111305A00206C6EFF09FC766
:1017E0000145EFF0DFCD0145EFF07FCD0145EFF092
:1017F0001FCD1305800AEFF09FCC1305B002EFF068
:101800007FC50145EFF0BFCB0145EFF05FCB014550
:10181000EFF0FFCA1305300BEFF07FCAB24013059B
:10182000C00241016FF01FC3411126C24AC006C663
:1018300022C42A899304200A713F130440084A8570
:101840007D14EFF01FEC65FCFD14E5F8B240224476
:10185000924402494101828099473305F5028E0581
:10186000797193F5F50F26D24ECEB284B689938660
:10187000750093F6F60F1375F50F130655001376E2
:10188000F60F4AD052CC5EC662C406D622D456CADF
:101890005AC83A8AEFF0FFED9947B387F40295648E
:1018A0009384843F0149854B214CBE94339B2B018B
:1018B000A68A194483C70AF44E85B3F7670191E3FA
:1018C00052857D141374F40FEFF0BFE3850A7DF0A9
:1018D0000509E31D89FDB250225492540259F24980
:1018E000624AD24A424BB24B224C456182800E057D
:1018F0008E0579711375F50F93F5F50F22D452CC3F
:101900003284368A130675009386750093F6F60FB7
:101910001376F60F4AD04ECE5AC85EC606D626D2E9
:1019200056CA62C4BA89EFF0DFE49947B307F402FC
:1019300015641304843F0149854B214B3E944E8529
:10194000EFF03FDC339C2B01A28A994483C70AF451
:101950005285B3F7870191E34E85FD1493F4F40F9C
:10196000EFF03FDA850AFDF04E850509EFF07FD9EB
:10197000E31769FDB250225492540259F249624A67
:10198000D24A424BB24B224C456182800E059205F1
:1019900001111375F50F93F5F50F22CC4EC6328465
:1019A000B689130675009386F50093F6F60F137645
:1019B000F60F26CA52C456C206CE4AC83A8AEFF07B
:1019C0005FDB931744001564130484E03E94C14424
:1019D000A14A0149834704E04E85B3D72741858B4F
:1019E00091E352850509EFF0DFD1E31559FFFD14AE
:1019F00093F4F40F0504F1FCF2406244D2444249EE
:101A0000B249224A924A056182800111118D22CC8D
:101A100026CA4AC84EC652C406CE2E89B6893A8A0C
:101A200032849374F50F0306040033059400137594
:101A3000F50F09EAF2406244D2444249B249224ACF
:101A4000056182805287CE861376F60FCA8505041B
:101A5000EFF09FE0C9BF0111118D22CC26CA4AC800
:101A60004EC652C406CE2E89B6893A8A3284937401
:101A7000F50F03060400330594001375F50F09EA0A
:101A8000F2406244D2444249B249224A056182800E
:101A90005287CE861376F60FCA850504EFF03FE530
:101AA000C9BF0111118D22CC26CA4AC84EC652C4E4
:101AB00006CE2E89B6893A8A32849374F50F0306CE
:101AC0000400330594001375F50F09EAF2406244EF
:101AD000D2444249B249224A056182805287CE8669
:101AE0001376F60FCA850504EFF05FEAC9BF5D7192
:101AF00092054EDE93F9F50F52DC56DA5AD8138A66
:101B0000F900A96A296BA6C2CAC066D26AD06ECE95
:101B100086C6A2C45ED662D42A8932C436C6BA8CBE
:101B2000137AFA0F8144938A8A2F130B8B9D130D1E
:101B30000008A14DA2473387970083470700CDE3F4
:101B4000B640264496440649F259625AD25A425B3C
:101B5000B25B225C925C025DF24D61618280639EA9
:101B6000F60403461600834617006318D6041315BF
:101B700049001375F50F1306F500D2861376F60F9C
:101B8000CE851204EFF0FFBE5A94130C0002814B75
:101B90008346040033567D416685F18E91C23245FD
:101BA000850BEFF01FB6E395BBFF9307FCFF13FC1B
:101BB000F70F0504E31D0CFC29A809041374F40FA6
:101BC00033868A008346060093958601E185E3C843
:101BD00005F8050989041379F90F93F4F40F99BFF7
:101BE0000144F9BF411126C2B2847D164AC02A962B
:101BF0003689AE9693F6F60F1376F60F22C406C614
:101C00003A84B3842403EFF0DFB6014963982401DA
:101C1000B2402244924402494101828003450400BB
:101C200083471400050922053E9542054181EFF0E6
:101C30005FAD0904E1BF156713078765930660036D
:101C40001306000A45B7011156C2B68A52C493065C
:101C5000F6FF328A1386FAFFAE962A9626CA4EC639
:101C600093F6F60F1376F60FB7240020C16922CC45
:101C700006CE4AC893848491EFF0BFAF0144FD19AA
:101C800063064403014919A8B387240183C70700E9
:101C90004E8591E30145EFF0DFA60509E31659FFF4
:101CA00005041374F40F93845406D9BFF2406244C0
:101CB000D2444249B249224A924A05618280411186
:101CC00022C6373401408545130504C0EF00F022D9
:101CD00011C98545130504C0EF00F023894505456A
:101CE000EFE01FD33244410173002030411122C67E
:101CF000374400409305000213050440EF0090367E
:101D00001DC99305000213050440EF00703613054A
:101D10000440EF009034B73700201375F50F23808F
:101D2000A71A9307A00A631CF50083C7E18195EB0E
:101D30008547238FF180324441017300203093079F
:101D4000F5FF93F7F70F8D4663EDF60083C6E1814B
:101D500085476398F600B7370020A380A71A894704
:101D6000C9BF83C7E181894863981701B73700204D
:101D7000238EA7188D4775BF0D4E6398C701B737DF
:101D80000020A38EA71891476DB711436398670091
:101D9000B7370020238FA718954761BF95466398F2
:101DA000D700B7370020A38FA718994759B799468E
:101DB0006394D704B7350020B737002003C8C5198E
:101DC00003C6171A9385C51983C7150083CE25004E
:101DD000B306C8009386A6FA83C53500BE96F6966C
:101DE000AE9693F6F60F6319D5006308160363E801
:101DF000C8008546630ED600238F01802DBF630384
:101E0000C603E31B66FEA207C297239EF180EDB7CF
:101E1000A207C297239BF180C5B7A207C297239D53
:101E2000F180D9BFA207C297239CF180F1B741117D
:101E300022C406C62E840DE1ED46014685452545A2
:101E4000EFE07FA831E891460146814529452244CB
:101E5000B24041016FE03FA705476317E500ED463B
:101E6000014685455945E9BF09476316E500ED463A
:101E700001468545F1B70D476317E500ED4601467C
:101E80008545694575BF1147E31EE5FACD46014614
:101E900085451305A0026DB785476317F400914689
:101EA000014681455D4565B789476317F400914652
:101EB000014681450D4561BF8D476317F40091468A
:101EC000014681456D4561B791476318F40091461D
:101ED000014681451305B0029DBFB2402244410135
:101EE000828001112EC605469305505222CC06CEA3
:101EF0002A84EF009012B747014093870780B246CB
:101F0000631BF40001468145130550036244F2400F
:101F100005616FF08FCEB747004093870740631786
:101F2000F4000146814513056003CDB7B757004063
:101F3000938707806317F4000146814513057003FA
:101F4000F1B7F2406244056182807971B747014080
:101F500022D426D24AD04ECE06D6938707802A8432
:101F6000AE843289B6896313F50485451165812FE6
:101F7000CE854A85EFF0BFEBB7070C00228585457B
:101F80003EC426C002C223160100EFF09FF58A85E9
:101F90002285EF00207922858545EF005006B2505A
:101FA000225492540259F24945618280B747004059
:101FB000938707406317F500854537050200392FE1
:101FC00045BFB757004093870780E313F5FA85456F
:101FD00037050400EDB7C2054111C18122C406C610
:101FE0002A84EF00F006930500042285EF00900795
:101FF0007DD9B240224441018280411122C637443A
:1020000001409305000213050480EF00B0050DC1E7
:102010009305000213050480EF009005130504806A
:10202000EF00B00393158501E18513050480653742
:102030003244410173002030411122C63754004020
:102040009305000213050480EF00D00115C193052C
:10205000000213050480EF00B00113050480EF00B7
:10206000C07F93158501E18513050480EFF0BFF66D
:102070003244410173002030411122C426C206C6F9
:10208000AA842E848305040091E5B2402244924440
:102090004101828026850504EFF0FFF3E5B7411189
:1020A000094506C622C426C26521EFF00FAEEFE057
:1020B0007F94EFE0DF8E0145EFF00FC77D45EFF035
:1020C000AFF6930550020145EFF0FFB6416437A625
:1020D00000009306048001471306C6388145014578
:1020E000EFF0FFA037A6000001479306F4FF1306A8
:1020F000063A85450145EFF0DF9A0145EFF0CFF252
:102100007164B7440140814601469305042013855C
:102110000480EFF09FE3B7A500009385053B13858E
:102120000480EFF07FF59305042037440040894692
:10213000094613050440EFF05FE1B7A50000938561
:10214000453C13050440EFF03FF3EFE0AFE301A09F
:102150007300203001A097E1FF1F9381A171173117
:102160000020130121EA178500001305E55097E5CB
:10217000FF1F938525E91386018163FAC500832239
:10218000050023A0550011059105E3EAC5FE13855E
:10219000018197150020938565016377B5002320A1
:1021A00005001105E36DB5FE9302800873A00230AF
:1021B00097E2FFFF938282E893E21200739052301D
:1021C000EF004001970200009382A2ED7390123459
:1021D00073002030B71702409843B706FFF841114B
:1021E0001367170098C3D843758FD8C39843B706B1
:1021F000F7FEFD16758F98C39843B706FCFFFD16D2
:10220000758F98C3D843B70681FFFD16758FD8C365
:1022100037079F0098C783C7418002C402C61307CF
:102220008004B7061C006388E70413070005B7069F
:1022300020006382E70413078005B7062400638C3F
:10224000E70213070006B70628006386E7021307B4
:102250008006B7062C006380E70213070007B70665
:102260003000638AE70013078007B70634006384F1
:10227000E700B7062400371602401842C16537054B
:1022800002004D8F18C2B715024013060050984146
:10229000698F3AC6224705073AC4324701E7224709
:1022A000E317C7FE3717024018431316E7006356BB
:1022B000060A05473AC6324605476314E60837273B
:1022C000024010431366060110C31043719A10C3F5
:1022D00010431366260010C337170240504350C303
:1022E00013068005637DF606504389654D8E50C305
:1022F00050431366064050C3371702405043B7059A
:10230000C1FFFD156D8E50C35043D18E4166D18EF5
:1023100054C3144337060001D18E14C314431396DB
:102320006600E35D06FE544337160240F19A54C33B
:10233000544393E6260054C3A1465842318BE31E12
:10234000D7FE37470F0013070724B387E702370785
:1023500000202328F7064101828002C6A9BF50430E
:1023600050C3504349BF9317350063DA0700B707DE
:10237000024083A707407D8D3335A0008280B707D8
:1023800002409C43CDBF9317350063D70700B707C2
:10239000024023A2A7408280B7070240C8C38280C0
:1023A0005841032805004C45370601409307064075
:1023B0003E979346F8FFB1C583250640F58D23204F
:1023C000B640D043F18ED4C31443B3E6060114C320
:1023D000184190479346F7FF758E90C7D047F18E0E
:1023E000D4C7144541466399C6009447D98E94C713
:1023F000D447558FD8C78280B6979443558F98C3DA
:1024000082801C43F58F1CC38280B707014023AA3A
:10241000A7408280B70701401387074083A7074082
:10242000584B698F09C77D8D3335A00082800145E7
:102430008280B707014023AAA74082809C4513F7FA
:10244000070113F8F70001C7D8413368E80083D5C6
:10245000050013F7F50F39C318418146854E3D4FEE
:10246000930F800293028004214E3396DE00B3F86E
:10247000C500631116039398260033131F011343FD
:10248000F3FF3377E300B318180133E7E800639FE5
:10249000F70550C98506E39AC6FD18C11307F00F6A
:1024A0006375B70454412146854E3D4F930F80021A
:1024B00093028004414EB398CE0033F71501639226
:1024C000E8021317260001173313EF001343F3FF3D
:1024D000B376D3003317E800D98E639DF701232A22
:1024E00015010506E319C6FD54C18280E39457FA2D
:1024F00010C94DB7E39757FE23281501DDB70845EE
:102500006D8D3335A000828048456D8D3335A00038
:1025100082800CC982804CC9828019C20CC9828019
:102520004CC9828013F7C50F93F73500B7050140FA
:10253000BA9594458A073D473317F7001347F7FFCD
:10254000758F98C598453315F500598D88C58280DB
:1025500023A0A182828093870182944303470500D0
:1025600089E683472500920731A894430546639185
:10257000C604834725000346150092076314D6005E
:1025800093E707F8B7E600E093F7F70FBA962380D2
:10259000F6408546935757003397E6005441ADC641
:1025A000938707048A07B7E600E0B69798C382804E
:1025B0008C4389466393D5028346150083472500E3
:1025C0006365D6008A06B69779BF9386E6038A06C6
:1025D000B69793F7F70F920765B790438D46631E42
:1025E000D60083461500834725006364D60086061F
:1025F000D9BF9386C6078606E1BF94439147E39A05
:10260000F6F88347150085B79387070661BF37172C
:1026100002405C439146B18B6385D700A146638637
:10262000D706B7177A00938707201CC137160240D8
:102630005C4237070020130707009183BD8BBA97D0
:1026400083C607001C41B3D7D7005CC15442A182A6
:102650009D8ABA9683C60600B3D6D70014C55442E5
:10266000AD829D8A369703470700B3D7E7005CC564
:102670005842398393763700138781803697034712
:102680000700B3D7E7021CC982805C435443C98367
:10269000BD8B1396F60089076349060037173D0086
:1026A00013070790B387E70249B758439316E7002B
:1026B000E3C606FE37177A0013070720E5B799C56A
:1026C000371702401C4F5D8D08CF8280B71702403C
:1026D000984F1345F5FF798D88CF828099C53717BC
:1026E00002405C4F5D8D48CF8280B7170240D84FC3
:1026F0001345F5FF798DC8CF8280835705010355B7
:10270000C500ED8F4205418189C76D8D3335A0002D
:1027100082800145828093C5F5FFC205C1812318DF
:10272000B500828083560501F577FD17F58F83D6B6
:102730006500397122DC06DED58F03D7C50023186A
:10274000F5008356C500FD779387379FF58F83D6B5
:1027500045002A842EC6D58F83D68500D58F83D693
:10276000A500D58F2316F50083574501C207C18305
:1027700093F7F7CFD98F231AF5006808EFF03FE9F8
:10278000B747014093870780B245631EF404A25700
:102790008356C4006547B387E702C206C1869841E5
:1027A00063D5060406070356C4004206B3D7E70202
:1027B000130740064186B3D6E702B3F7E702920655
:1027C000635706028E0793872703B3D7E70213F7F1
:1027D0007700B367D700C207C1832314F400F25017
:1027E000625421618280925765B70A076DBF9207D4
:1027F00093872703B3D7E702BD8BD58FE9BF81C984
:102800008357C5000967D98F2316F50082800357C7
:10281000C500F977FD17F98FC5BF13F7F50F854789
:102820001583B395B7006319F7009307C500984364
:1028300001CED98D8CC38280894693074501E31868
:10284000D7FE93070501E5B793C5F5FFF98DDDB711
:1028500093F5F51F2312B5008280035545001375CB
:10286000F51F8280035505006D8D3335A0008280F1
:1028700093C5F5FFC205C1812310B50082803708DA
:10288000100001117D183377B80026CA3378D800BC
:1028900093D4450113D34601131E37004EC6135778
:1028A000D5010E089357D60193F4F47F1373F37F89
:1028B00006CE22CC4AC893D9F50193DEF6013367E0
:1028C000C701131F350033E80701931F3600338E0D
:1028D00064406380D9196356C0136304031CB706B0
:1028E00080009307F07F3368D800638FF436930736
:1028F000800363C0C735FD4763CDC747130500029A
:102900003305C541B3D7CF01B316A8003399AF0043
:10291000DD8E33392001B357C80133E926011D8FFD
:1029200033092F41B3372F013306F7409317860041
:1029300063D40724370780007D173374E600630CE7
:10294000042C2285EF10900C130785FF93070002DB
:10295000998FB357F9003316E400D18F3319E9008A
:102960006341972A33059740130615007D47634D51
:10297000C73813070002118FB356C9003319E90095
:102980003397E700558F333920013369270133D658
:10299000C70081449377790081CF1377F90091477D
:1029A0006308F70013074900333927014A963A892B
:1029B0009317860063D6071C138514009307F07FD6
:1029C000CE856304F520B70780FFFD17F18F93983C
:1029D000D70113593900A607B3E82801B18313754D
:1029E000F57F9396C7005205F2406244B182FE051E
:1029F000C98ECD8ED2444249B2494685B68505611D
:102A00008280631E0E0A138314001373E37F63171F
:102A10000322B367E701B368F801639D041A638773
:102A20000740638608443309FF41B3070741333643
:102A30002F013386C7409317860063D6074C33892E
:102A4000EF41B307E84033B62F013386C740F6891C
:102A500091B76350C00F6300030CB7068000930763
:102A6000F07F3368D800638AF43A9307800363CB1E
:102A7000C713FD4763DFC73513090EFE9307000236
:102A8000B3562801630AFE00130900043309C94143
:102A900033192801B3EF2F013339F0013369D9001D
:102AA00031A2B367F801638A071C9307FEFF638CAA
:102AB00007389306F07F6309DE1A3E8E0DBDB3051D
:102AC000934063910422B367E701638707329387DA
:102AD000F5FF638107449306F07F638CD520BE85A4
:102AE0009307800363CCB72AFD4763CFB73C9307B6
:102AF00000028D8F3319F700B356BF00B317FF00E4
:102B00003369D900B337F0003357B7003369F900A0
:102B10003308E84041ACB367F8016380073493079A
:102B2000FEFF638A07209306F07F6308DE2E3E8E49
:102B30002DBF631E0E149386140093F7E67F6391F6
:102B40000734B367E7016395042C6380073EB367DE
:102B5000F801638E07303309FF01B3070701333FE4
:102B6000E9013386E7019317860063D70700B707AB
:102B700080FFFD177D8E854493777900E39F07E002
:102B80009317D60193583900B3E8F80093573600ED
:102B90001307F07F638DE404B207B18313F5F47F6C
:102BA000CE8581B53369F801333920017A99B3377D
:102BB000E9013386E70093178600E3DF07FA85040F
:102BC0009307F07F6396F418CE851305F07F814755
:102BD000814801BDC1EB6384083A93163600931710
:102BE000D8018D82B3E8D700F68993573800B3E750
:102BF000F800F9DB81451305F07FB707080081482D
:102C0000CDB3370680FF7D167D8E93777900998C42
:102C1000E39507D8B5B74A85EF10405F13078501E4
:102C2000FD47E3D5E7D2130685FFB317C900014975
:102C300005BB3369F80133392001DDB13309FF41A8
:102C40003306074133342F01330486409317840041
:102C500063CD0724B3688900E39308CE8147814997
:102C600081441DBFE39808F80E059317D7010D8125
:102C7000B3E8A700935737009DBF0E059317D70100
:102C80000D81B3E8A700F2849357370011B73305DD
:102C9000934063820412B70680009307F07F558F3C
:102CA000630DF32E9307800363CBA720FD4763C317
:102CB000A72A93070002898F3319F700B356AF0094
:102CC000B317FF003369D900B337F0003357A700BB
:102CD0003369F9003A987E99B337F90133860701D1
:102CE0009A84D1BDB70680009307F07F558FE31912
:102CF000F3DE931736008D839318D801B3E81701DC
:102D0000F68993573800E5B5130715FE93060002C0
:102D100033D7E700630AD600930600043386C64023
:102D20003396C7003369C900333920013369E9009C
:102D30000146814491B53309FF01B30707013336DA
:102D4000E9013E96931786008544E3D707E289445C
:102D5000B70780FFFD17F18F13571900137919007A
:102D6000336927019398F70133E9280113D6170037
:102D700015B113090EFE93070002B3562801630A2A
:102D8000FE00130900043309C94133192801B3EFC8
:102D90002F013339F0013369D90059B63369E7019E
:102DA0003339200133892F41B3B72F013306F8405F
:102DB0009A84F689A5BEB367E70163820718930773
:102DC000F5FF6384071C9306F07F6304D5123E85EC
:102DD000D1BD93070002B387C741B316F8003399FA
:102DE000FF0033D6CF01D18E33392001B357C8014C
:102DF00033E926013E975DBB931736008D83931808
:102E0000D801B3E81701AE8493573800F68949B367
:102E1000EDC33369F801E31F09DC0E059317D701F1
:102E20000D81B368F50093573700D1B36381080E65
:102E3000931636009317D8018D82B3E8D700F68930
:102E40009357380091BB3309FF41B3070741333F24
:102E50002F013386E7418544D1BC0E059317D70176
:102E60000D81B368F500F2849357370015B30E0552
:102E70009317D7010D81B3E8A7009357370029BBFB
:102E80009307F07FE382F6D43309FF013336E9017B
:102E9000B3070701B2979398F7011359190033E963
:102EA000280113D61700B684C1B93389EF4133071F
:102EB000E84033B62F013304C740F68949B433697B
:102EC000E7013339200101BD938705FE9306000217
:102ED000B357F700638AD50093060004B385B64064
:102EE0003317B700336FEF003339E0013369F9006E
:102EF00055BD931736008D839318D801B3E8170199
:102F000093573800EDB1B368C900E39708C681470D
:102F1000814959B13389EF41B307E84033B62F01F6
:102F20003386C740F689854411B49316360093174B
:102F3000D8018D82B3E8D70093573800B1B9931602
:102F400036009317D8018D82B3E8D700AA8493572F
:102F500038003DB9930705FE93060002B357F7000A
:102F6000630AD500930600043385A6403317A700F3
:102F7000336FEF003339E0013369F900A9BB8145B4
:102F80001305F07FB7070800A9BC3309FF01B30799
:102F900007013336F9013E9675B393163600931741
:102FA000D8018D82B3E8D7009357380089B13971C1
:102FB0004AD813D945014ED652D456D29399C5005A
:102FC00006DE22DC26DA5AD05ECE1379F97F2A8A11
:102FD00093D9C90093DAF501630D090E9307F07FC9
:102FE0006306F9181354D5018E09B3693401370407
:102FF000800033E4890093143500130919C0814916
:10300000814B13D74601139AC6001377F77FB28519
:10301000135ACA0013DBF601630B07109307F07F06
:103020006303F7049357D6010E0A33EA47011307E7
:1030300017C0B7078000B367FA00931536003A99B6
:10304000814833C76A01BD463A851308190063E811
:10305000361717760000130666388A09B29983A6D8
:103060000900B2968286B367CA001309F97F639993
:10307000071293E9290081458948E1B70147930781
:10308000F07F3704080081443204D20731807E0784
:103090005D8C598CA285F250625426854259D254D7
:1030A000B259225A925A025BF24B216182805A85B0
:1030B0003E84AE84C68B8947638DFB0E8D47E38FBC
:1030C000FBFA85472A87639EFB3881470144814488
:1030D00065BF33E4A90061C036C632C4638C092AD7
:1030E0004E85EF10A0122246B246AA87130755FF5D
:1030F0007544938487FF198CB399990033548A00DF
:1031000033643401B3149A0013D746011309D0C0B5
:10311000139AC6001377F77F3309F9408149814B31
:10312000B285135ACA0013DBF601E31907EEB36741
:10313000CA00B1C7630F0A22528532C4EF10000DD6
:1031400022462A87930655FFF547930587FF958FFB
:10315000331ABA00B357F600B3E74701B315B60008
:103160003309E9401309D9C08148E1BD33E4A9001E
:1031700001ECA14981441309F07F894B59B593E9CA
:1031800019008145854875BD4E84AA84B14913094B
:10319000F07F8D4BBDB5914981440149854B95B573
:1031A00093E93900D2878D4869BD89475685E397F1
:1031B000FBF02A879307F07F01448144F1B5C16E8B
:1031C0001386FEFF93D6040113DE0501F18CF18D09
:1031D000338695023383B6029358060133059E0267
:1031E0001A95AA98B382C60363F36800F692C16F7A
:1031F0001383FFFF33F5670093D30701B3F768002C
:10320000C207337366003E933306950293D80801D4
:10321000B387A602135F0601B3849302BE94FA94A7
:10322000B38E760263F3F400FE9E416A9307FAFFC1
:10323000935F0401B376F400B3F9F4007D8EC1808E
:103240003384D502C209338FD401B299CE98B30723
:10325000DE02935E0401B385BF02AE97BE9E330EBD
:10326000FE0363F3BE00529EC1679385F7FF33F6FA
:10327000BE006D8C4206229693DE0E01B305D50288
:10328000769E3385AF0213D40501B386D302AA9686
:10329000A296B38FF30363F3A600BE9F41657D152D
:1032A000B3F7A600C2076D8DAA97B3855800B3B9CE
:1032B0003501FA97B2953384370133B6C500B30EA2
:1032C000C4013385CE0033343401B3B7E701C18F75
:1032D00033BECE0113D406013336C5003E943366A7
:1032E000CE009394950032947E94B3E46400260457
:1032F00093567501B3349000DD8193179500CD8C02
:10330000558CDD8C9317740063DB070093D7140092
:1033100085889316F401DD8CD58C0580428993074E
:10332000F93F6359F00893F6740081CE93F6F400E8
:1033300011466388C60093864400B3B49600269471
:10334000B6849316740063D80600B70700FFFD1714
:103350007D8C930709409306E07F63CFF60E93D6EA
:1033600034009314D4012604D58C318093F7F77F71
:1033700021BB328532C4EF00706993065501F147D5
:10338000130705022246E3D1D7DC6115B317A60067
:103390008145F9B3EF00906713075501F145930795
:1033A00005022246B246E3D5E5D461153314AA00DE
:1033B000814499BB85469D8EB1E71309E941B397D6
:1033C0002401B3D4D40033192401B337F000B3641B
:1033D0009900DD8C93F77400B356D40081CF93F736
:1033E000F40011466388C70093874400B3B4970084
:1033F000A696BE849397860063D807048547014448
:10340000814459B113068003E341D6CC7D46E3568F
:10341000D6FA0556B307F640930500023356F4007A
:103420006387B6001309E943B3172401DD8CB33475
:103430009000D18C93F67400014499CA93F7F4007C
:1034400011468146E392C7FA139496003180F6063E
:103450008D80D58C81470DB99307F07F014481445D
:1034600025B142896DBD411106C622C426C20DCDCB
:103470009357F541B3C4A7009D8C2A842685EF009D
:10348000F0589306E041898EA9477D8093F6F67F38
:1034900063CDA7022D47098FB3D7E4005505B207C6
:1034A000B394A400B18329A001448146814781449B
:1034B000B207D206B1837E04D58FC18FB2402244B9
:1034C0002685BE859244410182805515B397A4009C
:1034D000B207B1838144E9BF3971935775014AD866
:1034E00056D25ECE931A95001359F50106DE22DC02
:1034F00026DA4ED652D45AD093F7F70F93DA9A00C1
:10350000CA8B638207121307F00F6384E7128E0AD7
:1035100037070004B3EAEA00138A17F80144014BA5
:1035200093D775019394950093F7F70FA58093D9DE
:10353000F501FDC71307F00F6387E7028E04938739
:1035400017F837070004D98C330AFA408146558CA6
:1035500017770000130787EC0A043A941C4033499C
:103560003901BA978287130A1AF0F9E88946558C0F
:1035700017770000130787EE0A043A941C4033497A
:103580003901BA97828701491307F00FB707400046
:1035900013959700F25062549317770125817E09A5
:1035A0005D8D33652501D2544259B259225A925A3F
:1035B000025BF24B216182801307F00F8147C9BF84
:1035C000A68ACE8B368B8947630BFB1A8D47E30C9B
:1035D000FBFA8547630AFB0A1307FA0713F91B0076
:1035E0006357E01293F77A0099C793F7FA00914670
:1035F0006383D700910A93974A0063D90700B707FE
:1036000000F8FD17B3FAFA0013070A089307E00F52
:10361000E3C4E7FA93976A00A5831377F70F8DBF8A
:10362000B9E48546A9B763940A021144014A054BDF
:10363000C5BD63990A002144130AF00F094BCDB5AB
:103640008D4631B73144130AF00F0D4BD1BD56856D
:103650002EC6EF00B03B9307B5FFB39AFA0093076D
:10366000A0F8338AA7400144014BB24555BD2685D9
:10367000EF00D0391307B5FFB307AA00B394E400F5
:10368000138A67078146E1B513F91B00014781479B
:1036900001B74166139554007D1693570501698E55
:1036A00063FA9A0AB3D5FA027D1AD686014733889F
:1036B000C502B3F6F602C206558F637B07012A974F
:1036C0009386F5FF6368A70A6376070BF9152A97B7
:1036D00033070741B356F7023377F702B38AC602BE
:1036E0009317070163FB5701AA971387F6FF63E15E
:1036F000A70863FF5707F916AA97C205B38A57416F
:10370000D58DB33A5001B3EA5501CA8BF1B5854660
:10371000998E11C76D4601478147E34BD6E6130AE0
:10372000EA09339A4A01B3D7DA00B33A4001B3E762
:10373000570113F7770019C713F7F7009146630392
:10374000D700910713975700634807029A07A5838C
:1037500001473DBD93D61A00B3D5F6021397FA017F
:1037600041833388C502B1B7CE8B368B814AA1BD68
:10377000BA8661B7B685A9BF0547814711BD13F960
:103780001B001307F00F814721B593567501B7074A
:103790008000FD1713D6750193F6F60F1308F00F8E
:1037A000B3F8A7001357F501ED8F1376F60FFD81DF
:1037B00063810603630C06018DE211E2B1C3638EDF
:1037C00008026305B70405451DE78280F5D77955E2
:1037D0008280E39E08FE6309D60211E2EDD7E3146E
:1037E000B7FEE342D6FE63C7C600E3EE17FD014510
:1037F000E3FDF8FC01E77D558280F5DD054582801B
:103800000145E39208FC8280F9DBD1B78146E1BF34
:1038100093567501B7078000FD1713D6750193F60F
:10382000F60F1308F00FB3F8A7001357F501ED8F4B
:103830001376F60FFD81638706036309060185EAA7
:1038400011EA89EB0145639B080082800945F5FF79
:10385000E5DA31A8638C08026300B704054575D723
:103860007D5582800945639808026304D60211E2FF
:10387000F5D7E315B7FEE343D6FE63C7C600E3EF13
:1038800017FD0145E3F3F8FC19E3D9BFF1D905456C
:103890008280E5D3828082808146C5B7797122D447
:1038A000135475014ECE52CC9319950006D626D2EC
:1038B0004AD056CA5AC81374F40F93D99900135AB0
:1038C000F50169C49307F00F6308F40E939739006C
:1038D00037070004B3E9E700130414F88144014BEF
:1038E00013D77501939A95001377F70F93DA9A001F
:1038F00013D9F50145CF9307F00F630CF7028E0A39
:10390000130717F8B7070004B3EAFA003A94014620
:1039100033452A01BD47AA869305140063E2971038
:1039200017770000130787B78A04BA949C40BA97A8
:1039300082871304F40F63980A0C93E42400094669
:10394000C1BF01451307F00FB7074000B250225422
:10395000A6075E07A5837E05D98F92540259F249C6
:10396000624AD24A424B5D8D45618280CA86D689C1
:10397000328B89476301FB0A8D47E304FBFC8547D3
:1039800036856312FB1A01478147C9B7639E090454
:1039900013D77501939A95001377F70F914401445B
:1039A000054B93DA9A0013D9F50131F7639D0A00AC
:1039B00093E414000546A9BF63930902A1441304CC
:1039C000F00F094B31BF5685EF0050049307B5FF48
:1039D000098CB39AFA001304A4F8014615BFB14448
:1039E0001304F00F0D4BEDBD4E852EC6EF001002F7
:1039F0009307B5FF1304A0F8B399F900098C81442B
:103A0000014BB245F1BD93E434000D4611B789472F
:103A1000D286E313FBF636851307F00F81473DB7D7
:103A200041639306F3FF13D6090193D80A01B3F754
:103A3000D900B3FADA0033885703B389F802135771
:103A40000801B30A5603D6994E97330616036373DB
:103A500057011A96C167FD17B376F7003378F8005F
:103A6000C206C2969399660093570701B339300195
:103A7000E982B2979A07B3E6D900B3E9D7009397E2
:103A8000490063D9070013D7190093F71900B369E8
:103A9000F7002E841307F4076350E00493F77900CE
:103AA00099C793F7F90091466383D70091099397DB
:103AB000490063D90700B70700F8FD17B3F9F9000B
:103AC000130704089307E00F63CBE704939769009B
:103AD000A5831377F70F9DBD8547B386E74011C7D0
:103AE0006D4601478147E343D6E61307E409339760
:103AF000E9003337E000B3D7D900D98F13F7770047
:103B000019C713F7F70091466303D700910713977E
:103B10005700634C07009A07A583014705BD1307AB
:103B2000F00F814725B52E84B5B70547814739BDCC
:103B30003707800041117D179356750113D8750121
:103B4000B377A70093F6F60F935EF5013376B700CF
:103B500026C24AC01378F80F06C622C41303F00F1A
:103B60003E8E3689F684139F3700FD81131536008B
:103B7000B38806416302681093C51500638CBE10BC
:103B80006354100D631008106304051EFD18B3077D
:103B9000AF40638608029307F00F6388F616ED477F
:103BA00063C7172913070002330717413317E500CE
:103BB000B35715013337E000D98FB307FF40139790
:103BC00057006351071A370400047D147D8C228549
:103BD000352D6D15B317A400634E251B3305254104
:103BE0001304150013070002018F3397E7003337E2
:103BF000E000B3D78700D98F014913F7770019C7C1
:103C000013F7F70091466303D70091071397570006
:103C1000635E0714930619001307F00F93FE140058
:103C20006386E6169A07A58393F6F60FA607B240B9
:103C3000224413D59700DE069397FE01558D9244DA
:103C400002495D8D410182806392080A1387160044
:103C50001377E70F631B07146394062263020F2098
:103C600071D5B307AF401397570063550722B307C9
:103C7000E5410149AE8451B7E30005F0638ABE0A0D
:103C8000E35410FD9307F00F6381F608B7070004B3
:103C90005D8D31B7635E1009630108089307F00F6B
:103CA0006385F606B70700045D8DED4763C0171FF7
:103CB00013070002330717413317E500B357150107
:103CC0003337E000D98FFA9713975700635C0708E2
:103CD00005091307F00F630BE90AB706007E13D737
:103CE0001700FD16858B758FD98F01BF3307D8401C
:103CF00063950610630D0F147D176303071A93076E
:103D0000F00F6314F810AE84328E630F0E06814EEE
:103D10009306F00FB707400011BF39C9FD18B3076C
:103D2000AF00E38308FA9307F00FE390F6F8F1BFD2
:103D300063990808138916001377E90F63160712B1
:103D4000639B061063030F16E30205EEB307AF0093
:103D500013975700014963570700370700FC7D1789
:103D6000F98F054913F77700E31C07E813DE3700E6
:103D70009307F00FE30BF9F893179E00A583937652
:103D8000F90F93FE14005DB593FE14009306F00F37
:103D9000814769BD370700FC7D17F98F13F777005E
:103DA0003309A940E31E07E4D1B73304AF409317AA
:103DB000540063C3070CE31C04E0814E8146814735
:103DC000B5B53307D840B5C69307F00FE30EF8F248
:103DD000B7070004336FFF00ED4763CDE70C93078F
:103DE0000002998FB317FF003357EF00B337F0008D
:103DF0005D8FB307A7004289C1BD9307F00FE304AD
:103E0000F8F0B7070004336FFF00ED4763C2E7081F
:103E100093070002998FB317FF003357EF00B337B2
:103E2000F000D98FB307F5404289AE8449BB85477E
:103E300069B3630E0F067D17B307AF004289E30530
:103E400007E89307F00FE319F8F8328E7DBD328E44
:103E50004289AE8431BFE3090FEAE30805EA45BDB4
:103E60000DCDAE8EB287D9B39307F00FE300F9F210
:103E7000B307AF008583FDB53304E541AE8481BB54
:103E8000E31D0FFCE30505E8AE84BDBD854725BDF8
:103E9000854749BF0149E39707EC814E814779B3D4
:103EA000B307E5414289AE8419BBB28741B3328E74
:103EB00042897DBD054735BF135775013706800020
:103EC0009307F6FF1377F70F9305E007B3F6A70004
:103ED0009357F501014563F4E50099C38280828020
:103EE0009307E0097D55E3EBE7FE93055009B3E73F
:103EF000C60063D7E5001307A7F63395E700828075
:103F0000130560093307E54033D5E700828041118E
:103F100006C622C426C20DCD9357F54133C4A7006F
:103F20001D8CAA842285DD249307E0093387A740EE
:103F300093076009FD8063CCE702A1469377F70FF2
:103F400063D5A60061153314A4002604258021A0A2
:103F5000814481470144260413559400B240224411
:103F6000DE07FE045D8D458D9244410182809307FA
:103F7000900963DDE7009307B5019546B317F40098
:103F8000898E3354D400B337F0005D8C954763D6E7
:103F9000A7009307B5FF3314F400B70600FCFD1625
:103FA000937774003376D40085C39377F4009145FA
:103FB000638CB70011069317560063D70700930769
:103FC000F009758E3387A740131466002580937718
:103FD000F70F51B7411106C622C415CD2A843D24DE
:103FE0009307E0093387A7409307600963C0E7049C
:103FF000A1469377F70F63D5A60061153314A4008B
:1040000026042580260413559400B2402244DE077E
:104010005D8D410182800144260413559400B24015
:1040200022448147DE075D8D41018280930790091C
:1040300063DDE7009307B5019546B317F400898E59
:10404000B337F0003354D4005D8C954763D6A70096
:104050009307B5FF3314F400B70600FCFD16937701
:1040600074003376D40085C39377F4009145638C54
:10407000B70011069317560063D707009307F0099E
:10408000758E3387A74013146600258026041355C8
:104090009400B24022449377F70FDE075D8D410113
:1040A000828093D645019397C50093F6F67FB1833E
:1040B000138616008E071357D5011376E67FFD8110
:1040C0005D8F9318350035CE138806C89307E00F2F
:1040D00063DD07018147139597009306F00FDE0615
:1040E0002581FE05558D4D8D82806355000B9317FC
:1040F00065000E07B337F000D98F93D8D801B3E726
:10410000170113F777006301071013F7F7009146C3
:104110006303D7009107370700047D8F75C7130726
:1041200018001306F00F9376F70FE305C7FA9A0706
:10413000A58313959700DE062581FE05558D4D8DCF
:104140008280B367170199EE85CF95479A07A583BB
:104150001395970093F6F60FDE062581FE05558D23
:104160004D8D8280A5DBB70740001395970093061D
:10417000F00FDE0681452581FE05558D4D8D82802F
:104180008147139597008146DE062581FE05558DF2
:104190004D8D8280A5576348F804F94737068000A3
:1041A000B38707417D45598E6351F504795733072D
:1041B0000741130500023357E6006388A700938682
:1041C00026CAB316D600B3E8D800B3371001D98F8A
:1041D00013F77700014815FB139757008546E3480E
:1041E00007F48146A5B781468DB7938626C83397D5
:1041F000D8003337E000B316D600B3D8F800B36761
:10420000D700B3E7F800E9B7C28689B7C167637E14
:10421000F5029307F00F1307000263ECA7009767FE
:1042200000009387A72BAA9703C507003305A74073
:1042300082802181976700009387472AAA9703C548
:10424000070061473305A7408280B7070001636E0E
:10425000F50061819767000093874728AA9703C5F7
:10426000070021473305A7408280418197670000FE
:104270009387C726AA9703C5070041473305A74080
:10428000828035713ECBB707008093C7F7FF3ECEE3
:104290003EC8C1779387872032C536C73AC942CD19
:1042A00046CF3ECA9387C1802AC42ACC88433401B2
:1042B0002E862C0086DE36C29D2CA2472380070066
:1042C000F6500D618280DDC183A7C5FF411122C474
:1042D00006C626C21384C5FF63D307003E94AA8492
:1042E000EF00301C938741829C4381EF232204001E
:1042F00023A281822244B2402685924441016F006C
:10430000701A637EF40014403307D4006396E7000C
:104310009843DC43369718C05CC0D9BFBA87D843EE
:1043200019C3E37DE4FE94433386D700631F860000
:104330001040B29694C33386D700E31DC7FA1043EA
:104340005843B29694C3D8C375B76375C400B147D8
:104350009CC04DB71040B306C4006316D700144389
:104360005843B29614C058C0C0C369B782800111C7
:1043700026CA93843500F19806CE22CC4AC84EC690
:10438000A104B14763F5F404B14463E4B4042A8999
:10439000EF0030119387418298433A8429E4938750
:1043A00081829C4399E781454A85EF00E07A23A406
:1043B000A182A6854A85EF00207AFD596319350749
:1043C000B1472320F9004A85EF00D00D29A0E3DE94
:1043D00004FAB1471CC10145F2406244D24442494B
:1043E000B249056182801C40858F63CF0702AD46CC
:1043F00063F6F6001CC03E9404C031A05C40631319
:10440000870223A2F1824A85EF00D0091305B40088
:104410009307440061993307F5405DDF3A94898F33
:104420001CC05DBF5CC3C5B72287404085BF130475
:1044300035007198E30285FCB305A4404A85292F15
:10444000E31C35FBB5BF01114AC803A9850022CC86
:1044500052C45AC006CE26CA4EC656C22E84328BCD
:10446000368A63ED260983D7C50013F7074849C785
:1044700004408C495848AA8AB389B4408D44B38417
:10448000E4020947B3C4E402138716004E9763F3AE
:10449000E400BA8493F70740C9C3A6855685EFF0B8
:1044A0001FED2A890DE5B14723A0FA008357C40008
:1044B0007D5593E707042316F400F2406244D2448A
:1044C0004249B249224A924A024B056182800C4815
:1044D0004E86C12D8357C40093F7F7B793E70708BB
:1044E0002316F4002328240144C84E99B384344190
:1044F0002320240104C4528963732A01528908408D
:104500004A86DA85912F1C440145B38727411CC494
:104510001C403E99232024014DB7268656856127ED
:104520002A8969F10C485685EFF0FFD9ADBF83D7D2
:10453000C500717126D34AD14ECF06D722D552CDB0
:1045400056CB5AC95EC762C566C393F70708AA89E6
:104550002E89B284B9C39C49A9E39305000436C6E9
:10456000EFF0FFE02320A9002328A900B24615E1BF
:10457000B14723A0F9007D55BA502A549A540A59DC
:10458000FA496A4ADA4A4A4BBA4B2A4C9A4C4D616C
:10459000828093070004232AF90093070002A30CEA
:1045A000F1029307000302DA230DF10236CE930BDA
:1045B0005002976A0000938A6A08054C294B2684AA
:1045C0008347040099C3639C7709B30C9440638EBE
:1045D0000C00E6862686CA854E85EFF0DFE6FD579D
:1045E0006301F51AD256E69636DA83470400638AE9
:1045F0000718FD579304140002D002D63ED202D40D
:10460000A301010682DC83C5040015465685AD2B47
:1046100013841400825731E513F7070109C7130704
:104620000002A301E10613F7870009C71307B002D0
:10463000A301E10683C604001307A002638BE60210
:10464000B25726848146254603470400930514008B
:10465000130707FD6374E6068DC63ED61DA005044C
:1046600085B7330555413315AC00C98F3ED0A284C0
:1046700059BF724793064700184336CE6349070275
:104680003AD6034704009307E002631FF704034789
:1046900014009307A002631BF702F2470904138773
:1046A00047009C433ACE63C107023ED235A8330788
:1046B000E04093E727003AD63ED0E1B7B3876703DF
:1046C00085462E84BA9749B7FD57C5B7050402D26F
:1046D00081468147254603470400930514001307CC
:1046E00007FD6376E606F1F2834504000D46176583
:1046F0000000130525F5492911CD97670000938720
:1047000067F41D8D93070004B397A70002550504B5
:104710005D8D2AD0834504001946176500001305F6
:10472000A5F293041400230CB102B92925C597C73B
:10473000FFFF9387278D95E70257F24713770710FE
:1047400009CF91073ECED257D2973EDA8DBDB387BF
:10475000670385462E84BA97BDBF9D07E19BA107DD
:10476000D5B7780897060000938626CE4A860C10A7
:104770004E8597000000E7000000FD572A8AE314E9
:10478000F5FC8357C9007D5593F70704E39607DED0
:104790005255DDB3780897060000938606CB4A860B
:1047A0000C104E85012AD1BF797156CA9C49BA8A2C
:1047B000984522D426D24ECE52CC06D64AD05AC8DC
:1047C0005EC6AA892E84B284368A63D3E700BA878C
:1047D0009CC00347340419C385079CC01C4093F751
:1047E000070281C79C4089079CC0032904001379F4
:1047F0006900631A0900130B9401FD5B5C44984047
:10480000998F634CF9041C408346340493F70702E4
:10481000B336D000A5EB13063404D2854E85829AB8
:10482000FD576303F5041C4011469840998B54448E
:1048300081446397C700B384E64063D30400814496
:104840001C4418486354F700998FBE9401496904C9
:104850007D5B63982405014509A885465A86D28563
:104860004E85829A631E75017D55B2502254925432
:104870000259F249624AD24A424BB24B45618280A8
:104880000509ADBF3307D40013060003A301C70415
:104890000347540493871600A2978906A381E7046F
:1048A0009DBF85462286D2854E85829AE30E65FBA2
:1048B000050945B7797122D426D24AD04ECE06D604
:1048C00052CC56CA5AC8B68983C685019307E006FA
:1048D0003289AA842E84138635046381F61E63E22E
:1048E000D706930730066382F60A63EDD700638B21
:1048F000061E930780056387F616930A2404230196
:10490000D40469A8930740066386F60093079006CF
:10491000E395F6FE1C40084393F60708930545000F
:10492000C1C21C410CC363D807001307D002B307F0
:10493000F040A301E40497660000938666D12947FE
:1049400065A0930730076383F61A63EFD7009307D8
:10495000F006638FF60493070007E390F6FA9C4194
:1049600093E707029CC109A8930750076382F604E6
:1049700093078007E393F6F893078007A302F404F4
:1049800097660000938606CEE5A01C43938A250413
:10499000938647009C4314C32381F5048547B5A241
:1049A00093F607041C410CC3BDDEC207C187A5BF37
:1049B0000C401C4313F805081385470063050800E5
:1049C00008C39C4339A093F5050408C3FDD983D7D8
:1049D00007001307F006638BE60C976600009386CA
:1049E00026C72947A30104044C400CC463C5050035
:1049F00008406D9908C099E3B28A91CDB28AB3F5A7
:104A0000E702FD1AB69583C505002380BA00B3D529
:104A1000E70263F3E70AA147631EF7001C40858B9A
:104A200091CB58401C4863C7E70093070003A38F4E
:104A3000FAFEFD1A3306564110C84E87CA8670002A
:104A4000A2852685EFF05FD67D5A6314450D7D550E
:104A5000B250225492540259F249624AD24A424B0D
:104A600045618280A382D50497660000938646BE86
:104A70000C40084313F805081C41110563000802A7
:104A800008C313F7150001C793E505020CC04147A1
:104A9000B1FB0C4093F5F5FD0CC0A9B713F8050464
:104AA00008C3E30008FEC207C183E1BF97660000A8
:104AB000938606BA21473DB7AE8791B794411C4310
:104AC000CC4913F80608138547006306080008C39D
:104AD0009C438CC301A808C393F606049C43F5DAF3
:104AE0002390B70023280400B28A81BF1C43D04121
:104AF00081459386470014C383AA07005685692021
:104B000001C53305554148C05C401CC8A3010404DD
:104B10002DB714485686CA8526858299E30945F340
:104B20001C40898B8DE7B2474844E353F5F23E853C
:104B300005B785465686CA8526858299E30965F1BB
:104B4000050A5C443247998FE345FAFEE9BF014A02
:104B5000930A94017D5BF5B7411122C42A842E8506
:104B600097E7FF1F23A2076406C66522FD57631956
:104B7000F50097E7FF1F938727639C4391C31CC0F1
:104B8000B24022444101828093F5F50F2A966314C6
:104B9000C5000145828083470500E38DB7FE05050A
:104BA000FDB7B3C7A5008D8B3307C50081E78D47DF
:104BB00063EEC700AA876370E50A83C60500850710
:104BC0008505A38FD7FEE3EAE7FE82809376350062
:104BD000AA8791CA83C6050085078505A38FD7FEDE
:104BE00093F63700FDB79376C7FF138606FE63F092
:104BF000C70683A3050083A2450083AF850003AFEA
:104C0000C50083AE050103AE450103A3850183A85A
:104C1000C5019385450223A0770003A8C5FF23A201
:104C2000570023A4F70123A6E70123A8D70123AA4D
:104C3000C70123AC670023AE17019387470223AE59
:104C400007FF75B790419107910523AEC7FEE3EBCF
:104C5000D7FEE3E4E7F6828063F3A504B386C500DC
:104C6000637FD5029345F6FF8147FD176393F500F7
:104C700082803387F600034807003387C7002A97EE
:104C800023000701DDB73387F500834607003307AC
:104C9000F50085072300D700E317F6FE82808147E1
:104CA000E5BF8280828081E5B2856FF04FEC011113
:104CB00022CC06CE26CA4AC84EC6328401EEEFF098
:104CC0008FE00149F24062444A85D2444249B249E8
:104CD00005618280AE84AA891D202689E37485FE41
:104CE000A2854E85EFF0AFE82A8969DDA685228688
:104CF000EFF03FEBA6854E85EFF0EFDCE1B783A741
:104D0000C5FF1385C7FF63D50700AA959C413E9553
:104D100082809387C1829C4391C73E9523A6A1823E
:104D20003E85828097E7FF1F938747483E9523A6DD
:104D3000A1823E8582800000000080BF563A253067
:104D4000336400000000404100080140000C0140B5
:104D500000100140001401402A0A0000720A0000FD
:104D6000B00A0000EE0A00001C0B00004C512D564A
:104D7000303334206964206572726F720000000065
:104D80004C512D56303334206964204F4B000000C5
:104D90004C512D5630333420696E6974204F4B00CE
:104DA0004C512D5630333420736363622065727228
:104DB0006F72000000000040F6285C8FC2F5F0BF63
:104DC0000000000000606F401F85EB51B81E01C05D
:104DD0000000000000D07940E09C11A5BD0112C088
:104DE0008FC2F5285C498440A301BC0512B421C0E0
:104DF000713D0AD7A3EC8D40986E1283C02A3FC044
:104E00009A9999999932A040000000000000000092
:104E10000000000000000000000010101010101032
:104E200010100000101000000000242424240000B2
:104E300000000000000000000000484848FE242454
:104E40002424247F1212120000107C929212141853
:104E500030509092927C100000008C9252322C10B4
:104E60000868949292600000000018242424189886
:104E7000A4A24242A29C00000000101010100000EA
:104E800000000000000000000020100808040404D6
:104E9000040404080810200000040810102020203A
:104EA00020202010100804000000000000082A1C28
:104EB000142200000000000000000000101010FE8E
:104EC00010101000000000000000000000000000B2
:104ED000000000001010080000000000000000FEAC
:104EE00000000000000000000000000000000000C2
:104EF00000000000101000000000404020201010B2
:104F00000808040402020000000038448282828201
:104F100082828282443800000000101C10101010A1
:104F2000101010101010000000003C4242404020C1
:104F300010080402027E000000003C424240403C57
:104F400040404042423C00000000606050504848F1
:104F50004444FE404040000000007E0202023E4207
:104F600040404042423C000000003C424202023EBF
:104F700042424242423C000000007E40202010108D
:104F8000100808080808000000003C424242423C69
:104F900042424242423C000000003C424242424205
:104FA0007C404042423C0000000000000808000035
:104FB00000000808000000000000000010100000C1
:104FC000000010101008000000000040300806012A
:104FD0000608304000000000000000000000FE0055
:104FE00000FE000000000000000000020C106080C5
:104FF00060100C0200000000000038448282402053
:1050000010101000101000000000384482B2AAAA4C
:10501000AAAAD202847800000000101010282828C4
:1050200044447C828282000000003E428282423EF2
:1050300042828282423E00000000384482820202A4
:10504000020282824438000000003E424282828294
:1050500082828242423E00000000FE020202027E84
:105060000202020202FE00000000FE020202027EB4
:105070000202020202020000000038448202020220
:10508000E2828282C4B8000000008282828282FEB4
:1050900082828282828200000000101010101010A4
:1050A00010101010101000000000202020202020E0
:1050B00020202022221C00000000824222120A0628
:1050C000060A1222428200000000020202020202CC
:1050D00002020202027E000000008282C6C6AAAA64
:1050E000929292828282000000008286868A8A9250
:1050F00092A2A2C2C2820000000038448282828250
:10510000828282824438000000003E4282828242D3
:105110003E020202020200000000384482828282C3
:10512000828282A244B8000000003E428282824213
:105130003E4282828282000000007C828202041849
:1051400020408082827C00000000FE1010101010B1
:1051500010101010101000000000828282828282E3
:1051600082828282827C00000000828282444444E7
:10517000282828101010000000009292929292AA03
:10518000AAAA4444444400000000828244442810F7
:105190002828444482820000000082824444282857
:1051A000101010101010000000007E402020101081
:1051B00008080404027E00000078080808080808AF
:1051C00008080808080878000000929292FF92AA46
:1051D000AAAA444444440000001E101010101010ED
:1051E0001010101010101E000010284400000000C5
:1051F00000000000000000000000000000000000AF
:10520000000000000000FE00000408100000000084
:1052100000000000000000000000000000003C4210
:10522000407C424242BC00000000020202023A46B8
:1052300082828282463A00000000000000007884EA
:105240000202020284780000000080808080B8C4DE
:1052500082828282C4B8000000000000000038444E
:1052600082FE0202847800000000700808087E08B0
:105270000808080808080000000000000000586442
:105280004242426458423C000000020202023A4696
:105290004242424242420000000010100000101042
:1052A000101010101010000000001010000010105E
:1052B0001010101010100C00000002020242221206
:1052C0000A060A12224200000000101010101010EE
:1052D00010101010101000000000000000006E926E
:1052E00092929292929200000000000000003A46D2
:1052F00042424242424200000000000000003844A6
:1053000082828282443800000000000000003A4699
:10531000828282463A020200000000000000B8C407
:10532000828282C4B8808000000000000000740CFB
:1053300004040404040400000000000000003C42D7
:10534000020C3040423C00000000080808087E08BB
:105350000808080808700000000000000000424231
:1053600042424242427C0000000000000000828273
:105370004444282810100000000000000000829221
:105380009292AA6C44440000000000000000824495
:1053900028101028448200000000000000008282D3
:1053A0004444282810100E000000000000007E4039
:1053B00020100804027E0000006010101010100C75
:1053C00010101010101060000010101010101010AD
:1053D00010101010101010000006080808080830FF
:1053E00008080808080806000000000000008C7289
:1053F00000000000000000000000000000000000AD
:10540000004F000000000700070000147F147F1405
:1054100000242A7F2A1200231308646200364955AB
:10542000225000000503000000001C224100000083
:1054300041221C000014083E08140008083E080819
:1054400000005030000000080808080800006060F4
:105450000000002010080402003E5149453E0000B3
:10546000427F4000004261514946002141454B3195
:10547000001814127F10002745454539003C4A4961
:1054800049300001710905030036494949360006D3
:105490004949291E0000363600000000563600003B
:1054A00000081422410000141414141400004122B6
:1054B000140800020151090600324979413E007E7C
:1054C0001111117E007F4949493E003E4141412270
:1054D000007F4141221C007F49494941007F090961
:1054E0000901003E4149497A007F0808087F000011
:1054F000417F4100002040413F01007F08142241CC
:10550000007F40404040007F0204027F007F04088B
:10551000107F003E4141413E007F09090906003EDF
:105520004151215E007F0919294600464949493108
:105530000001017F0101003F4040403F001F20402B
:10554000201F003F4038403F0063140814630003ED
:105550000478040300615149454300007F41410044
:105560000015167C1615000041417F000004020161
:1055700002040040404040400000010204000020BE
:1055800054545478007F48444438003844444420FC
:1055900000384444487F00385454541800087E09A9
:1055A0000102000C5252523E007F080404780000B1
:1055B000447D4000002040443D00007F102844000E
:1055C0000000417F4000007E020C027C007E04024D
:1055D000027C003844444438007C14141408000849
:1055E0001414187C007C0804040800485454542007
:1055F00000043F444020003C4040207C001C2040F0
:10560000201C003C4030403C004428102844000C42
:105610005050503C004464544C4400000836410053
:105620000000007F00000000413608000008040868
:1056300010080008082A1C0800081C2A0808000492
:10564000027F02040010207F2010001C2A322A1C36
:10565000001C2244221C0000FFFFFFFFFFFFFFFF92
:10566000FFFFFFFFFFFFFFFFFFFFFFFFFFFFFFFF4A
:10567000FFFFFFFFFFFFFFFFFFFFFFFFFFFFFFFF3A
:10568000FFFFFFFFFFFFFFFFFFFFFFFFFFFFFFFF2A
:10569000FFFFFFFFFFFFFFFFFFFFFFFFFFFFFFFF1A
:105B9000FFFFFFFFFFFFFFFFFFFFFFFFA63C5CF9DA
:105BA0005CF95CF9AE7CFFFFFFFFFFFFFFFFFFFF2B
:105BB000FFFFFFFFFFFFFFFFFFFFFFFFFFFFFFFFF5
:105BC000FFFFFFFFFFFFFFFFFFFFFFFFFFFFFFFFE5
:105BD000FFFFFFFFFFFFFFFFFFFFFFFFFFFFFFFFD5
:105BE000FFFFFFFFFFFFFFFFFFFFFFFFFFFFFFFFC5
:105BF000FFFFFFFFFFFFFFFFFFFFFFFFFFFFFFFFB5
:105C0000FFFFFFFFFFFFFFFFFFFFFFFFFFFFFFFFA4
:105C1000FFFFFFFFFFFFFFFFFFFFFFFFFFFFFFFF94
:105C2000FFFFFFFFFFFFFFFFFFFFFFFFFFFFFFFF84
:105C3000FFFFFFFFFFFFFFFFFFFFFFFFFFFFFFFF74
:105C4000FFFFFFFFFFFFFFFFFFFFFFFFFFFFFFFF64
:105C5000FFFFFFFFFFFFFFFFFFFFFFFFFFFFFFFF54
:105C6000FFFFFFFFFFFFFFFFFFFFFFFFFFFFFFFF44
:105C7000FFFFFFFFFFFFFFFFFFFFFFFFFFFFFFFF34
:105C8000FFFFFFFFFFFFFFFFFFFFFFFFFFFFFFFF24
:105C9000FFFFFFFFFFFFFFFFFFFFFFFFFFFFFFFF14
:105CA000FFFFFFFFFFFFFFFFFFFFFFFFFFFFFFFF04
:105CB000FFFFFFFFFFFFFFFFFFFFFFFFFFFFFFFFF4
:105CC000FFFFFFFFFFFFFFFFFFFFFFFFFFFFFFFFE4
:105CD000FFFFFFFFFFFFFFFFFFFFFFFF5CF90B77F9
:105CE0000B770B776D3AFFFFFFFFFFFFFFFFFFFF13
:105CF000FFFFFFFFFFFFFFFFFFFFFFFFFFFFFFFFB4
:105D0000FFFFFFFFFFFFFFFFFFFFFFFFFFFFFFFFA3
:105D1000FFFFFFFFFFFFFFFFFFFFFFFFFFFFFFFF93
:105D2000FFFFFFFFFFFFFFFFFFFFFFFFFFFFFFFF83
:105D3000FFFFFFFFFFFFFFFFFFFFFFFFFFFFFFFF73
:105D4000FFFFFFFFFFFFFFFFFFFFFFFFFFFFFFFF63
:105D5000FFFFFFFFFFFFFFFFFFFFFFFFFFFFFFFF53
:105D6000FFFFFFFFFFFFFFFFFFFFFFFFFFFFFFFF43
:105D7000FFFFFFFFFFFFFFFFFFFFFFFFFFFFFFFF33
:105D8000FFFFFFFFFFFFFFFFFFFFFFFFFFFFFFFF23
:105D9000FFFFFFFFFFFFFFFFFFFFFFFFFFFFFFFF13
:105DA000FFFFFFFFFFFFFFFFFFFFFFFFFFFFFFFF03
:105DB000FFFFFFFFFFFFFFFFFFFFFFFFFFFFFFFFF3
:105DC000FFFFFFFFFFFFFFFFFFFFFFFFFFFFFFFFE3
:105DD000FFFFFFFFFFFFFFFFFFFFFFFFFFFFFFFFD3
:105DE000FFFFFFFFFFFFFFFFFFFFFFFFFFFFFFFFC3
:105DF000FFFFFFFFFFFFFFFFFFFFFFFFFFFFFFFFB3
:105E0000FFFFFFFFFFFFFFFFFFFFFFFFFFFFFFFFA2
:105E1000FFFFFFFFFFFFFFFFFFFFFFFF755A0B773D
:105E20000B770B777D9BFFFFFFFFFFFFFFFFFFFF60
:105E3000FFFFFFFFFFFFFFFFFFFFFFFFFFFFFFFF72
:105E4000FFFFFFFFFFFFFFFFFFFFFFFFFFFFFFFF62
:105E5000FFFFFFFFFFFFFFFFFFFFFFFFFFFFFFFF52
:105E6000FFFFFFFFFFFFFFFFFFFFFFFFFFFFFFFF42
:105E7000FFFFFFFFFFFFFFFFFFFFFFFFFFFFFFFF32
:105E8000FFFFFFFFFFFFFFFFFFFFFFFFFFFFFFFF22
:105E9000FFFFFFFFFFFFFFFFFFFFFFFFFFFFFFFF12
:105EA000FFFFFFFFFFFFFFFFFFFFFFFFFFFFFFFF02
:105EB000FFFFFFFFFFFFFFFFFFFFFFFFFFFFFFFFF2
:105EC000FFFFFFFFFFFFFFFFFFFFFFFFFFFFFFFFE2
:105ED000FFFFFFFFFFFFFFFFFFFFFFFFFFFFFFFFD2
:105EE000FFFFFFFFFFFFFFFFFFFFFFFFFFFFFFFFC2
:105EF000FFFFFFFFFFFFFFFFFFFFFFFFFFFFFFFFB2
:105F0000FFFFFFFFFFFFFFFFFFFFFFFFFFFFFFFFA1
:105F1000FFFFFFFFFFFFFFFFFFFFFFFFFFFFFFFF91
:105F2000FFFFFFFFFFFFFFFFFFFFFFFFFFFFFFFF81
:105F3000FFFFFFFFFFFFFFFFFFFFFFFFFFFFFFFF71
:105F4000FFFFFFFFFFFFFFFFFFFFFFFFFFFFFFFF61
:105F5000FFFFFFFFFFFFFFFFFFFFFFFF5CF90B7776
:105F60000B770B7785BBFFFFFFFFFFFFFFFFFFFFF7
:105F7000FFFFFFFFFFFFFFFFFFFFFFFFFFFFFFFF31
:105F8000FFFFFFFFFFFFFFFFFFFFFFFFFFFFFFFF21
:105F9000FFFFFFFFFFFFFFFFFFFFFFFFFFFFFFFF11
:105FA000FFFFFFFFFFFFFFFFFFFFFFFFFFFFFFFF01
:105FB000FFFFFFFFFFFFFFFFFFFFFFFFFFFFFFFFF1
:105FC000FFFFFFFFFFFFFFFFFFFFFFFFFFFFFFFFE1
