:100000006F00807B1300000013000000130000004D
:100010001300000013000000130000001300000094
:100020001300000013000000130000001300000084
:08003000130000007300100032
:100038006FF09FFC000000006F00C04D6F00804E05
:1000480000000000000000000000000000000000A8
:100058000000000000000000000000000000000098
:100068006FF09FF9000000006FF01FF9000000001A
:100078006FF09FF86FF05FF86FF01FF86FF0DFF721
:100088006FF09FF76FF05FF76F0040646F004015E7
:100098006F00A0196F00C01A6F00801B6FF0DFF5AA
:1000A8006FF09FF56FF05FF56F0060426FF0DFF45F
:1000B8006FF09FF46FF05FF46F00801C0000000089
:1000C8000000000000000000000000006F00401960
:1000D8006F00001C6F00001F6F00C0216F00002719
:1000E8006F00C02F6F0000326F00C0346FF0DFF078
:1000F8006FF09FF06FF05FF06FF01FF06FF0DFEFC1
:100108006FF09FEF6F0000366F00C0366F0020570A
:100118006F0000166FF05FEE6FF01FEE6FF0DFED0F
:1001280000000000000000000000000000000000C7
:080138000000000000000000BF
:100140003D432A876373C3029377F700BDEFADE5A4
:10015000937606FF3D8ABA960CC34CC30CC74CC7B6
:100160004107E36BD7FE11E28280B306C3408A06E3
:100170009702000096966780A6002307B700A306A3
:10018000B7002306B700A305B7002305B700A304F3
:10019000B7002304B700A303B7002303B700A302EB
:1001A000B7002302B700A301B7002301B700A300E3
:1001B000B7002300B700828093F5F50F9396850072
:1001C000D58D93960501D58D61B79396270097023B
:1001D000000096968682E78086FA9680C1171D8F6A
:1001E0003E96E374C3F8A5B7411122C6000809453D
:1001F000EF0070042A8785476318F702B7070020CD
:1002000003A7470789476315F700EF20A00711A848
:10021000B707002003A7470785476314F700EF10CF
:1002200030790945EF009006010032444101730026
:100230002030411122C600081145EF0030050100B1
:100240003244410173002030411122C600080100F0
:100250003244410173002030411122C600080100E0
:100260003244410173002030411122C600080100D0
:100270003244410173002030411122C600080100C0
:100280003244410173002030411122C600080100B0
:100290003244410173002030411122C60008930509
:1002A0000008B7370140138507C0EF10C018AA87B0
:1002B00089CB93050008B7370140138507C0EF10BD
:1002C000801E01003244410173002030411122C6DA
:1002D00000088545B7370140138507C0EF10A0150A
:1002E000AA8781CB8545B7370140138507C0EF103A
:1002F000801B01003244410173002030411122C6AD
:10030000000893050004B7370140138507C0EF10BC
:100310008012AA8789CB93050004B7370140138563
:1003200007C0EF10401893050002B737014013854E
:1003300007C0EF104010AA8789CB93050002B7379A
:100340000140138507C0EF1000160100324441013F
:1003500073002030411122C600088945B73701409B
:10036000138507C0EF10200DAA8781CB8945B737C9
:100370000140138507C0EF1000139145B7370140C6
:10038000138507C0EF10200BAA8781CB9145B737A3
:100390000140138507C0EF100011A145B737014098
:1003A000138507C0EF102009AA8781CBA145B73775
:1003B0000140138507C0EF10000FC145B73701405A
:1003C000138507C0EF102007AA8781CBC145B73737
:1003D0000140138507C0EF10000D010032444101B8
:1003E00073002030411122C60008854537050040C2
:1003F000EF106004AA8791C7854537050040EF10CC
:10040000800A01003244410173002030411122C6AC
:1004100000088545B707004013850740EF10A0018D
:10042000AA8781CB8545B707004013850740EF10A9
:10043000800701003244410173002030411122C67F
:1004400000088545B717004013850780EF00B07E90
:10045000AA8781CB8545B717004013850780EF1029
:10046000800401003244410173002030411122C652
:10047000000801003244410173002030411122C6BE
:10048000000893055052B747004013850740EF100E
:100490006043AA8785CF93055052B7470040138524
:1004A0000740EF104052B707002003A747078947CE
:1004B0006315F700EF10105611A8B707002003A727
:1004C000470785476314F700EF1090470100324457
:1004D000410173002030411122C600080965912EA8
:1004E0002A8785476317F70209655526B707002055
:1004F00003A7470789476315F700EF10105C11A8A1
:10050000B707002003A7470785476314F700EF10DC
:10051000904D01003244410173002030411122C648
:10052000000801003244410173002030411122C60D
:10053000000801A0011122CE0010AA87A307F4FE33
:1005400083C71182138717009376F70FA380D18298
:100550003E8793874184BA970347F4FE2380E700E0
:1005600003C711828547631DF70003C741849307C2
:10057000800D6307F700A38001820947238CE18087
:1005800003C71182AD476316F7020547238CE1804C
:100590009387418403C7A7009307E00E6316F70013
:1005A0000547238CE18021A00D47238CE180A380A7
:1005B00001820100724405618280011122CE001087
:1005C0002326A4FE8327C4FE850703C707009307DD
:1005D000000B6318F7028327C4FE890783C707004F
:1005E000A2071397070141878327C4FE8D0783C79E
:1005F0000700C207C187D98F139707014187239D41
:10060000E1808327C4FE910703C707009307100BFF
:100610006318F7028327C4FE950783C70700A20764
:100620001397070141878327C4FE990783C70700F3
:10063000C207C187D98F139707014187239EE180A5
:100640008327C4FE9D0703C707009307200B631889
:10065000F7028327C4FEA10783C70700A2071397E9
:10066000070141878327C4FEA50783C70700C20788
:10067000C187D98F139707014187239FE18001002C
:10068000724405618280011122CE00109305505200
:10069000B757004013850780EF10C022AA8795C77F
:1006A00093055052B757004013850780EF10A031D3
:1006B000B757004013850780EF10001AAA87A307D9
:1006C000F4FE8347F4FE3E85B535010072440561B2
:1006D00073002030411122C600080545A92E2A8743
:1006E00085476313F7020545552683C7818113F7B4
:1006F000F70F85476317F700138541847D3D238CF1
:10070000018005472380E1820100324441017300EA
:100710002030411106C622C40008EF10506DEF20B2
:10072000A058EF1060409167138607158145014579
:10073000EF10F0019306100213060002B71707002E
:10074000938507800945EF20E04085450945EF2066
:10075000A05085460146814513057003EF10105BDC
:1007600013068004A1450145EF1050528546054609
:1007700085455945EF1090590145EF10106B83C71F
:10078000018293F7F70FE5DF8397A1813E868145CC
:100790000145EF1090038397C1813E868545014551
:1007A000EF10B0028397E1813E8689450145EF1045
:1007B000D00123800182E1B7970100209381810B52
:1007C0001751002013010184174500001305C50BC4
:1007D00097050020938505831386818163FAC50000
:1007E0008322050023A0550011059105E3EAC5FE0B
:1007F00013858181938501866377B50023200500E9
:100800001105E36DB5FE9302800873A002309702D4
:1008100000009382A28293E2120073905230EF2084
:10082000806897020000938202EF73901234730085
:100830002030797122D60018232EA4FC232604FE32
:10084000232404FE0327C4FDB7070010F98F89CBCA
:10085000B7070240938707409C432324F4FE31A04E
:10086000B70702409C432324F4FE032784FE83271A
:10087000C4FDF98F89C785472326F4FE19A02326D6
:1008800004FE8327C4FE3E853254456182800111F7
:1008900022CE00102326A4FE0327C4FEB7070010B3
:1008A000F98F89CBB7070240938707400327C4FE1F
:1008B000D8C331A0B70702400327C4FED8C3010044
:1008C000724405618280797122D60018232EA4FC1F
:1008D000232604FEB7070140938707402326F4FE32
:1008E0008327C4FDDC4763800712B7070140938765
:1008F000074094438327C4FD9C4313C7F7FFB70702
:10090000014093870740758F98C3B70701409387CD
:100910000740D4438327C4FD9C4313C7F7FFB707A1
:10092000014093870740758FD8C38327C4FDDC43FC
:100930000327C4FEBA972326F4FE8327C4FE9443FC
:100940008327C4FD98438327C4FE558F98C3B707F8
:1009500001409387074094478327C4FD9C4313C7F6
:10096000F7FFB707014093870740758F98C7B70710
:10097000014093870740D4478327C4FD9C4313C796
:10098000F7FFB707014093870740758FD8C78327C4
:10099000C4FD9847C147631FF702B707014093871B
:1009A000074094478327C4FD9843B70701409387C6
:1009B0000740558F98C7B707014093870740D44732
:1009C0008327C4FD9843B707014093870740558F9D
:1009D000D8C7B1A8B7070140938707402326F4FE84
:1009E0008327C4FD9C470327C4FEBA972326F4FE41
:1009F0008327C4FE94438327C4FD98438327C4FE02
:100A0000558F98C32DA08327C4FDDC430327C4FE64
:100A1000BA972326F4FE8327C4FE94438327C4FD9C
:100A20009C4313C7F7FF8327C4FE758F98C301004B
:100A3000325445618280797122D60018232EA4FC9D
:100A4000232604FE232404FEB707014093870740B2
:100A50009C430327C4FDF98F2324F4FEB70701400C
:100A600093870740D84B8327C4FDF98F81CB832719
:100A700084FE89C785472326F4FE19A0232604FE99
:100A80008327C4FE3E85325445618280011122CE07
:100A900000102326A4FEB7070140938707400327D1
:100AA000C4FED8CB0100724405618280397122DE18
:100AB00080002326A4FC2324B4FC232604FE232048
:100AC00004FE232404FE232E04FC232204FE232CF4
:100AD00004FC832784FC9C47BD8B2326F4FE8327DC
:100AE00084FC9C47C18B89CB832784FCDC43032790
:100AF000C4FED98F2326F4FE832784FC83D7070006
:100B000093F7F70FF1CF8327C4FC9C432322F4FE15
:100B1000232404FE65A8832784FE0547B317F70046
:100B2000232EF4FC832784FC83D707003E8783278A
:100B3000C4FDF98F2320F4FE032704FE8327C4FDA0
:100B40006311F708832784FE8A07232EF4FC83278A
:100B5000C4FD3D47B317F700232CF4FC832784FD25
:100B600093C7F7FF032744FEF98F2322F4FE832760
:100B7000C4FD0327C4FEB317F700032744FED98F33
:100B80002322F4FE832784FC984793078002631B8B
:100B9000F700832784FE05473317F7008327C4FC3B
:100BA000D8CB05A0832784FC984793078004631A59
:100BB000F700832784FE05473317F7008327C4FC1B
:100BC00098CB832784FE85072324F4FE032784FE25
:100BD0009D47E3F2E7F48327C4FC032744FE98C350
:100BE000832784FC03D707009307F00F63F1E70E18
:100BF0008327C4FCDC432322F4FE232404FE75A8CF
:100C0000832784FEA1070547B317F700232EF4FCC2
:100C1000832784FC83D707003E878327C4FDF98F91
:100C20002320F4FE032704FE8327C4FD6312F70884
:100C3000832784FE8A07232EF4FC8327C4FD3D47C7
:100C4000B317F700232CF4FC832784FD93C7F7FF29
:100C5000032744FEF98F2322F4FE8327C4FD0327D4
:100C6000C4FEB317F700032744FED98F2322F4FEF6
:100C7000832784FC984793078002631BF700832730
:100C800084FEA10705473317F7008327C4FCD8CBA0
:100C9000832784FC984793078004631BF70083270E
:100CA00084FEA10705473317F7008327C4FC98CBC0
:100CB000832784FE85072324F4FE032784FE9D47B3
:100CC000E3F0E7F48327C4FC032744FED8C3010004
:100CD000725421618280011122CE00102326A4FECD
:100CE000AE872322C4FE2315F4FE832744FE99C752
:100CF0000357A4FE8327C4FE98CB31A00357A4FE5C
:100D00008327C4FED8CB01007244056182807971CB
:100D100022D60018232EA4FC232CB4FC232404FE8A
:100D2000232204FE232604FE232004FE8327C4FD81
:100D300063D80700B7070140DC4F2326F4FE31A03B
:100D4000B7070140DC432326F4FE8327C4FDC1839B
:100D5000BD8B2320F4FE0327C4FDC167FD17F98F67
:100D60002324F4FE0327C4FDB70730007D8FB707A7
:100D700030006315F7020327C4FEB70700F1FD1723
:100D8000F98F2326F4FEB7070140D443B70701408B
:100D9000370700F17D17758FD8C3ADA00327C4FDB9
:100DA000B7071000F98F8DCB832704FE0D47B317CB
:100DB000F7002322F4FE832744FE93C7F7FF03279F
:100DC000C4FEF98F2326F4FE0327C4FEB707000FE5
:100DD000D98F2326F4FE3DA08327C4FDD583920737
:100DE000032784FEB317F70093C7F7FF0327C4FE5A
:100DF000F98F2326F4FE0327C4FEB707000FD98F0F
:100E00002326F4FE832784FD91CF8327C4FDD58359
:100E10009207032784FEB317F7000327C4FED98F78
:100E20002326F4FE8327C4FD63D80700B7070140DB
:100E30000327C4FED8CF31A0B70701400327C4FE63
:100E4000D8C30100325445618280797122D60018DE
:100E5000AA872E87A30FF4FCBA87230FF4FC23265E
:100E600004FE8347E4FD8D8B8A073D47B317F700E7
:100E70002326F4FE370701408347E4FD898393F777
:100E8000F70F8A07BA9798478327C4FE93C7F7FFDF
:100E9000B70601400346E4FD09821376F60F7D8F05
:100EA00093172600B69798C7370701408347E4FD9C
:100EB000898393F7F70F8A07BA9798478346F4FD1B
:100EC0008347E4FD8D8B8A07B397F600B706014090
:100ED0000346E4FD09821376F60F5D8F9317260013
:100EE000B69798C70100325445618280011122CE25
:100EF00000102326A4FE8327C4FEFD8B0547B316EE
:100F0000F70037E700E08327C4FE95839387070443
:100F10008A07BA9794C30100724405618280011167
:100F200022CE00102326A4FE8327C4FEFD8B054796
:100F3000B316F70037E700E08327C4FE9583938755
:100F400007068A07BA9794C301007244056182803C
:100F5000011122CE00102326A4FEAE87A305F4FEC5
:100F600037E700E08327C4FEBA970347B4FE238027
:100F7000E7400100724405618280011106CE22CC57
:100F800000102326A4FEB7E700E0BC47898B8DC381
:100F90008327C4FE83C707003E878327C4FE83C719
:100FA0002700920793F7F70FBE853A85553795A02E
:100FB000B7E700E0BC47898BA9EF8327C4FE03C7CE
:100FC000170085476318F7028327C4FE83C707000D
:100FD0003E878327C4FE83C727009207E207E18785
:100FE00093E707F8E207E18793F7F70FBE853A85A5
:100FF000853705A08327C4FE83C707003E87832764
:10100000C4FE83C72700920793F7F70FBE853A8582
:1010100081378327C4FEDC4381CB8327C4FE83C78B
:1010200007003E85E13539A08327C4FE83C707004A
:101030003E85F5350100F240624405618280797198
:1010400022D60018232EA4FC232604FE232404FE0B
:10105000232204FE232004FEB7170240DC43B18B99
:101060002326F4FE0327C4FE91476302F7020327F9
:10107000C4FEA1476305F7028327C4FEC5E78327A3
:10108000C4FD37177A001307072098C365A083278C
:10109000C4FD37177A001307072098C361A8B71754
:1010A0000240D843B7073C00F98F2324F4FEB7175A
:1010B0000240D843C167F98F2322F4FE832784FEC0
:1010C000C98389072324F4FE832744FE89EF03277D
:1010D00084FEB7173D00938707903307F7028327F5
:1010E000C4FD98C381A8B7170240D843B7070200D0
:1010F000F98F89CF032784FEB7173D0093870790A8
:101100003307F7028327C4FD98C32DA0032784FE6D
:10111000B7177A00938707203307F7028327C4FDA8
:1011200098C309A88327C4FD37177A00130707203F
:1011300098C30100B7170240DC4393F7070F23263B
:10114000F4FE8327C4FE91832326F4FEB707002014
:10115000138707008327C4FEBA9783C7070093F756
:10116000F70F2320F4FE8327C4FD9843832704FE52
:101170003357F7008327C4FDD8C3B7170240DC43B9
:1011800093F707702326F4FE8327C4FEA18323264A
:10119000F4FEB7070020138707008327C4FEBA9721
:1011A00083C7070093F7F70F2320F4FE8327C4FDBE
:1011B000D843832704FE3357F7008327C4FD98C71D
:1011C000B7170240D843916793870780F98F23268A
:1011D000F4FE8327C4FEAD832326F4FEB707002068
:1011E000138707008327C4FEBA9783C7070093F7C6
:1011F000F70F2320F4FE8327C4FDD843832704FE82
:101200003357F7008327C4FDD8C7B7170240D84328
:10121000B167F98F2326F4FE8327C4FEB983232602
:10122000F4FEB7070020138707078327C4FEBA9789
:1012300083C7070093F7F70F2320F4FE8327C4FD2D
:10124000D847832704FE3357F7028327C4FD98CB82
:101250000100325445618280011122CE0010232604
:10126000A4FE2324B4FE832784FE99CBB717024043
:10127000944FB71702400327C4FE558F98CF21A87B
:10128000B7170240944F8327C4FE13C7F7FFB71761
:101290000240758F98CF0100724405618280011170
:1012A00022CE00102326A4FE2324B4FE832784FE2E
:1012B00099CBB7170240D44FB71702400327C4FE9B
:1012C000558FD8CF21A8B7170240D44F8327C4FE2B
:1012D00013C7F7FFB7170240758FD8CF01007244CC
:1012E00005618280797122D60018232EA4FC232C5C
:1012F000B4FC231704FE8327C4FD83D707002317FC
:10130000F4FE0357E4FE8D6793870704F98F2317D4
:10131000F4FE832784FD03D70700832784FD83D74A
:101320002700D98F139707014183832784FD83D733
:101330004700D98F139707014183832784FD83D703
:101340006700D98F139707014183832784FD83D7D3
:101350008700D98F139707014183832784FD83D7A3
:10136000A700D98F139707014183832784FD83D773
:10137000C700D98F139707014183832784FD83D743
:10138000E700D98F1397070141838357E4FED98F74
:101390002317F4FE8327C4FD0357E4FE2390E700E0
:1013A0008327C4FD83D7C701139707014183FD77C6
:1013B0009387F77FF98F1397070141838327C4FD34
:1013C000239EE700832784FD03D707018327C4FDFD
:1013D0002398E7000100325445618280011122CE3A
:1013E00000102326A4FE2324B4FE832784FE8DC38D
:1013F0008327C4FE83D70700C207C18393E707048E
:101400001397070141838327C4FE2390E70005A0BB
:101410008327C4FE83D70700C207C18393F7F7FB76
:101420001397070141838327C4FE2390E70001003F
:10143000724405618280797122D60018232EA4FCA3
:10144000AE87231DF4FC232604FE231504FE23147B
:1014500004FE8327C4FD83D7070113970701418347
:101460008357A4FDF98F2315F4FE8327C4FD83D78A
:10147000C7001397070141838357A4FDF98F2314F5
:10148000F4FE8357A4FE81CB835784FE89C785472A
:101490002326F4FE19A0232604FE8327C4FE3E85DE
:1014A000325445618280011122CE00102326A4FE11
:1014B000AE872315F4FE8357A4FE93C7F7FF139757
:1014C000070141838327C4FE2398E700010072448B
:1014D000056182805D7186C6A2C48008232EA4FAAD
:1014E000232CB4FA232604FE232404FE232204FE24
:1014F000232004FE232E04FC8327C4FB232EF4FCAC
:101500008327C4FB83D70701C207C1832326F4FEC8
:101510000327C4FEB567FD17F98F2326F4FE832742
:1015200084FB83D767003E878327C4FED98F232699
:10153000F4FE8327C4FE1397070141838327C4FB6E
:101540002398E7008327C4FB83D7C700C207C18362
:101550002326F4FE0327C4FEBD679387379FF98FC8
:101560002326F4FE832784FB03D74700832784FBCD
:1015700083D78700D98F139707014183832784FB83
:1015800083D7A700D98FC207C1833E878327C4FEB4
:10159000D98F2326F4FE8327C4FE139707014183C6
:1015A0008327C4FB2396E7008327C4FB83D7470127
:1015B000C207C1832326F4FE0327C4FEC1679387B5
:1015C000F7CFF98F2326F4FE832784FB83D7C70048
:1015D0003E878327C4FED98F2326F4FE8327C4FECB
:1015E0001397070141838327C4FB239AE7009307DE
:1015F00084FC3E85A9340327C4FDB7470140938787
:1016000007806317F700832744FD2324F4FE29A0F5
:10161000832704FD2324F4FE8327C4FB83D7C7005C
:10162000C207C183C207C18763D20702032784FEB2
:10163000BA878607BA978E073E97832784FB9C4319
:101640008607B357F7022322F4FE05A0032784FE82
:10165000BA878607BA978E073E97832784FB9C43F9
:101660008A07B357F7022322F4FE032744FE9307A9
:101670004006B357F70292072326F4FE8327C4FEE1
:1016800013D7470093074006B307F702032744FE2A
:10169000B307F7402320F4FE8327C4FB83D7C7009A
:1016A000C207C183C207C18763D20702832704FE32
:1016B0008E071387270393074006B357F7029D8BC6
:1016C0000327C4FED98F2326F4FE05A0832704FE3A
:1016D00092071387270393074006B357F702BD8B82
:1016E0000327C4FED98F2326F4FE8327C4FE139755
:1016F000070141838327C4FB2394E7000100B64020
:10170000264461618280011122CE00102326A4FEAE
:101710002324B4FE832784FE95C38327C4FE83D786
:10172000C7001397070141838967D98F1397070172
:1017300041838327C4FE2396E70015A08327C4FEB8
:1017400083D7C700139707014183F977FD17F98FF6
:101750001397070141838327C4FE2396E700010006
:10176000724405618280797122D60018232EA4FC70
:10177000AE87232AC4FC231DF4FC232404FE232269
:1017800004FE232004FE232604FE8327C4FD232613
:10179000F4FE8357A4FD93F7F70F958393F7F70FA4
:1017A0002324F4FE8357A4FDFD8B2322F4FE83271C
:1017B00044FE0547B317F7002320F4FE032784FEF9
:1017C00085476318F7008327C4FEB1072326F4FE7C
:1017D0000DA0032784FE89476318F7008327C4FE02
:1017E000C1072326F4FE31A08327C4FED107232698
:1017F000F4FE832744FD99CB8327C4FE94438327BB
:10180000C4FE032704FE558F98C321A88327C4FE76
:101810009443832704FE13C7F7FF8327C4FE758F05
:1018200098C30100325445618280011122CE00101C
:101830002326A4FEAE872315F4FE8357A4FE93F758
:10184000F71F1397070141838327C4FE2392E70004
:101850000100724405618280011122CE001023260E
:10186000A4FE8327C4FE83D74700C207C18393F732
:10187000F71FC207C1833E8572440561828079717A
:1018800022D60018232EA4FCAE87231DF4FC2326A9
:1018900004FE8327C4FD83D7070013970701418304
:1018A0008357A4FDF98FC207C18389C785472326C3
:1018B000F4FE19A0232604FE8327C4FE3E8532547D
:1018C00045618280797122D60018232EA4FCAE8750
:1018D000231DF4FC232204FE232604FE232004FE01
:1018E000232404FE8357A4FD93F7F70F958393F702
:1018F000F70F2320F4FE8357A4FDFD8B2326F4FE6F
:101900008327C4FE0547B317F7002326F4FE0327F9
:1019100004FE8547631FF7008327C4FD83D7C700F4
:10192000C207C1833E878327C4FEF98F2326F4FEB6
:101930003DA8032704FE8947631FF7008327C4FDE2
:1019400083D70701C207C1833E878327C4FEF98F6F
:101950002326F4FE29A88327C4FD83D74701C207A5
:10196000C1833E878327C4FEF98F2326F4FE835765
:10197000A4FDA183C207C1832322F4FE832744FE72
:101980000547B317F7002322F4FE8327C4FD83D74E
:101990000700C207C1833E87832744FEF98F2322B5
:1019A000F4FE8327C4FE81CB832744FE89C7854785
:1019B0002324F4FE19A0232404FE832784FE3E85FD
:1019C000325445618280797122D60018232EA4FCFE
:1019D000AE87231DF4FC231704FE231604FE835751
:1019E000A4FDA1832317F4FE8357E4FE0547B31734
:1019F000F7002316F4FE8357C4FE93C7F7FF13972F
:101A0000070141838327C4FD2390E700010032547E
:101A100045618280011106CE22CC0010AA87A3075F
:101A2000F4FE9167938787779C473E87A1675CCBDD
:101A30009167938787779C473E8791675CCB930735
:101A4000F4FE85460146BE850145EF00906C916726
:101A5000938787779C473E87A1671CCB0100F240A4
:101A6000624405618280011106CE22CC0010AA8753
:101A7000A307F4FE9167938787779C473E87A1670A
:101A80005CCB9167938787779C473E8791671CCB98
:101A90009307F4FE85460146BE850145EF00706759
:101AA0009167938787779C473E87A1671CCB01008E
:101AB000F240624405618280797106D622D4001812
:101AC000AA87231FF4FC9167938787779C473E87FB
:101AD000A1675CCB8357E4FDA183C207C18393F761
:101AE000F70F2306F4FE8357E4FD93F7F70FA306E1
:101AF000F4FE9167938787779C473E8791671CCB5D
:101B00009307C4FE89460146BE850145EF0070601B
:101B10009167938787779C473E87A1671CCB01001D
:101B2000B250225445618280797106D622D44AD2BD
:101B30004ED052CE56CC5ACA5EC862C666C4001891
:101B4000014881471307F00493063002054681459A
:101B50000145EF00D0489306003105468545130541
:101B60000008EF00607893060031014685451305B3
:101B7000E004EF00607793060031014685451305C8
:101B8000D004EF0060769167938787779C473E8704
:101B900089675CCB03A741838967938707F4335731
:101BA000F7029307800CB307F7023E8C814C6285E5
:101BB000E685EF0030629167938787779C473E8781
:101BC00089671CCB03A741838967938707F4335741
:101BD000F70293074006B307F7023E8B814B5A8505
:101BE000DE85EF00305F130560032D3503A74183C9
:101BF0008967938707F43357F70293074006B307C3
:101C0000F7023E8A814A5285D685EF00B05C130503
:101C10000007913D1305A003F53B1545A9351305B4
:101C2000200BCD3B314581353145353D0145253DC5
:101C3000130530030D3D1305300335351305700BC7
:101C4000D13B1305500305351305B00BE1331305E4
:101C50007003113D1305000C753B1305C0022135BF
:101C60001305200C453B0545FD3B1305300C5D334A
:101C70004945D53B1305400C713B13050002E53384
:101C80001305600C413B3D45F93B1305000D5933ED
:101C90001305400AC93B1305100AF1331305000E62
:101CA000953B1305000DC1331145753B3545653B2B
:101CB0004545553B4D45453B1305B0026D33130576
:101CC000F003553313054005793B1305C004613B10
:101CD0006145513B3545413B2D4571337D45613370
:101CE0001305300249331305100E2D331305000D73
:101CF0009D3B11458D3B3145BD334545AD334D458C
:101D00009D331305C00285331305F003A93B13056A
:101D10004004913B13051005B9331305F002A133BC
:101D20007D4591337D458133130500022D3B13051D
:101D30003002153B13051002F1394545E13903A77F
:101D400041838967938707F43357F702BA8792076D
:101D5000998F8E073E8981494A85CE85EF0090474D
:101D6000130590024539C1671385F7FF6928010003
:101D7000B250225412598259724AE24A524BC24B13
:101D8000324CA24C45618280011106CE22CC00105B
:101D9000AA8736872317F4FEAE872316F4FEB28790
:101DA0002315F4FEBA872314F4FE1305A0029D3117
:101DB0008357E4FE93878702C207C1833E85ED39CE
:101DC0008357A4FE93878702C207C1833E85ED3106
:101DD0001305B00281318357C4FE93875703C207AE
:101DE000C1833E85D139835784FE93875703C20749
:101DF000C1833E85D1311305C00229390100F2406B
:101E0000624405618280797106D622D40018AA87BF
:101E1000231FF4FC930660081306F00E814501456C
:101E2000A537231704FE05A8231604FE11A883571F
:101E3000E4FD3E8551318357C4FE85072316F4FE29
:101E40000357C4FE93076008E3F3E7FE8357E4FEFD
:101E500085072317F4FE0357E4FE9307F00EE3F51E
:101E6000E7FC0100B250225445618280797106D6A8
:101E700022D40018AA87AE863287231FF4FCB687C7
:101E8000231EF4FCBA87A30DF4FCA30704FE75A07F
:101E90008347F4FE1397070141838357C4FDBA9724
:101EA00093950701C1818357E4FD9D0713960701B0
:101EB00041828347F4FE1397070141838357C4FD92
:101EC000BA971397070141838357E4FDBA863E858D
:101ED000653D8307B4FD938607FE8347F4FE1167D3
:101EE0009206130787183697BA9783C70700A30689
:101EF000F4FE230704FE05A88347D4FE858B91C713
:101F0000C167138507804D3E29A0C1671385F7FF80
:101F100065368347D4FE8583A306F4FE8347E4FE3B
:101F200085072307F4FE0347E4FE9D47E3F6E7FC3D
:101F30008347F4FE8507A307F4FE0347F4FEBD477D
:101F4000E3F8E7F40100B2502254456182807971D0
:101F500006D622D40018AA872E87232CC4FC231F60
:101F6000F4FCBA87231EF4FC231704FE91A08357C8
:101F7000E4FE8E071397070141838357E4FDBA9768
:101F800093960701C1828357C4FD92079395070179
:101F9000C1818357E4FE032784FDBA978387070036
:101FA0003E863685E1358357E4FE85072317F4FE28
:101FB0008357E4FE032784FDBA9783870700C5FB98
:101FC0000100B250225445618280797106D622D434
:101FD0000018AA87AE863287231FF4FCB687231E1B
:101FE000F4FCBA87231DF4FC8317A4FD63D8070211
:101FF0008357C4FD92071397070141838357E4FD7C
:102000001306D002BA853E8595358357A4FDB307E4
:10201000F040C207C183231DF4FC31A88357C4FDDF
:1020200092071397070141838357E4FD13060002CB
:10203000BA853E85253D0317A4FD896793870771FF
:10204000B347F702C207C18793F7F70F2304F4FEE3
:102050000317A4FD9307803EB347F70213970701C8
:102060004187A947B367F702C207C18793F7F70F04
:10207000A304F4FE0317A4FD93074006B347F70239
:10208000139707014187A947B367F702C207C187C2
:1020900093F7F70F2305F4FE0317A4FDA947B347F1
:1020A000F702139707014187A947B367F702C207F1
:1020B000C18793F7F70FA305F4FE0317A4FDA94703
:1020C000B367F702C207C18793F7F70F2306F4FE41
:1020D000A30704FEA1A88347F4FE8507C207C183B6
:1020E0008E071397070141838357E4FDBA9713972F
:1020F000070141838357C4FD920793960701C1826C
:102100008347F4FE130604FFB29783C787FF9387C4
:10211000070393F7F70FE207E1873E86B6853A8516
:10212000B1338347F4FE8507A307F4FE0347F4FEAB
:102130009147E3F2E7FA0100B250225445618280F0
:10214000411122C60008916793878779DC4383D7C2
:10215000470013970701418383C77182BE861377B7
:10216000F70F93874182B6972380E70083C7718278
:10217000850713F7F70FA383E18203C771828547B1
:10218000631AF70003C741829307500A6304F700FC
:10219000A383018203C771828D476317F700A3836E
:1021A000018205472384E18201003244410182809B
:1021B000411122C60008B707024093874704096708
:1021C0001307874BD8C3B707024093874704984348
:1021D000B7070240938747041367170098C30100AD
:1021E000324441018280411122C600080547A38480
:1021F000E182B7070240938747049443B707024040
:102200009387470441677917758F98C3010032445B
:1022100041018280411122C6000891679387877926
:10222000DC4383D7470013970701418383C7F182BB
:10223000BE861377F70F9387C182B6972380E70096
:1022400083C7F182850713F7F70FA387E18203C7DE
:10225000F1828547631AF70003C7C1829307500ACA
:102260006304F700A387018203C7F1828D476317D8
:10227000F700A387018205472388E18201003244E9
:1022800041018280411122C60008B70702409387AE
:102290004704056713070796D8C3B707024093871B
:1022A00047049843B7070240938747041367170012
:1022B00098C30100324441018280411122C60008C6
:1022C0000547A388E182B7070240938747049443F8
:1022D000B70702409387470441677917758F98C302
:1022E0000100324441018280797106D622D400185F
:1022F000232EA4FC232CB4FCB2872328D4FCA30BEC
:10230000F4FC8327C4FD958393F7F70F9D8BA307F8
:10231000F4FE8327C4FD93F7F70FFD8B2307F4FE2C
:102320000327C4FD93070008630DF7148327C4FD3A
:10233000958391E785451145EFE01FF261A883275A
:10234000C4FD13D7570085476317F700854521451E
:10235000EFE09FF041A08327C4FD13D757008947C2
:102360006317F70085454145EFE01FEFA5A08327E0
:10237000C4FD13D757008D476318F7008545130533
:102380000002EFE07FEDB9A08327C4FD13D757000B
:1023900091476318F700854513050004EFE0DFEB74
:1023A00015A88327C4FD13D7570095476318F70076
:1023B000854513050008EFE03FEA29A88327C4FDFF
:1023C00013D7570099476317F70085451305001089
:1023D000EFE09FE88347E4FE0547B317F700C20725
:1023E000C1832310F4FE032784FD85476317F7029A
:1023F000832704FDC207C183A183C207C18389E784
:102400008D472322F4FE11A8832704FDC207C18350
:10241000A183C207C1832322F4FE832704FDC207E0
:10242000C18393F7F70F2324F4FE0347F4FE91676B
:102430000A0793878777BA979C433E87930704FEE2
:10244000BE853A85EFE08FE6032784FD8547631B51
:10245000F7020347F4FE91670A0793878777BA97D5
:102460009C43BE868347E4FE0547B317F700C207C7
:10247000C183034774FD3A86BE853685EFE0BF858C
:1024800011A00100B250225445618280797106D6B4
:1024900022D40018232EA4FC232CB4FC232AC4FC31
:1024A00085450545EFE05FDB832644FD0146814518
:1024B0000325C4FD153D8327C4FD958313F7F70F4E
:1024C0008327C4FD93F7F70FFD8B93F7F70FBE85B6
:1024D0003A85EFE09F978327C4FDFD8B0547B3172F
:1024E000F7002320F4FE232204FE832784FD232407
:1024F000F4FE85472326F4FE930704FE3E85EFE0B5
:102500008FBC0100B250225445618280797106D699
:1025100022D40018232EA4FCAE873687A30DF4FC2A
:10252000B287230DF4FCBA87A30CF4FC8327C4FD07
:1025300093F7F70F2304F4FE8347B4FDA304F4FEDE
:102540008347A4FD2305F4FE834794FD2326F4FE70
:10255000930784FE3E85EFE05FA2B7E700E0984373
:10256000FD777D8F83A701855D8F23A8E184B7E781
:1025700000E0D843B7070010FD177D8F93870185D2
:10258000DC435D8F93870185D8C39387018503C79B
:10259000870085476313F70031200100B2502254B1
:1025A00045618280411122C60008B7E700E07D57EF
:1025B00023A0E718B7E700E07D5723A2E718010042
:1025C000324441018280411122C60008B7E700E091
:1025D00003A7018523A0E710B7E700E01387018573
:1025E000584323A2E71001003244410182800111C7
:1025F00006CE22CC00109387018505472384E7008F
:1026000083A7018581EB93870185DC4381E7A307DD
:1026100004FE21A08547A307F4FE69378347F4FE33
:102620003E85F240624405618280011106CE22CCD3
:102630000010AA87A307F4FE8347F4FE91E793876F
:1026400001852384070041370100F240624405619F
:102650008280011106CE22CC00102326A4FE232462
:10266000B4FE2322C4FE2320D4FE8327C4FE81EBC4
:1026700093068031054685451545BD3199A8032748
:10268000C4FEC147631BF7009306803105468545AC
:1026900013053002EFF05FC52DA80327C4FE930792
:1026A0000002631BF700930680310546854513053C
:1026B000D002EFF07FC331A89167938687159167A9
:1026C000138687789305D00291671385C715EF00AD
:1026D0005005032784FE8547631AF700930680316F
:1026E000054685451D45EFF03FC099A8032784FEA8
:1026F000C547631BF70093068031054685451305E2
:102700005002EFF07FBE2DA8032784FE930710022E
:10271000631BF70093068031054685451305F002DB
:10272000EFF09FBC31A89167938687159167138658
:1027300087789305200391671385C715EF00607EA6
:10274000032744FE8947631AF70093068031054644
:1027500085451945EFF05FB9B5A0032744FEC94789
:10276000631BF7009306803105468545130540023B
:10277000EFF09FB781A8032744FE93072002631B55
:10278000F70093068031054685451305E002EFF01A
:10279000BFB50DA8032744FE930730026317F70067
:1027A000930730022322F4FE31A8916793868715A0
:1027B0009167138687789305800391671385C71502
:1027C000EF0020769306003105468545032504FE7B
:1027D000EFF09FB10100F2406244056182805D71BB
:1027E00086C6A2C480082326A4FC2324B4FC23228A
:1027F000C4FC2320D4FC232EE4FA232A04FBA30DDB
:10280000F4FA8327C4FC81EB85458567138517009F
:10281000EFE09FA421A80327C4FC85476318F700B5
:102820008545916713851700EFE07FA78326C4FBDA
:10283000032604FC832544FC032584FC193D231E48
:1028400004FC93074010231FF4FC231004FE83476D
:10285000B4FB05476383E70205476344F70089CB70
:1028600081A009476381E7020D476384E7020DA851
:10287000231104FE231204FE25A0231104FE854724
:102880002312F4FE31A889472311F4FE231204FE1B
:1028900001A889472311F4FE85472312F4FE0100A5
:1028A000930700202313F4FE832744FBC207C18350
:1028B0008E07C207C1832314F4FE231504FE9D472F
:1028C0002316F4FE0327C4FC0A079387C180BA9736
:1028D0009C433E879307C4FDBE853A85EFE09FA0E9
:1028E000032784FCC1476316F70085450545EFE0E3
:1028F0000FC20327C4FC0A079387C180BA979C4381
:1029000085453E85EFE09FAD0100B64026446161FC
:102910008280011122CE00102326A4FE2324B4FEBF
:102920002322C4FE2320D4FE59A801000327C4FE9D
:102930000A079387C180BA979C4383D78700C20751
:10294000C183898BE5D7832784FE1387170023244F
:10295000E4FE83C607000327C4FE0A079387C180ED
:10296000BA979C433E8793970601C1832316F700CD
:10297000832744FEA9C701000327C4FE0A079387E3
:10298000C180BA979C4383D78700C207C183858BD8
:10299000E5D70327C4FE0A079387C180BA979C43F3
:1029A00083D7C70093960701C182832744FE13870C
:1029B00017002322E4FE13F7F60F2380E700832796
:1029C00004FE1387F7FF2320E4FEA5F30100724401
:1029D00005618280011122CE00102324A4FE23264B
:1029E000B4FE37F700E02320070037F700E02302AA
:1029F000070037F700E0A302070037F700E02303E2
:102A0000070037F700E0A303070037F700E02304CF
:102A1000070037F700E0A304070037F700E02305BD
:102A2000070037F700E0A305070037F700E0854609
:102A300014C3010037F700E011071843BA870148B3
:102A40000327C4FEC286636DD7000327C4FEC28677
:102A5000E312D7FE032784FEBE866363D700D9BF87
:102A60000100724405618280011106CE22CC001063
:102A70002326A4FE2324B4FE8327C4FE85E7032770
:102A800084FE85476310F702930680310146854531
:102A90002545EFF07F859146014681452945EFF0B8
:102AA000BF8465A00327C4FE89476312F70293061B
:102AB00080310146854513056002EFF0FF829146A3
:102AC0000146814513057002EFF01F82BDA8032760
:102AD000C4FEC1476310F702930680310146854565
:102AE0000945EFF07F809146014681450D45EFF0A5
:102AF000AFFFA1A80327C4FE930700026312F702E9
:102B000093068031014685451305A002EFF0CFFD05
:102B10009146014681451305B002EFF0EFFC35A068
:102B20000327C4FE930720026311F7029306803146
:102B3000014685451305A004EFF00FFB91460146C1
:102B400081451305B004EFF02FFA0100F240624412
:102B500005618280797106D622D40018232EA4FC48
:102B6000232CB4FC232AC4FC2328D4FC854505452A
:102B7000EFE08FEE832504FD032544FDF5350327A3
:102B800044FD8947631BF700032704FD8D47631647
:102B9000F70085451145EFE08F97032744FD930724
:102BA0002002631FF700032704FD93073002631917
:102BB000F7008545B707140013850701EFE02F954F
:102BC0008327C4FD91E785451165EFE0EFE835A067
:102BD0000327C4FD85476318F700854537050200C4
:102BE000EFE0EFEB19A80327C4FD89476317F7004F
:102BF000854537050400EFE08FEA832784FD232015
:102C0000F4FE231204FE231304FE231404FE2316F1
:102C100004FEB1472315F4FE91670327C4FD0A079C
:102C200093878779BA979C433E87930704FEBE85B6
:102C30003A85EFE03F8A91670327C4FD0A0793872F
:102C40008779BA979C4385453E85EFE0DFAB01006D
:102C5000B250225445618280011106CE22CC001070
:102C60002326A4FEAE87A305F4FE91670327C4FEC6
:102C70000A0793878779BA979C4305469305505274
:102C80003E85EFE05FAE8327C4FE9387570303477B
:102C9000B4FEBA86014685453E85EFF03F870100C8
:102CA000F240624405618280411106C622C40008D8
:102CB000B7170240DC43C98313F7F700B7177A0050
:102CC000938707203307F702B727F400938707405D
:102CD0003E9723AAE18285460146F1679385072046
:102CE00001458D3D0100B24022444101828079714D
:102CF00006D622D40018232EA4FC232CB4FC232AAD
:102D0000C4FC232604FE99A00100916783A787795C
:102D1000930500043E85EFE09FB6AA87FDD7916733
:102D200083A78779BE86832784FD13871700232C0A
:102D3000E4FC83870700C207C183BE853685EFE0C8
:102D4000DFAE8327C4FE85072326F4FE0327C4FED7
:102D5000832744FDE34AF7FA832744FD3E85B250BA
:102D6000225445618280011122CE0010232604FEE8
:102D7000232404FEB71702409443B717024041676B
:102D8000558F98C3B71702409843B7070200F98FD1
:102D90002324F4FE8327C4FE85072326F4FE83271D
:102DA00084FE99E70327C4FE93070050E31CF7FC59
:102DB000B71702409843B7070200F98F89C78547C4
:102DC0002324F4FE19A0232404FE032784FE854750
:102DD0006317F70CB72702409843B72702401367E1
:102DE000070198C3B72702409843B7270240719B59
:102DF00098C3B72702409843B727024013672700BC
:102E000098C337170240B71702405843D8C3371743
:102E10000240B71702405843D8C337170240B717CC
:102E200002405843D8C3B7170240D443B7170240F3
:102E30003707C1FF7D17758FD8C3B7170240D4433A
:102E4000B717024037072500558FD8C3B717024080
:102E50009443B717024037070001558F98C301000C
:102E6000B71702409843B7070002F98FF5DBB71791
:102E70000240D843B7170240719BD8C3B71702402E
:102E8000D843B717024013672700D8C30100B7170C
:102E90000240DC4313F7C700A147E31AF7FE010025
:102EA000724405618280411106C622C40008B7172A
:102EB00002409843B71702401367170098C3B7172B
:102EC0000240D443B71702403707FFF8758FD8C3C5
:102ED000B71702409443B71702403707F7FE7D1734
:102EE000758F98C3B71702409443B717024037074E
:102EF000FCFF7D17758F98C3B7170240D443B717EF
:102F00000240370781FF7D17758FD8C3B71702407E
:102F100037079F0098C7813D0100B240224441011C
:102F20008280938781809C434111328806C6AA889B
:102F30002E87C84736869727000093872787631711
:102F4000080097270000938727873E88C686972525
:102F500000009385A5861920EF00F00A397132D45C
:102F600036D63EDA3AD842DC46DE938781802E861A
:102F7000AA858843341006CE36C68D28F2402161DA
:102F800082801C46FD171CC663D90700184E63C516
:102F9000E700A9476393F5004DA51C422E851387D2
:102FA000170018C22380B7008280011122CC26CAE4
:102FB0004AC84EC652C406CE2A89AE893284B304AA
:102FC000D6007D5A63149400014509A88345040086
:102FD0004E864A857D370504E31645FFF24062447C
:102FE000D2444249B249224A05618280357122CDDC
:102FF00026CB4AC94EC706CF52C556C35AC1DEDEDC
:10300000E2DCE6DAAA89AE843289368409C51C4D31
:1030100099E3EF00D025972700009387E782639C10
:10302000F40C83A4490083D7C400A18BFDC79C483E
:10303000EDC793070002A304F1029307000302D235
:103040002305F10222C6930B5002971A0000938ABF
:10305000EA79054C294B4A848347040099C363905D
:10306000770FB30C2441638D0C00E6864A86A68553
:103070004E85253FFD576308F51E9256E69636D2DB
:10308000834704006381071EFD571309140002C81B
:1030900002CE3ECA02CCA309010482D483450900B2
:1030A00015465685EF00D04213041900C24751E976
:1030B00013F7070109C713070002A309E10413F777
:1030C000870009C71307B002A309E104834609007A
:1030D0001307A002638FE606F2474A84814625461D
:1030E0000347040093051400130707FD6378E60AFD
:1030F000ADCA3ECEBDA0971700009387E7766395D3
:10310000F40083A4890005B7971700009387C7715F
:10311000E39BF4F083A4C90039B7A6854E85F12B53
:1031200009D97D55FA406A44DA444A49BA492A4ADB
:103130009A4A0A4BF65B665CD65C0D618280050498
:1031400021BF330555413315AC00C98F3EC82289D4
:10315000B1B7324793064700184336C663490702A2
:103160003ACE034704009307E002631FF7040347C6
:1031700014009307A002631BF702B24709041387E8
:1031800047009C433AC663C107023ECA35A83307CD
:10319000E04093E727003ACE3EC8E1B7B387670324
:1031A00085462E84BA972DBFFD57C5B7050402CAC0
:1031B0008146814725460347040093051400130701
:1031C00007FD6378E606F1F2834504000D46171506
:1031D000000013052562EF00B02F11CD97170000F6
:1031E000938747611D8D93070004B397A70042455D
:1031F00005045D8D2AC88345040019461715000093
:103200001305855F130914002304B102EF00502C4D
:103210003DC197D7FFFF9387E7DE95E74247B24767
:103220001377071009CF91073EC69257D2973ED227
:103230001DB5B387670385462E84BA97ADBF9D073A
:10324000E19BA107D5B7780097060000938626D6A4
:1032500026860C084E8597000000E7000000FD5709
:103260002A8AE314F5FC83D7C40093F70704E39A92
:1032700007EA125545BD780097060000938626D3CD
:1032800026860C084E85012AD9BF797156CA9C49F9
:10329000BA8A984522D426D24ECE52CC06D64AD0EF
:1032A0005AC85EC6AA892E84B284368A63D3E700E0
:1032B000BA879CC00347340419C385079CC01C40CF
:1032C00093F7070281C79C4089079CC0032904002B
:1032D00013796900631A0900130B9401FD5B5C44C8
:1032E0009840998F634CF9041C408346340493F74B
:1032F0000702B336D000A5EB13063404D2854E8501
:10330000829AFD576303F5041C4011469840998B3F
:10331000544481446397C700B384E64063D30400F8
:1033200081441C4418486354F700998FBE940149A6
:1033300069047D5B63982405014509A885465A8682
:10334000D2854E85829A631E75017D55B2502254F6
:1033500092540259F249624AD24A424BB24B4561F9
:1033600082800509ADBF3307D40013060003A30113
:10337000C7040347540493871600A2978906A381C4
:10338000E7049DBF85462286D2854E85829AE30E4C
:1033900065FB050945B7797122D426D24AD04ECEB5
:1033A00006D652CC56CA5AC8B68983C68501930739
:1033B000E0063289AA842E84138635046381F61EC2
:1033C00063E2D706930730066382F60A63EDD700FF
:1033D000638B061E930780056387F616930A240401
:1033E0002301D40469A8930740066386F600930777
:1033F0009006E395F6FE1C40084393F607089305F4
:103400004500C1C21C410CC363D807001307D0029A
:10341000B307F040A301E404971600009386463EEC
:10342000294765A0930730076383F61A63EFD70037
:103430009307F006638FF60493070007E390F6FA0C
:103440009C4193E707029CC109A893075007638238
:10345000F60493078007E393F6F893078007A30227
:10346000F404971600009386E63AE5A01C43938A7D
:103470002504938647009C4314C32381F5048547A4
:10348000B5A293F607041C410CC3BDDEC207C18779
:10349000A5BF0C401C4313F80508138547006305BE
:1034A000080008C39C4339A093F5050408C3FDD95F
:1034B00083D707001307F006638BE60C971600000E
:1034C000938606342947A30104044C400CC463C509
:1034D000050008406D9908C099E3B28A91CDB28A7F
:1034E000B3F5E702FD1AB69583C505002380BA003F
:1034F000B3D5E70263F3E70AA147631EF7001C4058
:10350000858B91CB58401C4863C7E70093070003A5
:10351000A38FFAFEFD1A3306564110C84E87CA869D
:103520007000A2852685EFF05FD67D5A6314450DA5
:103530007D55B250225492540259F249624AD24AFD
:10354000424B45618280A382D50497160000938682
:10355000262B0C40084313F805081C411105630095
:10356000080208C313F7150001C793E505020CC054
:103570004147B1FB0C4093F5F5FD0CC0A9B713F81A
:10358000050408C3E30008FEC207C183E1BF971624
:1035900000009386E62621473DB7AE8791B7944158
:1035A0001C43CC4913F8060813854700630608003E
:1035B00008C39C438CC301A808C393F606049C432C
:1035C000F5DA2390B70023280400B28A81BF1C4398
:1035D000D04181459386470014C383AA07005685CE
:1035E000C52D01C53305554148C05C401CC8A30129
:1035F00004042DB714485686CA8526858299E309A6
:1036000045F31C40898B8DE7B2474844E353F5F2FC
:103610003E8505B785465686CA8526858299E30983
:1036200065F1050A5C443247998FE345FAFEE9BF2C
:10363000014A930A94017D5BF5B7011122CC26CA99
:103640004AC806CE4EC6AA842E89328401C51C4DB6
:1036500091E33129971700009387071F6319F40638
:10366000C0401C4C1CC48357C400A18BC9C31C4858
:10367000BDCF1C4808409379F90F1379F90F1D8DC0
:103680005C486346F500A2852685D9242DE51C44B7
:103690000505FD171CC41C401387170018C02380A4
:1036A00037015C486389A7008357C400858B81CBB1
:1036B000A9476316F900A2852685592C0DEDF24025
:1036C00062444A85D2444249B249056182809717D3
:1036D0000000938767196314F400804459B7971763
:1036E000000093876714E31EF4F6C0449DBFA285D3
:1036F000268521203DDD7D59D9B7411193878180F1
:1037000026C2844322C44AC006C62A892E8489C49C
:103710009C4C99E32685A12E971700009387C7122A
:10372000631CF402C0400317C40093170701C18350
:1037300093F68700B5EE93F607019DEEA54723208B
:10374000F900136707042316E4007D55B2402244B4
:103750009244024941018280971700009387C71065
:103760006314F4008044C1B7971700009387C70B18
:10377000E31BF4FAC04445BF918B8DC74C5889C9EF
:10378000930744046384F5004A858523232A0402B1
:103790008357C4002322040093F7B7FD2316F400D7
:1037A0001C481CC08357C40093E787002316F4000D
:1037B0001C4881EF8357C4001307002093F70728A4
:1037C0006385E700A2854A85B5218357C40013F7B6
:1037D000170005C75C4823240400B307F0401CCC45
:1037E0001C480145A5F78317C40013F7070839DF04
:1037F00093E707042316F40089BF898B014791E3FF
:10380000584818C4F1BF4111194506C6E92D0545B0
:10381000EF00F01383D7C500011122CC26CA06CED3
:103820004AC84EC613F78700AA842E8471EFD84188
:10383000634DE000B841634AE0000145F240624454
:10384000D2444249B2490561828058547DD703A9C8
:1038500004009396370123A0040063DD0606704838
:103860008357C400918B99C75C401D8E5C5899C3E7
:103870003C401D8E5C540C50814626858297FD5736
:103880000357C400631DF5009440F54763E8D7066D
:10389000B70740208507B3D7D700858BA5C31C4841
:1038A000232204001CC09317370163D80700FD577B
:1038B0006314F5009C4091E368C84C5823A0240190
:1038C000ADDD930744046384F50026853929232A56
:1038D0000402A5B70C500146854626850297FD5780
:1038E0002A86E31FF5F69C40A5DF75476385E70050
:1038F00059476394E70423A0240181B713670704A1
:103900002316E4007D551DBF83A90501E38709F255
:1039100003A905008D8B23A03501330939410147E7
:1039200091E3D84918C4E35A20F11C540C50CA86BC
:103930004E86268582976349A0008357C40093E78B
:1039400007042316F4007DBFAA993309A940E1BFFB
:103950009C49B9CF011122CC06CE2A8411C51C4D39
:1039600081E72EC62922B245971700009387C7ED3D
:10397000639BF5004C408397C50095C72285624440
:10398000F240056141BD971700009387E7ED63940E
:10399000F5000C44CDB7971700009387E7E8E39C48
:1039A000F5FC4C44C9BFF240624401450561828088
:1039B00001458280411122C406C62A842316B5001F
:1039C0002317C5002320050023220500232405001A
:1039D0002322050623280500232A0500232C0500A1
:1039E000214681451305C505EFC08FF597070000F7
:1039F000938707535CD097070000938767551CD4C3
:103A0000970700009387A7595CD497070000938716
:103A1000675C00D01CD8B2402244410182809705E7
:103A20000000938525F3A9A2411126C21306800642
:103A30009384F5FFB384C4024AC02E8922C406C60B
:103A400093854407A9262A8401CD2320050023223B
:103A50002501310508C4138684068145EFC04FEE69
:103A60002285B240224492440249410182801C4D89
:103A7000ADE3411106C622C497070000938767FA99
:103A80001CD5938741819C432324050423260504E8
:103A9000232805046314F50085471CCD2A841D28BE
:103AA00048C02285052808C422852D2048C44840E6
:103AB00001469145013708440546A545E53D484482
:103AC0000946C945C53D85471CCCB2402244410149
:103AD0008280828041119387418126C284434AC0FB
:103AE00006C69C4C22C42A8999E3268549379384CB
:103AF00084048044DC40FD1763D607009C40B9CFA6
:103B00008440C5BF0317C40039E7C1778507232266
:103B100004062320040023220400232404005CC4A0
:103B200023280400232A0400232C04002146814575
:103B30001305C405EFC0CFE0232A0402232C04029E
:103B400023240404232604042285B2402244924400
:103B50000249410182801304840671BF91454A8560
:103B6000E13588C051FDB1472320F9000144E9BF88
:103B7000797122D44AD052CC56CA5AC85EC606D6EB
:103B800026D24ECE2A8AAE8A130485040149054BFB
:103B9000FD5B09ECB25022544A8592540259F24915
:103BA000624AD24A424BB24B456182800444832927
:103BB0004400FD1963D409000040E1BF83D7C4006D
:103BC000637BFB008397E40063877701A6855285BA
:103BD000829A3369A90093848406E1BF1971A6DA39
:103BE000AE848395E500A2DC86DE328463DC0500CA
:103BF00083D7C40023A0060093F707089DE393072B
:103C0000004015A0300836C61521B246E34205FE35
:103C10007247BD67F98F7977BA9793B717009CC23F
:103C2000F9BF930700041CC0F6506654D6540145F2
:103C30000961828083D7C500011122CC06CE26CA35
:103C40004AC8898B2E8489CF930774041CC01CC872
:103C500085475CC8F2406244D24442490561828093
:103C600074003000AA849D3FA2452A89268505223A
:103C700001ED8317C40013F7072069FFF19B93E759
:103C800027002316F400C9B797070000938767D968
:103C90009CD48357C40008C008C893E707082316BC
:103CA000F400A2475CC8B24789CF8315E40026859B
:103CB0005D2601C98357C400F19B93E717002316C3
:103CC000F4008357C4003369F9002316240159B75F
:103CD00093F5F50F2A966314C5000145828083474A
:103CE0000500E38DB7FE0505FDB7CDC183A7C5FF70
:103CF000411122C406C626C21384C5FF63D3070040
:103D00003E94AA845D26938781839C4399EB23226A
:103D1000040023AC81822244B240268592444101B2
:103D200071A6637EF40014403307D4006396E70065
:103D30009843DC43369718C05CC0E1BFBA87D843CC
:103D400019C3E37DE4FE94433386D700631F8600E6
:103D50001040B29694C33386D700E31EC7FA1043CF
:103D60005843B29694C3D8C37DB76375C400B147B6
:103D70009CC055B71040B306C4006316D700144367
:103D80005843B29614C058C0C0C371B782800111A5
:103D900026CA93843500F19806CE22CC4AC84EC676
:103DA000A104B14763F1F404B14463E0B4042A8987
:103DB000ED2C9387818398433A8431E09387C183C4
:103DC0009C4391E781454A85512823AEA182A6856F
:103DD0004A856920FD5963173507B1472320F9004B
:103DE0004A85E92429A0E3D204FCB1471CC101455E
:103DF000F2406244D2444249B249056182801C408B
:103E0000858F63CE0702AD4663F6F6001CC03E9474
:103E100004C031A05C406312870223ACF1824A8562
:103E200071241305B4009307440061993307F540EA
:103E300061D33A94898F1CC065BF5CC3CDB722871C
:103E40004040A5BF130435007198E30385FCB3051A
:103E5000A4404A852120E31D35FB41B7411122C40E
:103E60002A842E8523AE018406C6D124FD5763170C
:103E7000F5009387C1859C4391C31CC0B240224486
:103E800041018280FD4763F6B700D9471CC17D55CB
:103E900082807C41011122CC06CE2E862A8491C7D5
:103EA00013972500BA97984319EB228532C6B5209F
:103EB000AA85228562443246F240056115A88546EE
:103EC00001456308D700FD566319D700D9471CC0C8
:103ED0000545F2406244056182802E8523A00700DB
:103EE00002970145FDB793878180AA85884359BF12
:103EF000411122C42A842E85B28523AE018406C6D0
:103F00002924FD576317F5009387C1859C4391C30E
:103F10001CC0B240224441018280E1AA411122C466
:103F20002E848395E50006C65922634905007C4826
:103F3000AA977CC8B2402244410182808357C400C2
:103F40007D777D17F98F2316F400EDB783D7C50071
:103F5000011122CC26CA4AC84EC606CE93F70710D6
:103F6000AA842E843289B68991C78395E500894653
:103F7000014631228357C4007D777D17F98F2316C0
:103F8000F4008315E4006244F240CE864A86B249CA
:103F900042492685D24405613DA8411122C42E84A0
:103FA0008395E50006C6E128FD570357C400631B4F
:103FB000F500FD77FD17F98F2316F400B240224477
:103FC000410182808567D98F2316F40068C8FDB748
:103FD0008395E50005A8411122C42A842E85B28567
:103FE000368623AE018406C6EFE07FD0FD57631707
:103FF000F5009387C1859C4391C31CC0B240224405
:1040000041018280411122C42A842E8523AE01847D
:1040100006C6E120FD576317F5009387C1859C43D1
:1040200091C31CC0B240224441018280411122C48C
:104030002A842E85B28523AE018406C66D20FD57E5
:104040006317F5009387C1859C4391C31CC0B240A0
:10405000224441018280411122C42A842E8523AE4C
:10406000018406C66928FD576317F5009387C1854B
:104070009C4391C31CC0B240224441018280411143
:1040800022C42A842E85B285368623AE018406C6D4
:104090005920FD576317F5009387C1859C4391C351
:1040A0001CC0B24022444101828082808280411142
:1040B00022C42A842E85B285368623AE018406C6A4
:1040C0008D20FD576317F5009387C1859C4391C3ED
:1040D0001CC0B2402244410182809307800523AE78
:1040E000F1847D5582809307800523AEF1847D5550
:1040F00082809307800523AEF1847D5582809307EB
:10410000800523AEF184014582809307800523AEAC
:10411000F1847D5582809307800523AEF1847D551F
:1041200082809307800523AEF1847D55828093873A
:1041300001849C4391C73E9523A0A1843E85828043
:10414000938701863E9523A0A1843E85828001A0AD
:104150006D61737465720000300000002E2E2F4CCC
:1041600069627261726965732F7365656B667265EA
:10417000655F6C69627261726965732F7A665F73DD
:1041800070692E63000000000000000000000000C5
:1041900000000000000000000000000808080808F7
:1041A000080800000808000000482424120000004D
:1041B00000000000000000000000004848487E2485
:1041C00024247E24242400000000103C5252121C9F
:1041D00030505052523C1010000000222515150D91
:1041E0002A585454522200000000000C1212120AE5
:1041F00076252919916E00000006040402000000D3
:104200000000000000000000004020101008080816
:1042100008080810102040000002040808101010C0
:1042200010101008080402000000000008086B1CB1
:104230001C6B0808000000000000000000101010B7
:10424000FE10101000000000000000000000000040
:10425000000000000604040200000000000000004E
:104260007E000000000000000000000000000000D0
:104270000000000006060000000040202020101072
:104280000808080404020200000000182442424208
:104290004242424224180000000000101C1010107E
:1042A00010101010107C00000000003C4242424000
:1042B00020100804427E00000000003C42424020E2
:1042C00018204042423C00000000002030302824EA
:1042D0002422FE2020F800000000007E0202021EC0
:1042E00022404042221C0000000000182402023A32
:1042F00046424242443800000000007E4220201026
:1043000010080808080800000000003C424242244F
:1043100018244242423C00000000001C224242425B
:10432000625C4040241800000000000000001818E3
:104330000000000018180000000000000000000845
:1043400000000000000808080000004020100804D9
:1043500002040810204000000000000000007E0061
:10436000007E000000000000000000020408102091
:1043700040201008040200000000003C4242462099
:1043800010101000181800000000001C225A55558B
:104390005555553A423C0000000000080818141416
:1043A000243C224242E700000000001F2222221E7D
:1043B00022424242221F00000000007C42420101D2
:1043C00001010142221C00000000001F2242424263
:1043D00042424242221F00000000003F4212121ED1
:1043E00012120242423F00000000003F4212121E21
:1043F00012120202020700000000003C222201010A
:1044000001712122221C0000000000E742424242CA
:104410007E42424242E700000000003E08080808D1
:1044200008080808083E00000000007C101010106A
:10443000101010101010110F0000007722120A0E39
:104440000A12122222770000000000070202020274
:1044500002020202427F0000000000773636363644
:10446000362A2A2A2A6B0000000000E346464A4A00
:1044700052525262624700000000001C224141413A
:1044800041414141221C00000000003F42424242A3
:104490003E020202020700000000001C22414141CE
:1044A0004141414D321C60000000003F4242423E0B
:1044B0001212222242C700000000007C4242020485
:1044C00018204042423E00000000007F49080808D2
:1044D00008080808081C0000000000E742424242A9
:1044E00042424242423C0000000000E74242222495
:1044F00024141418080800000000006B2A2A2A2A35
:104500002A36141414140000000000E74224241872
:104510001818242442E70000000000772222141417
:1045200008080808081C00000000007E2120101068
:1045300008040442423F0000007808080808080800
:1045400008080808080878000000020404040808A5
:104550000810102020204040001E101010101010D5
:104560001010101010101E00001824000000000091
:10457000000000000000000000000000000000003B
:1045800000000000000000FF00060800000000001E
:104590000000000000000000000000000000001CFF
:1045A00022302C22326C0000000000000302021AAC
:1045B00026424242261A0000000000000000003897
:1045C0004402020244380000000000006040407CC9
:1045D0004242424262DC0000000000000000003C59
:1045E00042427E02423C0000000000003048083E8B
:1045F00008080808083E0000000000000000007CD9
:1046000022221C023C42423C000000000302023A0B
:104610004642424242E700000000000C0C00000E3F
:1046200008080808083E000000000030300000388C
:10463000202020202020221E000000000302027201
:10464000120A0E1222770000000000080E08080867
:1046500008080808083E0000000000000000007F75
:104660009292929292B70000000000000000003B7E
:104670004642424242E70000000000000000003CC9
:1046800042424242423C0000000000000000001B89
:1046900026424242261A020700000000000000588D
:1046A00064424242645840E000000000000000778D
:1046B0004C040404041F0000000000000000007C03
:1046C00042023C40423E0000000000000008083E5C
:1046D00008080808483000000000000000000063DF
:1046E0004242424262DC000000000000000000770D
:1046F000222214140808000000000000000000DB63
:1047000091525A2A24240000000000000000006E8C
:10471000241818182476000000000000000000E7AC
:104720004224241818080806000000000000007E3B
:1047300022100808447E000000C0202020202020F5
:10474000102020202020C000101010101010101079
:1047500010101010101010100003040404040404BE
:104760000804040404040300045A200000000000AC
:10477000000000000000000000080140000C0140A3
:1047800000100140001401407370695F6770696F29
:104790005F696E6974000000003801400044004009
:1047A00000480040004C00402C2066756E63746920
:1047B0006F6E3A2000000000617373657274696F58
:1047C0006E2022257322206661696C65643A20663A
:1047D000696C6520222573222C206C696E6520256A
:1047E00064257325730A0000232D302B2000000060
:1047F000686C4C00656667454647000030313233CF
:1048000034353637383941424344454600000000CC
:104810003031323334353637383961626364656636
:104820000000000000000000000000000000000088
:104830000000000000000000000000000000000078
:104840000000000000000000000000000000000068
:104850000000000000000000000000000000000058
:104860000000000000000000000000000000000048
:104870000000000000000000000000000000000038
:044880000000000034
:1048840000000000010203040102030406070809F2
:104894000000000044480000644800002448000070
:1048A4000000000000000000000000000000000004
:1048B40000000000000000000000000000000000F4
:1048C40000000000000000000000000000000000E4
:1048D40000000000000000000000000000000000D4
:1048E40000000000000000000000000000000000C4
:1048F40002040608010000001000002000300140FE
:08490400003800401000002003
:00000001FF
