:100000006F00806213000000130000001300000066
:100010001300000013000000130000001300000094
:100020001300000013000000130000001300000084
:08003000130000007300100032
:100038006FF09FFC000000006F00C04F6F00805001
:1000480000000000000000000000000000000000A8
:100058000000000000000000000000000000000098
:100068006FF09FF9000000006FF01FF9000000001A
:100078006FF09FF86FF05FF86FF01FF86FF0DFF721
:100088006FF09FF76FF05FF76F0080156F004016F5
:100098006F00A01A6F00C01B6F00801C6FF0DFF5A7
:1000A8006FF09FF56FF05FF56F0060446FF0DFF45D
:1000B8006FF09FF46FF05FF46F00801D0000000088
:1000C8000000000000000000000000006F00401A5F
:1000D8006F00001D6F0000206F00C0226F00002815
:1000E8006F00C0306F0000336F00C0356FF0DFF075
:1000F8006FF09FF06FF05FF06FF01FF06FF0DFEFC1
:100108006FF09FEF6F0000376F00C0376F00203D22
:100118006F0000176FF05FEE6FF01FEE6FF0DFED0E
:1001280000000000000000000000000000000000C7
:080138000000000000000000BF
:100140003D432A876373C3029377F700BDEFADE5A4
:10015000937606FF3D8ABA960CC34CC30CC74CC7B6
:100160004107E36BD7FE11E28280B306C3408A06E3
:100170009702000096966780A6002307B700A306A3
:10018000B7002306B700A305B7002305B700A304F3
:10019000B7002304B700A303B7002303B700A302EB
:1001A000B7002302B700A301B7002301B700A300E3
:1001B000B7002300B700828093F5F50F9396850072
:1001C000D58D93960501D58D61B79396270097023B
:1001D000000096968682E78086FA9680C1171D8F6A
:1001E0003E96E374C3F8A5B7411122C6000801008A
:1001F0003244410173002030411122C600080945F4
:10020000EF00B01E2A8785476318F702B707002062
:1002100003A7470F89476315F700EF20301911A88E
:10022000B707002003A7470F85476314F700EF20A7
:10023000B00A0945EF00D0200100324441017300AB
:100240002030411122C600081145EF00701F010047
:100250003244410173002030411122C600080100E0
:100260003244410173002030411122C600080100D0
:100270003244410173002030411122C600080100C0
:100280003244410173002030411122C600080100B0
:100290003244410173002030411122C600080100A0
:1002A0003244410173002030411122C600089305F9
:1002B0000008B7370140138507C0EF10A073AA8765
:1002C00089CB93050008B7370140138507C0EF10AD
:1002D000607901003244410173002030411122C68F
:1002E00000088545B7370140138507C0EF108070BF
:1002F000AA8781CB8545B7370140138507C0EF102A
:10030000607601003244410173002030411122C661
:10031000000893050004B7370140138507C0EF10AC
:10032000606DAA8789CB93050004B7370140138518
:1003300007C0EF10207393050002B7370140138503
:1003400007C0EF10206BAA8789CB93050002B7374F
:100350000140138507C0EF10E070010032444101F5
:1003600073002030411122C600088945B73701408B
:10037000138507C0EF100068AA8781CB8945B7377E
:100380000140138507C0EF10E06D9145B73701407C
:10039000138507C0EF100066AA8781CB9145B73758
:1003A0000140138507C0EF10E06BA145B73701404E
:1003B000138507C0EF100064AA8781CBA145B7372A
:1003C0000140138507C0EF10E069C145B737014010
:1003D000138507C0EF100062AA8781CBC145B737EC
:1003E0000140138507C0EF10E0670100324441016E
:1003F00073002030411122C60008854537050040B2
:10040000EF10405FAA8791C7854537050040EF1080
:10041000606501003244410173002030411122C661
:1004200000088545B707004013850740EF10805C42
:10043000AA8781CB8545B707004013850740EF1099
:10044000606201003244410173002030411122C634
:1004500000088545B717004013850780EF108059C5
:10046000AA8781CB8545B717004013850780EF1019
:10047000605F01003244410173002030411122C607
:10048000000801003244410173002030411122C6AE
:10049000000893055052B747004013850740EF10FE
:1004A000101CAA8785CF93055052B747004013858B
:1004B0000740EF10F02AB707002003A7470F89472E
:1004C0006315F700EF20806711A8B707002003A786
:1004D000470F85476314F700EF20802A010032445C
:1004E000410173002030411122C60008010032444E
:1004F000410173002030411122C600080965E52141
:100500002A8785476317F7020965252BB70700205F
:1005100003A7470F89476315F700EF20806C11A8E8
:10052000B707002003A7470F85476314F700EF20A4
:10053000005E01003244410173002030411122C6A7
:10054000000801003244410173002030411122C6ED
:10055000000801A0011106CE22CC4ACA4EC852C6DC
:1005600056C40010EF203047EF30603D03A7818371
:100570008967938707F43357F7029307C012B307CD
:10058000F7023E8A814A5285D685EF304004EF104B
:10059000304CA9671386078981450145EF20200467
:1005A000A9671386478A85450145EF204003EF2060
:1005B000A04AA9671386478B85450145EF20200295
:1005C00003A781838967938707F43357F70293075B
:1005D000401FB307F7023E8981494A85CE85EF2047
:1005E000107FEF30A05D0145EF20704383C7D182BB
:1005F000F5DFA3860182EF30C06FEF500031EF309E
:10060000407FEF30B07CEF40605D13070008930639
:10061000000A1306C00393050005B72700201385C1
:100620008773EF208003D9B7970100209381812C35
:10063000175100201301019D17A50000130505D6D1
:10064000970500209385059C1386818263FAC50077
:100650008322050023A0550011059105E3EAC5FE9C
:100660001385818297350020938585396377B5009E
:10067000232005001105E36DB5FE9302800873A0E9
:100680000230970200009382629B93E21200739003
:100690005230EF30C04A970200009382E2EB739031
:1006A000123473002030011122CE00102326A4FE44
:1006B0008327C4FE9843C167F9177D8F8327C4FE43
:1006C00098C38327C4FE23A007008327C4FE23A268
:1006D00007008327C4FE23A407008327C4FE23A6A4
:1006E00007000327C4FEB7070240A107631BF700FA
:1006F000B7070240D843B70702401367F700D8C3D3
:1007000075A20327C4FEB7070240F107631BF70079
:10071000B7070240D843B70702401367070FD8C393
:1007200071A20327C4FEB707024093870703631D26
:10073000F700B7070240D443B70702400567130725
:1007400007F0558FD8C39DA20327C4FEB707024008
:1007500093874704631BF700B7070240D443B707EA
:1007600002403D67558FD8C391A20327C4FEB70747
:10077000024093878705631CF700B7070240D44304
:10078000B707024037070F00558FD8C305A20327CC
:10079000C4FEB70702409387C706631CF700B7077C
:1007A0000240D443B70702403707F000558FD8C343
:1007B000F5A80327C4FEB707024093870708631C08
:1007C000F700B7070240D443B70702403707000FCE
:1007D000558FD8C3E1A80327C4FEB707024093870B
:1007E0008740631FF700B707024093870740D8434D
:1007F000B7070240938707401367F700D8C37DA06F
:100800000327C4FEB70702409387C741631FF70061
:10081000B707024093870740D843B7070240938742
:1008200007401367070FD8C351A00327C4FEB707BB
:100830000240938707436311F702B707024093878B
:100840000740D443B7070240938707400567130763
:1008500007F0558FD8C399A80327C4FEB7070240F5
:1008600093874744631FF700B70702409387074009
:10087000D443B7070240938707403D67558FD8C3DD
:1008800035A00327C4FEB707024093878745631F3F
:10089000F700B707024093870740D443B7070240E9
:1008A0009387074037070F00558FD8C30100724464
:1008B00005618280797122D60018232EA4FC232C96
:1008C000B4FC232604FE8327C4FD9C432326F4FEA8
:1008D0000327C4FEE177BD07F98F2326F4FE8327A3
:1008E00084FD9847832784FD9C535D8F832784FD77
:1008F0009C4B5D8F832784FDDC4B5D8F832784FDBC
:100900009C4F5D8F832784FDDC4F5D8F832784FDA3
:10091000DC535D8F832784FD9C57D98F0327C4FE4A
:10092000D98F2326F4FE8327C4FD0327C4FE98C372
:10093000832784FDD8478327C4FDD8C3832784FD3C
:1009400098438327C4FD98C7832784FDD843832712
:10095000C4FDD8C70100325445618280011122CE06
:1009600000102326A4FE2324B4FE832784FE91CB0B
:100970008327C4FE9C4313E717008327C4FE98C354
:1009800011A88327C4FE9843C167F9177D8F832779
:10099000C4FE98C30100724405618280011122CE19
:1009A00000102326A4FE2324B4FE2322C4FE8327A2
:1009B00044FE99CB8327C4FE9843832784FE5D8F32
:1009C0008327C4FE98C321A88327C4FE98438327A6
:1009D00084FE93C7F7FF7D8F8327C4FE98C3010071
:1009E000724405618280797122D60018232EA4FCFE
:1009F000232604FE232404FE0327C4FDB7070010AA
:100A0000F98F89CBB7070240938707409C43232483
:100A1000F4FE31A0B70702409C432324F4FE0327D1
:100A200084FE8327C4FDF98F89C785472326F4FEFA
:100A300019A0232604FE8327C4FE3E853254456157
:100A40008280011122CE00102326A4FE0327C4FEBB
:100A5000B7070010F98F89CBB7070240938707408B
:100A60000327C4FED8C331A0B70702400327C4FE42
:100A7000D8C30100724405618280797122D60018C2
:100A8000232EA4FC232604FEB707014093870740CA
:100A90002326F4FE8327C4FDDC4763800712B707D3
:100AA00001409387074094438327C4FD9C4313C7A9
:100AB000F7FFB707014093870740758F98C3B707C3
:100AC000014093870740D4438327C4FD9C4313C749
:100AD000F7FFB707014093870740758FD8C3832777
:100AE000C4FDDC430327C4FEBA972326F4FE832704
:100AF000C4FE94438327C4FD98438327C4FE558FC7
:100B000098C3B70701409387074094478327C4FDE4
:100B10009C4313C7F7FFB707014093870740758FC2
:100B200098C7B707014093870740D4478327C4FD80
:100B30009C4313C7F7FFB707014093870740758FA2
:100B4000D8C78327C4FD9847C147631FF702B7077B
:100B500001409387074094478327C4FD9843B70714
:100B6000014093870740558F98C7B7070140938787
:100B70000740D4478327C4FD9843B70701409387B4
:100B80000740558FD8C7B1A8B707014093870740E2
:100B90002326F4FE8327C4FD9C470327C4FEBA978F
:100BA0002326F4FE8327C4FE94438327C4FD984381
:100BB0008327C4FE558F98C32DA08327C4FDDC4333
:100BC0000327C4FEBA972326F4FE8327C4FE94436A
:100BD0008327C4FD9C4313C7F7FF8327C4FE758F8B
:100BE00098C30100325445618280797122D6001881
:100BF000232EA4FC232604FE232404FEB707014071
:100C0000938707409C430327C4FDF98F2324F4FEF8
:100C1000B707014093870740D84B8327C4FDF98F5E
:100C200081CB832784FE89C785472326F4FE19A03C
:100C3000232604FE8327C4FE3E853254456182800C
:100C4000011122CE00102326A4FEB707014093878E
:100C500007400327C4FED8CB01007244056182809F
:100C6000397122DE80002326A4FC2324B4FC232631
:100C700004FE232004FE232404FE232E04FC23224E
:100C800004FE232C04FC832784FC9C47BD8B232675
:100C9000F4FE832784FC9C47C18B89CB832784FC8B
:100CA000DC430327C4FED98F2326F4FE832784FC6C
:100CB00083D7070093F7F70FF1CF8327C4FC9C433A
:100CC0002322F4FE232404FE65A8832784FE05471F
:100CD000B317F700232EF4FC832784FC83D7070087
:100CE0003E878327C4FDF98F2320F4FE032704FEEB
:100CF0008327C4FD6311F708832784FE8A07232E08
:100D0000F4FC8327C4FD3D47B317F700232CF4FC04
:100D1000832784FD93C7F7FF032744FEF98F23221F
:100D2000F4FE8327C4FD0327C4FEB317F70003278F
:100D300044FED98F2322F4FE832784FC984793072F
:100D40008002631BF700832784FE05473317F700F3
:100D50008327C4FCD8CB05A0832784FC984793073E
:100D60008004631AF700832784FE05473317F700D2
:100D70008327C4FC98CB832784FE85072324F4FEB5
:100D8000032784FE9D47E3F2E7F48327C4FC03278F
:100D900044FE98C3832784FC03D707009307F00F12
:100DA00063F1E70E8327C4FCDC432322F4FE2324F3
:100DB00004FE75A8832784FEA1070547B317F70033
:100DC000232EF4FC832784FC83D707003E878327E8
:100DD000C4FDF98F2320F4FE032704FE8327C4FDFE
:100DE0006312F708832784FE8A07232EF4FC8327E7
:100DF000C4FD3D47B317F700232CF4FC832784FD83
:100E000093C7F7FF032744FEF98F2322F4FE8327BD
:100E1000C4FD0327C4FEB317F700032744FED98F90
:100E20002322F4FE832784FC984793078002631BE8
:100E3000F700832784FEA10705473317F7008327B0
:100E4000C4FCD8CB832784FC984793078004631B9A
:100E5000F700832784FEA10705473317F700832790
:100E6000C4FC98CB832784FE85072324F4FE032744
:100E700084FE9D47E3F0E7F48327C4FC032744FE88
:100E8000D8C30100725421618280011122CE00106A
:100E90002326A4FEAE872322C4FE2315F4FE832757
:100EA00044FE99C70357A4FE8327C4FE98CB31A004
:100EB0000357A4FE8327C4FED8CB0100724405610A
:100EC0008280797122D60018232EA4FC232CB4FC36
:100ED000232404FE232204FE232604FE232004FEF2
:100EE0008327C4FD63D80700B7070140DC4F2326E2
:100EF000F4FE31A0B7070140DC432326F4FE83272C
:100F0000C4FDC183BD8B2320F4FE0327C4FDC1674C
:100F1000FD17F98F2324F4FE0327C4FDB707300023
:100F20007D8FB70730006315F7020327C4FEB707AC
:100F300000F1FD17F98F2326F4FEB7070140D443D3
:100F4000B7070140370700F17D17758FD8C3ADA0F3
:100F50000327C4FDB7071000F98F8DCB832704FE4C
:100F60000D47B317F7002322F4FE832744FE93C7EF
:100F7000F7FF0327C4FEF98F2326F4FE0327C4FEE0
:100F8000B707000FD98F2326F4FE3DA08327C4FDA9
:100F9000D5839207032784FEB317F70093C7F7FFA3
:100FA0000327C4FEF98F2326F4FE0327C4FEB707E8
:100FB000000FD98F2326F4FE832784FD91CF83274A
:100FC000C4FDD5839207032784FEB317F7000327D8
:100FD000C4FED98F2326F4FE8327C4FD63D80700FF
:100FE000B70701400327C4FED8CF31A0B70701409F
:100FF0000327C4FED8C30100325445618280797151
:1010000022D60018AA872E87A30FF4FCBA87230FD5
:10101000F4FC232604FE8347E4FD8D8B8A073D47BD
:10102000B317F7002326F4FE370701408347E4FD9A
:10103000898393F7F70F8A07BA9798478327C4FEE7
:1010400093C7F7FFB70601400346E4FD0982137614
:10105000F60F7D8F93172600B69798C73707014084
:101060008347E4FD898393F7F70F8A07BA97984778
:101070008346F4FD8347E4FD8D8B8A07B397F60022
:10108000B70601400346E4FD09821376F60F5D8F33
:1010900093172600B69798C70100325445618280A5
:1010A000011122CE00102326A4FE8327C4FEFD8B4F
:1010B0000547B316F70037E700E08327C4FE9583A2
:1010C000938707048A07BA9794C3010072440561A5
:1010D0008280011122CE00102326A4FE8327C4FEA5
:1010E000FD8B0547B316F70037E700E08327C4FE02
:1010F0009583938707068A07BA9794C301007244C1
:1011000005618280011122CE00102326A4FEAE8745
:10111000A305F4FE37E700E08327C4FEBA97034730
:10112000B4FE2380E7400100724405618280011112
:1011300006CE22CC00102326A4FEB7E700E0BC4771
:10114000898B8DC38327C4FE83C707003E8783270F
:10115000C4FE83C72700920793F7F70FBE853A8531
:10116000553795A0B7E700E0BC47898BA9EF8327E7
:10117000C4FE03C7170085476318F7028327C4FE20
:1011800083C707003E878327C4FE83C727009207D3
:10119000E207E18793E707F8E207E18793F7F70FA4
:1011A000BE853A85853705A08327C4FE83C707001F
:1011B0003E878327C4FE83C72700920793F7F70F64
:1011C000BE853A8581378327C4FEDC4381CB8327E4
:1011D000C4FE83C707003E85E13539A08327C4FEDE
:1011E00083C707003E85F5350100F2406244056182
:1011F0008280797122D60018232EA4FC232604FEB7
:10120000232404FE232204FE232004FEB7170240F9
:10121000DC43B18B2326F4FE0327C4FE914763020F
:10122000F7020327C4FEA1476305F7028327C4FE24
:10123000C5E78327C4FD37177A001307072098C333
:1012400065A08327C4FD37177A001307072098C3CA
:1012500061A8B7170240D843B7073C00F98F232491
:10126000F4FEB7170240D843C167F98F2322F4FE7A
:10127000832784FEC98389072324F4FE832744FE41
:1012800089EF032784FEB7173D0093870790330744
:10129000F7028327C4FD98C381A8B7170240D8433B
:1012A000B7070200F98F89CF032784FEB7173D00E7
:1012B000938707903307F7028327C4FD98C32DA0B7
:1012C000032784FEB7177A00938707203307F702B6
:1012D0008327C4FD98C309A88327C4FD37177A0064
:1012E0001307072098C30100B7170240DC4393F7A8
:1012F000070F2326F4FE8327C4FE91832326F4FEE2
:10130000B7070020138707008327C4FEBA9783C757
:10131000070093F7F70F2320F4FE8327C4FD9843BB
:10132000832704FE3357F7008327C4FDD8C3B717BC
:101330000240DC4393F707702326F4FE8327C4FEA4
:10134000A1832326F4FEB707002013870700832715
:10135000C4FEBA9783C7070093F7F70F2320F4FE64
:101360008327C4FDD843832704FE3357F700832720
:10137000C4FD98C7B7170240D84391679387078089
:10138000F98F2326F4FE8327C4FEAD832326F4FEC3
:10139000B7070020138707008327C4FEBA9783C7C7
:1013A000070093F7F70F2320F4FE8327C4FDD843EB
:1013B000832704FE3357F7008327C4FDD8C7B71728
:1013C0000240D843B167F98F2326F4FE8327C4FE79
:1013D000B9832326F4FEB70700201387070F83275E
:1013E000C4FEBA9783C7070093F7F70F2320F4FED4
:1013F0008327C4FDD847832704FE3357F70283278A
:10140000C4FD98CB0100325445618280011122CE87
:1014100000102326A4FE2324B4FE832784FE99CB48
:10142000B7170240D44BB71702400327C4FE558FAD
:10143000D8CB21A8B7170240D44B8327C4FE13C7CB
:10144000F7FFB7170240758FD8CB010072440561D2
:101450008280011122CE00102326A4FE2324B4FE94
:10146000832784FE99CBB7170240944FB7170240E9
:101470000327C4FE558F98CF21A8B7170240944F79
:101480008327C4FE13C7F7FFB7170240758F98CFA5
:101490000100724405618280011122CE00102326D2
:1014A000A4FE2324B4FE832784FE99CBB717024001
:1014B000D44FB71702400327C4FE558FD8CF21A8B9
:1014C000B7170240D44F8327C4FE13C7F7FFB717DF
:1014D0000240758FD8CF0100724405618280797116
:1014E00022D60018232EA4FC232CB4FC231704FEC0
:1014F0008327C4FD83D707002317F4FE0357E4FEB8
:101500008D6793870704F98F2317F4FE832784FDE3
:1015100003D70700832784FD83D72700D98F13972C
:1015200007014183832784FD83D74700D98F139711
:1015300007014183832784FD83D76700D98F1397E1
:1015400007014183832784FD83D78700D98F1397B1
:1015500007014183832784FD83D7A700D98F139781
:1015600007014183832784FD83D7C700D98F139751
:1015700007014183832784FD83D7E700D98F139721
:10158000070141838357E4FED98F2317F4FE832795
:10159000C4FD0357E4FE2390E7008327C4FD83D7EF
:1015A000C701139707014183FD779387F77FF98F71
:1015B0001397070141838327C4FD239EE7008327F8
:1015C00084FD03D707018327C4FD2398E7000100AA
:1015D000325445618280011122CE00102326A4FEE0
:1015E0002324B4FE832784FE8DC38327C4FE83D7C0
:1015F0000700C207C18393E70704139707014183DC
:101600008327C4FE2390E70005A08327C4FE83D769
:101610000700C207C18393F7F7FB139707014183C4
:101620008327C4FE2390E700010072440561828095
:10163000797122D60018232EA4FC232CB4FC231786
:1016400004FE8327C4FD83D707002317F4FE032776
:10165000C4FDB7370140938707C06308F70203272B
:10166000C4FDB70700406302F7020327C4FDB707B4
:10167000004093870740630AF7000327C4FDB717AC
:101680000040938707806311F7028357E4FE93F7C6
:10169000F7F82317F4FE832784FD03D72700835729
:1016A000E4FED98F2317F4FE8357E4FE93F7F7CFB8
:1016B0002317F4FE832784FD03D767008357E4FED6
:1016C000D98F2317F4FE8327C4FD0357E4FE23902C
:1016D000E700832784FD03D747008327C4FD2396B3
:1016E000E702832784FD03D707008327C4FD2394E3
:1016F000E7020327C4FDB7370140938707C0631D86
:10170000F700832784FD83C7870013970701418370
:101710008327C4FD2398E7028327C4FD0547239A46
:10172000E7000100325445618280011122CE001091
:101730002326A4FE2324B4FE832784FE8DC383279F
:10174000C4FE83D70700C207C18393E7170013972E
:10175000070141838327C4FE2390E70039A883272C
:10176000C4FE83D70700C207C183F99B1397070103
:1017700041838327C4FE2390E70001007244056182
:101780008280011122CE00102326A4FEAE872322E0
:10179000C4FE2315F4FE832744FE9DC38327C4FEA5
:1017A00083D7C7001397070141838357A4FED98FBE
:1017B0001397070141838327C4FE2396E70035A0D2
:1017C0008327C4FE83D7C70013970701418383573C
:1017D000A4FE93C7F7FFC207C183F98F13970701D0
:1017E00041838327C4FE2396E7000100724405610C
:1017F0008280797106D622D40018232EA4FCAE87ED
:101800003687231DF4FCB287231CF4FCBA87231B04
:10181000F4FC231704FE835664FD035784FD8357AD
:10182000A4FD3A86BE850325C4FD89288327C4FD0F
:1018300083D787002317F4FE8357E4FEE19B231729
:10184000F4FE8357E4FE93E777002317F4FE8357F3
:10185000E4FE93F7F7F82317F4FE8357E4FE93E7CB
:1018600007072317F4FE8327C4FD0357E4FE2394E0
:10187000E7000100B250225445618280797122D67E
:101880000018232EA4FCAE873687231DF4FCB287F4
:10189000231CF4FCBA87231BF4FC231704FE8327C4
:1018A000C4FD83D787002317F4FE8357E4FE93F724
:1018B000F70F2317F4FE835764FDA2071397070160
:1018C0004183835784FDD98F139707014183835741
:1018D000A4FDD98F1397070141838357E4FED98F65
:1018E0002317F4FE8327C4FD0357E4FE2394E70087
:1018F0000100325445618280797122D60018232E6E
:10190000A4FCAE87231DF4FC231704FE8327C4FD2B
:1019100083D787002317F4FE8357E4FE93F7F7F885
:101920002317F4FE0357E4FE8357A4FDD98F231732
:10193000F4FE8327C4FD0357E4FE2394E70001006F
:10194000325445618280011122CE00102326A4FE6C
:10195000AE872315F4FE8327C4FE83D78700C20712
:10196000C183E19B1397070141838327C4FE23941E
:10197000E7008327C4FE83D78700139707014183BD
:101980008357A4FED98F1397070141838327C4FE91
:101990002394E7000100724405618280011122CE88
:1019A00000102326A4FEAE872315F4FE8327C4FE71
:1019B00083D78700C207C18393F7F7F7139707010F
:1019C00041838327C4FE2394E7008327C4FE83D783
:1019D00087001397070141838357A4FED98F13977C
:1019E000070141838327C4FE2394E700010072446A
:1019F00005618280797122D60018232EA4FCAE875F
:101A0000231DF4FC232604FE231504FE231404FEE8
:101A10008327C4FD83D707011397070141838357A9
:101A2000A4FDF98F2315F4FE8327C4FD83D7C700D7
:101A30001397070141838357A4FDF98F2314F4FE04
:101A40008357A4FE81CB835784FE89C7854723260D
:101A5000F4FE19A0232604FE8327C4FE3E853254DB
:101A600045618280011122CE00102326A4FEAE879C
:101A70002315F4FE8357A4FE93C7F7FF13970701BE
:101A800041838327C4FE2398E70001007244056167
:101A900082805D7186C6A2C48008232EA4FA232CFE
:101AA000B4FA232604FE232404FE232204FE23206A
:101AB00004FE232E04FC8327C4FB232EF4FC83277F
:101AC000C4FB83D70701C207C1832326F4FE032783
:101AD000C4FEB567FD17F98F2326F4FE832784FB28
:101AE00083D767003E878327C4FED98F2326F4FE61
:101AF0008327C4FE1397070141838327C4FB2398E0
:101B0000E7008327C4FB83D7C700C207C18323260E
:101B1000F4FE0327C4FEBD679387379FF98F232602
:101B2000F4FE832784FB03D74700832784FB83D7F6
:101B30008700D98F139707014183832784FB83D7BD
:101B4000A700D98FC207C1833E878327C4FED98FE0
:101B50002326F4FE8327C4FE1397070141838327BE
:101B6000C4FB2396E7008327C4FB83D74701C20742
:101B7000C1832326F4FE0327C4FEC1679387F7CFF2
:101B8000F98F2326F4FE832784FB83D7C7003E8783
:101B90008327C4FED98F2326F4FE8327C4FE139720
:101BA000070141838327C4FB239AE700930784FC42
:101BB0003E85EFF00FE40327C4FDB747014093874C
:101BC00007806317F700832744FD2324F4FE29A030
:101BD000832704FD2324F4FE8327C4FB83D7C70097
:101BE000C207C183C207C18763D20702032784FEED
:101BF000BA878607BA978E073E97832784FB9C4354
:101C00008607B357F7022322F4FE05A0032784FEBC
:101C1000BA878607BA978E073E97832784FB9C4333
:101C20008A07B357F7022322F4FE032744FE9307E3
:101C30004006B357F70292072326F4FE8327C4FE1B
:101C400013D7470093074006B307F702032744FE64
:101C5000B307F7402320F4FE8327C4FB83D7C700D4
:101C6000C207C183C207C18763D20702832704FE6C
:101C70008E071387270393074006B357F7029D8B00
:101C80000327C4FED98F2326F4FE05A0832704FE74
:101C900092071387270393074006B357F702BD8BBC
:101CA0000327C4FED98F2326F4FE8327C4FE13978F
:101CB000070141838327C4FB2394E7000100B6405A
:101CC000264461618280011122CE00102326A4FEE9
:101CD0002324B4FE832784FE95C38327C4FE83D7C1
:101CE000C7001397070141838967D98F13970701AD
:101CF00041838327C4FE2396E70015A08327C4FEF3
:101D000083D7C700139707014183F977FD17F98F30
:101D10001397070141838327C4FE2396E700010040
:101D2000724405618280797122D60018232EA4FCAA
:101D3000AE87232AC4FC231DF4FC232404FE2322A3
:101D400004FE232004FE232604FE8327C4FD23264D
:101D5000F4FE8357A4FD93F7F70F958393F7F70FDE
:101D60002324F4FE8357A4FDFD8B2322F4FE832756
:101D700044FE0547B317F7002320F4FE032784FE33
:101D800085476318F7008327C4FEB1072326F4FEB6
:101D90000DA0032784FE89476318F7008327C4FE3C
:101DA000C1072326F4FE31A08327C4FED1072326D2
:101DB000F4FE832744FD99CB8327C4FE94438327F5
:101DC000C4FE032704FE558F98C321A88327C4FEB1
:101DD0009443832704FE13C7F7FF8327C4FE758F40
:101DE00098C30100325445618280011122CE001057
:101DF0002326A4FEAE872315F4FE8357A4FE93F793
:101E0000F71F1397070141838327C4FE2392E7003E
:101E10000100724405618280797122D60018232E58
:101E2000A4FCAE87231DF4FC232604FE8327C4FDF7
:101E300083D707001397070141838357A4FDF98FC8
:101E4000C207C18389C785472326F4FE19A023262C
:101E500004FE8327C4FE3E85325445618280797139
:101E600022D60018232EA4FCAE87231DF4FC2322C7
:101E700004FE232604FE232004FE232404FE8357AD
:101E8000A4FD93F7F70F958393F7F70F2320F4FE44
:101E90008357A4FDFD8B2326F4FE8327C4FE05474C
:101EA000B317F7002326F4FE032704FE8547631FBC
:101EB000F7008327C4FD83D7C700C207C1833E87CD
:101EC0008327C4FEF98F2326F4FE3DA8032704FED2
:101ED0008947631FF7008327C4FD83D70701C20723
:101EE000C1833E878327C4FEF98F2326F4FE29A8E9
:101EF0008327C4FD83D74701C207C1833E87832759
:101F0000C4FEF98F2326F4FE8357A4FDA183C207E4
:101F1000C1832322F4FE832744FE0547B317F7004D
:101F20002322F4FE8327C4FD83D70700C207C183A1
:101F30003E87832744FEF98F2322F4FE8327C4FEC5
:101F400081CB832744FE89C785472324F4FE19A04B
:101F5000232404FE832784FE3E853254456182801B
:101F6000797122D60018232EA4FCAE87231DF4FC21
:101F7000231704FE231604FE8357A4FDA183231711
:101F8000F4FE8357E4FE0547B317F7002316F4FE6B
:101F90008357C4FE93C7F7FF139707014183832735
:101FA000C4FD2390E7000100325445618280011195
:101FB00006CE22CC0010AA87A307F4FEA967938758
:101FC000C7039C473E87A1675CCBA9679387C7037C
:101FD0009C473E8791675CCB9307F4FE854601469C
:101FE000BE850145EF108052A9679387C7039C47C0
:101FF0003E87A1671CCB0100F240624405618280EC
:10200000011106CE22CC0010AA87A307F4FEA9670F
:102010009387C7039C473E87A1675CCBA9679387DB
:10202000C7039C473E8791671CCB1307F4FE9307B9
:10203000F4FE85463A86BE850145EF10204DA9671E
:102040009387C7039C473E87A1671CCB0100F240E2
:10205000624405618280797106D622D40018AA876D
:10206000231FF4FCA9679387C7039C473E87A1679A
:102070005CCB8357E4FDA183C207C18393F7F70FBD
:102080002306F4FE8357E4FD93F7F70FA306F4FE4F
:10209000A9679387C7039C473E8791671CCB1307AB
:1020A000C4FE9307C4FE89463A86BE850145EF10FB
:1020B000E045A9679387C7039C473E87A1671CCB70
:1020C0000100B250225445618280011106CE22CC1B
:1020D00000102326A4FE2324B4FE2322C4FE2320C2
:1020E000D4FE0327C4FE9307F00963FFE700A96746
:1020F0009386478CA9671386C7A393057005A967C4
:102100001385878DEF60A04E032784FE9307F007A9
:1021100063FFE700A9679386C790A9671386C7A3E3
:1021200093058005A9671385878DEF60404C0327D1
:1021300044FE9307F00963FFE700A96793860792BF
:10214000A9671386C7A39305A005A9671385878D83
:10215000EF60E049032704FE9307F00763FFE70001
:10216000A96793860793A9671386C7A39305B0054C
:10217000A9671385878DEF6080471305A002053D91
:102180000145BD3D8327C4FE93F7F70F850793F7FD
:10219000F70F3E85B5350145A535832744FE93F7F6
:1021A000F70F850793F7F70F3E85993D1305B002AA
:1021B000FD3B0145B135832784FE93F7F70F89076F
:1021C00093F7F70F3E852D3D01451D3D832704FE06
:1021D00093F7F70F890793F7F70F3E85153513052A
:1021E000C002F1330100F2406244056182807971DE
:1021F00006D622D40018AA87231FF4FC9306F00702
:102200001306F00981450145C935A30704FE05A859
:10221000230704FE11A88357E4FD3E852D3D834727
:10222000E4FE85072307F4FE0347E4FE9307F00965
:10223000E3F3E7FE8347F4FE8507A307F4FE830775
:10224000F4FEE3D707FC0100B250225445618280BE
:10225000011106CE22CC4ACA4EC852C656C45AC232
:102260005EC00010014881471307F0049306300256
:10227000054681450145EF102016930600310546BD
:1022800085451305F004EF00F04293060031014646
:1022900085451305D004EF00F04193060031014657
:1022A00085451305E004EF00F040A9679387C70355
:1022B0009C473E8789675CCB03A7818389679387A7
:1022C00007F43357F702BA878A07BA9786073E8B17
:1022D000814B5A85DE85EF10802FA9679387C7034E
:1022E0009C473E8789671CCB03A7818389679387B7
:1022F00007F43357F702BA879207998F8E073E8A01
:10230000814A5285D685EF10802C45454D3103A773
:1023100081838967938707F43357F702BA87920757
:10232000998F8E073E8981494A85CE85EF10202AF4
:102330001305100BAD390545E1311305C002C93154
:102340001305D00275391305200B953105454D391C
:102350001305C00275311305D0025D311305300B32
:10236000B931054571391305C00259391305D00239
:102370004139054571311305C00259311305D002A9
:1023800041311305400B25311D459D391305000CC6
:1023900039391305200AAD3109459D31130540082F
:1023A00085311305100C21311305500C913913059B
:1023B000200CF53E2945A931014599311305300C12
:1023C000FD361305A0082D391305A0021539130594
:1023D000400CF13E1305A00825311305E00E0D3128
:1023E0001305500CE9363945213913056003C13610
:1023F00013050006313101001305000E4D3E3D4529
:1024000001316945F53E3D45E53E6145D53E130543
:10241000F002FD3613058002E53613050002CD36C5
:1024200013052002F13E7D45E13E6D45D13E130589
:102430003002F93613057003E1360145D1361D45EA
:10244000C1360945753E4145653E1305100E85367A
:102450003D457D366D456D363D455D365D454D36B8
:1024600013053003713E1305C002593E1305900257
:10247000413E1305E002693613050003513613058A
:102480000003BD3E13059003A53E1305F0038D3EEA
:102490000145BD361D45AD360D459D3641458D3650
:1024A0001305A00229360145A13E0945913E01458B
:1024B000813E13052008A9361305B002CD3C014525
:1024C00081360D45353E0145253E130530080D3E4C
:1024D0001305000FE93C054525361305600FC13C87
:1024E0000145393E1305A003D9341545113E1305A6
:1024F0009002753CC1671385F7FFD5390100F240A2
:1025000062445249C249324AA24A124B824B056187
:102510008280797106D622D40018AA87AE863287C7
:10252000231FF4FCB687231EF4FCBA87A30DF4FC2A
:10253000A30704FE59A80355E4FD0357C4FD8347D0
:10254000F4FEBA97BE858357E4FD9D073E86035788
:10255000C4FD8347F4FEBA97BE86EFF01FB783072A
:10256000B4FD938607FE8347F4FE2967920613079E
:10257000C7A43697BA9783C70700A306F4FE2307BC
:1025800004FE15A88347D4FE858B99C7C1671385C0
:102590000780EFF05FAC31A0C1671385F7FFEFF064
:1025A0009FAB8347D4FE8583A306F4FE8347E4FEF6
:1025B00085072307F4FE0347E4FE9D47E3F4E7FCA9
:1025C0008347F4FE8507A307F4FE0347F4FEBD47E7
:1025D000E3F3E7F60100B25022544561828079713D
:1025E00006D622D40018AA872E87232CC4FC231FCA
:1025F000F4FCBA87231EF4FC231704FE91A0835732
:10260000E4FE8E071397070141838357E4FDBA97D1
:1026100093960701C1828357C4FD920793950701E2
:10262000C1818357E4FE032784FDBA97838707009F
:102630003E863685F93D8357E4FE85072317F4FE71
:102640008357E4FE032784FDBA9783870700C5FB01
:102650000100B250225445618280797106D622D49D
:102660000018232EA4FCAE87231DF4FCB287231C84
:10267000F4FCB687231BF4FCBA87231AF4FC23135B
:1026800004FE231204FE835764FDFD173E87835723
:1026900044FDFD17BE863A8681450145EFF0FFA255
:1026A000232404FED9A0232604FE6DA0035784FD35
:1026B000832784FE3307F702835744FD3357F7021D
:1026C0008357A4FD3307F7028356A4FD8327C4FE76
:1026D000B386F602835764FDB3D7F602BA97032791
:1026E000C4FDBA9783C707002312F4FE835744FE44
:1026F0008D83C207C183AE072313F4FE835744FEC4
:102700008983C207C1839607C207C18793F7077EF3
:10271000139707014187831764FED98FC207C187CA
:102720002313F4FE835744FE8D83C207C183FD8BC0
:10273000139707014183835764FED98F2313F4FE57
:10274000835764FE3E85EFF01F918327C4FE850703
:102750002326F4FE835764FD0327C4FEE368F7F4E1
:10276000832784FE85072324F4FE835744FD032733
:1027700084FEE36AF7F20100B25022544561828080
:10278000411122C60008A9679387C706DC4383D797
:10279000470013970701418383C7B182BE86137731
:1027A000F70F93878182B6972380E70083C7B182B2
:1027B000850713F7F70FA385E18203C7B182854729
:1027C000631AF70003C781829307500A6304F70076
:1027D000A385018203C7B1828D476317F700A385E4
:1027E000018205472386E182010032444101828053
:1027F000797106D622D44AD24ED00018232EA4FCDA
:10280000232CB4FC23860182231704FE69A09307BE
:1028100050FA2304F4FE8357E4FE8A07032784FD5D
:10282000BA978397070093F7F70FA304F4FE835733
:10283000E4FE8A07032784FDBA97839727002316AF
:10284000F4FE8357C4FEA183C207C18393F7F70F39
:102850002305F4FE8357C4FE93F7F70FA305F4FE98
:10286000930784FE1146BE850325C4FDEF10C00307
:1028700003A781838967938707F4B357F702860715
:102880003E8981494A85CE85EF0070548357E4FE26
:1028900085072317F4FE0357E4FEA147E3F9E7F6A3
:1028A000010083C7C18293F7F70FE5DF238601821A
:1028B00001009387818203C717009307F00FE31A83
:1028C000F7FE9387818203C727009307F00FE31277
:1028D000F7FE0100B250225412598259456182809C
:1028E000797106D622D40018232EA4FC232CB4FC24
:1028F000231704FE45A0930750FA2304F4FEC5579E
:10290000A304F4FE8357E4FE8A07032784FDBA97E5
:10291000839707002316F4FE8357C4FEA183C207E2
:10292000C18393F7F70F2305F4FE8357C4FE93F793
:10293000F70FA305F4FE930784FE1146BE85032519
:10294000C4FDEF007076010083C7C18293F7F70FD3
:10295000E5DF238601829387818283C71700A20760
:1029600093960701C1869387818283C727001397B7
:10297000070141878357E4FE8A07032684FDB29747
:10298000558F420741872391E7008357E4FE85076F
:102990002317F4FE0357E4FE9D47E3FEE7F401002E
:1029A000B250225445618280411106C622C40008FB
:1029B00013068004B14505454525854601468545F4
:1029C0005D45EF0060710100B24022444101828008
:1029D000411106C622C40008B1450145792601000F
:1029E000B240224441018280011106CE22CC001067
:1029F000930700042307F4FE9D47A307F4FE05A0F8
:102A00000347F4FE8347E4FEBA97914601468145A9
:102A10003E854D218347F4FEFD17A307F4FE83474F
:102A2000F4FEF9FF83A7C1833E8789679386874BAE
:102A30003A86B717014093858700B7070240138590
:102A40004704F922854601468145794571250100F3
:102A5000F240624405618280411106C622C400082A
:102A6000B7070020054723AAE70E37070020130702
:102A7000071723AEE182C54641468967938507580B
:102A80000545EF00D04C85450545EF0050660145F2
:102A9000EF00E07823860182B70700209385470383
:102AA00005453D3D23860182B70700209385070138
:102AB00005453D3B23860182B707002093854703E8
:102AC0000545393DEF00207105371937F13D01000B
:102AD000B240224441018280411122C60008B7075A
:102AE00002409387470409671307874BD8C3B7078A
:102AF0000240938747049843B707024093874704EF
:102B00001367170098C301003244410182804111CC
:102B100022C600080547A386E182B70702409387D3
:102B200047049443B70702409387470441677917E6
:102B3000758F98C30100324441018280411122C641
:102B40000008A9679387C706DC4383D7470013971C
:102B50000701418383C73183BE861377F70F9387BD
:102B60000183B6972380E70083C73183850713F776
:102B7000F70FA389E18203C731838547631AF70002
:102B800003C701839307500A6304F700A3890182F6
:102B900003C731838D476317F700A3890182054777
:102BA000238AE1820100324441018280411122C620
:102BB0000008B70702409387470405671307079685
:102BC000D8C3B7070240938747049843B70702402A
:102BD000938747041367170098C3010032444101EB
:102BE0008280411122C600080547A38AE182B70707
:102BF0000240938747049443B707024093874704F2
:102C000041677917758F98C3010032444101828072
:102C10005D7186C6A2C48008232EA4FA232CB4FAC0
:102C2000232AC4FA2328D4FA0327C4FBB707024097
:102C3000A1076301F7060327C4FBB7070240F107AA
:102C4000630AF7040327C4FBB7070240938707030F
:102C50006302F7040327C4FBB707024093874704C6
:102C6000630AF7020327C4FBB7070240938787056F
:102C70006302F7020327C4FBB70702409387C70626
:102C8000630AF7000327C4FBB707024093870708CE
:102C90006317F70085450545EFE04FF7A9A803271F
:102CA000C4FBB7070240938787406302F7040327FA
:102CB000C4FBB70702409387C741630AF7020327A3
:102CC000C4FBB7070240938707436302F702032759
:102CD000C4FBB707024093874744630AF700032702
:102CE000C4FBB7070240938787456316F700854505
:102CF0000945EFE0AFF10325C4FBEFD0DF9A83274E
:102D000084FB2322F4FC832744FB2324F4FC2326A6
:102D100004FC832704FB2328F4FC232A04FC9307E8
:102D20000008232CF4FC232E04FC232004FE232281
:102D300004FE8D672324F4FE232604FE930744FC3F
:102D4000BE850325C4FBEFD0FFB6054689450325A4
:102D5000C4FBEFD0BFC485450325C4FBEFD01FC023
:102D60000100B640264461618280797106D622D482
:102D70000018232EA4FC232CB4FC85450545EFE068
:102D80004FED8327C4FD81EB85458567138507805B
:102D9000EFE02FEC35A80327C4FD85476317F70044
:102DA00085450545EFE04FEF25A00327C4FD894782
:102DB0006317F70085450945EFE00FEE11A80327DB
:102DC000C4FD8D476316F70085451145EFE0CFEC54
:102DD000914601468145032584FDE928FD572314CA
:102DE000F4FE231204FE231504FE231304FE23061F
:102DF00004FEA9670327C4FD0A079387C704BA978F
:102E00009C433E87930744FEBE853A85EFE05F8290
:102E1000A9670327C4FD0A079387C704BA979C4391
:102E20008146216681453E85EFE0BF9CA967032767
:102E3000C4FD0A079387C704BA979C43930500070C
:102E40003E85EFE07FABA9670327C4FD0A079387A0
:102E5000C704BA979C4391453E85EFE0DFAEA96772
:102E60000327C4FD0A079387C704BA979C439305B9
:102E700000083E85EFE09FB2A9670327C4FD0A075B
:102E80009387C704BA979C4385453E85EFE0FF8949
:102E9000A9670327C4FD0A079387C704BA979C4311
:102EA000054691653E85EFE0DF8D0100B25022546A
:102EB00045618280797106D622D40018232EA4FCA5
:102EC000232CB4FCB2872328D4FCA30BF4FC832767
:102ED000C4FD958393F7F70F9D8BA307F4FE83271B
:102EE000C4FD93F7F70FFD8B2307F4FE0327C4FD02
:102EF00093070008630DF7148327C4FD958391E7BA
:102F000085451145EFE0EFD461A88327C4FD13D7B1
:102F1000570085476317F70085452145EFE06FD3DC
:102F200041A08327C4FD13D7570089476317F700D3
:102F300085454145EFE0EFD1A5A08327C4FD13D718
:102F400057008D476318F700854513050002EFE031
:102F50004FD0B9A08327C4FD13D7570091476318FA
:102F6000F700854513050004EFE0AFCE15A88327D1
:102F7000C4FD13D7570095476318F700854513051F
:102F80000008EFE00FCD29A88327C4FD13D7570011
:102F900099476317F700854513050010EFE06FCBE5
:102FA0008347E4FE0547B317F700C207C183231028
:102FB000F4FE032784FD85476317F702832704FD8A
:102FC000C207C183A183C207C18389E78D4723223A
:102FD000F4FE11A8832704FDC207C183A183C207A1
:102FE000C1832322F4FE832704FDC207C18393F724
:102FF000F70F2324F4FE0347F4FEA9670A0793871B
:10300000C703BA979C433E87930704FEBE853A8563
:10301000EFD01FC5032784FD8547631BF7020347D5
:10302000F4FEA9670A079387C703BA979C43BE8635
:103030008347E4FE0547B317F700C207C183034780
:1030400074FD3A86BE853685EFD03FE411A00100BD
:10305000B250225445618280797106D622D400187C
:10306000232EA4FC232CB4FC232AC4FC854505454F
:10307000EFE02FBE832644FD014681450325C4FDB4
:10308000153D8327C4FD958313F7F70F8327C4FDF0
:1030900093F7F70FFD8B93F7F70FBE853A85EFD0C7
:1030A0001FF68327C4FDFD8B0547B317F7002320C8
:1030B000F4FE232204FE832784FD2324F4FE8547A7
:1030C0002326F4FE930704FE3E85EFD01F9B0100EC
:1030D000B250225445618280797106D622D40018FC
:1030E000232EA4FCAE873687A30DF4FCB287230DF4
:1030F000F4FCBA87A30CF4FC8327C4FD93F7F70F05
:103100002304F4FE8347B4FDA304F4FE8347A4FD27
:103110002305F4FE834794FD2326F4FE930784FEE3
:103120003E85EFE0CF80B7E700E09843FD777D8FE5
:10313000B727002083A787625D8FB727002023A4CD
:10314000E762B7E700E0D843B7070010FD177D8FAF
:10315000B727002093878762DC435D8FB727002065
:1031600093878762D8C3B72700209387876203C7F6
:10317000870085476313F70031200100B2502254C5
:1031800045618280411122C60008B7E700E07D5703
:1031900023A0E718B7E700E07D5723A2E718010056
:1031A000324441018280411122C60008B7E700E0A5
:1031B000372700200327876223A0E710B7E700E046
:1031C0003727002013078762584323A2E710010026
:1031D000324441018280011106CE22CC0010B72773
:1031E00000209387876205472384E700B7270020E4
:1031F00083A7876291EBB727002093878762DC4320
:1032000081E7A30704FE21A08547A307F4FE9D3FA5
:103210008347F4FE3E85F2406244056182800111DD
:1032200006CE22CC0010AA87A307F4FE8347F4FE43
:1032300081EBB72700209387876223840700A53797
:103240000100F240624405618280011106CE22CC69
:1032500000102326A4FE2324B4FE2322C4FE232030
:10326000D4FE8327C4FE89EB93068031054685454D
:103270001545EFF03FC499A80327C4FEC147631B5F
:10328000F700930680310546854513053002EFF0BF
:103290007FC22DA80327C4FE93070002631BF7001B
:1032A00093068031054685451305D002EFF09FC097
:1032B00031A8A96793868794A9671386C7059305E4
:1032C000D002A9671385C794EF506032032784FEAC
:1032D0008547631AF70093068031054685451D45ED
:1032E000EFF05FBD99A8032784FEC547631BF70075
:1032F000930680310546854513055002EFF09FBBCC
:103300002DA8032784FE93071002631BF700930682
:103310008031054685451305F002EFF0BFB931A8AD
:10332000A96793868794A9671386C7059305200329
:10333000A9671385C794EF50802B032744FE894764
:10334000631AF70093068031054685451945EFF06D
:103350007FB6B5A0032744FEC947631BF700930659
:1033600080310546854513054002EFF0BFB481A8C2
:10337000032744FE93072002631BF7009306803166
:10338000054685451305E002EFF0DFB20DA80327DF
:1033900044FE930730026317F7009307300223229D
:1033A000F4FE31A8A96793868794A9671386C70599
:1033B00093058003A9671385C794EF5040239306B4
:1033C000003105468545032504FEEFF0BFAE010040
:1033D000F2406244056182805D7186C6A2C48008A5
:1033E0002326A4FC2324B4FC2322C4FC2320D4FCE5
:1033F000232EE4FA232A04FBA30DF4FA8327C4FC4A
:1034000081EB8545856713851700EFE08F8421A840
:103410000327C4FC85476318F7008545916713852A
:103420001700EFE06F878326C4FB032604FC832587
:1034300044FC032584FC113D231E04FC930740102B
:10344000231FF4FC231004FE8347B4FB054763836A
:10345000E70205476344F70089CB81A009476381F0
:10346000E7020D476384E7020DA8231104FE23122F
:1034700004FE25A0231104FE85472312F4FE31A883
:1034800089472311F4FE231204FE01A88947231162
:10349000F4FE85472312F4FE010093070020231356
:1034A000F4FE832744FBC207C1838E07C207C18392
:1034B0002314F4FE231504FE9D472316F4FE032770
:1034C000C4FC0A0793878181BA979C433E87930780
:1034D000C4FDBE853A85EFE08F80032784FCC14799
:1034E0006316F70085450545EFD0BF9D0327C4FC53
:1034F0000A0793878181BA979C4385453E85EFE013
:103500008F8D0100B640264461618280011122CE78
:1035100000102326A4FE2324B4FE2322C4FE23206D
:10352000D4FE59A801000327C4FE0A0793878181AE
:10353000BA979C4383D78700C207C183898BE5D79D
:10354000832784FE138717002324E4FE83C6070025
:103550000327C4FE0A0793878181BA979C433E875D
:1035600093970601C1832316F700832744FEA9C75A
:1035700001000327C4FE0A0793878181BA979C4301
:1035800083D78700C207C183858BE5D70327C4FE95
:103590000A0793878181BA979C4383D7C700939684
:1035A0000701C182832744FE138717002322E4FE0C
:1035B00013F7F60F2380E700832704FE1387F7FF36
:1035C0002320E4FEA5F3010072440561828001110D
:1035D00022CE00102324A4FE2326B4FE37F700E0F9
:1035E0002320070037F700E02302070037F700E049
:1035F000A302070037F700E02303070037F700E0D6
:10360000A303070037F700E02304070037F700E0C3
:10361000A304070037F700E02305070037F700E0B1
:10362000A305070037F700E0854614C3010037F70C
:1036300000E011071843BA8701480327C4FEC28679
:10364000636DD7000327C4FEC286E312D7FE0327AB
:1036500084FEBE866363D700D9BF01007244056152
:103660008280011106CE22CC00102326A4FE232442
:10367000B4FE8327C4FE85E7032784FE85476310D5
:10368000F70293068031014685452545EFF09F827C
:103690009146014681452945EFF0DF8165A003276A
:1036A000C4FE89476312F7029306803101468545BF
:1036B00013056002EFF01F80914601468145130516
:1036C0007002EFF02FFFBDA80327C4FEC1476310AF
:1036D000F70293068031014685450945EFF08FFDDD
:1036E0009146014681450D45EFF0CFFCA1A8032787
:1036F000C4FE930700026312F7029306803101466D
:1037000085451305A002EFF0EFFA91460146814589
:103710001305B002EFF00FFA35A00327C4FE93079C
:1037200020026311F7029306803101468545130597
:10373000A004EFF02FF89146014681451305B0042F
:10374000EFF04FF70100F240624405618280797129
:1037500006D622D40018232EA4FC232CB4FC232A42
:10376000C4FC2328D4FC85450545EFD09FCE832596
:1037700004FD032544FDF535032744FD8947631BFC
:10378000F700032704FD8D476316F70085451145B3
:10379000EFD02FF3032744FD93072002631FF700A8
:1037A000032704FD930730026319F7008545B70727
:1037B000140013850701EFD0CFF08327C4FD91E7F4
:1037C00085451165EFD0FFC835A00327C4FD8547A7
:1037D0006318F700854537050200EFD0FFCB19A825
:1037E0000327C4FD89476317F700854537050400A3
:1037F000EFD09FCA832784FD2320F4FE231204FE0A
:10380000231304FE231404FE231604FEB1472315DC
:10381000F4FEA9670327C4FD0A079387C706BA9772
:103820009C433E87930704FEBE853A85EFE06FA672
:10383000A9670327C4FD0A079387C706BA979C4365
:1038400085453E85EFE02FC80100B2502254456106
:103850008280011122CE00102326A4FEAE87A3058C
:10386000F4FE0100A9670327C4FE0A079387C70671
:10387000BA979C4383D70700C207C18393F7070811
:10388000F5D3A9670327C4FE0A079387C706BA972B
:103890009C433E878347B4FEC207C1832312F700CF
:1038A0000100724405618280011106CE22CC001015
:1038B0002326A4FE2324B4FE2322C4FE29A88327A2
:1038C00084FE138717002324E4FE83C70700BE8508
:1038D0000325C4FEBD3F832744FE1387F7FF232241
:1038E000E4FEF1FF0100F2406244056182800111B3
:1038F00006CE22CC00102326A4FEAE87A305F4FE3C
:10390000A9670327C4FE0A079387C706BA979C4393
:103910000546930550523E85EFE0EFC08327C4FE75
:10392000938757030347B4FEBA86014681453E8517
:10393000EFF08FFA0100F24062440561828041118C
:1039400006C622C40008B7170240DC43C98313F738
:10395000F700B7177A00938707203307F702B727D6
:10396000F400938707403E9723ACE18285460146E9
:10397000F167938507200145EFF07FDD0100B2403C
:10398000224441018280797106D622D40018232E68
:10399000A4FC232CB4FC232AC4FC232604FE99A0F7
:1039A0000100A96783A7C706930500043E85EFE0E1
:1039B000AFC6AA87FDD7A96783A7C706BE86832798
:1039C00084FD13871700232CE4FC83870700C207BC
:1039D000C183BE853685EFE04FC18327C4FE8507CE
:1039E0002326F4FE0327C4FE832744FDE34AF7FAA7
:1039F000832744FD3E85B2502254456182800111E7
:103A000022CE0010232604FE232404FEB717024012
:103A10009443B71702404167558F98C3B7170240C8
:103A20009843B7070200F98F2324F4FE8327C4FECE
:103A300085072326F4FE832784FE99E70327C4FE27
:103A400093070050E31CF7FCB71702409843B707F1
:103A50000200F98F89C785472324F4FE19A0232487
:103A600004FE032784FE85476317F70CB72702403F
:103A70009843B72702401367070198C3B72702404E
:103A80009843B7270240719B98C3B72702409843D9
:103A9000B72702401367270098C337170240B717AC
:103AA00002405843D8C337170240B7170240584363
:103AB000D8C337170240B71702405843D8C3B717C7
:103AC0000240D443B71702403707C1FF7D17758FF7
:103AD000D8C3B7170240D443B717024037072500B1
:103AE000558FD8C3B71702409443B7170240370722
:103AF0000001558F98C30100B71702409843B707DC
:103B00000002F98FF5DBB7170240D843B717024020
:103B1000719BD8C3B7170240D843B7170240136749
:103B20002700D8C30100B7170240DC4313F7C700D2
:103B3000A147E31AF7FE010072440561828041113A
:103B400006C622C40008B71702409843B7170240C0
:103B50001367170098C3B7170240D443B717024042
:103B60003707FFF8758FD8C3B71702409443B717CC
:103B700002403707F7FE7D17758F98C3B7170240CD
:103B80009443B71702403707FCFF7D17758F98C322
:103B9000B7170240D443B7170240370781FF7D179C
:103BA000758FD8C3B717024037079F0098C7EFF04B
:103BB0001FE50100B240224441018280011106CE7E
:103BC00022CC26CA001083C791803E8783C781809C
:103BD000B307F7403E85EF40805F2A87A96783A53A
:103BE00087973A85EF303035AA872324F4FEA30760
:103BF00004FEA1A883C781803E85EF40405DAA8472
:103C00008347F4FE3E85EF40805CAA87832584FECF
:103C10003E85EF30906EAA87BE852685EF30007B0B
:103C2000AA878344F4FE3E85EF400055AA8713F728
:103C3000F70FB727002093874763A6972380E700F5
:103C40008347F4FE8507A307F4FE0347F4FE9307BA
:103C5000B003E3F1E7FA83C7B1803E8783C7A18051
:103C6000B307F7403E85EF4080562A87A96783A5B2
:103C7000C7973A85EF30302CAA872324F4FEA30798
:103C800004FEA1A883C7A1803E85EF404054AA84CA
:103C90008347F4FE3E85EF408053AA87832584FE48
:103CA0003E85EF309065AA87BE852685EF3000728D
:103CB000AA878344F4FE3E85EF40004CAA8713F7A1
:103CC000F70FB727002093870767A6972380E700A1
:103CD0008347F4FE8507A307F4FE0347F4FE93072A
:103CE000F004E3F1E7FA0100F2406244D2440561D6
:103CF0008280011122CE0010A30704FE61A02307D9
:103D000004FEB5A00347F4FEB7270020938747635E
:103D1000BA9783C707003E850347E4FEB727002014
:103D200093870767BA9783C70700BE850347F4FEEA
:103D30000346E4FEB70700209306C00BB306D50286
:103D400093870717B697AE9783C60700B72500205D
:103D5000BA878A07BA97920713878573BA97B2977B
:103D60002380D7008347E4FE85072307F4FE03473B
:103D7000E4FE9307F004E3F7E7F88347F4FE8507D2
:103D8000A307F4FE0347F4FE9307B003E3F9E7F655
:103D90000100724405618280011122CE0010A30748
:103DA00004FE35A80307F4FEB72700209387076CAD
:103DB000BA97238007000307F4FEB7070020938714
:103DC0004705BA97130700052380E7008307F4FE31
:103DD00093F7F70F850793F7F70FA307F4FE030791
:103DE000F4FE9307B003E3DFE7FA010072440561D4
:103DF0008280011106CE22CC00101306C003FD55AF
:103E0000B72700201385C76FEFC08FB37137EF005E
:103E1000B04FEF00D049A38F018423800186A30314
:103E200004FE230304FE13077003238AE1846F005A
:103E3000A078A38C0184238D01840547A38AE184A3
:103E40004DA683874185BE86838751853E86372769
:103E50000020B6878A07B697920713078773BA9729
:103E6000B29703C707009307F00F631FF706838716
:103E7000418513872700838751853E86B72600201A
:103E8000BA878A07BA97920713878673BA97B29749
:103E900083C70700B1EB838741851387E7FF8387DB
:103EA00051853E86B7260020BA878A07BA979207BF
:103EB00013878673BA97B29783C7070095E78387FE
:103EC00041853E868387518513872700B7260020CA
:103ED000B2878A07B297920793868673B697BA9786
:103EE00083C707006380072E83874185BE8683874B
:103EF00051853E8637270020B6878A07B6979207F6
:103F000013078773BA97B29783C707006398072888
:103F1000838741853E868387518513871700B7269F
:103F20000020B2878A07B297920793868673B69766
:103F3000BA9703C707009307F00F6311F72683872B
:103F400041853E868387518513872700B726002049
:103F5000B2878A07B297920793868673B697BA9705
:103F600003C707009307F00F631AF7228387418581
:103F70003E868387518513874700B7260020B28786
:103F80008A07B297920793868673B697BA9703C744
:103F900007009307F00F6313F720838741853E8660
:103FA0008387518513875700B7260020B2878A0779
:103FB000B297920793868673B697BA9703C707009E
:103FC0009307F00F631CF71C038741859307400399
:103FD00063D7E710038751859307800263C1E71019
:103FE0008387518585072326F4FE69A88387418549
:103FF000BE8637270020B6878A07B6979207130731
:1040000087733E978327C4FEBA9783C70700B5E737
:10401000838741853E868327C4FE13871700B72612
:104020000020B2878A07B297920793868673B69765
:10403000BA9703C707009307F00F6310F70483874D
:1040400041853E868327C4FE13872700B7260020BC
:10405000B2878A07B297920793868673B697BA9704
:1040600003C707009307F00F6319F7008327C4FE07
:10407000139787016187A38AE1848327C4FE85079C
:104080002326F4FE0327C4FE93078002E3D0E7F65D
:1040900083874185BE8603875185B7270020938794
:1040A000076CB6972380E7000547A38CE1848387DC
:1040B000F18593F7F70F850793F7F70F13978701AC
:1040C0006187A38FE1840387F185914763D4E7007B
:1040D000A380018603875185A38BE18409AA838786
:1040E00051853E8783877185ED17634AF700838783
:1040F00051853E8783877185950763D7E70083479E
:1041000074FE93F7F70FB1CB83874185BE86038793
:104110005185B72700209387076CB6972380E70067
:104120000547A38CE1848387F18593F7F70F850713
:1041300093F7F70F139787016187A38FE1840387B4
:10414000F185914763D4E700A380018603875185F9
:10415000A38BE184A30304FE59A8838741851387B9
:104160002700B72700209387076CBA9703870700BB
:10417000894763CBE7048387418513872700B70707
:10418000002093874705BA97038707009307D00459
:1041900063DCE7028547A303F4FE3DA08387118615
:1041A00093F7F70F850793F7F70F13978701618749
:1041B000A380E18603871186914763D8E700A38F28
:1041C000018421A0010011A001008387518593F78C
:1041D000F70F850793F7F70F139787016187A38A76
:1041E000E184038751859307C004E3DCE7C4130728
:1041F000D004A38AE18445A683874185BE86838750
:1042000051853E8637270020B6878A07B6979207E2
:1042100013078773BA97B29703C707009307F00F86
:10422000631FF7068387418513872700838751859E
:104230003E86B7260020BA878A07BA979207138767
:104240008673BA97B29783C70700B1EB838741851E
:104250001387E7FF838751853E86B7260020BA87FC
:104260008A07BA97920713878673BA97B29783C75C
:10427000070095E7838741853E86838751851387AD
:10428000E7FFB7260020B2878A07B2979207938686
:104290008673B697BA9783C70700638F072C838707
:1042A0004185BE86838751853E8637270020B687A5
:1042B0008A07B697920713078773BA97B29783C78F
:1042C000070063970728838741853E86838751854A
:1042D0001387F7FFB7260020B2878A07B2979207A5
:1042E00093868673B697BA9703C707009307F00FB4
:1042F0006310F726838741853E8683875185138720
:10430000E7FFB7260020B2878A07B2979207938605
:104310008673B697BA9703C707009307F00F631920
:10432000F722838741853E86838751851387C7FFA0
:10433000B7260020B2878A07B297920793868673C2
:10434000B697BA9703C707009307F00F6312F720D9
:10435000838741853E86838751851387B7FFB726BC
:104360000020B2878A07B297920793868673B69722
:10437000BA9703C707009307F00F631BF71C038767
:1043800041859307400363D6E71003875185930760
:10439000700263D0E710838751852324F4FE69A857
:1043A00083874185BE8637270020B6878A07B69760
:1043B0009207130787733E97832784FEBA9783C7B4
:1043C0000700B5E7838741853E86832784FE1387F0
:1043D000F7FFB7260020B2878A07B2979207938625
:1043E0008673B697BA9703C707009307F00F631059
:1043F000F704838741853E86832784FE1387E7FF82
:10440000B7260020B2878A07B297920793868673F1
:10441000B697BA9703C707009307F00F6319F70021
:10442000832784FE139787016187A38AE18483270A
:1044300084FEFD172324F4FE032784FE93077002F5
:10444000E3C0E7F683874185BE8603875185B707BA
:10445000002093874705B6972380E7000547238D03
:10446000E1848387018693F7F70F850793F7F70FAA
:104470001397870161872380E1860387018691472F
:1044800063D4E7002381018603875185238CE1846F
:1044900001AA838751853E8783878185ED17634A0B
:1044A000F700838751853E8783878185950763D78A
:1044B000E700834764FE93F7F70FB1CB838741850D
:1044C000BE8603875185B707002093874705B697B7
:1044D0002380E7000547238DE1848387018693F7D6
:1044E000F70F850793F7F70F1397870161872380ED
:1044F000E18603870186914763D4E7002381018623
:1045000003875185238CE184230304FE51A883870C
:10451000418513872700B72700209387076CBA9738
:1045200003870700894763CBE704838741851387A7
:104530002700B707002093874705BA97038707002E
:104540009307D00463DCE70285472303F4FE3DA014
:104550008387218693F7F70F850793F7F70F139754
:10456000870161872381E18603872186914763D88C
:10457000E7002380018621A0010011A001008387AC
:10458000518593F7F70FFD1793F7F70F13978701EF
:104590006187A38AE184038751858D47E3CEE7C411
:1045A0008387418593F7F70FFD1793F7F70F13975D
:1045B00087016187238AE184038741858547E3CAB0
:1045C000E7860100F240624405618280011106CE57
:1045D00022CC26CA0010FD57A303F4FEFD57230387
:1045E000F4FE8D472307F4FE8D47A306F4FEA9676A
:1045F00083A707982324F4FE93077003A307F4FE10
:1046000061A90307F4FEB72700209387076CBA97C8
:1046100083870700638F071A0307F4FEB70700209C
:1046200093874705BA97038707009307000563122E
:10463000F71A8307D4FE638E07180307D4FE8D474D
:104640006311F70C8347F4FE2306F4FE49A8030721
:10465000C4FEB707002093874705BA970387070072
:10466000930700056306F7068347C4FE890793F79F
:10467000F70F2306F4FE91A00307C4FEB72600201F
:10468000BA878A07BA97920713878673BA9703C7C0
:1046900067049307F00F631BF7028307D4FE93F7B9
:1046A000F70FFD1793F7F70FA306F4FE8347C4FE39
:1046B000F91793F7F70F2306F4FE0307C4FE8547A7
:1046C00063D8E7028307D4FEC5FB1DA001000DA03F
:1046D0008347C4FEF91793F7F70F2306F4FE030789
:1046E000C4FE854763D7E7008307D4FEADF311A06E
:1046F00001008307D4FEB337F00093F7F70FA3064A
:10470000F4FE0307F4FE9307400363DEE7020307AA
:10471000F4FEB72700209387076CBA9783870700BA
:104720009387070513D7F701BA9785878306F4FEA9
:10473000139787016187B72700209387C76FB697C4
:104740002380E70009AE8307F4FE13871700B7271D
:1047500000209387C76FBA97838707003E85EF30A5
:104760001027AA840307F4FEB72700209387076C5D
:10477000BA9783870700BE868307F4FE1387170066
:10478000B72700209387076CBA9783870700B38702
:10479000F6403E85EF30B023AA87832584FE3E8510
:1047A000EF30A035AA87BE852685EF203042AA8744
:1047B0008304F4FE3E85EF301016AA871397870115
:1047C0006187B72700209387C76FA6972380E700EC
:1047D00059A40307F4FEB72700209387076CBA9704
:1047E00083870700639A071A0307F4FEB7070020C0
:1047F00093874705BA970387070093070005630D62
:10480000F7188307E4FE638907180307E4FE8D4762
:10481000631EF70A8347F4FE2306F4FE71A0030724
:10482000C4FEB72700209387076CBA9783870700D9
:10483000ADC78347C4FE890793F7F70F2306F4FE3D
:1048400091A00307C4FEB7260020BA878A07BA974B
:10485000920713878673BA9703C7A7009307F00FD1
:10486000631BF7028307E4FE93F7F70FFD1793F737
:10487000F70F2307F4FE8347C4FEF91793F7F70FEA
:104880002306F4FE0307C4FE854763D8E7028307C7
:10489000E4FEC5FB1DA001000DA08347C4FEF9176F
:1048A00093F7F70F2306F4FE0307C4FE854763D78B
:1048B000E7008307E4FEA5F711A001008307E4FEEB
:1048C000B337F00093F7F70F2307F4FE0307F4FE66
:1048D0009307400363DCE7020307F4FEB7070020F9
:1048E00093874705BA97838707008306F4FE13D79B
:1048F000F701BA978587139787016187B72700204B
:104900009387C76FB6972380E700B1A28307F4FEB1
:1049100013871700B72700209387C76FBA9783873D
:1049200007003E85EF30B00AAA840307F4FEB707FC
:10493000002093874705BA9783870700BE868307C1
:10494000F4FE13871700B707002093874705BA972F
:1049500083870700B387F6403E85EF305007AA876C
:10496000832584FE3E85EF304019AA87BE852685C3
:10497000EF20D025AA878304F4FE3E85EF30A0798E
:10498000AA87139787016187B72700209387C76F8E
:10499000A6972380E700C1A00307F4FEB7270020F5
:1049A0009387076CBA9703870700894763C1E706B7
:1049B0000307F4FEB707002093874705BA970387DC
:1049C00007009307D00463D4E7048307F4FE13873A
:1049D00017008306F4FEB72700209387C76FBA97A6
:1049E00003870700B72700209387C76FB6972380F8
:1049F000E700834774FE0307F4FEB7270020938780
:104A0000C76FBA97130780022380E700A9A00307A6
:104A1000F4FEB72700209387076CBA9783870700B7
:104A2000BE860307F4FEB707002093874705BA97B1
:104A300083870700B69713D7F701BA978587830650
:104A4000F4FE139787016187B72700209387C76F0C
:104A5000B6972380E7000307F4FE8306F4FEB7272A
:104A600000209387C76FB697838707003E86B726D7
:104A70000020BA878A07BA97920713878673BA9776
:104A8000B297238007008307F4FE93F7F70FFD1713
:104A900093F7F70FA307F4FE0307F4FEA147E3C261
:104AA000E7B60100F2406244D244056182804111C0
:104AB00022C60008A38F018423800186A38001867B
:104AC00023810186A38C0184238D0184A381018627
:104AD00023820186A3820186A38C0184238D018415
:104AE000A38D0184238E0184A38B01841307D0043A
:104AF000238CE184238B0184A38E0184238F018482
:104B00000100324441018280411122C60008B727CA
:104B10000020938787730567BA977D57A383E7249F
:104B2000B7270020938787730567BA977D5723843B
:104B3000E724B7270020938787730567BA977D57C7
:104B4000238CE728B7270020938787730567BA97D8
:104B50007D57A38BE71EB7270020938787730567D0
:104B6000BA977D572382E724B7270020938787735E
:104B70000567BA977D572383E71AB72700209387E5
:104B800087730567BA977D57A38AE714B727002074
:104B9000938787730567BA977D572382E71AB727EC
:104BA0000020938787730567BA977D57A389E71E0F
:104BB000B7270020938787730567BA977D57A3812E
:104BC000E724B7270020938787730567BA977D5737
:104BD000A389E7280100324441018280011106CEF9
:104BE00022CC26CA0010930700002324F4FE2326BB
:104BF000F4FE232004FE232204FEB727002093871F
:104C0000C76F83877703BE8513057003B12AAA8710
:104C10002E8823A4F1861387818623220701B727D4
:104C200000209387C76F8387A702BE851305A00264
:104C3000252AAA872E882320F4FE232204FF032797
:104C400044FE93878186DC43BE853A85EF3020148D
:104C5000AA872326F4FE0325C4FEEF308070A967DF
:104C600003A6879883A6C798EF107024AA8763D7F6
:104C70000700A96783A707992326F4FE032704FEEC
:104C800083A78186BE853A85EF306010AA87832589
:104C9000C4FE3E85EF20302AAA872324F4FE032792
:104CA00084FE23A8E18603A7818683A7C180BE85F1
:104CB0003A85EF209064AA87BE8403A7818683A7E4
:104CC000C184BE853A85EF30800CAA873E8783A7D2
:104CD0004184BE853A85EF205062AA87BE8526852D
:104CE000EF20C06EAA873E85EF30E042AA87139777
:104CF000070141872390E18493878186D84323A6C7
:104D0000E18403A7018183A70187BE853A85EF204F
:104D1000D05EAA87BE8403A7018783A70185BE85CD
:104D20003A85EF30C006AA873E8783A78184BE8577
:104D30003A85EF20905CAA87BE852685EF20006922
:104D4000AA873E85EF30203DAA8713970701418748
:104D50002391E18403A7018723A8E1840100F240A5
:104D60006244D24405618280397106DE22DC4ADA6F
:104D70004ED852D656D45AD25ED08000AA872E87FB
:104D8000A307F4FCBA872307F4FC8307F4FC93F72A
:104D9000F70F850793F7F70FA307F4FC8307E4FCED
:104DA00093F7F70F850793F7F70F2307F4FC8307B3
:104DB000E4FC3E85EF20605AA96703A6879983A685
:104DC000C799EF10301AAA872E883E8AC28A8307B5
:104DD000F4FC3E85EF206058A96703A6079A83A6D6
:104DE000479AEF103018AA872E883E86C2865285D1
:104DF000D685EF00903DAA872E883E85C285A9679B
:104E000003A6879A83A6C79AEF105061AA872E88B7
:104E10003E8AC28A8307E4FC3E85EF200054A967DE
:104E200003A6079B83A6479BEF10D013AA872E8863
:104E30003E8BC28B8307F4FC3E85EF200052A967AE
:104E400003A6879B83A6C79BEF10D011AA872E8845
:104E50003E86C2865A85DE85EF003037AA872E88C7
:104E60003E85C285A96703A6079C83A6479CEF00E1
:104E7000D035AA872E883E86C2865285D685EF1009
:104E8000C027AA872E883E85C285EF304058AA8762
:104E90002328F4FC8307E4FC3E85EF20004CA9673F
:104EA00003A6879C83A6C79CEF10D00BAA872E88E9
:104EB0003E8AC28A8307F4FC3E85EF20004AA96738
:104EC00003A6079D83A6479DEF10D009AA872E88C9
:104ED0003E86C2865285D685EF00302FAA872E885F
:104EE0003E85C285A96703A6879D83A6C79DEF005F
:104EF000D02DAA872E883E8AC28A8307E4FC3E858D
:104F0000EF20A045A96703A6079B83A6479BEF1048
:104F10007005AA872E883E8BC28B8307F4FC3E85E2
:104F2000EF20A043A96703A6879B83A6C79BEF102A
:104F30007003AA872E883E86C2865A85DE85EF00DA
:104F4000D028AA872E883E85C285A96703A6079C1C
:104F500083A6479CEF007027AA872E883E86C286CC
:104F60005285D685EF106019AA872E883E85C285A6
:104F7000EF30E049AA87232AF4FC832704FD232C81
:104F8000F4FC832744FD232EF4FC0147032784FD12
:104F900081478327C4FD3A89BE89CA874E883E85EA
:104FA000C285F25062545259C259325AA25A125B07
:104FB000825B2161828013010196232E1168232CCC
:104FC0008168232A9168232821691304016AA307B1
:104FD00004FEFD572307F4FEA947A30BF4F8230BA7
:104FE00004F893070005A30AF4F89307C003230A03
:104FF000F4F8034754F9834764F9B307F74013976C
:1050000007014183834644F9834774F9B387F64027
:10501000C207C183B307F7022319F4F8930744D6F4
:10502000130700203A8681453E85EFB06F919307C4
:105030004496130700403A8681453E85EFB04F9075
:10504000834774F92316F4FEA5A8834764F9231552
:10505000F4FE91A80357C4FE8356A4FE3726002011
:10506000BA878A07BA97920713078673BA97B697D3
:1050700083C7070013F7C70F93171700930604FFA2
:10508000B69783D747D7850793960701C1829317B1
:105090001700130704FFBA97239AD7D68357A4FEA5
:1050A00085072315F4FE834754F9C207C1830357CC
:1050B000A4FEE361F7FA8357C4FE85072316F4FEC6
:1050C000834744F9C207C1830357C4FEE36FF7F671
:1050D000A30304FE231604FE35A88357C4FE8607E7
:1050E000130704FFBA9783D747D789CB8357C4FEEA
:1050F0002307F4FE8547A303F4FE01A8834774FE4B
:1051000089E78357C4FEA307F4FE8357C4FE9107C3
:105110002316F4FE0357C4FE9307F00FE3FFE7FAEC
:10512000930700002320F4FE231604FE51A08357AA
:10513000C4FE8607130704FFBA9783D747D73E8577
:10514000EF3040152A89835724F93E85EF308014CB
:10515000AA878354C4FEBE854A85EF20C05DAA8716
:105160003E8793972400930604FFB69723AAE796F9
:105170008357C4FE3E85EF3080052A878357C4FEDF
:105180008A07930604FFB69783A74797BE853A859B
:10519000EF20B016AA87BE85032504FEEF2000236A
:1051A000AA872320F4FE8357C4FE91072316F4FE3A
:1051B0000357C4FE9307F00FE3FBE7F6032504FE55
:1051C000EF20907BAA87A308F4F8232E04FC232C5D
:1051D00004FC232A04FC232804FC8347F4FE231642
:1051E000F4FE79A8834714F9C207C1830357C4FEAC
:1051F0006373F7048357C4FE8607130704FFBA9747
:1052000083D747D73E87832744FDBA97232AF4FCE8
:105210000357C4FE8357C4FE8607930604FFB69760
:1052200083D747D7B307F7023E878327C4FDBA97D2
:10523000232EF4FC89A08357C4FE8607130704FFBE
:10524000BA9783D747D73E87832704FDBA97232889
:10525000F4FC0357C4FE8357C4FE8607930604FF7D
:10526000B69783D747D7B307F7023E87832784FDD6
:10527000BA97232CF4FC8357C4FE91072316F4FE3F
:105280008347E4FEC207C1830357C4FEE36CF7F40F
:105290000327C4FD832744FDB357F702232EF4FCF4
:1052A000032784FD832704FDB357F702232CF4FC66
:1052B000130700002326E4F88327C4F82324F4F816
:1052C000832784F82322F4F8832744F82320F4FC6E
:1052D000832704FC2322F4FC832744FC2324F4FCCE
:1052E000832784FC2326F4FC2320E4F8832704F896
:1052F000232EF4F68327C4F7232CF4F6832784F7B0
:105300002328F4FA832704FB232AF4FA832744FB97
:10531000232CF4FA832784FB232EF4FA8347F4FE2C
:105320002315F4FE41A28357A4FE032784FD636E78
:10533000F7048357A4FE8A07130704FFBA9783A7CD
:105340004797BE850325C4FBEF204008AA87232E7C
:10535000F4FA8357A4FE3E85EF2070672A878357AF
:10536000A4FE8A07930604FFB69783A74797BE85D6
:105370003A85EF208078AA87BE85032544FBEF207D
:10538000E004AA87232AF4FAA1A88357A4FE8A0777
:10539000130704FFBA9783A74797BE85032584FBAD
:1053A000EF20C002AA87232CF4FA8357A4FE3E857F
:1053B000EF20F0612A878357A4FE8A07930604FF33
:1053C000B69783A74797BE853A85EF200073AA87D3
:1053D000BE85032504FBEF10707FAA872328F4FA0B
:1053E0008357A4FE0327C4FD636EF7048357A4FE0E
:1053F0008A07130704FFBA9783A74797BE8503253B
:10540000C4FCEF10B07CAA872326F4FC8357A4FECB
:105410003E85EF20D05B2A878357A4FE8A07930638
:1054200004FFB69783A74797BE853A85EF20E06CC7
:10543000AA87BE85032544FCEF105079AA87232252
:10544000F4FCA1A88357A4FE8A07130704FFBA97A8
:1054500083A74797BE85032584FCEF103077AA8782
:105460002324F4FC8357A4FE3E85EF2050562A8760
:105470008357A4FE8A07930604FFB69783A747972E
:10548000BE853A85EF206067AA87BE85032504FCA8
:10549000EF10D073AA872320F4FC8357A4FE910752
:1054A0002315F4FE8347E4FEC207C1830357A4FE1D
:1054B000E36BF7E68325C4FC032544FCEF20A0271B
:1054C000AA872322F4F8832584FC032504FCEF201B
:1054D0008026AA872324F4F8832504FC032544FCB2
:1054E000EF10D06EAA872326F4F88325C4FB03258A
:1054F00044FBEF204024AA87232CF4F6832584FB69
:10550000032504FBEF202023AA87232EF4F683250E
:1055100004FB032544FBEF10706BAA872320F4F8EB
:105520008325C4F8032544F8EF207006AA87832555
:10553000C4FC3E85EF20605CAA87BE848325C4F846
:10554000032544F8EF20B004AA87BE852685EF2006
:10555000C05AAA87BE848325C4F8032584F8EF20A7
:105560001003AA87832584FC3E85EF200059AA8773
:105570003E898325C4F8032584F8EF205001AA87CB
:10558000BE854A85EF206057AA87BE852685EF1025
:10559000F063AA872326F4FA832504F8032584F709
:1055A000EF20E07EAA878325C4FB3E85EF20E054F0
:1055B000AA87BE84832504F8032584F7EF20207D85
:1055C000AA87BE852685EF204053AA87BE848325FF
:1055D00004F80325C4F7EF20807BAA87832584FB8A
:1055E0003E85EF208051AA873E89832504F8032554
:1055F000C4F7EF20C079AA87BE854A85EF20E04F27
:10560000AA87BE852685EF10705CAA872324F4FA4A
:105610008327C4FDA304F4FE832784FD2304F4FE42
:10562000A147A30BF4F6034794FE834784FEBA9781
:1056300085872316F4FE4DA4930700002328F4F673
:10564000832704F72326F4F68327C4F62324F4F6ED
:10565000832784F62322F4F6832744F6232CF4F8D8
:10566000832784F9232EF4F88327C4F92320F4FA3E
:10567000832704FA2322F4FA8347F4FE2315F4FE69
:10568000D9A00357A4FE8357C4FE63EEE7048357F3
:10569000A4FE8A07130704FFBA9783A74797BE851E
:1056A000032544FAEF109052AA872322F4FA835775
:1056B000A4FE3E85EF20B0312A878357A4FE8A07D7
:1056C000930604FFB69783A74797BE853A85EF20D8
:1056D000C042AA87BE850325C4F9EF10304FAA87C0
:1056E000232EF4F8A1A88357A4FE8A07130704FF0A
:1056F000BA9783A74797BE85032504FAEF10104D8C
:10570000AA872320F4FA8357A4FE3E85EF20302C8D
:105710002A878357A4FE8A07930604FFB69783A7B8
:105720004797BE853A85EF20403DAA87BE85032571
:1057300084F9EF10B049AA87232CF4F88357A4FE0C
:1057400091072315F4FE8347E4FEC207C183035784
:10575000A4FEE368F7F2832544FA0325C4F9EF10A9
:10576000907DAA872322F4F6832504FA032584F981
:10577000EF10707CAA872324F4F6832584F903258F
:10578000C4F9EF10B044AA872326F4F68325C4F6A3
:10579000032544F6EF20A05FAA87832544FA3E85BF
:1057A000EF20A035AA87BE848325C4F6032544F6DE
:1057B000EF20E05DAA87BE852685EF200034AA870A
:1057C000BE848325C4F6032584F6EF20405CAA87B7
:1057D000832504FA3E85EF204032AA873E8983253F
:1057E000C4F6032584F6EF20805AAA87BE854A8531
:1057F000EF20A030AA87BE852685EF10303DAA870E
:105800002328F4F68325C4FA032504F7EF20C01DEE
:10581000AA8763C407028325C4FA032584FAEF200C
:10582000A01CAA8763CB07008357C4FEA304F4FE21
:10583000832704F72326F4FA41A8832584FA032555
:1058400004F7EF20601AAA8763C40702832584FA4D
:105850000325C4FAEF204019AA8763CB07008357BA
:10586000C4FE2304F4FE832704F72324F4FAA9A832
:105870008325C4FA032504F7EF20601FAA87634538
:10588000F004832584FA032504F7EF20401EAA873D
:10589000634CF002832584FA0325C4FAEF20C01478
:1058A000AA8763CB07008357C4FE2304F4FE832733
:1058B00004F72324F4FA09A88357C4FEA304F4FED2
:1058C000832704F72326F4FA034794FE834784FED4
:1058D000BA9785872316F4FE034784FE834794FE18
:1058E0001D8F834774F7E3C9E7D48357C4FE93F74A
:1058F000F70F3E858320C1690324816983244169B0
:10590000032901691301016A8280011106CE22CCAC
:105910000010EFF04FEAAA87A306F4FEA30704FEE7
:1059200051A8230704FEA5A80347F4FE8346E4FE1E
:1059300037260020BA878A07BA979207130786731B
:10594000BA97B69783C707000347D4FE6374F7027C
:105950000347F4FE8346E4FE37260020BA878A0711
:10596000BA97920713078673BA97B6977D57238025
:10597000E7000DA00347F4FE8346E4FE372600202F
:10598000BA878A07BA97920713078673BA97B697AA
:10599000238007008347E4FE85072307F4FE0347BF
:1059A000E4FE9307F004E3F1E7F88347F4FE85078C
:1059B000A307F4FE0347F4FE9307B003E3F3E7F60F
:1059C0000100F24062440561828037081000011135
:1059D0007D183377B80026CA3378D80093D44501B0
:1059E00013D34601131E37004EC61357D5010E08B8
:1059F0009357D60193F4F47F1373F37F06CE22CC32
:105A00004AC893D9F50193DEF6013367C701131F26
:105A1000350033E80701931F3600338E64406380FE
:105A2000D9196356C0136304031CB706800093079B
:105A3000F07F3368D800638FF4369307800363C028
:105A4000C735FD4763CDC747130500023305C54180
:105A5000B3D7CF01B316A8003399AF00DD8E333929
:105A60002001B357C80133E926011D8F33092F41A7
:105A7000B3372F013306F7409317860063D407240A
:105A8000370780007D173374E600630C042C2285F1
:105A9000EF20902E130785FF93070002998FB357CD
:105AA000F9003316E400D18F3319E9006341972AD6
:105AB00033059740130615007D47634DC73813071C
:105AC0000002118FB356C9003319E9003397E7007C
:105AD000558F333920013369270133D6C7008144FC
