:100000006F00C05513000000130000001300000033
:100010001300000013000000130000001300000094
:100020001300000013000000130000001300000084
:08003000130000007300100032
:100038006FF09FFC000000006F0060456F002046D5
:1000480000000000000000000000000000000000A8
:100058000000000000000000000000000000000098
:100068006FF09FF9000000006FF01FF9000000001A
:100078006FF09FF86FF05FF86FF01FF86FF0DFF721
:100088006FF09FF76FF05FF76F00000B6F00C00B0A
:100098006F00E00F6F00E0106F00A0116FF0DFF548
:1000A8006FF09FF56FF05FF56F00003A6FF0DFF4C7
:1000B8006FF09FF46FF05FF46F00A0120000000073
:1000C8000000000000000000000000006F00600F4A
:1000D8006F0020126F0020156F00E0176F00201DC1
:1000E8006F00E0256F00A0286F00602B6FF0DFF035
:1000F8006FF09FF06FF05FF06FF01FF06FF0DFEFC1
:100108006FF09FEF6F00A02C6F00602D6F00C03262
:100118006F00200C6FF05FEE6FF01FEE6FF0DFEDF9
:1001280000000000000000000000000000000000C7
:080138000000000000000000BF
:10014000411122C6000801003244410173002030F1
:10015000411122C600080945092B2A8785476317E4
:10016000F702B707002003A7470189476315F70087
:10017000EF10001811A8B707002003A74701854713
:100180006314F700EF10800909451D2B010032446C
:10019000410173002030411122C6000811450D2392
:1001A00001003244410173002030411122C6000891
:1001B00001003244410173002030411122C6000881
:1001C00001003244410173002030411122C6000871
:1001D00001003244410173002030411122C6000861
:1001E00001003244410173002030411122C6000851
:1001F00001003244410173002030411122C6000841
:1002000093050008B7370140138507C0EF00903110
:10021000AA8789CB93050008B7370140138507C02B
:10022000EF0050370100324441017300203041118A
:1002300022C600088545B7370140138507C0EF0087
:10024000702EAA8781CB8545B7370140138507C03B
:10025000EF0050340100324441017300203041115D
:1002600022C6000893050004B7370140138507C074
:10027000EF00502BAA8789CB93050004B7370140C4
:10028000138507C0EF00103193050002B737014016
:10029000138507C0EF001029AA8789CB93050002B8
:1002A000B7370140138507C0EF00D02E010032445C
:1002B000410173002030411122C600088945B7373B
:1002C0000140138507C0EF00F025AA8781CB89453F
:1002D000B7370140138507C0EF00D02B9145B737E2
:1002E0000140138507C0EF00F023AA8781CB914519
:1002F000B7370140138507C0EF00D029A145B737B4
:100300000140138507C0EF00F021AA8781CBA145EA
:10031000B7370140138507C0EF00D027C145B73775
:100320000140138507C0EF00F01FAA8781CBC145AC
:10033000B7370140138507C0EF00D02501003244D4
:10034000410173002030411122C600088545370560
:100350000040EF00301DAA8791CB8545370500404E
:10036000EF00502313055002EF10E020010032444B
:10037000410173002030411122C600088545B707AE
:10038000004013850740EF00F019AA8781CB85450F
:10039000B707004013850740EF00D01F010032442B
:1003A000410173002030411122C600088545B7176E
:1003B000004013850780EF00F016AA8781CB8545A2
:1003C000B717004013850780EF00D01C01003244AE
:1003D000410173002030411122C60008010032445F
:1003E000410173002030411122C60008930550528C
:1003F000B747004013850740EF00D045AA8785CF57
:1004000093055052B747004013850740EF00B054A2
:10041000B707002003A7470189476315F700EF00DE
:10042000306611A8B707002003A74701854763146A
:10043000F700EF00305701003244410173002030D3
:10044000411122C6000801003244410173002030EE
:10045000411122C600080965BD2A2A87854763170E
:10046000F7020965F922B707002003A7470189476A
:100470006315F700EF00306B11A8B707002003A742
:10048000470185476314F700EF00B05C0100324478
:10049000410173002030411122C60008010032449E
:1004A000410173002030411122C6000801A0011152
:1004B00006CE22CC4ACA4EC852C656C45AC25EC0E4
:1004C0000010EF104016EF10404303A781818967A9
:1004D000938707F43357F7029307C012B307F70265
:1004E0003E8B814B5A85DE85EF10201A9306003132
:1004F0000146854513052006EF00D0650145EF1044
:100500004016814513052006EF00107F03A7818167
:100510008967938707F43357F7029307803EB30741
:10052000F7023E8A814A5285D685EF10001685452E
:1005300013052006EF00507C03A78181896793870C
:1005400007F43357F7029307803EB307F7023E895B
:1005500081494A85CE85EF10401365B79701002089
:100560009381412B175100201301C1A917150000D9
:100570001305055B970500209385C5A81386818028
:1005800063FAC5008322050023A0550011059105DB
:10059000E3EAC5FE13858180938581826377B50088
:1005A000232005001105E36DB5FE9302800873A0BA
:1005B000023097020000938262A893E212007390C7
:1005C0005230EF10E04B97020000938282EE73905E
:1005D000123473002030797122D60018232EA4FC27
:1005E000232604FE232404FE0327C4FDB7070010BE
:1005F000F98F89CBB7070240938707409C43232498
:10060000F4FE31A0B70702409C432324F4FE0327E5
:1006100084FE8327C4FDF98F89C785472326F4FE0E
:1006200019A0232604FE8327C4FE3E85325445616B
:100630008280011122CE00102326A4FE0327C4FECF
:10064000B7070010F98F89CBB7070240938707409F
:100650000327C4FED8C331A0B70702400327C4FE56
:10066000D8C30100724405618280797122D60018D6
:10067000232EA4FC232604FE232404FEB7070140F6
:10068000938707409C430327C4FDF98F2324F4FE7E
:10069000B707014093870740D84B8327C4FDF98FE4
:1006A00081CB832784FE89C785472326F4FE19A0C2
:1006B000232604FE8327C4FE3E8532544561828092
:1006C000011122CE00102326A4FEB7070140938714
:1006D00007400327C4FED8CB010072440561828025
:1006E000397122DE80002326A4FC2324B4FC2326B7
:1006F00004FE232004FE232404FE232E04FC2322D4
:1007000004FE232C04FC832784FC9C47BD8B2326FA
:10071000F4FE832784FC9C47C18B89CB832784FC10
:10072000DC430327C4FED98F2326F4FE832784FCF1
:1007300083D7070093F7F70FF1CF8327C4FC9C43BF
:100740002322F4FE232404FE65A8832784FE0547A4
:10075000B317F700232EF4FC832784FC83D707000C
:100760003E878327C4FDF98F2320F4FE032704FE70
:100770008327C4FD6311F708832784FE8A07232E8D
:10078000F4FC8327C4FD3D47B317F700232CF4FC8A
:10079000832784FD93C7F7FF032744FEF98F2322A5
:1007A000F4FE8327C4FD0327C4FEB317F700032715
:1007B00044FED98F2322F4FE832784FC98479307B5
:1007C0008002631BF700832784FE05473317F70079
:1007D0008327C4FCD8CB05A0832784FC98479307C4
:1007E0008004631AF700832784FE05473317F70058
:1007F0008327C4FC98CB832784FE85072324F4FE3B
:10080000032784FE9D47E3F2E7F48327C4FC032714
:1008100044FE98C3832784FC03D707009307F00F97
:1008200063F1E70E8327C4FCDC432322F4FE232478
:1008300004FE75A8832784FEA1070547B317F700B8
:10084000232EF4FC832784FC83D707003E8783276D
:10085000C4FDF98F2320F4FE032704FE8327C4FD83
:100860006312F708832784FE8A07232EF4FC83276C
:10087000C4FD3D47B317F700232CF4FC832784FD08
:1008800093C7F7FF032744FEF98F2322F4FE832743
:10089000C4FD0327C4FEB317F700032744FED98F16
:1008A0002322F4FE832784FC984793078002631B6E
:1008B000F700832784FEA10705473317F700832736
:1008C000C4FCD8CB832784FC984793078004631B20
:1008D000F700832784FEA10705473317F700832716
:1008E000C4FC98CB832784FE85072324F4FE0327CA
:1008F00084FE9D47E3F0E7F48327C4FC032744FE0E
:10090000D8C30100725421618280011122CE0010EF
:100910002326A4FEAE872322C4FE2315F4FE8327DC
:1009200044FE99C70357A4FE8327C4FE98CB31A089
:100930000357A4FE8327C4FED8CB0100724405618F
:100940008280797122D60018232EA4FC232CB4FCBB
:10095000232404FE232204FE232604FE232004FE77
:100960008327C4FD63D80700B7070140DC4F232667
:10097000F4FE31A0B7070140DC432326F4FE8327B1
:10098000C4FDC183BD8B2320F4FE0327C4FDC167D2
:10099000FD17F98F2324F4FE0327C4FDB7073000A9
:1009A0007D8FB70730006315F7020327C4FEB70732
:1009B00000F1FD17F98F2326F4FEB7070140D44359
:1009C000B7070140370700F17D17758FD8C3ADA079
:1009D0000327C4FDB7071000F98F8DCB832704FED2
:1009E0000D47B317F7002322F4FE832744FE93C775
:1009F000F7FF0327C4FEF98F2326F4FE0327C4FE66
:100A0000B707000FD98F2326F4FE3DA08327C4FD2E
:100A1000D5839207032784FEB317F70093C7F7FF28
:100A20000327C4FEF98F2326F4FE0327C4FEB7076D
:100A3000000FD98F2326F4FE832784FD91CF8327CF
:100A4000C4FDD5839207032784FEB317F70003275D
:100A5000C4FED98F2326F4FE8327C4FD63D8070084
:100A6000B70701400327C4FED8CF31A0B707014024
:100A70000327C4FED8C301003254456182807971D6
:100A800022D60018232EA4FC232604FE232404FED1
:100A9000232204FE232004FEB7170240DC43B18B5F
:100AA0002326F4FE0327C4FE91476302F7020327BF
:100AB000C4FEA1476305F7028327C4FEC5E7832769
:100AC000C4FD37177A001307072098C365A0832752
:100AD000C4FD37177A001307072098C361A8B7171A
:100AE0000240D843B7073C00F98F2324F4FEB71720
:100AF0000240D843C167F98F2322F4FE832784FE86
:100B0000C98389072324F4FE832744FE89EF032742
:100B100084FEB7173D00938707903307F7028327BA
:100B2000C4FD98C381A8B7170240D843B707020095
:100B3000F98F89CF032784FEB7173D00938707906D
:100B40003307F7028327C4FD98C32DA0032784FE33
:100B5000B7177A00938707203307F7028327C4FD6E
:100B600098C309A88327C4FD37177A001307072005
:100B700098C30100B7170240DC4393F7070F232601
:100B8000F4FE8327C4FE91832326F4FEB7070020DA
:100B9000138707008327C4FEBA9783C7070093F71C
:100BA000F70F2320F4FE8327C4FD9843832704FE18
:100BB0003357F7008327C4FDD8C3B7170240DC437F
:100BC00093F707702326F4FE8327C4FEA183232610
:100BD000F4FEB7070020138707008327C4FEBA97E7
:100BE00083C7070093F7F70F2320F4FE8327C4FD84
:100BF000D843832704FE3357F7008327C4FD98C7E3
:100C0000B7170240D843916793870780F98F23264F
:100C1000F4FE8327C4FEAD832326F4FEB70700202D
:100C2000138707008327C4FEBA9783C7070093F78B
:100C3000F70F2320F4FE8327C4FDD843832704FE47
:100C40003357F7008327C4FDD8C7B7170240D843EE
:100C5000B167F98F2326F4FE8327C4FEB9832326C8
:100C6000F4FEB7070020138707018327C4FEBA9755
:100C700083C7070093F7F70F2320F4FE8327C4FDF3
:100C8000D847832704FE3357F7028327C4FD98CB48
:100C90000100325445618280011122CE00102326CA
:100CA000A4FE2324B4FE832784FE99CBB717024009
:100CB000944FB71702400327C4FE558F98CF21A841
:100CC000B7170240944F8327C4FE13C7F7FFB71727
:100CD0000240758F98CF0100724405618280011136
:100CE00022CE00102326A4FE2324B4FE832784FEF4
:100CF00099CBB7170240D44FB71702400327C4FE61
:100D0000558FD8CF21A8B7170240D44F8327C4FEF0
:100D100013C7F7FFB7170240758FD8CF0100724491
:100D200005618280797122D60018232EA4FCAE873B
:100D3000231DF4FC232604FE231504FE231404FEC5
:100D40008327C4FD83D70701139707014183835786
:100D5000A4FDF98F2315F4FE8327C4FD83D7C700B4
:100D60001397070141838357A4FDF98F2314F4FEE1
:100D70008357A4FE81CB835784FE89C785472326EA
:100D8000F4FE19A0232604FE8327C4FE3E853254B8
:100D900045618280011122CE00102326A4FEAE8779
:100DA0002315F4FE8357A4FE93C7F7FF139707019B
:100DB00041838327C4FE2398E70001007244056144
:100DC00082805D7186C6A2C48008232EA4FA232CDB
:100DD000B4FA232604FE232404FE232204FE232047
:100DE00004FE232E04FC8327C4FB232EF4FC83275C
:100DF000C4FB83D70701C207C1832326F4FE032760
:100E0000C4FEB567FD17F98F2326F4FE832784FB04
:100E100083D767003E878327C4FED98F2326F4FE3D
:100E20008327C4FE1397070141838327C4FB2398BC
:100E3000E7008327C4FB83D7C700C207C1832326EB
:100E4000F4FE0327C4FEBD679387379FF98F2326DF
:100E5000F4FE832784FB03D74700832784FB83D7D3
:100E60008700D98F139707014183832784FB83D79A
:100E7000A700D98FC207C1833E878327C4FED98FBD
:100E80002326F4FE8327C4FE13970701418383279B
:100E9000C4FB2396E7008327C4FB83D74701C2071F
:100EA000C1832326F4FE0327C4FEC1679387F7CFCF
:100EB000F98F2326F4FE832784FB83D7C7003E8760
:100EC0008327C4FED98F2326F4FE8327C4FE1397FD
:100ED000070141838327C4FB239AE700930784FC1F
:100EE0003E85713E0327C4FDB747014093870780C5
:100EF0006317F700832744FD2324F4FE29A08327EA
:100F000004FD2324F4FE8327C4FB83D7C700C20754
:100F1000C183C207C18763D20702032784FEBA8751
:100F20008607BA978E073E97832784FB9C438607E4
:100F3000B357F7022322F4FE05A0032784FEBA87E5
:100F40008607BA978E073E97832784FB9C438A07C0
:100F5000B357F7022322F4FE032744FE930740060B
:100F6000B357F70292072326F4FE8327C4FE13D754
:100F7000470093074006B307F702032744FEB30771
:100F8000F7402320F4FE8327C4FB83D7C700C207A2
:100F9000C183C207C18763D20702832704FE8E077D
:100FA0001387270393074006B357F7029D8B032748
:100FB000C4FED98F2326F4FE05A0832704FE9207E2
:100FC0001387270393074006B357F702BD8B032708
:100FD000C4FED98F2326F4FE8327C4FE139707018E
:100FE00041838327C4FB2394E7000100B6402644D5
:100FF00061618280011122CE00102326A4FE2324E9
:10100000B4FE832784FE95C38327C4FE83D7C7001D
:101010001397070141838967D98F1397070141838C
:101020008327C4FE2396E70015A08327C4FE83D739
:10103000C700139707014183F977FD17F98F1397BD
:10104000070141838327C4FE2396E7000100724411
:1010500005618280797122D60018232EA4FCAE8708
:10106000231DF4FC232204FE232604FE232004FE79
:10107000232404FE8357A4FD93F7F70F958393F77A
:10108000F70F2320F4FE8357A4FDFD8B2326F4FEE7
:101090008327C4FE0547B317F7002326F4FE032772
:1010A00004FE8547631FF7008327C4FD83D7C7006D
:1010B000C207C1833E878327C4FEF98F2326F4FE2F
:1010C0003DA8032704FE8947631FF7008327C4FD5B
:1010D00083D70701C207C1833E878327C4FEF98FE8
:1010E0002326F4FE29A88327C4FD83D74701C2071E
:1010F000C1833E878327C4FEF98F2326F4FE8357DE
:10110000A4FDA183C207C1832322F4FE832744FEEA
:101110000547B317F7002322F4FE8327C4FD83D7C6
:101120000700C207C1833E87832744FEF98F23222D
:10113000F4FE8327C4FE81CB832744FE89C78547FD
:101140002324F4FE19A0232404FE832784FE3E8575
:10115000325445618280797122D60018232EA4FC76
:10116000AE87231DF4FC231704FE231604FE8357C9
:10117000A4FDA1832317F4FE8357E4FE0547B317AC
:10118000F7002316F4FE8357C4FE93C7F7FF1397A7
:10119000070141838327C4FD2390E70001003254F7
:1011A00045618280411122C6000889679387C7B0D4
:1011B000DC4383D7470013970701418383C7B1807E
:1011C000BE861377F70FB707002093878701B6977E
:1011D0002380E70083C7B180850713F7F70FA38546
:1011E000E18003C7B1808547631CF700B707002083
:1011F00003C787019307500A6304F700A3850180A2
:1012000003C7B1808D476317F700A38501800547A9
:101210002386E1800100324441018280411122C6CF
:101220000008B70702409387470409671307874BF5
:10123000D8C3B7070240938747049843B7070240D3
:10124000938747041367170098C301003244410194
:101250008280411122C600080547A386E180B707B6
:101260000240938747049443B7070240938747049B
:1012700041677917758F98C301003244410182801C
:10128000411122C6000889679387C7B0DC4383D722
:10129000470013970701418383C73181BE861377C7
:1012A000F70F93870181B6972380E70083C73181C9
:1012B000850713F7F70FA389E18003C731818547BD
:1012C000631AF70003C701819307500A6304F7000C
:1012D000A389018003C731818D476317F700A38974
:1012E00001800547238AE180010032444101828068
:1012F000411122C60008B7070240938747040567DB
:1013000013070796D8C3B70702409387470498434B
:10131000B7070240938747041367170098C301007B
:10132000324441018280411122C600080547A38A48
:10133000E180B7070240938747049443B707024010
:101340009387470441677917758F98C3010032442A
:1013500041018280797106D622D40018232EA4FC84
:10136000232CB4FCB2872328D4FCA30BF4FC8327E2
:10137000C4FD958393F7F70F9D8BA307F4FE832796
:10138000C4FD93F7F70FFD8B2307F4FE0327C4FD7D
:1013900093070008630DF7148327C4FD958391E735
:1013A00085451145EFF05F8F61A88327C4FD13D7F2
:1013B000570085476317F70085452145EFF0DF8D1E
:1013C00041A08327C4FD13D7570089476317F7004F
:1013D00085454145EFF05F8CA5A08327C4FD13D759
:1013E00057008D476318F700854513050002EFF09D
:1013F000BF8AB9A08327C4FD13D75700914763184C
:10140000F700854513050004EFF01F8915A8832711
:10141000C4FD13D7570095476318F700854513059A
:101420000008EFF07F8729A88327C4FD13D7570052
:1014300099476317F700854513050010EFF0DF8526
:101440008347E4FE0547B317F700C207C1832310A3
:10145000F4FE032784FD85476317F702832704FD05
:10146000C207C183A183C207C18389E78D472322B5
:10147000F4FE11A8832704FDC207C183A183C2071C
:10148000C1832322F4FE832704FDC207C18393F79F
:10149000F70F2324F4FE0347F4FE89670A079387B6
:1014A000C7AFBA979C433E87930704FEBE853A8533
:1014B000EFF00FA3032784FD8547631BF702034763
:1014C000F4FE89670A079387C7AFBA979C43BE8625
:1014D0008347E4FE0547B317F700C207C1830347FC
:1014E00074FD3A86BE853685EFF02FC211A001004B
:1014F000B250225445618280797122D60018232E81
:10150000A4FCAE87A30DF4FC8327C4FD958393F759
:10151000F70F9D8BA307F4FE8327C4FD93F7F70F06
:10152000FD8B2307F4FE0347B4FD85476312F702E2
:101530008347E4FE0547B316F7000347F4FE8967C7
:101540000A079387C7AFBA979C43368798CB05A005
:101550008347E4FE0547B316F7000347F4FE8967A7
:101560000A079387C7AFBA979C433687D8CB010049
:10157000325445618280797122D60018232EA4FC52
:101580008327C4FD958393F7F70F9D8BA307F4FE84
:101590008327C4FD93F7F70FFD8B2307F4FE034762
:1015A000F4FE89670A079387C7AFBA979C43DC4765
:1015B0000347E4FE85463397E600420741833A86B7
:1015C0008346F4FE09678A061307C7AF36971843A8
:1015D000B18F5CC70100325445618280411122C63F
:1015E0000008B7E700E07D5723A0E718B7E700E061
:1015F0007D5723A2E7180100324441018280411146
:1016000022C60008B7E700E003A7C18123A0E710C6
:10161000B7E700E01387C181584323A2E710010018
:10162000324441018280011106CE22CC0010938702
:10163000C18105472384E70083A7C18181EB93879C
:10164000C181DC4381E7A30704FE21A08547A307EE
:10165000F4FE69378347F4FE3E85F240624405613B
:101660008280011106CE22CC0010AA87A307F4FEC7
:101670008347F4FE91E79387C181238407004137B4
:101680000100F240624405618280011122CE001007
:101690002324A4FE2326B4FE37F700E0232007000E
:1016A00037F700E02302070037F700E0A302070046
:1016B00037F700E02303070037F700E0A303070034
:1016C00037F700E02304070037F700E0A304070022
:1016D00037F700E02305070037F700E0A305070010
:1016E00037F700E0854614C3010037F700E0110723
:1016F0001843BA8701480327C4FEC286636DD7002A
:101700000327C4FEC286E312D7FE032784FEBE86EB
:101710006363D700D9BF0100724405618280011163
:1017200006CE22CC00102326A4FE2324B4FE832759
:10173000C4FE95E3032784FE8547631EF7009306E6
:101740008031014685452545313191460146814527
:101750002945093161A80327C4FE89476310F702B0
:10176000930680310146854513056002E5369146B2
:101770000146814513057002F13E8DA80327C4FE82
:10178000C147631EF7009306803101468545094530
:10179000D1369146014681450D456D3E81A803270E
:1017A000C4FE930700026310F702930680310146DE
:1017B00085451305A002793E9146014681451305F2
:1017C000B002493E25A00327C4FE93072002631FF1
:1017D000F70093068031014685451305A0049D3E20
:1017E0009146014681451305B004AD360100F24033
:1017F000624405618280797106D622D40018232EB6
:10180000A4FC232CB4FC232AC4FC2328D4FC854547
:101810000545EFF06FC8832504FD032544FD01371E
:10182000032744FD8947631BF700032704FD8D4709
:101830006316F70085451145EFF0AF90032744FD8F
:1018400093072002631FF700032704FD930730026C
:101850006319F7008545B707140013850701EFF0FA
:101860004F8E8327C4FD91E785451165EFF0CFC208
:1018700035A00327C4FD85476318F7008545370564
:101880000200EFF0CFC519A80327C4FD89476317ED
:10189000F700854537050400EFF06FC4832784FD0A
:1018A0002320F4FE231204FE231304FE231404FE5B
:1018B000231604FEB1472315F4FE89670327C4FDF0
:1018C0000A079387C7B0BA979C433E87930704FEE5
:1018D000BE853A85EFF0EFCE89670327C4FD0A077E
:1018E0009387C7B0BA979C4385453E85EFF08FF04C
:1018F0000100B250225445618280411106C622C4C3
:101900000008B7170240DC43C98313F7F700B71785
:101910007A00938707203307F702B727F4009387ED
:1019200007403E9723ACE18085460146F1679385E9
:1019300007200145C9350100B2402244410182809F
:10194000011122CE0010232604FE232404FEB71723
:1019500002409443B71702404167558F98C3B717A9
:1019600002409843B7070200F98F2324F4FE83272F
:10197000C4FE85072326F4FE832784FE99E7032708
:10198000C4FE93070050E31CF7FCB71702409843CE
:10199000B7070200F98F89C785472324F4FE19A0F1
:1019A000232404FE032784FE85476317F70CB7271B
:1019B00002409843B72702401367070198C3B7272F
:1019C00002409843B7270240719B98C3B727024053
:1019D0009843B72702401367270098C33717024080
:1019E000B71702405843D8C337170240B717024011
:1019F0005843D8C337170240B71702405843D8C3DB
:101A0000B7170240D443B71702403707C1FF7D170D
:101A1000758FD8C3B7170240D443B71702403707B2
:101A20002500558FD8C3B71702409443B71702401B
:101A300037070001558F98C30100B717024098433C
:101A4000B7070002F98FF5DBB7170240D843B71785
:101A50000240719BD8C3B7170240D843B717024062
:101A600013672700D8C30100B7170240DC4313F700
:101A7000C700A147E31AF7FE0100724405618280A6
:101A8000411106C622C40008B71702409843B71791
:101A900002401367170098C3B7170240D443B71723
:101AA00002403707FFF8758FD8C3B7170240944339
:101AB000B71702403707F7FE7D17758F98C3B71722
:101AC00002409443B71702403707FCFF7D17758F1C
:101AD00098C3B7170240D443B7170240370781FFB6
:101AE0007D17758FD8C3B717024037079F0098C777
:101AF000813D0100B2402244410182800008014042
:101B0000000C014000100140001401400038014069
:0C1B10000044004000480040004C004031
:101B1C000000000001020304010203040607080987
:081B2C0002040608010000009C
:00000001FF
