:100000006F00E05113000000130000001300000017
:100010001300000013000000130000001300000094
:100020001300000013000000130000001300000084
:08003000130000007300100032
:100038006FF09FFC000000006F00E04B6F00E04B8A
:1000480000000000000000000000000000000000A8
:100058000000000000000000000000000000000098
:100068006FF09FF9000000006FF01FF9000000001A
:100078006FF09FF86FF05FF86FF01FF86FF0DFF721
:100088006FF09FF76FF05FF76F0080156F00E01F4C
:100098006F00E0226F0020236F0020236FF0DFF550
:1000A8006FF09FF56FF05FF56F00C0416FF0DFF400
:1000B8006FF09FF46FF05FF46F00E0210000000024
:1000C8000000000000000000000000006F00202079
:1000D8006F00A0206F00E0226F00E0246F0060290D
:1000E8006F0060316F00E0326F00E0346FF0DFF0D6
:1000F8006FF09FF06FF05FF06FF01FF06FF0DFEFC1
:100108006FF09FEF6F0060336F0060336F008037D0
:100118006F00201C6FF05FEE6FF01FEE6FF0DFEDE9
:1001280000000000000000000000000000000000C7
:080138000000000000000000BF
:100140003D432A876373C3029377F700BDEFADE5A4
:10015000937606FF3D8ABA960CC34CC30CC74CC7B6
:100160004107E36BD7FE11E28280B306C3408A06E3
:100170009702000096966780A6002307B700A306A3
:10018000B7002306B700A305B7002305B700A304F3
:10019000B7002304B700A303B7002303B700A302EB
:1001A000B7002302B700A301B7002301B700A300E3
:1001B000B7002300B700828093F5F50F9396850072
:1001C000D58D93960501D58D61B79396270097023B
:1001D000000096968682E78086FA9680C1171D8F6A
:1001E0003E96E374C3F8A5B70545EF00207D85472B
:1001F0006304F500730020300545EF00E07D83C700
:10020000219393F7F70F05476386E7060545EF301F
:10021000A0352391A18A0945EF3000353305A04070
:100220002392A18A0545EF3080350945EF3020350E
:10023000039661898395418903952189EF40304177
:1002400083D78189A9C3854513052006EF20502651
:1002500083D78189FD17239CF18883D7818A81C741
:10026000FD172394F18A83D7A18AC9D7FD17239557
:10027000F18A49B7372500201305457EEF50401D10
:100280002389019261B7814513052006EF20502292
:10029000E9B70945252785476304F5007300203039
:1002A000B707002083A7470F09476388E700054782
:1002B0006388E70009450D27D5B7EF20A046DDBFCD
:1002C000EF208001C5BF1145012F7300203073005E
:1002D0002030730020307300203073002030730012
:1002E00020309305000837350140130505C0EF1095
:1002F000600519E17300203093050008373501408F
:10030000130505C0EF10C005F5B785453735014029
:10031000130505C0EF10000319E173002030854577
:1003200037350140130505C0EF108003FDB7930575
:10033000000437350140130505C0EF10A00001EDA2
:100340009305000237350140130505C0EF00907F8B
:1003500001ED73002030930500043735014013058B
:1003600005C0EF00F07FE9BF93050002373501407B
:10037000130505C0EF00D07EE9BF89453735014040
:10038000130505C0EF00107C1DE99145373501408C
:10039000130505C0EF00107B1DE9A145373501406D
:1003A000130505C0EF00107A1DE9C145373501403E
:1003B000130505C0EF0010791DE973002030894551
:1003C00037350140130505C0EF0090797DBF914599
:1003D00037350140130505C0EF0090787DBFA1457A
:1003E00037350140130505C0EF0090777DBFC1454B
:1003F00037350140130505C0EF0090767DBF854578
:1004000037050040EF00107419E173002030854576
:1004100037050040EF00D074CDBF8545370500405B
:1004200013050540EF00107219E173002030854577
:100430003705004013050540EF009072FDB77300CB
:10044000203073002030930550523745004013058B
:100450000540EF10000919E1730020309305505258
:100460003745004013050540EF10600CB70700202A
:1004700083A7470F09476388E7000547E39EE7FC2A
:10048000EF10F03CD1BFEF20E024F9B7411122C6B4
:10049000930550523755004013050580EF10600456
:1004A00009E532444101730020309305505237541E
:1004B000004013050480EF10800713050480EF103F
:1004C000E0001375F50FEF407071E1BF0965092970
:1004D00085476304F5007300203009651521B707CF
:1004E000002083A7470F09476388E7000547E39487
:1004F000E7FEEF10D05FC5B7EF202024E9BF7300FF
:100500002030014681450145EF407014DDBF4111A7
:1005100006C6EF40E0430145B240410182809701A9
:1005200000209381213D175100201301A1AD17B583
:100530000000130525D7970500209385A5AC1386E9
:10054000018463FAC5008322050023A0550011052C
:100550009105E3EAC5FE1385018497350020938554
:10056000A55D6377B500232005001105E36DB5FE99
:100570009302800873A0023097020000938202ACBD
:1005800093E2120073905230EF302058970200002F
:10059000938222F87390123473002030B727014001
:1005A000938707406303F5008280411106C68545A5
:1005B00013050020D12F814513050020F127B240FB
:1005C000410182805C413707F1FF1307F7EF7D8F10
:1005D000DC41A2079441D58FD98F5CC11C4537F708
:1005E000F1FF1307D77F7D8F9C49D445D58F944564
:1005F0008606D58FD98F1CC55C55370710FF7D1730
:100600007D8F83C74501FD1793F7F70FD207D98F69
:100610005CD5828091C51C4593E717001CC582807C
:100620001C45F99B1CC582801C4593E787001CC5AF
:10063000828008450D81058982801C4593E747002B
:100640001CC582800845098105898280A54763F71A
:10065000B7048328C500138865FF13171800429755
:100660009D47B397E70093C7F7FFB3F71701B3961A
:10067000E600DD8E54C5994763E3C70458597D16DB
:10068000931726003E96FD47B397C70093C7F7FF21
:10069000F98F3396C5005D8E50D9828003280501FD
:1006A000139715002E979D47B397E70093C7F7FF61
:1006B000B3F70701B396E600DD8E14C96DBFB147ED
:1006C00063E3C7021459130796FF131627003A96DF
:1006D000FD47B397C70093C7F7FFF58F3396C50063
:1006E0005D8E10D9828054554D16131726003A9608
:1006F000FD47B397C70093C7F7FFF58FB395C500C4
:10070000DD8D4CD582801C4141677917F98F1CC162
:1007100023200500232205002324050023260500AD
:10072000B7070240A1076304F508B7070240F107C5
:100730006306F508B7070240938707036307F508C8
:10074000B707024093874704630AF508B7070240DA
:1007500093878705630BF508B70702409387C706A1
:10076000630DF508B707024093870708630FF50884
:10077000B7070240938787406301F50AB707024035
:100780009387C7416304F50AB7070240938707437D
:100790006307F50AB707024093874744630CF50ADD
:1007A000B707024093878745630FF50A82803707B2
:1007B00002405C4393E7F7005CC382803707024046
:1007C0005C4393E7070F5CC38280B7060240DC42BC
:1007D0000567130707F0D98FDCC282803707024014
:1007E0005C43BD66D58F5CC38280370702405C43A3
:1007F000B7060F00D58F5CC38280370702405C4389
:10080000B706F000D58F5CC38280370702405C4397
:10081000B706000FD58F5CC38280B707024003A7DD
:1008200047401367F70023A2E7408280B7070240E2
:1008300003A747401367070F23A2E7408280B7074B
:10084000024003A747408566938606F0558F23A292
:10085000E7408280B707024003A74740BD66558F37
:1008600023A2E7408280B707024003A74740B706AC
:100870000F00558F23A2E74015BF1C4161773D074C
:100880007D8F9C459451D58F9449D58FD449D58F70
:10089000944DD58FD44DD58FD451D58F9455D58FB8
:1008A000D98F1CC1DC455CC19C411CC5DC415CC5C9
:1008B000828091C51C4193E717001CC182801C41B6
:1008C00041677917F98F1CC1828009C61C41DD8DF3
:1008D0000CC182801C4193C5F5FFFD8D0CC1828047
:1008E0009317350063DA0700B707024083A7074074
:1008F0007D8D3335A0008280B70702409C43CDBF79
:100900009317350063D70700B707024023A2A7401B
:100910008280B7070240C8C382805C45D9C3B7064E
:1009200001409387064003A6064018411347F7FF8E
:10093000718F23A0E64083A6464018411347F7FF76
:10094000758FD8C358413E9714431041D18E14C3BC
:10095000944718411347F7FF758F98C7D44718413C
:100960001347F7FF758FD8C71C454147638CE700D5
:100970003707014013070740BA9798431441558F32
:1009800098C38280B707014003A787401441558F61
:1009900023A4E74003A7C7401441558F23A6E7408F
:1009A00082805841B7070140938707403E97144320
:1009B0001C4193C7F7FFF58F1CC3828037070140A6
:1009C0008327074003274741698F09C77D8D33354A
:1009D000A000828001458280B707014023AAA7407A
:1009E00082809C4593F8F700C18B81C7DC41B3E856
:1009F000F80083C70500A9CB10418147054E3D4F44
:100A0000930E8002930F8004214329A054C98507C7
:100A1000638B6702B316FE0003D70500758FE3985A
:100A2000E6FE139727003318EF001348F8FF3376DC
:100A3000C8003397E800598E9845E309D7FDE318BD
:100A4000F7FD14C9E9B710C103D705009307F00FEC
:100A500063FDE7045041A147054EBD4F130F8002CF
:100A6000930E8004414331A054C915A88507638DB6
:100A70006702B316FE0003D70500758FE398E6FE04
:100A80001397270001173398EF001348F8FF3376C8
:100A9000C8003397E800598E9845E307E7FD98456D
:100AA000E316D7FD14C9D9B750C1828019C20CC949
:100AB00082804CC982802A8663400504B7070140C2
:100AC000DC4393160501C182370730003378E50017
:100AD0006308E8021317B500635C070413570501A8
:100AE0001378F7000D47331707011347F7FF7D8F82
:100AF000B707000FD98F0DA0B7070140DC4FD1B762
:100B0000370700F17D17F98FB708014003A84800A7
:100B10003377E80023A2E80091C55581120533958B
:100B2000A600C98F63420602370701405CC382807A
:100B30001357550112073397E6001347F7FF7D8FD0
:100B4000B707000FD98FC9BF370701405CCF82803C
:100B500093F735008A0713F7C50FB7050140BA951B
:100B600094453D473317F7001347F7FF758F98C536
:100B700098453315F500598D88C58280B7E700E0A8
:100B8000BC47898B95CF8346050083472500920794
:100B900093F7F70F37E700E036972300F7405C4103
:100BA000B5C703470500935757008546B396E6003F
:100BB000938707048A0737E700E0BA9794C38280D7
:100BC000B7E700E0BC47898BF9FB03471500854771
:100BD000630FF7008346050083472500920793F7CC
:100BE000F70F37E700E036972300F7404DBF834605
:100BF000050083472500920793E707F893F7F70F5F
:100C000037E700E036972300F74051BF0347050060
:100C1000935757008546B396E600938707068A07E1
:100C200037E700E0BA9794C38280B7160240DC42EF
:100C300051777D17F98F5D8DC8C28280B71702404A
:100C4000DC43B18B11476384E70821476387E708DA
:100C500099C7B7177A00938707201CC131A0B7172F
:100C60007A00938707201CC1371602405C429183AB
:100C7000BD8B3707002013070700BA9783C607000C
:100C80001C41B3D7D7005CC15442A1829D8ABA9659
:100C900083C60600B3D6D70014C55442AD829D8AE0
:100CA000369703470700B3D7E7005CC5584239833E
:100CB00093763700370700201307070F369703474F
:100CC00007001377F70FB3D7E7021CC98280B71765
:100CD0007A00938707201CC141BF371702405C434D
:100CE0005843C983BD8B89079316F70063CA060072
:100CF00037173D0013070790B387E7021CC1ADB754
:100D00003717024058439316E70063DA0600371797
:100D10003D0013070790B387E7021CC1B1B737172F
:100D20007A0013070720B387E7021CC135BF99C5B6
:100D3000371702405C4B5D8D48CB8280B71702406D
:100D4000D84B1345F5FF798DC8CB828099C53717ED
:100D500002401C4F5D8D08CF8280B7170240984F2C
:100D60001345F5FF798D88CF828099C537170240EA
:100D70005C4F5D8D48CF8280B7170240D84F134536
:100D8000F5FF798DC8CF828099C5371702405C473F
:100D90005D8D48C78280B7170240D8471345F5FFDD
:100DA000798DC8C78280035705008D679387070434
:100DB0007D8F83D7050083D62500D58F83D6450048
:100DC000D58F83D66500D58F83D68500D58F83D602
:100DD000A500D58F83D6C500D58F83D6E500D58FE6
:100DE000D98F2310F5000357C501FD779387F77F4F
:100DF000F98F231EF50083D705012318F5008280A3
:100E000081C98357050093E707042310F50082800A
:100E100083570500C207C18393F7F7FBC207C1835D
:100E20002310F500828083570500C207C18337373E
:100E30000140130707C06300E5043707004063075C
:100E4000E506130707406303E5063717004013075D
:100E50000780630DE50493F7F7CF03D76500D98FBB
:100E60002310F50083D745002316F50283D705002C
:100E70002314F50285A093F7F7F803D72500D98F3F
:100E800093F7F7CF03D76500D98F2310F50083D7E9
:100E900045002316F50283D705002314F50203C786
:100EA0008500B73701402398E7C22DA093F7F7F8E4
:100EB00003D72500D98F93F7F7CF03D76500D98FD4
:100EC0002310F50083D745002316F50283D70500CC
:100ED0002314F5028547231AF50082808357050203
:100EE000C207C183F99BC207C1832310F502835750
:100EF0000502C207C18383564500C206C18203575B
:100F00008501420741831377C7F803D60500518F47
:100F1000F59B03D6850003D8250033660601D18FE3
:100F200037360140130606C0630DC5002312D500F5
:100F3000231CE50003D76500231AE5022310F50200
:100F40008280DD9B03D6A500D18FED9B03D64500A3
:100F5000D18F93F6F6CF03D6C50003D8E5003366EC
:100F60000601D18EE1B783570502C207C183BD9B3D
:100F7000C207C1832310F50283570502C207C1834C
:100F80000356450042064182835685016577130763
:100F9000F7CF758F83D60500A206558F4207418390
:100FA00093F7F7FD03D8850083D62500B3E6060145
:100FB0009206D58FC207C183B7360140938606C01B
:100FC000630DD5002312C500231CE50003D765007F
:100FD000231CE5022310F502828093F7F7F783D6EE
:100FE000A5009206D58FC207C18393F7F7FB83D67E
:100FF00045009206D58FC207C183FD769386F63FE2
:10100000758E03D8C50083D6E500B3E606018A06CF
:10101000558E420641827DB783570502C207C183C0
:1010200093F7F7EFC207C1832310F5028357050238
:10103000C207C18303564500420641820357C501DA
:10104000420741831377C7F883D60500558F93F77E
:10105000F7DF03D8850083D62500B3E60601A20694
:10106000D58FC207C183B7360140938606C0630D92
:10107000D5002312C500231EE50003D76500231EFB
:10108000E5022310F5028280FD769386F67FF58FC8
:1010900083D6A500A206D58FC207C18393F7F7BFF9
:1010A00083D64500A206D58FC207C183F576FD160B
:1010B000758E03D8C50083D6E500B3E60601920617
:1010C000558E4206418275B703570502FD77FD171D
:1010D000F98F2310F5020358050203564500420616
:1010E00041828357C50165771307F7CF7D8F83D67C
:1010F0000500A206558F42074183F977FD17B3F724
:10110000070103D8850083D62500B3E60601B206A1
:10111000D58FC207C183B7360140938606C0630DE1
:10112000D5002312C500231EE50003D76500231058
:10113000E5042310F5028280F176FD16758E83D6C4
:10114000C5009A06558E42064182E1BFFD57231223
:10115000F5002310050023130500231105002304C7
:101160000500828081C98357050093E7170023108B
:10117000F500828083570500C207C183F99BC2072F
:10118000C1832310F500828081C9835745042167FC
:10119000D98F2312F504828083574504C607C5837F
:1011A0002312F504828019C68357C500DD8D2316EE
:1011B000B50082808357C50093C5F5FFFD8D2316CA
:1011C000B50082808357850093F7F70FA2064D8EF6
:1011D000D18ED58FC207C1832314F50082804111BF
:1011E00006C622C42A84F93F8357840093E7770711
:1011F0002314F400B24022444101828083578500C9
:10120000C207C18393F7F7F8DD8D2314B500828000
:101210000358850042081358080103578501420707
:10122000418383570502C207C183137888FFB365E2
:10123000B8001377C7CF1367171093F7D7FD92063F
:10124000558ED18FC207C1832314B500231CE5003E
:101250002310F502828083578501C207C183DD9B7D
:10126000DD8D231CB500828003578501FD779387B0
:10127000F77FF98FA205CD8FC207C183231CF5002C
:1012800082808357C501C207C183DD9BDD8D231E8C
:10129000B50082800357C501FD779387F77FF98FEB
:1012A000A205CD8FC207C183231EF500828083571C
:1012B0008501C207C183ED9BDD8D231CB5008280B3
:1012C00083578501C207C18393F7F7BFA205CD8F6E
:1012D000C207C183231CF50082808357C501C20762
:1012E000C183ED9BDD8D231EB50082808357C50130
:1012F000C207C18393F7F7BFA205CD8FC207C18391
:10130000231EF500828083578500C207C183E19BBD
:10131000C207C1832314F50083578500DD8D231494
:10132000B500828083578500C207C18393F7F7F722
:10133000C207C1832314F50083578500DD8D231474
:10134000B5008280835705010355C50042054181E0
:10135000ED8F89C76D8D3335A00082800145828075
:1013600093C5F5FFC205C1812318B500828079714C
:1013700006D622D426D22A84AE8403570501F577F7
:10138000FD17F98F03D76500D98F2318F500035790
:10139000C500FD779387379FF98F03D74500D98F15
:1013A00003D78500D98F03D7A500D98F2316F50061
:1013B00083574501C207C18393F7F7CF03D7C50011
:1013C000D98F231AF5006800EFF05F87B747014017
:1013D000938707806301F40652478357C400C2070E
:1013E000C18763CC070493171700BA978E07BA9783
:1013F00098400A07B3D7E70213074006B3D6E702BF
:101400009206B3F7E7020357C400420741876340DF
:10141000070492079387270313074006B3D7E70211
:10142000BD8BD58FC207C1832314F400B250225460
:1014300092544561828062474DB793171700BA975F
:101440008E07BA9798400607B3D7E70275B7139788
:10145000370013072703930740063357F7021D8B06
:10146000B367D700C1B781C98357C5000967D98F52
:101470002316F50082800357C500F977FD17F98F11
:101480002316F500828093F7F50F95830547B31572
:10149000B700638CE700894613074501638AD700CC
:1014A00019CA1C43DD8D0CC382801307C500CDBF54
:1014B00013070501F5B71C4393C5F5FFFD8D0CC35C
:1014C000828093F5F51F2312B500828003554500F5
:1014D0001375F51F8280035505006D8D3335A0000F
:1014E000828093F7F50F958385463397B60063881E
:1014F000D70289466389D702835745017D8F0355FB
:10150000050093170501C183014509CBA18105455C
:10151000B315B50033F5B7003335A000828083578B
:10152000C5007D8FE9BF835705017D8FC9BFA181AC
:101530008547B397B70093C7F7FFC207C18323104E
:10154000F5008280011106CE22CC26CAA307A10095
:10155000AD6703A447E6A16444C891675CC88546AB
:1015600001469305F1000145EF20002804C8F24030
:101570006244D24405618280011106CE22CC26CA83
:10158000A307A100AD6703A447E6A16444C891671F
:101590001CC885461306F100B2850145EF20C02422
:1015A00004C8F2406244D24405618280011106CE33
:1015B00022CC26CAAD6703A447E6A16444C893576A
:1015C00085002306F100A306A10091671CC8894687
:1015D0007000B2850145EF20202104C8F24062442A
:1015E000D24405618280011106CE22CC26CA4AC8A7
:1015F0004EC69307F00963EEA7062A84AE843289AB
:10160000B6899307F00763E5B7089307F00963E02D
:10161000C70A9307F00763EBD70A1305A0021D372B
:101620000145993F130514001375F50FB1370145B6
:10163000A137130519001375F50F3D3F1305B002CF
:1016400011370145153F138524001375F50F2D370C
:1016500001451D37138529001375F50F313F13051B
:10166000C002CD35F2406244D2444249B2490561DC
:101670008280B7A600009386C66429661306C663F7
:101680009305700537A5000013050566EF709045BA
:10169000B7A600009386466929661306C6639305BC
:1016A000800537A5000013050566EF70B043B7A6A7
:1016B00000009386866A29661306C6639305A00513
:1016C00037A5000013050566EF70D041B7A60000EE
:1016D0009386866B29661306C6639305B00537A506
:1016E000000013050566EF70F03F011106CE22CC15
:1016F00026CA4AC84EC6AA849306F0071306F00904
:1017000081450145CD35130900089309000A21A040
:101710007D19630A09004E842685493D7D141374A2
:10172000F40F7DF8F5B7F2406244D2444249B24921
:1017300005618280011106CE22CC26CA4AC84EC657
:10174000014881471307F00493063002054681459E
:101750000145EF10B0799306003105468545130524
:10176000F004EF10C0439306003101468545130590
:10177000D004EF10C04293060031014685451305A1
:10178000E004EF10C041AD6783A947E6096923AAC9
:10179000290103A54186130409F4335585029317E3
:1017A00025003E9506058145EF20A00723A82901C5
:1017B00003A5418633558502931745003385A7401D
:1017C0000E058145EF20E0054545AD3B03A541866B
:1017D00033558502931745003385A7400E05814593
:1017E000EF2020041305100BB13B054571331305A1
:1017F000C00259331305D00241331305200B99332E
:1018000005459D3B1305C002853B1305D002AD3352
:101810001305300B053B054585331305C002A93B75
:101820001305D002913B0545813B1305C002A93346
:101830001305D00291331305400B29331D452D3B71
:101840001305000C01331305200A3D3309452D33E0
:101850001305400815331305100CED311305500C1A
:10186000213B1305200CF93929453933014529332A
:101870001305300CC1391305A008FD391305A0026A
:10188000E5391305400C7D391305A008F531130522
:10189000E00EDD311305500C75313945F139130572
:1018A00060034D3113050006C1391305000E593987
:1018B0003D45D9316945C9313D457D3961456D3970
:1018C0001305F0025539130580027D31130500021E
:1018D0006531130520024D317D4579396D456939F2
:1018E000130530025139130570037931014569310F
:1018F0001D455931094549314145BD391305100E82
:1019000091313D4595396D4585393D45B5315D454B
:10191000A531130530038D311305C002B13913050C
:10192000900299391305E002813913050003A931AA
:10193000130500039131130590033D391305F0039E
:101940002539014515391D4505390D4535314145C7
:1019500025311305A002FD360145393909452939DC
:10196000014519391305200801391305B002D93E84
:10197000014519310D4509310145FD3E130530087A
:10198000E53E1305000F7D3E0545FD361305600F4E
:10199000553E0145D5361305A0036D361545E93E84
:1019A00013059002453641657D158133F24062444E
:1019B000D2444249B24905618280797106D622D467
:1019C00026D24AD04ECE52CC56CA5AC85EC662C43F
:1019D00066C26AC0AA8B2E89138D05011206330BCD
:1019E000B640930C7500A96A938A0A6D214CC169AF
:1019F000138AF9FF938909801DA05285EFF01FBB60
:101A000085807D141374F40F01C893F71400F5D783
:101A10004E85EFF0BFB9EDB70509630FA901CA867E
:101A20006686CA855E85EFF01FBCB3076901D6974D
:101A300083C407E06284D1BFB25022549254025949
:101A4000F249624AD24A424BB24B224C924C024D6E
:101A500045618280011106CE22CC26CA4AC84EC6F4
:101A6000B2890306060015C62A849205139905015A
:101A7000135909018144CA85228581378504C2042E
:101A8000C180B38799000386070021044204418086
:101A90007DF2F2406244D2444249B24905618280FB
:101AA000797106D622D426D24AD04ECE2A84930704
:101AB0004006B357F6022306F100A9473357F60252
:101AC0003377F702A306E1003376F6022307C1005D
:101AD00092059399050193D90901640013098501C1
:101AE00042091359090103C60400130606036206DE
:101AF0006186CE852285D13585042104420441804A
:101B0000E31324FFB250225492540259F249456122
:101B10008280797106D622D426D24AD04ECE2A842B
:101B20002E89B284634A06089205C205C181130654
:101B300000026135896793870771B3C7F4022304F4
:101B4000F1001307803E33C7E402A9473367F70269
:101B5000A304E1001307400633C7E4023367F7022A
:101B60002305E10033C7F4023367F702A305E10060
:101B7000B3E4F40223069100120942091359090142
:101B800024002104420441809309D10003C60400CB
:101B90001306060362066186CA852285393D8504DF
:101BA000210442044180E39334FFB2502254925402
:101BB0000259F249456182809205C205C18113062E
:101BC000D002E53BB3049040C204C184A5B779714B
:101BD00006D622D426D24AD04ECE2A84896793874D
:101BE0000771B357F6022304F1001307803E335701
:101BF000E602A9473377F702A304E1001307400682
:101C00003357E6023377F7022305E1003357F60234
:101C10003377F702A305E1003376F6022306C1000D
:101C20009205139905011359090124009309D10064
:101C300003C604001306060362066186CA85228570
:101C4000AD3B8504210442044180E39334FFB2504C
:101C5000225492540259F249456182805D7186C6D0
:101C6000A2C4A6C2CAC04EDE2A89AE893685A9475B
:101C700063F3D70029459374F50F1384140013748C
:101C8000F40F63430606930700022306F100B7A58D
:101C900000009385C56C1305D100EF004072050567
:101CA0001375F50F637385027C00AA971307D100A3
:101CB0002A973385A4401375F50F2A9793060002DF
:101CC0002380D7008507E39DE7FE1C183E94230E72
:101CD00004FC7000CE854A85B53BB6402644964448
:101CE0000649F25961618280B7A500009385C56CF1
:101CF0006800EF00C06C1375F50F6DB75D7186C697
:101D0000A2C4A6C2CAC04EDE52DC56DAAA892E8A06
:101D10003284B684BE8A994663F3F600994A93FAF0
:101D2000FA0FBA87A94663F3E600A94713F9F70F3C
:101D3000014681462285A685EF50206D634D050A38
:101D40002286A686B7A500009385856C1305D10071
:101D5000BD259306A5FF93F6F60F1346F9FF3696B9
:101D60001376F60F1319860113598941850AD69601
:101D700093F6F60F939A860193DA8A41635E09021D
:101D8000918E93F6F60FD6879305000218183E97AA
:101D9000230EB7FC850713F7F70F93178701E18729
:101DA000E396E6FEB38ACA40E20A93DA8A4133092F
:101DB000C940620913598941014681462285A68599
:101DC000EF50A064634805061C183E999307000273
:101DD000230EF9FC1C18BE9A238E0AFC7000D285D3
:101DE0004E858D39B640264496440649F259625ACA
:101DF000D25A616182802286A686B7A500009385AB
:101E0000856C68006D2B930695FF93F6F60F1346CD
:101E1000F9FF36961376F60F131986011359894187
:101E2000850AD69693F6F60F939A860193DA8A413D
:101E3000E34809F41C183E999307D002230EF9FCDD
:101E400051BF011106CE22CC26CAAD6783A4C7E5D7
:101E5000056413040480C0C82306A100A306B100D2
:101E600089467000B2850545EF10101880C8F24011
:101E70006244D24405618280011106CE22CC26CA7A
:101E80004AC82E89AD6783A4C7E50564130404809E
:101E9000C0C8136505F82306A10083C70500A30683
:101EA000F10089467000B2850545EF10F0138347B5
:101EB000D1002300F90080C8F2406244D244424974
:101EC00005618280411106C622C426C2AD6783A483
:101ED000C7E5056413040480C0C8AE862A86AA85B7
:101EE0000545EF10701080C8B24022449244410171
:101EF0008280011106CE22CC26CA4AC8A30701005F
:101F00000964130404F4C9449305F1001305500750
:101F1000A53783A74186B3D78702139527003E953F
:101F20008145EF1010108347F100E39F97FCF240CA
:101F30006244D244424905618280011106CE22CC1E
:101F400026CA4AC8A307010003A5418609641304F1
:101F500004F433558502931725003E950605814507
:101F6000EF10300C094881472D47930620021306D5
:101F70001002930500020545EF1040779D3F930541
:101F800000081305B006753D03A54186335585024B
:101F900006058145EF10F00826890964130404F44E
:101FA000930410049305F1001305B006F13503A561
:101FB000418633558502931725003E9506058145D8
:101FC000EF1030068347F100E39E97FC854513052B
:101FD000B006853D81451305C006A5358545694593
:101FE0008D359D456545B13DE1456D45993DC14501
:101FF0007145813D8D457545A935F2406244D24415
:10200000424905618280011106CE930730FC23040A
:10201000F1009D4528007D3583479100A2070347C5
:10202000A100D98F2393F1848347B100A20703470E
:10203000C100D98F2394F1848347D100A2070347BD
:10204000E100D98F2395F184F24005618280AD676C
:1020500083A707EC03D647009386318583C7060024
:10206000138701853E972300C700850793F7F70F75
:102070002380F6000547638BE7000D476397E70071
:10208000A38901840547238AE184828003C70185EF
:102090009307500AE30BF7FEA389018482807971CC
:1020A00006D622D426D24AD04ECE52CC56CAAA8ABE
:1020B000238A01842E8493844502130A50FA096905
:1020C000130909F42306410183570400A306F10014
:1020D0000317240093170701C183A1832307F1008D
:1020E000A307E10011466C005685EF10701203A59E
:1020F00041863355250306058145EF108072110492
:10210000E31294FC9387418583C7070093F7F70F89
:10211000F5DB238A01849387018503C7170083C6F3
:1021200027009307F00F6310F700E39EF6FEB2500E
:10213000225492540259F249624AD24A456182803D
:10214000397106DE22DC26DA4AD84ED652D456D26F
:102150005AD05ECEAA8BAE84138B0502930A50FA36
:10216000455A1389018523065101A3064101A68919
:102170000397040093170701C183A1832307F1008C
:10218000A307E10011466C005E85EF10700893878D
:10219000418583C7070093F7F70FF5DB93874185E8
:1021A0002380070083471900A20703472900D98F1E
:1021B0002391F9009104E39864FBF2506254D254E5
:1021C0004259B259225A925A025BF24B21618280E3
:1021D000411106C613068004B1450545EF00F030F5
:1021E0008546014685455D45EF007036B2404101A8
:1021F0008280411106C6B1450145EF00900DB24005
:1022000041018280411106C622C426C21304700413
:10221000930400049146014681452285EF00301861
:102220007D14E31994FE89669386864B03A6018686
:10223000B7150140A1053705024013054504EF001D
:1022400080798546014681457945EF005030B2409E
:102250002244924441018280411106C622C426C212
:10226000B7070020054723AAE70EB707002093878A
:10227000472623A0F186C5464146896593850558C2
:102280000545EF10406A85450545EF10807B014507
:10229000EF00B0351384418523000400B70400200B
:1022A000938504010545693D23000400B70500201E
:1022B000938505030545E533230004009385040158
:1022C0000545BD3DEF00B02F353F25371137B240F2
:1022D0002244924441018280B707024009671307F4
:1022E000874BB8C7F84313671700F8C382800547C8
:1022F0002386E184B7060240FC4241677917F98FD3
:10230000FCC28280AA8729C21357F541B347A700B0
:10231000998F368633E7D702130707032380E5003A
:10232000B3C6D702B5C2AE87850733E7C602130727
:1023300007032380E700B3C6C602138517000D8D7F
:102340001375F50FF5F282802E86B688254805476D
:10235000B305B7400DA0130707031377F70F23004A
:10236000E60033D7D7023305B6001375F50F63EED9
:1023700017010506BA8733F7D702E37EE8FC130797
:1023800077031377F70FE1BF0545828013D8150057
:10239000854763F5B7029387F5FFAA972A872E959D
:1023A00083860700030607002380C7002300D700A9
:1023B0000507B306F540FD17E3E406FF828075715B
:1023C00086D6A2D4A6D2CAD0CECED2CCD6CADAC8AD
:1023D000DEC6E2C4E6C2EAC06EDEB2DCB6DE3AC1F8
:1023E0003EC342C546C7BC183ED6838705006382FC
:1023F000072C2A84814C93045002930A30052D6ADD
:10240000130A0ACC37B70000032907E1832947E103
:1024100041A4B257138747003AD69C432300F400E7
:102420000504850C8DA4B257138747003AD683ABB9
:102430000700A94605462C005E85E9352A8B63CD49
:102440000B00DA85280099375A862C002285EF6028
:10245000706F5A94DA9C05AC1C18AA971307D00227
:10246000238CE7FC130B1500137BFB0FD9BFB2576E
:102470009D07E19B138787003AD603AB070083AB28
:1024800047005A85DE85EF5010432A8DA946054640
:102490002C008D3DAA8D014681465A85DE85EF4090
:1024A000D07663400506EE852800CD356E862C007B
:1024B0002285EF6030696E94EE9C6A85EF5030465D
:1024C0002A86AE865A85DE85EF50004B4A86CE8638
:1024D000EF40107F2A8BAE8B01468146EF40506C57
:1024E0001DE993070003A306F1002306F100A305ED
:1024F000F1002305F100A304F1002304F1001945C4
:1025000081A81C18EE971307D002238CE7FC850DD9
:1025100093FDFD0F49BF5A85DE85EF50D039A9469E
:1025200005462C00C533954763E4A7023C00AA97F3
:10253000130791002A979546898E93F6F60F3697E2
:10254000930600032380D7008507E31DF7FE194596
:102550001C18AA971307E002238CE7FC0505137BE0
:10256000F50FDA8528001D355A862C002285EF608C
:10257000705DDA9C09AAB257138747003AD6A9467C
:1025800001462C008843BD3B2A8BAA852800FD3BD1
:102590005A862C002285EF60F05A5A94DA9CE5A006
:1025A000B257138747003AD6A14601462C0088430C
:1025B000913B2A8BAA852800D13B5A862C00228584
:1025C000EF6050585A94DA9C7DA8B25713874700A1
:1025D0003AD6C14601462C008843EFF0BFD22A8B81
:1025E000AA85280065335A862C002285EF60905515
:1025F0005A94DA9C49A8B257138747003AD69443B5
:102600000387060049C3A28733848C402380E700F8
:102610008507B38C870085060387060065FB3E842B
:102620009DA0A14528009D33834881000348910067
:102630000345A1008345B1000346C1008346D10094
:102640000347E1008347F10023001401A3000401C4
:102650002301A400A301B4002302C400A302D400F8
:102660002303E400A303F4002104A10C29A8930789
:1026700050022300F4000504850C31A02300F4006F
:102680000504850C2E8C93051C0083071C009DC33C
:10269000E39697FE138C150083C715009387B7FD4B
:1026A00013F7F70FE3E1EAFE93172700D2979C4355
:1026B0008287814C6685B650265496540659F64951
:1026C000664AD64A464BB64B264C964C064DF25DB2
:1026D00049618280AD6783A707EC03D647009386E4
:1026E000C18583C70600138781853E972300C700F5
:1026F000850793F7F70F2380F6000547638BE70004
:102700000D476397E700238E01840547A38DE1847D
:10271000828003C781859307500AE30BF7FE238E5F
:1027200001848280B7070240056713070796B8C780
:10273000F84313671700F8C382800547A38AE18432
:10274000B7060240FC4241677917F98FFCC28280CC
:10275000411106C62DC58547630AF5068947630DF5
:10276000F5068D476300F50891476303F508954723
:102770006306F50899476309F5089D47630CF5085A
:10278000A147630FF508A5476303F50AA947630747
:10279000F50AAD47630BF50AB147630FF50AB54774
:1027A0006303F50CB9476307F50CBD47631DF500DE
:1027B00081460146814513055004D52629A081464E
:1027C00001468145E92EB2404101828081460146A1
:1027D00081450545E926C5BF814601468145094534
:1027E0007D2ED5B78146014681450D454D2EE1BF71
:1027F00081460146814511455D26F1B78146014676
:1028000081451545692EC1B7814601468145194567
:10281000792655BF8146014681451D45492665B744
:1028200081460146814513050002952E69BF814608
:1028300001468145130510029D2671B78146014668
:10284000814513050004A12EBDBF81460146814587
:1028500013051004A92685BF81460146814513054D
:102860002004352E8DB7814601468145130530047D
:102870003D2691BF8146014681451305400405264A
:1028800099B7797106D622D42A848545130540204C
:10289000EFE0CFCB22856D3D03A74186B7C7010589
:1028A000938707D063FBE7063165EFE00FB8372465
:1028B000014013050440EFD07FCE02C402C602C817
:1028C000B7070E003ECA02CC8547230EF1002C004C
:1028D00013050440EFD01FCF854513050440EFD00A
:1028E0007FD313050440EFD03FD413040440228566
:1028F000EFD03FD46DFD3725014013050540EFD0E3
:10290000DFD337240140130404402285EFD09FD346
:102910006DFDB2502254456182802165EFE0EFB039
:1029200079B7411106C622C426C2AE848146054647
:102930009375F50F3724014013050440EFD01FD1E4
:102940008327844037075000D98F2324F44037274A
:10295000014083270740898BEDDFB727014003A59E
:10296000C7443355950042054181B2402244924408
:1029700041018280011106CE22CC26CA4AC84EC629
:1029800052C42A8AAE8932898144014415C6CE8553
:102990005285413FAA9405041374F40FE31989FE8C
:1029A00033D5840242054181F2406244D244424917
:1029B000B249224A05618280B7B60000938686E25A
:1029C0002D66130686E19305600737B500001305F1
:1029D00005E3EF6030115D7186C6A2C4A6C2CAC00D
:1029E0004EDE2A84AE893289B684B7070240A10739
:1029F0006308F508B7070240F1076303F508B70756
:102A0000024093870703630DF506B70702409387DB
:102A100047046307F506B7070240938787056301FC
:102A2000F506B70702409387C706630BF504B7079F
:102A30000240938707086305F504B70702409387B0
:102A40008740630AF502B70702409387C7416304D2
:102A5000F502B707024093870743630EF500B707F7
:102A60000240938747446308F500B7070240938705
:102A70008745631BF50085450945EFE04FAB29A06D
:102A800085450545EFE0AFAA2285EFD0DFC74EC2EE
:102A90004AC402C626C802CA930700083ECC02CE2A
:102AA00002D002D28D673ED402D64C002285EFD0F0
:102AB000DFDC054689452285EFD03FE1854522854B
:102AC000EFD03FDFB640264496440649F259616193
:102AD0008280011106CE22CC26CA2A84AE84854586
:102AE0000545EFE0AFA651C48547630BF40889475D
:102AF000630DF4088D47630FF40891460146814544
:102B000026857128FD572314F10023120100231597
:102B1000010023130100230601000A04AD67938717
:102B2000C7E63E9400404C002285EFE0CFAF8146DF
:102B3000216681452285EFE08FEA93050007228513
:102B4000EFE0CFEB91452285EFE0EFFB9305000826
:102B50002285EFE02FFD85452285EFE0AFE00546B9
:102B600091652285EFE02FE4F2406244D244056192
:102B700082808545056513050580EFE02F9DB5BF73
:102B800085450545EFE06F9E8DBF85450945EFE022
:102B9000CF9DA5B785451145EFE02F9DB9BF130720
:102BA00000086306E510797106D622D426D24AD0F1
:102BB0004ECE52CC9357550013F977001374F5019C
:102BC000368AB289AE848DCB05476389E70609470B
:102BD000638BE7060D47638DE70611476380E708BF
:102BE00015476383E7081947639CE700854513058C
:102BF0000010EFE0AF9529A085451145EFE00F9556
:102C00008547339487004204418023128100638307
:102C1000F4069376FA0F36C613172900AD6793872B
:102C2000C7E5BA974C008843EFD0BFDBB2502254BF
:102C300092540259F249624A456182808545214594
:102C4000EFE0CF9075BF85454145EFE02F904DBF38
:102C5000854513050002EFE06F8F5DB785451305CD
:102C60000004EFE0AF8E69BF854513050008EFE073
:102C7000EF8D79B793170A01C183A1839DE78D4733
:102C80003EC49376FA0F36C613172900AD669386B5
:102C9000C6E5369704434C002685EFD09FD44E8678
:102CA000A2852685EFD09FE051B73EC4D9BF828070
:102CB000935755009D8B7D890547638DE5008A07F5
:102CC0002D671307C7E5BA97984385473395A70043
:102CD00048CB82808A072D671307C7E5BA979843C8
:102CE00085473395A70008CB8280011106CE22CC00
:102CF00026CA4AC82A84AE84328985450545EFE054
:102D0000EF84CA86014681452285EFF05FE91355BD
:102D100054009375F4011375F50FEFD07FE38547E9
:102D20003394870022C002C226C43EC60A85EFD073
:102D3000DFBEF2406244D244424905618280B7E777
:102D400000E07D5723A0E71823A2E7188280011135
:102D500006CE2304A100A304B1002305C10036C69A
:102D60002800EFD0BFE137E600E01842B727002087
:102D7000FD76F98E03A7C771558F23AEE7705842D1
:102D80009387C77112071183D443558FD8C303C7E4
:102D9000870085476305F700F2400561828045376B
:102DA000E5BFB727002083A6C77137E700E02320DF
:102DB000D7109387C771DC432322F710828041111B
:102DC00006C622C4372700209307C771854623848F
:102DD000D7000324C771DC435D8C33348000853712
:102DE0002285B24022444101828011C1828041117A
:102DF00006C6B7270020238207726537B24041011B
:102E00008280411106C6930700206301F51E63F11D
:102E1000A704930730216306F52263EBA70E9307FF
:102E200030206305F51E63F4A70C93071021630897
:102E3000F51E63EFA71E93070021631CF51293068E
:102E400080310146854513056004EFF05FD515A27A
:102E5000930710106302F51463FBA7029307001198
:102E6000630CF51463F5A706930720116307F516A5
:102E7000636CF51493073011631DF50E93068031D2
:102E8000014685451305B002EFF07FD1DDA08947EB
:102E90006304F50E63F1A7028D476307F50E9307F0
:102EA00000106318F50C93068031014685450145F5
:102EB000EFF0FFCE7DA85DC58547631CF50A93063C
:102EC0008031014685452545EFF07FCD5DA0930714
:102ED0002010630BF50C93073010631CF508930664
:102EE0008031014685450D45EFF07FCB59A0930712
:102EF00010206305F51093072020631CF506930648
:102F000080310146854513050002EFF05FC995A0A9
:102F1000930700306309F51463F5A7029307203087
:102F20006305F516636AF514930730306313F504EF
:102F3000930680310146854513059002EFF03FC6A8
:102F40000DA8930700226307F51093071022631260
:102F5000F502930680310146854513055002EFF0D6
:102F60001FC401A893068031014685452145EFF035
:102F70001FC3B240410182809306803101468545DE
:102F80002945EFF0DFC1F5B793068031014685454D
:102F90002D45EFF0DFC0F1BF930680310146854536
:102FA0000545EFF0DFBFF1B7930680310146854557
:102FB0000945EFF0DFBE75BF9306803101468545B8
:102FC0003D45EFF0DFBD75B793068031014685457D
:102FD00013053002EFF0BFBC69BF93068031014694
:102FE00085451305A002EFF09FBB61B793068031C2
:102FF000014685451945EFF09FBAA5BF930680317C
:10300000014685451D45EFF09FB9A5B79306803170
:103010000146854513051002EFF07FB899BF93066E
:1030200080310146854513057004EFF05FB791B715
:10303000930680310146854513058004EFF03FB6C5
:103040000DBF930680310146854513059004EFF0CE
:103050001FB505B79306803101468545130540022B
:10306000EFF0FFB339B7930680310146854513056C
:103070006002EFF0DFB2F5BD930680310146854571
:1030800013057002EFF0BFB1EDB593068031014634
:10309000854513058002EFF09FB0E1BD397106DE72
:1030A00022DC26DA4AD84ED6AA84AE893289EFF0DD
:1030B0005FD513D4840075C085476307F40E894734
:1030C000630CF4108D47630FF41285450545EFD06E
:1030D000FFC7B7170240DC43C983BD8B37177A009F
:1030E00013070720B387E7023727F40013070740C9
:1030F000BA9723A2F18633D737034183930517008C
:10310000B3853503B3D7B7029386F7FF231CD100ED
:10311000231AE100231D0100231B0100230E0100DF
:10312000130700072312E10005472313E1002314CE
:103130000100C207C183B38727030967130707711B
:10314000B3D7E7022315F10089472316F1002317AF
:10315000F10023180100231901000A04AD679387C9
:10316000C7E63E9400404C082285EFD0DFCB8D8827
:10317000F9C08547638CF40E89476387F4104C00CF
:103180002285EFD07FF4A1452285EFE0AF90930533
:1031900000402285EFE08F955DA885450565130504
:1031A0000580EFD0BFBA15B785450545EFD0FFBB09
:1031B00085450545EFD09FB993D7440041476388C3
:1031C000E7044547E397E7F0854537051800130501
:1031D0000530EFD05F8EF5BD85450945EFD0FFB8CE
:1031E00085450545EFD09FB693D7440013071002DD
:1031F0006397E702854537151A00130505C0EFD020
:103200009F8BC1BD85451145EFD03FB67DBD85453E
:103210003705160013050504EFD0FF895DBD1307C0
:103220002002E398E7EA854537151A001305058063
:10323000EFD07F8879BD4C002285EFD03FCAA145F1
:103240002285EFE04F8191452285EFE04F8685454D
:103250002285EFD03FF185452285EFD0FFF2F25075
:103260006254D2544259B259216182804C00228565
:10327000EFD07FCFA1452285EFD01FFF93050040FF
:103280002285EFE0EF83E1B74C002285EFD0DFD855
:10329000A1452285EFD0FFFE91452285EFE0EF8327
:1032A0007DB71357850093172700AD669386C6E652
:1032B000B6979C4383D7C702B385F5028967938786
:1032C0000771B3D5F50201EF0D89B7570010938749
:1032D000D7B03E950A05C205C1810CC182808547E1
:1032E0006309F70089476300F7028D476308F70217
:1032F00082800D89B7070010B5073E950A05C20503
:10330000C1810CC182800D89B70700109387D71047
:103310003E950A05C205C1810CC182800D89B7079F
:1033200000109387D7203E950A05C205C1810CC1C4
:10333000C1B7411106C622C42E841DC9894763083E
:10334000F5069147630CF50699476300F508A14718
:103350006304F508A9476309F508B1476310F5024E
:1033600091460146814513056002EFF05F8339A065
:103370009146014681452145EFF07F828547630DE7
:10338000F4068D476301F40895476305F4089D47EB
:10339000630AF408A547630EF408AD476303F40A13
:1033A000B5476308F40AB240224441018280914645
:1033B000014681450145EFF08FFEC9B791460146B0
:1033C00081453D45EFF0AFFD55BF91460146814532
:1033D0001945EFF0CFFC5DB79146014681451305D5
:1033E0006004EFF0CFFB59BF9146014681451305BC
:1033F0004002EFF0CFFA59B7914601468145254585
:10340000EFF0EFF94DB79146014681450545EFF0E4
:103410000FF951BF91460146814513053002EFF087
:103420000FF851B79146014681451D45EFF02FF742
:103430009DBF91460146814513057004EFF02FF6BC
:103440009DB791460146814513055002EFF02FF5D7
:1034500099BF91460146814513057002EFF02FF4A4
:1034600099B7011106CE22CC26CA4AC82A84AE8456
:10347000328931C58547630BF5048947630DF5042F
:103480008D47630FF504CA852685EFF09FEA8545D1
:103490000545EFD0BF8B91476389F404A147638A48
:1034A000F40AA9476396F404AD476313F90485450C
:1034B00037151A0013050580EFD0EFDF15A88545F5
:1034C000056513050580EFD07F8875BF85450545E7
:1034D000EFD0BF894DBF85450945EFD01F8965B73E
:1034E00085451145EFD07F8879BF9547630BF90477
:1034F0004800EFD0BFC585472312F100FD572314C4
:10350000F1002315010023130100230601000A0422
:10351000AD679387C7E63E9400404C002285EFD00C
:103520009F908146014689452285EFD07FCE854513
:103530002285EFD03FC3F2406244D2444249056144
:10354000828085453705180013050530EFD0AFD6CA
:1035500045B7A547E31EF9F8854537151A00130549
:1035600005C0EFD04FD569B70A05AD679387C7E6A9
:10357000AA979C4303D547024205418582800A05EC
:10358000AD679387C7E6AA979C4323920702828080
:10359000411106C622C426C24AC0AE84328436898E
:1035A0002DCDC1476303F508930700026318F508A2
:1035B00093068031054685451305D002EFF02FDED6
:1035C0008547638CF408C5476381F40A93071002AA
:1035D0006396F40A93068031054685451305F0028B
:1035E000EFF0EFDB8947630AF40AC947630FF40A77
:1035F000930720026304F40C930730026319F40C60
:1036000093060031054685454A85EFF04FD9B24013
:10361000224492440249410182809306803105464A
:1036200085451545EFF0AFD761BF9306803105465C
:10363000854513053002EFF08FD659B7B7B60000B5
:103640009386C6E82D661306C6E79305D00237B504
:103650000000130505E9EF50F04893068031054658
:1036600085451D45EFF0AFD3B5BF930680310546C4
:10367000854513055002EFF08FD2ADB7B7B6000005
:103680009386C6E82D661306C6E79305200337B573
:103690000000130505E9EF50F0449306803105461C
:1036A00085451945EFF0AFCFA1BF930680310546A0
:1036B000854513054002EFF08FCE99B79306803110
:1036C000054685451305E002EFF06FCD15BFB7B68F
:1036D00000009386C6E82D661306C6E793058003AF
:1036E00037B50000130505E9EF50D03F397106DE0C
:1036F00022DC26DA4AD84ED652D456D25AD02A8460
:10370000AE89328AB68A3A8BBE84428949C58547DA
:103710006309F508DA865686D2854E85EFF05FE7B5
:1037200023160100930740102317F100231801000E
:1037300085476383F40893978401E187ADCB89477C
:103740006382F4088D476385F40893070020231BE8
:10375000F1000E09231C2101231D01009D47231E9A
:10376000F1000A0413850183229500416C00228533
:10377000EFD06FE3C1476384F90685452285EFD01A
:103780002FE8F2506254D2544259B259225A925AF6
:10379000025B21618280854505650505EFD00FDB61
:1037A00095BF854511650505EFD02FDCA5B7231919
:1037B0000100231A010051BF231901008547231A74
:1037C000F10061B789472319F100231A0100B5BF41
:1037D00089472319F1008547231AF100BDB78545B4
:1037E0000545EFD04FAD51BFAE96938701830A05D3
:1037F0003E956387B6028505184183C7F5FF2316FA
:10380000F70083578700898BEDDF65D683578700E4
:10381000858BEDDF8357C7002300F6000506D1BF77
:103820008280B7F700E023A0070023820700A3826D
:10383000070023830700A383070023840700A384D2
:10384000070023850700A3850700054798C337F7BE
:1038500000E081475443E39FB7FEE37DD5FE8280BD
:10386000411106C60DE585476385F500B24041016B
:10387000828093068031014685452545EFF02FB2C1
:103880009146014681452945EFF06FB1C5B789479B
:103890006309F502C1476306F5049307000263104C
:1038A000F50693068031014685451305A002EFF029
:1038B0000FAF9146014681451305B002EFF02FAEE0
:1038C00075B7930680310146854513056002EFF018
:1038D0000FAD91460146814513057002EFF02FAC04
:1038E00071B793068031014685450945EFF02FAB4E
:1038F0009146014681450D45EFF06FAA85BF9307BC
:103900002002E315F5F6930680310146854513053F
:10391000A004EFF0CFA89146014681451305B004FD
:10392000EFF0EFA7A1B7797106D622D426D24AD0FC
:103930004ECE2A84AE89B284368985450545EFD0BE
:10394000EFC0CA852685EFF0BFF189476381F40295
:10395000930720026390F40293073002631CF9007E
:103960008545370514004105EFD0EF9421A08D4720
:10397000630AF90429CC85476300F4068947630389
:10398000F4064EC02312010023130100231401008A
:1039900023160100B1472315F1000A04AD67938790
:1039A000C7EB3E9400408A852285EFD05F9C854519
:1039B0002285EFD05FABB250225492540259F249A3
:1039C0004561828085451145EFD0EF8E65B785450D
:1039D0001165EFD0AFB775B7854537050200EFD059
:1039E000CFB845B7854537050400EFD00FB851BFB4
:1039F0000A05AD679387C7EBAA97984383570700DB
:103A000093F70708E5DFC205C1812312B700828062
:103A100005CA411106C622C426C24AC02A892E847C
:103A2000B384C50005048345F4FF4A85EFF05FFCCD
:103A3000E39A84FEB24022449244024941018280CA
:103A40008280411106C622C426C22A84AE8413177E
:103A50002500AD679387C7EBBA970546930550528B
:103A60008843EFD05FA2A68601468545130554031F
:103A7000EFF0EFADB2402244924441018280411107
:103A800006C6B7170240DC43C983BD8B37177A00DF
:103A900013070720B387E7023727F400130707400F
:103AA000BA9723A2F18685460146F16593850520E4
:103AB0000145EFF05FE7B24041018280011106CE7F
:103AC00022CC26CA4AC84EC6B2896358C002AE8408
:103AD0003389C500AD6703A4C7EB930500042285B5
:103AE000EFD07F9F7DD985048385F4FFC205C18116
:103AF0002285EFD01F9DE31299FE4E85F24062446D
:103B0000D2444249B249056182804111B71702404F
:103B100098431367170098C3D843B706FFF8758F0B
:103B2000D8C39843B706F7FEFD16758F98C3984320
:103B3000B706FCFFFD16758F98C3D843B70681FF03
:103B4000FD16758FD8C337079F0098C702C402C6F9
:103B50009843C166558F98C337160240B7060200D6
:103B6000130700501C42F58F3EC6A24785073EC48E
:103B7000B24781E7A247E397E7FEB71702409C43AD
:103B80001397E700635A070085473EC632478547CB
:103B90006306F7004101828002C6CDBFB72702400D
:103BA00098431367070198C39843719B98C3984340
:103BB0001367270098C3B7170240D843D8C3D84328
:103BC000D8C3D843D8C3D843B706C1FFFD16758FF5
:103BD000D8C3D843B7062500558FD8C39843B70636
:103BE0000001558F98C3371702401C439396670016
:103BF000E3DD06FEB7170240D843719BD8C3D84314
:103C000013672700D8C3B71602402147DC42B18BA7
:103C1000E39EE7FE41B7011106CE22CC26CA4AC870
:103C20004EC652C456C283C9918003C581803305F4
:103C30003541EF500036B7B7000083A5C7ECEF4021
:103C4000D00BAA8AB7240020938484720144130AFB
:103C5000C0032285EF50E033D685EF4050462A89D5
:103C60004E85EF500033AA854A85EF406052EF50F1
:103C7000E02C2380A40005048504E31C44FD83C9D3
:103C8000B18003C5A18033053541EF508030B7B70F
:103C9000000083A507EDEF405006AA8AB724002054
:103CA000938444760144130A00052285EF50602E68
:103CB000D685EF40D0402A894E85EF50802DAA85C9
:103CC0004A85EF40E04CEF5060272380A4000504B4
:103CD0008504E31C44FDF2406244D2444249B249A7
:103CE000224A924A05618280372800201308887290
:103CF000372500201305857F85689388082CAA98AE
:103D0000B72E0020130EC00B3703002013034326E9
:103D10000346080093874E7693850705AA863306E7
:103D2000C6031A9603C7070032970347070023808C
:103D3000E60085078506E397B7FE05081305050528
:103D4000E31815FD8280411106C61145EFE07FB3EF
:103D50001945EFE01FB32145EFE0BFB22545EFE085
:103D60005FB2B24041018280797106D622D426D258
:103D70004AD04ECE52CC56CA5AC85EC61546914558
:103D80001145EFE03FBF138461872310A40015465F
:103D900091451945EFE01FBE938481872390A400CD
:103DA000154691452145EFE0FFBC1389A1872310FB
:103DB000A900154691452545EFE0DFBBAA89239E62
:103DC000A1860359090083D4040003550400B307F6
:103DD0009900AA97CE97C207C1872398F18803C795
:103DE000F1871377F70F11CB9386F18703C706008E
:103DF0007D171377F70F2380E60003C7D188137769
:103E0000F70F11CB9386D18803C706007D17137770
:103E1000F70F2380E60003C7E1881377F70F1DC370
:103E20001387E18883460700FD1693F6F60F2300FB
:103E3000D700034707001377F70F09E7238F018A9D
:103E4000238E018A130740106353F72C83C7F18731
:103E500093F7F70F639D072A83C7D18893F7F70F6E
:103E60006397072A83C7E18B93F7F70F63940712D1
:103E700083C7C18B93F7F70F639E07101387C18821
:103E800083470700850793F7F70F2300F70083D7D1
:103E9000C18983D6618AB6979387A7F1C207C18784
:103EA0002393F18A13070005635AF70283C7C18879
:103EB00093F7F70F638007300547238FE18A238646
:103EC00001885147239CE188130780072387E188F5
:103ED0007947A386E1882393018AE9AC1307C0F9E7
:103EE00063DAE70283C7C18893F7F70F6384072C6F
:103EF0000547238EE18A238601885147239CE18868
:103F0000130780072387E1887947A386E1882393F5
:103F1000018A4DA4EF40A02037B40000032684EDB1
:103F20008326C4EDEF30C0592A8AAE8A2685EF4039
:103F3000001FB7B4000003A604EE83A644EEEF30E2
:103F400020582A86AE865285D685EF207052EF50D3
:103F5000601B23A6A1864A85EF40601C03A604EEE1
:103F600083A644EEEF30C0552A8BAE8B4E85EF40D2
:103F7000001B032684ED8326C4EDEF3060542A86AF
:103F8000AE865A85DE85EF20B04EEF50A01723A8ED
:103F9000A1860DA41387E18783470700850793F760
:103FA000F70F2300F70083C7E18B93F7F70F05475F
:103FB000638CE70A83C7C18B93F7F70F0547639BB1
:103FC000E71E83C7E18793F7F70F25476374F71E52
:103FD000238E018AEF40A01437B40000032604EFBB
:103FE000832644EFEF30C04D2A8AAE8A2685EF4003
:103FF0000013032604EF832644EFEF30604C2A863B
:10400000AE865285D685EF20B046EF50A00F23A68E
:10401000A1864A85EF40A010032604EF832644EFD3
:10402000EF30004A2A8AAE8A4E85EF40400FB7B77C
:10403000000003A687EE83A6C7EEEF3060482A860D
:10404000AE865285D685EF20B042EF50A00B23A854
:10405000A186238F01861307C003239CE1881307E1
:1040600080FCA38FE186B9A283C7E18793F7F70F9E
:104070002547E371F7F4238F018AEF40400AB7B771
:10408000000003A687EE83A6C7EEEF3060432A8ABE
:10409000AE8A2685EF40A00837B40000032604EF5F
:1040A000832644EFEF30C0412A86AE865285D685FE
:1040B000EF20103CEF50000523A6A1864A85EF4073
:1040C0000006032604EF832644EFEF30603F2A8A80
:1040D000AE8A4E85EF40A004032604EF832644EF0A
:1040E000EF30003E2A86AE865285D685EF205038C6
:1040F000EF50400123A8A186238F01861307C00338
:10410000239CE188130780FCA38FE18665A083C709
:10411000E18B93F7F70F0547638BE71083C7C18BDC
:1041200093F7F70F05476386E71823860188238FE7
:104130000186EF30D07E37B40000032684ED83265D
:10414000C4EDEF30E0372A8AAE8A2685EF30307D25
:10415000B7B4000003A604EE83A644EEEF30403669
:104160002A86AE865285D685EF209030EF40907932
:1041700023A6A1864A85EF30907A03A604EE83A693
:1041800044EEEF30E0332A8BAE8B4E85EF30307942
:10419000032684ED8326C4EDEF3080322A86AE8676
:1041A0005A85DE85EF20D02CEF40D07523A8A1865C
:1041B0002393018A03A4C18683A40187A68522854F
:1041C000EF403019B7B7000083A547EDEF40206FEF
:1041D0002A89A6852285EF30B07BAA854A85EF40E3
:1041E000C031AA8423A4A186138481880C40EF40A7
:1041F000501683A50188EF40806CAA8983A5418869
:104200002685EF40C06BAA854E85EF307078EF4071
:10421000D04C239AA18604C0B25022549254025921
:10422000F249624AD24A424BB24B45618280EF303A
:10423000106F37B40000032604EF832644EFEF30FD
:1042400020282A8AAE8A2685EF30706D032604EF77
:10425000832644EFEF30C0262A86AE865285D68567
:10426000EF201021EF40106A23A6A1864A85EF3087
:10427000106BB7B7000003A687EE83A6C7EEEF303A
:1042800020242A8AAE8A4E85EF307069B7B70000C5
:1042900003A687ED83A6C7EDEF3080222A86AE867F
:1042A0005285D685EF20D01CEF40D06523A8A1868B
:1042B00011B7EF30D066B7B7000003A687EE83A62C
:1042C000C7EEEF30E01F2A8AAE8A2685EF303065D0
:1042D000B7B7000003A687ED83A6C7EDEF30401EF9
:1042E0002A86AE865285D685EF209018EF409061E1
:1042F00023A6A1864A85EF30906237B400000326DA
:1043000004EF832644EFEF30A01B2A8AAE8A4E8545
:10431000EF30F060032604EF832644EFEF30401ABD
:104320002A86AE865285D685EF209014EF40905DA8
:1043300023A8A18641B5011106CE22CC26CA4AC8BF
:104340004EC652C4130780072399E188EFF0DFA11E
:10435000130A800C2DA8154691451145EFE08FE119
:10436000239BA186154691451945EFE0AFE0239CBC
:10437000A186154691452145EFE0CFDF239DA1861B
:10438000154691452545EFE0EFDE239EA18683D7B4
:10439000618703D78187BA9783D6A18703D7C1875F
:1043A000938577023386E600E3C7C5FAB697BA97D6
:1043B000E353FAFA239901881307400B239AE18803
:1043C000F2406244D2444249B249224A05618280A5
:1043D000797106D622D426D24AD04ECE52CC56CAB5
:1043E0005AC85EC662C483C7C18A850793F7F70FB0
:1043F0002386F18A83C7C18A93F7F70F0547638540
:10440000E70283C7C18A93F7F70F0947638DE73245
:10441000B250225492540259F249624AD24A424B53
:10442000B24B224C45618280239A018823AC018AD9
:104430001307800C239BE188EFD0FFBC03A7818B7F
:10444000FD7793871738634FF70E37BB000037BAF5
:10445000000037B90000EFD01FBB8397A184294724
:10446000B3C7E70203A7818BBA9723ACF18A13067F
:104470008BEF81450145EFD0EFDD03962189814522
:1044800013050006EFD0EFE813060AF08545014555
:10449000EFD04FDC03964189854513050006EFD028
:1044A0004FE7130689F089450145EFD0AFDA03964F
:1044B0006189894513050006EFD0AFE537B60000E6
:1044C000130606F18D450145EFD0CFD80396018440
:1044D0008D4513050006EFD0CFE337B60000130675
:1044E000C6F191450145EFD0EFD603962184914561
:1044F00013050006EFD0EFE137B60000130686F291
:1045000095450145EFD00FD5039641849545130598
:104510000006EFD00FE037B60000130646F39945CA
:104520000145EFD02FD3954603A6818B99451305FE
:104530000006EFD0AFF203A7818BFD779387173882
:10454000E35BF7F01304700E130CC0F937BB0000E7
:10455000B7BA0000B7B900002399818983D7018ACF
:10456000B307F040239BF18813068BEF814501458B
:10457000EFD04FCE03962189814513050006EFD079
:104580004FD913860AF085450145EFD0AFCC03968D
:104590004189854513050006EFD0AFD7138689F012
:1045A00089450145EFD00FCB0396618989451305F5
:1045B0000006EFD00FD637B60000130606F18D4582
:1045C0000145EFD02FC9039601848D4513050006E0
:1045D000EFD02FD437B600001306C6F19145014540
:1045E000EFD04FC703962184914513050006EFD005
:1045F0004FD237B60000130686F295450145EFD03D
:104600006FC503964184954513050006EFD06FD022
:1046100037B60000130646F399450145EFD08FC326
:10462000954603A6818B994513050006EFD00FE34D
:104630007D1442044180E31104F22399018823ACE4
:10464000018A930B80F33E84B7BA0000B7B900002B
:10465000239B7189EFD03F9B8397A1842947B3C7E0
:10466000E70203A7818BBA9723ACF18A13868AEFFE
:1046700081450145EFD00FBE039621898145130581
:104680000006EFD00FC9138609F085450145EFD02C
:104690006FBC03964189854513050006EFD06FC7AF
:1046A00037B60000130686F089450145EFD08FBA72
:1046B00003966189894513050006EFD08FC537B68B
:1046C0000000130606F18D450145EFD0AFB8039603
:1046D00001848D4513050006EFD0AFC337B6000047
:1046E0001306C6F191450145EFD0CFB6039621845C
:1046F000914513050006EFD0CFC137B60000130671
:1047000086F295450145EFD0EFB403964184954577
:1047100013050006EFD0EFBF37B60000130646F3CF
:1047200099450145EFD00FB3954603A6818B994576
:1047300013050006EFD08FD203A7818B9307703E3D
:10474000E3D8E7F0F1B1239A018823AC018A13047E
:10475000700E130CC0F937BB0000B7BA0000B7B930
:1047600000002399818983D7018AB307F040239BF6
:10477000F18813068BEF81450145EFD0AFAD03966D
:104780002189814513050006EFD0AFB813860AF0E2
:1047900085450145EFD00FAC03964189854513054A
:1047A0000006EFD00FB7138689F089450145EFD099
:1047B0006FAA03966189894513050006EFD06FB58E
:1047C00037B60000130606F18D450145EFD08FA8DE
:1047D000039601848D4513050006EFD08FB337B6DD
:1047E00000001306C6F191450145EFD0AFA6039630
:1047F0002184914513050006EFD0AFB137B6000014
:10480000130686F295450145EFD0CFA40396418467
:10481000954513050006EFD0CFAF37B6000013065D
:1048200046F399450145EFD0EFA2954603A6818B4B
:10483000994513050006EFD06FC27D1442044180F4
:10484000E31104F22399018823AC018A930B80F3CE
:104850003E84B7BA0000B7B90000239B7189EFD03E
:104860008FFA8397A1842947B3C7E70203A7818BF7
:10487000BA9723ACF18A13868AEF81450145EFD0C0
:104880006F9D03962189814513050006EFD06FA81F
:10489000138609F085450145EFD0CF9B03964189EA
:1048A000854513050006EFD0CFA637B600001306E6
:1048B00086F089450145EFD0EF99039661898945D6
:1048C00013050006EFD0EFA437B60000130606F17B
:1048D0008D450145EFD00F98039601848D45130552
:1048E0000006EFD00FA337B600001306C6F19145BE
:1048F0000145EFD02F9603962184914513050006BC
:10490000EFD02FA137B60000130686F2954501457A
:10491000EFD04F9403964184954513050006EFD0E0
:104920004F9F37B60000130646F399450145EFD077
:104930006F92954603A6818B994513050006EFD02B
:10494000EFB103A7818B9307703EE3D8E7F0C9B4BA
:10495000011106CE22CC26CA4AC84EC652C456C23F
:10496000EFE0EFC5EFF0AF9183A74186096713072A
:1049700007F4B3D7E7021305803E3385A7028145CC
:10498000EFE03FEAC92C91269306003101468545A8
:1049900013052006EFE0AFA013068004A1450145F2
:1049A000EFE0AFB48546054685455945EFE02FBA9F
:1049B00085450945EFF0EF88854601468145130599
:1049C0007003EFE0CFB8EFF00FB8EFD00FD7EFD014
:1049D000BF88EFF04FA437B70000032707F423A0E8
:1049E000E19437B70000032747F423AEE19237B7CD
:1049F0000000032787F423A2E18837B700000327CC
:104A0000C7F423A0E1881307C0442394E18A014539
:104A1000EFE0AFBDEFF03F92130A2003856493846B
:104A200064869DA223860184EFF00FACEF20E02086
:104A3000EF20001EEF107045EF10506EA9AA0397EB
:104A400001899307000F63C8E71683C7E18B93F7CB
:104A5000F70F6392071683C7C18B93F7F70F639C19
:104A6000071483D7818A63980714EFF07F96239CFD
:104A70004189A38F01942394918A35AA9307C04456
:104A80002395F18A2394F18A2382019637B6000098
:104A9000130606F581450145EFC0DFFB03C6E18B38
:104AA000814513050006EFC0BFFF37B600001306AF
:104AB000C6F585450145EFC0FFF903C6C18B8545A5
:104AC00013050006EFC0DFFD37B60000130686F6BB
:104AD00089450145EFC01FF803D661878945130555
:104AE0000006EFD0CF8E37B60000130646F78D458F
:104AF0000145EFC03FF60396618A8D451305000618
:104B0000EFD02F8137B60000130606F89145014516
:104B1000EFC05FF40396C189914513050006EFC00D
:104B20005FFF37B60000130606F995450145EFC053
:104B30007FF203D6C187954513050006EFD02F8974
:104B400037B600001306C6F999450145EFC09FF03E
:104B500003D60189994513050006EFD04F8737B674
:104B60000000130646FA9D450145EFC0BFEE03A5C0
:104B70008186EF40604E89470D472A86AE869D4567
:104B800013050006EFD08F9783C7C18493F7F70F03
:104B90000547E389E7E8EFF02F9D83D7619303D7BB
:104BA0004187998F239BF18883C7F19593F7F70F7E
:104BB0000547E386E7E883C7419693F7F70F054774
:104BC000E396E7EC83D7A18AE39207EC83C7D18B06
:104BD000850793F7F70FA38EF18A13074006239CEE
:104BE000E1880547E38CE7E80947E39FE7E8B7BAC0
:104BF000000037BA0000B7B9000023990188239A52
:104C00000188239B018813868AEF81450145EFC007
:104C10007FE403962189814513050006EFC07FEFED
:104C200013060AF085450145EFC0DFE2039641898E
:104C3000854513050006EFC0DFED138689F0894531
:104C40000145EFC03FE103966189894513050006E0
:104C5000EFC03FEC5DB7411106C61D28EFC09FAD08
:104C60009306100213060002B7150700938505800E
:104C70000945EFE05FCB154691450545EFE06FFE36
:104C80002D46A9450945EFE0CFFDB24041018280A4
:104C9000411106C693068004014681451305800430
:104CA000EFD0FFEF93068004014681451305900481
:104CB000EFD0FFEE930680040146814513052002E4
:104CC000EFD0FFEDB24041018280411106C622C4FF
:104CD00093060031014685451305A004EFD03FEC53
:104CE000014611649305842613050030EFE00FBBE5
:104CF00093060031014685451305B004EFD03FEA25
:104D000001469305842613051030EFE02FB9930672
:104D10000031014685451305C002EFD05FE801462A
:104D20009305842613052030EFE04FB7930600313A
:104D3000014685452145EFD09FE60146930584262F
:104D400013053030EFE08FB5B2402244410182803C
:104D5000011106CE22CC26CA4AC84EC6AA89368977
:104D6000B305B04093940501C1843306C0401314C9
:104D7000060141846356A00681451305A004EFD0C7
:104D80003FF3CE8513050030EFE0AFD163589006B6
:104D900081451305B004EFD0BFF1A685130510308F
:104DA000EFE02FD0635A800681451305C002EFD093
:104DB0003FF0A28513052030EFE0AFCE635C200703
:104DC00081452145EFD0DFEECA8513053030EFE095
:104DD0004FCDF2406244D2444249B24905618280DB
:104DE00085451305A004EFD0BFEC89659385057157
:104DF000CE9513050030EFE0CFCA49BF85451305B6
:104E0000B004EFD0FFEA896593850571A695130577
:104E10001030EFE00FC979B785451305C002EFD018
:104E20003FE9896593850571A29513052030EFE070
:104E30004FC769B785452145EFD09FE789659385C1
:104E40000571CA9513053030EFE0AFC559B7397118
:104E500006DE22DC26DA4AD84ED652D456D25AD0B2
:104E60005ECE62CC66CA6AC86EC642054181C20582
:104E7000C181330AB500420A135A0A01420641822F
:104E8000330BCA00420B135B0B412397618B898D57
:104E9000C205C181B38AC540C20A93DA0A41239888
:104EA000518B330ACA40420A135A0A412399418B53
:104EB000B2959399050193D90941239A318B0395B2
:104EC000418A83D5E19203D6C1929387F18B03C7C0
:104ED000070093161700372700201307477B3697E4
:104EE00083D6218A2310D70003C707009316170023
:104EF000372700201307077C36972310A70003C726
:104F0000070093161700372700201307C77C369732
:104F10002310B70083C7070013971700B727002097
:104F20009387877DBA972390C70083C7018C93F737
:104F3000F70F1147636BF7001387018C8347070056
:104F4000850793F7F70F2300F7009387F18B03C7CB
:104F5000070005071377F70F2380E70083C70700D3
:104F600093F7F70F11476374F700A38F018A372770
:104F700000201307477B8357270083560700B69707
:104F800083564700B69703556700AA9703558700D5
:104F9000AA97C207C1872392F192372700201307EF
:104FA000077C03592700835607003699835647002C
:104FB0003699835667003699035787003A99420914
:104FC0001359094123932193372700201307C77CE6
:104FD0008354270083560700B69483564700B6943F
:104FE00083566700B69403578700BA94C204C184FD
:104FF00023949192372700201307877D03542700BD
:1050000083560700369483564700369483566700CC
:105010003694035787003A94420441842395819241
:10502000938B018C03C50B001375F50F33C5A702D5
:10503000EF3030762A8D23A2A19003C50B001375A3
:10504000F50F3345A902EF30D074AA8C23A4A190A8
:1050500003C50B001375F50F33C5A402EF30707351
:105060002A8923A6A19003C50B001375F50F3345BC
:10507000A402EF3010722A8C23A8A1905A85EF3039
:105080005071EA85EF30F02CAA8423AAA18C1384F6
:10509000418E032D0400EA85EF30B02B83A5C1813A
:1050A000EF30F0012A8B83A5C1802685EF303001D7
:1050B000AA855A85EF30C00D2A8BEA856A85EF30C4
:1050C000200DAA852685EF30D028938B418F83A5AC
:1050D0000B00EF30E00B83A5418CEF30407EAA85BA
:1050E0005A85EF30E00A938D419183A50D00EF3092
:1050F000200A2A8B23A0AD0023A0AB0104C0568553
:10510000EF303069E685EF30D024AA8423ACA18C3F
:105110001384818E832C0400E685EF30902383A5D1
:105120000182EF30C079AA8A83A501812685EF30FC
:105130000079AA855685EF30A005AA8AE68566859E
:10514000EF300005AA852685EF30B020938B818F44
:1051500083A50B00EF30C00383A5818CEF30207650
:10516000AA855685EF30C002138D819183250D00ED
:10517000EF300002AA8A2320AD0023A09B0104C0C7
:105180005285EF301061CA85EF30B01CAA8423AE7F
:10519000A18C1384C18E032A0400D285EF30701BCA
:1051A00083A54182EF30A0712A8983A5418126859C
:1051B000EF30E070AA854A85EF20907DAA8BD285DA
:1051C0005285EF20F07CAA852685EF309018138950
:1051D000C18F83250900EF20B07B83A5C18CEF3000
:1051E000006EAA855E85EF20B07A938CC19183A56D
:1051F0000C00EF20F079AA8B23A0AC0023204901FA
:1052000004C04E85EF30F058E285EF309014AA8448
:1052100023A0A18E1384018F83290400CE85EF3053
:10522000501383A58182EF3080692A8983A581810B
:105230002685EF30C068AA854A85EF2070752A8AD6
:10524000CE854E85EF20D074AA852685EF3070106C
:105250001389019083250900EF20907383A5018DA8
:10526000EF30E065AA855285EF209072138A019293
:1052700083250A00EF20D0712A8C2320AA00232046
:10528000390104C0B7B7000083A507FB5A85EF308A
:10529000E0516355A00C37B70000032707FB23AA92
:1052A000E190B7B7000083A507FB5685EF300050AB
:1052B0006356A00C37B70000032707FB23ACE1902F
:1052C000B7B7000083A507FB5E85EF30204E63571C
:1052D000A00C37B70000032707FB23AEE190B7B758
:1052E000000083A507FB6285EF30404C6358A00C9B
:1052F00037B70000032707FB23A0E19203A5019223
:10530000EF30B03D131905011359094103A5C191AF
:10531000EF30B03C93140501C18403A58191EF30B7
:10532000D03B13140501418403A54191EF30F03ABD
:10533000CA862686A28542054185EFF07FA1F250FC
:105340006254D2544259B259225A925A025BF24BD9
:10535000624CD24C424DB24D21618280B7B7000001
:1053600083A547FB5A85EF30C04CE35C05F237B7A5
:105370000000032747FB23AAE19025B7B7B7000039
:1053800083A547FB5685EF30C04AE35B05F237B78C
:105390000000032747FB23ACE1901DB7B7B700001F
:1053A00083A547FB5E85EF30C048E35A05F237B767
:1053B0000000032747FB23AEE19015B7B7B7000005
:1053C00083A547FB6285EF30C046E35905F237B746
:1053D0000000032747FB23A0E1920DB7938631938A
:1053E00003C60600130716001377F70F2380E600A5
:1053F000B72700209387477EB2972380A700854771
:105400006306F702CD476312F70205472389E1924D
:10541000B727002003C7677F9307E00E6306F702F4
:105420000D472389E192A38901928280B72700204A
:1054300003C7477E9307800DE309F7FEA389019216
:1054400009472389E192828005472389E192E1BFE0
:10545000034715009307000B6301F704034745005A
:105460009307100B6306F704034775009307200B9F
:10547000630BF7040347A5009307300B6300F7069F
:105480000347D5009307400B6303F7060347F50076
:105490009307500B6302F706828083472500A2071B
:1054A00003473500D98FC207C1872396F1927DB794
:1054B00083475500A20703476500D98FC207C187FC
:1054C0002397F19255B783478500A20703479500BC
:1054D000D98FC207C1872398F19269BF8347B5006E
:1054E000A2070347C500D98F2390F18A51BF034714
:1054F000E500238FE18859BF83470501A2070347D1
:105500001501D98F239EF18841BFB74700209387AB
:1055100047AF37070020130747051386C703FD561B
:105520002380D7002300D70085070507E39AC7FE2D
:1055300082805171A2D7A6D5CAD3CED1D2CFD6CD33
:10554000DACBDEC9E2C7E6C5EAC3EEC17D57230C5C
:10555000E10AA30CE10A230DE10AA30D010A230EBF
:10556000010A8547A30EF10A230FF10AA30FF10ADE
:105570002308010AA308E10A2309F10AA309E10AA1
:10558000230AF10AA30A010A230BE10AA30BF10A79
:10559000B72700201387877F8567BA9703CE072731
:1055A000038FA19337470020130787A68146814EBA
:1055B00001489308F0041305F00FB7420020372389
:1055C00000201303837F8567938787243E93A54F2D
:1055D000054493038002A1A06319AE04938782A1BE
:1055E00021A08507638A670003C607007DFA0508C6
:1055F000620813588841F5B763D50F01A28E1E8F3C
:1056000029A89307B0032300F106230801003DA851
:105610008507E207E18763CEF8548506050793F70F
:10562000F60F13968601618645DA034607006DF290
:1056300003461700E31EA6FC03462700E31AA6FC58
:105640009307B0032300F1062308D100814285446B
:105650009D4E930FF004372F0020130F8F7F930A76
:10566000800C894C930DD004130D90039309F00F17
:10567000B7470020938747AF3EC669A1930B15003B
:1056800013942B005E9412047A944A94834B040082
:10569000639D0B0C631B3C0D1384F6FF1374F40F16
:1056A00063F08C101384C6FF1374F40F63F6842424
:1056B0001384A6FF1374F40F63F28C2C9397860166
:1056C000E18763C9FE4285050506850693F6F60F58
:1056D00083C70500F29793F7F70F1395870161854C
:1056E000034706001A971377F70F1318870113580B
:1056F0008841E3E5F8FCE3E3EFFC2A8A42891314CE
:1057000025002A9412047A94429403440400E30787
:1057100054FB131425002A9412047A944294034BE8
:10572000F4FF631C0B00131425002A9412047A94CE
:10573000429403441400E30134F7930BF5FF1394F0
:105740002B005E9412047A944A94034C0400E317ED
:105750000CF2930B150013942B005E9412047A94B0
:105760004A94834B0400E3893BF3631B0800131442
:1057700025002A9412047A9403441400630E343DE5
:10578000131425002A9412047A944A9403441400B2
:1057900019C0E31554F3E3133BF3E3910BF2EDBDB2
:1057A0001304F7FF1374F40F63EE8D00631C0B00FA
:1057B000131425002A9412047A944A940344140082
:1057C000630734091384F7FF1374F40F636A8D02BF
:1057D000130BF5FF13142B005A9412047A944A9475
:1057E000034B040063140B0C130B150013142B0054
:1057F0005A9412047A944A94034404006305340DC5
:10580000E31308EC131725002A9712077A9703472A
:105810001700E31A37EB13172A00529712077A97EB
:10582000930680FC2300D70032473A9A23000A00EF
:105830008502E20293D28241980116972300F7FA7B
:10584000230807F40148639AF22B01485DA09316E0
:105850002A00D2969206FA963699930680FC230087
:10586000D900B246D29603860600FD56630FD600D5
:105870008502E20293D28241940196962380F6FA41
:105880002388E6F4639BF227ADA0B246369A230044
:105890000A018502E20293D2824194019696238006
:1058A000F6FA2388E6F4639AF225A1A0930B15007B
:1058B00013942B005E9412047A944A9403440400D7
:1058C00021F0E31F3BF393162A00D2969206FA9634
:1058D0003699930680FC2300D9008502E20293D218
:1058E0008241940196962380F6FA2388E6F4639623
:1058F000F2219302E00429A41384F7FF1374F40F38
:10590000E3638DDC1304F5FF930B0005330474038C
:105910007A944A94034B040063130B041304150098
:10592000330474037A944A9403440400E31D34D985
:1059300093060005B306DA02FA963699930680FCC0
:105940002300D9008502E20293D282419401969607
:105950002380F6FA2388E6F46391F21B59BF1304FF
:105960001500930B0005330474037A944A9403449E
:105970000400E31A04D4E3183BD55DBF1304F7FF1A
:105980001374F40F63ED8D06631B0B0613040005FF
:10599000330485027A944A94034414006311340753
:1059A00093060005B306DA02FA963699930680FC50
:1059B0002300D900B246D29603860600FD56631333
:1059C000D602B246369A23000A018502E20293D239
:1059D0008241940196962380F6FA2388E6F4639E2A
:1059E000F21101BF8502E20293D2824194019696A0
:1059F0002380F6FA2388E6F46391F211DDBD138467
:105A0000F7FF1374F40F63618D0A635F0009E3C746
:105A100003CB1304F5FF130C0005330484037A94BD
:105A20004A94834B040063930B041304150033045E
:105A300084037A944A94034C040063173C0593064C
:105A40000005B306DA02FA963699930680FC230025
:105A5000D9008502E20293D2824194019696238076
:105A6000F6FA2388E6F4639AF20961B51304150087
:105A7000130C0005330484037A944A94034C040005
:105A800063140C00E38D3BFB130400053304850213
:105A90007A944A940344140019C0E31154C3E31FD9
:105AA0003BC1E31D0CC061BFE31A08C0130700052A
:105AB0003307E5027A9703471700E31137C113074D
:105AC00000053307EA027A97930680FC2300D7008B
:105AD00032473A9A23000A008502E20293D28241B9
