:100000006F000061130000001300000013000000E7
:100010001300000013000000130000001300000094
:100020001300000013000000130000001300000084
:08003000130000007300100032
:100038006FF09FFC000000006F00C04F6F00805001
:1000480000000000000000000000000000000000A8
:100058000000000000000000000000000000000098
:100068006FF09FF9000000006FF01FF9000000001A
:100078006FF09FF86FF05FF86FF01FF86FF0DFF721
:100088006FF09FF76FF05FF76F0080156F004016F5
:100098006F00A01A6F00C01B6F00801C6FF0DFF5A7
:1000A8006FF09FF56FF05FF56F0060446FF0DFF45D
:1000B8006FF09FF46FF05FF46F00801D0000000088
:1000C8000000000000000000000000006F00401A5F
:1000D8006F00001D6F0000206F00C0226F00002815
:1000E8006F00C0306F0000336F00C0356FF0DFF075
:1000F8006FF09FF06FF05FF06FF01FF06FF0DFEFC1
:100108006FF09FEF6F0000376F00C0376F00203D22
:100118006F0000176FF05FEE6FF01FEE6FF0DFED0E
:1001280000000000000000000000000000000000C7
:080138000000000000000000BF
:100140003D432A876373C3029377F700BDEFADE5A4
:10015000937606FF3D8ABA960CC34CC30CC74CC7B6
:100160004107E36BD7FE11E28280B306C3408A06E3
:100170009702000096966780A6002307B700A306A3
:10018000B7002306B700A305B7002305B700A304F3
:10019000B7002304B700A303B7002303B700A302EB
:1001A000B7002302B700A301B7002301B700A300E3
:1001B000B7002300B700828093F5F50F9396850072
:1001C000D58D93960501D58D61B79396270097023B
:1001D000000096968682E78086FA9680C1171D8F6A
:1001E0003E96E374C3F8A5B7411122C6000801008A
:1001F0003244410173002030411122C600080945F4
:10020000EF00301D2A8785476318F702B7070020E3
:1002100003A7C70B89476315F700EF20B01711A894
:10022000B707002003A7C70B85476314F700EF202B
:1002300030090945EF00501F0100324441017300AD
:100240002030411122C600081145EF00F01D0100C9
:100250003244410173002030411122C600080100E0
:100260003244410173002030411122C600080100D0
:100270003244410173002030411122C600080100C0
:100280003244410173002030411122C600080100B0
:100290003244410173002030411122C600080100A0
:1002A0003244410173002030411122C600089305F9
:1002B0000008B7370140138507C0EF102072AA87E6
:1002C00089CB93050008B7370140138507C0EF10AD
:1002D000E07701003244410173002030411122C611
:1002E00000088545B7370140138507C0EF10006F40
:1002F000AA8781CB8545B7370140138507C0EF102A
:10030000E07401003244410173002030411122C6E3
:10031000000893050004B7370140138507C0EF10AC
:10032000E06BAA8789CB93050004B737014013859A
:1003300007C0EF10A07193050002B7370140138585
:1003400007C0EF10A069AA8789CB93050002B737D1
:100350000140138507C0EF10606F01003244410176
:1003600073002030411122C600088945B73701408B
:10037000138507C0EF108066AA8781CB8945B73700
:100380000140138507C0EF10606C9145B7370140FD
:10039000138507C0EF108064AA8781CB9145B737DA
:1003A0000140138507C0EF10606AA145B7370140CF
:1003B000138507C0EF108062AA8781CBA145B737AC
:1003C0000140138507C0EF106068C145B737014091
:1003D000138507C0EF108060AA8781CBC145B7376E
:1003E0000140138507C0EF106066010032444101EF
:1003F00073002030411122C60008854537050040B2
:10040000EF10C05DAA8791C7854537050040EF1002
:10041000E06301003244410173002030411122C6E3
:1004200000088545B707004013850740EF10005BC3
:10043000AA8781CB8545B707004013850740EF1099
:10044000E06001003244410173002030411122C6B6
:1004500000088545B717004013850780EF10005846
:10046000AA8781CB8545B717004013850780EF1019
:10047000E05D01003244410173002030411122C689
:10048000000801003244410173002030411122C6AE
:10049000000893055052B747004013850740EF10FE
:1004A000901AAA8785CF93055052B747004013850D
:1004B0000740EF107029B707002003A7C70B894733
:1004C0006315F700EF20006611A8B707002003A707
:1004D000C70B85476314F700EF2000290100324461
:1004E000410173002030411122C60008010032444E
:1004F000410173002030411122C600080965C1295D
:100500002A8785476317F70209650523B707002087
:1005100003A7C70B89476315F700EF20006B11A8ED
:10052000B707002003A7C70B85476314F700EF2028
:10053000805C01003244410173002030411122C629
:10054000000801003244410173002030411122C6ED
:10055000000801A0011106CE22CC4ACA4EC852C6DC
:1005600056C40010EF20B045EF30E03B03A7818276
:100570008967938707F43357F7029307C012B307CD
:10058000F7023E8A814A5285D685EF30C002EF10CD
:10059000B04A9567138607E481450145EF20A00224
:1005A0009567138647E585450145EF20C001EF209B
:1005B00020499567138647E685450145EF20A00051
:1005C00003A781828967938707F43357F70293075C
:1005D000401FB307F7023E8981494A85CE85EF2047
:1005E000907D0145EF20304283C7D181F5DFA38E96
:1005F0000180130700089306000A130620039305E1
:10060000C00BB70700201385470FEF208003E9BF19
:10061000970100209381812A175100201301819EA8
:100620001755000013054502970500209385859D09
:100630001386818163FAC5008322050023A055003B
:1006400011059105E3EAC5FE1385818197250020F8
:10065000938505F76377B500232005001105E36D49
:10066000B5FE9302800873A00230970200009382C7
:10067000E29C93E2120073905230EF30C04A97022E
:100680000000938262ED73901234730020300111E8
:1006900022CE00102326A4FE8327C4FE9843C16700
:1006A000F9177D8F8327C4FE98C38327C4FE23A038
:1006B00007008327C4FE23A207008327C4FE23A4C8
:1006C00007008327C4FE23A607000327C4FEB7073D
:1006D0000240A107631BF700B7070240D843B707E2
:1006E00002401367F700D8C375A20327C4FEB707FB
:1006F0000240F107631BF700B7070240D843B70772
:1007000002401367070FD8C371A20327C4FEB707BF
:10071000024093870703631DF700B7070240D443E5
:10072000B70702400567130707F0558FD8C39DA28E
:100730000327C4FEB707024093874704631BF700F3
:10074000B7070240D443B70702403D67558FD8C36F
:1007500091A20327C4FEB707024093878705631C55
:10076000F700B7070240D443B707024037070F002E
:10077000558FD8C305A20327C4FEB707024093874D
:10078000C706631CF700B7070240D443B70702400F
:100790003707F000558FD8C3F5A80327C4FEB70765
:1007A000024093870708631CF700B7070240D44351
:1007B000B70702403707000F558FD8C3E1A80327BA
:1007C000C4FEB707024093878740631FF700B7074F
:1007D000024093870740D843B707024093870740FA
:1007E0001367F700D8C37DA00327C4FEB7070240F4
:1007F0009387C741631FF700B707024093870740FD
:10080000D843B7070240938707401367070FD8C341
:1008100051A00327C4FEB707024093870743631123
:10082000F702B707024093870740D443B707024057
:10083000938707400567130707F0558FD8C399A81A
:100840000327C4FEB707024093874744631FF7009E
:10085000B707024093870740D443B7070240938706
:1008600007403D67558FD8C335A00327C4FEB7079F
:10087000024093878745631FF700B70702409387BD
:100880000740D443B70702409387074037070F005C
:10089000558FD8C30100724405618280797122D6D8
:1008A0000018232EA4FC232CB4FC232604FE83274B
:1008B000C4FD9C432326F4FE0327C4FEE177BD0755
:1008C000F98F2326F4FE832784FD9847832784FD30
:1008D0009C535D8F832784FD9C4B5D8F832784FD14
:1008E000DC4B5D8F832784FD9C4F5D8F832784FDC8
:1008F000DC4F5D8F832784FDDC535D8F832784FD70
:100900009C57D98F0327C4FED98F2326F4FE832753
:10091000C4FD0327C4FE98C3832784FDD8478327DB
:10092000C4FDD8C3832784FD98438327C4FD98C79B
:10093000832784FDD8438327C4FDD8C701003254E0
:1009400045618280011122CE00102326A4FE2324BB
:10095000B4FE832784FE91CB8327C4FE9C4313E718
:1009600017008327C4FE98C311A88327C4FE9843A9
:10097000C167F9177D8F8327C4FE98C301007244B5
:1009800005618280011122CE00102326A4FE2324BB
:10099000B4FE2322C4FE832744FE99CB8327C4FEE2
:1009A0009843832784FE5D8F8327C4FE98C321A8C4
:1009B0008327C4FE9843832784FE93C7F7FF7D8F68
:1009C0008327C4FE98C30100724405618280797157
:1009D00022D60018232EA4FC232604FE232404FE82
:1009E0000327C4FDB7070010F98F89CBB707024072
:1009F000938707409C432324F4FE31A0B7070240AD
:100A00009C432324F4FE032784FE8327C4FDF98F2F
:100A100089C785472326F4FE19A0232604FE8327D1
:100A2000C4FE3E85325445618280011122CE001001
:100A30002326A4FE0327C4FEB7070010F98F89CB35
:100A4000B7070240938707400327C4FED8C331A0ED
:100A5000B70702400327C4FED8C3010072440561F2
:100A60008280797122D60018232EA4FC232604FE4E
:100A7000B7070140938707402326F4FE8327C4FD70
:100A8000DC4763800712B707014093870740944310
:100A90008327C4FD9C4313C7F7FFB7070140938723
:100AA0000740758F98C3B707014093870740D44329
:100AB0008327C4FD9C4313C7F7FFB7070140938703
:100AC0000740758FD8C38327C4FDDC430327C4FECA
:100AD000BA972326F4FE8327C4FE94438327C4FDDC
:100AE00098438327C4FE558F98C3B7070140938767
:100AF000074094478327C4FD9C4313C7F7FFB707FC
:100B0000014093870740758F98C7B70701409387C7
:100B10000740D4478327C4FD9C4313C7F7FFB7079B
:100B2000014093870740758FD8C78327C4FD984736
:100B3000C147631FF702B7070140938707409447F7
:100B40008327C4FD9843B707014093870740558F1B
:100B500098C7B707014093870740D4478327C4FD50
:100B60009843B707014093870740558FD8C7B1A86E
:100B7000B7070140938707402326F4FE8327C4FD6F
:100B80009C470327C4FEBA972326F4FE8327C4FE9E
:100B900094438327C4FD98438327C4FE558F98C38D
:100BA0002DA08327C4FDDC430327C4FEBA97232668
:100BB000F4FE8327C4FE94438327C4FD9C4313C7DC
:100BC000F7FF8327C4FE758F98C301003254456137
:100BD0008280797122D60018232EA4FC232604FEDD
:100BE000232404FEB7070140938707409C43032753
:100BF000C4FDF98F2324F4FEB70701409387074013
:100C0000D84B8327C4FDF98F81CB832784FE89C706
:100C100085472326F4FE19A0232604FE8327C4FE5D
:100C20003E85325445618280011122CE0010232678
:100C3000A4FEB7070140938707400327C4FED8CB23
:100C40000100724405618280397122DE8000232612
:100C5000A4FC2324B4FC232604FE232004FE232426
:100C600004FE232E04FC232204FE232C04FC8327F1
:100C700084FC9C47BD8B2326F4FE832784FC9C4781
:100C8000C18B89CB832784FCDC430327C4FED98F27
:100C90002326F4FE832784FC83D7070093F7F70FFE
:100CA000F1CF8327C4FC9C432322F4FE232404FEBB
:100CB00065A8832784FE0547B317F700232EF4FCAD
:100CC000832784FC83D707003E878327C4FDF98FE1
:100CD0002320F4FE032704FE8327C4FD6311F708D5
:100CE000832784FE8A07232EF4FC8327C4FD3D4717
:100CF000B317F700232CF4FC832784FD93C7F7FF79
:100D0000032744FEF98F2322F4FE8327C4FD032723
:100D1000C4FEB317F700032744FED98F2322F4FE45
:100D2000832784FC984793078002631BF70083277F
:100D300084FE05473317F7008327C4FCD8CB05A0F2
:100D4000832784FC984793078004631AF70083275E
:100D500084FE05473317F7008327C4FC98CB83270D
:100D600084FE85072324F4FE032784FE9D47E3F2D7
:100D7000E7F48327C4FC032744FE98C3832784FC3D
:100D800003D707009307F00F63F1E70E8327C4FC36
:100D9000DC432322F4FE232404FE75A8832784FE6B
:100DA000A1070547B317F700232EF4FC832784FC23
:100DB00083D707003E878327C4FDF98F2320F4FEE5
:100DC000032704FE8327C4FD6312F708832784FEEC
:100DD0008A07232EF4FC8327C4FD3D47B317F70091
:100DE000232CF4FC832784FD93C7F7FF032744FEDD
:100DF000F98F2322F4FE8327C4FD0327C4FEB31713
:100E0000F700032744FED98F2322F4FE832784FCB6
:100E1000984793078002631BF700832784FEA1078E
:100E200005473317F7008327C4FCD8CB832784FCFE
:100E3000984793078004631BF700832784FEA1076C
:100E400005473317F7008327C4FC98CB832784FE1C
:100E500085072324F4FE032784FE9D47E3F0E7F48F
:100E60008327C4FC032744FED8C3010072542161C8
:100E70008280011122CE00102326A4FEAE872322F9
:100E8000C4FE2315F4FE832744FE99C70357A4FE2E
:100E90008327C4FE98CB31A00357A4FE8327C4FE4A
:100EA000D8CB0100724405618280797122D6001886
:100EB000232EA4FC232CB4FC232404FE232204FEB2
:100EC000232604FE232004FE8327C4FD63D80700E5
:100ED000B7070140DC4F2326F4FE31A0B7070140DD
:100EE000DC432326F4FE8327C4FDC183BD8B23206E
:100EF000F4FE0327C4FDC167FD17F98F2324F4FE18
:100F00000327C4FDB70730007D8FB7073000631596
:100F1000F7020327C4FEB70700F1FD17F98F232658
:100F2000F4FEB7070140D443B7070140370700F18B
:100F30007D17758FD8C3ADA00327C4FDB707100078
:100F4000F98F8DCB832704FE0D47B317F7002322BB
:100F5000F4FE832744FE93C7F7FF0327C4FEF98FEF
:100F60002326F4FE0327C4FEB707000FD98F2326DC
:100F7000F4FE3DA08327C4FDD5839207032784FE9A
:100F8000B317F70093C7F7FF0327C4FEF98F232693
:100F9000F4FE0327C4FEB707000FD98F2326F4FE03
:100FA000832784FD91CF8327C4FDD5839207032730
:100FB00084FEB317F7000327C4FED98F2326F4FE5F
:100FC0008327C4FD63D80700B70701400327C4FE89
:100FD000D8CF31A0B70701400327C4FED8C3010012
:100FE000325445618280797122D60018AA872E87F3
:100FF000A30FF4FCBA87230FF4FC232604FE8347D7
:10100000E4FD8D8B8A073D47B317F7002326F4FED6
:10101000370701408347E4FD898393F7F70F8A0779
:10102000BA9798478327C4FE93C7F7FFB7060140D6
:101030000346E4FD09821376F60F7D8F9317260091
:10104000B69798C7370701408347E4FD898393F734
:10105000F70F8A07BA9798478346F4FD8347E4FD64
:101060008D8B8A07B397F600B70601400346E4FD6F
:1010700009821376F60F5D8F93172600B69798C7EF
:101080000100325445618280011122CE00102326D6
:10109000A4FE8327C4FEFD8B0547B316F70037E790
:1010A00000E08327C4FE9583938707048A07BA97D5
:1010B00094C30100724405618280011122CE0010A8
:1010C0002326A4FE8327C4FEFD8B0547B316F70035
:1010D00037E700E08327C4FE9583938707068A07D6
:1010E000BA9794C30100724405618280011122CE37
:1010F00000102326A4FEAE87A305F4FE37E700E028
:101100008327C4FEBA970347B4FE2380E74001005B
:10111000724405618280011106CE22CC0010232684
:10112000A4FEB7E700E0BC47898B8DC38327C4FECC
:1011300083C707003E878327C4FE83C72700920723
:1011400093F7F70FBE853A85553795A0B7E700E0CE
:10115000BC47898BA9EF8327C4FE03C717008547C7
:101160006318F7028327C4FE83C707003E878327DF
:10117000C4FE83C727009207E207E18793E707F8D9
:10118000E207E18793F7F70FBE853A85853705A01B
:101190008327C4FE83C707003E878327C4FE83C717
:1011A0002700920793F7F70FBE853A85813783278B
:1011B000C4FEDC4381CB8327C4FE83C707003E8582
:1011C000E13539A08327C4FE83C707003E85F53586
:1011D0000100F240624405618280797122D60018D4
:1011E000232EA4FC232604FE232404FE232204FE33
:1011F000232004FEB7170240DC43B18B2326F4FE04
:101200000327C4FE91476302F7020327C4FEA147E8
:101210006305F7028327C4FEC5E78327C4FD37179C
:101220007A001307072098C365A08327C4FD3717EA
:101230007A001307072098C361A8B7170240D84364
:10124000B7073C00F98F2324F4FEB7170240D843B8
:10125000C167F98F2322F4FE832784FEC98389079F
:101260002324F4FE832744FE89EF032784FEB71767
:101270003D00938707903307F7028327C4FD98C387
:1012800081A8B7170240D843B7070200F98F89CF6A
:10129000032784FEB7173D00938707903307F702B3
:1012A0008327C4FD98C32DA0032784FEB7177A00B7
:1012B000938707203307F7028327C4FD98C309A843
:1012C0008327C4FD37177A001307072098C301004E
:1012D000B7170240DC4393F7070F2326F4FE83275A
:1012E000C4FE91832326F4FEB7070020138707006E
:1012F0008327C4FEBA9783C7070093F7F70F23200D
:10130000F4FE8327C4FD9843832704FE3357F70078
:101310008327C4FDD8C3B7170240DC4393F7077097
:101320002326F4FE8327C4FEA1832326F4FEB707F9
:101330000020138707008327C4FEBA9783C70700DE
:1013400093F7F70F2320F4FE8327C4FDD8438327A8
:1013500004FE3357F7008327C4FD98C7B717024030
:10136000D843916793870780F98F2326F4FE83275C
:10137000C4FEAD832326F4FEB707002013870700C1
:101380008327C4FEBA9783C7070093F7F70F23207C
:10139000F4FE8327C4FDD843832704FE3357F700A8
:1013A0008327C4FDD8C7B7170240D843B167F98F68
:1013B0002326F4FE8327C4FEB9832326F4FEB70751
:1013C00000201387870B8327C4FEBA9783C70700C3
:1013D00093F7F70F2320F4FE8327C4FDD847832714
:1013E00004FE3357F7028327C4FD98CB0100325423
:1013F00045618280011122CE00102326A4FE232401
:10140000B4FE832784FE99CBB7170240D44BB7179D
:1014100002400327C4FE558FD8CB21A8B71702403E
:10142000D44B8327C4FE13C7F7FFB7170240758F4D
:10143000D8CB0100724405618280011122CE0010D8
:101440002326A4FE2324B4FE832784FE99CBB7175A
:101450000240944FB71702400327C4FE558F98CF20
:1014600021A8B7170240944F8327C4FE13C7F7FF84
:10147000B7170240758F98CF0100724405618280D2
:10148000011122CE00102326A4FE2324B4FE8327BC
:1014900084FE99CBB7170240D44FB71702400327F9
:1014A000C4FE558FD8CF21A8B7170240D44F832749
:1014B000C4FE13C7F7FFB7170240758FD8CF0100DE
:1014C000724405618280797122D60018232EA4FC13
:1014D000232CB4FC231704FE8327C4FD83D7070005
:1014E0002317F4FE0357E4FE8D6793870704F98FF3
:1014F0002317F4FE832784FD03D70700832784FD89
:1015000083D72700D98F139707014183832784FD51
:1015100083D74700D98F139707014183832784FD21
:1015200083D76700D98F139707014183832784FDF1
:1015300083D78700D98F139707014183832784FDC1
:1015400083D7A700D98F139707014183832784FD91
:1015500083D7C700D98F139707014183832784FD61
:1015600083D7E700D98F1397070141838357E4FEA0
:10157000D98F2317F4FE8327C4FD0357E4FE23907D
:10158000E7008327C4FD83D7C70113970701418371
:10159000FD779387F77FF98F13970701418383279F
:1015A000C4FD239EE700832784FD03D7070183271B
:1015B000C4FD2398E7000100325445618280011187
:1015C00022CE00102326A4FE2324B4FE832784FE0B
:1015D0008DC38327C4FE83D70700C207C18393E767
:1015E00007041397070141838327C4FE2390E70074
:1015F00005A08327C4FE83D70700C207C18393F7E2
:10160000F7FB1397070141838327C4FE2390E7006C
:101610000100724405618280797122D60018232E60
:10162000A4FC232CB4FC231704FE8327C4FD83D71A
:1016300007002317F4FE0327C4FDB7370140938743
:1016400007C06308F7020327C4FDB7070040630221
:10165000F7020327C4FDB707004093870740630ADA
:10166000F7000327C4FDB717004093870780631175
:10167000F7028357E4FE93F7F7F82317F4FE832766
:1016800084FD03D727008357E4FED98F2317F4FE88
:101690008357E4FE93F7F7CF2317F4FE832784FDE7
:1016A00003D767008357E4FED98F2317F4FE8327FF
:1016B000C4FD0357E4FE2390E700832784FD03D78E
:1016C00047008327C4FD2396E702832784FD03D7C1
:1016D00007008327C4FD2394E7020327C4FDB7371F
:1016E0000140938707C0631DF700832784FD83C7EC
:1016F00087001397070141838327C4FD2398E702DE
:101700008327C4FD0547239AE70001003254456151
:101710008280011122CE00102326A4FE2324B4FED1
:10172000832784FE8DC38327C4FE83D70700C207A7
:10173000C18393E717001397070141838327C4FEF2
:101740002390E70039A88327C4FE83D70700C20788
:10175000C183F99B1397070141838327C4FE23901C
:10176000E7000100724405618280011122CE001061
:101770002326A4FEAE872322C4FE2315F4FE83276E
:1017800044FE9DC38327C4FE83D7C7001397070178
:1017900041838357A4FED98F139707014183832781
:1017A000C4FE2396E70035A08327C4FE83D7C70075
:1017B0001397070141838357A4FE93C7F7FFC2071E
:1017C000C183F98F1397070141838327C4FE2396B2
:1017D000E7000100724405618280797106D622D447
:1017E0000018232EA4FCAE873687231DF4FCB28795
:1017F000231CF4FCBA87231BF4FC231704FE835636
:1018000064FD035784FD8357A4FD3A86BE850325F6
:10181000C4FD89288327C4FD83D787002317F4FEDE
:101820008357E4FEE19B2317F4FE8357E4FE93E71E
:1018300077002317F4FE8357E4FE93F7F7F8231796
:10184000F4FE8357E4FE93E707072317F4FE83278C
:10185000C4FD0357E4FE2394E7000100B250225474
:1018600045618280797122D60018232EA4FCAE87B0
:101870003687231DF4FCB287231CF4FCBA87231B94
:10188000F4FC231704FE8327C4FD83D787002317A6
:10189000F4FE8357E4FE93F7F70F2317F4FE835704
:1018A00064FDA207139707014183835784FDD98FF5
:1018B0001397070141838357A4FDD98F139707011D
:1018C00041838357E4FED98F2317F4FE8327C4FD99
:1018D0000357E4FE2394E7000100325445618280FF
:1018E000797122D60018232EA4FCAE87231DF4FCA8
:1018F000231704FE8327C4FD83D787002317F4FE34
:101900008357E4FE93F7F7F82317F4FE0357E4FE3A
:101910008357A4FDD98F2317F4FE8327C4FD0357F3
:10192000E4FE2394E70001003254456182800111F6
:1019300022CE00102326A4FEAE872315F4FE8327B3
:10194000C4FE83D78700C207C183E19B13970701B9
:1019500041838327C4FE2394E7008327C4FE83D7F3
:1019600087001397070141838357A4FED98F1397EC
:10197000070141838327C4FE2394E70001007244DA
:1019800005618280011122CE00102326A4FEAE87BD
:101990002315F4FE8327C4FE83D78700C207C183C3
:1019A00093F7F7F71397070141838327C4FE239426
:1019B000E7008327C4FE83D787001397070141837D
:1019C0008357A4FED98F1397070141838327C4FE51
:1019D0002394E7000100724405618280797122D668
:1019E0000018232EA4FCAE87231DF4FC232604FE3E
:1019F000231504FE231404FE8327C4FD83D70701A7
:101A00001397070141838357A4FDF98F2315F4FE33
:101A10008327C4FD83D7C7001397070141838357EA
:101A2000A4FDF98F2314F4FE8357A4FE81CB8357C2
:101A300084FE89C785472326F4FE19A0232604FEC9
:101A40008327C4FE3E85325445618280011122CE37
:101A500000102326A4FEAE872315F4FE8357A4FEB0
:101A600093C7F7FF1397070141838327C4FE239889
:101A7000E70001007244056182805D7186C6A2C4E0
:101A80008008232EA4FA232CB4FA232604FE232450
:101A900004FE232204FE232004FE232E04FC8327BD
:101AA000C4FB232EF4FC8327C4FB83D70701C207A2
:101AB000C1832326F4FE0327C4FEB567FD17F98F03
:101AC0002326F4FE832784FB83D767003E87832782
:101AD000C4FED98F2326F4FE8327C4FE1397070183
:101AE00041838327C4FB2398E7008327C4FB83D764
:101AF000C700C207C1832326F4FE0327C4FEBD67C7
:101B00009387379FF98F2326F4FE832784FB03D71F
:101B10004700832784FB83D78700D98F139707015A
:101B20004183832784FB83D7A700D98FC207C18352
:101B30003E878327C4FED98F2326F4FE8327C4FE65
:101B40001397070141838327C4FB2396E70083276C
:101B5000C4FB83D74701C207C1832326F4FE0327B2
:101B6000C4FEC1679387F7CFF98F2326F4FE83273E
:101B700084FB83D7C7003E878327C4FED98F2326E3
:101B8000F4FE8327C4FE1397070141838327C4FB18
:101B9000239AE700930784FC3E85EFF00FE40327C8
:101BA000C4FDB7470140938707806317F700832779
:101BB00044FD2324F4FE29A0832704FD2324F4FEFE
:101BC0008327C4FB83D7C700C207C183C207C1876D
:101BD00063D20702032784FEBA878607BA978E0767
:101BE0003E97832784FB9C438607B357F702232243
:101BF000F4FE05A0032784FEBA878607BA978E07EE
:101C00003E97832784FB9C438A07B357F70223221E
:101C1000F4FE032744FE93074006B357F7029207EA
:101C20002326F4FE8327C4FE13D7470093074006FC
:101C3000B307F702032744FEB307F7402320F4FE5F
:101C40008327C4FB83D7C700C207C183C207C187EC
:101C500063D20702832704FE8E07138727039307A7
:101C60004006B357F7029D8B0327C4FED98F232666
:101C7000F4FE05A0832704FE92071387270393072A
:101C80004006B357F702BD8B0327C4FED98F232626
:101C9000F4FE8327C4FE1397070141838327C4FB07
:101CA0002394E7000100B64026446161828001115F
:101CB00022CE00102326A4FE2324B4FE832784FE14
:101CC00095C38327C4FE83D7C700139707014183B9
:101CD0008967D98F1397070141838327C4FE239611
:101CE000E70015A08327C4FE83D7C7001397070119
:101CF0004183F977FD17F98F1397070141838327F4
:101D0000C4FE2396E7000100724405618280797168
:101D100022D60018232EA4FCAE87232AC4FC231D40
:101D2000F4FC232404FE232204FE232004FE2326A5
:101D300004FE8327C4FD2326F4FE8357A4FD93F7F6
:101D4000F70F958393F7F70F2324F4FE8357A4FD31
:101D5000FD8B2322F4FE832744FE0547B317F700CB
:101D60002320F4FE032784FE85476318F7008327AA
:101D7000C4FEB1072326F4FE0DA0032784FE894785
:101D80006318F7008327C4FEC1072326F4FE31A0A1
:101D90008327C4FED1072326F4FE832744FD99CB75
:101DA0008327C4FE94438327C4FE032704FE558F74
:101DB00098C321A88327C4FE9443832704FE13C736
:101DC000F7FF8327C4FE758F98C301003254456125
:101DD0008280011122CE00102326A4FEAE87231597
:101DE000F4FE8357A4FE93F7F71F1397070141836F
:101DF0008327C4FE2392E7000100724405618280BC
:101E0000797122D60018232EA4FCAE87231DF4FC82
:101E1000232604FE8327C4FD83D7070013970701F9
:101E200041838357A4FDF98FC207C18389C78547C2
:101E30002326F4FE19A0232604FE8327C4FE3E8534
:101E4000325445618280797122D60018232EA4FC79
:101E5000AE87231DF4FC232204FE232604FE232048
:101E600004FE232404FE8357A4FD93F7F70F958304
:101E700093F7F70F2320F4FE8357A4FDFD8B232651
:101E8000F4FE8327C4FE0547B317F7002326F4FEAC
:101E9000032704FE8547631FF7008327C4FD83D70C
:101EA000C700C207C1833E878327C4FEF98F23265C
:101EB000F4FE3DA8032704FE8947631FF70083272C
:101EC000C4FD83D70701C207C1833E878327C4FEB1
:101ED000F98F2326F4FE29A88327C4FD83D7470161
:101EE000C207C1833E878327C4FEF98F2326F4FEF1
:101EF0008357A4FDA183C207C1832322F4FE832755
:101F000044FE0547B317F7002322F4FE8327C4FDE0
:101F100083D70700C207C1833E87832744FEF98F1A
:101F20002322F4FE8327C4FE81CB832744FE89C786
:101F300085472324F4FE19A0232404FE832784FE6E
:101F40003E85325445618280797122D60018232E55
:101F5000A4FCAE87231DF4FC231704FE231604FE05
:101F60008357A4FDA1832317F4FE8357E4FE05479E
:101F7000B317F7002316F4FE8357C4FE93C7F7FF89
:101F80001397070141838327C4FD2390E7000100D5
:101F9000325445618280011106CE22CC0010AA87FE
:101FA000A307F4FE9567938787529C473E87A167F6
:101FB0005CCB9567938787529C473E8791675CCB44
:101FC0009307F4FE85460146BE850145EF10805219
:101FD0009567938787529C473E87A1671CCB01007A
:101FE000F240624405618280011106CE22CC0010CD
:101FF000AA87A307F4FE9567938787529C473E877D
:10200000A1675CCB9567938787529C473E87916712
:102010001CCB1307F4FE9307F4FE85463A86BE8573
:102020000145EF10204D9567938787529C473E8767
:10203000A1671CCB0100F240624405618280797186
:1020400006D622D40018AA87231FF4FC956793872D
:1020500087529C473E87A1675CCB8357E4FDA183F1
:10206000C207C18393F7F70F2306F4FE8357E4FDFD
:1020700093F7F70FA306F4FE9567938787529C4763
:102080003E8791671CCB1307C4FE9307C4FE8946A5
:102090003A86BE850145EF10E045956793878752E4
:1020A0009C473E87A1671CCB0100B250225445617A
:1020B0008280011106CE22CC00102326A4FE232408
:1020C000B4FE2322C4FE2320D4FE0327C4FE9307BC
:1020D000F00963FFE7009567938647E795671386E6
:1020E00087F2930570059567138587E8EF10902BAD
:1020F000032784FE9307F00763FFE7009567938645
:10210000C7EB9567138687F293058005956713855E
:1021100087E8EF103029032744FE9307F00963FF97
:10212000E7009567938607ED9567138687F2930519
:10213000A0059567138587E8EF10D026032704FED6
:102140009307F00763FFE7009567938607EE9567AF
:10215000138687F29305B0059567138587E8EF101E
:1021600070241305A002053D0145BD3D8327C4FE33
:1021700093F7F70F850793F7F70F3E85B5350145C0
:10218000A535832744FE93F7F70F850793F7F70FDD
:102190003E85993D1305B002FD3B0145B1358327CE
:1021A00084FE93F7F70F890793F7F70F3E852D3DD0
:1021B00001451D3D832704FE93F7F70F890793F729
:1021C000F70F3E8515351305C002F1330100F240CB
:1021D000624405618280797106D622D40018AA87EC
:1021E000231FF4FC9306F0071306F009814501450F
:1021F000C935A30704FE05A8230704FE11A88357C9
:10220000E4FD3E852D3D8347E4FE85072307F4FE6C
:102210000347E4FE9307F009E3F3E7FE8347F4FE88
:102220008507A307F4FE8307F4FEE3D707FC01004C
:10223000B250225445618280011106CE22CC4ACA96
:102240004EC852C656C45AC25EC0001001488147EB
:102250001307F00493063002054681450145EF104F
:10226000201693060031054685451305F004EF005E
:10227000F04293060031014685451305D004EF0076
:10228000F04193060031014685451305E004EF0057
:10229000F0409567938787529C473E8789675CCB60
:1022A00003A781828967938707F43357F702BA87B8
:1022B0008A07BA9786073E8B814B5A85DE85EF10D9
:1022C000802F9567938787529C473E8789671CCBF1
:1022D00003A781828967938707F43357F702BA8788
:1022E0009207998F8E073E8A814A5285D685EF10D4
:1022F000802C45454D3103A781828967938707F478
:102300003357F702BA879207998F8E073E89814922
:102310004A85CE85EF10202A1305100BAD390545EF
:10232000E1311305C002C9311305D0027539130517
:10233000200B953105454D391305C0027531130544
:10234000D0025D311305300BB931054571391305E4
:10235000C00259391305D0024139054571311305C1
:10236000C00259311305D00241311305400B25310C
:102370001D459D391305000C39391305200AAD316F
:1023800009459D311305400885311305100C213195
:102390001305500C91391305200CF53E2945A93140
:1023A000014599311305300CFD361305A0082D3970
:1023B0001305A00215391305400CF13E1305A008C2
:1023C00025311305E00E0D311305500CE936394562
:1023D000213913056003C1361305000631310100B0
:1023E0001305000E4D3E3D4501316945F53E3D4525
:1023F000E53E6145D53E1305F002FD36130580022A
:10240000E53613050002CD3613052002F13E7D4569
:10241000E13E6D45D13E13053002F93613057003D8
:10242000E1360145D1361D45C1360945753E414568
:10243000653E1305100E85363D457D366D456D367E
:102440003D455D365D454D3613053003713E130540
:10245000C002593E13059002413E1305E002693661
:1024600013050003513613050003BD3E1305900309
:10247000A53E1305F0038D3E0145BD361D45AD3625
:102480000D459D3641458D361305A002293601457F
:10249000A13E0945913E0145813E13052008A9361C
:1024A0001305B002CD3C014581360D45353E014551
:1024B000253E130530080D3E1305000FE93C054588
:1024C00025361305600FC13C0145393E1305A003B5
:1024D000D9341545113E13059002753CC16713852B
:1024E000F7FFD5390100F24062445249C249324AED
:1024F000A24A124B824B05618280797106D622D4A2
:102500000018AA87AE863287231FF4FCB687231EE5
:10251000F4FCBA87A30DF4FCA30704FE59A80355E5
:10252000E4FD0357C4FD8347F4FEBA97BE85835785
:10253000E4FD9D073E860357C4FD8347F4FEBA972A
:10254000BE86EFF01FB78307B4FD938607FE83476F
:10255000F4FE15679206130787F33697BA9783C779
:102560000700A306F4FE230704FE15A88347D4FE44
:10257000858B99C7C16713850780EFF05FAC31A0E9
:10258000C1671385F7FFEFF09FAB8347D4FE8583C8
:10259000A306F4FE8347E4FE85072307F4FE034702
:1025A000E4FE9D47E3F4E7FC8347F4FE8507A307B9
:1025B000F4FE0347F4FEBD47E3F3E7F60100B25033
:1025C000225445618280797106D622D40018AA87E8
:1025D0002E87232CC4FC231FF4FCBA87231EF4FC93
:1025E000231704FE91A08357E4FE8E07139707017B
:1025F00041838357E4FDBA9793960701C1828357BD
:10260000C4FD920793950701C1818357E4FE032718
:1026100084FDBA97838707003E863685F93D835748
:10262000E4FE85072317F4FE8357E4FE032784FDA9
:10263000BA9783870700C5FB0100B2502254456159
:102640008280797106D622D40018232EA4FCAE878E
:10265000231DF4FCB287231CF4FCB687231BF4FC77
:10266000BA87231AF4FC231304FE231204FE8357B3
:1026700064FDFD173E87835744FDFD17BE863A86ED
:1026800081450145EFF0FFA2232404FED9A02326B3
:1026900004FE6DA0035784FD832784FE3307F702F1
:1026A000835744FD3357F7028357A4FD3307F702DE
:1026B0008356A4FD8327C4FEB386F602835764FDC8
:1026C000B3D7F602BA970327C4FDBA9783C70700AA
:1026D0002312F4FE835744FE8D83C207C183AE07E5
:1026E0002313F4FE835744FE8983C207C1839607F0
:1026F000C207C18793F7077E1397070141878317A6
:1027000064FED98FC207C1872313F4FE835744FEAA
:102710008D83C207C183FD8B1397070141838357C4
:1027200064FED98F2313F4FE835764FE3E85EFF0D9
:102730001F918327C4FE85072326F4FE835764FD7B
:102740000327C4FEE368F7F4832784FE8507232468
:10275000F4FE835744FD032784FEE36AF7F2010089
:10276000B250225445618280411122C6000895670B
:1027700093878755DC4383D747001397070141832D
:1027800083C7B181BE861377F70F93878181B69790
:102790002380E70083C7B181850713F7F70FA38D67
:1027A000E18003C7B1818547631AF70003C78181C0
:1027B0009307500A6304F700A38D018003C7B1811A
:1027C0008D476317F700A38D01800547238EE180B5
:1027D0000100324441018280797106D622D44AD266
:1027E0004ED00018232EA4FC232CB4FC238E018091
:1027F000231704FE69A0930750FA2304F4FE8357BD
:10280000E4FE8A07032784FDBA978397070093F7AE
:10281000F70FA304F4FE8357E4FE8A07032784FD21
:10282000BA97839727002316F4FE8357C4FEA1832B
:10283000C207C18393F7F70F2305F4FE8357C4FE45
:1028400093F7F70FA305F4FE930784FE1146BE85A8
:102850000325C4FDEF10C00303A781828967938716
:1028600007F4B357F70286073E8981494A85CE852A
:10287000EF0070548357E4FE85072317F4FE0357D7
:10288000E4FEA147E3F9E7F6010083C7C18193F7AE
:10289000F70FE5DF238E018001009387818103C755
:1028A00017009307F00FE31AF7FE9387818103C7A0
:1028B00027009307F00FE312F7FE0100B2502254F5
:1028C0001259825945618280797106D622D4001846
:1028D000232EA4FC232CB4FC231704FE45A093074D
:1028E00050FA2304F4FEC557A304F4FE8357E4FE14
:1028F0008A07032784FDBA97839707002316F4FEFF
:102900008357C4FEA183C207C18393F7F70F230542
:10291000F4FE8357C4FE93F7F70FA305F4FE930765
:1029200084FE1146BE850325C4FDEF0070760100CC
:1029300083C7C18193F7F70FE5DF238E018093876B
:10294000818183C71700A20793960701C1869387E9
:10295000818183C727001397070141878357E4FECE
:102960008A07032684FDB297558F4207418723913A
:10297000E7008357E4FE85072317F4FE0357E4FEC0
:102980009D47E3FEE7F40100B25022544561828086
:10299000411106C622C4000813068004B14505454E
:1029A00045258546014685455D45EF00607101007E
:1029B000B240224441018280411106C622C400086F
:1029C000B145014579260100B2402244410182808F
:1029D000011106CE22CC0010930700042307F4FE59
:1029E0009D47A307F4FE05A00347F4FE8347E4FEDA
:1029F000BA979146014681453E854D218347F4FEB5
:102A0000FD17A307F4FE8347F4FEF9FF83A7C182F5
:102A10003E8789679386874B3A86B717014093852F
:102A20008700B707024013854704F922854601460F
:102A30008145794571250100F2406244056182803B
:102A4000411106C622C40008B7070020054723AE7F
:102A5000E70A370700201307470F23A6E182C54680
:102A600041468967938507580545EF00D04C854559
:102A70000545EF0050660145EF00E078238E0180A8
:102A8000B70700209385470305453D3D238E018010
:102A9000B70700209385070105453D3B238E018044
:102AA000B7070020938547030545393DEF002071A6
:102AB00005371937F13D0100B240224441018280BF
:102AC000411122C60008B7070240938747040967EF
:102AD0001307874BD8C3B70702409387470498432F
:102AE000B7070240938747041367170098C3010094
:102AF000324441018280411122C600080547A38E5D
:102B0000E180B7070240938747049443B707024028
:102B10009387470441677917758F98C30100324442
:102B200041018280411122C600089567938787552D
:102B3000DC4383D7470013970701418383C7318262
:102B4000BE861377F70F93870182B6972380E7003D
:102B500083C73182850713F7F70FA381E18203C78B
:102B600031828547631AF70003C701829307500A31
:102B70006304F700A381018203C731828D47631785
:102B8000F700A381018205472382E18201003244DC
:102B900041018280411122C60008B7070240938795
:102BA0004704056713070796D8C3B7070240938702
:102BB00047049843B70702409387470413671700F9
:102BC00098C30100324441018280411122C60008AD
:102BD0000547A382E182B7070240938747049443E5
:102BE000B70702409387470441677917758F98C3E9
:102BF00001003244410182805D7186C6A2C4800812
:102C0000232EA4FA232CB4FA232AC4FA2328D4FAB4
:102C10000327C4FBB7070240A1076301F706032798
:102C2000C4FBB7070240F107630AF7040327C4FB9C
:102C3000B7070240938707036302F7040327C4FB27
:102C4000B707024093874704630AF7020327C4FBD0
:102C5000B7070240938787056302F7020327C4FB87
:102C6000B70702409387C706630AF7000327C4FB30
:102C7000B7070240938707086317F70085450545A6
:102C8000EFE04FF7A9A80327C4FBB70702409387DB
:102C900087406302F7040327C4FBB707024093870A
:102CA000C741630AF7020327C4FBB70702409387B3
:102CB00007436302F7020327C4FBB7070240938769
:102CC0004744630AF7000327C4FBB7070240938712
:102CD00087456316F70085450945EFE0AFF1032509
:102CE000C4FBEFD0DF9A832784FB2322F4FC8327E5
:102CF00044FB2324F4FC232604FC832704FB232821
:102D0000F4FC232A04FC93070008232CF4FC232E54
:102D100004FC232004FE232204FE8D672324F4FEFA
:102D2000232604FE930744FCBE850325C4FBEFD095
:102D3000FFB6054689450325C4FBEFD0BFC48545D2
:102D40000325C4FBEFD01FC00100B64026446161DB
:102D50008280797106D622D40018232EA4FC232C5D
:102D6000B4FC85450545EFE04FED8327C4FD81EBBD
:102D70008545856713850780EFE02FEC35A803278D
:102D8000C4FD85476317F70085450545EFE04FEF24
:102D900025A00327C4FD89476317F700854509452A
:102DA000EFE00FEE11A80327C4FD8D476316F7006F
:102DB00085451145EFE0CFEC91460146814503255D
:102DC00084FDE928FD572314F4FE231204FE231585
:102DD00004FE231304FE230604FE95670327C4FDA7
:102DE0000A0793878753BA979C433E87930744FE0D
:102DF000BE853A85EFE05F8295670327C4FD0A0729
:102E000093878753BA979C438146216681453E85C7
:102E1000EFE0BF9C95670327C4FD0A07938787539C
:102E2000BA979C43930500073E85EFE07FAB95671B
:102E30000327C4FD0A0793878753BA979C4391459C
:102E40003E85EFE0DFAE95670327C4FD0A07938751
:102E50008753BA979C43930500083E85EFE09FB2E5
:102E600095670327C4FD0A0793878753BA979C4346
:102E700085453E85EFE0FF8995670327C4FD0A0776
:102E800093878753BA979C43054691653E85EFE04B
:102E9000DF8D0100B250225445618280797106D6DF
:102EA00022D40018232EA4FC232CB4FCB2872328A0
:102EB000D4FCA30BF4FC8327C4FD958393F7F70F91
:102EC0009D8BA307F4FE8327C4FD93F7F70FFD8BBB
:102ED0002307F4FE0327C4FD93070008630DF714CE
:102EE0008327C4FD958391E785451145EFE0EFD435
:102EF00061A88327C4FD13D7570085476317F700E0
:102F000085452145EFE06FD341A08327C4FD13D74A
:102F1000570089476317F70085454145EFE0EFD13A
:102F2000A5A08327C4FD13D757008D476318F7006A
:102F3000854513050002EFE04FD0B9A08327C4FDFB
:102F400013D7570091476318F70085451305000410
:102F5000EFE0AFCE15A88327C4FD13D757009547E0
:102F60006318F700854513050008EFE00FCD29A889
:102F70008327C4FD13D7570099476317F70085458A
:102F800013050010EFE06FCB8347E4FE0547B3174E
:102F9000F700C207C1832310F4FE032784FD854791
:102FA0006317F702832704FDC207C183A183C20709
:102FB000C18389E78D472322F4FE11A8832704FDEE
:102FC000C207C183A183C207C1832322F4FE8327E2
:102FD00004FDC207C18393F7F70F2324F4FE0347D0
:102FE000F4FE95670A0793878752BA979C433E87FA
:102FF000930704FEBE853A85EFD01FC5032784FDE5
:103000008547631BF7020347F4FE95670A0793871A
:103010008752BA979C43BE868347E4FE0547B317A1
:10302000F700C207C183034774FD3A86BE85368523
:10303000EFD03FE411A00100B250225445618280DC
:10304000797106D622D40018232EA4FC232CB4FCBC
:10305000232AC4FC85450545EFE02FBE832644FDA9
:10306000014681450325C4FD153D8327C4FD958395
:1030700013F7F70F8327C4FD93F7F70FFD8B93F733
:10308000F70FBE853A85EFD01FF68327C4FDFD8B71
:103090000547B317F7002320F4FE232204FE8327FD
:1030A00084FD2324F4FE85472326F4FE930704FEC3
:1030B0003E85EFD01F9B0100B250225445618280B3
:1030C000797106D622D40018232EA4FCAE87368749
:1030D000A30DF4FCB287230DF4FCBA87A30CF4FC17
:1030E0008327C4FD93F7F70F2304F4FE8347B4FD51
:1030F000A304F4FE8347A4FD2305F4FE834794FD57
:103100002326F4FE930784FE3E85EFE0CF80B7E7E9
:1031100000E09843FD777D8FB727002083A7C75A2B
:103120005D8FB727002023A6E75AB7E700E0D84312
:10313000B7070010FD177D8FB72700209387C75A68
:10314000DC435D8FB72700209387C75AD8C3B727C2
:1031500000209387C75A03C7870085476313F7008A
:1031600031200100B250225445618280411122C6B3
:103170000008B7E700E07D5723A0E718B7E700E0B5
:103180007D5723A2E718010032444101828041119A
:1031900022C60008B7E700E0372700200327C75AF8
:1031A00023A0E710B7E700E0372700201307C75A2E
:1031B000584323A2E71001003244410182800111EB
:1031C00006CE22CC0010B72700209387C75A0547A8
:1031D0002384E700B727002083A7C75A91EBB727BE
:1031E00000209387C75ADC4381E7A30704FE21A090
:1031F0008547A307F4FE9D3F8347F4FE3E85F240DA
:10320000624405618280011106CE22CC0010AA879B
:10321000A307F4FE8347F4FE81EBB72700209387D2
:10322000C75A23840700A5370100F24062440561B4
:103230008280011106CE22CC00102326A4FE232476
:10324000B4FE2322C4FE2320D4FE8327C4FE89EBD0
:1032500093068031054685451545EFF03FC499A892
:103260000327C4FEC147631BF70093068031054660
:10327000854513053002EFF07FC22DA80327C4FE59
:1032800093070002631BF7009306803105468545CE
:103290001305D002EFF09FC031A89567938687EFA2
:1032A0009567138687549305D00295671385C7EFFA
:1032B000EF00500F032784FE8547631AF70093063B
:1032C0008031054685451D45EFF05FBD99A8032770
:1032D00084FEC547631BF70093068031054685458C
:1032E00013055002EFF09FBB2DA8032784FE930720
:1032F0001002631BF70093068031054685451305D0
:10330000F002EFF0BFB931A89567938687EF956714
:10331000138687549305200395671385C7EFEF0045
:103320007008032744FE8947631AF700930680312B
:10333000054685451945EFF07FB6B5A0032744FE45
:10334000C947631BF7009306803105468545130581
:103350004002EFF0BFB481A8032744FE9307200288
:10336000631BF70093068031054685451305E0028F
:10337000EFF0DFB20DA8032744FE93073002631776
:10338000F700930730022322F4FE31A89567938655
:1033900087EF956713868754930580039567138598
:1033A000C7EFEF0030009306003105468545032541
:1033B00004FEEFF0BFAE0100F2406244056182807E
:1033C0005D7186C6A2C480082326A4FC2324B4FC15
:1033D0002322C4FC2320D4FC232EE4FA232A04FB5A
:1033E000A30DF4FA8327C4FC81EB8545856713851B
:1033F0001700EFE08F8421A80327C4FC85476318DA
:10340000F7008545916713851700EFE06F878326E6
:10341000C4FB032604FC832544FC032584FC113DE6
:10342000231E04FC93074010231FF4FC231004FE0A
:103430008347B4FB05476383E70205476344F7000E
:1034400089CB81A009476381E7020D476384E702C6
:103450000DA8231104FE231204FE25A0231104FE4F
:1034600085472312F4FE31A889472311F4FE231265
:1034700004FE01A889472311F4FE85472312F4FEB8
:103480000100930700202313F4FE832744FBC207A7
:10349000C1838E07C207C1832314F4FE231504FEE3
:1034A0009D472316F4FE0327C4FC0A079387C180B7
:1034B000BA979C433E879307C4FDBE853A85EFE0EB
:1034C0008F80032784FCC1476316F70085450545B7
:1034D000EFD0BF9D0327C4FC0A079387C180BA972A
:1034E0009C4385453E85EFE08F8D0100B640264424
:1034F00061618280011122CE00102326A4FE2324C4
:10350000B4FE2322C4FE2320D4FE59A801000327C1
:10351000C4FE0A079387C180BA979C4383D787006C
:10352000C207C183898BE5D7832784FE13871700E1
:103530002324E4FE83C607000327C4FE0A079387FB
:10354000C180BA979C433E8793970601C183231697
:10355000F700832744FEA9C701000327C4FE0A071A
:103560009387C180BA979C4383D78700C207C183E2
:10357000858BE5D70327C4FE0A079387C180BA97D6
:103580009C4383D7C70093960701C182832744FEDB
:10359000138717002322E4FE13F7F60F2380E700BA
:1035A000832704FE1387F7FF2320E4FEA5F3010021
:1035B000724405618280011122CE00102324A4FEF2
:1035C0002326B4FE37F700E02320070037F700E09A
:1035D0002302070037F700E0A302070037F700E0F7
:1035E0002303070037F700E0A303070037F700E0E5
:1035F0002304070037F700E0A304070037F700E0D3
:103600002305070037F700E0A305070037F700E0C0
:10361000854614C3010037F700E011071843BA8745
:1036200001480327C4FEC286636DD7000327C4FE8A
:10363000C286E312D7FE032784FEBE866363D700EB
:10364000D9BF0100724405618280011106CE22CCEF
:1036500000102326A4FE2324B4FE8327C4FE85E79E
:10366000032784FE85476310F702930680310146E5
:1036700085452545EFF09F829146014681452945C4
:10368000EFF0DF8165A00327C4FE89476312F702CC
:10369000930680310146854513056002EFF01F80D7
:1036A00091460146814513057002EFF02FFFBDA83A
:1036B0000327C4FEC1476310F70293068031014619
:1036C00085450945EFF08FFD9146014681450D4541
:1036D000EFF0CFFCA1A80327C4FE930700026312FA
:1036E000F70293068031014685451305A002EFF0ED
:1036F000EFFA9146014681451305B002EFF00FFA4B
:1037000035A00327C4FE930720026311F702930636
:103710008031014685451305A004EFF02FF891464E
:10372000014681451305B004EFF04FF70100F24068
:10373000624405618280797106D622D40018232E56
:10374000A4FC232CB4FC232AC4FC2328D4FC8545E8
:103750000545EFD09FCE832504FD032544FDF535B7
:10376000032744FD8947631BF700032704FD8D47AA
:103770006316F70085451145EFD02FF3032744FD6D
:1037800093072002631FF700032704FD930730020D
:103790006319F7008545B707140013850701EFD0BB
:1037A000CFF08327C4FD91E785451165EFD0FFC8B1
:1037B00035A00327C4FD85476318F7008545370505
:1037C0000200EFD0FFCB19A80327C4FD8947631778
:1037D000F700854537050400EFD09FCA832784FD95
:1037E0002320F4FE231204FE231304FE231404FEFC
:1037F000231604FEB1472315F4FE95670327C4FD85
:103800000A0793878755BA979C433E87930704FE20
:10381000BE853A85EFE06FA695670327C4FD0A07CA
:1038200093878755BA979C4385453E85EFE02FC81F
:103830000100B250225445618280011122CE001055
:103840002326A4FEAE87A305F4FE01009567032797
:10385000C4FE0A0793878755BA979C4383D707000E
:10386000C207C18393F70708F5D395670327C4FE02
:103870000A0793878755BA979C433E878347B4FED0
:10388000C207C1832312F7000100724405618280E0
:10389000011106CE22CC00102326A4FE2324B4FE60
:1038A0002322C4FE29A8832784FE1387170023241C
:1038B000E4FE83C70700BE850325C4FEBD3F832702
:1038C00044FE1387F7FF2322E4FEF1FF0100F240DC
:1038D000624405618280011106CE22CC00102326AD
:1038E000A4FEAE87A305F4FE95670327C4FE0A076E
:1038F00093878755BA979C430546930550523E855A
:10390000EFE0EFC08327C4FE938757030347B4FE5D
:10391000BA86014681453E85EFF08FFA0100F240FC
:10392000624405618280411106C622C40008B717AF
:103930000240DC43C98313F7F700B7177A00938777
:1039400007203307F702B727F400938707403E9715
:1039500023A4E18285460146F1679385072001454E
:10396000EFF07FDD0100B240224441018280797195
:1039700006D622D40018232EA4FC232CB4FC232A20
:10398000C4FC232604FE99A00100956783A78755F0
:10399000930500043E85EFE0AFC6AA87FDD7956783
:1039A00083A78755BE86832784FD13871700232CA2
:1039B000E4FC83870700C207C183BE853685EFE03C
:1039C0004FC18327C4FE85072326F4FE0327C4FEC8
:1039D000832744FDE34AF7FA832744FD3E85B2502E
:1039E000225445618280011122CE0010232604FE5C
:1039F000232404FEB71702409443B71702404167DF
:103A0000558F98C3B71702409843B7070200F98F44
:103A10002324F4FE8327C4FE85072326F4FE832790
:103A200084FE99E70327C4FE93070050E31CF7FCCC
:103A3000B71702409843B7070200F98F89C7854737
:103A40002324F4FE19A0232404FE032784FE8547C3
:103A50006317F70CB72702409843B7270240136754
:103A6000070198C3B72702409843B7270240719BCC
:103A700098C3B72702409843B7270240136727002F
:103A800098C337170240B71702405843D8C33717B7
:103A90000240B71702405843D8C337170240B71740
:103AA00002405843D8C3B7170240D443B717024067
:103AB0003707C1FF7D17758FD8C3B7170240D443AE
:103AC000B717024037072500558FD8C3B7170240F4
:103AD0009443B717024037070001558F98C3010080
:103AE000B71702409843B7070002F98FF5DBB71705
:103AF0000240D843B7170240719BD8C3B7170240A2
:103B0000D843B717024013672700D8C30100B7177F
:103B10000240DC4313F7C700A147E31AF7FE010098
:103B2000724405618280411106C622C40008B7179D
:103B300002409843B71702401367170098C3B7179E
:103B40000240D443B71702403707FFF8758FD8C338
:103B5000B71702409443B71702403707F7FE7D17A7
:103B6000758F98C3B71702409443B71702403707C1
:103B7000FCFF7D17758F98C3B7170240D443B71762
:103B80000240370781FF7D17758FD8C3B7170240F2
:103B900037079F0098C7EFF01FE50100B2402244AD
:103BA00041018280938781809C434111328806C6FF
:103BB000AA882E87C8473686972700009387079BD9
:103BC00063170800972700009387079B3E88C686E7
:103BD000972500009385859A1920EF00F00A397126
:103BE00032D436D63EDA3AD842DC46DE938781803C
:103BF0002E86AA858843341006CE36C68D28F2401C
:103C0000216182801C46FD171CC663D90700184E2F
:103C100063C5E700A9476393F5004DA51C422E85B7
:103C20001387170018C22380B7008280011122CCAD
:103C300026CA4AC84EC652C406CE2A89AE893284E4
:103C4000B304D6007D5A63149400014509A8834546
:103C500004004E864A857D370504E31645FFF24091
:103C60006244D2444249B249224A05618280357198
:103C700022CD26CB4AC94EC706CF52C556C35AC11C
:103C8000DEDEE2DCE6DAAA89AE843289368409C552
:103C90001C4D99E3EF00F025972700009387C79606
:103CA000639CF40C83A4490083D7C400A18BFDC797
:103CB0009C48EDC793070002A304F1029307000399
:103CC00002D22305F10222C6930B5002972A00006C
:103CD000938ACA8D054C294B4A848347040099C3B3
:103CE0006390770FB30C2441638D0C00E6864A86FF
:103CF000A6854E85253FFD576308F51E9256E6962C
:103D000036D2834704006381071EFD571309140050
:103D100002C802CE3ECA02CCA309010482D4834564
:103D2000090015465685EF00704313041900C24779
:103D300051E913F7070109C713070002A309E104BA
:103D400013F7870009C71307B002A309E1048346EC
:103D500009001307A002638FE606F2474A848146F2
:103D600025460347040093051400130707FD6378F5
:103D7000E60AADCA3ECEBDA0972700009387C78A4A
:103D80006395F40083A4890005B797270000938703
:103D9000A785E39BF4F083A4C90039B7A6854E85B7
:103DA000F12B09D97D55FA406A44DA444A49BA49A7
:103DB0002A4A9A4A0A4BF65B665CD65C0D618280A1
:103DC000050421BF330555413315AC00C98F3EC8EA
:103DD0002289B1B7324793064700184336C6634974
:103DE00007023ACE034704009307E002631FF7047B
:103DF000034714009307A002631BF702B2470904AC
:103E0000138747009C433AC663C107023ECA35A8E0
:103E10003307E04093E727003ACE3EC8E1B7B387C7
:103E2000670385462E84BA972DBFFD57C5B7050495
:103E300002CA8146814725460347040093051400C2
:103E4000130707FD6378E606F1F2834504000D468B
:103E50001715000013050576EF00503011CD9717A8
:103E60000000938727751D8D93070004B397A70063
:103E7000424505045D8D2AC883450400194617157F
:103E8000000013056573130914002304B102EF0049
:103E9000F02C3DC197C7FFFF9387C71695E74247B0
:103EA000B2471377071009CF91073EC69257D297B2
:103EB0003ED21DB5B387670385462E84BA97ADBF42
:103EC0009D07E19BA107D5B7780097060000938670
:103ED00026D626860C084E8597000000E7000000D5
:103EE000FD572A8AE314F5FC83D7C40093F707042F
:103EF000E39A07EA125545BD7800970600009386BD
:103F000026D326860C084E85012AD9BF797156CA58
:103F10009C49BA8A984522D426D24ECE52CC06D697
:103F20004AD05AC85EC6AA892E84B284368A63D320
:103F3000E700BA879CC00347340419C385079CC0B7
:103F40001C4093F7070281C79C4089079CC0032946
:103F5000040013796900631A0900130B9401FD5BD7
:103F60005C449840998F634CF9041C4083463404A8
:103F700093F70702B336D000A5EB13063404D285BD
:103F80004E85829AFD576303F5041C401146984004
:103F9000998B544481446397C700B384E64063D34C
:103FA000040081441C4418486354F700998FBE9460
:103FB000014969047D5B63982405014509A885468C
:103FC0005A86D2854E85829A631E75017D55B25000
:103FD000225492540259F249624AD24A424BB24B9D
:103FE000456182800509ADBF3307D4001306000385
:103FF000A301C7040347540493871600A2978906B8
:10400000A381E7049DBF85462286D2854E85829A8C
:10401000E30E65FB050945B7797122D426D24AD053
:104020004ECE06D652CC56CA5AC8B68983C685012A
:104030009307E0063289AA842E84138635046381AF
:10404000F61E63E2D706930730066382F60A63ED35
:10405000D700638B061E930780056387F616930AC5
:1040600024042301D40469A8930740066386F6005C
:1040700093079006E395F6FE1C40084393F6070865
:1040800093054500C1C21C410CC363D80700130748
:10409000D002B307F040A301E40497160000938612
:1040A0002652294765A0930730076383F61A63EF0A
:1040B000D7009307F006638FF60493070007E39099
:1040C000F6FA9C4193E707029CC109A893075007A1
:1040D0006382F60493078007E393F6F8930780075B
:1040E000A302F404971600009386C64EE5A01C4375
:1040F000938A2504938647009C4314C32381F504C7
:104100008547B5A293F607041C410CC3BDDEC20768
:10411000C187A5BF0C401C4313F805081385470051
:104120006305080008C39C4339A093F5050408C340
:10413000FDD983D707001307F006638BE60C9716AB
:1041400000009386E6472947A30104044C400CC4B1
:1041500063C5050008406D9908C099E3B28A91CD06
:10416000B28AB3F5E702FD1AB69583C50500238030
:10417000BA00B3D5E70263F3E70AA147631EF7006D
:104180001C40858B91CB58401C4863C7E7009307C0
:104190000003A38FFAFEFD1A3306564110C84E875E
:1041A000CA867000A2852685EFF05FD67D5A63141B
:1041B000450D7D55B250225492540259F249624A3B
:1041C000D24A424B45618280A382D50497160000F3
:1041D0009386063F0C40084313F805081C4111055F
:1041E0006300080208C313F7150001C793E5050231
:1041F0000CC04147B1FB0C4093F5F5FD0CC0A9B7CD
:1042000013F8050408C3E30008FEC207C183E1BF39
:10421000971600009386C63A21473DB7AE8791B7FF
:1042200094411C43CC4913F80608138547006306E4
:10423000080008C39C438CC301A808C393F6060476
:104240009C43F5DA2390B70023280400B28A81BF8B
:104250001C43D04181459386470014C383AA0700BD
:104260005685ED2D01C53305554148C05C401CC83D
:10427000A30104042DB714485686CA852685829961
:10428000E30945F31C40898B8DE7B2474844E3536B
:10429000F5F23E8505B785465686CA8526858299FC
:1042A000E30965F1050A5C443247998FE345FAFE5C
:1042B000E9BF014A930A94017D5BF5B7011122CC55
:1042C00026CA4AC806CE4EC6AA842E89328401C5A3
:1042D0001C4D91E33929971700009387E732631942
:1042E000F406C0401C4C1CC48357C400A18BC9C336
:1042F0001C48BDCF1C4808409379F90F1379F90F7A
:104300001D8D5C486346F500A2852685D9242DE5E0
:104310001C440505FD171CC41C401387170018C05A
:10432000238037015C486389A7008357C400858BCD
:1043300081CBA9476316F900A2852685592C0DED7E
:10434000F24062444A85D2444249B24905618280C2
:10435000971700009387472D6314F400804459B7E2
:104360009717000093874728E31EF4F6C0449DBFCB
:10437000A285268521203DDD7D59D9B7411193873E
:10438000818026C2844322C44AC006C62A892E845C
:1043900089C49C4C99E32685A92E97170000938722
:1043A000A726631CF402C0400317C400931707013B
:1043B000C18393F68700B5EE93F607019DEEA547FE
:1043C0002320F900136707042316E4007D55B2404B
:1043D000224492440249410182809717000093874A
:1043E000A7246314F4008044C1B797170000938793
:1043F000A71FE31BF4FAC04445BF918B8DC74C58EF
:1044000089C9930744046384F5004A85AD23232AB0
:1044100004028357C4002322040093F7B7FD231638
:10442000F4001C481CC08357C40093E78700231680
:10443000F4001C4881EF8357C4001307002093F752
:1044400007286385E700A2854A859D298357C40014
:1044500013F7170005C75C4823240400B307F04096
:104460001CCC1C480145A5F78317C40013F70708A7
:1044700039DF93E707042316F40089BF898B0147CE
:1044800091E3584818C4F1BF4111194506C6F525F6
:104490000545EF00B01A83D7C500011122CC26CA0A
:1044A00006CE4AC84EC613F78700AA842E8471EF41
:1044B000D841634DE000B841634AE0000145F24055
:1044C0006244D2444249B2490561828058547DD742
:1044D00003A904009396370123A0040063DD0606B8
:1044E00070488357C400918B99C75C401D8E5C58FF
:1044F00099C33C401D8E5C540C50814626858297A2
:10450000FD570357C400631DF5009440F54763E869
:10451000D706B70740208507B3D7D700858BA5C33B
:104520001C48232204001CC09317370163D80700DE
:10453000FD576314F5009C4091E368C84C5823A0D4
:104540002401ADDD930744046384F500268525210D
:10455000232A0402A5B70C500146854626850297FA
:10456000FD572A86E31FF5F69C40A5DF7547638556
:10457000E70059476394E70423A0240181B7136738
:1045800007042316E4007D551DBF83A90501E387B9
:1045900009F203A905008D8B23A0350133093941A8
:1045A000014791E3D84918C4E35A20F11C540C5038
:1045B000CA864E86268582976349A0008357C40029
:1045C00093E707042316F4007DBFAA993309A94095
:1045D000E1BF9C49A5C3011122CC06CE2A8411C596
:1045E0001C4D81E72EC63122B245971700009387F4
:1045F000A701639CF5004C408397C5009DC72285A9
:104600006244F24005616FF01FE99717000093873D
:10461000A7016394F5000C44C5B797170000938772
:10462000A7FCE39BF5FC4C44C1BFF240624401454A
:104630000561828001458280411122C406C62A8418
:104640002316B5002317C5002320050023220500EB
:10465000232405002322050623280500232A05001C
:10466000232C0500214681451305C505EFB05FAD3C
:10467000970700009387A7545CD0970700009387A3
:1046800007571CD4970700009387475B5CD49707B4
:1046900000009387075E00D01CD8B240224441013D
:1046A000828097050000938505F389AA411126C2EF
:1046B000130680069384F5FFB384C4024AC02E8992
:1046C00022C406C693854407892E2A8401CD23205F
:1046D000050023222501310508C41386840681457F
:1046E000EFB01FA62285B240224492440249410104
:1046F00082801C4DA5E7411106C622C49707000021
:10470000938767FA1CD5938741819C432324050432
:1047100023260504232805046314F50085471CCDD2
:104720002A84352848C022851D2808C422850528EA
:1047300048C4484001469145EFF01FF00844054643
:10474000A545EFF07FEF48440946C945EFF0DFEE9D
:1047500085471CCCB24022444101828082804111B5
:104760009387418126C284434AC006C69C4C22C41A
:104770002A8999E32685B53F938484048044DC40EC
:10478000FD1763D607009C40B9CF8440C5BF03170F
:10479000C40039E7C17785072322040623200400DB
:1047A00023220400232404005CC423280400232AB9
:1047B0000400232C0400214681451305C405EFB0F5
:1047C0003F98232A0402232C0402232404042326D2
:1047D00004042285B240224492440249410182806D
:1047E0001304840671BF91454A85EFF03FEC88C001
:1047F00049FDB1472320F9000144E1BF797122D47A
:104800004AD052CC56CA5AC85EC606D626D24ECE1A
:104810002A8AAE8A130485040149054BFD5B09EC25
:10482000B25022544A8592540259F249624AD24AFD
:10483000424BB24B45618280044483294400FD19F8
:1048400063D409000040E1BF83D7C400637BFB0051
:104850008397E40063877701A6855285829A33693E
:10486000A90093848406E1BF1971A6DAAE8483950A
:10487000E500A2DC86DE328463DC050083D7C40059
:1048800023A0060093F707089DE39307004015A0B7
:10489000300836C69921B246E34205FE7247BD672D
:1048A000F98F7977BA9793B717009CC2F9BF93072E
:1048B00000041CC0F6506654D6540145096182803C
:1048C00083D7C500011122CC06CE26CA4AC8898BDF
:1048D0002E8489CF930774041CC01CC885475CC80C
:1048E000F2406244D2444249056182807400300043
:1048F000AA849D3FA2452A892685052201ED8317BA
:10490000C40013F7072069FFF19B93E727002316E4
:10491000F400C9B7970700009387E7D89CD4835762
:10492000C40008C008C893E707082316F400A2478C
:104930005CC8B24789CF8315E4002685C12E01C922
:104940008357C400F19B93E717002316F4008357A5
:10495000C4003369F9002316240159B793F5F50F04
:104960002A966314C5000145828083470500E38DC4
:10497000B7FE0505FDB7CDC183A7C5FF411122C410
:1049800006C626C21384C5FF63D307003E94AA84DB
:10499000C526938701839C4399EB2322040023A817
:1049A00081822244B240268592444101D9A6637E89
:1049B000F40014403307D4006396E7009843DC43C7
:1049C000369718C05CC0E1BFBA87D84319C3E37DEE
:1049D000E4FE94433386D700631F86001040B296EE
:1049E00094C33386D700E31EC7FA10435843B296E8
:1049F00094C3D8C37DB76375C400B1479CC055B795
:104A00001040B306C4006316D70014435843B2964F
:104A100014C058C0C0C371B78280011126CA9384E4
:104A20003500F19806CE22CC4AC84EC6A104B14743
:104A300063F1F404B14463E0B4042A89152E93872A
:104A4000018398433A8431E0938741839C4391E703
:104A500081454A85512823AAA182A6854A856920D5
:104A6000FD5963173507B1472320F9004A85112600
:104A700029A0E3D204FCB1471CC10145F2406244C5
:104A8000D2444249B249056182801C40858F63CE81
:104A90000702AD4663F6F6001CC03E9404C031A088
:104AA0005C406312870223A8F1824A85D92413054A
:104AB000B4009307440061993307F54061D33A94F9
:104AC000898F1CC065BF5CC3CDB722874040A5BF9E
:104AD000130435007198E30385FCB305A4404A85AF
:104AE0002120E31D35FB41B7411122C42A842E85C4
:104AF00097E7FF1F23A407AC06C6392EFD5763199D
:104B0000F50097E7FF1F938767AB9C4391C31CC0D9
:104B1000B240224441018280FD4763F6B700D94785
:104B20001CC17D5582807C41011122CC06CE2E868F
:104B30002A8491C713972500BA97984319EB2285C9
:104B400032C69D28AA85228562443246F24005611C
:104B50001DA8854601456308D700FD566319D70097
:104B6000D9471CC00545F2406244056182802E850C
:104B700023A0070002970145FDB793878180AA858E
:104B800088436FF07FF9411122C42A842E85B285B3
:104B900097E7FF1F23A407A206C6B924FD57631990
:104BA000F50097E7FF1F938767A19C4391C31CC043
:104BB000B24022444101828001AC411122C42E84C2
:104BC0008395E50006C67D22634905007C48AA97C7
:104BD0007CC8B2402244410182808357C4007D7763
:104BE0007D17F98F2316F400EDB783D7C5000111A7
:104BF00022CC26CA4AC84EC606CE93F70710AA840E
:104C00002E843289B68991C78395E500894601468D
:104C100035228357C4007D777D17F98F2316F40062
:104C20008315E4006244F240CE864A86B249424986
:104C30002685D24405613DA8411122C42E84839566
:104C4000E50006C6E528FD570357C400631BF500C1
:104C5000FD77FD17F98F2316F400B240224441017D
:104C600082808567D98F2316F40068C8FDB78395C5
:104C7000E50025A8411122C42A842E85B2853686F6
:104C800097E7FF1F23AC079206C6EFE05FCEFD5704
:104C90006319F50097E7FF1F938747929C4391C3E1
:104CA0001CC0B240224441018280411122C42A84A6
:104CB0002E8597E7FF1F23A3079006C6F520FD5713
:104CC0006319F50097E7FF1F9387478F9C4391C3B4
:104CD0001CC0B240224441018280411122C42A8476
:104CE0002E85B28597E7FF1F23AA078C06C6E92009
:104CF000FD576319F50097E7FF1F9387278C9C43A7
:104D000091C31CC0B240224441018280411122C49F
:104D10002A842E8597E7FF1F23A2078A06C66D28DF
:104D2000FD576319F50097E7FF1F938727899C4379
:104D300091C31CC0B240224441018280411122C46F
:104D40002A842E85B285368697E7FF1F23A807861B
:104D500006C65D20FD576319F50097E7FF1F93878F
:104D6000E7859C4391C31CC0B2402244410182802C
:104D700082808280411122C42A842E85B2853686A3
:104D800097E7FF1F23AC078206C6BD28FD576319AE
:104D9000F50097E7FF1F938767829C4391C31CC070
:104DA000B2402244410182809307800517E7FF1F2C
:104DB0002326F7807D5582809307800517D7FF1F34
:104DC000232EF77E7D5582809307800517D7FF1F1E
:104DD0002326F77E7D5582809307800517D7FF1F16
:104DE000232EF77C014582809307800517D7FF1F8C
:104DF0002326F77C7D5582809307800517D7FF1FF8
:104E0000232EF77A7D5582809307800517D7FF1FE1
:104E10002326F77A7D558280938781839C4391C7AF
:104E20003E9523ACA1823E85828097D7FF1F938752
:104E300027793E9523ACA1823E85828001A00000A7
:104E40005345454B46524545204D543956303378ED
:104E500000000000496E697469616C697A696E6767
:104E60002E2E2E0020202020204F4B2E2E2E2020B4
:104E7000202020005446545F585F4D41583E785FD3
:104E800073746172740000002E2E2F4C696272617F
:104E9000726965732F7365656B667265655F7065B2
:104EA000726970686572616C2F5345454B46524577
:104EB000455F31385446542E630000005446545F19
:104EC000595F4D41583E795F737461727400000000
:104ED0005446545F585F4D41583E785F656E64009C
:104EE0005446545F595F4D41583E795F656E64008A
:104EF0002564000025660000300000002E2E2F4C97
:104F000069627261726965732F7365656B6672653C
:104F1000655F6C69627261726965732F7A665F732F
:104F200070692E63000000006C63645F7365745FDA
:104F3000726567696F6E00000000000000000000ED
:104F40000000000000000000000000080808080839
:104F5000080800000808000000482424120000008F
:104F600000000000000000000000004848487E24C7
:104F700024247E24242400000000103C5252121CE1
:104F800030505052523C1010000000222515150DD3
:104F90002A585454522200000000000C1212120A27
:104FA00076252919916E0000000604040200000015
:104FB0000000000000000000004020101008080859
:104FC0000808081010204000000204080810101003
:104FD00010101008080402000000000008086B1CF4
:104FE0001C6B0808000000000000000000101010FA
:104FF000FE10101000000000000000000000000083
:105000000000000006040402000000000000000090
:105010007E00000000000000000000000000000012
:1050200000000000060600000000402020201010B4
:10503000080808040402020000000018244242424A
:105040004242424224180000000000101C101010C0
:1050500010101010107C00000000003C4242424042
:1050600020100804427E00000000003C4242402024
:1050700018204042423C000000000020303028242C
:105080002422FE2020F800000000007E0202021E02
:1050900022404042221C0000000000182402023A74
:1050A00046424242443800000000007E4220201068
:1050B00010080808080800000000003C4242422492
:1050C00018244242423C00000000001C224242429E
:1050D000625C404024180000000000000000181826
:1050E0000000000018180000000000000000000888
:1050F000000000000008080800000040201008041C
:1051000002040810204000000000000000007E00A3
:10511000007E0000000000000000000204081020D3
:1051200040201008040200000000003C42424620DB
:1051300010101000181800000000001C225A5555CD
:105140005555553A423C0000000000080818141458
:10515000243C224242E700000000001F2222221EBF
:1051600022424242221F00000000007C4242010114
:1051700001010142221C00000000001F22424242A5
:1051800042424242221F00000000003F4212121E13
:1051900012120242423F00000000003F4212121E63
:1051A00012120202020700000000003C222201014C
:1051B00001712122221C0000000000E7424242420D
:1051C0007E42424242E700000000003E0808080814
:1051D00008080808083E00000000007C10101010AD
:1051E000101010101010110F0000007722120A0E7C
:1051F0000A121222227700000000000702020202B7
:1052000002020202427F0000000000773636363686
:10521000362A2A2A2A6B0000000000E346464A4A42
:1052200052525262624700000000001C224141417C
:1052300041414141221C00000000003F42424242E5
:105240003E020202020700000000001C2241414110
:105250004141414D321C60000000003F4242423E4D
:105260001212222242C700000000007C42420204C7
:1052700018204042423E00000000007F4908080814
:1052800008080808081C0000000000E742424242EB
:1052900042424242423C0000000000E742422224D7
:1052A00024141418080800000000006B2A2A2A2A77
:1052B0002A36141414140000000000E742242418B5
:1052C0001818242442E7000000000077222214145A
:1052D00008080808081C00000000007E21201010AB
:1052E00008040442423F0000007808080808080843
:1052F00008080808080878000000020404040808E8
:105300000810102020204040001E10101010101017
:105310001010101010101E000018240000000000D3
:10532000000000000000000000000000000000007D
:1053300000000000000000FF000608000000000060
:105340000000000000000000000000000000001C41
:1053500022302C22326C0000000000000302021AEE
:1053600026424242261A00000000000000000038D9
:105370004402020244380000000000006040407C0B
:105380004242424262DC0000000000000000003C9B
:1053900042427E02423C0000000000003048083ECD
:1053A00008080808083E0000000000000000007C1B
:1053B00022221C023C42423C000000000302023A4E
:1053C0004642424242E700000000000C0C00000E82
:1053D00008080808083E00000000003030000038CF
:1053E000202020202020221E000000000302027244
:1053F000120A0E1222770000000000080E080808AA
:1054000008080808083E0000000000000000007FB7
:105410009292929292B70000000000000000003BC0
:105420004642424242E70000000000000000003C0B
:1054300042424242423C0000000000000000001BCB
:1054400026424242261A02070000000000000058CF
:1054500064424242645840E00000000000000077CF
:105460004C040404041F0000000000000000007C45
:1054700042023C40423E0000000000000008083E9E
:105480000808080848300000000000000000006321
:105490004242424262DC000000000000000000774F
:1054A000222214140808000000000000000000DBA5
:1054B00091525A2A24240000000000000000006ECF
:1054C000241818182476000000000000000000E7EF
:1054D0004224241818080806000000000000007E7E
:1054E00022100808447E000000C020202020202038
:1054F000102020202020C0001010101010101010BC
:105500001010101010101010000304040404040400
:105510000804040404040300045A200000000000EE
:10552000000000000000000000080140000C0140E5
:105530000010014000140140002C01400000004018
:1055400000040040000800407370695F6770696F75
:105550005F696E697400000000380140004400403B
:1055600000480040004C00402C2066756E63746952
:105570006F6E3A2000000000617373657274696F8A
:105580006E2022257322206661696C65643A20666C
:10559000696C6520222573222C206C696E6520259C
:1055A00064257325730A0000232D302B2000000092
:1055B000686C4C0065666745464700003031323301
:1055C00034353637383941424344454600000000FF
:1055D0003031323334353637383961626364656669
:1055E00000000000000000000000000000000000BB
:1055F00000000000000000000000000000000000AB
:10560000000000000000000000000000000000009A
:10561000000000000000000000000000000000008A
:10562000000000000000000000000000000000007A
:10563000000000000000000000000000000000006A
:045640000000000066
:105644000000000001020304010203040607080924
:105654000100000002002C01030032000400BC0021
:1056640005003200060000000700000008002000CA
:105674000000000001000000020000000300000020
:105684000400000005000000060000000700000000
:10569400080000000000000004560000245600002A
:1056A400E4550000000000000000000000000000BD
:1056B40000000000000000000000000000000000E6
:1056C40000000000000000000000000000000000D6
:1056D40000000000000000000000000000000000C6
:1056E40000000000000000000000000000000000B6
:1056F4000000000000000000020406080100000091
:1057040054000020003001400038004054000020C4
:00000001FF
