:100000006F00E05213000000130000001300000016
:100010001300000013000000130000001300000094
:100020001300000013000000130000001300000084
:08003000130000007300100032
:100038006FF09FFC000000006F00804D6F00804D46
:1000480000000000000000000000000000000000A8
:100058000000000000000000000000000000000098
:100068006FF09FF9000000006FF01FF9000000001A
:100078006FF09FF86FF05FF86FF01FF86FF0DFF721
:100088006FF09FF76FF05FF76F0080156F008021AA
:100098006F0080246F00C0246F00C0246FF0DFF56C
:1000A8006FF09FF56FF05FF56F0060436FF0DFF45E
:1000B8006FF09FF46FF05FF46F0080230000000082
:1000C8000000000000000000000000006F00C021D8
:1000D8006F0040226F0080246F0080266F00002B85
:1000E8006F0000336F0080346F0080366FF0DFF0F0
:1000F8006FF09FF06FF05FF06FF01FF06FF0DFEFC1
:100108006FF09FEF6F0000356F0000356F002039EA
:100118006F00C01D6FF05FEE6FF01FEE6FF0DFED48
:1001280000000000000000000000000000000000C7
:080138000000000000000000BF
:100140003D432A876373C3029377F700BDEFADE5A4
:10015000937606FF3D8ABA960CC34CC30CC74CC7B6
:100160004107E36BD7FE11E28280B306C3408A06E3
:100170009702000096966780A6002307B700A306A3
:10018000B7002306B700A305B7002305B700A304F3
:10019000B7002304B700A303B7002303B700A302EB
:1001A000B7002302B700A301B7002301B700A300E3
:1001B000B7002300B700828093F5F50F9396850072
:1001C000D58D93960501D58D61B79396270097023B
:1001D000000096968682E78086FA9680C1171D8F6A
:1001E0003E96E374C3F8A5B70545EF00207E85472A
:1001F0006304F500730020300545EF00E07E0547FD
:1002000083C7218F93F7F70FE39CE7FE2389018EC5
:10021000372500201305057CEF4040270545EF30CA
:10022000C0042399A1860945EF3020043305A0407E
:10023000239AA1860545EF30A0040945EF3040041C
:1002400083C7E18793F7F70FB1C383C7818493F71F
:10025000F70FCDD323840184EF302079EF50C01BFA
:10026000EF40A063EF40A02BEF40F03983C701902F
:1002700093F7F70F05476384E70203960187839599
:10028000E1860395C186EF305040ADB703960187F4
:100290008395E1860395C186EF30303FA1BF81464B
:1002A000014681450145EF30702EA9B70945392F28
:1002B00085476304F50073002030B707002083A74B
:1002C000470F09476388E70005476388E70009454A
:1002D000212FD5B7EF204015DDBFEF105050C5BF1F
:1002E000114519277300203073002030730020302F
:1002F0007300203073002030730020309305000815
:1003000037350140130505C0EF10C00419E1730033
:1003100020309305000837350140130505C0EF1064
:100320002005F5B7854537350140130505C0EF10A9
:10033000600219E17300203085453735014013050F
:1003400005C0EF10E002FDB793050004373501400A
:10035000130505C0EF10000001ED930500023735CD
:100360000140130505C0EF00F07E01ED7300203061
:100370009305000437350140130505C0EF00507F99
:10038000E9BF9305000237350140130505C0EF00B2
:10039000307EE9BF894537350140130505C0EF00C0
:1003A000707B1DE9914537350140130505C0EF000D
:1003B000707A1DE9A14537350140130505C0EF00EE
:1003C00070791DE9C14537350140130505C0EF00BF
:1003D00070781DE9730020308945373501401305D9
:1003E00005C0EF00F0787DBF91453735014013051A
:1003F00005C0EF00F0777DBFA145373501401305FB
:1004000005C0EF00F0767DBFC145373501401305CB
:1004100005C0EF00F0757DBF854537050040EF0052
:10042000707319E173002030854537050040EF00F7
:100430003074CDBF85453705004013050540EF00FA
:10044000707119E1730020308545370500401305B0
:100450000540EF00F071FDB77300203073002030CD
:10046000930550523745004013050540EF106008D2
:1004700019E17300203093055052374500401305B1
:100480000540EF10C00BB707002083A7470F0947AF
:100490006388E7000547E39EE7FCEF10B00BD1BF90
:1004A000EF109073F9B7411122C69305505237559A
:1004B000004013050580EF10C00309E532444101F7
:1004C00073002030930550523754004013050480C8
:1004D000EF10E00613050480EF1040001375F50FD0
:1004E000EF309073E1BF0965212185476304F50072
:1004F0007300203009652929B707002083A7470F1B
:1005000009476388E7000547E394E7FEEF10902E64
:10051000C5B7EF10D072E9BF7300203001A04111C0
:1005200006C6EF3060610145B2404101828097010B
:1005300000209381213C175100201301A1AC17A585
:10054000000013056507970500209385A5AB13866A
:10055000818463FAC5008322050023A0550011059C
:100560009105E3EAC5FE13858184973500209385C4
:10057000E5596377B500232005001105E36DB5FE4D
:100580009302800873A0023097020000938202ABAE
:1005900093E2120073905230EF3040279702000030
:1005A000938222F87390123473002030B7270140F1
:1005B000938707406303F5008280411106C6854595
:1005C00013050020D12F814513050020F127B240EB
:1005D000410182805C413707F1FF1307F7EF7D8F00
:1005E000DC41A2079441D58FD98F5CC11C4537F7F8
:1005F000F1FF1307D77F7D8F9C49D445D58F944554
:100600008606D58FD98F1CC55C55370710FF7D171F
:100610007D8F83C74501FD1793F7F70FD207D98F59
:100620005CD5828091C51C4593E717001CC582806C
:100630001C45F99B1CC582801C4593E787001CC59F
:10064000828008450D81058982801C4593E747001B
:100650001CC582800845098105898280A54763F70A
:10066000B7048328C500138865FF13171800429745
:100670009D47B397E70093C7F7FFB3F71701B3960A
:10068000E600DD8E54C5994763E3C70458597D16CB
:10069000931726003E96FD47B397C70093C7F7FF11
:1006A000F98F3396C5005D8E50D9828003280501ED
:1006B000139715002E979D47B397E70093C7F7FF51
:1006C000B3F70701B396E600DD8E14C96DBFB147DD
:1006D00063E3C7021459130796FF131627003A96CF
:1006E000FD47B397C70093C7F7FFF58F3396C50053
:1006F0005D8E10D9828054554D16131726003A96F8
:10070000FD47B397C70093C7F7FFF58FB395C500B3
:10071000DD8D4CD582801C4141677917F98F1CC152
:10072000232005002322050023240500232605009D
:10073000B7070240A1076304F508B7070240F107B5
:100740006306F508B7070240938707036307F508B8
:10075000B707024093874704630AF508B7070240CA
:1007600093878705630BF508B70702409387C70691
:10077000630DF508B707024093870708630FF50874
:10078000B7070240938787406301F50AB707024025
:100790009387C7416304F50AB7070240938707436D
:1007A0006307F50AB707024093874744630CF50ACD
:1007B000B707024093878745630FF50A82803707A2
:1007C00002405C4393E7F7005CC382803707024036
:1007D0005C4393E7070F5CC38280B7060240DC42AC
:1007E0000567130707F0D98FDCC282803707024004
:1007F0005C43BD66D58F5CC38280370702405C4393
:10080000B7060F00D58F5CC38280370702405C4378
:10081000B706F000D58F5CC38280370702405C4387
:10082000B706000FD58F5CC38280B707024003A7CD
:1008300047401367F70023A2E7408280B7070240D2
:1008400003A747401367070F23A2E7408280B7073B
:10085000024003A747408566938606F0558F23A282
:10086000E7408280B707024003A74740BD66558F27
:1008700023A2E7408280B707024003A74740B7069C
:100880000F00558F23A2E74015BF1C4161773D073C
:100890007D8F9C459451D58F9449D58FD449D58F60
:1008A000944DD58FD44DD58FD451D58F9455D58FA8
:1008B000D98F1CC1DC455CC19C411CC5DC415CC5B9
:1008C000828091C51C4193E717001CC182801C41A6
:1008D00041677917F98F1CC1828009C61C41DD8DE3
:1008E0000CC182801C4193C5F5FFFD8D0CC1828037
:1008F0009317350063DA0700B707024083A7074064
:100900007D8D3335A0008280B70702409C43CDBF68
:100910009317350063D70700B707024023A2A7400B
:100920008280B7070240C8C382805C45D9C3B7063E
:1009300001409387064003A6064018411347F7FF7E
:10094000718F23A0E64083A6464018411347F7FF66
:10095000758FD8C358413E9714431041D18E14C3AC
:10096000944718411347F7FF758F98C7D44718412C
:100970001347F7FF758FD8C71C454147638CE700C5
:100980003707014013070740BA9798431441558F22
:1009900098C38280B707014003A787401441558F51
:1009A00023A4E74003A7C7401441558F23A6E7407F
:1009B00082805841B7070140938707403E97144310
:1009C0001C4193C7F7FFF58F1CC382803707014096
:1009D0008327074003274741698F09C77D8D33353A
:1009E000A000828001458280B707014023AAA7406A
:1009F00082809C4593F8F700C18B81C7DC41B3E846
:100A0000F80083C70500A9CB10418147054E3D4F33
:100A1000930E8002930F8004214329A054C98507B7
:100A2000638B6702B316FE0003D70500758FE3984A
:100A3000E6FE139727003318EF001348F8FF3376CC
:100A4000C8003397E800598E9845E309D7FDE318AD
:100A5000F7FD14C9E9B710C103D705009307F00FDC
:100A600063FDE7045041A147054EBD4F130F8002BF
:100A7000930E8004414331A054C915A88507638DA6
:100A80006702B316FE0003D70500758FE398E6FEF4
:100A90001397270001173398EF001348F8FF3376B8
:100AA000C8003397E800598E9845E307E7FD98455D
:100AB000E316D7FD14C9D9B750C1828019C20CC939
:100AC00082804CC982802A8663400504B7070140B2
:100AD000DC4393160501C182370730003378E50007
:100AE0006308E8021317B500635C07041357050198
:100AF0001378F7000D47331707011347F7FF7D8F72
:100B0000B707000FD98F0DA0B7070140DC4FD1B751
:100B1000370700F17D17F98FB708014003A8480097
:100B20003377E80023A2E80091C55581120533957B
:100B3000A600C98F63420602370701405CC382806A
:100B40001357550112073397E6001347F7FF7D8FC0
:100B5000B707000FD98FC9BF370701405CCF82802C
:100B600093F735008A0713F7C50FB7050140BA950B
:100B700094453D473317F7001347F7FF758F98C526
:100B800098453315F500598D88C58280B7E700E098
:100B9000BC47898B95CF8346050083472500920784
:100BA00093F7F70F37E700E036972300F7405C41F3
:100BB000B5C703470500935757008546B396E6002F
:100BC000938707048A0737E700E0BA9794C38280C7
:100BD000B7E700E0BC47898BF9FB03471500854761
:100BE000630FF7008346050083472500920793F7BC
:100BF000F70F37E700E036972300F7404DBF8346F5
:100C0000050083472500920793E707F893F7F70F4E
:100C100037E700E036972300F74051BF0347050050
:100C2000935757008546B396E600938707068A07D1
:100C300037E700E0BA9794C38280B7160240DC42DF
:100C400051777D17F98F5D8DC8C28280B71702403A
:100C5000DC43B18B11476384E70821476387E708CA
:100C600099C7B7177A00938707201CC131A0B7171F
:100C70007A00938707201CC1371602405C4291839B
:100C8000BD8B3707002013070700BA9783C60700FC
:100C90001C41B3D7D7005CC15442A1829D8ABA9649
:100CA00083C60600B3D6D70014C55442AD829D8AD0
:100CB000369703470700B3D7E7005CC5584239832E
:100CC00093763700370700201307070F369703473F
:100CD00007001377F70FB3D7E7021CC98280B71755
:100CE0007A00938707201CC141BF371702405C433D
:100CF0005843C983BD8B89079316F70063CA060062
:100D000037173D0013070790B387E7021CC1ADB743
:100D10003717024058439316E70063DA0600371787
:100D20003D0013070790B387E7021CC1B1B737171F
:100D30007A0013070720B387E7021CC135BF99C5A6
:100D4000371702405C4B5D8D48CB8280B71702405D
:100D5000D84B1345F5FF798DC8CB828099C53717DD
:100D600002401C4F5D8D08CF8280B7170240984F1C
:100D70001345F5FF798D88CF828099C537170240DA
:100D80005C4F5D8D48CF8280B7170240D84F134526
:100D9000F5FF798DC8CF828099C5371702405C472F
:100DA0005D8D48C78280B7170240D8471345F5FFCD
:100DB000798DC8C78280035705008D679387070424
:100DC0007D8F83D7050083D62500D58F83D6450038
:100DD000D58F83D66500D58F83D68500D58F83D6F2
:100DE000A500D58F83D6C500D58F83D6E500D58FD6
:100DF000D98F2310F5000357C501FD779387F77F3F
:100E0000F98F231EF50083D705012318F500828092
:100E100081C98357050093E707042310F5008280FA
:100E200083570500C207C18393F7F7FBC207C1834D
:100E30002310F500828083570500C207C18337372E
:100E40000140130707C06300E5043707004063074C
:100E5000E506130707406303E5063717004013074D
:100E60000780630DE50493F7F7CF03D76500D98FAB
:100E70002310F50083D745002316F50283D705001C
:100E80002314F50285A093F7F7F803D72500D98F2F
:100E900093F7F7CF03D76500D98F2310F50083D7D9
:100EA00045002316F50283D705002314F50203C776
:100EB0008500B73701402398E7C22DA093F7F7F8D4
:100EC00003D72500D98F93F7F7CF03D76500D98FC4
:100ED0002310F50083D745002316F50283D70500BC
:100EE0002314F5028547231AF500828083570502F3
:100EF000C207C183F99BC207C1832310F502835740
:100F00000502C207C18383564500C206C18203574A
:100F10008501420741831377C7F803D60500518F37
:100F2000F59B03D6850003D8250033660601D18FD3
:100F300037360140130606C0630DC5002312D500E5
:100F4000231CE50003D76500231AE5022310F502F0
:100F50008280DD9B03D6A500D18FED9B03D6450093
:100F6000D18F93F6F6CF03D6C50003D8E5003366DC
:100F70000601D18EE1B783570502C207C183BD9B2D
:100F8000C207C1832310F50283570502C207C1833C
:100F90000356450042064182835685016577130753
:100FA000F7CF758F83D60500A206558F4207418380
:100FB00093F7F7FD03D8850083D62500B3E6060135
:100FC0009206D58FC207C183B7360140938606C00B
:100FD000630DD5002312C500231CE50003D765006F
:100FE000231CE5022310F502828093F7F7F783D6DE
:100FF000A5009206D58FC207C18393F7F7FB83D66E
:1010000045009206D58FC207C183FD769386F63FD1
:10101000758E03D8C50083D6E500B3E606018A06BF
:10102000558E420641827DB783570502C207C183B0
:1010300093F7F7EFC207C1832310F5028357050228
:10104000C207C18303564500420641820357C501CA
:10105000420741831377C7F883D60500558F93F76E
:10106000F7DF03D8850083D62500B3E60601A20684
:10107000D58FC207C183B7360140938606C0630D82
:10108000D5002312C500231EE50003D76500231EEB
:10109000E5022310F5028280FD769386F67FF58FB8
:1010A00083D6A500A206D58FC207C18393F7F7BFE9
:1010B00083D64500A206D58FC207C183F576FD16FB
:1010C000758E03D8C50083D6E500B3E60601920607
:1010D000558E4206418275B703570502FD77FD170D
:1010E000F98F2310F5020358050203564500420606
:1010F00041828357C50165771307F7CF7D8F83D66C
:101100000500A206558F42074183F977FD17B3F713
:10111000070103D8850083D62500B3E60601B20691
:10112000D58FC207C183B7360140938606C0630DD1
:10113000D5002312C500231EE50003D76500231048
:10114000E5042310F5028280F176FD16758E83D6B4
:10115000C5009A06558E42064182E1BFFD57231213
:10116000F5002310050023130500231105002304B7
:101170000500828081C98357050093E7170023107B
:10118000F500828083570500C207C183F99BC2071F
:10119000C1832310F500828081C9835745042167EC
:1011A000D98F2312F504828083574504C607C5836F
:1011B0002312F504828019C68357C500DD8D2316DE
:1011C000B50082808357C50093C5F5FFFD8D2316BA
:1011D000B50082808357850093F7F70FA2064D8EE6
:1011E000D18ED58FC207C1832314F50082804111AF
:1011F00006C622C42A84F93F8357840093E7770701
:101200002314F400B24022444101828083578500B8
:10121000C207C18393F7F7F8DD8D2314B5008280F0
:1012200003588500420813580801035785014207F7
:10123000418383570502C207C183137888FFB365D2
:10124000B8001377C7CF1367171093F7D7FD92062F
:10125000558ED18FC207C1832314B500231CE5002E
:101260002310F502828083578501C207C183DD9B6D
:10127000DD8D231CB500828003578501FD779387A0
:10128000F77FF98FA205CD8FC207C183231CF5001C
:1012900082808357C501C207C183DD9BDD8D231E7C
:1012A000B50082800357C501FD779387F77FF98FDB
:1012B000A205CD8FC207C183231EF500828083570C
:1012C0008501C207C183ED9BDD8D231CB5008280A3
:1012D00083578501C207C18393F7F7BFA205CD8F5E
:1012E000C207C183231CF50082808357C501C20752
:1012F000C183ED9BDD8D231EB50082808357C50120
:10130000C207C18393F7F7BFA205CD8FC207C18380
:10131000231EF500828083578500C207C183E19BAD
:10132000C207C1832314F50083578500DD8D231484
:10133000B500828083578500C207C18393F7F7F712
:10134000C207C1832314F50083578500DD8D231464
:10135000B5008280835705010355C50042054181D0
:10136000ED8F89C76D8D3335A00082800145828065
:1013700093C5F5FFC205C1812318B500828079713C
:1013800006D622D426D22A84AE8403570501F577E7
:10139000FD17F98F03D76500D98F2318F500035780
:1013A000C500FD779387379FF98F03D74500D98F05
:1013B00003D78500D98F03D7A500D98F2316F50051
:1013C00083574501C207C18393F7F7CF03D7C50001
:1013D000D98F231AF5006800EFF05F87B747014007
:1013E000938707806301F40652478357C400C207FE
:1013F000C18763CC070493171700BA978E07BA9773
:1014000098400A07B3D7E70213074006B3D6E702AE
:101410009206B3F7E7020357C400420741876340CF
:10142000070492079387270313074006B3D7E70201
:10143000BD8BD58FC207C1832314F400B250225450
:1014400092544561828062474DB793171700BA974F
:101450008E07BA9798400607B3D7E70275B7139778
:10146000370013072703930740063357F7021D8BF6
:10147000B367D700C1B781C98357C5000967D98F42
:101480002316F50082800357C500F977FD17F98F01
:101490002316F500828093F7F50F95830547B31562
:1014A000B700638CE700894613074501638AD700BC
:1014B00019CA1C43DD8D0CC382801307C500CDBF44
:1014C00013070501F5B71C4393C5F5FFFD8D0CC34C
:1014D000828093F5F51F2312B500828003554500E5
:1014E0001375F51F8280035505006D8D3335A000FF
:1014F000828093F7F50F958385463397B60063880E
:10150000D70289466389D702835745017D8F0355EA
:10151000050093170501C183014509CBA18105454C
:10152000B315B50033F5B7003335A000828083577B
:10153000C5007D8FE9BF835705017D8FC9BFA1819C
:101540008547B397B70093C7F7FFC207C18323103E
:10155000F5008280011106CE22CC26CAA307A10085
:10156000A96703A4C70AA16444C891675CC88546FB
:1015700001469305F1000145EF10307704C8F240B1
:101580006244D24405618280011106CE22CC26CA73
:10159000A307A100A96703A4C70AA16444C891676F
:1015A0001CC885461306F100B2850145EF10F073A3
:1015B00004C8F2406244D24405618280011106CE23
:1015C00022CC26CAA96703A4C70AA16444C89357BA
:1015D00085002306F100A306A10091671CC8894677
:1015E0007000B2850145EF10507004C8F2406244AB
:1015F000D24405618280011106CE22CC26CA4AC897
:101600004EC69307F00963EEA7062A84AE8432899A
:10161000B6899307F00763E5B7089307F00963E01D
:10162000C70A9307F00763EBD70A1305A0021D371B
:101630000145993F130514001375F50FB1370145A6
:10164000A137130519001375F50F3D3F1305B002BF
:1016500011370145153F138524001375F50F2D37FC
:1016600001451D37138529001375F50F313F13050B
:10167000C002CD35F2406244D2444249B2490561CC
:101680008280B7A60000938646892966130646889D
:101690009305700537A500001305858AEF60F06893
:1016A000B7A600009386C68D296613064688930563
:1016B000800537A500001305858AEF601067B7A67F
:1016C00000009386068F2966130646889305A005B9
:1016D00037A500001305858AEF603065B7A60000C6
:1016E000938606902966130646889305B00537A5AC
:1016F00000001305858AEF605063011106CE22CCED
:1017000026CA4AC84EC6AA849306F0071306F009F3
:1017100081450145CD35130900089309000A21A030
:101720007D19630A09004E842685493D7D14137492
:10173000F40F7DF8F5B7F2406244D2444249B24911
:1017400005618280011106CE22CC26CA4AC84EC647
:10175000014881471307F00493063002054681458E
:101760000145EF10D0489306003105468545130525
:10177000F004EF1000139306003101468545130570
:10178000D004EF1000129306003101468545130581
:10179000E004EF100011A96783A9C70A096923AA09
:1017A000290103A50186130409F433558502931713
:1017B00025003E9506058145EF10D05623A8290146
:1017C00003A5018633558502931745003385A7404D
:1017D0000E058145EF1010554545AD3B03A501862B
:1017E00033558502931745003385A7400E05814583
:1017F000EF1050531305100BB13B05457133130522
:10180000C00259331305D00241331305200B99331D
:1018100005459D3B1305C002853B1305D002AD3342
:101820001305300B053B054585331305C002A93B65
:101830001305D002913B0545813B1305C002A93336
:101840001305D00291331305400B29331D452D3B61
:101850001305000C01331305200A3D3309452D33D0
:101860001305400815331305100CED311305500C0A
:10187000213B1305200CF93929453933014529331A
:101880001305300CC1391305A008FD391305A0025A
:10189000E5391305400C7D391305A008F531130512
:1018A000E00EDD311305500C75313945F139130562
:1018B00060034D3113050006C1391305000E593977
:1018C0003D45D9316945C9313D457D3961456D3960
:1018D0001305F0025539130580027D31130500020E
:1018E0006531130520024D317D4579396D456939E2
:1018F00013053002513913057003793101456931FF
:101900001D455931094549314145BD391305100E71
:1019100091313D4595396D4585393D45B5315D453B
:10192000A531130530038D311305C002B1391305FC
:10193000900299391305E002813913050003A9319A
:10194000130500039131130590033D391305F0038E
:101950002539014515391D4505390D4535314145B7
:1019600025311305A002FD360145393909452939CC
:10197000014519391305200801391305B002D93E74
:10198000014519310D4509310145FD3E130530086A
:10199000E53E1305000F7D3E0545FD361305600F3E
:1019A000553E0145D5361305A0036D361545E93E74
:1019B00013059002453641657D158133F24062443E
:1019C000D2444249B24905618280797106D622D457
:1019D00026D24AD04ECE52CC56CA5AC85EC662C42F
:1019E00066C26AC0AA8B2E89138D05011206330BBD
:1019F000B640930C7500A96A938A4A91214CC1693B
:101A0000138AF9FF938909801DA05285EFF01FBB4F
:101A100085807D141374F40F01C893F71400F5D773
:101A20004E85EFF0BFB9EDB70509630FA901CA866E
:101A30006686CA855E85EFF01FBCB3076901D6973D
:101A400083C407E06284D1BFB25022549254025939
:101A5000F249624AD24A424BB24B224C924C024D5E
:101A600045618280011106CE22CC26CA4AC84EC6E4
:101A7000B2890306060015C62A849205139905014A
:101A8000135909018144CA85228581378504C2041E
:101A9000C180B38799000386070021044204418076
:101AA0007DF2F2406244D2444249B24905618280EB
:101AB000797106D622D426D24AD04ECE2A89AE8952
:101AC0003284634D06069205C205C18113060002E9
:101AD000ED3D93074006B347F4022306F100A94702
:101AE0003347F4023367F702A306E1003364F402DC
:101AF000230781009209C20993D9090164001304E4
:101B0000890042044180130909024209135909015D
:101B100003C604001306060362066186CE8522858D
:101B20006D358504210442044180E31324FFB25043
:101B3000225492540259F249456182809205C205AD
:101B4000C1811306D00251353304804062046184A0
:101B500049B7797106D622D426D24AD04ECE2A84ED
:101B60002E89B284634A06089205C205C181130614
:101B70000002A13D896793870771B3C7F40223046C
:101B8000F1001307803E33C7E402A9473367F70229
:101B9000A304E1001307400633C7E4023367F702EA
:101BA0002305E10033C7F4023367F702A305E10020
:101BB000B3E4F40223069100120942091359090102
:101BC00024002104420441809309D10003C604008B
:101BD0001306060362066186CA852285FD338504E5
:101BE000210442044180E39334FFB25022549254C2
:101BF0000259F249456182809205C205C1811306EE
:101C0000D002E133B3049040C204C184A5B75D7132
:101C100086C6A2C4A6C2CAC04EDE52DC56DAAA8963
:101C20002E8A3284B684BE8A994663F3F600994AB6
:101C300093FAFA0FBA87A94663F3E600A94713F9A6
:101C4000F70F014681462285A685EF409013634D2C
:101C5000050A2286A686B7A500009385059113057F
:101C6000D1008D219306A5FF93F6F60F1346F9FFD9
:101C700036961376F60F1319860113598941850A92
:101C8000D69693F6F60F939A860193DA8A41635EAD
:101C90000902918E93F6F60FD68793050002181865
:101CA0003E97230EB7FC850713F7F70F93178701AD
:101CB000E187E396E6FEB38ACA40E20A93DA8A41F4
:101CC0003309C94062091359894101468146228579
:101CD000A685EF40100B634805061C183E99930734
:101CE0000002230EF9FC1C18BE9A238E0AFC700019
:101CF000D2854E85853BB640264496440649F25926
:101D0000625AD25A616182802286A686B7A50000F7
:101D10009385059168007D26930695FF93F6F60F4F
:101D20001346F9FF36961376F60F131986011359E9
:101D30008941850AD69693F6F60F939A860193DA2F
:101D40008A41E34809F41C183E999307D002230EF8
:101D5000F9FC51BFA96783A7871003D64700938674
:101D6000F18483C706001387C1843E972300C70010
:101D7000850793F7F70F2380F6000547638BE7008D
:101D80000D476397E700A387018405472388E18413
:101D9000828003C7C1849307500AE30BF7FEA38731
:101DA00001848280797106D622D426D24AD04ECEC2
:101DB00052CC56CAAA8A238801842E849384450271
:101DC000130A50FA0969130909F4230641018357DC
:101DD0000400A306F1000317240093170701C18331
:101DE000A1832307F100A307E10011466C0056858B
:101DF000EF10301203A501863355250306058145F2
:101E0000EF1040721104E31294FC9387018583C79D
:101E1000070093F7F70FF5DB238801849387C184CC
:101E200003C7170083C627009307F00F6310F7005E
:101E3000E39EF6FEB250225492540259F249624A8D
:101E4000D24A45618280397106DE22DC26DA4AD820
:101E50004ED652D456D25AD05ECEAA8BAE84138BB5
:101E60000502930A50FA455A1389C1842306510189
:101E7000A3064101A6890397040093170701C183B4
:101E8000A1832307F100A307E10011466C005E85E2
:101E9000EF1030089387018583C7070093F7F70F8A
:101EA000F5DB938701852380070083471900A2078C
:101EB00003472900D98F2391F9009104E39864FB2B
:101EC000F2506254D2544259B259225A925A025B89
:101ED000F24B21618280411106C613068004B14590
:101EE0000545EF00D0308546014685455D45EF004C
:101EF0003036B24041018280411106C6B1450145EC
:101F0000EF00700DB24041018280411106C622C42B
:101F100026C21304700493040004914601468145CF
:101F20002285EF0010187D14E31994FE89669386CC
:101F3000864B03A6C185B7150140A10537050240B0
:101F400013054504EF0060798546014681457945D2
:101F5000EF001030B240224492444101828041118E
:101F600006C622C426C2B7070020054723AAE70EEB
:101F7000B70700209387072223AEF184C546414668
:101F80008965938505580545EF10006A8545054527
:101F9000EF10407B0145EF0070351384018523006D
:101FA0000400B7040020938504010545693D230022
:101FB0000400B7050020938505030545E53323009C
:101FC0000400938504010545BD3DEF00702F353FAA
:101FD00025371137B2402244924441018280B7072D
:101FE000024009671307874BB8C7F8431367170008
:101FF000F8C3828005472384E184B7060240FC428F
:1020000041677917F98FFCC28280AA8729C21357CA
:10201000F541B347A700998F368633E7D7021307F8
:1020200007032380E500B3C6D702B5C2AE87850794
:1020300033E7C602130707032380E700B3C6C602CF
:10204000138517000D8D1375F50FF5F282802E861E
:10205000B68825480547B305B7400DA01307070309
:102060001377F70F2300E60033D7D7023305B60006
:102070001375F50F63EE17010506BA8733F7D7021C
:10208000E37EE8FC130777031377F70FE1BF0545FD
:10209000828013D81500854763F5B7029387F5FF53
:1020A000AA972A872E9583860700030607002380B8
:1020B000C7002300D7000507B306F540FD17E3E48A
:1020C00006FF8280757186D6A2D4A6D2CAD0CECEA3
:1020D000D2CCD6CADAC8DEC6E2C4E6C2EAC06EDE38
:1020E000B2DCB6DE3AC13EC342C546C7BC183ED6D6
:1020F000838705006381072C2A84814C9304500256
:10210000930A3005296A130A4AF037A70000032909
:1021100087058329C705BDACB257138747003AD658
:102120009C432300F4000504850C85A4B257138753
:1021300047003AD683AB0700A94605462C005E85CA
:10214000E9352A8B63CD0B00DA85280099375A864A
:102150002C002285EF6060435A94DA9C3DA41C1841
:10216000AA971307D002238CE7FC130B1500137BEF
:10217000FB0FD9BFB2579D07E19B138787003AD663
:1021800003AB070083AB47005A85DE85EF50200A7A
:102190002A8DA94605462C008D3DAA8D0146814613
:1021A0005A85DE85EF40E03D63400506EE85280058
:1021B000CD356E862C002285EF60203D6E94EE9C1E
:1021C0006A85EF50400D2A86AE865A85DE85EF403F
:1021D00030124A86CE86EF4020462A8BAE8B0146CF
:1021E0008146EF4080281DE993070003A306F10014
:1021F0002306F100A305F1002305F100A304F1007B
:102200002304F100194581A81C18EE971307D0028A
:10221000238CE7FC850D93FDFD0F49BF5A85DE85B4
:10222000EF50E000A94605462C00C533954763E40E
:10223000A7023C00AA97130791002A979546898E1A
:1022400093F6F60F3697930600032380D700850791
:10225000E31DF7FE19451C18AA971307E002238C0B
:10226000E7FC0505137BF50FDA8528001D355A8636
:102270002C002285EF606031DA9C01AAB2571387E7
:1022800047003AD6A94601462C008843BD3B2A8B1D
:10229000AA852800FD3B5A862C002285EF60E02E9F
:1022A0005A94DA9CDDA0B257138747003AD6A1466C
:1022B00001462C008843913B2A8BAA852800D13BFC
:1022C0005A862C002285EF60402C5A94DA9C75A81F
:1022D000B257138747003AD6C14601462C008843BF
:1022E0002D332A8BAA8528006D335A862C0022852F
:1022F000EF60A0295A94DA9C49A8B2571387470087
:102300003AD694430387060049C3A28733848C409E
:102310002380E7008507B38C8700850603870600C6
:1023200065FB3E849DA0A1452800A533834881001C
:10233000034891000345A1008345B1000346C10055
:102340008346D1000347E1008347F10023001401D5
:10235000A30004012301A400A301B4002302C400CC
:10236000A302D4002303E400A303F4002104A10C7E
:1023700029A8930750022300F4000504850C31A01E
:102380002300F4000504850C2E8C93051C008307A4
:102390001C009DC3E39697FE138C150083C71500A0
:1023A0009387B7FD13F7F70FE3E1EAFE93172700D2
:1023B000D2979C438287814C6685B65026549654AA
:1023C0000659F649664AD64A464BB64B264C964CB9
:1023D000064DF25D49618280A96783A7871003D605
:1023E00047009386818583C70600138741853E9702
:1023F0002300C700850793F7F70F2380F6000547F2
:10240000638BE7000D476397E700238C0184054742
:10241000A38BE184828003C741859307500AE30BB5
:10242000F7FE238C01848280B707024005671307FB
:102430000796B8C7F84313671700F8C382800547AB
:10244000A388E184B7060240FC4241677917F98FFF
:10245000FCC28280411106C62DC58547630AF50678
:102460008947630DF5068D476300F50891476303BF
:10247000F50895476306F50899476309F5089D47F0
:10248000630CF508A147630FF508A5476303F50A38
:10249000A9476307F50AAD47630BF50AB147630F18
:1024A000F50AB5476303F50CB9476307F50CBD475B
:1024B000631DF50081460146814513055004D5266C
:1024C00029A0814601468145E92EB2404101828022
:1024D0008146014681450545E926C5BF814601463D
:1024E000814509457D2ED5B78146014681450D457B
:1024F0004D2EE1BF81460146814511455D26F1B76C
:102500008146014681451545692EC1B78146014680
:1025100081451945792655BF8146014681451D45AE
:10252000492665B781460146814513050002952E6F
:1025300069BF814601468145130510029D2671B78A
:1025400081460146814513050004A12EBDBF814689
:102550000146814513051004A92685BF8146014621
:10256000814513052004352E8DB7814601468145EE
:10257000130530043D2691BF814601468145130570
:102580004004052699B7797106D622D42A84854558
:1025900013054020EFE08FFC22856D3D03A70186E7
:1025A000B7C70105938707D063FBE7063165EFE006
:1025B000CFE83724014013050440EFD03FFF02C4A9
:1025C00002C602C8B7070E003ECA02CC8547230EDA
:1025D000F1002C0013050440EFD0DFFF8545130503
:1025E0000440EFE02F8413050440EFE0EF84130470
:1025F00004402285EFE0EF846DFD3725014013058F
:102600000540EFE08F843724014013040440228505
:10261000EFE04F846DFDB250225445618280216508
:10262000EFE0AFE179B7411106C622C426C2AE84FD
:10263000814605469375F50F372401401305044084
:10264000EFE0CF818327844037075000D98F2324C0
:10265000F4403727014083270740898BEDDFB727F8
:10266000014003A5C7443355950042054181B2405E
:102670002244924441018280011106CE22CC26CA16
:102680004AC84EC652C42A8AAE893289814401445E
:1026900015C6CE855285413FAA9405041374F40FE4
:1026A000E31989FE33D5840242054181F240624438
:1026B000D2444249B249224A05618280B7A600004D
:1026C000938606072966130606069305600737A555
:1026D000000013058507EF5050655D7186C6A2C4E2
:1026E000A6C2CAC04EDE2A84AE893289B684B70734
:1026F0000240A1076308F508B7070240F10763032A
:10270000F508B707024093870703630DF506B7077F
:102710000240938747046307F506B7070240938793
:1027200087056301F506B70702409387C706630B69
:10273000F504B7070240938707086305F504B70758
:10274000024093878740630AF502B70702409387E8
:10275000C7416304F502B707024093870743630E3E
:10276000F500B7070240938747446308F500B707B1
:10277000024093878745631BF50085450945EFE0D7
:102780000FDC29A085450545EFE06FDB2285EFD002
:102790009FF84EC24AC402C626C802CA9307000860
:1027A0003ECC02CE02D002D28D673ED402D64C007F
:1027B0002285EFE08F8D054689452285EFE0EF9178
:1027C00085452285EFE0EF8FB640264496440649C2
:1027D000F25961618280011106CE22CC26CA2A8478
:1027E000AE8485450545EFE06FD751C48547630B3F
:1027F000F4088947630DF4088D47630FF408914688
:102800000146814526857128FD572314F1002312C6
:1028100001002315010023130100230601000A040F
:10282000A9679387470B3E9400404C002285EFE058
:102830008FE08146216681452285EFE05F9B93050D
:1028400000072285EFE09F9C91452285EFE0BFAC19
:10285000930500082285EFE0FFAD85452285EFE076
:102860007F91054691652285EFE0FF94F240624436
:10287000D244056182808545056513050580EFE03A
:10288000EFCDB5BF85450545EFE02FCF8DBF854521
:102890000945EFE08FCEA5B785451145EFE0EFCDB7
:1028A000B9BF130700086306E510797106D622D474
:1028B00026D24AD04ECE52CC9357550013F977000A
:1028C0001374F501368AB289AE848DCB05476389CE
:1028D000E7060947638BE7060D47638DE706114757
:1028E0006380E70815476383E7081947639CE7009F
:1028F000854513050010EFE06FC629A085451145F9
:10290000EFE0CFC58547339487004204418023120E
:1029100081006383F4069376FA0F36C613172900F5
:10292000A9679387470ABA974C008843EFE06F8CFA
:10293000B250225492540259F249624A456182804F
:1029400085452145EFE08FC175BF85454145EFE0E5
:10295000EFC04DBF854513050002EFE02FC05DB706
:10296000854513050004EFE06FBF69BF854513057A
:102970000008EFE0AFBE79B793170A01C183A183C6
:102980009DE78D473EC49376FA0F36C6131729008C
:10299000A9669386460A369704434C002685EFE0E5
:1029A0004F854E86A2852685EFE04F9151B73EC4F4
:1029B000D9BF8280935755009D8B7D890547638DD4
:1029C000E5008A0729671307470ABA97984385479E
:1029D0003395A70048CB82808A0729671307470AE7
:1029E000BA97984385473395A70008CB8280011199
:1029F00006CE22CC26CA4AC82A84AE8432898545AE
:102A00000545EFE0AFB5CA86014681452285513DB7
:102A1000135554009375F4011375F50FEFE04F94BF
:102A200085473394870022C002C226C43EC60A8569
:102A3000EFD0BFEFF2406244D24442490561828048
:102A4000B7E700E07D5723A0E71823A2E7188280AC
:102A5000011106CE2304A100A304B1002305C10087
:102A600036C62800EFE08F9237E600E01842B7271D
:102A70000020FD76F98E03A7876D558F23ACE76C98
:102A800058429387876D12071183D443558FD8C35B
:102A900003C7870085476305F700F2400561828020
:102AA0004537E5BFB727002083A6876D37E700E0ED
:102AB0002320D7109387876DDC432322F710828071
:102AC000411106C622C4372700209307876D85462B
:102AD0002384D7000324876DDC435D8C333480006E
:102AE00085372285B24022444101828011C1828013
:102AF000411106C6B72700202380076E6537B24014
:102B000041018280411106C6930700206301F51E32
:102B100063F1A704930730216306F52263EBA70E48
:102B2000930730206305F51E63F4A70C930710216B
:102B30006308F51E63EFA71E93070021631CF512BF
:102B4000930680310146854513056004EFF07FD57B
:102B500015A2930710106302F51463FBA7029307F5
:102B60000011630CF51463F5A706930720116307A2
:102B7000F516636CF51493073011631DF50E93067B
:102B80008031014685451305B002EFF09FD1DDA0ED
:102B900089476304F50E63F1A7028D476307F50EBD
:102BA000930700106318F50C9306803101468545A4
:102BB0000145EFF01FCF7DA85DC58547631CF50A71
:102BC00093068031014685452545EFF09FCD5DA0F8
:102BD00093072010630BF50C93073010631CF50866
:102BE00093068031014685450D45EFF09FCB59A0F6
:102BF000930710206305F51093072020631CF5064A
:102C0000930680310146854513050002EFF07FC928
:102C100095A0930700306309F51463F5A7029307A5
:102C200020306305F516636AF5149307303063139B
:102C3000F504930680310146854513059002EFF0B7
:102C40005FC60DA8930700226307F51093071022B3
:102C50006312F50293068031014685451305500243
:102C6000EFF03FC401A89306803101468545214518
:102C7000EFF03FC3B24041018280930680310146AC
:102C800085452945EFF0FFC1F5B793068031014630
:102C900085452D45EFF0FFC0F1BF93068031014619
:102CA00085450545EFF0FFBFF1B79306803101463A
:102CB00085450945EFF0FFBE75BF9306803101469B
:102CC00085453D45EFF0FFBD75B793068031014660
:102CD000854513053002EFF0DFBC69BF93068031F4
:102CE000014685451305A002EFF0BFBB61B793060F
:102CF0008031014685451945EFF0BFBAA5BF93065F
:102D00008031014685451D45EFF0BFB9A5B7930653
:102D100080310146854513051002EFF09FB899BF39
:102D2000930680310146854513057004EFF07FB7A7
:102D300091B7930680310146854513058004EFF075
:102D40005FB60DBF9306803101468545130590049B
:102D5000EFF03FB505B79306803101468545130571
:102D60004002EFF01FB439B7930680310146854524
:102D700013056002EFF0FFB2F5BD93068031014606
:102D8000854513057002EFF0DFB1EDB59306803194
:102D90000146854513058002EFF0BFB0E1BD3971F2
:102DA00006DE22DC26DA4AD84ED6AA84AE893289DB
:102DB000EFF05FD513D4840075C085476307F40E28
:102DC0008947630CF4108D47630FF4128545054560
:102DD000EFD0DFF8B7170240DC43C983BD8B37174C
:102DE0007A0013070720B387E7023727F400130799
:102DF0000740BA9723A0F18633D737034183930561
:102E00001700B3853503B3D7B7029386F7FF231CAA
:102E1000D100231AE100231D0100231B0100230E12
:102E20000100130700072312E10005472313E10007
:102E300023140100C207C183B3872703096713075F
:102E40000771B3D7E7022315F10089472316F10074
:102E50002317F10023180100231901000A04A967B0
:102E60009387470B3E9400404C082285EFD0BFFC6F
:102E70008D88F9C08547638CF40E89476387F41009
:102E80004C002285EFE04FA5A1452285EFE08FC1E0
:102E9000930500402285EFE06FC65DA88545056576
:102EA00013050580EFD09FEB15B785450545EFD09D
:102EB000DFEC85450545EFD07FEA93D744004147D5
:102EC0006388E7044547E397E7F085453705180031
:102ED00013050530EFD03FBFF5BD85450945EFD05F
:102EE000DFE985450545EFD07FE793D74400130719
:102EF00010026397E702854537151A00130505C0D0
:102F0000EFD07FBCC1BD85451145EFD01FE77DBD2A
:102F100085453705160013050504EFD0DFBA5DBD02
:102F200013072002E398E7EA854537151A001305D1
:102F30000580EFD05FB979BD4C002285EFD01FFB33
:102F4000A1452285EFE02FB291452285EFE02FB712
:102F500085452285EFE00FA285452285EFE0CFA3CE
:102F6000F2506254D2544259B259216182804C00CD
:102F70002285EFE04F80A1452285EFE0EFAF93057A
:102F800000402285EFE0CFB4E1B74C002285EFE0AE
:102F9000AF89A1452285EFE0CFAF91452285EFE0D3
:102FA000CFB47DB71357850093172700A966938682
:102FB000460BB6979C4383D7C702B385F502896752
:102FC00093870771B3D5F50201EF0D89B75700104C
:102FD0009387D7B03E950A05C205C1810CC1828096
:102FE00085476309F70089476300F7028D47630847
:102FF000F70282800D89B7070010B5073E950A05D4
:10300000C205C1810CC182800D89B707001093876A
:10301000D7103E950A05C205C1810CC182800D8979
:10302000B70700109387D7203E950A05C205C181D6
:103030000CC1C1B7411106C622C42E841DC98947DF
:103040006308F5069147630CF50699476300F50898
:10305000A1476304F508A9476309F508B147631060
:10306000F50291460146814513056002EFF07F832A
:1030700039A09146014681452145EFF09F82854761
:10308000630DF4068D476301F40895476305F40862
:103090009D47630AF408A547630EF408AD47630330
:1030A000F40AB5476308F40AB24022444101828021
:1030B0009146014681450145EFF0AFFEC9B7914603
:1030C000014681453D45EFF0CFFD55BF9146014694
:1030D00081451945EFF0EFFC5DB79146014681450A
:1030E00013056004EFF0EFFB59BF9146014681459F
:1030F00013054002EFF0EFFA59B7914601468145BA
:103100002545EFF00FFA4DB791460146814505453B
:10311000EFF02FF951BF914601468145130530026A
:10312000EFF02FF851B79146014681451D45EFF06C
:103130004FF79DBF91460146814513057004EFF09E
:103140004FF69DB791460146814513055002EFF0B9
:103150004FF599BF91460146814513057002EFF086
:103160004FF499B7011106CE22CC26CA4AC82A8448
:10317000AE84328931C58547630BF5048947630DF9
:10318000F5048D47630FF504CA852685EFF09FEAA5
:1031900085450545EFD09FBC91476389F404A1475D
:1031A000638AF40AA9476396F404AD476313F904EC
:1031B000854537151A0013050580EFD0DF9015A857
:1031C0008545056513050580EFD05FB975BF854559
:1031D0000545EFD09FBA4DBF85450945EFD0FFB9F2
:1031E00065B785451145EFD05FB979BF9547630B4A
:1031F000F9044800EFD09FF685472312F100FD57F0
:103200002314F100231501002313010023060100FC
:103210000A04A9679387470B3E9400404C0022851F
:10322000EFD07FC18146014689452285EFD05FFFFF
:1032300085452285EFD01FF4F2406244D2444249D2
:103240000561828085453705180013050530EFD0EC
:103250009F8745B7A547E31EF9F8854537151A003E
:10326000130505C0EFD03F8669B70A05A9679387A4
:10327000470BAA979C4303D54702420541858280AC
:103280000A05A9679387470BAA979C4323920702D5
:103290008280411106C622C426C24AC0AE8432844E
:1032A00036892DCDC1476303F508930700026318E3
:1032B000F50893068031054685451305D002EFF0E9
:1032C0004FDE8547638CF408C5476381F40A930792
:1032D00010026396F40A930680310546854513056E
:1032E000F002EFF00FDC8947630AF40AC947630F65
:1032F000F40A930720026304F40C93073002631965
:10330000F40C93060031054685454A85EFF06FD9E8
:10331000B2402244924402494101828093068031A6
:10332000054685451545EFF0CFD761BF930680313F
:103330000546854513053002EFF0AFD659B7B7A65D
:1033400000009386460D29661306460C9305D002AD
:1033500037A500001305850DEF50201D9306803121
:10336000054685451D45EFF0CFD3B5BF93068031A7
:103370000546854513055002EFF0AFD2ADB7B7A6AD
:1033800000009386460D29661306460C930520031C
:1033900037A500001305850DEF50201993068031E5
:1033A000054685451945EFF0CFCFA1BF9306803183
:1033B0000546854513054002EFF0AFCE99B7930659
:1033C0008031054685451305E002EFF08FCD15BF2E
:1033D000B7A600009386460D29661306460C930592
:1033E000800337A500001305850DEF5000143971D7
:1033F00006DE22DC26DA4AD84ED652D456D25AD02D
:103400002A84AE89328AB68A3A8BBE84428949C5FB
:1034100085476309F508DA865686D2854E85EFF032
:103420005FE723160100930740102317F1002318CC
:10343000010085476383F40893978401E187ADCB4E
:1034400089476382F4088D476385F4089307002059
:10345000231BF1000E09231C2101231D01009D47A0
:10346000231EF1000A0413858183229500416C001C
:103470002285EFD05F94C1476384F9068545228594
:10348000EFD01F99F2506254D2544259B259225A85
:10349000925A025B21618280854505650505EFD062
:1034A000FF8B95BF854511650505EFD01F8DA5B72D
:1034B00023190100231A010051BF23190100854778
:1034C000231AF10061B789472319F100231A01007B
:1034D000B5BF89472319F1008547231AF100BDB70D
:1034E00085450545EFD02FDE51BFAE96938781838A
:1034F0000A053E956387B6028505184183C7F5FF27
:103500002316F70083578700898BEDDF65D6835735
:103510008700858BEDDF8357C7002300F600050683
:10352000D1BF8280B7F700E023A007002382070005
:10353000A382070023830700A383070023840700D7
:10354000A384070023850700A3850700054798C3C8
:1035500037F700E081475443E39FB7FEE37DD5FE94
:103560008280411106C60DE585476385F500B240AE
:103570004101828093068031014685452545EFF063
:103580004FB29146014681452945EFF08FB1C5B74D
:1035900089476309F502C1476306F50493070002F2
:1035A0006310F50693068031014685451305A00298
:1035B000EFF02FAF9146014681451305B002EFF0C1
:1035C0004FAE75B7930680310146854513056002FD
:1035D000EFF02FAD91460146814513057002EFF0E3
:1035E0004FAC71B793068031014685450945EFF030
:1035F0004FAB9146014681450D45EFF08FAA85BF3F
:1036000093072002E315F5F69306803101468545C0
:103610001305A004EFF0EFA891460146814513057C
:10362000B004EFF00FA8A1B7797106D622D426D244
:103630004AD04ECE2A84AE89B28436898545054566
:10364000EFD0CFF1CA852685EFF0BFF189476381BE
:10365000F402930720026390F40293073002631C84
:10366000F9008545370514004105EFD0CFC521A0ED
:103670008D47630AF90429CC85476300F40689471E
:103680006303F4064EC02312010023130100231428
:10369000010023160100B1472315F1000A04A967B0
:1036A000938747103E9400408A852285EFD03FCD16
:1036B00085452285EFD03FDCB25022549254025906
:1036C000F2494561828085451145EFD0CFBF65B78E
:1036D00085451165EFD08FE875B785453705020040
:1036E000EFD0AFE945B7854537050400EFD0EFE8E7
:1036F00051BF0A05A96793874710AA979843835734
:10370000070093F70708E5DFC205C1812312B70060
:10371000828005CA411106C622C426C24AC02A892F
:103720002E84B384C50005048345F4FF4A85EFF079
:103730005FFCE39A84FEB240224492440249410174
:1037400082808280411106C622C426C22A84AE84A9
:1037500013172500A96793874710BA970546930565
:1037600050528843EFD03FD3A686014685451305C6
:103770005403EFF0EFADB240224492444101828005
:10378000411106C6B7170240DC43C983BD8B37170A
:103790007A0013070720B387E7023727F4001307DF
:1037A0000740BA9723A0F18685460146F1659385C7
:1037B00005200145EFF05FE7B24041018280011131
:1037C00006CE22CC26CA4AC84EC6B2896358C00269
:1037D000AE843389C500A96703A44710930500048C
:1037E0002285EFD05FD07DD985048385F4FFC205A3
:1037F000C1812285EFD0FFCDE31299FE4E85F240C4
:103800006244D2444249B249056182804111B717EE
:10381000024098431367170098C3D843B706FFF8D0
:10382000758FD8C39843B706F7FEFD16758F98C3FA
:103830009843B706FCFFFD16758F98C3D843B706AB
:1038400081FFFD16758FD8C337079F0098C702C444
:1038500002C69843C166558F98C337160240B70613
:103860000200130700501C42F58F3EC6A247850791
:103870003EC4B24781E7A247E397E7FEB71702408D
:103880009C431397E700635A070085473EC63247BB
:1038900085476306F7004101828002C6CDBFB72786
:1038A000024098431367070198C39843719B98C3DC
:1038B00098431367270098C3B7170240D843D8C36B
:1038C000D843D8C3D843D8C3D843B706C1FFFD16E1
:1038D000758FD8C3D843B7062500558FD8C39843F2
:1038E000B7060001558F98C3371702401C439396C3
:1038F0006700E3DD06FEB7170240D843719BD8C3CB
:10390000D84313672700D8C3B71602402147DC42CB
:10391000B18BE39EE7FE41B7011106CE22CC26CA49
:103920004AC84EC652C456C283C9918003C581801D
:1039300033053541EF40607DB7A7000083A54711EF
:10394000EF303053AA8AB72400209384446E014498
:10395000130AC0032285EF40407BD685EF40A00DBF
:103960002A894E85EF40607AAA854A85EF30D019C2
:10397000EF4040742380A40005048504E31C44FD4B
:1039800083C9B18003C5A18033053541EF40E0779D
:10399000B7A7000083A58711EF30B04DAA8AB724DE
:1039A0000020938404720144130A00052285EF402D
:1039B000C075D685EF4020082A894E85EF40E07417
:1039C000AA854A85EF305014EF40C06E2380A400D2
:1039D00005048504E31C44FDF2406244D24442499C
:1039E000B249224A924A0561828037280020130892
:1039F000486E372500201305C57C85689388082C00
:103A0000AA98B72E0020130EC00B37030020130313
:103A100003220346080093870E7293850705AA8642
:103A20003306C6031A9603C70700329703470700F9
:103A30002380E60085078506E397B7FE0508130592
:103A40000505E31815FD8280411106C61145EFE01A
:103A50009FB31945EFE03FB32145EFE0DFB22545C5
:103A6000EFE07FB2B24041018280411106C61546A7
:103A700091451145EFE05FC02392A186154691451F
:103A80001945EFE07FBF2393A18615469145214557
:103A9000EFE09FBE2394A186154691452545EFE0B2
:103AA000BFBD2395A186B2404101828083D7418664
:103AB00003D76186BA9703D78186BA9703D7A186C1
:103AC000BA9779476345F70005472380E1908280E4
:103AD000011106CE22CC26CA4AC84EC652C41307CC
:103AE000A0F62396E186EFF05FF8130AA00519A06F
:103AF000EFF0BFF783D7418603D76186BA9783D6A5
:103B0000818603D7A1863386E600E353F6FEB69797
:103B1000BA97E35FFAFC239601861307200D2397DB
:103B2000E1860547238FE186F2406244D244424950
:103B3000B249224A05618280797106D622D426D202
:103B40004AD04ECE52CC56CA5AC85EC6EFE05FF796
:103B5000EFF01FC383A701860967130707F4B3D7E4
:103B6000E7021305C0123385A7028145EFF09F9B42
:103B70000D22512A13068004A1450145EFE03FE7DD
:103B80008546054685455945EFE09FEC8545094545
:103B9000EFF05FBB85460146814513057003EFE0FA
:103BA0003FEBEFF07FEAEFE08FBBEFF0FFD6014590
:103BB000EFE0DFF3EFF0DFF1B7AB0000B7AA0000F2
:103BC000B7A90000B7A40000EFF03FEAEFF01FEE46
:103BD0001386CB1181450145EFD0DFE80396C186FE
:103BE000814513050006EFD0DFF613864A1285459E
:103BF0000145EFD03FE70396E186854513050006B2
:103C0000EFD03FF51386C91289450145EFD09FE5F6
:103C100003960187894513050006EFD09FF31386AD
:103C200044138D450145EFD0FFE303A5418FEF40DD
:103C30000067894709472A86AE868D451305000629
:103C4000EFD0FFFC37A6000013064614914501454E
:103C5000EFD05FE103A5C18FEF406064894709475A
:103C60002A86AE86914513050006EFD05FFA37A687
:103C700000001306C61495450145EFD0BFDE03C60C
:103C8000019062066186954513050006EFD05FE25C
:103C900025BF411106C61D28EFD0DFAA93061002EA
:103CA00013060002B7150700938505800945EFF05C
:103CB000BF97154691450545EFF0CFCA2D46A9455A
:103CC0000945EFF02FCAB24041018280411106C67A
:103CD000930680040146814513058004EFE07FBC14
:103CE000930680040146814513059004EFE07FBBF5
:103CF000930680040146814513052002EFE07FBA58
:103D0000B24041018280411106C622C493060031AF
:103D1000014685451305A004EFE0BFB801461164D4
:103D20009305842613050030EFF06F87930600316A
:103D3000014685451305B004EFE0BFB60146930583
:103D4000842613051030EFF08F859306003101466D
:103D500085451305C002EFE0DFB4014693058426D4
:103D600013052030EFF0AF839306003101468545FF
:103D70002145EFE01FB3014693058426130530303B
:103D8000EFF0EF81B240224441018280011106CE62
:103D900022CC26CA4AC84EC6AA893689B305B04085
:103DA00093940501C1843306C04013140601418475
:103DB0006356A00681451305A004EFE0BFBFCE8582
:103DC00013050030EFF00F9E6358900681451305F0
:103DD000B004EFE03FBEA68513051030EFF08F9CD6
:103DE000635A800681451305C002EFE0BFBCA2857F
:103DF00013052030EFF00F9B635C200781452145C0
:103E0000EFE05FBBCA8513053030EFF0AF99F240A9
:103E10006244D2444249B249056182808545130516
:103E2000A004EFE03FB9896593850571CE95130530
:103E30000030EFF02F9749BF85451305B004EFE040
:103E40007FB7896593850571A69513051030EFF04E
:103E50006F9579B785451305C002EFE0BFB5896559
:103E600093850571A29513052030EFF0AF9369B7E4
:103E700085452145EFE01FB4896593850571CA9595
:103E800013053030EFF00F9259B7397106DE22DC9E
:103E900026DA4AD84ED652D456D25AD05ECE62CC0A
:103EA00066CA6AC86EC642054181C205C181330A2D
:103EB000B500420A135A0A0142064182330BCA0076
:103EC000420B135B0B41239B6187898DC205C18126
:103ED000B38AC540C20A93DA0A41239C5187330A48
:103EE000CA40420A135A0A41239D4187B2959399C9
:103EF000050193D90941239E31870395418783D5D5
:103F0000E18E03D6C18E9387F18703C7070093160E
:103F100017003727002013070777369783D62187A6
:103F20002310D70003C70700931617003727002078
:103F30001307477836972310A70003C70700931687
:103F40001700372700201307877936972310B7000B
:103F500083C7070013971700B72700209387C77AF6
:103F6000BA972390C70083C7018893F7F70F1147CB
:103F7000636BF7001387018883470700850793F772
:103F8000F70F2300F7009387F18703C707000507A2
:103F90001377F70F2380E70083C7070093F7F70F26
:103FA00011476374F700A38F01863727002013079A
:103FB00007778357270083560700B6978356470035
:103FC000B69703556700AA9703558700AA97C207BB
:103FD000C1872392F18E37270020130747780359B2
:103FE0002700835607003699835647003699835633
:103FF00067003699035787003A99420913590941D6
:104000002393218F372700201307877983542700B4
:1040100083560700B69483564700B69483566700CC
:10402000B69403578700BA94C204C1842394918E36
:10403000372700201307C77A035427008356070049
:104040003694835647003694835667003694035758
:1040500087003A94420441842395818E938B018892
:1040600003C50B001375F50F33C5A702EF40E00938
:104070002A8D23A2A18C03C50B001375F50F3345C0
:10408000A902EF408008AA8C23A4A18C03C50B00D1
:104090001375F50F33C5A402EF4020072A8923A624
:1040A000A18C03C50B001375F50F3345A402EF4037
:1040B000C0052A8C23A8A18C5A85EF400005EA850B
:1040C000EF30B040AA8423AAA1881384418A032D2B
:1040D0000400EA85EF30703F83A5C181EF30B01551
:1040E0002A8B83A5C1802685EF30F014AA855A85D6
:1040F000EF3080212A8BEA856A85EF30E020AA859F
:104100002685EF30903C938B418B83A50B00EF30DD
:10411000A01F83A54188EF301012AA855A85EF3081
:10412000A01E938D418D83A50D00EF30E01D2A8BDD
:1041300023A0AD0023A0AB0104C05685EF30F07C76
:10414000E685EF309038AA8423ACA1881384818A55
:10415000832C0400E685EF30503783A50182EF30D1
:10416000900DAA8A83A501812685EF30D00CAA85FF
:104170005685EF306019AA8AE6856685EF30C0184B
:10418000AA852685EF307034938B818B83A50B0035
:10419000EF30801783A58188EF30F009AA85568516
:1041A000EF308016138D818D83250D00EF30C01503
:1041B000AA8A2320AD0023A09B0104C05285EF30C2
:1041C000D074CA85EF307030AA8423AEA1881384DE
:1041D000C18A032A0400D285EF30302F83A54182A3
:1041E000EF3070052A8983A541812685EF30B00420
:1041F000AA854A85EF304011AA8BD2855285EF30CF
:10420000A010AA852685EF30502C1389C18B8325F9
:104210000900EF30600F83A5C188EF30D001AA8577
:104220005E85EF30600E938CC18D83A50C00EF305E
:10423000A00DAA8B23A0AC002320490104C04E8509
:10424000EF30B06CE285EF305028AA8423A0A18A19
:104250001384018B83290400CE85EF30102783A5BA
:104260008182EF30407D2A8983A581812685EF30C8
:10427000807CAA854A85EF3020092A8ACE854E8522
:10428000EF308008AA852685EF3030241389018C11
:1042900083250900EF30400783A50189EF30A0791D
:1042A000AA855285EF304006138A018E83250A00C5
:1042B000EF3080052A8C2320AA002320390104C076
:1042C000B7A7000083A587155A85EF30A065635511
:1042D000A00C37A700000327871523AAE18CB7A7F6
:1042E000000083A587155685EF30C0636356A00C88
:1042F00037A700000327871523ACE18CB7A7000080
:1043000083A587155E85EF30E0616357A00C37A762
:1043100000000327871523AEE18CB7A7000083A513
:1043200087156285EF3000606358A00C37A7000046
:104330000327871523A0E18E03A5018EEF3070516E
:10434000131905011359094103A5C18DEF307050B0
:1043500093140501C18403A5818DEF30904F131490
:104360000501418403A5418DEF30B04ECA862686F3
:10437000A28542054185EFF07FA1F2506254D254EC
:104380004259B259225A925A025BF24B624CD24CB9
:10439000424DB24D21618280B7A7000083A5C715A9
:1043A0005A85EF308060E35C05F237A700000327F1
:1043B000C71523AAE18C25B7B7A7000083A5C715A9
:1043C0005685EF30805EE35B05F237A700000327D8
:1043D000C71523ACE18C1DB7B7A7000083A5C7158F
:1043E0005E85EF30805CE35A05F237A700000327B3
:1043F000C71523AEE18C15B7B7A7000083A5C71575
:104400006285EF30805AE35905F237A70000032791
:10441000C71523A0E18E0DB79386318F03C6060022
:10442000130716001377F70F2380E600B727002045
:104430009387077CB2972380A70085476306F7021E
:10444000AD476312F70205472389E18EB7270020A5
:1044500003C7A77C9307E00E6306F7020D47238985
:10446000E18EA389018E8280B727002003C7077CD5
:104470009307800DE309F7FEA389018E094723897D
:10448000E18E828005472389E18EE1BF0347150055
:104490009307000B630FF700034745009307100BCA
:1044A0006304F702034775009307200B6309F702C3
:1044B000828083472500A20703473500D98FC207B2
:1044C000C1872396F18EC9BF83475500A2070347D2
:1044D0006500D98FC207C1872397F18EE1B7834763
:1044E0008500A20703479500D98FC207C18723988B
:1044F000F18E7DBFB7470020938787AC3707002038
:10450000130747051386C70393060005238007009A
:104510002300D70085070507E39AC7FE82801D7137
:1045200086CEA2CCA6CACAC8CEC6D2C4D6C2DAC06B
:104530005EDE62DC66DA6AD86ED6FD57A30FF10044
:10454000230FF100374A0020130AFAAF3749002041
:10455000130939ACB70900209389B9089304700393
:104560008D473EC28D4C372B0020130BCB7C214C4A
:10457000930B0005854DB7470020938787AC3EC459
:10458000094DB7070020938747053EC625A412466C
:10459000630406248D456300B60413978401618784
:1045A00013064003634EE60A038516003385A740D1
:1045B000EF30B035AA85EF2030552AC00305190029
:1045C000EF30B034AA850245EF201054EF30702848
:1045D0002300A9006DAA63DAED06B2489375F70FC0
:1045E0001386E5FF6206618663D1CD063288338586
:1045F000C80003050500631475013287C5B763D68B
:10460000ED0413162700329712075A9703476704E1
:104610001305F00F631BA702131728004297120718
:104620005A97034767046319A7021387C5FF6207F8
:10463000618763D5ED0213162700329712075A9748
:104640000347670402C26317A70012473337E0002D
:104650003AC2A1B76EC2D5BF6AC2C5BF6EC2F5B7B6
:10466000138707059357F701BA9785872300F90049
:10467000EDA0CE850386090063027617638A0C0ECF
:104680008D466380DC0493978401E1871307400320
:10469000634FF70A038515003305A640EF30F02677
:1046A000AA85EF2070462AC003051900EF30F025D7
:1046B000AA850245EF205045EF30B0192300A9002C
:1046C000F9A093968401E18663DADD06224313752F
:1046D000F70F9306E5FFE206E18663D1DD06B688B3
:1046E0003308D30003080800631408003687C5B7F1
:1046F00063D6ED0493162700369712075A9703479F
:10470000A7001308F00F631B0703139728004697B1
:1047100012075A970347A700631707031307C5FF3C
:104720006207618763D3ED0293162700369712075D
:104730005A970347A700BE8C63150701B33C90014D
:1047400099B7EE8CE5BFEA8CD5BFEE8CC5BF935709
:10475000F601B29785872300F900030709009397B4
:104760002A00D6979207DA97BA97238007003DA8C8
:10477000038709009306D00463C2E6060385090097
:10478000AA9713D5F7013E9505852300A9000307D5
:10479000090093972A00BE9A920ADA9ABA9A23805D
:1047A0000A007D146204618463518C047D1A7D19B2
:1047B000FD14FD1913F4F40F139784016187A68A81
:1047C000D28683070A00E38607EA03860900E3002E
:1047D00076DDE345FDFA69BFE342FDFA8347F10167
:1047E000930780022300F9005DB7F6406644D64483
:1047F0004649B649264A964A064BF25B625CD25C51
:10480000425DB25D25618280A3870190238F019074
:1048100023880190A38F01901387E1902300070064
:104820009387D19123800700A38801902380019270
:104830002389019023000700238007002380019033
:1048400023810192238601901307D004238EE190E7
:10485000A3860190A3890190A38001928280B7274B
:1048600000201387C77C8567BA977D57A383E72409
:104870002384E724238CE728A38BE71E2382E724E5
:104880002383E71AA38AE7142382E71AA389E71E82
:10489000A381E724A389E7288280197186DEA2DC40
:1048A000A6DACAD8CED6D2D4D6D2DAD0DECEE2CCF0
:1048B000E6CAEAC8EEC6B74700209387C7A87D5767
:1048C00098C3D8C398C7D8C798CBD8CB98CFD8CFE0
:1048D00098D3D8D398D7D8D798DBD8DB98DFEFF028
:1048E0007FC1EFF0DFF7EFF03FF2A3870190238F56
:1048F0000190A30F0102230F010213077003A3808D
:10490000E1908387C1903ECC038601918387C1915A
:104910003ECA8385F191B7470020138C47949309D1
:104920007003814D014A814302D4014D0149014484
:1049300002D21308F00F914EB7470020938787AC3F
:104940003EC6B7070020938747053EC89302D004B0
:1049500085488144B72700209387C77C3ED6E9A4C9
:104960008346070A99E6834607F681E683462700D1
:1049700089CA050662066186C68363D4CE00C68DE9
:10498000268A85070507638057121395870161857D
:1049900083460700E38606FDE9FE138317001A8F9E
:1049A00083461700E39706FD83462700E39306FD41
:1049B00083464700E39F06FB83465700E39B06FBC5
:1049C0009306400363D9560193968701E186130E3F
:1049D00080026358DE0263C4670163DEFC0883461D
:1049E000F10393F6F60FC1EA83862F000945E34AE7
:1049F000D5F883862B00E3D6D2F88546A30FD102E3
:104A000049B79307800263C1670493972900CE9743
:104A1000920785079A973257BA971307900211A009
:104A20008507050F6302EF0203C30700E31A03FEC5
:104A300003C31700E31603FF83C62700E39206FFB4
:104A400013158F016185E9BFB2477247BA9723807A
:104A5000A7009387E19005472380E700050A620AD3
:104A6000135A8A4163D44E01854301462ACC854DB1
:104A700085473ED40DA8B2477247BA972380A70056
:104A80009387E19005472380E700050A620A135ADD
:104A90008A4163D44E0185430146A30F01022ACC0B
:104AA000854D85473ED4D247938BB7FF938C5700F3
:104AB00062859307D004139B8901135B8B413247B6
:104AC000B30A370142474E973AD00D4F15A8034716
:104AD000550A19E7034755F601E70347350009CBA7
:104AE0008505E205E185468463D4BE00468D2689AE
:104AF0001307FEFF62076187FD177D156380E713CB
:104B000013FEF70F139787016187BE8F8346550009
:104B1000E38F06FBF1F683464500E39306FD8346EB
:104B20003500E39F06FB83461500E39B06FB8346A7
:104B30000500E39706FB9306400363D9660193964D
:104B40008701E186130370026349D30263C47F01C6
:104B500063DEFC098346E10393F6F60FC1EA03879F
:104B60002A008946E3C6E6F8025703072700E3D187
:104B7000E2F80547230FE102A5BF9306700263D058
:104B8000F60493962900CE969206B697B256B6973B
:104B90009306700229A0FD1FFD176382DF0203C385
:104BA0000700E31A03FE03C3F7FFE31603FF03C581
:104BB000E7FFE31205FF13978F016187E9BFC24743
:104BC000F246B6972380E7009387D19185462380EC
:104BD000D700050962091359894163D42E010544A0
:104BE00081453ACA054D85473ED20DA8C247F246D7
:104BF000B6972380E7009387D19185462380D7001D
:104C0000050962091359894163D42E010544814580
:104C1000230F01023ACA054D85473ED2FD19130CF8
:104C20000CFB8547638EF9029387E1902380070090
:104C30009387D19123800700E247138BB7FF938CB2
:104C4000570013079CFB85474ECE939A890193DA50
:104C50008A41B246B38F3601C246B38B360135B3B3
:104C60002381E1909257A1E719C0A38FB19063040B
:104C70000D00238F2191A2579DEF638403002388A9
:104C8000C19063840D00A38741910547A380E19003
:104C9000F6506654D6544659B659265A965A065B6B
:104CA000F64B664CD64C464DB64D09618280524754
:104CB000238EE19055BF62472386E1907DBF397115
:104CC00006DE22DC26DA4AD84ED652D456D25AD044
:104CD0005ECE05051374F50F850513958501618575
:104CE000EF20605B2A89AE89131584016185EF206E
:104CF000805A2A84AE84B7A7000003A6071683A6AD
:104D000047164A85CE85EF1030132A8AAE8AB7A798
:104D1000000003A6871683A6C7162285A685EF1076
:104D2000B0112A86AE865285D685EF00D025B7A76A
:104D3000000003A6071783A64717EF00D0242A8A8E
:104D4000AE8AB7A7000003A6871783A6C7174A85B0
:104D5000CE85EF10700E2A8BAE8BB7A7000003A68E
:104D6000071883A647182285A685EF10F00C2A861F
:104D7000AE865A85DE85EF001021B7A7000003A696
:104D8000871883A6C718EF10B0565286D686EF1044
:104D90008012EF30805B2A8BB7A7000003A60719AB
:104DA00083A647194A85CE85EF1010092A89AE8956
:104DB000B7A7000003A6871983A6C7192285A68571
:104DC000EF1090072A86AE864A85CE85EF00B01B8D
:104DD000B7A7000003A6071A83A6471AEF00B01A68
:104DE0005286D686EF10200DEF302056AA855A85C0
:104DF000F2506254D2544259B259225A925A025B2A
:104E0000F24B21618280797106D622D426D24AD013
:104E10004ECE52CCB74400209384C4A8838574033B
:104E200013057003EFF0BFE91384418F08C04CC035
:104E30008385A4021305A002EFF07FE82AC42EC6E2
:104E4000AA8483294400CE853245EF2010682A8445
:104E5000EF30E044B7A7000003A6071B83A6471B5B
:104E6000EF10207263560500B7A7000003A4871A4D
:104E700003A9418FCA852685EF203065A285EF20E2
:104E8000407FEF30C041D92BB7A7000003A6871B96
:104E900083A6C71BEF10407AB7A7000003A6071C24
:104EA00083A6471CEF102001EF30204AAA8423AECE
:104EB000A18E138441910C404A85EF20106183A597
:104EC0004190EF2050372A8A83A5C1824A85EF207E
:104ED0009036AA855285EF202043EF308017239625
:104EE000A18623203401138481910C402685EF2074
:104EF000D05D83A58190EF2010342A8983A501839A
:104F00002685EF205033AA854A85EF20E03FEF3019
:104F100040142398A18604C0B250225492540259DE
:104F2000F249624A456182801301019B2326116484
:104F3000232481642322916423202165232E31635D
:104F4000232C4163232A5163232861632326716341
:104F500023248163232291632320A163232EB16143
:104F600013060020814513050141EFB06F9D130624
:104F7000004081450808EFB0AF9CB725002093851D
:104F8000C57C13860537856793870731BE95130760
:104F900006FB8347070093F7C70F86079306016157
:104FA000B69783D607E085062390D7E00507E3127E
:104FB000C7FE13060605E31CB6FC930401412687D1
:104FC000814581471304F00F014A0545130600107F
:104FD00011A899E113FAF70F9107C207C1832107BE
:104FE0006389C70083560700EDD613F4F70FAA852F
:104FF000E5B793090101138C04200149130B00004C
:10500000B7A7000083AB871C03D50400EF30401C1A
:10501000DE85EF200066AA8A23A0A9004A85EF302A
:10502000C00ED685EF203021AA855A85EF20C02DED
:105030002A8B1109A104C109E3189CFCEF308007F9
:105040001377F50F420A135A0A014204418063752F
:105050008A12D2870146814501498149420741832D
:105060000DA09396170013050161AA9683D606E05A
:105070003696B386F60236999107C207C18363FE5E
:105080008736E3F0E7FE9396170013050161AA96B1
:1050900083D606E0B695B386F602B699F1BF93972C
:1050A000240013070161BA9783A707A03EC6BE85F7
:1050B0006685EF206025AA8C2685EF300005B24575
:1050C000EF207017AA856E85EF200024AA8D8DA889
:1050D0009397240013070161BA9783A707A03EC4E2
:1050E000BE855685EF204022AA8A2685EF30E00152
:1050F000A245EF205014AA855E85EF20E020AA8B00
:105100009104C204C18063F4840826C4E36999F859
:105110009397240013070161BA9783A707A03EC69F
:10512000BE856285EF20401E2A8C2685EF20F07D0B
:10513000B245EF205010AA856A85EF20E01C2A8D29
:10514000A247E3E7F9F89397240013070161BA97A0
:1051500083A707A03EC4BE851245EF20E01A2AC2ED
:105160002685EF20907AA245EF20F00CAA855A857B
:10517000EF2080192A8B69B701498149930D0000FE
:105180006E8DEE8C6E8CEE8B6E8BEE8A6EC2DE8533
:105190005A85EF206017AA84EE856A85EF20C01635
:1051A0002AC492455A85EF20C04CA685EF20F031E5
:1051B0002A8BD6855E85EF20C04BA685EF20F03088
:1051C000AA8492455A85EF201007DA85EF20B006B1
:1051D0002A8BD6852685EF201006A685EF20B00500
:1051E000AA855A85EF2040122AC2E2856A85EF20FF
:1051F0004048A244A685EF20502DAA8AE6856E85F8
:10520000EF202047A685EF20502CAA84E285568502
:10521000EF207002D685EF201002AA8AE685268547
:10522000EF207001A685EF201001AA855685EF209A
:10523000A00D2AC493FCF90F137CF90F93F9F90F11
:105240001379F90FB38A290193DA1A003309394126
:10525000A14752C6214B63C9271913F5FA0F8320C2
:10526000C164032481648324416403290164832984
:10527000C163032A8163832A4163032B0163832B68
:10528000C162032C8162832C4162032D0162832D54
:10529000C1611301016582809397240013070161A6
:1052A000BA9703A907A0CA855E85EF20E005AA8BFF
:1052B0002685EF209065CA85EF20E077AA856E8568
:1052C000EF208004AA8D9104C204C18063FE84088B
:1052D000E3E49AFC9397240013070161BA9703A9AA
:1052E00007A0CA854E85EF202002AA892685EF20D7
:1052F000D061CA85EF202074AA856A85EF20C0009E
:105300002A8DD1B72249CA852685EF20A061634C3A
:105310000500CA851245EF20E0606346050013FCD6
:10532000FA0F26C455A89249CE852685EF20E0675E
:105330006344A00A2249CA852685EF200067634D91
:10534000A008CA854E85EF20E05D6346050013FC8A
:10535000FA0F26C451A093FCFA0F26C2B5A8930DEC
:1053600000006E8DEE8BEE89EE856A85EF10D079A8
:10537000AA84CE856A85EF20C02FA685EF20F01481
:105380002A89DE856E85EF20C02EA685EF20F013DA
:10539000AA84CE854A85EF20006ACA85EF20A069DD
:1053A0002A89DE852685EF200069A685EF20A06882
:1053B000AA854A85EF105075AA841249CA85EF2044
:1053C0006056E34105F4A2454A85EF20005EE34BB9
:1053D000A0F293FCFA0F26C2B38A8C0193DA1A006A
:1053E000B3079C41E35BFBE6E37B8AF6B244930D93
:1053F00000006E8DEE8BEE89E1BDB3D9B902335951
:10540000C902D284930D00006E8DEE8C6E8CEE8BF3
:105410006E8BEE8A6EC2D5B9411106C6EFF0DFB0D1
:10542000372600201306C67C9306060585679387FA
:1054300007313E96138706FB83470700B337F50015
:10544000B307F0402300F7000507E317D7FE938664
:105450000605E391C6FEB2404101828079714AD0CF
:105460001399150022D426D256CA06D64ECE52CC57
:105470005AC85EC613591900B70710442E84AA846F
:10548000AE8A6346F904B707F07F63CE2701630B4A
:10549000F9006353501F975700009387A7D38443A5
:1054A000C04309A87DD526862685A286A285E12C43
:1054B000AA842E84A285B250225426850259925481
:1054C000F249624AD24A424BB24B45618280B707E9
:1054D000DC3F6351F91CB707203E634DF9167D5A36
:1054E0002686A2862685A285EF1000152A86AE861E
:1054F0002A8BAE8BEF10401497570000938787D00C
:105500009043D4432A89AE89EF10001397570000C7
:105510009387C7CF9043D443BD244A86CE86EF10ED
:10552000A011975700009387E7CE9043D443A12C56
:105530004A86CE86EF10401097570000938707CE1B
:105540009043D44389244A86CE86EF10E00E9757C5
:105550000000938727CD9043D44335244A86CE86D6
:10556000EF10800D97570000938747CC9043D443AA
:10557000192C5A86DE86EF10200C9757000093876F
:1055800067CB9043D4432A8BAE8B4A85CE85EF10F0
:10559000A00A97570000938767CA9043D443EF103F
:1055A00020554A86CE86EF10200997570000938732
:1055B00067C99043D443EF10A0534A86CE86EF10BC
:1055C000A00797570000938767C89043D443EF1014
:1055D00020524A86CE86EF10200697570000938708
:1055E00067C79043D443EF10A0504A86CE86EF1091
:1055F000A0042A86AE865A85DE8571222686A2867A
:10560000EF108003FD572A86AE86630EFA060E0A57
:1056100097570000938787C6D2979043D4439757F4
:1056200000009387A7C33E9AEF10804C2686A2867F
:10563000EF10004C2A86AE8603250A0083254A0017
:10564000EF10004BAA842E84E3D60AE637040080CC
:105650002D8C8DB5975700009387C7B89043D443DE
:105660001D22975700009387E7B09043D443EF0083
:105670007066E356A0E63DBD97570000938707B6D6
:105680008443C04305BD2685A285EF106046AA84E9
:105690002E840DB5F520B707F33F2A84AE846356F8
:1056A000F904B707E63F6359F90A2A86AE86E1286E
:1056B00097570000938707AC9043D443014AEF10FB
:1056C000204397570000938767B29043D4432A89B9
:1056D000AE892285A68545282A86AE864A85CE854E
:1056E000EF00607DAA842E84E5BBB7870340635733
:1056F000F904175900001309E9AF032609008326AE
:105700004900094AEF10C03E0326090083264900DC
:105710002A8BAE8B2285A685EF001072975700006A
:10572000938747A59043D443B9282A86AE865A85E5
:10573000DE85EF004078AA842E845DB39757000081
:105740009387C7AB8843CC432286A686EF00A0761A
:105750000D4AAA842E8469B317590000130989A140
:105760000326090083264900054AEF1060382A8B7A
:10577000AE8B03260900832649002285A6856DB7D6
:105780008605858182803708100001117D183377E6
:10579000B80026CA3378D80093D4450113D3460104
:1057A000131E37004EC61357D5010E089357D60166
:1057B00093F4F47F1373F37F06CE22CC4AC893D9B7
:1057C000F50193DEF6013367C701131F350033E897
:1057D0000701931F3600338E64406380D9196356E6
:1057E000C0136304031CB70680009307F07F33687F
:1057F000D800638FF4369307800363C0C735FD4735
:1058000063CDC747130500023305C541B3D7CF01A8
:10581000B316A8003399AF00DD8E33392001B3579A
:10582000C80133E926011D8F33092F41B3372F01FA
:105830003306F7409317860063D4072437078000A8
:105840007D173374E600630C042C2285EF2090460C
:10585000130785FF93070002998FB357F90033169A
:10586000E400D18F3319E9006341972A330597404B
:10587000130615007D47634DC73813070002118FCB
:10588000B356C9003319E9003397E700558F333910
:1058900020013369270133D6C7008144937779000B
:1058A00081CF1377F90091476308F7001307490088
:1058B000333927014A963A899317860063D6071C25
:1058C000138514009307F07FCE856304F520B70796
:1058D00080FFFD17F18F9398D70113593900A60760
:1058E000B3E82801B1831375F57F9396C70052057D
:1058F000F2406244B182FE05C98ECD8ED244424947
:10590000B2494685B68505618280631E0E0A1383FF
:1059100014001373E37F63170322B367E701B368CF
:10592000F801639D041A63870740638608443309BE
:10593000FF41B307074133362F013386C740931722
:10594000860063D6074C3389EF41B307E84033B68E
:105950002F013386C740F68991B76350C00F6300AB
:10596000030CB70680009307F07F3368D800638A82
:10597000F43A9307800363CBC713FD4763DFC73552
:1059800013090EFE93070002B3562801630AFE00B6
:10599000130900043309C94133192801B3EF2F015A
:1059A0003339F0013369D90031A2B367F801638A52
:1059B000071C9307FEFF638C07389306F07F63098B
:1059C000DE1A3E8E0DBDB305934063910422B3678A
:1059D000E701638707329387F5FF638107449306E6
:1059E000F07F638CD520BE859307800363CCB72AF4
:1059F000FD4763CFB73C930700028D8F3319F70043
:105A0000B356BF00B317FF003369D900B337F000B6
:105A10003357B7003369F9003308E84041ACB36746
:105A2000F801638007349307FEFF638A072093061B
:105A3000F07F6308DE2E3E8E2DBF631E0E1493860C
:105A4000140093F7E67F63910734B367E70163952A
:105A5000042C6380073EB367F801638E0730330977
:105A6000FF01B3070701333FE9013386E7019317CD
:105A7000860063D70700B70780FFFD177D8E85443A
:105A800093777900E39F07E09317D6019358390085
:105A9000B3E8F800935736001307F07F638DE404F2
:105AA000B207B18313F5F47FCE8581B53369F80170
:105AB000333920017A99B337E9013386E700931728
:105AC0008600E3DF07FA85049307F07F6396F418F6
:105AD000CE851305F07F8147814801BDC1EB63840A
