:100000006F006046130000001300000013000000A2
:100010001300000013000000130000001300000094
:100020001300000013000000130000001300000084
:08003000130000007300100032
:100038006FF09FFC000000006F0000416F0000415E
:1000480000000000000000000000000000000000A8
:100058000000000000000000000000000000000098
:100068006FF09FF9000000006FF01FF9000000001A
:100078006FF09FF86FF05FF86FF01FF86FF0DFF721
:100088006FF09FF76FF05FF76F0080156F008015B6
:100098006F0080186F00C0186F00C0186FF0DFF590
:1000A8006FF09FF56FF05FF56F00E0366FF0DFF4EB
:1000B8006FF09FF46FF05FF46F008017000000008E
:1000C8000000000000000000000000006F00C015E4
:1000D8006F0040166F0080186F00801A6F00001FB5
:1000E8006F0040266F0080276F0040296FF0DFF017
:1000F8006FF09FF06FF05FF06FF01FF06FF0DFEFC1
:100108006FF09FEF6F00402C6F00402C6F00603045
:100118006F00C0116FF05FEE6FF01FEE6FF0DFED54
:1001280000000000000000000000000000000000C7
:080138000000000000000000BF
:100140003D432A876373C3029377F700BDEFADE5A4
:10015000937606FF3D8ABA960CC34CC30CC74CC7B6
:100160004107E36BD7FE11E28280B306C3408A06E3
:100170009702000096966780A6002307B700A306A3
:10018000B7002306B700A305B7002305B700A304F3
:10019000B7002304B700A303B7002303B700A302EB
:1001A000B7002302B700A301B7002301B700A300E3
:1001B000B7002300B700828093F5F50F9396850072
:1001C000D58D93960501D58D61B79396270097023B
:1001D000000096968682E78086FA9680C1171D8F6A
:1001E0003E96E374C3F8A5B7730020300945352661
:1001F00085476304F50073002030B707002083A70C
:10020000470709476388E70005476388E700094512
:100210001D26D5B7EF10605FDDBFEF10601AC5BFB8
:100220001145112E730020307300203073002030F0
:1002300073002030730020307300203093050008D5
:1002400037350140130505C0EF00900119E1730037
:1002500020309305000837350140130505C0EF0035
:10026000F001F5B7854537350140130505C0EF00AE
:10027000207F19E173002030854537350140130593
:1002800005C0EF00A07FFDB793050004373501409E
:10029000130505C0EF00C07C01ED93050002373562
:1002A0000140130505C0EF00A07B01ED7300203075
:1002B0009305000437350140130505C0EF00007CAD
:1002C000E9BF9305000237350140130505C0EF0073
:1002D000E07AE9BF894537350140130505C0EF00D5
:1002E00020780DE9914537350140130505C0EF0031
:1002F000207705E9A14537350140130505C08D2755
:1003000005E9C14537350140130505C0912F05E9C1
:1003100073002030894537350140130505C0B92FDA
:10032000D1B7914537350140130505C0812FD9B7A5
:10033000A14537350140130505C08927D9B7C14507
:1003400037350140130505C0152FD9B78545370549
:100350000040392719E173002030854537050040FA
:10036000312FD5BF85453705004013050540CD2DFC
:1003700019E173002030854537050040130505401D
:10038000F52DC5BF411122C626C48545371500404D
:1003900013050580F12511E53244A24441017300A3
:1003A000203085453715004013050580C12D956720
:1003B00003A40705854404C8EF208026EF20802A87
:1003C00045469385C1850945EF10706444C8E9B777
:1003D0007300203093055052374500401305054007
:1003E000EF00607D19E173002030930550523745CE
:1003F000004013050540EF00D000B707002083A799
:10040000470709476388E7000547E39EE7FCEF00DD
:100410003076D1BFEF10603AF9B77300203009652C
:10042000C12085476304F500730020300965C928A1
:10043000B707002083A7470709476388E7000547F8
:10044000E394E7FEEF003079C5B7EF10603DE9BFF8
:100450007300203001A0411106C6EF10B0770145AE
:10046000B24041018280970100209381A140175141
:100470000020130121B917550000130565EB9705FE
:100480000020938525B81386018263FAC500832274
:10049000050023A0550011059105E3EAC5FE13856B
:1004A0000182938541876377B500232005001105FC
:1004B000E36DB5FE9302800873A00230970200003E
:1004C0009382C2B793E2120073905230EF10D05F64
:1004D00097020000938262F8739012347300203008
:1004E0009317350063DA0700B707024083A7074078
:1004F0007D8D3335A0008280B70702409C43CDBF7D
:100500009317350063D70700B707024023A2A7401F
:100510008280B7070240C8C3828037070140832723
:10052000074003274741698F09C77D8D3335A000F8
:10053000828001458280B707014023AAA7408280BC
:100540009C4593F8F700C18B81C7DC41B3E8F80004
:1005500083C70500A9CB10418147054E3D4F930E3F
:100560008002930F8004214329A054C98507638B1F
:100570006702B316FE0003D70500758FE398E6FE09
:10058000139727003318EF001348F8FF3376C8009D
:100590003397E800598E9845E309D7FDE318F7FD36
:1005A00014C9E9B710C103D705009307F00F63FD25
:1005B000E7045041A147054EBD4F130F8002930E33
:1005C0008004414331A054C915A88507638D670293
:1005D000B316FE0003D70500758FE398E6FE139768
:1005E000270001173398EF001348F8FF3376C8004F
:1005F0003397E800598E9845E307E7FD9845E316E1
:10060000D7FD14C9D9B750C1828019C20CC98280E4
:100610004CC982802A8663400504B7070140DC4349
:1006200093160501C182370730003378E50063086F
:10063000E8021317B500635C07041357050113782C
:10064000F7000D47331707011347F7FF7D8FB707F3
:10065000000FD98F0DA0B7070140DC4FD1B7370786
:1006600000F17D17F98FB708014003A848003377E0
:10067000E80023A2E80091C5558112053395A60034
:10068000C98F63420602370701405CC3828013575B
:10069000550112073397E6001347F7FF7D8FB70721
:1006A000000FD98FC9BF370701405CCF8280B7E701
:1006B00000E0BC47898B95CF834605008347250022
:1006C000920793F7F70F37E700E036972300F740DC
:1006D0005C41B5C703470500935757008546B3965D
:1006E000E600938707048A0737E700E0BA9794C3C8
:1006F0008280B7E700E0BC47898BF9FB0347150010
:100700008547630FF700834605008347250092075E
:1007100093F7F70F37E700E036972300F7404DBF18
:100720008346050083472500920793E707F893F770
:10073000F70F37E700E036972300F74051BF034734
:100740000500935757008546B396E6009387070642
:100750008A0737E700E0BA9794C38280B717024050
:10076000DC43B18B11476384E70821476387E708BF
:1007700099C7B7177A00938707201CC131A0B71714
:100780007A00938707201CC1371602405C42918390
:10079000BD8B3707002013070700BA9783C60700F1
:1007A0001C41B3D7D7005CC15442A1829D8ABA963E
:1007B00083C60600B3D6D70014C55442AD829D8AC5
:1007C000369703470700B3D7E7005CC55842398323
:1007D000937637003707002013070707369703473C
:1007E00007001377F70FB3D7E7021CC98280B7174A
:1007F0007A00938707201CC141BF371702405C4332
:100800005843C983BD8B89079316F70063CA060056
:1008100037173D0013070790B387E7021CC1ADB738
:100820003717024058439316E70063DA060037177C
:100830003D0013070790B387E7021CC1B1B7371714
:100840007A0013070720B387E7021CC135BF99C59B
:10085000371702401C4F5D8D08CF8280B7170240CA
:10086000984F1345F5FF798D88CF828099C537174A
:1008700002405C4F5D8D48CF8280B7170240D84F51
:100880001345F5FF798DC8CF8280035705008D672A
:10089000938707047D8F83D7050083D62500D58FE6
:1008A00083D64500D58F83D66500D58F83D6850046
:1008B000D58F83D6A500D58F83D6C500D58F83D697
:1008C000E500D58FD98F2310F5000357C501FD77BB
:1008D0009387F77FF98F231EF50083D7050123182F
:1008E000F500828081C98357050093E70704231030
:1008F000F500828083570500C207C18393F7F7FB99
:10090000C207C1832310F500828083570500C20708
:10091000C18337370140130707C06300E504370779
:1009200000406307E506130707406303E506371732
:10093000004013070780630DE50493F7F7CF03D753
:100940006500D98F2310F50083D745002316F502E3
:1009500083D705002314F50285A093F7F7F803D792
:100960002500D98F93F7F7CF03D76500D98F2310D0
:10097000F50083D745002316F50283D7050023141D
:10098000F50203C78500B73701402398E7C22DA0C1
:1009900093F7F7F803D72500D98F93F7F7CF03D74D
:1009A0006500D98F2310F50083D745002316F50283
:1009B00083D705002314F5028547231AF5008280AA
:1009C000FD572312F5002310050023130500231102
:1009D000050023040500828081C98357050093E741
:1009E00017002310F500828083570500C207C183DA
:1009F000F99BC207C1832310F500828019C6835773
:100A0000C500DD8D2316B50082808357C50093C5D0
:100A1000F5FFFD8D2316B50082800358850042083E
:100A20001358080103578501420741838357050284
:100A3000C207C183137888FFB365B8001377C7CFA7
:100A40001367171093F7D7FD9206558ED18FC20703
:100A5000C1832314B500231CE5002310F502828016
:100A6000835705010355C50042054181ED8F89C7B4
:100A70006D8D3335A00082800145828093C5F5FFDE
:100A8000C205C1812318B5008280797106D622D4AF
:100A900026D22A84AE8403570501F577FD17F98F16
:100AA00003D76500D98F2318F5000357C500FD77DC
:100AB0009387379FF98F03D74500D98F03D78500D8
:100AC000D98F03D7A500D98F2316F5008357450189
:100AD000C207C18393F7F7CF03D7C500D98F231A75
:100AE000F5006800A539B747014093870780630187
:100AF000F40652478357C400C207C18763CC07047A
:100B000093171700BA978E07BA9798400A07B3D77A
:100B1000E70213074006B3D6E7029206B3F7E702EF
:100B20000357C40042074187634007049207938735
:100B3000270313074006B3D7E702BD8BD58FC20743
:100B4000C1832314F400B250225492544561828030
:100B500062474DB793171700BA978E07BA97984018
:100B60000607B3D7E70275B71397370013072703B4
:100B7000930740063357F7021D8BB367D700C1B701
:100B800081C98357C5000967D98F2316F500828074
:100B90000357C500F977FD17F98F2316F5008280FA
:100BA00093F5F51F2312B5008280035505006D8D66
:100BB0003335A000828093F7F50F958385463397F0
:100BC000B6006388D70289466389D70283574501F7
:100BD0007D8F0355050093170501C183014509CB9E
:100BE000A1810545B315B50033F5B7003335A00035
:100BF00082808357C5007D8FE9BF835705017D8FB4
:100C0000C9BFA1818547B397B70093C7F7FFC20754
:100C1000C1832310F5008280011106CE22CC26CAA2
:100C2000A307A100956703A48705A16444C8916741
:100C30005CC8854601469305F1000145EF10C03AB6
:100C400004C8F2406244D24405618280011106CE9C
:100C500022CC26CAA307A100956703A48705A16437
:100C600044C891671CC885461306F100B28501454A
:100C7000EF10803704C8F2406244D244056182809C
:100C8000011106CE22CC26CA956703A48705A1646C
:100C900044C8935785002306F100A306A10091677D
:100CA0001CC889467000B2850145EF10E03304C8C6
:100CB000F2406244D24405618280011106CE22CC0A
:100CC00026CA4AC84EC69307F00963EEA7062A84CF
:100CD000AE843289B6899307F00763E5B7089307B6
:100CE000F00963E0C70A9307F00763EBD70A13051F
:100CF000A0021D370145993F130514001375F50F28
:100D0000B1370145A137130519001375F50F3D3FA4
:100D10001305B00211370145153F138524001375E3
:100D2000F50F2D3701451D37138529001375F50F74
:100D3000313F1305C002CD35F2406244D2444249EE
:100D4000B24905618280B756000093868688156691
:100D50001306868793057005375500001305C5896E
:100D6000EF203002B75600009386068D15661306F5
:100D7000868793058005375500001305C589EF2048
:100D80005000B75600009386468E15661306868778
:100D90009305A005375500001305C589EF20607E37
:100DA000B75600009386468F15661306868793050F
:100DB000B005375500001305C589EF20807C01116F
:100DC00006CE22CC26CA4AC84EC6AA849306F0078D
:100DD0001306F00981450145CD3513090008930933
:100DE000000A21A07D19630A09004E842685493D29
:100DF0007D141374F40F7DF8F5B7F2406244D244C9
:100E00004249B24905618280011106CE22CC26CA30
:100E10004AC84EC6014881471307F00493063002C2
:100E2000054681450145EF10800C930600310546CB
:100E300085451305F004EF001020930600310146AC
:100E400085451305D004EF00101F930600310146BD
:100E500085451305E004EF00101E956783A98705FB
:100E6000096923AA290103A54183130409F4335511
:100E70008502931725003E9506058145EF10601AFF
:100E800023A8290103A54183335585029317450003
:100E90003385A7400E058145EF10A0184545AD3BB1
:100EA00003A5418333558502931745003385A74039
:100EB0000E058145EF10E0161305100BB13B0545FB
:100EC00071331305C00259331305D00241331305A2
:100ED000200B993305459D3B1305C002853B130547
:100EE000D002AD331305300B053B054585331305A3
:100EF000C002A93B1305D002913B0545813B130578
:100F0000C002A9331305D00291331305400B2933D6
:100F10001D452D3B1305000C01331305200A3D33FD
:100F200009452D331305400815331305100CED3119
:100F30001305500C213B1305200CF9392945393391
:100F4000014529331305300CC1391305A008FD39BB
:100F50001305A002E5391305400C7D391305A008DF
:100F6000F5311305E00EDD311305500C75313945AF
:100F7000F139130560034D3113050006C13913051E
:100F8000000E59393D45D9316945C9313D457D3955
:100F900061456D391305F0025539130580027D3125
:100FA000130500026531130520024D317D45793965
:100FB0006D456939130530025139130570037931D4
:100FC000014569311D455931094549314145BD3911
:100FD0001305100E91313D4595396D4585393D45D7
:100FE000B5315D45A531130530038D311305C002C0
:100FF000B1391305900299391305E00281391305BF
:101000000003A931130500039131130590033D3905
:101010001305F0032539014515391D4505390D45E1
:101020003531414525311305A002FD3601453939D9
:1010300009452939014519391305200801391305D6
:10104000B002D93E014519310D4509310145FD3E3A
:1010500013053008E53E1305000F7D3E0545FD36BE
:101060001305600F553E0145D5361305A0036D36B7
:101070001545E93E13059002453641657D158133DE
:10108000F2406244D2444249B2490561828079719A
:1010900006D622D426D24AD04ECE52CC56CA5AC8F0
:1010A0005EC662C466C26AC0AA8B2E89138D050112
:1010B0001206330BB640930C7500956A938A8A909A
:1010C000214CC169138AF9FF938909800DA05285CB
:1010D000453E85807D141374F40F19C493F71400F2
:1010E000FDD74E85713EF5B70509630EA901CA8685
:1010F0006686CA855E85D136B3076901D69783C4F3
:1011000007E06284E1BFB250225492540259F2497E
:10111000624AD24A424BB24B224C924C024D45613C
:101120008280011106CE22CC26CA4AC84EC6B28998
:101130000306060015C62A84920513990501135962
:1011400009018144CA85228599378504C204C1807A
:10115000B3879900038607002104420441807DF291
:10116000F2406244D2444249B249056182807971B9
:1011700006D622D426D24AD04ECE2A842E89B284D4
:10118000634A06089205C205C181130600020137B1
:10119000896793870771B3C7F4022304F10013072B
:1011A000803E33C7E402A9473367F702A304E10096
:1011B0001307400633C7E4023367F7022305E10053
:1011C00033C7F4023367F702A305E100B3E4F40286
:1011D0002306910012094209135909012400210430
:1011E000420441809309D10003C60400130606039C
:1011F00062066186CA852285593D85042104420420
:101200004180E39334FFB250225492540259F24980
:10121000456182809205C205C1811306D002853DD9
:10122000B3049040C204C184A5B75D7186C6A2C450
:10123000A6C2CAC04EDE52DC56DAAA892E8A328491
:10124000B684BE8A994663F3F600994A93FAFA0F78
:10125000BA87A94663F3E600A94713F9F70F0146D9
:1012600081462285A685EF106052634D050A2286CD
:10127000A686B7550000938545901305D100252417
:101280009306A5FF93F6F60F1346F9FF36961376ED
:10129000F60F1319860113598941850AD69693F6DC
:1012A000F60F939A860193DA8A41635E0902918E62
:1012B00093F6F60FD6879305000218183E97230E73
:1012C000B7FC850713F7F70F93178701E187E396BC
:1012D000E6FEB38ACA40E20A93DA8A413309C9407A
:1012E000620913598941014681462285A685EF107E
:1012F000E049634805061C183E9993070002230E37
:10130000F9FC1C18BE9A238E0AFC7000D2854E850B
:10131000093DB640264496440649F259625AD25ACB
:10132000616182802286A686B7550000938545902C
:101330006800952A930695FF93F6F60F1346F9FF7A
:1013400036961376F60F1319860113598941850ACB
:10135000D69693F6F60F939A860193DA8A41E3487C
:1013600009F41C183E999307D002230EF9FC51BFD3
:10137000956783A7C70F03D647009386718283C7FB
:101380000600138741823E972300C700850793F725
:10139000F70F2380F6000547638BE7000D4763973F
:1013A000E700A383018205472384E182828003C78B
:1013B00041829307500AE30BF7FEA38301828280E8
:1013C000B707024009671307874BB8C7F84313678D
:1013D0001700F8C3828005472380E182B7060240E8
:1013E000FC4241677917F98FFCC28280AA8729C223
:1013F0001357F541B347A700998F368633E7D702D5
:10140000130707032380E500B3C6D702B5C2AE8732
:10141000850733E7C602130707032380E700B3C637
:10142000C602138517000D8D1375F50FF5F2828036
:101430002E86B68825480547B305B7400DA013078B
:1014400007031377F70F2300E60033D7D7023305DE
:10145000B6001375F50F63EE17010506BA8733F76B
:10146000D702E37EE8FC130777031377F70FE1BF9A
:101470000545828013D81500854763F5B702938729
:10148000F5FFAA972A872E95838607000306070093
:101490002380C7002300D7000507B306F540FD17DA
:1014A000E3E406FF8280757186D6A2D4A6D2CAD0A4
:1014B000CECED2CCD6CADAC8DEC6E2C4E6C2EAC014
:1014C0006EDEB2DCB6DE3AC13EC342C546C7BC18CA
:1014D0003ED6838705006381072C2A84814C9304C0
:1014E0005002930A3005156A130A8AEF3757000035
:1014F000032987048329C704BDACB257138747006B
:101500003AD69C432300F4000504850C85A4B25709
:10151000138747003AD683AB0700A94605462C003F
:101520005E85E9352A8B63CD0B00DA852800993773
:101530005A862C002285EF20C00A5A94DA9C3DA4DA
:101540001C18AA971307D002238CE7FC130B150075
:10155000137BFB0FD9BFB2579D07E19B1387870011
:101560003AD603AB070083AB47005A85DE85EF1000
:10157000706C2A8DA94605462C008D3DAA8D01462A
:1015800081465A85DE85EF10602063400506EE85B2
:101590002800CD356E862C002285EF2080046E94C5
:1015A000EE9C6A85EF10906F2A86AE865A85DE859E
:1015B000EF10A0744A86CE86EF10A0282A8BAE8B3F
:1015C00001468146EF10E0151DE993070003A306CD
:1015D000F1002306F100A305F1002305F100A304A7
:1015E000F1002304F100194581A81C18EE97130798
:1015F000D002238CE7FC850D93FDFD0F49BF5A8572
:10160000DE85EF103063A94605462C00C5339547AB
:1016100063E4A7023C00AA97130791002A97954616
:10162000898E93F6F60F3697930600032380D70032
:101630008507E31DF7FE19451C18AA971307E0025A
:10164000238CE7FC0505137BF50FDA8528001D3593
:101650005A862C002285EF10D078DA9C01AAB25766
:10166000138747003AD6A94601462C008843BD3B64
:101670002A8BAA852800FD3B5A862C002285EF1074
:1016800050765A94DA9CDDA0B257138747003AD6B9
:10169000A14601462C008843913B2A8BAA8528004D
:1016A000D13B5A862C002285EF10B0735A94DA9CF5
:1016B00075A8B257138747003AD6C14601462C0099
:1016C00088432D332A8BAA8528006D335A862C0037
:1016D0002285EF1010715A94DA9C49A8B2571387EB
:1016E00047003AD694430387060049C3A287338450
:1016F0008C402380E7008507B38C8700850603872D
:10170000060065FB3E849DA0A1452800A5338348C3
:101710008100034891000345A1008345B1000346C1
:10172000C1008346D1000347E1008347F100230055
:101730001401A30004012301A400A301B4002302A7
:10174000C400A302D4002303E400A303F400210493
:10175000A10C29A8930750022300F4000504850C6E
:1017600031A02300F4000504850C2E8C93051C0089
:1017700083071C009DC3E39697FE138C150083C757
:1017800015009387B7FD13F7F70FE3E1EAFE931710
:101790002700D2979C438287814C6685B650265499
:1017A00096540659F649664AD64A464BB64B264CDD
:1017B000964C064DF25D49618280956783A7C70FFD
:1017C00003D647009386018383C706001387C1822F
:1017D0003E972300C700850793F7F70F2380F60095
:1017E0000547638BE7000D476397E7002388018275
:1017F0000547A387E182828003C7C1829307500A0D
:10180000E30BF7FE238801828280B7070240056759
:1018100013070796B8C7F84313671700F8C3828009
:101820000547A384E182B7060240FC42416779176D
:10183000F98FFCC28280130700086306E5107971F6
:1018400006D622D426D24AD04ECE52CC935755003B
:1018500013F977001374F501368AB289AE848DCB03
:1018600005476389E7060947638BE7060D47638DE4
:10187000E70611476380E70815476383E7081947C0
:10188000639CE700854513050010EFE05FFC29A08D
:1018900085451145EFE0BFFB85473394870042043F
:1018A0004180231281006383F4069376FA0F36C6D3
:1018B00013172900956793870705BA974C0088434B
:1018C000EFE01FC8B250225492540259F249624AC2
:1018D0004561828085452145EFE07FF775BF8545ED
:1018E0004145EFE0DFF64DBF854513050002EFE00F
:1018F0001FF65DB7854513050004EFE05FF569BF8E
:10190000854513050008EFE09FF479B793170A01A6
:10191000C183A1839DE78D473EC49376FA0F36C6F7
:1019200013172900956693860605369704434C00E5
:101930002685EFE0FFC04E86A2852685EFE0FFCC2E
:1019400051B73EC4D9BF8280135735009376C70183
:1019500015671307070536971C4398478547339546
:10196000A700798D3335A0008280B7E700E07D576E
:1019700023A0E71823A2E7188280011106CE2304D2
:10198000A100A304B1002305C10036C62800EFE082
:101990001FD237E600E01842FD76F98E03A70185D5
:1019A000558F23A8E184584293870185120711833C
:1019B000D443558FD8C303C7870085476305F70015
:1019C000F240056182805537E5BF83A6018537E780
:1019D00000E02320D71093870185DC432322F710F2
:1019E0008280411106C622C49387018585462384DF
:1019F000D70003A40185DC435D8C33348000B53708
:101A00002285B24022444101828011C1828041116D
:101A100006C6238C0184553FB240410182800111EA
:101A200006CE22CC26CA2A84AE8449C58547630ADD
:101A3000F5088947630CF5088D47630EF508CDC09E
:101A400083A741831307007DB3D7E702FD17231453
:101A5000F1008604FD1423129100231501002313C5
:101A60000100230601009317240015671307870A56
:101A7000BA9784434C002685EFE03FE9054685454B
:101A80002685EFE0BFF785452685EFE03FFF25C8B7
:101A90008547630DF40689476301F4088D476305A4
:101AA000F40885452685EFE03FF3F2406244D244D6
:101AB000056182808545056513050580EFE03FD906
:101AC000BDBF85450545EFE07FDA95BF85450945F2
:101AD000EFE0DFD9ADB785451145EFE03FD985B7D8
:101AE000B75600009386860715661306060693050B
:101AF0002003375500001305C507EF1090288546D1
:101B000009468545130590028D3D61BF854609460E
:101B100085451305C002953569B785460946854553
:101B20001305D002993DB5BF854609468545130585
:101B3000E002A135BDB7411106C622C42E841DC9DD
:101B400089476308F5069147630CF50699476300DA
:101B5000F508A1476304F508A9476309F508B147EB
:101B60006310F50291460146814513056002EFF0CE
:101B70009FCC39A09146014681452145EFF0BFCB6E
:101B80008547630DF4068D476301F40895476305A7
:101B9000F4089D47630AF408A547630EF408AD47AF
:101BA0006303F40AB5476308F40AB24022444101D2
:101BB00082809146014681450145EFF0DFC7C9B7F4
:101BC0009146014681453D45EFF0FFC655BF914620
:101BD000014681451945EFF01FC65DB791460146A4
:101BE000814513056004EFF01FC559BF91460146BA
:101BF000814513054002EFF01FC459B791460146D5
:101C000081452545EFF03FC34DB7914601468145DB
:101C10000545EFF05FC251BF91460146814513056E
:101C20003002EFF05FC151B79146014681451D4535
:101C3000EFF07FC09DBF91460146814513057004BA
:101C4000EFF07FBF9DB791460146814513055002D5
:101C5000EFF07FBE99BF91460146814513057002A2
:101C6000EFF07FBD99B7011106CE22CC26CA4AC833
:101C70002A84AE84328929C58547630AF5048947D9
:101C8000630CF5048D47630EF504CA85268565351A
:101C900085450545EFE0BFBB91476389F404A14743
:101CA000638AF40AA9476396F404AD476313F90401
:101CB000854537151A0013050580EFE0BF9515A877
:101CC0008545056513050580EFE07FB87DBF854537
:101CD0000545EFE0BFB955BF85450945EFE01FB9A0
:101CE0006DB785451145EFE07FB845B79547630B64
:101CF000F9044800EFE0DFCC85472312F100FD57DF
:101D00002314F10023150100231301002306010011
:101D10000A0495679387870A3E9400404C00228509
:101D2000EFE0BFBE8146014689452285EFE0FFCE48
:101D300085452285EFE05FCAF2406244D2444249C1
:101D40000561828085453705180013050530EFE0F1
:101D50007F8C45B7A547E31EF9F8854537151A006E
:101D6000130505C0EFE01F8B69B70A0595679387D8
:101D7000870AAA979C4303D5470242054185828082
:101D80000A0595679387870AAA979C4323920702BF
:101D90008280411106C622C426C24AC0AE84328463
:101DA00036892DCDC1476303F508930700026318F8
:101DB000F50893068031054685451305D002EFF0FE
:101DC0009FA78547638CF408C5476381F40A93078E
:101DD00010026396F40A9306803105468545130583
:101DE000F002EFF05FA58947630AF40AC947630F61
:101DF000F40A930720026304F40C9307300263197A
:101E0000F40C93060031054685454A85EFF0BFA2E4
:101E1000B2402244924402494101828093068031BB
:101E2000054685451545EFF01FA161BF930680313A
:101E30000546854513053002EFF0FF9F59B7B756A9
:101E400000009386860C15661306860B9305D00258
:101E5000375500001305C50CEF10A07293068031B2
:101E6000054685451D45EFF01F9DB5BF93068031A2
:101E70000546854513055002EFF0FF9BADB7B756F9
:101E800000009386860C15661306860B93052003C7
:101E9000375500001305C50CEF10A06E9306803176
:101EA000054685451945EFF01F99A1BF930680317E
:101EB0000546854513054002EFF0FF9799B7930655
:101EC0008031054685451305E002EFF0DF9615BF2A
:101ED000B75600009386860C15661306860B93058D
:101EE0008003375500001305C50CEF108069397168
:101EF00006DE22DC26DA4AD84ED652D456D25AD042
:101F00002A84AE89328AB68A3A8BBE84428941C518
:101F100085476308F508DA865686D2854E85953D55
:101F200023160100930740102317F1002318010026
:101F300085476383F40893978401E187ADCB894794
:101F40006382F4088D476385F40893070020231B00
:101F5000F1000E09231C2101231D01009D47231EB2
:101F6000F1000A0413854181229500416C0022850D
:101F7000EFE0BF91C1476384F90685452285EFE014
:101F80007F96F2506254D2544259B259225A925A10
:101F9000025B21618280854505650505EFE03F8B89
:101FA0009DBF854511650505EFE05F8CADB7231931
:101FB0000100231A010051BF231901008547231A8C
:101FC000F10061B789472319F100231A0100B5BF59
:101FD00089472319F1008547231AF100BDB78545CC
:101FE0000545EFE02FE351BFAE96938741810A0587
:101FF0003E956387B6028505184183C7F5FF231612
:10200000F70083578700898BEDDF65D683578700FC
:10201000858BEDDF8357C7002300F6000506D1BF8F
:102020008280B7F700E023A0070023820700A38285
:10203000070023830700A383070023840700A384EA
:10204000070023850700A3850700054798C337F7D6
:1020500000E081475443E39FB7FEE37DD5FE8280D5
:10206000411106C60DE585476385F500B240410183
:10207000828093068031014685452545EFF0AFFB10
:102080009146014681452945EFF0EFFAC5B78947EA
:102090006309F502C1476306F50493070002631064
:1020A000F50693068031014685451305A002EFF041
:1020B0008FF89146014681451305B002EFF0AFF766
:1020C00075B7930680310146854513056002EFF030
:1020D0008FF691460146814513057002EFF0AFF58A
:1020E00071B793068031014685450945EFF0AFF49D
:1020F0009146014681450D45EFF0EFF385BF93070B
:102100002002E315F5F69306803101468545130557
:10211000A004EFF04FF29146014681451305B0044B
:10212000EFF06FF1A1B7797106D622D426D24AD04A
:102130004ECE2A84AE89B284368985450545EFE0C6
:102140000FF1CA852685293F89476381F4029307E9
:1021500020026390F40293073002631CF900854566
:10216000370514004105EFE0EFCA21A08D47630A4F
:10217000F90429CC85476300F40689476303F40614
:102180004EC0231201002313010023140100231663
:102190000100B1472315F1000A0495679387870F63
:1021A0003E9400408A852285EFE03F8E854522855A
:1021B000EFE01F9DB250225492540259F2494561FA
:1021C000828085451145EFE0EFC465B7854511650F
:1021D000EFE0EFE775B7854537050200EFE00FE95F
:1021E00045B7854537050400EFE04FE851BF0A05C4
:1021F00095679387870FAA9798438357070093F7AC
:102200000708E5DFC205C1812312B70082801DC621
:10221000411106C622C426C24AC02A892E84B3842C
:10222000C50005048345F4FF4A85D137E39B84FE4E
:10223000B24022449244024941018280828041118D
:1022400006C6B7170240DC43C983BD8B37177A0037
:1022500013070720B387E7023727F4001307074067
:10226000BA9723AAF18285460146F1659385052038
:102270000145553DB24041018280011106CE22CC7C
:1022800026CA4AC84EC6B2896358C002AE84338992
:10229000C500956703A4870F930500042285EFE02E
:1022A000DF907DD985048385F4FFC205C181228535
:1022B000EFE01F8FE31299FE4E85F2406244D24454
:1022C0004249B249056182804111B71702409843E3
:1022D0001367170098C3D843B706FFF8758FD8C3A4
:1022E0009843B706F7FEFD16758F98C39843B70657
:1022F000FCFFFD16758F98C3D843B70681FFFD1606
:10230000758FD8C337079F0098C702C402C6984389
:10231000C166558F98C337160240B70602001307EF
:1023200000501C42F58F3EC6A24785073EC4B24707
:1023300081E7A247E397E7FEB71702409C43139754
:10234000E700635A070085473EC632478547630664
:10235000F7004101828002C6CDBFB72702409843F3
:102360001367070198C39843719B98C398431367F9
:10237000270098C3B7170240D843D8C3D843D8C35F
:10238000D843D8C3D843B706C1FFFD16758FD8C34D
:10239000D843B7062500558FD8C39843B706000128
:1023A000558F98C3371702401C4393966700E3DDAF
:1023B00006FEB7170240D843719BD8C3D8431367B2
:1023C0002700D8C3B71602402147DC42B18BE39EF9
:1023D000E7FE41B7011106CE22CC26CA4AC84EC636
:1023E00052C456C2EFF0EFDF993D29229306003127
:1023F000014685450145EFF00FC4D1450D45EFF08D
:102400000FE20145EFF06FE0930AC05D130A40024E
:1024100055A083C7C18393F7F70F99C7238E018215
:10242000239751812396418103D6E1834206418659
:1024300081450145EFE0BFD303D6018442064186C2
:1024400085450145EFE0BFD203D62184420641868F
:1024500089450145EFE0BFD13756000013068610CD
:102460008D450145EFE0FFCB03D5E1804205418575
:10247000EF10C002894709472A86AE868D451305AD
:102480000006EFE09FDA375600001306C6109145AC
:102490000145EFE01FC903D5C18042054185EF002A
:1024A000F07F894709472A86AE86914513050006C5
:1024B000EFE0BFD7552883C7818393F7F70F99CBF8
:1024C000238C018283D7E18093872703C207C187CA
:1024D0002397F18083C7A18393F7F70FE38B07F26C
:1024E000238D018283D7C1808507C207C1872396C8
:1024F000F18005B7411106C61D28EFE0FF90930655
:10250000100213060002B7150700938505800945E0
:10251000EFF07FC1154691450545EFF0CFF42D460C
:10252000A9450945EFF02FF4B240410182804111E5
:1025300006C6930680040146814513058004EFF02A
:102540008FAF930680040146814513059004EFF098
:102550008FAE930680040146814513052002EFF0FB
:102560008FADB24041018280411106C622C426C20D
:102570004AC0138481808347040093F7F70FA38C2C
:10258000F182138991808347090093F7F70FA38D98
:10259000F1829384A18083C7040093F7F70FA38E81
:1025A000F18213058004EFF02FBA2300A400130575
:1025B0009004EFF06FB92300A90013052002EFF09B
:1025C000AFB82380A4008347040093F7F70F89CBAB
:1025D00083C7918393F7F70F81E70547238CE18247
:1025E00083C7918093F7F70F89CB83C7B18393F7A4
:1025F000F70F81E70547238DE18283C7A18093F719
:10260000F70F89CB83C7D18393F7F70F81E705478E
:10261000238EE182B24022449244024941018280E9
:10262000411106C61387218483570700A907C207F3
:10263000C1872310F7000545EFF02FF3239FA182F8
:102640000945EFF08FF23305A04042054185239004
:10265000A1840545EFF0CFF20945EFF06FF2B240EB
:10266000410182809387C185130780FD2380E700A5
:10267000130700FBA380E7009386E18303D70600DE
:102680004207418721872381E70003D70600A38102
:10269000E700130710FB2382E7009386018403D72A
:1026A0000600420741872187A382E70003D706007F
:1026B0002383E700130720FBA383E700938621848D
:1026C00003D706004207418721872384E70003D709
:1026D0000600A384E700130730FB2385E7009386F9
:1026E000E18003D70600420741872187A385E700E1
:1026F00003D706002386E700130740FBA386E70005
:102700009386C18003D7060042074187218723872C
:10271000E70003D70600A387E70039572388E700BF
:10272000828013D74501B7071000FD1713D8460163
:102730001377F77F9308F07F33FEB700AA8EF58FEB
:10274000FD81328F1378F87FFD82630B17010543FB
:102750006306180163140701630DFE001A85828069
:10276000B368AE000543E39B08FEE319E8FED18F92
:10277000F5F70543E394EEFF0143E381D5FE0543FE
:1027800071FF3365AE003333A000C9BF13D74501D5
:10279000B7071000FD1713D846011377F77F93088A
:1027A000F07F33FEB700AA8EF58FFD81328F13784C
:1027B000F87FFD82630E1703630D180129E3B368E8
:1027C000AE00631F08005D8E01EE0143638C0804B8
:1027D00021A8B3E8C7000943639608046DD305A098
:1027E000638408046385D50205438DCD7D531DA800
:1027F000B368AE00094363970802630AE8026314F2
:1028000008005D8E75D2E391D5FEE34FE8FC634985
:102810000701E3EBC7FD630FFE0001436374FE0095
:10282000F1D505431A858280EDFE7D53E5BF5D8EAF
:1028300079DACDBFE36ADFFB0143E3F5EEFFF5F1A3
:1028400075B739714AD813D945014ED652D456D2EC
:102850009399C50006DE22DC26DA5AD05ECE1379C3
:10286000F97F2A8A93D9C90093DAF501630D090E1D
:102870009307F07F6306F9181354D5018E09B369E5
:1028800034013704800033E48900931435001309C0
:1028900019C08149814B13D74601139AC60013779B
:1028A000F77FB285135ACA0013DBF601630B0710DA
:1028B0009307F07F6303F7049357D6010E0A33EAB8
:1028C0004701130717C0B7078000B367FA009315D5
:1028D00036003A99814833C76A01BD463A851308E4
:1028E000190063E83617173600001306A6828A0916
:1028F000B29983A60900B2968286B367CA0013090B
:10290000F97F6399071293E9290081458948E1B766
:1029100001479307F07F3704080081443204D2074F
:1029200031807E075D8C598CA285F25062542685D9
:102930004259D254B259225A925A025BF24B216147
:1029400082805A853E84AE84C68B8947638DFB0E98
:102950008D47E38FFBFA85472A87639EFB388147C3
:102960000144814465BF33E4A90061C036C632C466
:10297000638C092A4E85EF0070392246B246AA8739
:10298000130755FF7544938487FF198CB3999900F9
:1029900033548A0033643401B3149A0013D74601C8
:1029A0001309D0C0139AC6001377F77F3309F94093
:1029B0008149814BB285135ACA0013DBF601E31932
:1029C00007EEB367CA00B1C7630F0A22528532C44B
:1029D000EF00D03322462A87930655FFF54793052B
:1029E00087FF958F331ABA00B357F600B3E7470154
:1029F000B315B6003309E9401309D9C08148E1BDD8
:102A000033E4A90001ECA14981441309F07F894B0B
:102A100059B593E919008145854875BD4E84AA844E
:102A2000B1491309F07F8D4BBDB5914981440149EE
:102A3000854B95B593E93900D2878D4869BD8947A3
:102A40005685E397FBF02A879307F07F0144814482
:102A5000F1B5C16E1386FEFF93D6040113DE0501A6
:102A6000F18CF18D338695023383B60293580601BB
:102A700033059E021A95AA98B382C60363F36800D1
:102A8000F692C16F1383FFFF33F5670093D30701FD
:102A9000B3F76800C207337366003E9333069502AE
:102AA00093D80801B387A602135F0601B38493028B
:102AB000BE94FA94B38E760263F3F400FE9E416AEC
:102AC0009307FAFF935F0401B376F400B3F9F400BF
:102AD0007D8EC1803384D502C209338FD401B2996F
:102AE000CE98B307DE02935E0401B385BF02AE97B2
:102AF000BE9E330EFE0363F3BE00529EC1679385F4
:102B0000F7FF33F6BE006D8C4206229693DE0E016F
:102B1000B305D502769E3385AF0213D40501B38683
:102B2000D302AA96A296B38FF30363F3A600BE9FC7
:102B300041657D15B3F7A600C2076D8DAA97B385D1
:102B40005800B3B93501FA97B2953384370133B6DB
:102B5000C500B30EC4013385CE0033343401B3B79E
:102B6000E701C18F33BECE0113D406013336C50051
:102B70003E943366CE009394950032947E94B3E4F1
:102B80006400260493567501B3349000DD819317D9
:102B90009500CD8C558CDD8C9317740063DB07009A
:102BA00093D7140085889316F401DD8CD58C0580AD
:102BB00042899307F93F6359F00893F6740081CE78
:102BC00093F6F40011466388C60093864400B3B4BC
:102BD00096002694B6849316740063D80600B7074F
:102BE00000FFFD177D8C930709409306E07F63CFBC
:102BF000F60E93D634009314D4012604D58C31807C
:102C000093F7F77F21BB328532C4EF003010930673
:102C10005501F147130705022246E3D1D7DC6115C0
:102C2000B317A6008145F9B3EF00500E1307550105
:102C3000F145930705022246B246E3D5E5D4611576
:102C40003314AA00814499BB85469D8EB1E71309D0
:102C5000E941B3972401B3D4D40033192401B33725
:102C6000F000B3649900DD8C93F77400B356D40080
:102C700081CF93F7F40011466388C700938744001F
:102C8000B3B49700A696BE849397860063D80704D2
:102C900085470144814459B113068003E341D6CCF2
:102CA0007D46E356D6FA0556B307F6409305000273
:102CB0003356F4006387B6001309E943B3172401C0
:102CC000DD8CB3349000D18C93F67400014499CA22
:102CD00093F7F40011468146E392C7FA13949600E5
:102CE0003180F6068D80D58C81470DB99307F07F32
:102CF0000144814425B142896DBD370710007D171D
:102D000001113373B70093D84601758F935ED601D6
:102D100022CC26CA0E0393D445019357D5010E0742
:102D200006CE4AC84EC693F8F87F130EF07F33E7FD
:102D3000EE0093F4F47F13D4F50133E36700131F1F
:102D40003500FD82931E3600638FC81793C61600A8
:102D5000B38514416304D4126350B018638A081A0F
:102D6000B70780005D8F638FC4579307800363C2EA
:102D7000B734FD4763C3B748930700028D8FB3D9BB
:102D8000BE003318F700B39EFE0033683801335796
:102D9000B700B339D001336838013303E340B309D6
:102DA0000F41B3373F013306F3409317860063D2D8
:102DB0000724370980007D1933792601630E092C19
:102DC0004A85A927130785FF93070002998FB3D778
:102DD000F9003316E900D18FB399E9006344972ACB
:102DE000058F13061700FD4663C4C63A1307000299
:102DF000118FB3D6C9003398E9003397E700558F98
:102E000033380001B369070133D6C700814493F713
:102E1000790081CF93F6F90091476388F600938695
:102E2000490033B836014296B6899317860063D6B7
:102E3000071C138714009307F07F05886306F720AB
:102E4000B70780FFFD17F18F1398D70193D9390089
:102E5000A60733683801B1831377F77F9396C700CD
:102E60005207B1827E04D98EC18EF2406244D244B0
:102E70004249B2494285B685056182806356B00AEF
:102E8000638A0812B70780005D8F6386C42D93079D
:102E9000800363C7B718FD4763D1B73C138805FEAD
:102EA00093070002B3590701638AF50093070004F2
:102EB000B385B7403317B700B3EEEE003338D00117
:102EC0003368380195A2B367D7019385148099E3DD
:102ED00093C61600630AD404D1E19387140093F7D4
:102EE000E77F6398071EB367E3013368D7016392F6
:102EF00004166381073C63150842131835009316C6
:102F0000D3011358380033E806019357330019A250
:102F1000B367D7016384071A9387F5FF638A073A7B
:102F2000638BC523BE8591B56398051C93861400F9
:102F300093F7E67FC1EFB367E301639F0434638CCB
:102F40000744B367D701639307460E051318D301EF
:102F50000D813368A800935733006DA8B38598405E
:102F600063960420B367E301638C07309387F5FF12
:102F7000638807401305F07F6382A520BE85930711
:102F8000800363C1B72AFD4763C7B73C93070002BC
:102F90008D8F3318F3003356BF00B317FF0033682B
:102FA000C800B339F0003353B30033683801330736
:102FB0006740ADACB367D701638207109387F5FF15
:102FC000638E071E638FC52DBE85D1B59307F07F35
:102FD000638BF606FA9E33B6EE01B307E300B297B1
:102FE0001398F70193DE1E00B369D80113D61700BA
:102FF000B68493F77900E39F07E09317D60113D8BF
:1030000039003368F800A685935736001307F07F20
:103010006380E506B207B18313F7F57F05883DBDF0
:103020003367D7013338E000B309E801B3B7E901EA
:103030003386670093178600E3DD07FA850493075C
:10304000F07F639BF41805881307F07F81470148E0
:1030500031B5639007106300083C131836009317CE
:10306000D701135838003368F80036849357370077
:10307000B367F800E9DB01441307F07FB7070800E6
:103080000148E9BB370680FF7D167D8E93F77900F6
:10309000998CE39107D895B74E858D291307850143
:1030A000FD47E3D3E7D2130685FFB397C9008149F3
:1030B00035B33368D70133380001D5B11318350063
:1030C0009317D301135838003368F800935733002F
:1030D00035BFB309DF413309E34033363F013309DC
:1030E000C9409317890063CA072033E82901E31711
:1030F00008CC8147014439BFB385984063810414EB
:10310000B70680009307F07F3363D3006381F82014
:103110009307800363CCB722FD4763C9B72C93079D
:1031200000028D8F3318F300B356BF00B317FF00B2
:103130003368D800B339F0003353B3003368380133
:103140001A97B309D801B3B7D9013386E700C6840B
:10315000D5B5E31208F2131835009317D3011358AD
:1031600038003368F8009357330019B737058000EB
:103170009307F07F3363A300E393F8E00E06131880
:10318000D7010D823368C800935737003684CDB518
:1031900005179306000233D7E700630AD6009306AB
:1031A00000043386C6403396C700B3E9C9003338FC
:1031B0003001B369E8000146814425BDB309DF0150
:1031C000B307E30033BFE9013386E70193178600B5
:1031D0008544E3D007E28944B70780FFFD17F18FEC
:1031E00013D7190013F81900336807019399F701F1
:1031F000B3E9090113D6170019B9138805FE93071F
:103200000002B3590701638AF50093070004B385F0
:10321000B7403317B700B3EEEE003338D001336850
:103220003801B5BE3363E30133386000B3890E4122
:10323000B3B73E013306F740C6843684BDB6B367E4
:10324000E301638707189387F5FF638C071C9306D8
:10325000F07F638ED50ABE8565BD930700028D8F12
:10326000B3D9BE003318F700B39EFE0033683801AF
:103270003357B700B339D001336838013A936DB38F
:10328000131836009317D7011358380033E8070195
:103290003684935737009DBBBDCB3367D701E31C02
:1032A00007DC0E051318D3010D813368A80093576E
:1032B00033007DBBE30F08E2131836009317D701E4
:1032C000135838003368F80036849357370099B3A1
:1032D000B309DF41B307E340333F3F013386E741A2
:1032E0008544E1B4131835009316D3011358380000
:1032F00033E8060193573300A5BBB389EE4133068B
:10330000674033B93E0133092641368445BC0E0679
:103310001318D7010D823368C8009357370089BB53
:10332000B309DF41B307E34033363F013386C7407B
:103330009317860063D7070AB389EE41B307674046
:10334000B3BE3E013386D7413684D1B43363E30143
:1033500033386000FDB3138805FE93070002B359AC
:103360000301638AF50093070004B385B740331364
:10337000B300336F6F003338E001336838017DB537
:10338000B389EE41B3076740B3BE3E013386D741F0
:103390003684854419BC131836009317D701135887
:1033A00038003368F80093573700ADB1B309DF0137
:1033B000B307E30033BFE9013386E70193178600C3
:1033C000E3D907C2B70780FFFD177D8E854415B18D
:1033D0000E061318D7010D823368C80093573700C3
:1033E00035B133E8C900E30608D021B1138805FEE2
:1033F00093070002B3590301638AF50093070004A1
:10340000B385B7403313B300336F6F003338E00137
:10341000336838013DB301441307F07FB707080054
:1034200035BCB309DF01B307E300B3BED90133866E
:10343000D70169BB93D74501B70610001387F6FF84
:1034400093F7F77F1306E03F6D8FFD81635CF60015
:103450001306D041635AF600370500801345F5FF87
:103460002E95828001458280130630431D8E7D4853
:10347000558F635DC80093063041B387F640B3575C
:10348000F7003305F040E5F13E8582809387D7BE93
:10349000B317F7003355C500C98FE5B7411106C60C
:1034A00022C426C205CD9357F541B3C4A7009D8C15
:1034B0002A842685A1289306E041898EA9477D802C
:1034C00093F6F67F63CDA7022D47098FB3D7E400AB
:1034D0005505B207B394A400B18329A001448146E5
:1034E00081478144B207D206B1837E04D58FC18F54
:1034F000B24022442685BE85924441018280551502
:10350000B397A400B207B1838144E9BFC167637E6A
:10351000F5029307F00F1307000263ECA70097274B
:103520000000938727C3AA9703C507003305A74068
:1035300082802181972700009387C7C1AA9703C57E
:10354000070061473305A7408280B7070001636E1B
:10355000F5006181972700009387C7BFAA9703C52D
:10356000070021473305A74082804181972700004B
:10357000938747BEAA9703C5070041473305A74075
:103580008280938701819C434111328806C6AA88B4
:103590002E87C8473686972700009387A7CB6317E7
:1035A0000800972700009387A7CB3E88C6869725FB
:1035B0000000938525CB1920EF007016397132D4A5
:1035C00036D63EDA3AD842DC46DE938701812E8633
:1035D000AA858843341006CE36C62522F2402161E2
:1035E0008280B3C7A5008D8B3307C50081E78D4767
:1035F00063EEC700AA876370E50A83C605008507E6
:103600008505A38FD7FEE3EAE7FE82809376350037
:10361000AA8791CA83C6050085078505A38FD7FEB3
:1036200093F63700FDB79376C7FF138606FE63F067
:10363000C70683A3050083A2450083AF850003AFBF
:10364000C50083AE050103AE450103A3850183A830
:10365000C5019385450223A0770003A8C5FF23A2D7
:10366000570023A4F70123A6E70123A8D70123AA23
:10367000C70123AC670023AE17019387470223AE2F
:1036800007FF75B790419107910523AEC7FEE3EBA5
:10369000D7FEE3E4E7F682801C46FD171CC663D91B
:1036A0000700184E63C5E700A9476393F50055A5C9
:1036B0001C422E851387170018C22380B700828012
:1036C000011122CC26CA4AC84EC652C406CE2A8947
:1036D000AE893284B304D6007D5A63149400014548
:1036E00009A8834504004E864A857D370504E31604
:1036F00045FFF2406244D2444249B249224A056140
:103700008280357122CD26CB4AC94EC706CF52C51D
:1037100056C35AC1DEDEE2DCE6DAAA89AE8432891B
:10372000368409C51C4D99E3EF0010269727000049
:10373000938707BC639DF40C83A4490083D7C4001E
:10374000A18BE5CB9C48F5C793070002A304F102C7
:103750009307000302D22305F10222C6930B500205
:10376000972A0000938A0AB3054C294B4A84834761
:10377000040099C36391770FB30C2441638E0C004E
:10378000E6864A86A6854E85EFF09FF3FD576308CF
:10379000F51E9256E69636D2834704006381071ED3
:1037A000FD571309140002C802CE3ECA02CCA30979
:1037B000010482D48345090015465685EF00B043C5
:1037C00013041900C24751E913F7070109C713078A
:1037D0000002A309E10413F7870009C71307B00229
:1037E000A309E104834609001307A002638FE606DC
:1037F000F2474A8481462546034704009305140096
:10380000130707FD6378E60AADCA3ECEBDA0972731
:1038100000009387E7AF6395F40083A4890039BF64
:10382000972700009387C7AAE39AF4F083A4C900FE
:1038300031B7A6854E85F12B01D97D55FA406A44F2
:10384000DA444A49BA492A4A9A4A0A4BF65B665C04
:10385000D65C0D618280050419BF330555413315CF
:10386000AC00C98F3EC82289B1B7324793064700E2
:10387000184336C6634907023ACE0347040093074C
:10388000E002631FF704034714009307A002631BC1
:10389000F702B2470904138747009C433AC663C145
:1038A00007023ECA35A83307E04093E727003ACE27
:1038B0003EC8E1B7B387670385462E84BA972DBF0C
:1038C000FD57C5B7050402CA81468147254603470F
:1038D000040093051400130707FD6378E606F1F270
:1038E000834504000D46172500001305259BEF00B6
:1038F000903011CD972700009387479A1D8D93072D
:103900000004B397A700424505045D8D2AC883458E
:1039100004001946172500001305859813091400A3
:103920002304B102EF00302D3DC197C7FFFF9387FD
:10393000676D95E74247B2471377071009CF9107A4
:103940003EC69257D2973ED215B5B38767038546D8
:103950002E84BA97ADBF9D07E19BA107D5B778002C
:1039600097060000938606D626860C084E8597009B
:103970000000E7000000FD572A8AE314F5FC83D716
:10398000C40093F70704E39A07EA125545BD78008F
:1039900097060000938606D326860C084E85012ADA
:1039A000D9BF797156CA9C49BA8A984522D426D281
:1039B0004ECE52CC06D64AD05AC85EC6AA892E84AC
:1039C000B284368A63D3E700BA879CC003473404C5
:1039D00019C385079CC01C4093F7070281C79C4010
:1039E00089079CC00329040013796900631A090040
:1039F000130B9401FD5B5C449840998F634CF90470
:103A00001C408346340493F70702B336D000A5EB7D
:103A100013063404D2854E85829AFD576303F5045C
:103A20001C4011469840998B544481446397C700C9
:103A3000B384E64063D3040081441C4418486354B3
:103A4000F700998FBE94014969047D5B6398240552
:103A5000014509A885465A86D2854E85829A631EFD
:103A600075017D55B250225492540259F249624A6E
:103A7000D24A424BB24B456182800509ADBF330744
:103A8000D40013060003A301C7040347540493871B
:103A90001600A2978906A381E7049DBF854622866A
:103AA000D2854E85829AE30E65FB050945B779718B
:103AB00022D426D24AD04ECE06D652CC56CA5AC8A6
:103AC000B68983C685019307E0063289AA842E84CD
:103AD000138635046381F61E63E2D706930730062A
:103AE0006382F60A63EDD700638B061E9307800599
:103AF0006387F616930A24042301D40469A8930764
:103B000040066386F60093079006E395F6FE1C4098
:103B1000084393F6070893054500C1C21C410CC336
:103B200063D807001307D002B307F040A301E404F1
:103B30009716000093864677294765A093073007BC
:103B40006383F61A63EFD7009307F006638FF604DA
:103B500093070007E390F6FA9C4193E707029CC1A4
:103B600009A8930750076382F60493078007E3933D
:103B7000F6F893078007A302F404971600009386D3
:103B8000E673E5A01C43938A2504938647009C4373
:103B900014C32381F5048547B5A293F607041C419D
:103BA0000CC3BDDEC207C187A5BF0C401C4313F880
:103BB0000508138547006305080008C39C4339A026
:103BC00093F5050408C3FDD983D707001307F00652
:103BD000638BE60C971600009386066D2947A301B8
:103BE00004044C400CC463C5050008406D9908C02E
:103BF00099E3B28A91CDB28AB3F5E702FD1AB69580
:103C000083C505002380BA00B3D5E70263F3E70A52
:103C1000A147631EF7001C40858B91CB58401C4880
:103C200063C7E70093070003A38FFAFEFD1A33066C
:103C3000564110C84E87CA867000A2852685EFF0CF
:103C40005FD67D5A6314450D7D55B250225492546F
:103C50000259F249624AD24A424B45618280A382AC
:103C6000D50497160000938626640C40084313F889
:103C700005081C4111056300080208C313F715006D
:103C800001C793E505020CC04147B1FB0C4093F519
:103C9000F5FD0CC0A9B713F8050408C3E30008FE3E
:103CA000C207C183E1BF971600009386E65F2147F4
:103CB0003DB7AE8791B794411C43CC4913F8060831
:103CC000138547006306080008C39C438CC301A802
:103CD00008C393F606049C43F5DA2390B700232823
:103CE0000400B28A81BF1C43D041814593864700BE
:103CF00014C383AA07005685FD2D01C53305554120
:103D000048C05C401CC8A30104042DB71448568663
:103D1000CA8526858299E30945F31C40898B8DE786
:103D2000B2474844E353F5F23E8505B785465686CB
:103D3000CA8526858299E30965F1050A5C44324704
:103D4000998FE345FAFEE9BF014A930A94017D5B2E
:103D5000F5B7011122CC26CA4AC806CE4EC6AA849F
:103D60002E89328401C51C4D91E339299717000033
:103D7000938707586319F406C0401C4C1CC4835732
:103D8000C400A18BC9C31C48BDCF1C48084093790F
:103D9000F90F1379F90F1D8D5C486346F500A28574
:103DA0002685D9242DE51C440505FD171CC41C409F
:103DB0001387170018C0238037015C486389A70068
:103DC0008357C400858B81CBA9476316F900A28570
:103DD0002685592C0DEDF24062444A85D244424971
:103DE000B249056182809717000093876752631478
:103DF000F400804459B7971700009387674DE31E7E
:103E0000F4F6C0449DBFA285268521203DDD7D5965
:103E1000D9B741119387018126C2844322C44AC085
:103E200006C62A892E8489C49C4C99E32685A92E2E
:103E3000971700009387C74B631CF402C040031719
:103E4000C40093170701C18393F68700B5EE93F67C
:103E500007019DEEA5472320F900136707042316E9
:103E6000E4007D55B24022449244024941018280DF
:103E7000971700009387C7496314F4008044C1B7C3
:103E8000971700009387C744E31BF4FAC04445BF6B
:103E9000918B8DC74C5889C9930744046384F500FE
:103EA0004A85BD23232A04028357C4002322040029
:103EB00093F7B7FD2316F4001C481CC08357C400B9
:103EC00093E787002316F4001C4881EF8357C40052
:103ED0001307002093F707286385E700A2854A852A
:103EE000A5298357C40013F7170005C75C4823248E
:103EF0000400B307F0401CCC1C480145A5F783170C
:103F0000C40013F7070839DF93E707042316F4000A
:103F100089BF898B014791E3584818C4F1BF41110B
:103F2000194506C6E5250545EF00F01483D7C50001
:103F3000011122CC26CA06CE4AC84EC613F7870006
:103F4000AA842E8471EFD841634DE000B841634AE2
:103F5000E0000145F2406244D2444249B249056161
:103F6000828058547DD703A904009396370123A07B
:103F7000040063DD060670488357C400918B99C71F
:103F80005C401D8E5C5899C33C401D8E5C540C50A7
:103F9000814626858297FD570357C400631DF500AF
:103FA0009440F54763E8D706B70740208507B3D7A5
:103FB000D700858BA5C31C48232204001CC093177F
:103FC000370163D80700FD576314F5009C4091E367
:103FD00068C84C5823A02401ADDD930744046384D2
:103FE000F50026853521232A0402A5B70C50014689
:103FF000854626850297FD572A86E31FF5F69C40E5
:10400000A5DF75476385E70059476394E70423A05C
:10401000240181B7136707042316E4007D551DBFF3
:1040200083A90501E38709F203A905008D8B23A06D
:10403000350133093941014791E3D84918C4E35A9E
:1040400020F11C540C50CA864E86268582976349FF
:10405000A0008357C40093E707042316F4007DBF34
:10406000AA993309A940E1BF9C49A5C3011122CCFB
:1040700006CE2A8411C51C4D81E72EC63122B245D9
:10408000971700009387C726639CF5004C408397E1
:10409000C5009DC722856244F24005616FF01FE9AB
:1040A000971700009387C7266394F5000C44C5B7A3
:1040B000971700009387C721E39BF5FC4C44C1BFD1
:1040C000F2406244014505618280014582804111D0
:1040D00022C406C62A842316B5002317C500232050
:1040E000050023220500232405002322050623289A
:1040F0000500232A0500232C0500214681451305D0
:10410000C505EFC0EF83970700009387E7535CD0A6
:1041100097070000938747561CD4970700009387A2
:10412000875A5CD4970700009387475D00D01CD85E
:10413000B24022444101828097050000938505F337
:1041400091AA411126C2130680069384F5FFB38419
:10415000C4024AC02E8922C406C693854407992EFC
:104160002A8401CD2320050023222501310508C41E
:10417000138684068145EFB0BFFC2285B2402244FD
:1041800092440249410182801C4DA5E7411106C6B7
:1041900022C497070000938767FA1CD59387C181D3
:1041A0009C432324050423260504232805046314C3
:1041B000F50085471CCD2A84352848C022851D2856
:1041C00008C42285052848C4484001469145EFF0BF
:1041D0001FF008440546A545EFF07FEF4844094627
:1041E000C945EFF0DFEE85471CCCB24022444101C7
:1041F0008280828041119387C18126C284434AC054
:1042000006C69C4C22C42A8981E72685EFF0DFF799
:10421000938484048044DC40FD1763D607009C40EF
:10422000B9CF8440C5BF0317C40039E7C1778507FC
:104230002322040623200400232204002324040054
:104240005CC423280400232A0400232C04002146F4
:1042500081451305C405EFB0BFEE232A0402232CC9
:10426000040223240404232604042285B2402244A9
:1042700092440249410182801304840671BF914532
:104280004A85EFF01FEC88C049FDB1472320F900B3
:104290000144E1BF797122D44AD052CC56CA5AC8DF
:1042A0005EC606D626D24ECE2A8AAE8A130485046E
:1042B0000149054BFD5B09ECB25022544A859254EA
:1042C0000259F249624AD24A424BB24B456182805E
:1042D000044483294400FD1963D409000040E1BF70
:1042E00083D7C400637BFB008397E4006387770177
:1042F000A6855285829A3369A90093848406E1BF1A
:104300001971A6DAAE848395E500A2DC86DE3284DC
:1043100063DC050083D7C40023A0060093F70708D9
:104320009DE39307004015A0300836C62521B2460C
:10433000E34205FE7247BD67F98F7977BA9793B765
:1043400017009CC2F9BF930700041CC0F6506654C6
:10435000D65401450961828083D7C500011122CC62
:1043600006CE26CA4AC8898B2E8489CF9307740447
:104370001CC01CC885475CC8F2406244D244424914
:104380000561828074003000AA84EFF07FF7A245B7
:104390002A892685052201ED8317C40013F707201B
:1043A00061FFF19B93E727002316F400C1B797073D
:1043B00000009387A7D89CD48357C40008C008C8BE
:1043C00093E707082316F400A2475CC8B24789CFD9
:1043D0008315E4002685652601C98357C400F19B37
:1043E00093E717002316F4008357C4003369F900DC
:1043F0002316240151B793F5F50F2A966314C500CF
:104400000145828083470500E38DB7FE0505FDB7B2
:10441000CDC183A7C5FF411122C406C626C213849D
:10442000C5FF63D307003E94AA8465269387418421
:104430009C4399EB2322040023A281842244B240AE
:1044400026859244410179A6637EF4001440330727
:10445000D4006396E7009843DC43369718C05CC0ED
:10446000E1BFBA87D84319C3E37DE4FE94433386A2
:10447000D700631F86001040B29694C33386D700DE
:10448000E31EC7FA10435843B29694C3D8C37DB70E
:104490006375C400B1479CC055B71040B306C40053
:1044A0006316D70014435843B29614C058C0C0C313
:1044B00071B78280011126CA93843500F19806CE27
:1044C00022CC4AC84EC6A104B14763F1F404B144FA
:1044D00063E0B4042A89F52C9387418498433A8495
:1044E00031E0938781849C4391E781454A85512837
:1044F00023A4A184A6854A856920FD596317350741
:10450000B1472320F9004A85F12429A0E3D204FC15
:10451000B1471CC10145F2406244D2444249B2490C
:10452000056182801C40858F63CE0702AD4663F62D
:10453000F6001CC03E9404C031A05C4063128702A8
:1045400023A2F1844A8579241305B400930744001B
:1045500061993307F54061D33A94898F1CC065BFD8
:104560005CC3CDB722874040A5BF130435007198C6
:10457000E30385FCB305A4404A852120E31D35FBF8
:1045800041B7411122C42A842E8523A8018606C67C
:10459000D924FD576317F500938701879C4391C386
:1045A0001CC0B240224441018280FD4763F6B7003F
:1045B000D9471CC17D5582807C41011122CC06CE99
:1045C0002E862A8491C713972500BA97984319EB32
:1045D000228532C6BD20AA85228562443246F24039
:1045E00005611DA8854601456308D700FD5663197E
:1045F000D700D9471CC00545F2406244056182805E
:104600002E8523A0070002970145FDB793870181FE
:10461000AA8588436FF07FF9411122C42A842E8530
:10462000B28523A8018606C62924FD576317F50025
:10463000938701879C4391C31CC0B240224441012F
:104640008280E1AA411122C42E848395E50006C62A
:104650005922634905007C48AA977CC8B24022448D
:10466000410182808357C4007D777D17F98F23161F
:10467000F400EDB783D7C500011122CC26CA4AC881
:104680004EC606CE93F70710AA842E843289B689C7
:1046900091C78395E5008946014631228357C400BE
:1046A0007D777D17F98F2316F4008315E4006244AB
:1046B000F240CE864A86B24942492685D2440561F7
:1046C0003DA8411122C42E848395E50006C6E12849
:1046D000FD570357C400631BF500FD77FD17F98FE5
:1046E0002316F400B2402244410182808567D98FAD
:1046F0002316F40068C8FDB78395E50005A84111AD
:1047000022C42A842E85B285368623A8018606C651
:10471000EFD0BFB6FD576317F500938701879C4321
:1047200091C31CC0B240224441018280411122C485
:104730002A842E8523A8018606C6E120FD5763172B
:10474000F500938701879C4391C31CC0B24022446B
:1047500041018280411122C42A842E85B28523A87A
:10476000018606C66D20FD576317F5009387018704
:104770009C4391C31CC0B24022444101828041113C
:1047800022C42A842E8523A8018606C66928FD57DF
:104790006317F500938701879C4391C31CC0B24007
:1047A000224441018280411122C42A842E85B2858F
:1047B000368623A8018606C65920FD576317F500E3
:1047C000938701879C4391C31CC0B240224441019E
:1047D000828082808280411122C42A842E85B28503
:1047E000368623A8018606C68D20FD576317F5007F
:1047F000938701879C4391C31CC0B240224441016E
:1048000082809307800523A8F1867D5582809307D7
:10481000800523A8F1867D5582809307800523A813
:10482000F1867D5582809307800523A8F186014596
:1048300082809307800523A8F1867D5582809307A7
:10484000800523A8F1867D5582809307800523A8E3
:10485000F1867D5582809387C1849C4391C73E95A4
:1048600023A6A1843E858280938741873E9523A617
:10487000A1843E85828001A06C63645F7365745F70
:10488000726567696F6E00005446545F585F4D4112
:10489000583E785F73746172740000002E2E2F4CA6
:1048A00069627261726965732F7365656B667265A3
:1048B000655F7065726970686572616C2F534545FC
:1048C0004B465245455F31385446542E6300000034
:1048D0005446545F595F4D41583E795F737461721D
:1048E000740000005446545F585F4D41583E785F55
:1048F000656E64005446545F595F4D41583E795F80
:10490000656E6400256600000000000000000000E5
:10491000000000000000000000000008080808086F
:1049200008080000080800000048242412000000C5
:1049300000000000000000000000004848487E24FD
:1049400024247E24242400000000103C5252121C17
:1049500030505052523C1010000000222515150D09
:104960002A585454522200000000000C1212120A5D
:1049700076252919916E000000060404020000004B
:10498000000000000000000000402010100808088F
:104990000808081010204000000204080810101039
:1049A00010101008080402000000000008086B1C2A
:1049B0001C6B080800000000000000000010101030
:1049C000FE101010000000000000000000000000B9
:1049D00000000000060404020000000000000000C7
:1049E0007E00000000000000000000000000000049
:1049F00000000000060600000000402020201010EB
:104A00000808080404020200000000182442424280
:104A10004242424224180000000000101C101010F6
:104A200010101010107C00000000003C4242424078
:104A300020100804427E00000000003C424240205A
:104A400018204042423C0000000000203030282462
:104A50002422FE2020F800000000007E0202021E38
:104A600022404042221C0000000000182402023AAA
:104A700046424242443800000000007E422020109E
:104A800010080808080800000000003C42424224C8
:104A900018244242423C00000000001C22424242D4
:104AA000625C40402418000000000000000018185C
:104AB00000000000181800000000000000000008BE
:104AC0000000000000080808000000402010080452
:104AD00002040810204000000000000000007E00DA
:104AE000007E00000000000000000002040810200A
:104AF00040201008040200000000003C4242462012
:104B000010101000181800000000001C225A555503
:104B10005555553A423C000000000008081814148E
:104B2000243C224242E700000000001F2222221EF5
:104B300022424242221F00000000007C424201014A
:104B400001010142221C00000000001F22424242DB
:104B500042424242221F00000000003F4212121E49
:104B600012120242423F00000000003F4212121E99
:104B700012120202020700000000003C2222010182
:104B800001712122221C0000000000E74242424243
:104B90007E42424242E700000000003E080808084A
:104BA00008080808083E00000000007C10101010E3
:104BB000101010101010110F0000007722120A0EB2
:104BC0000A121222227700000000000702020202ED
:104BD00002020202427F00000000007736363636BD
:104BE000362A2A2A2A6B0000000000E346464A4A79
:104BF00052525262624700000000001C22414141B3
:104C000041414141221C00000000003F424242421B
:104C10003E020202020700000000001C2241414146
:104C20004141414D321C60000000003F4242423E83
:104C30001212222242C700000000007C42420204FD
:104C400018204042423E00000000007F490808084A
:104C500008080808081C0000000000E74242424221
:104C600042424242423C0000000000E7424222240D
:104C700024141418080800000000006B2A2A2A2AAD
:104C80002A36141414140000000000E742242418EB
:104C90001818242442E70000000000772222141490
:104CA00008080808081C00000000007E21201010E1
:104CB00008040442423F0000007808080808080879
:104CC000080808080808780000000204040408081E
:104CD0000810102020204040001E1010101010104E
:104CE0001010101010101E0000182400000000000A
:104CF00000000000000000000000000000000000B4
:104D000000000000000000FF000608000000000096
:104D10000000000000000000000000000000001C77
:104D200022302C22326C0000000000000302021A24
:104D300026424242261A000000000000000000380F
:104D40004402020244380000000000006040407C41
:104D50004242424262DC0000000000000000003CD1
:104D600042427E02423C0000000000003048083E03
:104D700008080808083E0000000000000000007C51
:104D800022221C023C42423C000000000302023A84
:104D90004642424242E700000000000C0C00000EB8
:104DA00008080808083E0000000000303000003805
:104DB000202020202020221E00000000030202727A
:104DC000120A0E1222770000000000080E080808E0
:104DD00008080808083E0000000000000000007FEE
:104DE0009292929292B70000000000000000003BF7
:104DF0004642424242E70000000000000000003C42
:104E000042424242423C0000000000000000001B01
:104E100026424242261A0207000000000000005805
:104E200064424242645840E0000000000000007705
:104E30004C040404041F0000000000000000007C7B
:104E400042023C40423E0000000000000008083ED4
:104E50000808080848300000000000000000006357
:104E60004242424262DC0000000000000000007785
:104E7000222214140808000000000000000000DBDB
:104E800091525A2A24240000000000000000006E05
:104E9000241818182476000000000000000000E725
:104EA0004224241818080806000000000000007EB4
:104EB00022100808447E000000C02020202020206E
:104EC000102020202020C0001010101010101010F2
:104ED0001010101010101010000304040404040437
:104EE0000804040404040300045A20000000000025
:104EF0000000000000000000541700006C170000C4
:104F00006C1700006C1700006C1700006C17000095
:104F10006C1700006C1700006C1700006C17000085
:104F20006C1700006C1700006C1700006C17000075
:104F30006C1700006C1700006C1700006C17000065
:104F40006C1700006C1700006C1700006C17000055
:104F50006C1700006C1700006C1700006C17000045
:104F60006C1700006C1700006C1700006C17000035
:104F70006C1700006C1700006C170000561500003D
:104F80006C1700006C1700006C1700006C17000015
:104F90006C1700006C1700006C1700006C17000005
:104FA0006C1700006C1700006C1700006C170000F5
:104FB0006C1700006C1700006C1700006C170000E5
:104FC0006C170000B21600006C1700006C17000090
:104FD0006C1700006C1700006C1700006C170000C5
:104FE0006C1700006C1700006C1700006C170000B5
:104FF000FA1400000E1500006C1700005615000092
:105000006C1700006C1700000E1500006C170000F4
:105010006C1700006C1700006C1700006C17000084
:1050200088160000081700006C1700006C170000BD
:10503000DC1600006C1700005E1600006C17000004
:105040006C170000B21600000000000080842E41A2
:1050500000080140000C0140001001400014014014
:1050600074696D65725F7069745F696E7465727280
:105070007570745F6D7300006D7300002E2E2F4CE1
:1050800069627261726965732F7365656B667265BB
:10509000655F6C69627261726965732F7A665F70B1
:1050A00069742E6300000000002C014000000040E5
:1050B00000040040000800407370695F6770696F0A
:1050C0005F696E6974000000300000002E2E2F4CC6
:1050D00069627261726965732F7365656B6672656B
:1050E000655F6C69627261726965732F7A665F735E
:1050F00070692E6300000000003801400044004049
:1051000000480040004C00406B703A006B693A0068
:1051100042D9FFFF34D8FFFF34D8FFFF32D8FFFF5A
:105120003AD8FFFF3AD8FFFF00D8FFFF32D8FFFF81
:105130003AD8FFFF00D8FFFF3AD8FFFF32D8FFFF71
:105140002ED9FFFF2ED9FFFF2ED9FFFF00D8FFFF7A
:10515000000102020303030304040404040404041E
:1051600005050505050505050505050505050505EF
:1051700006060606060606060606060606060606CF
:1051800006060606060606060606060606060606BF
:10519000070707070707070707070707070707079F
:1051A000070707070707070707070707070707078F
:1051B000070707070707070707070707070707077F
:1051C000070707070707070707070707070707076F
:1051D000080808080808080808080808080808084F
:1051E000080808080808080808080808080808083F
:1051F000080808080808080808080808080808082F
:10520000080808080808080808080808080808081E
:10521000080808080808080808080808080808080E
:1052200008080808080808080808080808080808FE
:1052300008080808080808080808080808080808EE
:1052400008080808080808080808080808080808DE
:105250002C2066756E6374696F6E3A200000000042
:10526000617373657274696F6E20222573222066E4
:1052700061696C65643A2066696C65202225732239
:105280002C206C696E65202564257325730A000047
:10529000232D302B20000000686C4C0065666745AC
:1052A00046470000303132333435363738394142E1
:1052B0004344454600000000303132333435363740
:1052C0003839616263646566000000000000000018
:1052D00000000000000000000000000000000000CE
:1052E00000000000000000000000000000000000BE
:1052F00000000000000000000000000000000000AE
:10530000000000000000000000000000000000009D
:10531000000000000000000000000000000000008D
:0C53200000000000000000000000000081
:10532C00000000000102030401020304060708093F
:10533C0000000000EC5200000C530000CC520000A6
:10534C000000000000000000000000000000000051
:10535C000000000000000000000000000000000041
:10536C000000000000000000000000000000000031
:10537C000000000000000000000000000000000021
:10538C000000000000000000000000000000000011
:10539C000204060801000000010101002400DC05E4
:1053AC0010000020003001400038004010000020A8
:00000001FF
